{
  "_format": "hh-sol-artifact-1",
  "contractName": "NanoGen",
  "sourceName": "contracts/nanoGen.sol",
  "abi": [
    {
      "inputs": [
        {
          "internalType": "address",
          "name": "_nextGenContract",
          "type": "address"
        },
        {
          "internalType": "address",
          "name": "_ntCoinContract",
          "type": "address"
        },
        {
          "internalType": "address",
          "name": "_nanoStakingContract",
          "type": "address"
        },
        {
          "internalType": "contract IERC20",
          "name": "_busdContract",
          "type": "address"
        },
        {
          "internalType": "uint256",
          "name": "_nanoPrice",
          "type": "uint256"
        },
        {
          "internalType": "address",
          "name": "_receiver",
          "type": "address"
        }
      ],
      "stateMutability": "nonpayable",
      "type": "constructor"
    },
    {
      "inputs": [
        {
          "internalType": "string",
          "name": "message",
          "type": "string"
        }
      ],
      "name": "ErrorMsg",
      "type": "error"
    },
    {
      "inputs": [
        {
          "internalType": "uint256",
          "name": "arg",
          "type": "uint256"
        },
        {
          "internalType": "string",
          "name": "message",
          "type": "string"
        }
      ],
      "name": "ParameterError",
      "type": "error"
    },
    {
      "anonymous": false,
      "inputs": [
        {
          "indexed": true,
          "internalType": "address",
          "name": "account",
          "type": "address"
        },
        {
          "indexed": true,
          "internalType": "address",
          "name": "operator",
          "type": "address"
        },
        {
          "indexed": false,
          "internalType": "bool",
          "name": "approved",
          "type": "bool"
        }
      ],
      "name": "ApprovalForAll",
      "type": "event"
    },
    {
      "anonymous": false,
      "inputs": [
        {
          "indexed": true,
          "internalType": "address",
          "name": "account",
          "type": "address"
        },
        {
          "indexed": true,
          "internalType": "uint256",
          "name": "amount",
          "type": "uint256"
        }
      ],
      "name": "ManageEvent",
      "type": "event"
    },
    {
      "anonymous": false,
      "inputs": [
        {
          "indexed": true,
          "internalType": "address",
          "name": "previousOwner",
          "type": "address"
        },
        {
          "indexed": true,
          "internalType": "address",
          "name": "newOwner",
          "type": "address"
        }
      ],
      "name": "OwnershipTransferred",
      "type": "event"
    },
    {
      "anonymous": false,
      "inputs": [
        {
          "indexed": true,
          "internalType": "address",
          "name": "buyer",
          "type": "address"
        },
        {
          "indexed": true,
          "internalType": "uint256",
          "name": "amount",
          "type": "uint256"
        }
      ],
      "name": "PurchaseNanoEvent",
      "type": "event"
    },
    {
      "anonymous": false,
      "inputs": [
        {
          "indexed": true,
          "internalType": "address",
          "name": "operator",
          "type": "address"
        },
        {
          "indexed": true,
          "internalType": "address",
          "name": "from",
          "type": "address"
        },
        {
          "indexed": true,
          "internalType": "address",
          "name": "to",
          "type": "address"
        },
        {
          "indexed": false,
          "internalType": "uint256[]",
          "name": "ids",
          "type": "uint256[]"
        },
        {
          "indexed": false,
          "internalType": "uint256[]",
          "name": "values",
          "type": "uint256[]"
        }
      ],
      "name": "TransferBatch",
      "type": "event"
    },
    {
      "anonymous": false,
      "inputs": [
        {
          "indexed": true,
          "internalType": "address",
          "name": "operator",
          "type": "address"
        },
        {
          "indexed": true,
          "internalType": "address",
          "name": "from",
          "type": "address"
        },
        {
          "indexed": true,
          "internalType": "address",
          "name": "to",
          "type": "address"
        },
        {
          "indexed": false,
          "internalType": "uint256",
          "name": "id",
          "type": "uint256"
        },
        {
          "indexed": false,
          "internalType": "uint256",
          "name": "value",
          "type": "uint256"
        }
      ],
      "name": "TransferSingle",
      "type": "event"
    },
    {
      "anonymous": false,
      "inputs": [
        {
          "indexed": false,
          "internalType": "string",
          "name": "value",
          "type": "string"
        },
        {
          "indexed": true,
          "internalType": "uint256",
          "name": "id",
          "type": "uint256"
        }
      ],
      "name": "URI",
      "type": "event"
    },
    {
      "inputs": [
        {
          "internalType": "uint256",
          "name": "amount",
          "type": "uint256"
        }
      ],
      "name": "Manage",
      "outputs": [],
      "stateMutability": "nonpayable",
      "type": "function"
    },
    {
      "inputs": [],
      "name": "NanoAmount",
      "outputs": [
        {
          "internalType": "uint256",
          "name": "",
          "type": "uint256"
        }
      ],
      "stateMutability": "view",
      "type": "function"
    },
    {
      "inputs": [
        {
          "internalType": "uint256",
          "name": "_buyNanoAmount",
          "type": "uint256"
        }
      ],
      "name": "PurchaseNano",
      "outputs": [],
      "stateMutability": "nonpayable",
      "type": "function"
    },
    {
      "inputs": [],
      "name": "_baseTokenURI",
      "outputs": [
        {
          "internalType": "string",
          "name": "",
          "type": "string"
        }
      ],
      "stateMutability": "view",
      "type": "function"
    },
    {
      "inputs": [
        {
          "internalType": "address",
          "name": "account",
          "type": "address"
        },
        {
          "internalType": "uint256",
          "name": "id",
          "type": "uint256"
        }
      ],
      "name": "balanceOf",
      "outputs": [
        {
          "internalType": "uint256",
          "name": "",
          "type": "uint256"
        }
      ],
      "stateMutability": "view",
      "type": "function"
    },
    {
      "inputs": [
        {
          "internalType": "address[]",
          "name": "accounts",
          "type": "address[]"
        },
        {
          "internalType": "uint256[]",
          "name": "ids",
          "type": "uint256[]"
        }
      ],
      "name": "balanceOfBatch",
      "outputs": [
        {
          "internalType": "uint256[]",
          "name": "",
          "type": "uint256[]"
        }
      ],
      "stateMutability": "view",
      "type": "function"
    },
    {
      "inputs": [],
      "name": "baseExtension",
      "outputs": [
        {
          "internalType": "string",
          "name": "",
          "type": "string"
        }
      ],
      "stateMutability": "view",
      "type": "function"
    },
    {
      "inputs": [
        {
          "internalType": "address",
          "name": "from",
          "type": "address"
        },
        {
          "internalType": "uint256",
          "name": "id",
          "type": "uint256"
        },
        {
          "internalType": "uint256",
          "name": "amount",
          "type": "uint256"
        }
      ],
      "name": "burn",
      "outputs": [],
      "stateMutability": "nonpayable",
      "type": "function"
    },
    {
      "inputs": [],
      "name": "busdContract",
      "outputs": [
        {
          "internalType": "contract IERC20",
          "name": "",
          "type": "address"
        }
      ],
      "stateMutability": "view",
      "type": "function"
    },
    {
      "inputs": [],
      "name": "getNtBalanceInContract",
      "outputs": [
        {
          "internalType": "uint256",
          "name": "",
          "type": "uint256"
        }
      ],
      "stateMutability": "view",
      "type": "function"
    },
    {
      "inputs": [
        {
          "internalType": "address",
          "name": "account",
          "type": "address"
        },
        {
          "internalType": "address",
          "name": "operator",
          "type": "address"
        }
      ],
      "name": "isApprovedForAll",
      "outputs": [
        {
          "internalType": "bool",
          "name": "",
          "type": "bool"
        }
      ],
      "stateMutability": "view",
      "type": "function"
    },
    {
      "inputs": [],
      "name": "manager",
      "outputs": [
        {
          "internalType": "address",
          "name": "",
          "type": "address"
        }
      ],
      "stateMutability": "view",
      "type": "function"
    },
    {
      "inputs": [],
      "name": "nanoPrice",
      "outputs": [
        {
          "internalType": "uint256",
          "name": "",
          "type": "uint256"
        }
      ],
      "stateMutability": "view",
      "type": "function"
    },
    {
      "inputs": [],
      "name": "nanoStakingContract",
      "outputs": [
        {
          "internalType": "contract PledgeNano",
          "name": "",
          "type": "address"
        }
      ],
      "stateMutability": "view",
      "type": "function"
    },
    {
      "inputs": [],
      "name": "nextGenContract",
      "outputs": [
        {
          "internalType": "contract NextGen",
          "name": "",
          "type": "address"
        }
      ],
      "stateMutability": "view",
      "type": "function"
    },
    {
      "inputs": [],
      "name": "ntCoinContract",
      "outputs": [
        {
          "internalType": "contract NTCoin",
          "name": "",
          "type": "address"
        }
      ],
      "stateMutability": "view",
      "type": "function"
    },
    {
      "inputs": [],
      "name": "owner",
      "outputs": [
        {
          "internalType": "address",
          "name": "",
          "type": "address"
        }
      ],
      "stateMutability": "view",
      "type": "function"
    },
    {
      "inputs": [],
      "name": "receiver",
      "outputs": [
        {
          "internalType": "address",
          "name": "",
          "type": "address"
        }
      ],
      "stateMutability": "view",
      "type": "function"
    },
    {
      "inputs": [],
      "name": "renounceOwnership",
      "outputs": [],
      "stateMutability": "nonpayable",
      "type": "function"
    },
    {
      "inputs": [
        {
          "internalType": "address",
          "name": "from",
          "type": "address"
        },
        {
          "internalType": "address",
          "name": "to",
          "type": "address"
        },
        {
          "internalType": "uint256[]",
          "name": "ids",
          "type": "uint256[]"
        },
        {
          "internalType": "uint256[]",
          "name": "amounts",
          "type": "uint256[]"
        },
        {
          "internalType": "bytes",
          "name": "data",
          "type": "bytes"
        }
      ],
      "name": "safeBatchTransferFrom",
      "outputs": [],
      "stateMutability": "nonpayable",
      "type": "function"
    },
    {
      "inputs": [
        {
          "internalType": "address",
          "name": "from",
          "type": "address"
        },
        {
          "internalType": "address",
          "name": "to",
          "type": "address"
        },
        {
          "internalType": "uint256",
          "name": "id",
          "type": "uint256"
        },
        {
          "internalType": "uint256",
          "name": "amount",
          "type": "uint256"
        },
        {
          "internalType": "bytes",
          "name": "data",
          "type": "bytes"
        }
      ],
      "name": "safeTransferFrom",
      "outputs": [],
      "stateMutability": "nonpayable",
      "type": "function"
    },
    {
      "inputs": [
        {
          "internalType": "address",
          "name": "operator",
          "type": "address"
        },
        {
          "internalType": "bool",
          "name": "approved",
          "type": "bool"
        }
      ],
      "name": "setApprovalForAll",
      "outputs": [],
      "stateMutability": "nonpayable",
      "type": "function"
    },
    {
      "inputs": [
        {
          "internalType": "address",
          "name": "_busdContract",
          "type": "address"
        }
      ],
      "name": "setBusdContract",
      "outputs": [],
      "stateMutability": "nonpayable",
      "type": "function"
    },
    {
      "inputs": [
        {
          "internalType": "address",
          "name": "_manager",
          "type": "address"
        }
      ],
      "name": "setManager",
      "outputs": [],
      "stateMutability": "nonpayable",
      "type": "function"
    },
    {
      "inputs": [
        {
          "internalType": "address",
          "name": "_ntCoinContract",
          "type": "address"
        }
      ],
      "name": "setNTCoinContract",
      "outputs": [],
      "stateMutability": "nonpayable",
      "type": "function"
    },
    {
      "inputs": [
        {
          "internalType": "uint256",
          "name": "_price",
          "type": "uint256"
        }
      ],
      "name": "setNanoPrice",
      "outputs": [],
      "stateMutability": "nonpayable",
      "type": "function"
    },
    {
      "inputs": [
        {
          "internalType": "address",
          "name": "_nextGenContract",
          "type": "address"
        }
      ],
      "name": "setNextGenContract",
      "outputs": [],
      "stateMutability": "nonpayable",
      "type": "function"
    },
    {
      "inputs": [
        {
          "internalType": "address",
          "name": "_receiver",
          "type": "address"
        }
      ],
      "name": "setReceiver",
      "outputs": [],
      "stateMutability": "nonpayable",
      "type": "function"
    },
    {
      "inputs": [
        {
          "internalType": "bytes4",
          "name": "interfaceId",
          "type": "bytes4"
        }
      ],
      "name": "supportsInterface",
      "outputs": [
        {
          "internalType": "bool",
          "name": "",
          "type": "bool"
        }
      ],
      "stateMutability": "view",
      "type": "function"
    },
    {
      "inputs": [
        {
          "internalType": "uint256",
          "name": "tokenId",
          "type": "uint256"
        }
      ],
      "name": "tokenURI",
      "outputs": [
        {
          "internalType": "string",
          "name": "",
          "type": "string"
        }
      ],
      "stateMutability": "pure",
      "type": "function"
    },
    {
      "inputs": [
        {
          "internalType": "address",
          "name": "newOwner",
          "type": "address"
        }
      ],
      "name": "transferOwnership",
      "outputs": [],
      "stateMutability": "nonpayable",
      "type": "function"
    },
    {
      "inputs": [
        {
          "internalType": "uint256",
          "name": "",
          "type": "uint256"
        }
      ],
      "name": "uri",
      "outputs": [
        {
          "internalType": "string",
          "name": "",
          "type": "string"
        }
      ],
      "stateMutability": "view",
      "type": "function"
    },
    {
      "inputs": [
        {
          "internalType": "uint256",
          "name": "_amount",
          "type": "uint256"
        }
      ],
      "name": "withdrawBusd",
      "outputs": [],
      "stateMutability": "nonpayable",
      "type": "function"
    }
  ],
  "bytecode": "0x60806040523480156200001157600080fd5b5060405162002a5338038062002a538339810160408190526200003491620001f0565b6040805160208101909152600081526200004e81620000c6565b506200005a33620000df565b6001600455600580546001600160a01b03199081166001600160a01b0398891617909155600680548216968816969096179095556007805486169487169490941790935560088054851692861692909217909155600a55600b80549092169216919091179055620002b5565b8051620000db90600290602084019062000131565b5050565b600380546001600160a01b038381166001600160a01b0319831681179093556040519116919082907f8be0079c531659141344cd1fd0a4f28419497f9722a3daafe3b4186f6b6457e090600090a35050565b8280546200013f9062000278565b90600052602060002090601f016020900481019282620001635760008555620001ae565b82601f106200017e57805160ff1916838001178555620001ae565b82800160010185558215620001ae579182015b82811115620001ae57825182559160200191906001019062000191565b50620001bc929150620001c0565b5090565b5b80821115620001bc5760008155600101620001c1565b6001600160a01b0381168114620001ed57600080fd5b50565b60008060008060008060c087890312156200020a57600080fd5b86516200021781620001d7565b60208801519096506200022a81620001d7565b60408801519095506200023d81620001d7565b60608801519094506200025081620001d7565b608088015160a089015191945092506200026a81620001d7565b809150509295509295509295565b600181811c908216806200028d57607f821691505b60208210811415620002af57634e487b7160e01b600052602260045260246000fd5b50919050565b61278e80620002c56000396000f3fe608060405234801561001057600080fd5b50600436106101fa5760003560e01c8063c1731b661161011a578063e8c099a4116100ad578063f2fde38b1161007c578063f2fde38b14610492578063f5298aca146104a5578063f7260d3e146104b8578063f7fa4ee7146104cb578063f8e6a1c0146104de57600080fd5b8063e8c099a414610427578063e985e9c514610430578063ef805d391461046c578063f242432a1461047f57600080fd5b8063cf9d101c116100e9578063cf9d101c146103c1578063cfc86f7b146103d4578063d0ebdbe714610401578063d26ae3bb1461041457600080fd5b8063c1731b661461036e578063c668286214610377578063c87b56dd1461039b578063c8fc1069146103ae57600080fd5b80634e1273f411610192578063936fa48e11610161578063936fa48e1461032d578063a22cb46514610340578063aadec82d14610353578063bcc9e7e81461036657600080fd5b80634e1273f4146102e1578063715018a614610301578063718da7ee146103095780638da5cb5b1461031c57600080fd5b80632eb2c2d6116101ce5780632eb2c2d61461027d5780633157aaa7146102905780633ef01e0c146102a3578063481c6a75146102b657600080fd5b8062fdd58e146101ff57806301ffc9a7146102255780630e89341c1461024857806314a04cad14610268575b600080fd5b61021261020d366004611e30565b6104f1565b6040519081526020015b60405180910390f35b610238610233366004611e70565b610587565b604051901515815260200161021c565b61025b610256366004611e94565b6105d9565b60405161021c9190611f09565b61027b610276366004611e94565b61066d565b005b61027b61028b366004612068565b6108b2565b61027b61029e366004612112565b6108fe565b61027b6102b1366004611e94565b610988565b600c546102c9906001600160a01b031681565b6040516001600160a01b03909116815260200161021c565b6102f46102ef36600461212d565b6109f8565b60405161021c9190612233565b61027b610b22565b61027b610317366004612112565b610b36565b6003546001600160a01b03166102c9565b6007546102c9906001600160a01b031681565b61027b61034e366004612254565b610bc0565b61027b610361366004612112565b610bcf565b610212610c59565b610212600a5481565b61025b60405180604001604052806005815260200164173539b7b760d91b81525081565b61025b6103a9366004611e94565b610cda565b61027b6103bc366004611e94565b610d52565b6008546102c9906001600160a01b031681565b61025b6040518060400160405280600e81526020016d7777772e31303038362e636f6d2f60901b81525081565b61027b61040f366004612112565b610e90565b6006546102c9906001600160a01b031681565b61021260095481565b61023861043e36600461228b565b6001600160a01b03918216600090815260016020908152604080832093909416825291909152205460ff1690565b61027b61047a366004611e94565b610f1a565b61027b61048d3660046122be565b611154565b61027b6104a0366004612112565b611199565b61027b6104b3366004612323565b61120f565b600b546102c9906001600160a01b031681565b61027b6104d9366004612112565b61121f565b6005546102c9906001600160a01b031681565b60006001600160a01b0383166105615760405162461bcd60e51b815260206004820152602a60248201527f455243313135353a2061646472657373207a65726f206973206e6f742061207660448201526930b634b21037bbb732b960b11b60648201526084015b60405180910390fd5b506000908152602081815260408083206001600160a01b03949094168352929052205490565b60006001600160e01b03198216636cdb3d1360e11b14806105b857506001600160e01b031982166303a24d0760e21b145b806105d357506301ffc9a760e01b6001600160e01b03198316145b92915050565b6060600280546105e890612356565b80601f016020809104026020016040519081016040528092919081815260200182805461061490612356565b80156106615780601f1061063657610100808354040283529160200191610661565b820191906000526020600020905b81548152906001019060200180831161064457829003601f168201915b50505050509050919050565b6106756112a9565b600080600a548361068691906123a7565b9050600083116106e557604051637ed4969f60e11b815260206004820152602360248201527f696e70757420616d6f756e74206d7573742067726561746572207468616e207a60448201526265726f60e81b6064820152608401610558565b6008546040516370a0823160e01b815233600482015282916001600160a01b0316906370a082319060240160206040518083038186803b15801561072857600080fd5b505afa15801561073c573d6000803e3d6000fd5b505050506040513d601f19601f8201168201806040525081019061076091906123c6565b10156107b957604051637ed4969f60e11b815260206004820152602160248201527f6d757374206861766520656e6f756768206275736420746f20627579206e616e6044820152606f60f81b6064820152608401610558565b6008546040516323b872dd60e01b8152336004820152306024820152604481018390526001600160a01b03909116906323b872dd90606401602060405180830381600087803b15801561080b57600080fd5b505af115801561081f573d6000803e3d6000fd5b505050506040513d601f19601f8201168201806040525081019061084391906123df565b5061085f33838560405180602001604052806000815250611303565b826009600082825461087191906123fc565b9091555050604051839033907f9863741028c8b1d5da86a471774fd6a8f8a069273b325e8ab00562d414ca91e590600090a350506108af6001600455565b50565b6001600160a01b0385163314806108ce57506108ce853361043e565b6108ea5760405162461bcd60e51b815260040161055890612413565b6108f78585858585611417565b5050505050565b6109066115f4565b61090e6112a9565b6001600160a01b03811661096557604051637ed4969f60e11b815260206004820181905260248201527f496e76616c6964204e65787447656e20636f6e747261637420616464726573736044820152606401610558565b600580546001600160a01b0319166001600160a01b038316179055600160045550565b6109906115f4565b6109986112a9565b600081116109e957604051637ed4969f60e11b815260206004820181905260248201527f7072696365206d7573742062652067726561746572207468616e207a65726f216044820152606401610558565b600a8190556108af6001600455565b60608151835114610a5d5760405162461bcd60e51b815260206004820152602960248201527f455243313135353a206163636f756e747320616e6420696473206c656e677468604482015268040dad2e6dac2e8c6d60bb1b6064820152608401610558565b6000835167ffffffffffffffff811115610a7957610a79611f1c565b604051908082528060200260200182016040528015610aa2578160200160208202803683370190505b50905060005b8451811015610b1a57610aed858281518110610ac657610ac6612461565b6020026020010151858381518110610ae057610ae0612461565b60200260200101516104f1565b828281518110610aff57610aff612461565b6020908102919091010152610b1381612477565b9050610aa8565b509392505050565b610b2a6115f4565b610b34600061164e565b565b610b3e6115f4565b610b466112a9565b6001600160a01b038116610b9d57604051637ed4969f60e11b815260206004820152601d60248201527f496e76616c6964204255534420636f6e747261637420616464726573730000006044820152606401610558565b600b80546001600160a01b0319166001600160a01b038316179055600160045550565b610bcb3383836116a0565b5050565b610bd76115f4565b610bdf6112a9565b6001600160a01b038116610c3657604051637ed4969f60e11b815260206004820152601d60248201527f496e76616c6964204255534420636f6e747261637420616464726573730000006044820152606401610558565b600880546001600160a01b0319166001600160a01b038316179055600160045550565b6006546040516370a0823160e01b81523060048201526000916001600160a01b0316906370a082319060240160206040518083038186803b158015610c9d57600080fd5b505afa158015610cb1573d6000803e3d6000fd5b505050506040513d601f19601f82011682018060405250810190610cd591906123c6565b905090565b60606040518060400160405280600e81526020016d7777772e31303038362e636f6d2f60901b815250610d0c83611781565b60405180604001604052806005815260200164173539b7b760d91b815250604051602001610d3c93929190612492565b6040516020818303038152906040529050919050565b600b546001600160a01b03163314610dbc57604051637ed4969f60e11b815260206004820152602660248201527f796f7520646f6e2774206861766520706f77657220746f20776974686472617760448201526520627573642160d01b6064820152608401610558565b610dc46112a9565b60008111610e0157604051637ed4969f60e11b81526020600482015260096024820152686e6f74206e756c6c2160b81b6044820152606401610558565b60085460405163a9059cbb60e01b8152336004820152602481018390526001600160a01b039091169063a9059cbb90604401602060405180830381600087803b158015610e4d57600080fd5b505af1158015610e61573d6000803e3d6000fd5b505050506040513d601f19601f82011682018060405250810190610e8591906123df565b506108af6001600455565b610e986115f4565b610ea06112a9565b6001600160a01b038116610ef757604051637ed4969f60e11b815260206004820181905260248201527f496e76616c6964206d616e6167657220636f6e747261637420616464726573736044820152606401610558565b600c80546001600160a01b0319166001600160a01b038316179055600160045550565b600c546001600160a01b03163314610f6d57604051637ed4969f60e11b81526020600482015260156024820152741b5d5cdd081b585b9859d95c8818d85b8818d85b1b605a1b6044820152606401610558565b610f756112a9565b6005546001600160a01b0316610fce57604051637ed4969f60e11b815260206004820181905260248201527f4e65787447656e20636f6e74726163742061646472657373206e6f74207365746044820152606401610558565b600554604051637a94c56560e11b815233600482015260006024820181905260448201849052916001600160a01b03169063f5298aca90606401600060405180830381600087803b15801561102257600080fd5b505af1158015611036573d6000803e3d6000fd5b505050508168056bc75e2d6310000061104f91906123a7565b6009600082825461106091906124d5565b90915550506006546007546001600160a01b03918216916323b872dd913391166110948669021e19e0c9bab24000006123a7565b6040516001600160e01b031960e086901b1681526001600160a01b0393841660048201529290911660248301526044820152606401602060405180830381600087803b1580156110e357600080fd5b505af11580156110f7573d6000803e3d6000fd5b505050506040513d601f19601f8201168201806040525081019061111b91906123df565b50604051829033907f1dab528159ef2ae5f4aa12531d5534168dd856b820d1c87990b659683374166d90600090a3506108af6001600455565b6001600160a01b0385163314806111705750611170853361043e565b61118c5760405162461bcd60e51b815260040161055890612413565b6108f78585858585611816565b6111a16115f4565b6001600160a01b0381166112065760405162461bcd60e51b815260206004820152602660248201527f4f776e61626c653a206e6577206f776e657220697320746865207a65726f206160448201526564647265737360d01b6064820152608401610558565b6108af8161164e565b61121a838383611940565b505050565b6112276115f4565b61122f6112a9565b6001600160a01b03811661128657604051637ed4969f60e11b815260206004820152601f60248201527f496e76616c6964204e54436f696e20636f6e74726163742061646472657373006044820152606401610558565b600680546001600160a01b0319166001600160a01b038316179055600160045550565b600260045414156112fc5760405162461bcd60e51b815260206004820152601f60248201527f5265656e7472616e637947756172643a207265656e7472616e742063616c6c006044820152606401610558565b6002600455565b6001600160a01b0384166113635760405162461bcd60e51b815260206004820152602160248201527f455243313135353a206d696e7420746f20746865207a65726f206164647265736044820152607360f81b6064820152608401610558565b33600061136f85611abc565b9050600061137c85611abc565b90506000868152602081815260408083206001600160a01b038b168452909152812080548792906113ae9084906124d5565b909155505060408051878152602081018790526001600160a01b03808a1692600092918716917fc3d58168c5ae7397731d063d5bbf3d657854427343f4c083240f7aacaa2d0f62910160405180910390a461140e83600089898989611b07565b50505050505050565b81518351146114795760405162461bcd60e51b815260206004820152602860248201527f455243313135353a2069647320616e6420616d6f756e7473206c656e677468206044820152670dad2e6dac2e8c6d60c31b6064820152608401610558565b6001600160a01b03841661149f5760405162461bcd60e51b8152600401610558906124ed565b3360005b84518110156115865760008582815181106114c0576114c0612461565b6020026020010151905060008583815181106114de576114de612461565b602090810291909101810151600084815280835260408082206001600160a01b038e16835290935291909120549091508181101561152e5760405162461bcd60e51b815260040161055890612532565b6000838152602081815260408083206001600160a01b038e8116855292528083208585039055908b1682528120805484929061156b9084906124d5565b925050819055505050508061157f90612477565b90506114a3565b50846001600160a01b0316866001600160a01b0316826001600160a01b03167f4a39dc06d4c0dbc64b70af90fd698a233a518aa5d07e595d983b8c0526c8f7fb87876040516115d692919061257c565b60405180910390a46115ec818787878787611c72565b505050505050565b6003546001600160a01b03163314610b345760405162461bcd60e51b815260206004820181905260248201527f4f776e61626c653a2063616c6c6572206973206e6f7420746865206f776e65726044820152606401610558565b600380546001600160a01b038381166001600160a01b0319831681179093556040519116919082907f8be0079c531659141344cd1fd0a4f28419497f9722a3daafe3b4186f6b6457e090600090a35050565b816001600160a01b0316836001600160a01b031614156117145760405162461bcd60e51b815260206004820152602960248201527f455243313135353a2073657474696e6720617070726f76616c20737461747573604482015268103337b91039b2b63360b91b6064820152608401610558565b6001600160a01b03838116600081815260016020908152604080832094871680845294825291829020805460ff191686151590811790915591519182527f17307eab39ab6107e8899845ad3d59bd9653f200f220920489ca2b5937696c31910160405180910390a3505050565b6060600061178e83611d3c565b600101905060008167ffffffffffffffff8111156117ae576117ae611f1c565b6040519080825280601f01601f1916602001820160405280156117d8576020820181803683370190505b5090508181016020015b600019016f181899199a1a9b1b9c1cb0b131b232b360811b600a86061a8153600a850494508461181157610b1a565b6117e2565b6001600160a01b03841661183c5760405162461bcd60e51b8152600401610558906124ed565b33600061184885611abc565b9050600061185585611abc565b90506000868152602081815260408083206001600160a01b038c168452909152902054858110156118985760405162461bcd60e51b815260040161055890612532565b6000878152602081815260408083206001600160a01b038d8116855292528083208985039055908a168252812080548892906118d59084906124d5565b909155505060408051888152602081018890526001600160a01b03808b16928c821692918816917fc3d58168c5ae7397731d063d5bbf3d657854427343f4c083240f7aacaa2d0f62910160405180910390a4611935848a8a8a8a8a611b07565b505050505050505050565b6001600160a01b0383166119a25760405162461bcd60e51b815260206004820152602360248201527f455243313135353a206275726e2066726f6d20746865207a65726f206164647260448201526265737360e81b6064820152608401610558565b3360006119ae84611abc565b905060006119bb84611abc565b60408051602080820183526000918290528882528181528282206001600160a01b038b1683529052205490915084811015611a445760405162461bcd60e51b8152602060048201526024808201527f455243313135353a206275726e20616d6f756e7420657863656564732062616c604482015263616e636560e01b6064820152608401610558565b6000868152602081815260408083206001600160a01b038b81168086529184528285208a8703905582518b81529384018a90529092908816917fc3d58168c5ae7397731d063d5bbf3d657854427343f4c083240f7aacaa2d0f62910160405180910390a460408051602081019091526000905261140e565b60408051600180825281830190925260609160009190602080830190803683370190505090508281600081518110611af657611af6612461565b602090810291909101015292915050565b6001600160a01b0384163b156115ec5760405163f23a6e6160e01b81526001600160a01b0385169063f23a6e6190611b4b90899089908890889088906004016125aa565b602060405180830381600087803b158015611b6557600080fd5b505af1925050508015611b95575060408051601f3d908101601f19168201909252611b92918101906125ef565b60015b611c4257611ba161260c565b806308c379a01415611bdb5750611bb6612628565b80611bc15750611bdd565b8060405162461bcd60e51b81526004016105589190611f09565b505b60405162461bcd60e51b815260206004820152603460248201527f455243313135353a207472616e7366657220746f206e6f6e2d455243313135356044820152732932b1b2b4bb32b91034b6b83632b6b2b73a32b960611b6064820152608401610558565b6001600160e01b0319811663f23a6e6160e01b1461140e5760405162461bcd60e51b8152600401610558906126b2565b6001600160a01b0384163b156115ec5760405163bc197c8160e01b81526001600160a01b0385169063bc197c8190611cb690899089908890889088906004016126fa565b602060405180830381600087803b158015611cd057600080fd5b505af1925050508015611d00575060408051601f3d908101601f19168201909252611cfd918101906125ef565b60015b611d0c57611ba161260c565b6001600160e01b0319811663bc197c8160e01b1461140e5760405162461bcd60e51b8152600401610558906126b2565b60008072184f03e93ff9f4daa797ed6e38ed64bf6a1f0160401b8310611d7b5772184f03e93ff9f4daa797ed6e38ed64bf6a1f0160401b830492506040015b6d04ee2d6d415b85acef81000000008310611da7576d04ee2d6d415b85acef8100000000830492506020015b662386f26fc100008310611dc557662386f26fc10000830492506010015b6305f5e1008310611ddd576305f5e100830492506008015b6127108310611df157612710830492506004015b60648310611e03576064830492506002015b600a83106105d35760010192915050565b80356001600160a01b0381168114611e2b57600080fd5b919050565b60008060408385031215611e4357600080fd5b611e4c83611e14565b946020939093013593505050565b6001600160e01b0319811681146108af57600080fd5b600060208284031215611e8257600080fd5b8135611e8d81611e5a565b9392505050565b600060208284031215611ea657600080fd5b5035919050565b60005b83811015611ec8578181015183820152602001611eb0565b83811115611ed7576000848401525b50505050565b60008151808452611ef5816020860160208601611ead565b601f01601f19169290920160200192915050565b602081526000611e8d6020830184611edd565b634e487b7160e01b600052604160045260246000fd5b601f8201601f1916810167ffffffffffffffff81118282101715611f5857611f58611f1c565b6040525050565b600067ffffffffffffffff821115611f7957611f79611f1c565b5060051b60200190565b600082601f830112611f9457600080fd5b81356020611fa182611f5f565b604051611fae8282611f32565b83815260059390931b8501820192828101915086841115611fce57600080fd5b8286015b84811015611fe95780358352918301918301611fd2565b509695505050505050565b600082601f83011261200557600080fd5b813567ffffffffffffffff81111561201f5761201f611f1c565b604051612036601f8301601f191660200182611f32565b81815284602083860101111561204b57600080fd5b816020850160208301376000918101602001919091529392505050565b600080600080600060a0868803121561208057600080fd5b61208986611e14565b945061209760208701611e14565b9350604086013567ffffffffffffffff808211156120b457600080fd5b6120c089838a01611f83565b945060608801359150808211156120d657600080fd5b6120e289838a01611f83565b935060808801359150808211156120f857600080fd5b5061210588828901611ff4565b9150509295509295909350565b60006020828403121561212457600080fd5b611e8d82611e14565b6000806040838503121561214057600080fd5b823567ffffffffffffffff8082111561215857600080fd5b818501915085601f83011261216c57600080fd5b8135602061217982611f5f565b6040516121868282611f32565b83815260059390931b85018201928281019150898411156121a657600080fd5b948201945b838610156121cb576121bc86611e14565b825294820194908201906121ab565b965050860135925050808211156121e157600080fd5b506121ee85828601611f83565b9150509250929050565b600081518084526020808501945080840160005b838110156122285781518752958201959082019060010161220c565b509495945050505050565b602081526000611e8d60208301846121f8565b80151581146108af57600080fd5b6000806040838503121561226757600080fd5b61227083611e14565b9150602083013561228081612246565b809150509250929050565b6000806040838503121561229e57600080fd5b6122a783611e14565b91506122b560208401611e14565b90509250929050565b600080600080600060a086880312156122d657600080fd5b6122df86611e14565b94506122ed60208701611e14565b93506040860135925060608601359150608086013567ffffffffffffffff81111561231757600080fd5b61210588828901611ff4565b60008060006060848603121561233857600080fd5b61234184611e14565b95602085013595506040909401359392505050565b600181811c9082168061236a57607f821691505b6020821081141561238b57634e487b7160e01b600052602260045260246000fd5b50919050565b634e487b7160e01b600052601160045260246000fd5b60008160001904831182151516156123c1576123c1612391565b500290565b6000602082840312156123d857600080fd5b5051919050565b6000602082840312156123f157600080fd5b8151611e8d81612246565b60008282101561240e5761240e612391565b500390565b6020808252602e908201527f455243313135353a2063616c6c6572206973206e6f7420746f6b656e206f776e60408201526d195c881bdc88185c1c1c9bdd995960921b606082015260800190565b634e487b7160e01b600052603260045260246000fd5b600060001982141561248b5761248b612391565b5060010190565b600084516124a4818460208901611ead565b8451908301906124b8818360208901611ead565b84519101906124cb818360208801611ead565b0195945050505050565b600082198211156124e8576124e8612391565b500190565b60208082526025908201527f455243313135353a207472616e7366657220746f20746865207a65726f206164604082015264647265737360d81b606082015260800190565b6020808252602a908201527f455243313135353a20696e73756666696369656e742062616c616e636520666f60408201526939103a3930b739b332b960b11b606082015260800190565b60408152600061258f60408301856121f8565b82810360208401526125a181856121f8565b95945050505050565b6001600160a01b03868116825285166020820152604081018490526060810183905260a0608082018190526000906125e490830184611edd565b979650505050505050565b60006020828403121561260157600080fd5b8151611e8d81611e5a565b600060033d11156126255760046000803e5060005160e01c5b90565b600060443d10156126365790565b6040516003193d81016004833e81513d67ffffffffffffffff816024840111818411171561266657505050505090565b828501915081518181111561267e5750505050505090565b843d87010160208285010111156126985750505050505090565b6126a760208286010187611f32565b509095945050505050565b60208082526028908201527f455243313135353a204552433131353552656365697665722072656a656374656040820152676420746f6b656e7360c01b606082015260800190565b6001600160a01b0386811682528516602082015260a060408201819052600090612726908301866121f8565b828103606084015261273881866121f8565b9050828103608084015261274c8185611edd565b9897505050505050505056fea26469706673582212208d253d9bb346739af90dc78126506341e266e0d9acd46d73fc42b491998bd73e64736f6c63430008090033",
  "linkReferences": {},
  "deployedLinkReferences": {}
}