{
	"ROO_Repurchase/contracts/CHE_Repurchase.sol": {
		"Repurchase": {
			"abi": [
				{
					"anonymous": false,
					"inputs": [
						{
							"indexed": true,
							"internalType": "address",
							"name": "previousOwner",
							"type": "address"
						},
						{
							"indexed": true,
							"internalType": "address",
							"name": "newOwner",
							"type": "address"
						}
					],
					"name": "OwnershipTransferred",
					"type": "event"
				},
				{
					"inputs": [],
					"name": "CHE",
					"outputs": [
						{
							"internalType": "address",
							"name": "",
							"type": "address"
						}
					],
					"stateMutability": "view",
					"type": "function"
				},
				{
					"inputs": [],
					"name": "CHE_USDT",
					"outputs": [
						{
							"internalType": "address",
							"name": "",
							"type": "address"
						}
					],
					"stateMutability": "view",
					"type": "function"
				},
				{
					"inputs": [],
					"name": "USDT",
					"outputs": [
						{
							"internalType": "address",
							"name": "",
							"type": "address"
						}
					],
					"stateMutability": "view",
					"type": "function"
				},
				{
					"inputs": [
						{
							"internalType": "address",
							"name": "_newCaller",
							"type": "address"
						}
					],
					"name": "addCaller",
					"outputs": [
						{
							"internalType": "bool",
							"name": "",
							"type": "bool"
						}
					],
					"stateMutability": "nonpayable",
					"type": "function"
				},
				{
					"inputs": [],
					"name": "amountIn",
					"outputs": [
						{
							"internalType": "uint256",
							"name": "",
							"type": "uint256"
						}
					],
					"stateMutability": "view",
					"type": "function"
				},
				{
					"inputs": [
						{
							"internalType": "address",
							"name": "_delCaller",
							"type": "address"
						}
					],
					"name": "delCaller",
					"outputs": [
						{
							"internalType": "bool",
							"name": "",
							"type": "bool"
						}
					],
					"stateMutability": "nonpayable",
					"type": "function"
				},
				{
					"inputs": [],
					"name": "destroyAddress",
					"outputs": [
						{
							"internalType": "address",
							"name": "",
							"type": "address"
						}
					],
					"stateMutability": "view",
					"type": "function"
				},
				{
					"inputs": [],
					"name": "emergencyAddress",
					"outputs": [
						{
							"internalType": "address",
							"name": "",
							"type": "address"
						}
					],
					"stateMutability": "view",
					"type": "function"
				},
				{
					"inputs": [
						{
							"internalType": "address",
							"name": "_token",
							"type": "address"
						}
					],
					"name": "emergencyWithdraw",
					"outputs": [],
					"stateMutability": "nonpayable",
					"type": "function"
				},
				{
					"inputs": [
						{
							"internalType": "uint256",
							"name": "_index",
							"type": "uint256"
						}
					],
					"name": "getCaller",
					"outputs": [
						{
							"internalType": "address",
							"name": "",
							"type": "address"
						}
					],
					"stateMutability": "view",
					"type": "function"
				},
				{
					"inputs": [],
					"name": "getCallerLength",
					"outputs": [
						{
							"internalType": "uint256",
							"name": "",
							"type": "uint256"
						}
					],
					"stateMutability": "view",
					"type": "function"
				},
				{
					"inputs": [
						{
							"internalType": "address",
							"name": "_call",
							"type": "address"
						}
					],
					"name": "isCaller",
					"outputs": [
						{
							"internalType": "bool",
							"name": "",
							"type": "bool"
						}
					],
					"stateMutability": "view",
					"type": "function"
				},
				{
					"inputs": [],
					"name": "owner",
					"outputs": [
						{
							"internalType": "address",
							"name": "",
							"type": "address"
						}
					],
					"stateMutability": "view",
					"type": "function"
				},
				{
					"inputs": [],
					"name": "renounceOwnership",
					"outputs": [],
					"stateMutability": "nonpayable",
					"type": "function"
				},
				{
					"inputs": [
						{
							"internalType": "uint256",
							"name": "_newIn",
							"type": "uint256"
						}
					],
					"name": "setAmountIn",
					"outputs": [],
					"stateMutability": "nonpayable",
					"type": "function"
				},
				{
					"inputs": [
						{
							"internalType": "address",
							"name": "_newAddress",
							"type": "address"
						}
					],
					"name": "setEmergencyAddress",
					"outputs": [],
					"stateMutability": "nonpayable",
					"type": "function"
				},
				{
					"inputs": [],
					"name": "swap",
					"outputs": [
						{
							"internalType": "uint256",
							"name": "amountOut",
							"type": "uint256"
						}
					],
					"stateMutability": "nonpayable",
					"type": "function"
				},
				{
					"inputs": [
						{
							"internalType": "address",
							"name": "newOwner",
							"type": "address"
						}
					],
					"name": "transferOwnership",
					"outputs": [],
					"stateMutability": "nonpayable",
					"type": "function"
				}
			],
			"devdoc": {
				"kind": "dev",
				"methods": {
					"owner()": {
						"details": "Returns the address of the current owner."
					},
					"renounceOwnership()": {
						"details": "Leaves the contract without owner. It will not be possible to call `onlyOwner` functions anymore. Can only be called by the current owner. NOTE: Renouncing ownership will leave the contract without an owner, thereby removing any functionality that is only available to the owner."
					},
					"transferOwnership(address)": {
						"details": "Transfers ownership of the contract to a new account (`newOwner`). Can only be called by the current owner."
					}
				},
				"version": 1
			},
			"evm": {
				"assembly": "    /* \"ROO_Repurchase/contracts/CHE_Repurchase.sol\":199:3908  contract Repurchase is Ownable {... */\n  mstore(0x40, 0x80)\n  callvalue\n  dup1\n  iszero\n  tag_1\n  jumpi\n  0x00\n  dup1\n  revert\ntag_1:\n  pop\n    /* \"ROO_Repurchase/contracts/library/Ownable.sol\":343:360  address msgSender */\n  0x00\n    /* \"ROO_Repurchase/contracts/library/Ownable.sol\":363:375  _msgSender() */\n  tag_4\n    /* \"ROO_Repurchase/contracts/library/Ownable.sol\":363:373  _msgSender */\n  tag_5\n    /* \"ROO_Repurchase/contracts/library/Ownable.sol\":363:375  _msgSender() */\n  jump\t// in\ntag_4:\n    /* \"ROO_Repurchase/contracts/library/Ownable.sol\":385:391  _owner */\n  0x00\n    /* \"ROO_Repurchase/contracts/library/Ownable.sol\":385:403  _owner = msgSender */\n  dup1\n  sload\n  not(sub(shl(0xa0, 0x01), 0x01))\n  and\n  sub(shl(0xa0, 0x01), 0x01)\n  dup4\n  and\n  swap1\n  dup2\n  or\n  dup3\n  sstore\n    /* \"ROO_Repurchase/contracts/library/Ownable.sol\":418:461  OwnershipTransferred(address(0), msgSender) */\n  mload(0x40)\n    /* \"ROO_Repurchase/contracts/library/Ownable.sol\":385:403  _owner = msgSender */\n  swap3\n  swap4\n  pop\n  swap2\n    /* \"ROO_Repurchase/contracts/library/Ownable.sol\":418:461  OwnershipTransferred(address(0), msgSender) */\n  0x8be0079c531659141344cd1fd0a4f28419497f9722a3daafe3b4186f6b6457e0\n  swap1\n    /* \"ROO_Repurchase/contracts/library/Ownable.sol\":385:391  _owner */\n  dup3\n  swap1\n    /* \"ROO_Repurchase/contracts/library/Ownable.sol\":418:461  OwnershipTransferred(address(0), msgSender) */\n  log3\n    /* \"ROO_Repurchase/contracts/library/Ownable.sol\":309:468  constructor () internal {... */\n  pop\n    /* \"ROO_Repurchase/contracts/CHE_Repurchase.sol\":199:3908  contract Repurchase is Ownable {... */\n  jump(tag_6)\n    /* \"ROO_Repurchase/contracts/library/Context.sol\":58:162  function _msgSender() internal view virtual returns (address payable) {... */\ntag_5:\n    /* \"ROO_Repurchase/contracts/library/Context.sol\":145:155  msg.sender */\n  caller\n    /* \"ROO_Repurchase/contracts/library/Context.sol\":58:162  function _msgSender() internal view virtual returns (address payable) {... */\n  swap1\n  jump\t// out\n    /* \"ROO_Repurchase/contracts/CHE_Repurchase.sol\":199:3908  contract Repurchase is Ownable {... */\ntag_6:\n  dataSize(sub_0)\n  dup1\n  dataOffset(sub_0)\n  0x00\n  codecopy\n  0x00\n  return\nstop\n\nsub_0: assembly {\n        /* \"ROO_Repurchase/contracts/CHE_Repurchase.sol\":199:3908  contract Repurchase is Ownable {... */\n      mstore(0x40, 0x80)\n      callvalue\n      dup1\n      iszero\n      tag_1\n      jumpi\n      0x00\n      dup1\n      revert\n    tag_1:\n      pop\n      jumpi(tag_2, lt(calldatasize, 0x04))\n      shr(0xe0, calldataload(0x00))\n      dup1\n      0x7ac07dcc\n      gt\n      tag_21\n      jumpi\n      dup1\n      0xc0a04799\n      gt\n      tag_22\n      jumpi\n      dup1\n      0xc0a04799\n      eq\n      tag_16\n      jumpi\n      dup1\n      0xc54e44eb\n      eq\n      tag_17\n      jumpi\n      dup1\n      0xd12d9f15\n      eq\n      tag_18\n      jumpi\n      dup1\n      0xf2fde38b\n      eq\n      tag_19\n      jumpi\n      dup1\n      0xfddf3f73\n      eq\n      tag_20\n      jumpi\n      jump(tag_2)\n    tag_22:\n      dup1\n      0x7ac07dcc\n      eq\n      tag_12\n      jumpi\n      dup1\n      0x8119c065\n      eq\n      tag_13\n      jumpi\n      dup1\n      0x8da5cb5b\n      eq\n      tag_14\n      jumpi\n      dup1\n      0xa8b0b3ed\n      eq\n      tag_15\n      jumpi\n      jump(tag_2)\n    tag_21:\n      dup1\n      0x6717f5b0\n      gt\n      tag_23\n      jumpi\n      dup1\n      0x6717f5b0\n      eq\n      tag_7\n      jumpi\n      dup1\n      0x6bed55a6\n      eq\n      tag_8\n      jumpi\n      dup1\n      0x6ff1c9bc\n      eq\n      tag_9\n      jumpi\n      dup1\n      0x715018a6\n      eq\n      tag_10\n      jumpi\n      dup1\n      0x747293fb\n      eq\n      tag_11\n      jumpi\n      jump(tag_2)\n    tag_23:\n      dup1\n      0x07805372\n      eq\n      tag_3\n      jumpi\n      dup1\n      0x231a418c\n      eq\n      tag_4\n      jumpi\n      dup1\n      0x2aa11ffb\n      eq\n      tag_5\n      jumpi\n      dup1\n      0x42177a58\n      eq\n      tag_6\n      jumpi\n    tag_2:\n      0x00\n      dup1\n      revert\n        /* \"ROO_Repurchase/contracts/CHE_Repurchase.sol\":1364:1436  address public constant CHE = 0x0d57285Ed72b1Db83f497bDBE95C25738D10a8E6 */\n    tag_3:\n      tag_24\n      tag_25\n      jump\t// in\n    tag_24:\n      0x40\n      dup1\n      mload\n      sub(shl(0xa0, 0x01), 0x01)\n      swap1\n      swap3\n      and\n      dup3\n      mstore\n      mload\n      swap1\n      dup2\n      swap1\n      sub\n      0x20\n      add\n      swap1\n      return\n        /* \"ROO_Repurchase/contracts/CHE_Repurchase.sol\":2272:2484  function delCaller(address _delCaller) public onlyOwner returns (bool) {... */\n    tag_4:\n      tag_26\n      0x04\n      dup1\n      calldatasize\n      sub\n      0x20\n      dup2\n      lt\n      iszero\n      tag_27\n      jumpi\n      0x00\n      dup1\n      revert\n    tag_27:\n      pop\n      calldataload\n      sub(shl(0xa0, 0x01), 0x01)\n      and\n      tag_28\n      jump\t// in\n    tag_26:\n      0x40\n      dup1\n      mload\n      swap2\n      iszero\n      iszero\n      dup3\n      mstore\n      mload\n      swap1\n      dup2\n      swap1\n      sub\n      0x20\n      add\n      swap1\n      return\n        /* \"ROO_Repurchase/contracts/CHE_Repurchase.sol\":1874:2051  function setEmergencyAddress(address _newAddress) public onlyOwner {... */\n    tag_5:\n      tag_29\n      0x04\n      dup1\n      calldatasize\n      sub\n      0x20\n      dup2\n      lt\n      iszero\n      tag_30\n      jumpi\n      0x00\n      dup1\n      revert\n    tag_30:\n      pop\n      calldataload\n      sub(shl(0xa0, 0x01), 0x01)\n      and\n      tag_31\n      jump\t// in\n    tag_29:\n      stop\n        /* \"ROO_Repurchase/contracts/CHE_Repurchase.sol\":2490:2600  function getCallerLength() public view returns (uint256) {... */\n    tag_6:\n      tag_32\n      tag_33\n      jump\t// in\n    tag_32:\n      0x40\n      dup1\n      mload\n      swap2\n      dup3\n      mstore\n      mload\n      swap1\n      dup2\n      swap1\n      sub\n      0x20\n      add\n      swap1\n      return\n        /* \"ROO_Repurchase/contracts/CHE_Repurchase.sol\":1780:1868  function setAmountIn(uint256 _newIn) public onlyOwner {... */\n    tag_7:\n      tag_29\n      0x04\n      dup1\n      calldatasize\n      sub\n      0x20\n      dup2\n      lt\n      iszero\n      tag_35\n      jumpi\n      0x00\n      dup1\n      revert\n    tag_35:\n      pop\n      calldataload\n      tag_36\n      jump\t// in\n        /* \"ROO_Repurchase/contracts/CHE_Repurchase.sol\":1685:1708  uint256 public amountIn */\n    tag_8:\n      tag_32\n      tag_38\n      jump\t// in\n        /* \"ROO_Repurchase/contracts/CHE_Repurchase.sol\":3652:3906  function emergencyWithdraw(address _token) public onlyOwner {... */\n    tag_9:\n      tag_29\n      0x04\n      dup1\n      calldatasize\n      sub\n      0x20\n      dup2\n      lt\n      iszero\n      tag_40\n      jumpi\n      0x00\n      dup1\n      revert\n    tag_40:\n      pop\n      calldataload\n      sub(shl(0xa0, 0x01), 0x01)\n      and\n      tag_41\n      jump\t// in\n        /* \"ROO_Repurchase/contracts/library/Ownable.sol\":1167:1312  function renounceOwnership() public virtual onlyOwner {... */\n    tag_10:\n      tag_29\n      tag_43\n      jump\t// in\n        /* \"ROO_Repurchase/contracts/CHE_Repurchase.sol\":2057:2266  function addCaller(address _newCaller) public onlyOwner returns (bool) {... */\n    tag_11:\n      tag_26\n      0x04\n      dup1\n      calldatasize\n      sub\n      0x20\n      dup2\n      lt\n      iszero\n      tag_45\n      jumpi\n      0x00\n      dup1\n      revert\n    tag_45:\n      pop\n      calldataload\n      sub(shl(0xa0, 0x01), 0x01)\n      and\n      tag_46\n      jump\t// in\n        /* \"ROO_Repurchase/contracts/CHE_Repurchase.sol\":2606:2728  function isCaller(address _call) public view returns (bool) {... */\n    tag_12:\n      tag_26\n      0x04\n      dup1\n      calldatasize\n      sub\n      0x20\n      dup2\n      lt\n      iszero\n      tag_48\n      jumpi\n      0x00\n      dup1\n      revert\n    tag_48:\n      pop\n      calldataload\n      sub(shl(0xa0, 0x01), 0x01)\n      and\n      tag_49\n      jump\t// in\n        /* \"ROO_Repurchase/contracts/CHE_Repurchase.sol\":2934:3543  function swap() external onlyCaller returns (uint256 amountOut){... */\n    tag_13:\n      tag_32\n      tag_51\n      jump\t// in\n        /* \"ROO_Repurchase/contracts/library/Ownable.sol\":544:621  function owner() public view returns (address) {... */\n    tag_14:\n      tag_24\n      tag_53\n      jump\t// in\n        /* \"ROO_Repurchase/contracts/CHE_Repurchase.sol\":2734:2928  function getCaller(uint256 _index) public view returns (address){... */\n    tag_15:\n      tag_24\n      0x04\n      dup1\n      calldatasize\n      sub\n      0x20\n      dup2\n      lt\n      iszero\n      tag_55\n      jumpi\n      0x00\n      dup1\n      revert\n    tag_55:\n      pop\n      calldataload\n      tag_56\n      jump\t// in\n        /* \"ROO_Repurchase/contracts/CHE_Repurchase.sol\":1442:1519  address public constant CHE_USDT = 0x87B2Cc033901C512306F011A4CC70461584dcCd9 */\n    tag_16:\n      tag_24\n      tag_58\n      jump\t// in\n        /* \"ROO_Repurchase/contracts/CHE_Repurchase.sol\":1285:1358  address public constant USDT = 0x7f9Ee0245D3Be4bb8F79e9fCafeD81d34C8A623D */\n    tag_17:\n      tag_24\n      tag_60\n      jump\t// in\n        /* \"ROO_Repurchase/contracts/CHE_Repurchase.sol\":1525:1608  address public constant destroyAddress = 0x000000000000000000000000000000000000dEaD */\n    tag_18:\n      tag_24\n      tag_62\n      jump\t// in\n        /* \"ROO_Repurchase/contracts/library/Ownable.sol\":1461:1701  function transferOwnership(address newOwner) public virtual onlyOwner {... */\n    tag_19:\n      tag_29\n      0x04\n      dup1\n      calldatasize\n      sub\n      0x20\n      dup2\n      lt\n      iszero\n      tag_64\n      jumpi\n      0x00\n      dup1\n      revert\n    tag_64:\n      pop\n      calldataload\n      sub(shl(0xa0, 0x01), 0x01)\n      and\n      tag_65\n      jump\t// in\n        /* \"ROO_Repurchase/contracts/CHE_Repurchase.sol\":1631:1662  address public emergencyAddress */\n    tag_20:\n      tag_24\n      tag_67\n      jump\t// in\n        /* \"ROO_Repurchase/contracts/CHE_Repurchase.sol\":1364:1436  address public constant CHE = 0x0d57285Ed72b1Db83f497bDBE95C25738D10a8E6 */\n    tag_25:\n        /* \"ROO_Repurchase/contracts/CHE_Repurchase.sol\":1394:1436  0x0d57285Ed72b1Db83f497bDBE95C25738D10a8E6 */\n      0x0d57285ed72b1db83f497bdbe95c25738d10a8e6\n        /* \"ROO_Repurchase/contracts/CHE_Repurchase.sol\":1364:1436  address public constant CHE = 0x0d57285Ed72b1Db83f497bDBE95C25738D10a8E6 */\n      dup2\n      jump\t// out\n        /* \"ROO_Repurchase/contracts/CHE_Repurchase.sol\":2272:2484  function delCaller(address _delCaller) public onlyOwner returns (bool) {... */\n    tag_28:\n        /* \"ROO_Repurchase/contracts/CHE_Repurchase.sol\":2337:2341  bool */\n      0x00\n        /* \"ROO_Repurchase/contracts/library/Ownable.sol\":758:770  _msgSender() */\n      tag_69\n        /* \"ROO_Repurchase/contracts/library/Ownable.sol\":758:768  _msgSender */\n      tag_70\n        /* \"ROO_Repurchase/contracts/library/Ownable.sol\":758:770  _msgSender() */\n      jump\t// in\n    tag_69:\n        /* \"ROO_Repurchase/contracts/library/Ownable.sol\":748:754  _owner */\n      sload(0x00)\n      sub(shl(0xa0, 0x01), 0x01)\n      swap1\n      dup2\n      and\n        /* \"ROO_Repurchase/contracts/library/Ownable.sol\":748:770  _owner == _msgSender() */\n      swap2\n      and\n      eq\n        /* \"ROO_Repurchase/contracts/library/Ownable.sol\":740:807  require(_owner == _msgSender(), \"Ownable: caller is not the owner\") */\n      tag_71\n      jumpi\n      0x40\n      dup1\n      mload\n      shl(0xe5, 0x461bcd)\n      dup2\n      mstore\n      0x20\n      0x04\n      dup3\n      add\n      dup2\n      swap1\n      mstore\n      0x24\n      dup3\n      add\n      mstore\n      0x00\n      dup1\n      mload\n      0x20\n      data_9924ebdf1add33d25d4ef888e16131f0a5687b0580a36c21b5c301a6c462effe\n      dup4\n      codecopy\n      dup2\n      mload\n      swap2\n      mstore\n      0x44\n      dup3\n      add\n      mstore\n      swap1\n      mload\n      swap1\n      dup2\n      swap1\n      sub\n      0x64\n      add\n      swap1\n      revert\n    tag_71:\n      sub(shl(0xa0, 0x01), 0x01)\n        /* \"ROO_Repurchase/contracts/CHE_Repurchase.sol\":2361:2385  _delCaller != address(0) */\n      dup3\n      and\n        /* \"ROO_Repurchase/contracts/CHE_Repurchase.sol\":2353:2419  require(_delCaller != address(0), \"DelCaller is the zero address\") */\n      tag_73\n      jumpi\n      0x40\n      dup1\n      mload\n      shl(0xe5, 0x461bcd)\n      dup2\n      mstore\n      0x20\n      0x04\n      dup3\n      add\n      mstore\n      0x1d\n      0x24\n      dup3\n      add\n      mstore\n      0x44656c43616c6c657220697320746865207a65726f2061646472657373000000\n      0x44\n      dup3\n      add\n      mstore\n      swap1\n      mload\n      swap1\n      dup2\n      swap1\n      sub\n      0x64\n      add\n      swap1\n      revert\n    tag_73:\n        /* \"ROO_Repurchase/contracts/CHE_Repurchase.sol\":2436:2477  EnumerableSet.remove(_caller, _delCaller) */\n      tag_74\n        /* \"ROO_Repurchase/contracts/CHE_Repurchase.sol\":2457:2464  _caller */\n      0x01\n        /* \"ROO_Repurchase/contracts/CHE_Repurchase.sol\":2466:2476  _delCaller */\n      dup4\n        /* \"ROO_Repurchase/contracts/CHE_Repurchase.sol\":2436:2456  EnumerableSet.remove */\n      tag_75\n        /* \"ROO_Repurchase/contracts/CHE_Repurchase.sol\":2436:2477  EnumerableSet.remove(_caller, _delCaller) */\n      jump\t// in\n    tag_74:\n        /* \"ROO_Repurchase/contracts/CHE_Repurchase.sol\":2429:2477  return EnumerableSet.remove(_caller, _delCaller) */\n      swap3\n        /* \"ROO_Repurchase/contracts/CHE_Repurchase.sol\":2272:2484  function delCaller(address _delCaller) public onlyOwner returns (bool) {... */\n      swap2\n      pop\n      pop\n      jump\t// out\n        /* \"ROO_Repurchase/contracts/CHE_Repurchase.sol\":1874:2051  function setEmergencyAddress(address _newAddress) public onlyOwner {... */\n    tag_31:\n        /* \"ROO_Repurchase/contracts/library/Ownable.sol\":758:770  _msgSender() */\n      tag_77\n        /* \"ROO_Repurchase/contracts/library/Ownable.sol\":758:768  _msgSender */\n      tag_70\n        /* \"ROO_Repurchase/contracts/library/Ownable.sol\":758:770  _msgSender() */\n      jump\t// in\n    tag_77:\n        /* \"ROO_Repurchase/contracts/library/Ownable.sol\":748:754  _owner */\n      sload(0x00)\n      sub(shl(0xa0, 0x01), 0x01)\n      swap1\n      dup2\n      and\n        /* \"ROO_Repurchase/contracts/library/Ownable.sol\":748:770  _owner == _msgSender() */\n      swap2\n      and\n      eq\n        /* \"ROO_Repurchase/contracts/library/Ownable.sol\":740:807  require(_owner == _msgSender(), \"Ownable: caller is not the owner\") */\n      tag_78\n      jumpi\n      0x40\n      dup1\n      mload\n      shl(0xe5, 0x461bcd)\n      dup2\n      mstore\n      0x20\n      0x04\n      dup3\n      add\n      dup2\n      swap1\n      mstore\n      0x24\n      dup3\n      add\n      mstore\n      0x00\n      dup1\n      mload\n      0x20\n      data_9924ebdf1add33d25d4ef888e16131f0a5687b0580a36c21b5c301a6c462effe\n      dup4\n      codecopy\n      dup2\n      mload\n      swap2\n      mstore\n      0x44\n      dup3\n      add\n      mstore\n      swap1\n      mload\n      swap1\n      dup2\n      swap1\n      sub\n      0x64\n      add\n      swap1\n      revert\n    tag_78:\n      sub(shl(0xa0, 0x01), 0x01)\n        /* \"ROO_Repurchase/contracts/CHE_Repurchase.sol\":1959:1984  _newAddress != address(0) */\n      dup2\n      and\n        /* \"ROO_Repurchase/contracts/CHE_Repurchase.sol\":1951:2004  require(_newAddress != address(0), \"Is zero address\") */\n      tag_80\n      jumpi\n      0x40\n      dup1\n      mload\n      shl(0xe5, 0x461bcd)\n      dup2\n      mstore\n      0x20\n      0x04\n      dup3\n      add\n      mstore\n      0x0f\n      0x24\n      dup3\n      add\n      mstore\n      shl(0x88, 0x4973207a65726f2061646472657373)\n      0x44\n      dup3\n      add\n      mstore\n      swap1\n      mload\n      swap1\n      dup2\n      swap1\n      sub\n      0x64\n      add\n      swap1\n      revert\n    tag_80:\n        /* \"ROO_Repurchase/contracts/CHE_Repurchase.sol\":2014:2030  emergencyAddress */\n      0x03\n        /* \"ROO_Repurchase/contracts/CHE_Repurchase.sol\":2014:2044  emergencyAddress = _newAddress */\n      dup1\n      sload\n      not(sub(shl(0xa0, 0x01), 0x01))\n      and\n      sub(shl(0xa0, 0x01), 0x01)\n      swap3\n      swap1\n      swap3\n      and\n      swap2\n      swap1\n      swap2\n      or\n      swap1\n      sstore\n        /* \"ROO_Repurchase/contracts/CHE_Repurchase.sol\":1874:2051  function setEmergencyAddress(address _newAddress) public onlyOwner {... */\n      jump\t// out\n        /* \"ROO_Repurchase/contracts/CHE_Repurchase.sol\":2490:2600  function getCallerLength() public view returns (uint256) {... */\n    tag_33:\n        /* \"ROO_Repurchase/contracts/CHE_Repurchase.sol\":2538:2545  uint256 */\n      0x00\n        /* \"ROO_Repurchase/contracts/CHE_Repurchase.sol\":2564:2593  EnumerableSet.length(_caller) */\n      tag_82\n        /* \"ROO_Repurchase/contracts/CHE_Repurchase.sol\":2585:2592  _caller */\n      0x01\n        /* \"ROO_Repurchase/contracts/CHE_Repurchase.sol\":2564:2584  EnumerableSet.length */\n      tag_83\n        /* \"ROO_Repurchase/contracts/CHE_Repurchase.sol\":2564:2593  EnumerableSet.length(_caller) */\n      jump\t// in\n    tag_82:\n        /* \"ROO_Repurchase/contracts/CHE_Repurchase.sol\":2557:2593  return EnumerableSet.length(_caller) */\n      swap1\n      pop\n        /* \"ROO_Repurchase/contracts/CHE_Repurchase.sol\":2490:2600  function getCallerLength() public view returns (uint256) {... */\n      swap1\n      jump\t// out\n        /* \"ROO_Repurchase/contracts/CHE_Repurchase.sol\":1780:1868  function setAmountIn(uint256 _newIn) public onlyOwner {... */\n    tag_36:\n        /* \"ROO_Repurchase/contracts/library/Ownable.sol\":758:770  _msgSender() */\n      tag_85\n        /* \"ROO_Repurchase/contracts/library/Ownable.sol\":758:768  _msgSender */\n      tag_70\n        /* \"ROO_Repurchase/contracts/library/Ownable.sol\":758:770  _msgSender() */\n      jump\t// in\n    tag_85:\n        /* \"ROO_Repurchase/contracts/library/Ownable.sol\":748:754  _owner */\n      sload(0x00)\n      sub(shl(0xa0, 0x01), 0x01)\n      swap1\n      dup2\n      and\n        /* \"ROO_Repurchase/contracts/library/Ownable.sol\":748:770  _owner == _msgSender() */\n      swap2\n      and\n      eq\n        /* \"ROO_Repurchase/contracts/library/Ownable.sol\":740:807  require(_owner == _msgSender(), \"Ownable: caller is not the owner\") */\n      tag_86\n      jumpi\n      0x40\n      dup1\n      mload\n      shl(0xe5, 0x461bcd)\n      dup2\n      mstore\n      0x20\n      0x04\n      dup3\n      add\n      dup2\n      swap1\n      mstore\n      0x24\n      dup3\n      add\n      mstore\n      0x00\n      dup1\n      mload\n      0x20\n      data_9924ebdf1add33d25d4ef888e16131f0a5687b0580a36c21b5c301a6c462effe\n      dup4\n      codecopy\n      dup2\n      mload\n      swap2\n      mstore\n      0x44\n      dup3\n      add\n      mstore\n      swap1\n      mload\n      swap1\n      dup2\n      swap1\n      sub\n      0x64\n      add\n      swap1\n      revert\n    tag_86:\n        /* \"ROO_Repurchase/contracts/CHE_Repurchase.sol\":1844:1852  amountIn */\n      0x04\n        /* \"ROO_Repurchase/contracts/CHE_Repurchase.sol\":1844:1861  amountIn = _newIn */\n      sstore\n        /* \"ROO_Repurchase/contracts/CHE_Repurchase.sol\":1780:1868  function setAmountIn(uint256 _newIn) public onlyOwner {... */\n      jump\t// out\n        /* \"ROO_Repurchase/contracts/CHE_Repurchase.sol\":1685:1708  uint256 public amountIn */\n    tag_38:\n      sload(0x04)\n      dup2\n      jump\t// out\n        /* \"ROO_Repurchase/contracts/CHE_Repurchase.sol\":3652:3906  function emergencyWithdraw(address _token) public onlyOwner {... */\n    tag_41:\n        /* \"ROO_Repurchase/contracts/library/Ownable.sol\":758:770  _msgSender() */\n      tag_89\n        /* \"ROO_Repurchase/contracts/library/Ownable.sol\":758:768  _msgSender */\n      tag_70\n        /* \"ROO_Repurchase/contracts/library/Ownable.sol\":758:770  _msgSender() */\n      jump\t// in\n    tag_89:\n        /* \"ROO_Repurchase/contracts/library/Ownable.sol\":748:754  _owner */\n      sload(0x00)\n      sub(shl(0xa0, 0x01), 0x01)\n      swap1\n      dup2\n      and\n        /* \"ROO_Repurchase/contracts/library/Ownable.sol\":748:770  _owner == _msgSender() */\n      swap2\n      and\n      eq\n        /* \"ROO_Repurchase/contracts/library/Ownable.sol\":740:807  require(_owner == _msgSender(), \"Ownable: caller is not the owner\") */\n      tag_90\n      jumpi\n      0x40\n      dup1\n      mload\n      shl(0xe5, 0x461bcd)\n      dup2\n      mstore\n      0x20\n      0x04\n      dup3\n      add\n      dup2\n      swap1\n      mstore\n      0x24\n      dup3\n      add\n      mstore\n      0x00\n      dup1\n      mload\n      0x20\n      data_9924ebdf1add33d25d4ef888e16131f0a5687b0580a36c21b5c301a6c462effe\n      dup4\n      codecopy\n      dup2\n      mload\n      swap2\n      mstore\n      0x44\n      dup3\n      add\n      mstore\n      swap1\n      mload\n      swap1\n      dup2\n      swap1\n      sub\n      0x64\n      add\n      swap1\n      revert\n    tag_90:\n        /* \"ROO_Repurchase/contracts/CHE_Repurchase.sol\":3772:3773  0 */\n      0x00\n        /* \"ROO_Repurchase/contracts/CHE_Repurchase.sol\":3737:3743  _token */\n      dup2\n      sub(shl(0xa0, 0x01), 0x01)\n        /* \"ROO_Repurchase/contracts/CHE_Repurchase.sol\":3730:3754  IERC20(_token).balanceOf */\n      and\n      0x70a08231\n        /* \"ROO_Repurchase/contracts/CHE_Repurchase.sol\":3763:3767  this */\n      address\n        /* \"ROO_Repurchase/contracts/CHE_Repurchase.sol\":3730:3769  IERC20(_token).balanceOf(address(this)) */\n      mload(0x40)\n      dup3\n      0xffffffff\n      and\n      0xe0\n      shl\n      dup2\n      mstore\n      0x04\n      add\n      dup1\n      dup3\n      sub(shl(0xa0, 0x01), 0x01)\n      and\n      dup2\n      mstore\n      0x20\n      add\n      swap2\n      pop\n      pop\n      0x20\n      mload(0x40)\n      dup1\n      dup4\n      sub\n      dup2\n      dup7\n      dup1\n      extcodesize\n      iszero\n      dup1\n      iszero\n      tag_92\n      jumpi\n      0x00\n      dup1\n      revert\n    tag_92:\n      pop\n      gas\n      staticcall\n      iszero\n      dup1\n      iszero\n      tag_94\n      jumpi\n      returndatasize\n      0x00\n      dup1\n      returndatacopy\n      revert(0x00, returndatasize)\n    tag_94:\n      pop\n      pop\n      pop\n      pop\n      mload(0x40)\n      returndatasize\n      0x20\n      dup2\n      lt\n      iszero\n      tag_95\n      jumpi\n      0x00\n      dup1\n      revert\n    tag_95:\n      pop\n      mload\n        /* \"ROO_Repurchase/contracts/CHE_Repurchase.sol\":3730:3773  IERC20(_token).balanceOf(address(this)) > 0 */\n      gt\n        /* \"ROO_Repurchase/contracts/CHE_Repurchase.sol\":3722:3807  require(IERC20(_token).balanceOf(address(this)) > 0, \"Insufficient contract balance\") */\n      tag_96\n      jumpi\n      0x40\n      dup1\n      mload\n      shl(0xe5, 0x461bcd)\n      dup2\n      mstore\n      0x20\n      0x04\n      dup3\n      add\n      mstore\n      0x1d\n      0x24\n      dup3\n      add\n      mstore\n      0x496e73756666696369656e7420636f6e74726163742062616c616e6365000000\n      0x44\n      dup3\n      add\n      mstore\n      swap1\n      mload\n      swap1\n      dup2\n      swap1\n      sub\n      0x64\n      add\n      swap1\n      revert\n    tag_96:\n        /* \"ROO_Repurchase/contracts/CHE_Repurchase.sol\":3841:3857  emergencyAddress */\n      sload(0x03)\n        /* \"ROO_Repurchase/contracts/CHE_Repurchase.sol\":3859:3898  IERC20(_token).balanceOf(address(this)) */\n      0x40\n      dup1\n      mload\n      shl(0xe0, 0x70a08231)\n      dup2\n      mstore\n        /* \"ROO_Repurchase/contracts/CHE_Repurchase.sol\":3892:3896  this */\n      address\n        /* \"ROO_Repurchase/contracts/CHE_Repurchase.sol\":3859:3898  IERC20(_token).balanceOf(address(this)) */\n      0x04\n      dup3\n      add\n      mstore\n      swap1\n      mload\n      sub(shl(0xa0, 0x01), 0x01)\n        /* \"ROO_Repurchase/contracts/CHE_Repurchase.sol\":3817:3840  IERC20(_token).transfer */\n      dup1\n      dup6\n      and\n      swap4\n      0xa9059cbb\n      swap4\n        /* \"ROO_Repurchase/contracts/CHE_Repurchase.sol\":3841:3857  emergencyAddress */\n      swap2\n      and\n      swap2\n        /* \"ROO_Repurchase/contracts/CHE_Repurchase.sol\":3817:3840  IERC20(_token).transfer */\n      dup5\n      swap2\n        /* \"ROO_Repurchase/contracts/CHE_Repurchase.sol\":3859:3883  IERC20(_token).balanceOf */\n      0x70a08231\n      swap2\n        /* \"ROO_Repurchase/contracts/CHE_Repurchase.sol\":3859:3898  IERC20(_token).balanceOf(address(this)) */\n      0x24\n      dup1\n      dup4\n      add\n      swap3\n      0x20\n      swap3\n      swap2\n      swap1\n      dup3\n      swap1\n      sub\n      add\n      dup2\n        /* \"ROO_Repurchase/contracts/CHE_Repurchase.sol\":3817:3840  IERC20(_token).transfer */\n      dup7\n        /* \"ROO_Repurchase/contracts/CHE_Repurchase.sol\":3859:3898  IERC20(_token).balanceOf(address(this)) */\n      dup1\n      extcodesize\n      iszero\n      dup1\n      iszero\n      tag_97\n      jumpi\n      0x00\n      dup1\n      revert\n    tag_97:\n      pop\n      gas\n      staticcall\n      iszero\n      dup1\n      iszero\n      tag_99\n      jumpi\n      returndatasize\n      0x00\n      dup1\n      returndatacopy\n      revert(0x00, returndatasize)\n    tag_99:\n      pop\n      pop\n      pop\n      pop\n      mload(0x40)\n      returndatasize\n      0x20\n      dup2\n      lt\n      iszero\n      tag_100\n      jumpi\n      0x00\n      dup1\n      revert\n    tag_100:\n      pop\n      mload\n        /* \"ROO_Repurchase/contracts/CHE_Repurchase.sol\":3817:3899  IERC20(_token).transfer(emergencyAddress, IERC20(_token).balanceOf(address(this))) */\n      0x40\n      dup1\n      mload\n      not(sub(shl(0xe0, 0x01), 0x01))\n      0xe0\n      dup7\n      swap1\n      shl\n      and\n      dup2\n      mstore\n      sub(shl(0xa0, 0x01), 0x01)\n      swap1\n      swap4\n      and\n      0x04\n      dup5\n      add\n      mstore\n      0x24\n      dup4\n      add\n      swap2\n      swap1\n      swap2\n      mstore\n      mload\n      0x44\n      dup1\n      dup4\n      add\n      swap3\n        /* \"ROO_Repurchase/contracts/CHE_Repurchase.sol\":3859:3898  IERC20(_token).balanceOf(address(this)) */\n      0x20\n      swap3\n        /* \"ROO_Repurchase/contracts/CHE_Repurchase.sol\":3817:3899  IERC20(_token).transfer(emergencyAddress, IERC20(_token).balanceOf(address(this))) */\n      swap2\n      swap1\n      dup3\n      swap1\n      sub\n      add\n      dup2\n      0x00\n      dup8\n      dup1\n      extcodesize\n      iszero\n      dup1\n      iszero\n      tag_101\n      jumpi\n      0x00\n      dup1\n      revert\n    tag_101:\n      pop\n      gas\n      call\n      iszero\n      dup1\n      iszero\n      tag_103\n      jumpi\n      returndatasize\n      0x00\n      dup1\n      returndatacopy\n      revert(0x00, returndatasize)\n    tag_103:\n      pop\n      pop\n      pop\n      pop\n      mload(0x40)\n      returndatasize\n      0x20\n      dup2\n      lt\n      iszero\n      tag_104\n      jumpi\n      0x00\n      dup1\n      revert\n    tag_104:\n      pop\n      pop\n      pop\n        /* \"ROO_Repurchase/contracts/CHE_Repurchase.sol\":3652:3906  function emergencyWithdraw(address _token) public onlyOwner {... */\n      jump\t// out\n        /* \"ROO_Repurchase/contracts/library/Ownable.sol\":1167:1312  function renounceOwnership() public virtual onlyOwner {... */\n    tag_43:\n        /* \"ROO_Repurchase/contracts/library/Ownable.sol\":758:770  _msgSender() */\n      tag_106\n        /* \"ROO_Repurchase/contracts/library/Ownable.sol\":758:768  _msgSender */\n      tag_70\n        /* \"ROO_Repurchase/contracts/library/Ownable.sol\":758:770  _msgSender() */\n      jump\t// in\n    tag_106:\n        /* \"ROO_Repurchase/contracts/library/Ownable.sol\":748:754  _owner */\n      sload(0x00)\n      sub(shl(0xa0, 0x01), 0x01)\n      swap1\n      dup2\n      and\n        /* \"ROO_Repurchase/contracts/library/Ownable.sol\":748:770  _owner == _msgSender() */\n      swap2\n      and\n      eq\n        /* \"ROO_Repurchase/contracts/library/Ownable.sol\":740:807  require(_owner == _msgSender(), \"Ownable: caller is not the owner\") */\n      tag_107\n      jumpi\n      0x40\n      dup1\n      mload\n      shl(0xe5, 0x461bcd)\n      dup2\n      mstore\n      0x20\n      0x04\n      dup3\n      add\n      dup2\n      swap1\n      mstore\n      0x24\n      dup3\n      add\n      mstore\n      0x00\n      dup1\n      mload\n      0x20\n      data_9924ebdf1add33d25d4ef888e16131f0a5687b0580a36c21b5c301a6c462effe\n      dup4\n      codecopy\n      dup2\n      mload\n      swap2\n      mstore\n      0x44\n      dup3\n      add\n      mstore\n      swap1\n      mload\n      swap1\n      dup2\n      swap1\n      sub\n      0x64\n      add\n      swap1\n      revert\n    tag_107:\n        /* \"ROO_Repurchase/contracts/library/Ownable.sol\":1273:1274  0 */\n      0x00\n        /* \"ROO_Repurchase/contracts/library/Ownable.sol\":1257:1263  _owner */\n      dup1\n      sload\n        /* \"ROO_Repurchase/contracts/library/Ownable.sol\":1236:1276  OwnershipTransferred(_owner, address(0)) */\n      mload(0x40)\n      sub(shl(0xa0, 0x01), 0x01)\n        /* \"ROO_Repurchase/contracts/library/Ownable.sol\":1257:1263  _owner */\n      swap1\n      swap2\n      and\n      swap1\n        /* \"ROO_Repurchase/contracts/library/Ownable.sol\":1236:1276  OwnershipTransferred(_owner, address(0)) */\n      0x8be0079c531659141344cd1fd0a4f28419497f9722a3daafe3b4186f6b6457e0\n      swap1\n        /* \"ROO_Repurchase/contracts/library/Ownable.sol\":1273:1274  0 */\n      dup4\n      swap1\n        /* \"ROO_Repurchase/contracts/library/Ownable.sol\":1236:1276  OwnershipTransferred(_owner, address(0)) */\n      log3\n        /* \"ROO_Repurchase/contracts/library/Ownable.sol\":1303:1304  0 */\n      0x00\n        /* \"ROO_Repurchase/contracts/library/Ownable.sol\":1286:1305  _owner = address(0) */\n      dup1\n      sload\n      not(sub(shl(0xa0, 0x01), 0x01))\n      and\n      swap1\n      sstore\n        /* \"ROO_Repurchase/contracts/library/Ownable.sol\":1167:1312  function renounceOwnership() public virtual onlyOwner {... */\n      jump\t// out\n        /* \"ROO_Repurchase/contracts/CHE_Repurchase.sol\":2057:2266  function addCaller(address _newCaller) public onlyOwner returns (bool) {... */\n    tag_46:\n        /* \"ROO_Repurchase/contracts/CHE_Repurchase.sol\":2122:2126  bool */\n      0x00\n        /* \"ROO_Repurchase/contracts/library/Ownable.sol\":758:770  _msgSender() */\n      tag_110\n        /* \"ROO_Repurchase/contracts/library/Ownable.sol\":758:768  _msgSender */\n      tag_70\n        /* \"ROO_Repurchase/contracts/library/Ownable.sol\":758:770  _msgSender() */\n      jump\t// in\n    tag_110:\n        /* \"ROO_Repurchase/contracts/library/Ownable.sol\":748:754  _owner */\n      sload(0x00)\n      sub(shl(0xa0, 0x01), 0x01)\n      swap1\n      dup2\n      and\n        /* \"ROO_Repurchase/contracts/library/Ownable.sol\":748:770  _owner == _msgSender() */\n      swap2\n      and\n      eq\n        /* \"ROO_Repurchase/contracts/library/Ownable.sol\":740:807  require(_owner == _msgSender(), \"Ownable: caller is not the owner\") */\n      tag_111\n      jumpi\n      0x40\n      dup1\n      mload\n      shl(0xe5, 0x461bcd)\n      dup2\n      mstore\n      0x20\n      0x04\n      dup3\n      add\n      dup2\n      swap1\n      mstore\n      0x24\n      dup3\n      add\n      mstore\n      0x00\n      dup1\n      mload\n      0x20\n      data_9924ebdf1add33d25d4ef888e16131f0a5687b0580a36c21b5c301a6c462effe\n      dup4\n      codecopy\n      dup2\n      mload\n      swap2\n      mstore\n      0x44\n      dup3\n      add\n      mstore\n      swap1\n      mload\n      swap1\n      dup2\n      swap1\n      sub\n      0x64\n      add\n      swap1\n      revert\n    tag_111:\n      sub(shl(0xa0, 0x01), 0x01)\n        /* \"ROO_Repurchase/contracts/CHE_Repurchase.sol\":2146:2170  _newCaller != address(0) */\n      dup3\n      and\n        /* \"ROO_Repurchase/contracts/CHE_Repurchase.sol\":2138:2204  require(_newCaller != address(0), \"NewCaller is the zero address\") */\n      tag_113\n      jumpi\n      0x40\n      dup1\n      mload\n      shl(0xe5, 0x461bcd)\n      dup2\n      mstore\n      0x20\n      0x04\n      dup3\n      add\n      mstore\n      0x1d\n      0x24\n      dup3\n      add\n      mstore\n      0x4e657743616c6c657220697320746865207a65726f2061646472657373000000\n      0x44\n      dup3\n      add\n      mstore\n      swap1\n      mload\n      swap1\n      dup2\n      swap1\n      sub\n      0x64\n      add\n      swap1\n      revert\n    tag_113:\n        /* \"ROO_Repurchase/contracts/CHE_Repurchase.sol\":2221:2259  EnumerableSet.add(_caller, _newCaller) */\n      tag_74\n        /* \"ROO_Repurchase/contracts/CHE_Repurchase.sol\":2239:2246  _caller */\n      0x01\n        /* \"ROO_Repurchase/contracts/CHE_Repurchase.sol\":2248:2258  _newCaller */\n      dup4\n        /* \"ROO_Repurchase/contracts/CHE_Repurchase.sol\":2221:2238  EnumerableSet.add */\n      tag_115\n        /* \"ROO_Repurchase/contracts/CHE_Repurchase.sol\":2221:2259  EnumerableSet.add(_caller, _newCaller) */\n      jump\t// in\n        /* \"ROO_Repurchase/contracts/CHE_Repurchase.sol\":2606:2728  function isCaller(address _call) public view returns (bool) {... */\n    tag_49:\n        /* \"ROO_Repurchase/contracts/CHE_Repurchase.sol\":2660:2664  bool */\n      0x00\n        /* \"ROO_Repurchase/contracts/CHE_Repurchase.sol\":2683:2721  EnumerableSet.contains(_caller, _call) */\n      tag_74\n        /* \"ROO_Repurchase/contracts/CHE_Repurchase.sol\":2706:2713  _caller */\n      0x01\n        /* \"ROO_Repurchase/contracts/CHE_Repurchase.sol\":2715:2720  _call */\n      dup4\n        /* \"ROO_Repurchase/contracts/CHE_Repurchase.sol\":2683:2705  EnumerableSet.contains */\n      tag_118\n        /* \"ROO_Repurchase/contracts/CHE_Repurchase.sol\":2683:2721  EnumerableSet.contains(_caller, _call) */\n      jump\t// in\n        /* \"ROO_Repurchase/contracts/CHE_Repurchase.sol\":2934:3543  function swap() external onlyCaller returns (uint256 amountOut){... */\n    tag_51:\n        /* \"ROO_Repurchase/contracts/CHE_Repurchase.sol\":2979:2996  uint256 amountOut */\n      0x00\n        /* \"ROO_Repurchase/contracts/CHE_Repurchase.sol\":3589:3609  isCaller(msg.sender) */\n      tag_120\n        /* \"ROO_Repurchase/contracts/CHE_Repurchase.sol\":3598:3608  msg.sender */\n      caller\n        /* \"ROO_Repurchase/contracts/CHE_Repurchase.sol\":3589:3597  isCaller */\n      tag_49\n        /* \"ROO_Repurchase/contracts/CHE_Repurchase.sol\":3589:3609  isCaller(msg.sender) */\n      jump\t// in\n    tag_120:\n        /* \"ROO_Repurchase/contracts/CHE_Repurchase.sol\":3581:3628  require(isCaller(msg.sender), \"Not the caller\") */\n      tag_121\n      jumpi\n      0x40\n      dup1\n      mload\n      shl(0xe5, 0x461bcd)\n      dup2\n      mstore\n      0x20\n      0x04\n      dup3\n      add\n      mstore\n      0x0e\n      0x24\n      dup3\n      add\n      mstore\n      shl(0x91, 0x2737ba103a34329031b0b63632b9)\n      0x44\n      dup3\n      add\n      mstore\n      swap1\n      mload\n      swap1\n      dup2\n      swap1\n      sub\n      0x64\n      add\n      swap1\n      revert\n    tag_121:\n        /* \"ROO_Repurchase/contracts/CHE_Repurchase.sol\":3056:3064  amountIn */\n      sload(0x04)\n        /* \"ROO_Repurchase/contracts/CHE_Repurchase.sol\":1316:1358  0x7f9Ee0245D3Be4bb8F79e9fCafeD81d34C8A623D */\n      0x7f9ee0245d3be4bb8f79e9fcafed81d34c8a623d\n      sub(shl(0xa0, 0x01), 0x01)\n        /* \"ROO_Repurchase/contracts/CHE_Repurchase.sol\":3015:3037  IERC20(USDT).balanceOf */\n      and\n      0x70a08231\n        /* \"ROO_Repurchase/contracts/CHE_Repurchase.sol\":3046:3050  this */\n      address\n        /* \"ROO_Repurchase/contracts/CHE_Repurchase.sol\":3015:3052  IERC20(USDT).balanceOf(address(this)) */\n      mload(0x40)\n      dup3\n      0xffffffff\n      and\n      0xe0\n      shl\n      dup2\n      mstore\n      0x04\n      add\n      dup1\n      dup3\n      sub(shl(0xa0, 0x01), 0x01)\n      and\n      dup2\n      mstore\n      0x20\n      add\n      swap2\n      pop\n      pop\n      0x20\n      mload(0x40)\n      dup1\n      dup4\n      sub\n      dup2\n      dup7\n      dup1\n      extcodesize\n      iszero\n      dup1\n      iszero\n      tag_123\n      jumpi\n      0x00\n      dup1\n      revert\n    tag_123:\n      pop\n      gas\n      staticcall\n      iszero\n      dup1\n      iszero\n      tag_125\n      jumpi\n      returndatasize\n      0x00\n      dup1\n      returndatacopy\n      revert(0x00, returndatasize)\n    tag_125:\n      pop\n      pop\n      pop\n      pop\n      mload(0x40)\n      returndatasize\n      0x20\n      dup2\n      lt\n      iszero\n      tag_126\n      jumpi\n      0x00\n      dup1\n      revert\n    tag_126:\n      pop\n      mload\n        /* \"ROO_Repurchase/contracts/CHE_Repurchase.sol\":3015:3064  IERC20(USDT).balanceOf(address(this)) >= amountIn */\n      lt\n      iszero\n        /* \"ROO_Repurchase/contracts/CHE_Repurchase.sol\":3007:3098  require(IERC20(USDT).balanceOf(address(this)) >= amountIn, \"Insufficient contract balance\") */\n      tag_127\n      jumpi\n      0x40\n      dup1\n      mload\n      shl(0xe5, 0x461bcd)\n      dup2\n      mstore\n      0x20\n      0x04\n      dup3\n      add\n      mstore\n      0x1d\n      0x24\n      dup3\n      add\n      mstore\n      0x496e73756666696369656e7420636f6e74726163742062616c616e6365000000\n      0x44\n      dup3\n      add\n      mstore\n      swap1\n      mload\n      swap1\n      dup2\n      swap1\n      sub\n      0x64\n      add\n      swap1\n      revert\n    tag_127:\n        /* \"ROO_Repurchase/contracts/CHE_Repurchase.sol\":3109:3125  uint256 reserve0 */\n      0x00\n        /* \"ROO_Repurchase/contracts/CHE_Repurchase.sol\":3127:3143  uint256 reserve1 */\n      dup1\n        /* \"ROO_Repurchase/contracts/CHE_Repurchase.sol\":1477:1519  0x87B2Cc033901C512306F011A4CC70461584dcCd9 */\n      0x87b2cc033901c512306f011a4cc70461584dccd9\n      sub(shl(0xa0, 0x01), 0x01)\n        /* \"ROO_Repurchase/contracts/CHE_Repurchase.sol\":3148:3178  IBxhPair(CHE_USDT).getReserves */\n      and\n      0x0902f1ac\n        /* \"ROO_Repurchase/contracts/CHE_Repurchase.sol\":3148:3180  IBxhPair(CHE_USDT).getReserves() */\n      mload(0x40)\n      dup2\n      0xffffffff\n      and\n      0xe0\n      shl\n      dup2\n      mstore\n      0x04\n      add\n      0x60\n      mload(0x40)\n      dup1\n      dup4\n      sub\n      dup2\n      dup7\n      dup1\n      extcodesize\n      iszero\n      dup1\n      iszero\n      tag_128\n      jumpi\n      0x00\n      dup1\n      revert\n    tag_128:\n      pop\n      gas\n      staticcall\n      iszero\n      dup1\n      iszero\n      tag_130\n      jumpi\n      returndatasize\n      0x00\n      dup1\n      returndatacopy\n      revert(0x00, returndatasize)\n    tag_130:\n      pop\n      pop\n      pop\n      pop\n      mload(0x40)\n      returndatasize\n      0x60\n      dup2\n      lt\n      iszero\n      tag_131\n      jumpi\n      0x00\n      dup1\n      revert\n    tag_131:\n      pop\n      dup1\n      mload\n      0x20\n      swap1\n      swap2\n      add\n      mload\n        /* \"ROO_Repurchase/contracts/CHE_Repurchase.sol\":3216:3224  amountIn */\n      sload(0x04)\n        /* \"ROO_Repurchase/contracts/CHE_Repurchase.sol\":3108:3180  (uint256 reserve0, uint256 reserve1,) = IBxhPair(CHE_USDT).getReserves() */\n      0xffffffffffffffffffffffffffff\n      swap3\n      dup4\n      and\n      swap5\n      pop\n      swap2\n      and\n      swap2\n      pop\n        /* \"ROO_Repurchase/contracts/CHE_Repurchase.sol\":3190:3213  uint256 amountInWithFee */\n      0x00\n      swap1\n        /* \"ROO_Repurchase/contracts/CHE_Repurchase.sol\":3216:3233  amountIn.mul(997) */\n      tag_132\n      swap1\n        /* \"ROO_Repurchase/contracts/CHE_Repurchase.sol\":3229:3232  997 */\n      0x03e5\n        /* \"ROO_Repurchase/contracts/CHE_Repurchase.sol\":3216:3228  amountIn.mul */\n      tag_133\n        /* \"ROO_Repurchase/contracts/CHE_Repurchase.sol\":3216:3233  amountIn.mul(997) */\n      jump\t// in\n    tag_132:\n        /* \"ROO_Repurchase/contracts/CHE_Repurchase.sol\":3190:3233  uint256 amountInWithFee = amountIn.mul(997) */\n      swap1\n      pop\n        /* \"ROO_Repurchase/contracts/CHE_Repurchase.sol\":3356:3395  reserve1.mul(1000).add(amountInWithFee) */\n      tag_134\n        /* \"ROO_Repurchase/contracts/CHE_Repurchase.sol\":3190:3233  uint256 amountInWithFee = amountIn.mul(997) */\n      dup2\n        /* \"ROO_Repurchase/contracts/CHE_Repurchase.sol\":3356:3374  reserve1.mul(1000) */\n      tag_135\n        /* \"ROO_Repurchase/contracts/CHE_Repurchase.sol\":3356:3364  reserve1 */\n      dup5\n        /* \"ROO_Repurchase/contracts/CHE_Repurchase.sol\":3369:3373  1000 */\n      0x03e8\n        /* \"ROO_Repurchase/contracts/CHE_Repurchase.sol\":3356:3368  reserve1.mul */\n      tag_133\n        /* \"ROO_Repurchase/contracts/CHE_Repurchase.sol\":3356:3374  reserve1.mul(1000) */\n      jump\t// in\n    tag_135:\n        /* \"ROO_Repurchase/contracts/CHE_Repurchase.sol\":3356:3378  reserve1.mul(1000).add */\n      swap1\n      tag_136\n        /* \"ROO_Repurchase/contracts/CHE_Repurchase.sol\":3356:3395  reserve1.mul(1000).add(amountInWithFee) */\n      jump\t// in\n    tag_134:\n        /* \"ROO_Repurchase/contracts/CHE_Repurchase.sol\":3322:3353  amountIn.mul(997).mul(reserve0) */\n      tag_137\n        /* \"ROO_Repurchase/contracts/CHE_Repurchase.sol\":3344:3352  reserve0 */\n      dup5\n        /* \"ROO_Repurchase/contracts/CHE_Repurchase.sol\":3322:3339  amountIn.mul(997) */\n      tag_138\n        /* \"ROO_Repurchase/contracts/CHE_Repurchase.sol\":3335:3338  997 */\n      0x03e5\n        /* \"ROO_Repurchase/contracts/CHE_Repurchase.sol\":3322:3330  amountIn */\n      sload(0x04)\n        /* \"ROO_Repurchase/contracts/CHE_Repurchase.sol\":3322:3334  amountIn.mul */\n      tag_133\n      swap1\n        /* \"ROO_Repurchase/contracts/CHE_Repurchase.sol\":3322:3339  amountIn.mul(997) */\n      swap2\n      swap1\n      0xffffffff\n      and\n      jump\t// in\n    tag_138:\n        /* \"ROO_Repurchase/contracts/CHE_Repurchase.sol\":3322:3343  amountIn.mul(997).mul */\n      swap1\n      tag_133\n        /* \"ROO_Repurchase/contracts/CHE_Repurchase.sol\":3322:3353  amountIn.mul(997).mul(reserve0) */\n      jump\t// in\n    tag_137:\n        /* \"ROO_Repurchase/contracts/CHE_Repurchase.sol\":3322:3395  amountIn.mul(997).mul(reserve0) / reserve1.mul(1000).add(amountInWithFee) */\n      dup2\n      tag_139\n      jumpi\n      invalid\n    tag_139:\n        /* \"ROO_Repurchase/contracts/CHE_Repurchase.sol\":3450:3458  amountIn */\n      sload(0x04)\n        /* \"ROO_Repurchase/contracts/CHE_Repurchase.sol\":3322:3395  amountIn.mul(997).mul(reserve0) / reserve1.mul(1000).add(amountInWithFee) */\n      swap2\n      swap1\n      div\n      swap5\n      pop\n        /* \"ROO_Repurchase/contracts/CHE_Repurchase.sol\":3414:3459  IERC20(USDT).safeTransfer(CHE_USDT, amountIn) */\n      tag_140\n      swap1\n        /* \"ROO_Repurchase/contracts/CHE_Repurchase.sol\":1316:1358  0x7f9Ee0245D3Be4bb8F79e9fCafeD81d34C8A623D */\n      0x7f9ee0245d3be4bb8f79e9fcafed81d34c8a623d\n      swap1\n        /* \"ROO_Repurchase/contracts/CHE_Repurchase.sol\":1477:1519  0x87B2Cc033901C512306F011A4CC70461584dcCd9 */\n      0x87b2cc033901c512306f011a4cc70461584dccd9\n      swap1\n        /* \"ROO_Repurchase/contracts/CHE_Repurchase.sol\":3414:3439  IERC20(USDT).safeTransfer */\n      tag_141\n        /* \"ROO_Repurchase/contracts/CHE_Repurchase.sol\":3414:3459  IERC20(USDT).safeTransfer(CHE_USDT, amountIn) */\n      jump\t// in\n    tag_140:\n        /* \"ROO_Repurchase/contracts/CHE_Repurchase.sol\":3523:3535  new bytes(0) */\n      0x40\n      dup1\n      mload\n        /* \"ROO_Repurchase/contracts/CHE_Repurchase.sol\":3504:3505  0 */\n      0x00\n        /* \"ROO_Repurchase/contracts/CHE_Repurchase.sol\":3523:3535  new bytes(0) */\n      dup1\n      dup3\n      mstore\n      0x20\n      dup3\n      add\n      swap3\n      dup4\n      swap1\n      mstore\n      shl(0xe0, 0x022c0d9f)\n        /* \"ROO_Repurchase/contracts/CHE_Repurchase.sol\":3469:3536  IBxhPair(CHE_USDT).swap(amountOut, 0, destroyAddress, new bytes(0)) */\n      dup4\n      mstore\n      0x24\n      dup3\n      add\n      dup8\n      dup2\n      mstore\n      0x44\n      dup4\n      add\n      dup3\n      swap1\n      mstore\n        /* \"ROO_Repurchase/contracts/CHE_Repurchase.sol\":1566:1608  0x000000000000000000000000000000000000dEaD */\n      0xdead\n        /* \"ROO_Repurchase/contracts/CHE_Repurchase.sol\":3469:3536  IBxhPair(CHE_USDT).swap(amountOut, 0, destroyAddress, new bytes(0)) */\n      0x64\n      dup5\n      add\n      dup2\n      swap1\n      mstore\n      0x80\n      0x84\n      dup6\n      add\n      swap1\n      dup2\n      mstore\n      dup5\n      mload\n      0xa4\n      dup7\n      add\n      dup2\n      swap1\n      mstore\n        /* \"ROO_Repurchase/contracts/CHE_Repurchase.sol\":1477:1519  0x87B2Cc033901C512306F011A4CC70461584dcCd9 */\n      0x87b2cc033901c512306f011a4cc70461584dccd9\n      swap7\n        /* \"ROO_Repurchase/contracts/CHE_Repurchase.sol\":3469:3492  IBxhPair(CHE_USDT).swap */\n      0x022c0d9f\n      swap7\n        /* \"ROO_Repurchase/contracts/CHE_Repurchase.sol\":3493:3502  amountOut */\n      dup13\n      swap7\n        /* \"ROO_Repurchase/contracts/CHE_Repurchase.sol\":3504:3505  0 */\n      swap6\n        /* \"ROO_Repurchase/contracts/CHE_Repurchase.sol\":3523:3535  new bytes(0) */\n      swap1\n      swap4\n        /* \"ROO_Repurchase/contracts/CHE_Repurchase.sol\":3469:3536  IBxhPair(CHE_USDT).swap(amountOut, 0, destroyAddress, new bytes(0)) */\n      swap1\n      swap3\n      swap1\n      swap2\n      0xc4\n      dup6\n      add\n      swap2\n      dup1\n      dup4\n        /* \"ROO_Repurchase/contracts/CHE_Repurchase.sol\":3523:3535  new bytes(0) */\n      dup4\n        /* \"ROO_Repurchase/contracts/CHE_Repurchase.sol\":3504:3505  0 */\n      dup11\n        /* \"ROO_Repurchase/contracts/CHE_Repurchase.sol\":3469:3536  IBxhPair(CHE_USDT).swap(amountOut, 0, destroyAddress, new bytes(0)) */\n    tag_144:\n      dup4\n      dup2\n      lt\n      iszero\n      tag_146\n      jumpi\n      dup2\n      dup2\n      add\n      mload\n      dup4\n      dup3\n      add\n      mstore\n      0x20\n      add\n      jump(tag_144)\n    tag_146:\n      pop\n      pop\n      pop\n      pop\n      swap1\n      pop\n      swap1\n      dup2\n      add\n      swap1\n      0x1f\n      and\n      dup1\n      iszero\n      tag_147\n      jumpi\n      dup1\n      dup3\n      sub\n      dup1\n      mload\n      0x01\n      dup4\n      0x20\n      sub\n      0x0100\n      exp\n      sub\n      not\n      and\n      dup2\n      mstore\n      0x20\n      add\n      swap2\n      pop\n    tag_147:\n      pop\n      swap6\n      pop\n      pop\n      pop\n      pop\n      pop\n      pop\n      0x00\n      mload(0x40)\n      dup1\n      dup4\n      sub\n      dup2\n      0x00\n      dup8\n      dup1\n      extcodesize\n      iszero\n      dup1\n      iszero\n      tag_148\n      jumpi\n      0x00\n      dup1\n      revert\n    tag_148:\n      pop\n      gas\n      call\n      iszero\n      dup1\n      iszero\n      tag_150\n      jumpi\n      returndatasize\n      0x00\n      dup1\n      returndatacopy\n      revert(0x00, returndatasize)\n    tag_150:\n      pop\n      pop\n      pop\n      pop\n        /* \"ROO_Repurchase/contracts/CHE_Repurchase.sol\":3638:3639  _ */\n      pop\n      pop\n      pop\n        /* \"ROO_Repurchase/contracts/CHE_Repurchase.sol\":2934:3543  function swap() external onlyCaller returns (uint256 amountOut){... */\n      swap1\n      jump\t// out\n        /* \"ROO_Repurchase/contracts/library/Ownable.sol\":544:621  function owner() public view returns (address) {... */\n    tag_53:\n        /* \"ROO_Repurchase/contracts/library/Ownable.sol\":582:589  address */\n      0x00\n        /* \"ROO_Repurchase/contracts/library/Ownable.sol\":608:614  _owner */\n      sload\n      sub(shl(0xa0, 0x01), 0x01)\n      and\n        /* \"ROO_Repurchase/contracts/library/Ownable.sol\":544:621  function owner() public view returns (address) {... */\n      swap1\n      jump\t// out\n        /* \"ROO_Repurchase/contracts/CHE_Repurchase.sol\":2734:2928  function getCaller(uint256 _index) public view returns (address){... */\n    tag_56:\n        /* \"ROO_Repurchase/contracts/CHE_Repurchase.sol\":2790:2797  address */\n      0x00\n        /* \"ROO_Repurchase/contracts/CHE_Repurchase.sol\":2846:2847  1 */\n      0x01\n        /* \"ROO_Repurchase/contracts/CHE_Repurchase.sol\":2826:2843  getCallerLength() */\n      tag_153\n        /* \"ROO_Repurchase/contracts/CHE_Repurchase.sol\":2826:2841  getCallerLength */\n      tag_33\n        /* \"ROO_Repurchase/contracts/CHE_Repurchase.sol\":2826:2843  getCallerLength() */\n      jump\t// in\n    tag_153:\n        /* \"ROO_Repurchase/contracts/CHE_Repurchase.sol\":2826:2847  getCallerLength() - 1 */\n      sub\n        /* \"ROO_Repurchase/contracts/CHE_Repurchase.sol\":2816:2822  _index */\n      dup3\n        /* \"ROO_Repurchase/contracts/CHE_Repurchase.sol\":2816:2847  _index <= getCallerLength() - 1 */\n      gt\n      iszero\n        /* \"ROO_Repurchase/contracts/CHE_Repurchase.sol\":2808:2871  require(_index <= getCallerLength() - 1, \"index out of bounds\") */\n      tag_154\n      jumpi\n      0x40\n      dup1\n      mload\n      shl(0xe5, 0x461bcd)\n      dup2\n      mstore\n      0x20\n      0x04\n      dup3\n      add\n      mstore\n      0x13\n      0x24\n      dup3\n      add\n      mstore\n      shl(0x68, 0x696e646578206f7574206f6620626f756e6473)\n      0x44\n      dup3\n      add\n      mstore\n      swap1\n      mload\n      swap1\n      dup2\n      swap1\n      sub\n      0x64\n      add\n      swap1\n      revert\n    tag_154:\n        /* \"ROO_Repurchase/contracts/CHE_Repurchase.sol\":2888:2921  EnumerableSet.at(_caller, _index) */\n      tag_74\n        /* \"ROO_Repurchase/contracts/CHE_Repurchase.sol\":2905:2912  _caller */\n      0x01\n        /* \"ROO_Repurchase/contracts/CHE_Repurchase.sol\":2914:2920  _index */\n      dup4\n        /* \"ROO_Repurchase/contracts/CHE_Repurchase.sol\":2888:2904  EnumerableSet.at */\n      tag_156\n        /* \"ROO_Repurchase/contracts/CHE_Repurchase.sol\":2888:2921  EnumerableSet.at(_caller, _index) */\n      jump\t// in\n        /* \"ROO_Repurchase/contracts/CHE_Repurchase.sol\":1442:1519  address public constant CHE_USDT = 0x87B2Cc033901C512306F011A4CC70461584dcCd9 */\n    tag_58:\n        /* \"ROO_Repurchase/contracts/CHE_Repurchase.sol\":1477:1519  0x87B2Cc033901C512306F011A4CC70461584dcCd9 */\n      0x87b2cc033901c512306f011a4cc70461584dccd9\n        /* \"ROO_Repurchase/contracts/CHE_Repurchase.sol\":1442:1519  address public constant CHE_USDT = 0x87B2Cc033901C512306F011A4CC70461584dcCd9 */\n      dup2\n      jump\t// out\n        /* \"ROO_Repurchase/contracts/CHE_Repurchase.sol\":1285:1358  address public constant USDT = 0x7f9Ee0245D3Be4bb8F79e9fCafeD81d34C8A623D */\n    tag_60:\n        /* \"ROO_Repurchase/contracts/CHE_Repurchase.sol\":1316:1358  0x7f9Ee0245D3Be4bb8F79e9fCafeD81d34C8A623D */\n      0x7f9ee0245d3be4bb8f79e9fcafed81d34c8a623d\n        /* \"ROO_Repurchase/contracts/CHE_Repurchase.sol\":1285:1358  address public constant USDT = 0x7f9Ee0245D3Be4bb8F79e9fCafeD81d34C8A623D */\n      dup2\n      jump\t// out\n        /* \"ROO_Repurchase/contracts/CHE_Repurchase.sol\":1525:1608  address public constant destroyAddress = 0x000000000000000000000000000000000000dEaD */\n    tag_62:\n        /* \"ROO_Repurchase/contracts/CHE_Repurchase.sol\":1566:1608  0x000000000000000000000000000000000000dEaD */\n      0xdead\n        /* \"ROO_Repurchase/contracts/CHE_Repurchase.sol\":1525:1608  address public constant destroyAddress = 0x000000000000000000000000000000000000dEaD */\n      dup2\n      jump\t// out\n        /* \"ROO_Repurchase/contracts/library/Ownable.sol\":1461:1701  function transferOwnership(address newOwner) public virtual onlyOwner {... */\n    tag_65:\n        /* \"ROO_Repurchase/contracts/library/Ownable.sol\":758:770  _msgSender() */\n      tag_158\n        /* \"ROO_Repurchase/contracts/library/Ownable.sol\":758:768  _msgSender */\n      tag_70\n        /* \"ROO_Repurchase/contracts/library/Ownable.sol\":758:770  _msgSender() */\n      jump\t// in\n    tag_158:\n        /* \"ROO_Repurchase/contracts/library/Ownable.sol\":748:754  _owner */\n      sload(0x00)\n      sub(shl(0xa0, 0x01), 0x01)\n      swap1\n      dup2\n      and\n        /* \"ROO_Repurchase/contracts/library/Ownable.sol\":748:770  _owner == _msgSender() */\n      swap2\n      and\n      eq\n        /* \"ROO_Repurchase/contracts/library/Ownable.sol\":740:807  require(_owner == _msgSender(), \"Ownable: caller is not the owner\") */\n      tag_159\n      jumpi\n      0x40\n      dup1\n      mload\n      shl(0xe5, 0x461bcd)\n      dup2\n      mstore\n      0x20\n      0x04\n      dup3\n      add\n      dup2\n      swap1\n      mstore\n      0x24\n      dup3\n      add\n      mstore\n      0x00\n      dup1\n      mload\n      0x20\n      data_9924ebdf1add33d25d4ef888e16131f0a5687b0580a36c21b5c301a6c462effe\n      dup4\n      codecopy\n      dup2\n      mload\n      swap2\n      mstore\n      0x44\n      dup3\n      add\n      mstore\n      swap1\n      mload\n      swap1\n      dup2\n      swap1\n      sub\n      0x64\n      add\n      swap1\n      revert\n    tag_159:\n      sub(shl(0xa0, 0x01), 0x01)\n        /* \"ROO_Repurchase/contracts/library/Ownable.sol\":1549:1571  newOwner != address(0) */\n      dup2\n      and\n        /* \"ROO_Repurchase/contracts/library/Ownable.sol\":1541:1614  require(newOwner != address(0), \"Ownable: new owner is the zero address\") */\n      tag_161\n      jumpi\n      mload(0x40)\n      shl(0xe5, 0x461bcd)\n      dup2\n      mstore\n      0x04\n      add\n      dup1\n      dup1\n      0x20\n      add\n      dup3\n      dup2\n      sub\n      dup3\n      mstore\n      0x26\n      dup2\n      mstore\n      0x20\n      add\n      dup1\n      data_245f15ff17f551913a7a18385165551503906a406f905ac1c2437281a7cd0cfe\n      0x26\n      swap2\n      codecopy\n      0x40\n      add\n      swap2\n      pop\n      pop\n      mload(0x40)\n      dup1\n      swap2\n      sub\n      swap1\n      revert\n    tag_161:\n        /* \"ROO_Repurchase/contracts/library/Ownable.sol\":1650:1656  _owner */\n      0x00\n      dup1\n      sload\n        /* \"ROO_Repurchase/contracts/library/Ownable.sol\":1629:1667  OwnershipTransferred(_owner, newOwner) */\n      mload(0x40)\n      sub(shl(0xa0, 0x01), 0x01)\n      dup1\n      dup6\n      and\n      swap4\n        /* \"ROO_Repurchase/contracts/library/Ownable.sol\":1650:1656  _owner */\n      swap3\n      and\n      swap2\n        /* \"ROO_Repurchase/contracts/library/Ownable.sol\":1629:1667  OwnershipTransferred(_owner, newOwner) */\n      0x8be0079c531659141344cd1fd0a4f28419497f9722a3daafe3b4186f6b6457e0\n      swap2\n      log3\n        /* \"ROO_Repurchase/contracts/library/Ownable.sol\":1677:1683  _owner */\n      0x00\n        /* \"ROO_Repurchase/contracts/library/Ownable.sol\":1677:1694  _owner = newOwner */\n      dup1\n      sload\n      not(sub(shl(0xa0, 0x01), 0x01))\n      and\n      sub(shl(0xa0, 0x01), 0x01)\n      swap3\n      swap1\n      swap3\n      and\n      swap2\n      swap1\n      swap2\n      or\n      swap1\n      sstore\n        /* \"ROO_Repurchase/contracts/library/Ownable.sol\":1461:1701  function transferOwnership(address newOwner) public virtual onlyOwner {... */\n      jump\t// out\n        /* \"ROO_Repurchase/contracts/CHE_Repurchase.sol\":1631:1662  address public emergencyAddress */\n    tag_67:\n      and(sub(shl(0xa0, 0x01), 0x01), sload(0x03))\n      dup2\n      jump\t// out\n        /* \"ROO_Repurchase/contracts/library/Context.sol\":58:162  function _msgSender() internal view virtual returns (address payable) {... */\n    tag_70:\n        /* \"ROO_Repurchase/contracts/library/Context.sol\":145:155  msg.sender */\n      caller\n        /* \"ROO_Repurchase/contracts/library/Context.sol\":58:162  function _msgSender() internal view virtual returns (address payable) {... */\n      swap1\n      jump\t// out\n        /* \"ROO_Repurchase/contracts/library/EnumerableSet.sol\":5985:6132  function remove(AddressSet storage set, address value) internal returns (bool) {... */\n    tag_75:\n        /* \"ROO_Repurchase/contracts/library/EnumerableSet.sol\":6058:6062  bool */\n      0x00\n        /* \"ROO_Repurchase/contracts/library/EnumerableSet.sol\":6081:6125  _remove(set._inner, bytes32(uint256(value))) */\n      tag_164\n        /* \"ROO_Repurchase/contracts/library/EnumerableSet.sol\":6089:6092  set */\n      dup4\n      sub(shl(0xa0, 0x01), 0x01)\n        /* \"ROO_Repurchase/contracts/library/EnumerableSet.sol\":6109:6123  uint256(value) */\n      dup5\n      and\n        /* \"ROO_Repurchase/contracts/library/EnumerableSet.sol\":6081:6088  _remove */\n      tag_165\n        /* \"ROO_Repurchase/contracts/library/EnumerableSet.sol\":6081:6125  _remove(set._inner, bytes32(uint256(value))) */\n      jump\t// in\n    tag_164:\n        /* \"ROO_Repurchase/contracts/library/EnumerableSet.sol\":6074:6125  return _remove(set._inner, bytes32(uint256(value))) */\n      swap4\n        /* \"ROO_Repurchase/contracts/library/EnumerableSet.sol\":5985:6132  function remove(AddressSet storage set, address value) internal returns (bool) {... */\n      swap3\n      pop\n      pop\n      pop\n      jump\t// out\n        /* \"ROO_Repurchase/contracts/library/EnumerableSet.sol\":6450:6565  function length(AddressSet storage set) internal view returns (uint256) {... */\n    tag_83:\n        /* \"ROO_Repurchase/contracts/library/EnumerableSet.sol\":6513:6520  uint256 */\n      0x00\n        /* \"ROO_Repurchase/contracts/library/EnumerableSet.sol\":6539:6558  _length(set._inner) */\n      tag_74\n        /* \"ROO_Repurchase/contracts/library/EnumerableSet.sol\":6547:6550  set */\n      dup3\n        /* \"ROO_Repurchase/contracts/library/EnumerableSet.sol\":6539:6546  _length */\n      tag_168\n        /* \"ROO_Repurchase/contracts/library/EnumerableSet.sol\":6539:6558  _length(set._inner) */\n      jump\t// in\n        /* \"ROO_Repurchase/contracts/library/EnumerableSet.sol\":5676:5817  function add(AddressSet storage set, address value) internal returns (bool) {... */\n    tag_115:\n        /* \"ROO_Repurchase/contracts/library/EnumerableSet.sol\":5746:5750  bool */\n      0x00\n        /* \"ROO_Repurchase/contracts/library/EnumerableSet.sol\":5769:5810  _add(set._inner, bytes32(uint256(value))) */\n      tag_164\n        /* \"ROO_Repurchase/contracts/library/EnumerableSet.sol\":5774:5777  set */\n      dup4\n      sub(shl(0xa0, 0x01), 0x01)\n        /* \"ROO_Repurchase/contracts/library/EnumerableSet.sol\":5794:5808  uint256(value) */\n      dup5\n      and\n        /* \"ROO_Repurchase/contracts/library/EnumerableSet.sol\":5769:5773  _add */\n      tag_171\n        /* \"ROO_Repurchase/contracts/library/EnumerableSet.sol\":5769:5810  _add(set._inner, bytes32(uint256(value))) */\n      jump\t// in\n        /* \"ROO_Repurchase/contracts/library/EnumerableSet.sol\":6213:6369  function contains(AddressSet storage set, address value) internal view returns (bool) {... */\n    tag_118:\n        /* \"ROO_Repurchase/contracts/library/EnumerableSet.sol\":6293:6297  bool */\n      0x00\n        /* \"ROO_Repurchase/contracts/library/EnumerableSet.sol\":6316:6362  _contains(set._inner, bytes32(uint256(value))) */\n      tag_164\n        /* \"ROO_Repurchase/contracts/library/EnumerableSet.sol\":6326:6329  set */\n      dup4\n      sub(shl(0xa0, 0x01), 0x01)\n        /* \"ROO_Repurchase/contracts/library/EnumerableSet.sol\":6346:6360  uint256(value) */\n      dup5\n      and\n        /* \"ROO_Repurchase/contracts/library/EnumerableSet.sol\":6316:6325  _contains */\n      tag_174\n        /* \"ROO_Repurchase/contracts/library/EnumerableSet.sol\":6316:6362  _contains(set._inner, bytes32(uint256(value))) */\n      jump\t// in\n        /* \"ROO_Repurchase/contracts/library/SafeMath.sol\":1584:2043  function mul(uint256 a, uint256 b) internal pure returns (uint256) {... */\n    tag_133:\n        /* \"ROO_Repurchase/contracts/library/SafeMath.sol\":1642:1649  uint256 */\n      0x00\n        /* \"ROO_Repurchase/contracts/library/SafeMath.sol\":1883:1889  a == 0 */\n      dup3\n        /* \"ROO_Repurchase/contracts/library/SafeMath.sol\":1879:1924  if (a == 0) {... */\n      tag_176\n      jumpi\n      pop\n        /* \"ROO_Repurchase/contracts/library/SafeMath.sol\":1912:1913  0 */\n      0x00\n        /* \"ROO_Repurchase/contracts/library/SafeMath.sol\":1905:1913  return 0 */\n      jump(tag_74)\n        /* \"ROO_Repurchase/contracts/library/SafeMath.sol\":1879:1924  if (a == 0) {... */\n    tag_176:\n        /* \"ROO_Repurchase/contracts/library/SafeMath.sol\":1946:1951  a * b */\n      dup3\n      dup3\n      mul\n        /* \"ROO_Repurchase/contracts/library/SafeMath.sol\":1950:1951  b */\n      dup3\n        /* \"ROO_Repurchase/contracts/library/SafeMath.sol\":1946:1947  a */\n      dup5\n        /* \"ROO_Repurchase/contracts/library/SafeMath.sol\":1946:1951  a * b */\n      dup3\n        /* \"ROO_Repurchase/contracts/library/SafeMath.sol\":1946:1947  a */\n      dup2\n        /* \"ROO_Repurchase/contracts/library/SafeMath.sol\":1969:1974  c / a */\n      tag_177\n      jumpi\n      invalid\n    tag_177:\n      div\n        /* \"ROO_Repurchase/contracts/library/SafeMath.sol\":1969:1979  c / a == b */\n      eq\n        /* \"ROO_Repurchase/contracts/library/SafeMath.sol\":1961:2017  require(c / a == b, \"SafeMath: multiplication overflow\") */\n      tag_164\n      jumpi\n      mload(0x40)\n      shl(0xe5, 0x461bcd)\n      dup2\n      mstore\n      0x04\n      add\n      dup1\n      dup1\n      0x20\n      add\n      dup3\n      dup2\n      sub\n      dup3\n      mstore\n      0x21\n      dup2\n      mstore\n      0x20\n      add\n      dup1\n      data_9113bb53c2876a3805b2c9242029423fc540a728243ce887ab24c82cf119fba3\n      0x21\n      swap2\n      codecopy\n      0x40\n      add\n      swap2\n      pop\n      pop\n      mload(0x40)\n      dup1\n      swap2\n      sub\n      swap1\n      revert\n        /* \"ROO_Repurchase/contracts/library/SafeMath.sol\":278:454  function add(uint256 a, uint256 b) internal pure returns (uint256) {... */\n    tag_136:\n        /* \"ROO_Repurchase/contracts/library/SafeMath.sol\":336:343  uint256 */\n      0x00\n        /* \"ROO_Repurchase/contracts/library/SafeMath.sol\":367:372  a + b */\n      dup3\n      dup3\n      add\n        /* \"ROO_Repurchase/contracts/library/SafeMath.sol\":390:396  c >= a */\n      dup4\n      dup2\n      lt\n      iszero\n        /* \"ROO_Repurchase/contracts/library/SafeMath.sol\":382:428  require(c >= a, \"SafeMath: addition overflow\") */\n      tag_164\n      jumpi\n      0x40\n      dup1\n      mload\n      shl(0xe5, 0x461bcd)\n      dup2\n      mstore\n      0x20\n      0x04\n      dup3\n      add\n      mstore\n      0x1b\n      0x24\n      dup3\n      add\n      mstore\n      0x536166654d6174683a206164646974696f6e206f766572666c6f770000000000\n      0x44\n      dup3\n      add\n      mstore\n      swap1\n      mload\n      swap1\n      dup2\n      swap1\n      sub\n      0x64\n      add\n      swap1\n      revert\n        /* \"ROO_Repurchase/contracts/library/SafeERC20.sol\":198:373  function safeTransfer(IERC20 token, address to, uint256 value) internal {... */\n    tag_141:\n        /* \"ROO_Repurchase/contracts/library/SafeERC20.sol\":307:365  abi.encodeWithSelector(token.transfer.selector, to, value) */\n      0x40\n      dup1\n      mload\n      sub(shl(0xa0, 0x01), 0x01)\n      dup5\n      and\n      0x24\n      dup3\n      add\n      mstore\n      0x44\n      dup1\n      dup3\n      add\n      dup5\n      swap1\n      mstore\n      dup3\n      mload\n      dup1\n      dup4\n      sub\n      swap1\n      swap2\n      add\n      dup2\n      mstore\n      0x64\n      swap1\n      swap2\n      add\n      swap1\n      swap2\n      mstore\n      0x20\n      dup2\n      add\n      dup1\n      mload\n      sub(shl(0xe0, 0x01), 0x01)\n      and\n      shl(0xe0, 0xa9059cbb)\n      or\n      swap1\n      mstore\n        /* \"ROO_Repurchase/contracts/library/SafeERC20.sol\":280:366  _callOptionalReturn(token, abi.encodeWithSelector(token.transfer.selector, to, value)) */\n      tag_104\n      swap1\n        /* \"ROO_Repurchase/contracts/library/SafeERC20.sol\":300:305  token */\n      dup5\n      swap1\n        /* \"ROO_Repurchase/contracts/library/SafeERC20.sol\":280:299  _callOptionalReturn */\n      tag_183\n        /* \"ROO_Repurchase/contracts/library/SafeERC20.sol\":280:366  _callOptionalReturn(token, abi.encodeWithSelector(token.transfer.selector, to, value)) */\n      jump\t// in\n        /* \"ROO_Repurchase/contracts/library/EnumerableSet.sol\":6897:7044  function at(AddressSet storage set, uint256 index) internal view returns (address) {... */\n    tag_156:\n        /* \"ROO_Repurchase/contracts/library/EnumerableSet.sol\":6971:6978  address */\n      0x00\n        /* \"ROO_Repurchase/contracts/library/EnumerableSet.sol\":7013:7035  _at(set._inner, index) */\n      tag_164\n        /* \"ROO_Repurchase/contracts/library/EnumerableSet.sol\":7017:7020  set */\n      dup4\n        /* \"ROO_Repurchase/contracts/library/EnumerableSet.sol\":7029:7034  index */\n      dup4\n        /* \"ROO_Repurchase/contracts/library/EnumerableSet.sol\":7013:7016  _at */\n      tag_186\n        /* \"ROO_Repurchase/contracts/library/EnumerableSet.sol\":7013:7035  _at(set._inner, index) */\n      jump\t// in\n        /* \"ROO_Repurchase/contracts/library/EnumerableSet.sol\":1459:2971  function _remove(Set storage set, bytes32 value) private returns (bool) {... */\n    tag_165:\n        /* \"ROO_Repurchase/contracts/library/EnumerableSet.sol\":1525:1529  bool */\n      0x00\n        /* \"ROO_Repurchase/contracts/library/EnumerableSet.sol\":1662:1681  set._indexes[value] */\n      dup2\n      dup2\n      mstore\n        /* \"ROO_Repurchase/contracts/library/EnumerableSet.sol\":1662:1674  set._indexes */\n      0x01\n      dup4\n      add\n        /* \"ROO_Repurchase/contracts/library/EnumerableSet.sol\":1662:1681  set._indexes[value] */\n      0x20\n      mstore\n      0x40\n      dup2\n      keccak256\n      sload\n        /* \"ROO_Repurchase/contracts/library/EnumerableSet.sol\":1696:1711  valueIndex != 0 */\n      dup1\n      iszero\n        /* \"ROO_Repurchase/contracts/library/EnumerableSet.sol\":1692:2965  if (valueIndex != 0) { // Equivalent to contains(set, value)... */\n      tag_188\n      jumpi\n        /* \"ROO_Repurchase/contracts/library/EnumerableSet.sol\":2125:2143  set._values.length */\n      dup4\n      sload\n      not(0x00)\n        /* \"ROO_Repurchase/contracts/library/EnumerableSet.sol\":2077:2091  valueIndex - 1 */\n      dup1\n      dup4\n      add\n      swap2\n        /* \"ROO_Repurchase/contracts/library/EnumerableSet.sol\":2125:2147  set._values.length - 1 */\n      swap1\n      dup2\n      add\n      swap1\n        /* \"ROO_Repurchase/contracts/library/EnumerableSet.sol\":2053:2074  uint256 toDeleteIndex */\n      0x00\n      swap1\n        /* \"ROO_Repurchase/contracts/library/EnumerableSet.sol\":2125:2128  set */\n      dup8\n      swap1\n        /* \"ROO_Repurchase/contracts/library/EnumerableSet.sol\":2125:2147  set._values.length - 1 */\n      dup4\n      swap1\n        /* \"ROO_Repurchase/contracts/library/EnumerableSet.sol\":2407:2429  set._values[lastIndex] */\n      dup2\n      lt\n      tag_189\n      jumpi\n      invalid\n    tag_189:\n      swap1\n      0x00\n      mstore\n      keccak256(0x00, 0x20)\n      add\n      sload\n        /* \"ROO_Repurchase/contracts/library/EnumerableSet.sol\":2387:2429  bytes32 lastvalue = set._values[lastIndex] */\n      swap1\n      pop\n        /* \"ROO_Repurchase/contracts/library/EnumerableSet.sol\":2550:2559  lastvalue */\n      dup1\n        /* \"ROO_Repurchase/contracts/library/EnumerableSet.sol\":2521:2524  set */\n      dup8\n        /* \"ROO_Repurchase/contracts/library/EnumerableSet.sol\":2521:2532  set._values */\n      0x00\n      add\n        /* \"ROO_Repurchase/contracts/library/EnumerableSet.sol\":2533:2546  toDeleteIndex */\n      dup5\n        /* \"ROO_Repurchase/contracts/library/EnumerableSet.sol\":2521:2547  set._values[toDeleteIndex] */\n      dup2\n      sload\n      dup2\n      lt\n      tag_191\n      jumpi\n      invalid\n    tag_191:\n      0x00\n      swap2\n      dup3\n      mstore\n      0x20\n      dup1\n      dup4\n      keccak256\n      swap1\n      swap2\n      add\n        /* \"ROO_Repurchase/contracts/library/EnumerableSet.sol\":2521:2559  set._values[toDeleteIndex] = lastvalue */\n      swap3\n      swap1\n      swap3\n      sstore\n        /* \"ROO_Repurchase/contracts/library/EnumerableSet.sol\":2625:2648  set._indexes[lastvalue] */\n      dup3\n      dup2\n      mstore\n        /* \"ROO_Repurchase/contracts/library/EnumerableSet.sol\":2667:2668  1 */\n      0x01\n        /* \"ROO_Repurchase/contracts/library/EnumerableSet.sol\":2625:2637  set._indexes */\n      dup10\n      dup2\n      add\n        /* \"ROO_Repurchase/contracts/library/EnumerableSet.sol\":2625:2648  set._indexes[lastvalue] */\n      swap1\n      swap3\n      mstore\n      0x40\n      swap1\n      keccak256\n        /* \"ROO_Repurchase/contracts/library/EnumerableSet.sol\":2651:2668  toDeleteIndex + 1 */\n      swap1\n      dup5\n      add\n        /* \"ROO_Repurchase/contracts/library/EnumerableSet.sol\":2625:2668  set._indexes[lastvalue] = toDeleteIndex + 1 */\n      swap1\n      sstore\n        /* \"ROO_Repurchase/contracts/library/EnumerableSet.sol\":2774:2791  set._values.pop() */\n      dup7\n      sload\n        /* \"ROO_Repurchase/contracts/library/EnumerableSet.sol\":2625:2628  set */\n      dup8\n      swap1\n        /* \"ROO_Repurchase/contracts/library/EnumerableSet.sol\":2774:2791  set._values.pop() */\n      dup1\n      tag_193\n      jumpi\n      invalid\n    tag_193:\n      0x01\n      swap1\n      sub\n      dup2\n      dup2\n      swap1\n      0x00\n      mstore\n      keccak256(0x00, 0x20)\n      add\n      0x00\n      swap1\n      sstore\n      swap1\n      sstore\n        /* \"ROO_Repurchase/contracts/library/EnumerableSet.sol\":2866:2869  set */\n      dup7\n        /* \"ROO_Repurchase/contracts/library/EnumerableSet.sol\":2866:2878  set._indexes */\n      0x01\n      add\n        /* \"ROO_Repurchase/contracts/library/EnumerableSet.sol\":2866:2885  set._indexes[value] */\n      0x00\n        /* \"ROO_Repurchase/contracts/library/EnumerableSet.sol\":2879:2884  value */\n      dup8\n        /* \"ROO_Repurchase/contracts/library/EnumerableSet.sol\":2866:2885  set._indexes[value] */\n      dup2\n      mstore\n      0x20\n      add\n      swap1\n      dup2\n      mstore\n      0x20\n      add\n      0x00\n      keccak256\n        /* \"ROO_Repurchase/contracts/library/EnumerableSet.sol\":2859:2885  delete set._indexes[value] */\n      0x00\n      swap1\n      sstore\n        /* \"ROO_Repurchase/contracts/library/EnumerableSet.sol\":2907:2911  true */\n      0x01\n        /* \"ROO_Repurchase/contracts/library/EnumerableSet.sol\":2900:2911  return true */\n      swap5\n      pop\n      pop\n      pop\n      pop\n      pop\n      jump(tag_74)\n        /* \"ROO_Repurchase/contracts/library/EnumerableSet.sol\":1692:2965  if (valueIndex != 0) { // Equivalent to contains(set, value)... */\n    tag_188:\n        /* \"ROO_Repurchase/contracts/library/EnumerableSet.sol\":2949:2954  false */\n      0x00\n        /* \"ROO_Repurchase/contracts/library/EnumerableSet.sol\":2942:2954  return false */\n      swap2\n      pop\n      pop\n      jump(tag_74)\n        /* \"ROO_Repurchase/contracts/library/EnumerableSet.sol\":3260:3367  function _length(Set storage set) private view returns (uint256) {... */\n    tag_168:\n        /* \"ROO_Repurchase/contracts/library/EnumerableSet.sol\":3342:3360  set._values.length */\n      sload\n      swap1\n        /* \"ROO_Repurchase/contracts/library/EnumerableSet.sol\":3260:3367  function _length(Set storage set) private view returns (uint256) {... */\n      jump\t// out\n        /* \"ROO_Repurchase/contracts/library/EnumerableSet.sol\":887:1291  function _add(Set storage set, bytes32 value) private returns (bool) {... */\n    tag_171:\n        /* \"ROO_Repurchase/contracts/library/EnumerableSet.sol\":950:954  bool */\n      0x00\n        /* \"ROO_Repurchase/contracts/library/EnumerableSet.sol\":971:992  _contains(set, value) */\n      tag_198\n        /* \"ROO_Repurchase/contracts/library/EnumerableSet.sol\":981:984  set */\n      dup4\n        /* \"ROO_Repurchase/contracts/library/EnumerableSet.sol\":986:991  value */\n      dup4\n        /* \"ROO_Repurchase/contracts/library/EnumerableSet.sol\":971:980  _contains */\n      tag_174\n        /* \"ROO_Repurchase/contracts/library/EnumerableSet.sol\":971:992  _contains(set, value) */\n      jump\t// in\n    tag_198:\n        /* \"ROO_Repurchase/contracts/library/EnumerableSet.sol\":966:1285  if (!_contains(set, value)) {... */\n      tag_199\n      jumpi\n      pop\n        /* \"ROO_Repurchase/contracts/library/EnumerableSet.sol\":1008:1031  set._values.push(value) */\n      dup2\n      sload\n      0x01\n      dup2\n      dup2\n      add\n      dup5\n      sstore\n        /* \"ROO_Repurchase/contracts/library/EnumerableSet.sol\":1008:1019  set._values */\n      0x00\n        /* \"ROO_Repurchase/contracts/library/EnumerableSet.sol\":1008:1031  set._values.push(value) */\n      dup5\n      dup2\n      mstore\n      0x20\n      dup1\n      dup3\n      keccak256\n      swap1\n      swap4\n      add\n      dup5\n      swap1\n      sstore\n        /* \"ROO_Repurchase/contracts/library/EnumerableSet.sol\":1188:1206  set._values.length */\n      dup5\n      sload\n        /* \"ROO_Repurchase/contracts/library/EnumerableSet.sol\":1166:1185  set._indexes[value] */\n      dup5\n      dup3\n      mstore\n        /* \"ROO_Repurchase/contracts/library/EnumerableSet.sol\":1166:1178  set._indexes */\n      dup3\n      dup7\n      add\n        /* \"ROO_Repurchase/contracts/library/EnumerableSet.sol\":1166:1185  set._indexes[value] */\n      swap1\n      swap4\n      mstore\n      0x40\n      swap1\n      keccak256\n        /* \"ROO_Repurchase/contracts/library/EnumerableSet.sol\":1166:1206  set._indexes[value] = set._values.length */\n      swap2\n      swap1\n      swap2\n      sstore\n        /* \"ROO_Repurchase/contracts/library/EnumerableSet.sol\":1220:1231  return true */\n      jump(tag_74)\n        /* \"ROO_Repurchase/contracts/library/EnumerableSet.sol\":966:1285  if (!_contains(set, value)) {... */\n    tag_199:\n      pop\n        /* \"ROO_Repurchase/contracts/library/EnumerableSet.sol\":1269:1274  false */\n      0x00\n        /* \"ROO_Repurchase/contracts/library/EnumerableSet.sol\":1262:1274  return false */\n      jump(tag_74)\n        /* \"ROO_Repurchase/contracts/library/EnumerableSet.sol\":3052:3179  function _contains(Set storage set, bytes32 value) private view returns (bool) {... */\n    tag_174:\n        /* \"ROO_Repurchase/contracts/library/EnumerableSet.sol\":3125:3129  bool */\n      0x00\n        /* \"ROO_Repurchase/contracts/library/EnumerableSet.sol\":3148:3167  set._indexes[value] */\n      swap1\n      dup2\n      mstore\n        /* \"ROO_Repurchase/contracts/library/EnumerableSet.sol\":3148:3160  set._indexes */\n      0x01\n      swap2\n      swap1\n      swap2\n      add\n        /* \"ROO_Repurchase/contracts/library/EnumerableSet.sol\":3148:3167  set._indexes[value] */\n      0x20\n      mstore\n      0x40\n      swap1\n      keccak256\n      sload\n        /* \"ROO_Repurchase/contracts/library/EnumerableSet.sol\":3148:3172  set._indexes[value] != 0 */\n      iszero\n      iszero\n      swap1\n        /* \"ROO_Repurchase/contracts/library/EnumerableSet.sol\":3052:3179  function _contains(Set storage set, bytes32 value) private view returns (bool) {... */\n      jump\t// out\n        /* \"ROO_Repurchase/contracts/library/SafeERC20.sol\":2461:3212  function _callOptionalReturn(IERC20 token, bytes memory data) private {... */\n    tag_183:\n        /* \"ROO_Repurchase/contracts/library/SafeERC20.sol\":2880:2903  bytes memory returndata */\n      0x60\n        /* \"ROO_Repurchase/contracts/library/SafeERC20.sol\":2906:2975  address(token).functionCall(data, \"SafeERC20: low-level call failed\") */\n      tag_204\n        /* \"ROO_Repurchase/contracts/library/SafeERC20.sol\":2934:2938  data */\n      dup3\n        /* \"ROO_Repurchase/contracts/library/SafeERC20.sol\":2906:2975  address(token).functionCall(data, \"SafeERC20: low-level call failed\") */\n      mload(0x40)\n      dup1\n      0x40\n      add\n      0x40\n      mstore\n      dup1\n      0x20\n      dup2\n      mstore\n      0x20\n      add\n      0x5361666545524332303a206c6f772d6c6576656c2063616c6c206661696c6564\n      dup2\n      mstore\n      pop\n        /* \"ROO_Repurchase/contracts/library/SafeERC20.sol\":2914:2919  token */\n      dup6\n      sub(shl(0xa0, 0x01), 0x01)\n        /* \"ROO_Repurchase/contracts/library/SafeERC20.sol\":2906:2933  address(token).functionCall */\n      and\n      tag_205\n      swap1\n        /* \"ROO_Repurchase/contracts/library/SafeERC20.sol\":2906:2975  address(token).functionCall(data, \"SafeERC20: low-level call failed\") */\n      swap3\n      swap2\n      swap1\n      0xffffffff\n      and\n      jump\t// in\n    tag_204:\n        /* \"ROO_Repurchase/contracts/library/SafeERC20.sol\":2989:3006  returndata.length */\n      dup1\n      mload\n        /* \"ROO_Repurchase/contracts/library/SafeERC20.sol\":2880:2975  bytes memory returndata = address(token).functionCall(data, \"SafeERC20: low-level call failed\") */\n      swap1\n      swap2\n      pop\n        /* \"ROO_Repurchase/contracts/library/SafeERC20.sol\":2989:3010  returndata.length > 0 */\n      iszero\n        /* \"ROO_Repurchase/contracts/library/SafeERC20.sol\":2985:3206  if (returndata.length > 0) { // Return data is optional... */\n      tag_104\n      jumpi\n        /* \"ROO_Repurchase/contracts/library/SafeERC20.sol\":3129:3139  returndata */\n      dup1\n        /* \"ROO_Repurchase/contracts/library/SafeERC20.sol\":3118:3148  abi.decode(returndata, (bool)) */\n      dup1\n      0x20\n      add\n      swap1\n      mload\n      0x20\n      dup2\n      lt\n      iszero\n      tag_207\n      jumpi\n      0x00\n      dup1\n      revert\n    tag_207:\n      pop\n      mload\n        /* \"ROO_Repurchase/contracts/library/SafeERC20.sol\":3110:3195  require(abi.decode(returndata, (bool)), \"SafeERC20: ERC20 operation did not succeed\") */\n      tag_104\n      jumpi\n      mload(0x40)\n      shl(0xe5, 0x461bcd)\n      dup2\n      mstore\n      0x04\n      add\n      dup1\n      dup1\n      0x20\n      add\n      dup3\n      dup2\n      sub\n      dup3\n      mstore\n      0x2a\n      dup2\n      mstore\n      0x20\n      add\n      dup1\n      data_e11ad79d1e4a7f2e5f376964cb99e8e8f7904e3fc16a109f7a7ecb9aa7956dcd\n      0x2a\n      swap2\n      codecopy\n      0x40\n      add\n      swap2\n      pop\n      pop\n      mload(0x40)\n      dup1\n      swap2\n      sub\n      swap1\n      revert\n        /* \"ROO_Repurchase/contracts/library/EnumerableSet.sol\":3699:3900  function _at(Set storage set, uint256 index) private view returns (bytes32) {... */\n    tag_186:\n        /* \"ROO_Repurchase/contracts/library/EnumerableSet.sol\":3793:3811  set._values.length */\n      dup2\n      sload\n        /* \"ROO_Repurchase/contracts/library/EnumerableSet.sol\":3766:3773  bytes32 */\n      0x00\n      swap1\n        /* \"ROO_Repurchase/contracts/library/EnumerableSet.sol\":3793:3819  set._values.length > index */\n      dup3\n      lt\n        /* \"ROO_Repurchase/contracts/library/EnumerableSet.sol\":3785:3858  require(set._values.length > index, \"EnumerableSet: index out of bounds\") */\n      tag_210\n      jumpi\n      mload(0x40)\n      shl(0xe5, 0x461bcd)\n      dup2\n      mstore\n      0x04\n      add\n      dup1\n      dup1\n      0x20\n      add\n      dup3\n      dup2\n      sub\n      dup3\n      mstore\n      0x22\n      dup2\n      mstore\n      0x20\n      add\n      dup1\n      data_045d6834e6193a687012a3ad777f612279e549b6945364d9d2324f48610d3cbb\n      0x22\n      swap2\n      codecopy\n      0x40\n      add\n      swap2\n      pop\n      pop\n      mload(0x40)\n      dup1\n      swap2\n      sub\n      swap1\n      revert\n    tag_210:\n        /* \"ROO_Repurchase/contracts/library/EnumerableSet.sol\":3875:3878  set */\n      dup3\n        /* \"ROO_Repurchase/contracts/library/EnumerableSet.sol\":3875:3886  set._values */\n      0x00\n      add\n        /* \"ROO_Repurchase/contracts/library/EnumerableSet.sol\":3887:3892  index */\n      dup3\n        /* \"ROO_Repurchase/contracts/library/EnumerableSet.sol\":3875:3893  set._values[index] */\n      dup2\n      sload\n      dup2\n      lt\n      tag_211\n      jumpi\n      invalid\n    tag_211:\n      swap1\n      0x00\n      mstore\n      keccak256(0x00, 0x20)\n      add\n      sload\n        /* \"ROO_Repurchase/contracts/library/EnumerableSet.sol\":3868:3893  return set._values[index] */\n      swap1\n      pop\n        /* \"ROO_Repurchase/contracts/library/EnumerableSet.sol\":3699:3900  function _at(Set storage set, uint256 index) private view returns (bytes32) {... */\n      swap3\n      swap2\n      pop\n      pop\n      jump\t// out\n        /* \"ROO_Repurchase/contracts/library/Address.sol\":3473:3666  function functionCall(address target, bytes memory data, string memory errorMessage) internal returns (bytes memory) {... */\n    tag_205:\n        /* \"ROO_Repurchase/contracts/library/Address.sol\":3576:3588  bytes memory */\n      0x60\n        /* \"ROO_Repurchase/contracts/library/Address.sol\":3607:3659  functionCallWithValue(target, data, 0, errorMessage) */\n      tag_214\n        /* \"ROO_Repurchase/contracts/library/Address.sol\":3629:3635  target */\n      dup5\n        /* \"ROO_Repurchase/contracts/library/Address.sol\":3637:3641  data */\n      dup5\n        /* \"ROO_Repurchase/contracts/library/Address.sol\":3643:3644  0 */\n      0x00\n        /* \"ROO_Repurchase/contracts/library/Address.sol\":3646:3658  errorMessage */\n      dup6\n        /* \"ROO_Repurchase/contracts/library/Address.sol\":3607:3628  functionCallWithValue */\n      tag_215\n        /* \"ROO_Repurchase/contracts/library/Address.sol\":3607:3659  functionCallWithValue(target, data, 0, errorMessage) */\n      jump\t// in\n    tag_214:\n        /* \"ROO_Repurchase/contracts/library/Address.sol\":3600:3659  return functionCallWithValue(target, data, 0, errorMessage) */\n      swap5\n        /* \"ROO_Repurchase/contracts/library/Address.sol\":3473:3666  function functionCall(address target, bytes memory data, string memory errorMessage) internal returns (bytes memory) {... */\n      swap4\n      pop\n      pop\n      pop\n      pop\n      jump\t// out\n        /* \"ROO_Repurchase/contracts/library/Address.sol\":4500:5023  function functionCallWithValue(address target, bytes memory data, uint256 value, string memory errorMessage) internal returns (bytes memory) {... */\n    tag_215:\n        /* \"ROO_Repurchase/contracts/library/Address.sol\":4627:4639  bytes memory */\n      0x60\n        /* \"ROO_Repurchase/contracts/library/Address.sol\":4684:4689  value */\n      dup3\n        /* \"ROO_Repurchase/contracts/library/Address.sol\":4659:4680  address(this).balance */\n      selfbalance\n        /* \"ROO_Repurchase/contracts/library/Address.sol\":4659:4689  address(this).balance >= value */\n      lt\n      iszero\n        /* \"ROO_Repurchase/contracts/library/Address.sol\":4651:4732  require(address(this).balance >= value, \"Address: insufficient balance for call\") */\n      tag_217\n      jumpi\n      mload(0x40)\n      shl(0xe5, 0x461bcd)\n      dup2\n      mstore\n      0x04\n      add\n      dup1\n      dup1\n      0x20\n      add\n      dup3\n      dup2\n      sub\n      dup3\n      mstore\n      0x26\n      dup2\n      mstore\n      0x20\n      add\n      dup1\n      data_565f1a77334fc4792800921178c71e4521acffab18ff9e7885b49377ee80ab4c\n      0x26\n      swap2\n      codecopy\n      0x40\n      add\n      swap2\n      pop\n      pop\n      mload(0x40)\n      dup1\n      swap2\n      sub\n      swap1\n      revert\n    tag_217:\n        /* \"ROO_Repurchase/contracts/library/Address.sol\":4750:4768  isContract(target) */\n      tag_218\n        /* \"ROO_Repurchase/contracts/library/Address.sol\":4761:4767  target */\n      dup6\n        /* \"ROO_Repurchase/contracts/library/Address.sol\":4750:4760  isContract */\n      tag_219\n        /* \"ROO_Repurchase/contracts/library/Address.sol\":4750:4768  isContract(target) */\n      jump\t// in\n    tag_218:\n        /* \"ROO_Repurchase/contracts/library/Address.sol\":4742:4802  require(isContract(target), \"Address: call to non-contract\") */\n      tag_220\n      jumpi\n      0x40\n      dup1\n      mload\n      shl(0xe5, 0x461bcd)\n      dup2\n      mstore\n      0x20\n      0x04\n      dup3\n      add\n      mstore\n      0x1d\n      0x24\n      dup3\n      add\n      mstore\n      0x416464726573733a2063616c6c20746f206e6f6e2d636f6e7472616374000000\n      0x44\n      dup3\n      add\n      mstore\n      swap1\n      mload\n      swap1\n      dup2\n      swap1\n      sub\n      0x64\n      add\n      swap1\n      revert\n    tag_220:\n        /* \"ROO_Repurchase/contracts/library/Address.sol\":4873:4885  bool success */\n      0x00\n        /* \"ROO_Repurchase/contracts/library/Address.sol\":4887:4910  bytes memory returndata */\n      0x60\n        /* \"ROO_Repurchase/contracts/library/Address.sol\":4914:4920  target */\n      dup7\n      sub(shl(0xa0, 0x01), 0x01)\n        /* \"ROO_Repurchase/contracts/library/Address.sol\":4914:4925  target.call */\n      and\n        /* \"ROO_Repurchase/contracts/library/Address.sol\":4934:4939  value */\n      dup6\n        /* \"ROO_Repurchase/contracts/library/Address.sol\":4942:4946  data */\n      dup8\n        /* \"ROO_Repurchase/contracts/library/Address.sol\":4914:4947  target.call{ value: value }(data) */\n      mload(0x40)\n      dup1\n      dup3\n      dup1\n      mload\n      swap1\n      0x20\n      add\n      swap1\n      dup1\n      dup4\n      dup4\n    tag_221:\n      0x20\n      dup4\n      lt\n      tag_223\n      jumpi\n      dup1\n      mload\n      dup3\n      mstore\n      not(0x1f)\n      swap1\n      swap3\n      add\n      swap2\n      0x20\n      swap2\n      dup3\n      add\n      swap2\n      add\n      jump(tag_221)\n    tag_223:\n      0x01\n      dup4\n      0x20\n      sub\n      0x0100\n      exp\n      sub\n      dup1\n      not\n      dup3\n      mload\n      and\n      dup2\n      dup5\n      mload\n      and\n      dup1\n      dup3\n      or\n      dup6\n      mstore\n      pop\n      pop\n      pop\n      pop\n      pop\n      pop\n      swap1\n      pop\n      add\n      swap2\n      pop\n      pop\n      0x00\n      mload(0x40)\n      dup1\n      dup4\n      sub\n      dup2\n      dup6\n      dup8\n      gas\n      call\n      swap3\n      pop\n      pop\n      pop\n      returndatasize\n      dup1\n      0x00\n      dup2\n      eq\n      tag_226\n      jumpi\n      mload(0x40)\n      swap2\n      pop\n      and(add(returndatasize, 0x3f), not(0x1f))\n      dup3\n      add\n      0x40\n      mstore\n      returndatasize\n      dup3\n      mstore\n      returndatasize\n      0x00\n      0x20\n      dup5\n      add\n      returndatacopy\n      jump(tag_225)\n    tag_226:\n      0x60\n      swap2\n      pop\n    tag_225:\n      pop\n        /* \"ROO_Repurchase/contracts/library/Address.sol\":4872:4947  (bool success, bytes memory returndata) = target.call{ value: value }(data) */\n      swap2\n      pop\n      swap2\n      pop\n        /* \"ROO_Repurchase/contracts/library/Address.sol\":4964:5016  _verifyCallResult(success, returndata, errorMessage) */\n      tag_227\n        /* \"ROO_Repurchase/contracts/library/Address.sol\":4982:4989  success */\n      dup3\n        /* \"ROO_Repurchase/contracts/library/Address.sol\":4991:5001  returndata */\n      dup3\n        /* \"ROO_Repurchase/contracts/library/Address.sol\":5003:5015  errorMessage */\n      dup7\n        /* \"ROO_Repurchase/contracts/library/Address.sol\":4964:4981  _verifyCallResult */\n      tag_228\n        /* \"ROO_Repurchase/contracts/library/Address.sol\":4964:5016  _verifyCallResult(success, returndata, errorMessage) */\n      jump\t// in\n    tag_227:\n        /* \"ROO_Repurchase/contracts/library/Address.sol\":4957:5016  return _verifyCallResult(success, returndata, errorMessage) */\n      swap8\n        /* \"ROO_Repurchase/contracts/library/Address.sol\":4500:5023  function functionCallWithValue(address target, bytes memory data, uint256 value, string memory errorMessage) internal returns (bytes memory) {... */\n      swap7\n      pop\n      pop\n      pop\n      pop\n      pop\n      pop\n      pop\n      jump\t// out\n        /* \"ROO_Repurchase/contracts/library/Address.sol\":618:1031  function isContract(address account) internal view returns (bool) {... */\n    tag_219:\n        /* \"ROO_Repurchase/contracts/library/Address.sol\":978:998  extcodesize(account) */\n      extcodesize\n        /* \"ROO_Repurchase/contracts/library/Address.sol\":1016:1024  size > 0 */\n      iszero\n      iszero\n      swap1\n        /* \"ROO_Repurchase/contracts/library/Address.sol\":618:1031  function isContract(address account) internal view returns (bool) {... */\n      jump\t// out\n        /* \"ROO_Repurchase/contracts/library/Address.sol\":6003:6728  function _verifyCallResult(bool success, bytes memory returndata, string memory errorMessage) private pure returns(bytes memory) {... */\n    tag_228:\n        /* \"ROO_Repurchase/contracts/library/Address.sol\":6118:6130  bytes memory */\n      0x60\n        /* \"ROO_Repurchase/contracts/library/Address.sol\":6146:6153  success */\n      dup4\n        /* \"ROO_Repurchase/contracts/library/Address.sol\":6142:6722  if (success) {... */\n      iszero\n      tag_231\n      jumpi\n      pop\n        /* \"ROO_Repurchase/contracts/library/Address.sol\":6176:6186  returndata */\n      dup2\n        /* \"ROO_Repurchase/contracts/library/Address.sol\":6169:6186  return returndata */\n      jump(tag_164)\n        /* \"ROO_Repurchase/contracts/library/Address.sol\":6142:6722  if (success) {... */\n    tag_231:\n        /* \"ROO_Repurchase/contracts/library/Address.sol\":6287:6304  returndata.length */\n      dup3\n      mload\n        /* \"ROO_Repurchase/contracts/library/Address.sol\":6287:6308  returndata.length > 0 */\n      iszero\n        /* \"ROO_Repurchase/contracts/library/Address.sol\":6283:6712  if (returndata.length > 0) {... */\n      tag_233\n      jumpi\n        /* \"ROO_Repurchase/contracts/library/Address.sol\":6545:6555  returndata */\n      dup3\n        /* \"ROO_Repurchase/contracts/library/Address.sol\":6539:6556  mload(returndata) */\n      mload\n        /* \"ROO_Repurchase/contracts/library/Address.sol\":6605:6620  returndata_size */\n      dup1\n        /* \"ROO_Repurchase/contracts/library/Address.sol\":6592:6602  returndata */\n      dup5\n        /* \"ROO_Repurchase/contracts/library/Address.sol\":6588:6590  32 */\n      0x20\n        /* \"ROO_Repurchase/contracts/library/Address.sol\":6584:6603  add(32, returndata) */\n      add\n        /* \"ROO_Repurchase/contracts/library/Address.sol\":6577:6621  revert(add(32, returndata), returndata_size) */\n      revert\n        /* \"ROO_Repurchase/contracts/library/Address.sol\":6494:6639  {... */\n    tag_233:\n        /* \"ROO_Repurchase/contracts/library/Address.sol\":6684:6696  errorMessage */\n      dup2\n        /* \"ROO_Repurchase/contracts/library/Address.sol\":6677:6697  revert(errorMessage) */\n      mload(0x40)\n      shl(0xe5, 0x461bcd)\n      dup2\n      mstore\n      0x04\n      add\n      dup1\n      dup1\n      0x20\n      add\n      dup3\n      dup2\n      sub\n      dup3\n      mstore\n      dup4\n      dup2\n      dup2\n      mload\n      dup2\n      mstore\n      0x20\n      add\n      swap2\n      pop\n      dup1\n      mload\n      swap1\n      0x20\n      add\n      swap1\n      dup1\n      dup4\n      dup4\n      0x00\n    tag_235:\n      dup4\n      dup2\n      lt\n      iszero\n      tag_237\n      jumpi\n      dup2\n      dup2\n      add\n      mload\n      dup4\n      dup3\n      add\n      mstore\n      0x20\n      add\n      jump(tag_235)\n    tag_237:\n      pop\n      pop\n      pop\n      pop\n      swap1\n      pop\n      swap1\n      dup2\n      add\n      swap1\n      0x1f\n      and\n      dup1\n      iszero\n      tag_238\n      jumpi\n      dup1\n      dup3\n      sub\n      dup1\n      mload\n      0x01\n      dup4\n      0x20\n      sub\n      0x0100\n      exp\n      sub\n      not\n      and\n      dup2\n      mstore\n      0x20\n      add\n      swap2\n      pop\n    tag_238:\n      pop\n      swap3\n      pop\n      pop\n      pop\n      mload(0x40)\n      dup1\n      swap2\n      sub\n      swap1\n      revert\n    stop\n    data_045d6834e6193a687012a3ad777f612279e549b6945364d9d2324f48610d3cbb 456e756d657261626c655365743a20696e646578206f7574206f6620626f756e6473\n    data_245f15ff17f551913a7a18385165551503906a406f905ac1c2437281a7cd0cfe 4f776e61626c653a206e6577206f776e657220697320746865207a65726f2061646472657373\n    data_565f1a77334fc4792800921178c71e4521acffab18ff9e7885b49377ee80ab4c 416464726573733a20696e73756666696369656e742062616c616e636520666f722063616c6c\n    data_9113bb53c2876a3805b2c9242029423fc540a728243ce887ab24c82cf119fba3 536166654d6174683a206d756c7469706c69636174696f6e206f766572666c6f77\n    data_9924ebdf1add33d25d4ef888e16131f0a5687b0580a36c21b5c301a6c462effe 4f776e61626c653a2063616c6c6572206973206e6f7420746865206f776e6572\n    data_e11ad79d1e4a7f2e5f376964cb99e8e8f7904e3fc16a109f7a7ecb9aa7956dcd 5361666545524332303a204552433230206f7065726174696f6e20646964206e6f742073756363656564\n\n    auxdata: 0xa2646970667358221220057f31afe027741b04aee602b8153e12277a4df93e95c7d278c23beadf38879c64736f6c634300060c0033\n}\n",
				"bytecode": {
					"linkReferences": {},
					"object": "608060405234801561001057600080fd5b50600061001b61006a565b600080546001600160a01b0319166001600160a01b0383169081178255604051929350917f8be0079c531659141344cd1fd0a4f28419497f9722a3daafe3b4186f6b6457e0908290a35061006e565b3390565b61144d8061007d6000396000f3fe608060405234801561001057600080fd5b50600436106101165760003560e01c80637ac07dcc116100a2578063c0a0479911610071578063c0a0479914610287578063c54e44eb1461028f578063d12d9f1514610297578063f2fde38b1461029f578063fddf3f73146102c557610116565b80637ac07dcc146102345780638119c0651461025a5780638da5cb5b14610262578063a8b0b3ed1461026a57610116565b80636717f5b0116100e95780636717f5b0146101bb5780636bed55a6146101d85780636ff1c9bc146101e0578063715018a614610206578063747293fb1461020e57610116565b8063078053721461011b578063231a418c1461013f5780632aa11ffb1461017957806342177a58146101a1575b600080fd5b6101236102cd565b604080516001600160a01b039092168252519081900360200190f35b6101656004803603602081101561015557600080fd5b50356001600160a01b03166102e5565b604080519115158252519081900360200190f35b61019f6004803603602081101561018f57600080fd5b50356001600160a01b03166103ab565b005b6101a9610472565b60408051918252519081900360200190f35b61019f600480360360208110156101d157600080fd5b5035610483565b6101a96104e0565b61019f600480360360208110156101f657600080fd5b50356001600160a01b03166104e6565b61019f61070a565b6101656004803603602081101561022457600080fd5b50356001600160a01b03166107ac565b6101656004803603602081101561024a57600080fd5b50356001600160a01b031661086c565b6101a9610879565b610123610bcc565b6101236004803603602081101561028057600080fd5b5035610bdb565b610123610c3d565b610123610c55565b610123610c6d565b61019f600480360360208110156102b557600080fd5b50356001600160a01b0316610c73565b610123610d6b565b730d57285ed72b1db83f497bdbe95c25738d10a8e681565b60006102ef610d7a565b6000546001600160a01b0390811691161461033f576040805162461bcd60e51b815260206004820181905260248201526000805160206113ce833981519152604482015290519081900360640190fd5b6001600160a01b03821661039a576040805162461bcd60e51b815260206004820152601d60248201527f44656c43616c6c657220697320746865207a65726f2061646472657373000000604482015290519081900360640190fd5b6103a5600183610d7e565b92915050565b6103b3610d7a565b6000546001600160a01b03908116911614610403576040805162461bcd60e51b815260206004820181905260248201526000805160206113ce833981519152604482015290519081900360640190fd5b6001600160a01b038116610450576040805162461bcd60e51b815260206004820152600f60248201526e4973207a65726f206164647265737360881b604482015290519081900360640190fd5b600380546001600160a01b0319166001600160a01b0392909216919091179055565b600061047e6001610d9a565b905090565b61048b610d7a565b6000546001600160a01b039081169116146104db576040805162461bcd60e51b815260206004820181905260248201526000805160206113ce833981519152604482015290519081900360640190fd5b600455565b60045481565b6104ee610d7a565b6000546001600160a01b0390811691161461053e576040805162461bcd60e51b815260206004820181905260248201526000805160206113ce833981519152604482015290519081900360640190fd5b6000816001600160a01b03166370a08231306040518263ffffffff1660e01b815260040180826001600160a01b0316815260200191505060206040518083038186803b15801561058d57600080fd5b505afa1580156105a1573d6000803e3d6000fd5b505050506040513d60208110156105b757600080fd5b50511161060b576040805162461bcd60e51b815260206004820152601d60248201527f496e73756666696369656e7420636f6e74726163742062616c616e6365000000604482015290519081900360640190fd5b600354604080516370a0823160e01b815230600482015290516001600160a01b038085169363a9059cbb9391169184916370a08231916024808301926020929190829003018186803b15801561066057600080fd5b505afa158015610674573d6000803e3d6000fd5b505050506040513d602081101561068a57600080fd5b5051604080516001600160e01b031960e086901b1681526001600160a01b03909316600484015260248301919091525160448083019260209291908290030181600087803b1580156106db57600080fd5b505af11580156106ef573d6000803e3d6000fd5b505050506040513d602081101561070557600080fd5b505050565b610712610d7a565b6000546001600160a01b03908116911614610762576040805162461bcd60e51b815260206004820181905260248201526000805160206113ce833981519152604482015290519081900360640190fd5b600080546040516001600160a01b03909116907f8be0079c531659141344cd1fd0a4f28419497f9722a3daafe3b4186f6b6457e0908390a3600080546001600160a01b0319169055565b60006107b6610d7a565b6000546001600160a01b03908116911614610806576040805162461bcd60e51b815260206004820181905260248201526000805160206113ce833981519152604482015290519081900360640190fd5b6001600160a01b038216610861576040805162461bcd60e51b815260206004820152601d60248201527f4e657743616c6c657220697320746865207a65726f2061646472657373000000604482015290519081900360640190fd5b6103a5600183610da5565b60006103a5600183610dba565b60006108843361086c565b6108c6576040805162461bcd60e51b815260206004820152600e60248201526d2737ba103a34329031b0b63632b960911b604482015290519081900360640190fd5b600454737f9ee0245d3be4bb8f79e9fcafed81d34c8a623d6001600160a01b03166370a08231306040518263ffffffff1660e01b815260040180826001600160a01b0316815260200191505060206040518083038186803b15801561092a57600080fd5b505afa15801561093e573d6000803e3d6000fd5b505050506040513d602081101561095457600080fd5b505110156109a9576040805162461bcd60e51b815260206004820152601d60248201527f496e73756666696369656e7420636f6e74726163742062616c616e6365000000604482015290519081900360640190fd5b6000807387b2cc033901c512306f011a4cc70461584dccd96001600160a01b0316630902f1ac6040518163ffffffff1660e01b815260040160606040518083038186803b1580156109f957600080fd5b505afa158015610a0d573d6000803e3d6000fd5b505050506040513d6060811015610a2357600080fd5b5080516020909101516004546dffffffffffffffffffffffffffff928316945091169150600090610a56906103e5610dcf565b9050610a6e81610a68846103e8610dcf565b90610e28565b610a8f84610a896103e5600454610dcf90919063ffffffff16565b90610dcf565b81610a9657fe5b6004549190049450610ad390737f9ee0245d3be4bb8f79e9fcafed81d34c8a623d907387b2cc033901c512306f011a4cc70461584dccd990610e82565b604080516000808252602082019283905263022c0d9f60e01b8352602482018781526044830182905261dead60648401819052608060848501908152845160a486018190527387b2cc033901c512306f011a4cc70461584dccd99663022c0d9f968c969590939092909160c48501918083838a5b83811015610b5f578181015183820152602001610b47565b50505050905090810190601f168015610b8c5780820380516001836020036101000a031916815260200191505b5095505050505050600060405180830381600087803b158015610bae57600080fd5b505af1158015610bc2573d6000803e3d6000fd5b5050505050505090565b6000546001600160a01b031690565b60006001610be7610472565b03821115610c32576040805162461bcd60e51b8152602060048201526013602482015272696e646578206f7574206f6620626f756e647360681b604482015290519081900360640190fd5b6103a5600183610ed4565b7387b2cc033901c512306f011a4cc70461584dccd981565b737f9ee0245d3be4bb8f79e9fcafed81d34c8a623d81565b61dead81565b610c7b610d7a565b6000546001600160a01b03908116911614610ccb576040805162461bcd60e51b815260206004820181905260248201526000805160206113ce833981519152604482015290519081900360640190fd5b6001600160a01b038116610d105760405162461bcd60e51b81526004018080602001828103825260268152602001806113616026913960400191505060405180910390fd5b600080546040516001600160a01b03808516939216917f8be0079c531659141344cd1fd0a4f28419497f9722a3daafe3b4186f6b6457e091a3600080546001600160a01b0319166001600160a01b0392909216919091179055565b6003546001600160a01b031681565b3390565b6000610d93836001600160a01b038416610ee0565b9392505050565b60006103a582610fa6565b6000610d93836001600160a01b038416610faa565b6000610d93836001600160a01b038416610ff4565b600082610dde575060006103a5565b82820282848281610deb57fe5b0414610d935760405162461bcd60e51b81526004018080602001828103825260218152602001806113ad6021913960400191505060405180910390fd5b600082820183811015610d93576040805162461bcd60e51b815260206004820152601b60248201527f536166654d6174683a206164646974696f6e206f766572666c6f770000000000604482015290519081900360640190fd5b604080516001600160a01b038416602482015260448082018490528251808303909101815260649091019091526020810180516001600160e01b031663a9059cbb60e01b17905261070590849061100c565b6000610d9383836110bd565b60008181526001830160205260408120548015610f9c5783546000198083019190810190600090879083908110610f1357fe5b9060005260206000200154905080876000018481548110610f3057fe5b600091825260208083209091019290925582815260018981019092526040902090840190558654879080610f6057fe5b600190038181906000526020600020016000905590558660010160008781526020019081526020016000206000905560019450505050506103a5565b60009150506103a5565b5490565b6000610fb68383610ff4565b610fec575081546001818101845560008481526020808220909301849055845484825282860190935260409020919091556103a5565b5060006103a5565b60009081526001919091016020526040902054151590565b6060611061826040518060400160405280602081526020017f5361666545524332303a206c6f772d6c6576656c2063616c6c206661696c6564815250856001600160a01b03166111219092919063ffffffff16565b8051909150156107055780806020019051602081101561108057600080fd5b50516107055760405162461bcd60e51b815260040180806020018281038252602a8152602001806113ee602a913960400191505060405180910390fd5b815460009082106110ff5760405162461bcd60e51b815260040180806020018281038252602281526020018061133f6022913960400191505060405180910390fd5b82600001828154811061110e57fe5b9060005260206000200154905092915050565b60606111308484600085611138565b949350505050565b6060824710156111795760405162461bcd60e51b81526004018080602001828103825260268152602001806113876026913960400191505060405180910390fd5b61118285611294565b6111d3576040805162461bcd60e51b815260206004820152601d60248201527f416464726573733a2063616c6c20746f206e6f6e2d636f6e7472616374000000604482015290519081900360640190fd5b60006060866001600160a01b031685876040518082805190602001908083835b602083106112125780518252601f1990920191602091820191016111f3565b6001836020036101000a03801982511681845116808217855250505050505090500191505060006040518083038185875af1925050503d8060008114611274576040519150601f19603f3d011682016040523d82523d6000602084013e611279565b606091505b509150915061128982828661129a565b979650505050505050565b3b151590565b606083156112a9575081610d93565b8251156112b95782518084602001fd5b8160405162461bcd60e51b81526004018080602001828103825283818151815260200191508051906020019080838360005b838110156113035781810151838201526020016112eb565b50505050905090810190601f1680156113305780820380516001836020036101000a031916815260200191505b509250505060405180910390fdfe456e756d657261626c655365743a20696e646578206f7574206f6620626f756e64734f776e61626c653a206e6577206f776e657220697320746865207a65726f2061646472657373416464726573733a20696e73756666696369656e742062616c616e636520666f722063616c6c536166654d6174683a206d756c7469706c69636174696f6e206f766572666c6f774f776e61626c653a2063616c6c6572206973206e6f7420746865206f776e65725361666545524332303a204552433230206f7065726174696f6e20646964206e6f742073756363656564a2646970667358221220057f31afe027741b04aee602b8153e12277a4df93e95c7d278c23beadf38879c64736f6c634300060c0033",
					"opcodes": "PUSH1 0x80 PUSH1 0x40 MSTORE CALLVALUE DUP1 ISZERO PUSH2 0x10 JUMPI PUSH1 0x0 DUP1 REVERT JUMPDEST POP PUSH1 0x0 PUSH2 0x1B PUSH2 0x6A JUMP JUMPDEST PUSH1 0x0 DUP1 SLOAD PUSH1 0x1 PUSH1 0x1 PUSH1 0xA0 SHL SUB NOT AND PUSH1 0x1 PUSH1 0x1 PUSH1 0xA0 SHL SUB DUP4 AND SWAP1 DUP2 OR DUP3 SSTORE PUSH1 0x40 MLOAD SWAP3 SWAP4 POP SWAP2 PUSH32 0x8BE0079C531659141344CD1FD0A4F28419497F9722A3DAAFE3B4186F6B6457E0 SWAP1 DUP3 SWAP1 LOG3 POP PUSH2 0x6E JUMP JUMPDEST CALLER SWAP1 JUMP JUMPDEST PUSH2 0x144D DUP1 PUSH2 0x7D PUSH1 0x0 CODECOPY PUSH1 0x0 RETURN INVALID PUSH1 0x80 PUSH1 0x40 MSTORE CALLVALUE DUP1 ISZERO PUSH2 0x10 JUMPI PUSH1 0x0 DUP1 REVERT JUMPDEST POP PUSH1 0x4 CALLDATASIZE LT PUSH2 0x116 JUMPI PUSH1 0x0 CALLDATALOAD PUSH1 0xE0 SHR DUP1 PUSH4 0x7AC07DCC GT PUSH2 0xA2 JUMPI DUP1 PUSH4 0xC0A04799 GT PUSH2 0x71 JUMPI DUP1 PUSH4 0xC0A04799 EQ PUSH2 0x287 JUMPI DUP1 PUSH4 0xC54E44EB EQ PUSH2 0x28F JUMPI DUP1 PUSH4 0xD12D9F15 EQ PUSH2 0x297 JUMPI DUP1 PUSH4 0xF2FDE38B EQ PUSH2 0x29F JUMPI DUP1 PUSH4 0xFDDF3F73 EQ PUSH2 0x2C5 JUMPI PUSH2 0x116 JUMP JUMPDEST DUP1 PUSH4 0x7AC07DCC EQ PUSH2 0x234 JUMPI DUP1 PUSH4 0x8119C065 EQ PUSH2 0x25A JUMPI DUP1 PUSH4 0x8DA5CB5B EQ PUSH2 0x262 JUMPI DUP1 PUSH4 0xA8B0B3ED EQ PUSH2 0x26A JUMPI PUSH2 0x116 JUMP JUMPDEST DUP1 PUSH4 0x6717F5B0 GT PUSH2 0xE9 JUMPI DUP1 PUSH4 0x6717F5B0 EQ PUSH2 0x1BB JUMPI DUP1 PUSH4 0x6BED55A6 EQ PUSH2 0x1D8 JUMPI DUP1 PUSH4 0x6FF1C9BC EQ PUSH2 0x1E0 JUMPI DUP1 PUSH4 0x715018A6 EQ PUSH2 0x206 JUMPI DUP1 PUSH4 0x747293FB EQ PUSH2 0x20E JUMPI PUSH2 0x116 JUMP JUMPDEST DUP1 PUSH4 0x7805372 EQ PUSH2 0x11B JUMPI DUP1 PUSH4 0x231A418C EQ PUSH2 0x13F JUMPI DUP1 PUSH4 0x2AA11FFB EQ PUSH2 0x179 JUMPI DUP1 PUSH4 0x42177A58 EQ PUSH2 0x1A1 JUMPI JUMPDEST PUSH1 0x0 DUP1 REVERT JUMPDEST PUSH2 0x123 PUSH2 0x2CD JUMP JUMPDEST PUSH1 0x40 DUP1 MLOAD PUSH1 0x1 PUSH1 0x1 PUSH1 0xA0 SHL SUB SWAP1 SWAP3 AND DUP3 MSTORE MLOAD SWAP1 DUP2 SWAP1 SUB PUSH1 0x20 ADD SWAP1 RETURN JUMPDEST PUSH2 0x165 PUSH1 0x4 DUP1 CALLDATASIZE SUB PUSH1 0x20 DUP2 LT ISZERO PUSH2 0x155 JUMPI PUSH1 0x0 DUP1 REVERT JUMPDEST POP CALLDATALOAD PUSH1 0x1 PUSH1 0x1 PUSH1 0xA0 SHL SUB AND PUSH2 0x2E5 JUMP JUMPDEST PUSH1 0x40 DUP1 MLOAD SWAP2 ISZERO ISZERO DUP3 MSTORE MLOAD SWAP1 DUP2 SWAP1 SUB PUSH1 0x20 ADD SWAP1 RETURN JUMPDEST PUSH2 0x19F PUSH1 0x4 DUP1 CALLDATASIZE SUB PUSH1 0x20 DUP2 LT ISZERO PUSH2 0x18F JUMPI PUSH1 0x0 DUP1 REVERT JUMPDEST POP CALLDATALOAD PUSH1 0x1 PUSH1 0x1 PUSH1 0xA0 SHL SUB AND PUSH2 0x3AB JUMP JUMPDEST STOP JUMPDEST PUSH2 0x1A9 PUSH2 0x472 JUMP JUMPDEST PUSH1 0x40 DUP1 MLOAD SWAP2 DUP3 MSTORE MLOAD SWAP1 DUP2 SWAP1 SUB PUSH1 0x20 ADD SWAP1 RETURN JUMPDEST PUSH2 0x19F PUSH1 0x4 DUP1 CALLDATASIZE SUB PUSH1 0x20 DUP2 LT ISZERO PUSH2 0x1D1 JUMPI PUSH1 0x0 DUP1 REVERT JUMPDEST POP CALLDATALOAD PUSH2 0x483 JUMP JUMPDEST PUSH2 0x1A9 PUSH2 0x4E0 JUMP JUMPDEST PUSH2 0x19F PUSH1 0x4 DUP1 CALLDATASIZE SUB PUSH1 0x20 DUP2 LT ISZERO PUSH2 0x1F6 JUMPI PUSH1 0x0 DUP1 REVERT JUMPDEST POP CALLDATALOAD PUSH1 0x1 PUSH1 0x1 PUSH1 0xA0 SHL SUB AND PUSH2 0x4E6 JUMP JUMPDEST PUSH2 0x19F PUSH2 0x70A JUMP JUMPDEST PUSH2 0x165 PUSH1 0x4 DUP1 CALLDATASIZE SUB PUSH1 0x20 DUP2 LT ISZERO PUSH2 0x224 JUMPI PUSH1 0x0 DUP1 REVERT JUMPDEST POP CALLDATALOAD PUSH1 0x1 PUSH1 0x1 PUSH1 0xA0 SHL SUB AND PUSH2 0x7AC JUMP JUMPDEST PUSH2 0x165 PUSH1 0x4 DUP1 CALLDATASIZE SUB PUSH1 0x20 DUP2 LT ISZERO PUSH2 0x24A JUMPI PUSH1 0x0 DUP1 REVERT JUMPDEST POP CALLDATALOAD PUSH1 0x1 PUSH1 0x1 PUSH1 0xA0 SHL SUB AND PUSH2 0x86C JUMP JUMPDEST PUSH2 0x1A9 PUSH2 0x879 JUMP JUMPDEST PUSH2 0x123 PUSH2 0xBCC JUMP JUMPDEST PUSH2 0x123 PUSH1 0x4 DUP1 CALLDATASIZE SUB PUSH1 0x20 DUP2 LT ISZERO PUSH2 0x280 JUMPI PUSH1 0x0 DUP1 REVERT JUMPDEST POP CALLDATALOAD PUSH2 0xBDB JUMP JUMPDEST PUSH2 0x123 PUSH2 0xC3D JUMP JUMPDEST PUSH2 0x123 PUSH2 0xC55 JUMP JUMPDEST PUSH2 0x123 PUSH2 0xC6D JUMP JUMPDEST PUSH2 0x19F PUSH1 0x4 DUP1 CALLDATASIZE SUB PUSH1 0x20 DUP2 LT ISZERO PUSH2 0x2B5 JUMPI PUSH1 0x0 DUP1 REVERT JUMPDEST POP CALLDATALOAD PUSH1 0x1 PUSH1 0x1 PUSH1 0xA0 SHL SUB AND PUSH2 0xC73 JUMP JUMPDEST PUSH2 0x123 PUSH2 0xD6B JUMP JUMPDEST PUSH20 0xD57285ED72B1DB83F497BDBE95C25738D10A8E6 DUP2 JUMP JUMPDEST PUSH1 0x0 PUSH2 0x2EF PUSH2 0xD7A JUMP JUMPDEST PUSH1 0x0 SLOAD PUSH1 0x1 PUSH1 0x1 PUSH1 0xA0 SHL SUB SWAP1 DUP2 AND SWAP2 AND EQ PUSH2 0x33F JUMPI PUSH1 0x40 DUP1 MLOAD PUSH3 0x461BCD PUSH1 0xE5 SHL DUP2 MSTORE PUSH1 0x20 PUSH1 0x4 DUP3 ADD DUP2 SWAP1 MSTORE PUSH1 0x24 DUP3 ADD MSTORE PUSH1 0x0 DUP1 MLOAD PUSH1 0x20 PUSH2 0x13CE DUP4 CODECOPY DUP2 MLOAD SWAP2 MSTORE PUSH1 0x44 DUP3 ADD MSTORE SWAP1 MLOAD SWAP1 DUP2 SWAP1 SUB PUSH1 0x64 ADD SWAP1 REVERT JUMPDEST PUSH1 0x1 PUSH1 0x1 PUSH1 0xA0 SHL SUB DUP3 AND PUSH2 0x39A JUMPI PUSH1 0x40 DUP1 MLOAD PUSH3 0x461BCD PUSH1 0xE5 SHL DUP2 MSTORE PUSH1 0x20 PUSH1 0x4 DUP3 ADD MSTORE PUSH1 0x1D PUSH1 0x24 DUP3 ADD MSTORE PUSH32 0x44656C43616C6C657220697320746865207A65726F2061646472657373000000 PUSH1 0x44 DUP3 ADD MSTORE SWAP1 MLOAD SWAP1 DUP2 SWAP1 SUB PUSH1 0x64 ADD SWAP1 REVERT JUMPDEST PUSH2 0x3A5 PUSH1 0x1 DUP4 PUSH2 0xD7E JUMP JUMPDEST SWAP3 SWAP2 POP POP JUMP JUMPDEST PUSH2 0x3B3 PUSH2 0xD7A JUMP JUMPDEST PUSH1 0x0 SLOAD PUSH1 0x1 PUSH1 0x1 PUSH1 0xA0 SHL SUB SWAP1 DUP2 AND SWAP2 AND EQ PUSH2 0x403 JUMPI PUSH1 0x40 DUP1 MLOAD PUSH3 0x461BCD PUSH1 0xE5 SHL DUP2 MSTORE PUSH1 0x20 PUSH1 0x4 DUP3 ADD DUP2 SWAP1 MSTORE PUSH1 0x24 DUP3 ADD MSTORE PUSH1 0x0 DUP1 MLOAD PUSH1 0x20 PUSH2 0x13CE DUP4 CODECOPY DUP2 MLOAD SWAP2 MSTORE PUSH1 0x44 DUP3 ADD MSTORE SWAP1 MLOAD SWAP1 DUP2 SWAP1 SUB PUSH1 0x64 ADD SWAP1 REVERT JUMPDEST PUSH1 0x1 PUSH1 0x1 PUSH1 0xA0 SHL SUB DUP2 AND PUSH2 0x450 JUMPI PUSH1 0x40 DUP1 MLOAD PUSH3 0x461BCD PUSH1 0xE5 SHL DUP2 MSTORE PUSH1 0x20 PUSH1 0x4 DUP3 ADD MSTORE PUSH1 0xF PUSH1 0x24 DUP3 ADD MSTORE PUSH15 0x4973207A65726F2061646472657373 PUSH1 0x88 SHL PUSH1 0x44 DUP3 ADD MSTORE SWAP1 MLOAD SWAP1 DUP2 SWAP1 SUB PUSH1 0x64 ADD SWAP1 REVERT JUMPDEST PUSH1 0x3 DUP1 SLOAD PUSH1 0x1 PUSH1 0x1 PUSH1 0xA0 SHL SUB NOT AND PUSH1 0x1 PUSH1 0x1 PUSH1 0xA0 SHL SUB SWAP3 SWAP1 SWAP3 AND SWAP2 SWAP1 SWAP2 OR SWAP1 SSTORE JUMP JUMPDEST PUSH1 0x0 PUSH2 0x47E PUSH1 0x1 PUSH2 0xD9A JUMP JUMPDEST SWAP1 POP SWAP1 JUMP JUMPDEST PUSH2 0x48B PUSH2 0xD7A JUMP JUMPDEST PUSH1 0x0 SLOAD PUSH1 0x1 PUSH1 0x1 PUSH1 0xA0 SHL SUB SWAP1 DUP2 AND SWAP2 AND EQ PUSH2 0x4DB JUMPI PUSH1 0x40 DUP1 MLOAD PUSH3 0x461BCD PUSH1 0xE5 SHL DUP2 MSTORE PUSH1 0x20 PUSH1 0x4 DUP3 ADD DUP2 SWAP1 MSTORE PUSH1 0x24 DUP3 ADD MSTORE PUSH1 0x0 DUP1 MLOAD PUSH1 0x20 PUSH2 0x13CE DUP4 CODECOPY DUP2 MLOAD SWAP2 MSTORE PUSH1 0x44 DUP3 ADD MSTORE SWAP1 MLOAD SWAP1 DUP2 SWAP1 SUB PUSH1 0x64 ADD SWAP1 REVERT JUMPDEST PUSH1 0x4 SSTORE JUMP JUMPDEST PUSH1 0x4 SLOAD DUP2 JUMP JUMPDEST PUSH2 0x4EE PUSH2 0xD7A JUMP JUMPDEST PUSH1 0x0 SLOAD PUSH1 0x1 PUSH1 0x1 PUSH1 0xA0 SHL SUB SWAP1 DUP2 AND SWAP2 AND EQ PUSH2 0x53E JUMPI PUSH1 0x40 DUP1 MLOAD PUSH3 0x461BCD PUSH1 0xE5 SHL DUP2 MSTORE PUSH1 0x20 PUSH1 0x4 DUP3 ADD DUP2 SWAP1 MSTORE PUSH1 0x24 DUP3 ADD MSTORE PUSH1 0x0 DUP1 MLOAD PUSH1 0x20 PUSH2 0x13CE DUP4 CODECOPY DUP2 MLOAD SWAP2 MSTORE PUSH1 0x44 DUP3 ADD MSTORE SWAP1 MLOAD SWAP1 DUP2 SWAP1 SUB PUSH1 0x64 ADD SWAP1 REVERT JUMPDEST PUSH1 0x0 DUP2 PUSH1 0x1 PUSH1 0x1 PUSH1 0xA0 SHL SUB AND PUSH4 0x70A08231 ADDRESS PUSH1 0x40 MLOAD DUP3 PUSH4 0xFFFFFFFF AND PUSH1 0xE0 SHL DUP2 MSTORE PUSH1 0x4 ADD DUP1 DUP3 PUSH1 0x1 PUSH1 0x1 PUSH1 0xA0 SHL SUB AND DUP2 MSTORE PUSH1 0x20 ADD SWAP2 POP POP PUSH1 0x20 PUSH1 0x40 MLOAD DUP1 DUP4 SUB DUP2 DUP7 DUP1 EXTCODESIZE ISZERO DUP1 ISZERO PUSH2 0x58D JUMPI PUSH1 0x0 DUP1 REVERT JUMPDEST POP GAS STATICCALL ISZERO DUP1 ISZERO PUSH2 0x5A1 JUMPI RETURNDATASIZE PUSH1 0x0 DUP1 RETURNDATACOPY RETURNDATASIZE PUSH1 0x0 REVERT JUMPDEST POP POP POP POP PUSH1 0x40 MLOAD RETURNDATASIZE PUSH1 0x20 DUP2 LT ISZERO PUSH2 0x5B7 JUMPI PUSH1 0x0 DUP1 REVERT JUMPDEST POP MLOAD GT PUSH2 0x60B JUMPI PUSH1 0x40 DUP1 MLOAD PUSH3 0x461BCD PUSH1 0xE5 SHL DUP2 MSTORE PUSH1 0x20 PUSH1 0x4 DUP3 ADD MSTORE PUSH1 0x1D PUSH1 0x24 DUP3 ADD MSTORE PUSH32 0x496E73756666696369656E7420636F6E74726163742062616C616E6365000000 PUSH1 0x44 DUP3 ADD MSTORE SWAP1 MLOAD SWAP1 DUP2 SWAP1 SUB PUSH1 0x64 ADD SWAP1 REVERT JUMPDEST PUSH1 0x3 SLOAD PUSH1 0x40 DUP1 MLOAD PUSH4 0x70A08231 PUSH1 0xE0 SHL DUP2 MSTORE ADDRESS PUSH1 0x4 DUP3 ADD MSTORE SWAP1 MLOAD PUSH1 0x1 PUSH1 0x1 PUSH1 0xA0 SHL SUB DUP1 DUP6 AND SWAP4 PUSH4 0xA9059CBB SWAP4 SWAP2 AND SWAP2 DUP5 SWAP2 PUSH4 0x70A08231 SWAP2 PUSH1 0x24 DUP1 DUP4 ADD SWAP3 PUSH1 0x20 SWAP3 SWAP2 SWAP1 DUP3 SWAP1 SUB ADD DUP2 DUP7 DUP1 EXTCODESIZE ISZERO DUP1 ISZERO PUSH2 0x660 JUMPI PUSH1 0x0 DUP1 REVERT JUMPDEST POP GAS STATICCALL ISZERO DUP1 ISZERO PUSH2 0x674 JUMPI RETURNDATASIZE PUSH1 0x0 DUP1 RETURNDATACOPY RETURNDATASIZE PUSH1 0x0 REVERT JUMPDEST POP POP POP POP PUSH1 0x40 MLOAD RETURNDATASIZE PUSH1 0x20 DUP2 LT ISZERO PUSH2 0x68A JUMPI PUSH1 0x0 DUP1 REVERT JUMPDEST POP MLOAD PUSH1 0x40 DUP1 MLOAD PUSH1 0x1 PUSH1 0x1 PUSH1 0xE0 SHL SUB NOT PUSH1 0xE0 DUP7 SWAP1 SHL AND DUP2 MSTORE PUSH1 0x1 PUSH1 0x1 PUSH1 0xA0 SHL SUB SWAP1 SWAP4 AND PUSH1 0x4 DUP5 ADD MSTORE PUSH1 0x24 DUP4 ADD SWAP2 SWAP1 SWAP2 MSTORE MLOAD PUSH1 0x44 DUP1 DUP4 ADD SWAP3 PUSH1 0x20 SWAP3 SWAP2 SWAP1 DUP3 SWAP1 SUB ADD DUP2 PUSH1 0x0 DUP8 DUP1 EXTCODESIZE ISZERO DUP1 ISZERO PUSH2 0x6DB JUMPI PUSH1 0x0 DUP1 REVERT JUMPDEST POP GAS CALL ISZERO DUP1 ISZERO PUSH2 0x6EF JUMPI RETURNDATASIZE PUSH1 0x0 DUP1 RETURNDATACOPY RETURNDATASIZE PUSH1 0x0 REVERT JUMPDEST POP POP POP POP PUSH1 0x40 MLOAD RETURNDATASIZE PUSH1 0x20 DUP2 LT ISZERO PUSH2 0x705 JUMPI PUSH1 0x0 DUP1 REVERT JUMPDEST POP POP POP JUMP JUMPDEST PUSH2 0x712 PUSH2 0xD7A JUMP JUMPDEST PUSH1 0x0 SLOAD PUSH1 0x1 PUSH1 0x1 PUSH1 0xA0 SHL SUB SWAP1 DUP2 AND SWAP2 AND EQ PUSH2 0x762 JUMPI PUSH1 0x40 DUP1 MLOAD PUSH3 0x461BCD PUSH1 0xE5 SHL DUP2 MSTORE PUSH1 0x20 PUSH1 0x4 DUP3 ADD DUP2 SWAP1 MSTORE PUSH1 0x24 DUP3 ADD MSTORE PUSH1 0x0 DUP1 MLOAD PUSH1 0x20 PUSH2 0x13CE DUP4 CODECOPY DUP2 MLOAD SWAP2 MSTORE PUSH1 0x44 DUP3 ADD MSTORE SWAP1 MLOAD SWAP1 DUP2 SWAP1 SUB PUSH1 0x64 ADD SWAP1 REVERT JUMPDEST PUSH1 0x0 DUP1 SLOAD PUSH1 0x40 MLOAD PUSH1 0x1 PUSH1 0x1 PUSH1 0xA0 SHL SUB SWAP1 SWAP2 AND SWAP1 PUSH32 0x8BE0079C531659141344CD1FD0A4F28419497F9722A3DAAFE3B4186F6B6457E0 SWAP1 DUP4 SWAP1 LOG3 PUSH1 0x0 DUP1 SLOAD PUSH1 0x1 PUSH1 0x1 PUSH1 0xA0 SHL SUB NOT AND SWAP1 SSTORE JUMP JUMPDEST PUSH1 0x0 PUSH2 0x7B6 PUSH2 0xD7A JUMP JUMPDEST PUSH1 0x0 SLOAD PUSH1 0x1 PUSH1 0x1 PUSH1 0xA0 SHL SUB SWAP1 DUP2 AND SWAP2 AND EQ PUSH2 0x806 JUMPI PUSH1 0x40 DUP1 MLOAD PUSH3 0x461BCD PUSH1 0xE5 SHL DUP2 MSTORE PUSH1 0x20 PUSH1 0x4 DUP3 ADD DUP2 SWAP1 MSTORE PUSH1 0x24 DUP3 ADD MSTORE PUSH1 0x0 DUP1 MLOAD PUSH1 0x20 PUSH2 0x13CE DUP4 CODECOPY DUP2 MLOAD SWAP2 MSTORE PUSH1 0x44 DUP3 ADD MSTORE SWAP1 MLOAD SWAP1 DUP2 SWAP1 SUB PUSH1 0x64 ADD SWAP1 REVERT JUMPDEST PUSH1 0x1 PUSH1 0x1 PUSH1 0xA0 SHL SUB DUP3 AND PUSH2 0x861 JUMPI PUSH1 0x40 DUP1 MLOAD PUSH3 0x461BCD PUSH1 0xE5 SHL DUP2 MSTORE PUSH1 0x20 PUSH1 0x4 DUP3 ADD MSTORE PUSH1 0x1D PUSH1 0x24 DUP3 ADD MSTORE PUSH32 0x4E657743616C6C657220697320746865207A65726F2061646472657373000000 PUSH1 0x44 DUP3 ADD MSTORE SWAP1 MLOAD SWAP1 DUP2 SWAP1 SUB PUSH1 0x64 ADD SWAP1 REVERT JUMPDEST PUSH2 0x3A5 PUSH1 0x1 DUP4 PUSH2 0xDA5 JUMP JUMPDEST PUSH1 0x0 PUSH2 0x3A5 PUSH1 0x1 DUP4 PUSH2 0xDBA JUMP JUMPDEST PUSH1 0x0 PUSH2 0x884 CALLER PUSH2 0x86C JUMP JUMPDEST PUSH2 0x8C6 JUMPI PUSH1 0x40 DUP1 MLOAD PUSH3 0x461BCD PUSH1 0xE5 SHL DUP2 MSTORE PUSH1 0x20 PUSH1 0x4 DUP3 ADD MSTORE PUSH1 0xE PUSH1 0x24 DUP3 ADD MSTORE PUSH14 0x2737BA103A34329031B0B63632B9 PUSH1 0x91 SHL PUSH1 0x44 DUP3 ADD MSTORE SWAP1 MLOAD SWAP1 DUP2 SWAP1 SUB PUSH1 0x64 ADD SWAP1 REVERT JUMPDEST PUSH1 0x4 SLOAD PUSH20 0x7F9EE0245D3BE4BB8F79E9FCAFED81D34C8A623D PUSH1 0x1 PUSH1 0x1 PUSH1 0xA0 SHL SUB AND PUSH4 0x70A08231 ADDRESS PUSH1 0x40 MLOAD DUP3 PUSH4 0xFFFFFFFF AND PUSH1 0xE0 SHL DUP2 MSTORE PUSH1 0x4 ADD DUP1 DUP3 PUSH1 0x1 PUSH1 0x1 PUSH1 0xA0 SHL SUB AND DUP2 MSTORE PUSH1 0x20 ADD SWAP2 POP POP PUSH1 0x20 PUSH1 0x40 MLOAD DUP1 DUP4 SUB DUP2 DUP7 DUP1 EXTCODESIZE ISZERO DUP1 ISZERO PUSH2 0x92A JUMPI PUSH1 0x0 DUP1 REVERT JUMPDEST POP GAS STATICCALL ISZERO DUP1 ISZERO PUSH2 0x93E JUMPI RETURNDATASIZE PUSH1 0x0 DUP1 RETURNDATACOPY RETURNDATASIZE PUSH1 0x0 REVERT JUMPDEST POP POP POP POP PUSH1 0x40 MLOAD RETURNDATASIZE PUSH1 0x20 DUP2 LT ISZERO PUSH2 0x954 JUMPI PUSH1 0x0 DUP1 REVERT JUMPDEST POP MLOAD LT ISZERO PUSH2 0x9A9 JUMPI PUSH1 0x40 DUP1 MLOAD PUSH3 0x461BCD PUSH1 0xE5 SHL DUP2 MSTORE PUSH1 0x20 PUSH1 0x4 DUP3 ADD MSTORE PUSH1 0x1D PUSH1 0x24 DUP3 ADD MSTORE PUSH32 0x496E73756666696369656E7420636F6E74726163742062616C616E6365000000 PUSH1 0x44 DUP3 ADD MSTORE SWAP1 MLOAD SWAP1 DUP2 SWAP1 SUB PUSH1 0x64 ADD SWAP1 REVERT JUMPDEST PUSH1 0x0 DUP1 PUSH20 0x87B2CC033901C512306F011A4CC70461584DCCD9 PUSH1 0x1 PUSH1 0x1 PUSH1 0xA0 SHL SUB AND PUSH4 0x902F1AC PUSH1 0x40 MLOAD DUP2 PUSH4 0xFFFFFFFF AND PUSH1 0xE0 SHL DUP2 MSTORE PUSH1 0x4 ADD PUSH1 0x60 PUSH1 0x40 MLOAD DUP1 DUP4 SUB DUP2 DUP7 DUP1 EXTCODESIZE ISZERO DUP1 ISZERO PUSH2 0x9F9 JUMPI PUSH1 0x0 DUP1 REVERT JUMPDEST POP GAS STATICCALL ISZERO DUP1 ISZERO PUSH2 0xA0D JUMPI RETURNDATASIZE PUSH1 0x0 DUP1 RETURNDATACOPY RETURNDATASIZE PUSH1 0x0 REVERT JUMPDEST POP POP POP POP PUSH1 0x40 MLOAD RETURNDATASIZE PUSH1 0x60 DUP2 LT ISZERO PUSH2 0xA23 JUMPI PUSH1 0x0 DUP1 REVERT JUMPDEST POP DUP1 MLOAD PUSH1 0x20 SWAP1 SWAP2 ADD MLOAD PUSH1 0x4 SLOAD PUSH14 0xFFFFFFFFFFFFFFFFFFFFFFFFFFFF SWAP3 DUP4 AND SWAP5 POP SWAP2 AND SWAP2 POP PUSH1 0x0 SWAP1 PUSH2 0xA56 SWAP1 PUSH2 0x3E5 PUSH2 0xDCF JUMP JUMPDEST SWAP1 POP PUSH2 0xA6E DUP2 PUSH2 0xA68 DUP5 PUSH2 0x3E8 PUSH2 0xDCF JUMP JUMPDEST SWAP1 PUSH2 0xE28 JUMP JUMPDEST PUSH2 0xA8F DUP5 PUSH2 0xA89 PUSH2 0x3E5 PUSH1 0x4 SLOAD PUSH2 0xDCF SWAP1 SWAP2 SWAP1 PUSH4 0xFFFFFFFF AND JUMP JUMPDEST SWAP1 PUSH2 0xDCF JUMP JUMPDEST DUP2 PUSH2 0xA96 JUMPI INVALID JUMPDEST PUSH1 0x4 SLOAD SWAP2 SWAP1 DIV SWAP5 POP PUSH2 0xAD3 SWAP1 PUSH20 0x7F9EE0245D3BE4BB8F79E9FCAFED81D34C8A623D SWAP1 PUSH20 0x87B2CC033901C512306F011A4CC70461584DCCD9 SWAP1 PUSH2 0xE82 JUMP JUMPDEST PUSH1 0x40 DUP1 MLOAD PUSH1 0x0 DUP1 DUP3 MSTORE PUSH1 0x20 DUP3 ADD SWAP3 DUP4 SWAP1 MSTORE PUSH4 0x22C0D9F PUSH1 0xE0 SHL DUP4 MSTORE PUSH1 0x24 DUP3 ADD DUP8 DUP2 MSTORE PUSH1 0x44 DUP4 ADD DUP3 SWAP1 MSTORE PUSH2 0xDEAD PUSH1 0x64 DUP5 ADD DUP2 SWAP1 MSTORE PUSH1 0x80 PUSH1 0x84 DUP6 ADD SWAP1 DUP2 MSTORE DUP5 MLOAD PUSH1 0xA4 DUP7 ADD DUP2 SWAP1 MSTORE PUSH20 0x87B2CC033901C512306F011A4CC70461584DCCD9 SWAP7 PUSH4 0x22C0D9F SWAP7 DUP13 SWAP7 SWAP6 SWAP1 SWAP4 SWAP1 SWAP3 SWAP1 SWAP2 PUSH1 0xC4 DUP6 ADD SWAP2 DUP1 DUP4 DUP4 DUP11 JUMPDEST DUP4 DUP2 LT ISZERO PUSH2 0xB5F JUMPI DUP2 DUP2 ADD MLOAD DUP4 DUP3 ADD MSTORE PUSH1 0x20 ADD PUSH2 0xB47 JUMP JUMPDEST POP POP POP POP SWAP1 POP SWAP1 DUP2 ADD SWAP1 PUSH1 0x1F AND DUP1 ISZERO PUSH2 0xB8C JUMPI DUP1 DUP3 SUB DUP1 MLOAD PUSH1 0x1 DUP4 PUSH1 0x20 SUB PUSH2 0x100 EXP SUB NOT AND DUP2 MSTORE PUSH1 0x20 ADD SWAP2 POP JUMPDEST POP SWAP6 POP POP POP POP POP POP PUSH1 0x0 PUSH1 0x40 MLOAD DUP1 DUP4 SUB DUP2 PUSH1 0x0 DUP8 DUP1 EXTCODESIZE ISZERO DUP1 ISZERO PUSH2 0xBAE JUMPI PUSH1 0x0 DUP1 REVERT JUMPDEST POP GAS CALL ISZERO DUP1 ISZERO PUSH2 0xBC2 JUMPI RETURNDATASIZE PUSH1 0x0 DUP1 RETURNDATACOPY RETURNDATASIZE PUSH1 0x0 REVERT JUMPDEST POP POP POP POP POP POP POP SWAP1 JUMP JUMPDEST PUSH1 0x0 SLOAD PUSH1 0x1 PUSH1 0x1 PUSH1 0xA0 SHL SUB AND SWAP1 JUMP JUMPDEST PUSH1 0x0 PUSH1 0x1 PUSH2 0xBE7 PUSH2 0x472 JUMP JUMPDEST SUB DUP3 GT ISZERO PUSH2 0xC32 JUMPI PUSH1 0x40 DUP1 MLOAD PUSH3 0x461BCD PUSH1 0xE5 SHL DUP2 MSTORE PUSH1 0x20 PUSH1 0x4 DUP3 ADD MSTORE PUSH1 0x13 PUSH1 0x24 DUP3 ADD MSTORE PUSH19 0x696E646578206F7574206F6620626F756E6473 PUSH1 0x68 SHL PUSH1 0x44 DUP3 ADD MSTORE SWAP1 MLOAD SWAP1 DUP2 SWAP1 SUB PUSH1 0x64 ADD SWAP1 REVERT JUMPDEST PUSH2 0x3A5 PUSH1 0x1 DUP4 PUSH2 0xED4 JUMP JUMPDEST PUSH20 0x87B2CC033901C512306F011A4CC70461584DCCD9 DUP2 JUMP JUMPDEST PUSH20 0x7F9EE0245D3BE4BB8F79E9FCAFED81D34C8A623D DUP2 JUMP JUMPDEST PUSH2 0xDEAD DUP2 JUMP JUMPDEST PUSH2 0xC7B PUSH2 0xD7A JUMP JUMPDEST PUSH1 0x0 SLOAD PUSH1 0x1 PUSH1 0x1 PUSH1 0xA0 SHL SUB SWAP1 DUP2 AND SWAP2 AND EQ PUSH2 0xCCB JUMPI PUSH1 0x40 DUP1 MLOAD PUSH3 0x461BCD PUSH1 0xE5 SHL DUP2 MSTORE PUSH1 0x20 PUSH1 0x4 DUP3 ADD DUP2 SWAP1 MSTORE PUSH1 0x24 DUP3 ADD MSTORE PUSH1 0x0 DUP1 MLOAD PUSH1 0x20 PUSH2 0x13CE DUP4 CODECOPY DUP2 MLOAD SWAP2 MSTORE PUSH1 0x44 DUP3 ADD MSTORE SWAP1 MLOAD SWAP1 DUP2 SWAP1 SUB PUSH1 0x64 ADD SWAP1 REVERT JUMPDEST PUSH1 0x1 PUSH1 0x1 PUSH1 0xA0 SHL SUB DUP2 AND PUSH2 0xD10 JUMPI PUSH1 0x40 MLOAD PUSH3 0x461BCD PUSH1 0xE5 SHL DUP2 MSTORE PUSH1 0x4 ADD DUP1 DUP1 PUSH1 0x20 ADD DUP3 DUP2 SUB DUP3 MSTORE PUSH1 0x26 DUP2 MSTORE PUSH1 0x20 ADD DUP1 PUSH2 0x1361 PUSH1 0x26 SWAP2 CODECOPY PUSH1 0x40 ADD SWAP2 POP POP PUSH1 0x40 MLOAD DUP1 SWAP2 SUB SWAP1 REVERT JUMPDEST PUSH1 0x0 DUP1 SLOAD PUSH1 0x40 MLOAD PUSH1 0x1 PUSH1 0x1 PUSH1 0xA0 SHL SUB DUP1 DUP6 AND SWAP4 SWAP3 AND SWAP2 PUSH32 0x8BE0079C531659141344CD1FD0A4F28419497F9722A3DAAFE3B4186F6B6457E0 SWAP2 LOG3 PUSH1 0x0 DUP1 SLOAD PUSH1 0x1 PUSH1 0x1 PUSH1 0xA0 SHL SUB NOT AND PUSH1 0x1 PUSH1 0x1 PUSH1 0xA0 SHL SUB SWAP3 SWAP1 SWAP3 AND SWAP2 SWAP1 SWAP2 OR SWAP1 SSTORE JUMP JUMPDEST PUSH1 0x3 SLOAD PUSH1 0x1 PUSH1 0x1 PUSH1 0xA0 SHL SUB AND DUP2 JUMP JUMPDEST CALLER SWAP1 JUMP JUMPDEST PUSH1 0x0 PUSH2 0xD93 DUP4 PUSH1 0x1 PUSH1 0x1 PUSH1 0xA0 SHL SUB DUP5 AND PUSH2 0xEE0 JUMP JUMPDEST SWAP4 SWAP3 POP POP POP JUMP JUMPDEST PUSH1 0x0 PUSH2 0x3A5 DUP3 PUSH2 0xFA6 JUMP JUMPDEST PUSH1 0x0 PUSH2 0xD93 DUP4 PUSH1 0x1 PUSH1 0x1 PUSH1 0xA0 SHL SUB DUP5 AND PUSH2 0xFAA JUMP JUMPDEST PUSH1 0x0 PUSH2 0xD93 DUP4 PUSH1 0x1 PUSH1 0x1 PUSH1 0xA0 SHL SUB DUP5 AND PUSH2 0xFF4 JUMP JUMPDEST PUSH1 0x0 DUP3 PUSH2 0xDDE JUMPI POP PUSH1 0x0 PUSH2 0x3A5 JUMP JUMPDEST DUP3 DUP3 MUL DUP3 DUP5 DUP3 DUP2 PUSH2 0xDEB JUMPI INVALID JUMPDEST DIV EQ PUSH2 0xD93 JUMPI PUSH1 0x40 MLOAD PUSH3 0x461BCD PUSH1 0xE5 SHL DUP2 MSTORE PUSH1 0x4 ADD DUP1 DUP1 PUSH1 0x20 ADD DUP3 DUP2 SUB DUP3 MSTORE PUSH1 0x21 DUP2 MSTORE PUSH1 0x20 ADD DUP1 PUSH2 0x13AD PUSH1 0x21 SWAP2 CODECOPY PUSH1 0x40 ADD SWAP2 POP POP PUSH1 0x40 MLOAD DUP1 SWAP2 SUB SWAP1 REVERT JUMPDEST PUSH1 0x0 DUP3 DUP3 ADD DUP4 DUP2 LT ISZERO PUSH2 0xD93 JUMPI PUSH1 0x40 DUP1 MLOAD PUSH3 0x461BCD PUSH1 0xE5 SHL DUP2 MSTORE PUSH1 0x20 PUSH1 0x4 DUP3 ADD MSTORE PUSH1 0x1B PUSH1 0x24 DUP3 ADD MSTORE PUSH32 0x536166654D6174683A206164646974696F6E206F766572666C6F770000000000 PUSH1 0x44 DUP3 ADD MSTORE SWAP1 MLOAD SWAP1 DUP2 SWAP1 SUB PUSH1 0x64 ADD SWAP1 REVERT JUMPDEST PUSH1 0x40 DUP1 MLOAD PUSH1 0x1 PUSH1 0x1 PUSH1 0xA0 SHL SUB DUP5 AND PUSH1 0x24 DUP3 ADD MSTORE PUSH1 0x44 DUP1 DUP3 ADD DUP5 SWAP1 MSTORE DUP3 MLOAD DUP1 DUP4 SUB SWAP1 SWAP2 ADD DUP2 MSTORE PUSH1 0x64 SWAP1 SWAP2 ADD SWAP1 SWAP2 MSTORE PUSH1 0x20 DUP2 ADD DUP1 MLOAD PUSH1 0x1 PUSH1 0x1 PUSH1 0xE0 SHL SUB AND PUSH4 0xA9059CBB PUSH1 0xE0 SHL OR SWAP1 MSTORE PUSH2 0x705 SWAP1 DUP5 SWAP1 PUSH2 0x100C JUMP JUMPDEST PUSH1 0x0 PUSH2 0xD93 DUP4 DUP4 PUSH2 0x10BD JUMP JUMPDEST PUSH1 0x0 DUP2 DUP2 MSTORE PUSH1 0x1 DUP4 ADD PUSH1 0x20 MSTORE PUSH1 0x40 DUP2 KECCAK256 SLOAD DUP1 ISZERO PUSH2 0xF9C JUMPI DUP4 SLOAD PUSH1 0x0 NOT DUP1 DUP4 ADD SWAP2 SWAP1 DUP2 ADD SWAP1 PUSH1 0x0 SWAP1 DUP8 SWAP1 DUP4 SWAP1 DUP2 LT PUSH2 0xF13 JUMPI INVALID JUMPDEST SWAP1 PUSH1 0x0 MSTORE PUSH1 0x20 PUSH1 0x0 KECCAK256 ADD SLOAD SWAP1 POP DUP1 DUP8 PUSH1 0x0 ADD DUP5 DUP2 SLOAD DUP2 LT PUSH2 0xF30 JUMPI INVALID JUMPDEST PUSH1 0x0 SWAP2 DUP3 MSTORE PUSH1 0x20 DUP1 DUP4 KECCAK256 SWAP1 SWAP2 ADD SWAP3 SWAP1 SWAP3 SSTORE DUP3 DUP2 MSTORE PUSH1 0x1 DUP10 DUP2 ADD SWAP1 SWAP3 MSTORE PUSH1 0x40 SWAP1 KECCAK256 SWAP1 DUP5 ADD SWAP1 SSTORE DUP7 SLOAD DUP8 SWAP1 DUP1 PUSH2 0xF60 JUMPI INVALID JUMPDEST PUSH1 0x1 SWAP1 SUB DUP2 DUP2 SWAP1 PUSH1 0x0 MSTORE PUSH1 0x20 PUSH1 0x0 KECCAK256 ADD PUSH1 0x0 SWAP1 SSTORE SWAP1 SSTORE DUP7 PUSH1 0x1 ADD PUSH1 0x0 DUP8 DUP2 MSTORE PUSH1 0x20 ADD SWAP1 DUP2 MSTORE PUSH1 0x20 ADD PUSH1 0x0 KECCAK256 PUSH1 0x0 SWAP1 SSTORE PUSH1 0x1 SWAP5 POP POP POP POP POP PUSH2 0x3A5 JUMP JUMPDEST PUSH1 0x0 SWAP2 POP POP PUSH2 0x3A5 JUMP JUMPDEST SLOAD SWAP1 JUMP JUMPDEST PUSH1 0x0 PUSH2 0xFB6 DUP4 DUP4 PUSH2 0xFF4 JUMP JUMPDEST PUSH2 0xFEC JUMPI POP DUP2 SLOAD PUSH1 0x1 DUP2 DUP2 ADD DUP5 SSTORE PUSH1 0x0 DUP5 DUP2 MSTORE PUSH1 0x20 DUP1 DUP3 KECCAK256 SWAP1 SWAP4 ADD DUP5 SWAP1 SSTORE DUP5 SLOAD DUP5 DUP3 MSTORE DUP3 DUP7 ADD SWAP1 SWAP4 MSTORE PUSH1 0x40 SWAP1 KECCAK256 SWAP2 SWAP1 SWAP2 SSTORE PUSH2 0x3A5 JUMP JUMPDEST POP PUSH1 0x0 PUSH2 0x3A5 JUMP JUMPDEST PUSH1 0x0 SWAP1 DUP2 MSTORE PUSH1 0x1 SWAP2 SWAP1 SWAP2 ADD PUSH1 0x20 MSTORE PUSH1 0x40 SWAP1 KECCAK256 SLOAD ISZERO ISZERO SWAP1 JUMP JUMPDEST PUSH1 0x60 PUSH2 0x1061 DUP3 PUSH1 0x40 MLOAD DUP1 PUSH1 0x40 ADD PUSH1 0x40 MSTORE DUP1 PUSH1 0x20 DUP2 MSTORE PUSH1 0x20 ADD PUSH32 0x5361666545524332303A206C6F772D6C6576656C2063616C6C206661696C6564 DUP2 MSTORE POP DUP6 PUSH1 0x1 PUSH1 0x1 PUSH1 0xA0 SHL SUB AND PUSH2 0x1121 SWAP1 SWAP3 SWAP2 SWAP1 PUSH4 0xFFFFFFFF AND JUMP JUMPDEST DUP1 MLOAD SWAP1 SWAP2 POP ISZERO PUSH2 0x705 JUMPI DUP1 DUP1 PUSH1 0x20 ADD SWAP1 MLOAD PUSH1 0x20 DUP2 LT ISZERO PUSH2 0x1080 JUMPI PUSH1 0x0 DUP1 REVERT JUMPDEST POP MLOAD PUSH2 0x705 JUMPI PUSH1 0x40 MLOAD PUSH3 0x461BCD PUSH1 0xE5 SHL DUP2 MSTORE PUSH1 0x4 ADD DUP1 DUP1 PUSH1 0x20 ADD DUP3 DUP2 SUB DUP3 MSTORE PUSH1 0x2A DUP2 MSTORE PUSH1 0x20 ADD DUP1 PUSH2 0x13EE PUSH1 0x2A SWAP2 CODECOPY PUSH1 0x40 ADD SWAP2 POP POP PUSH1 0x40 MLOAD DUP1 SWAP2 SUB SWAP1 REVERT JUMPDEST DUP2 SLOAD PUSH1 0x0 SWAP1 DUP3 LT PUSH2 0x10FF JUMPI PUSH1 0x40 MLOAD PUSH3 0x461BCD PUSH1 0xE5 SHL DUP2 MSTORE PUSH1 0x4 ADD DUP1 DUP1 PUSH1 0x20 ADD DUP3 DUP2 SUB DUP3 MSTORE PUSH1 0x22 DUP2 MSTORE PUSH1 0x20 ADD DUP1 PUSH2 0x133F PUSH1 0x22 SWAP2 CODECOPY PUSH1 0x40 ADD SWAP2 POP POP PUSH1 0x40 MLOAD DUP1 SWAP2 SUB SWAP1 REVERT JUMPDEST DUP3 PUSH1 0x0 ADD DUP3 DUP2 SLOAD DUP2 LT PUSH2 0x110E JUMPI INVALID JUMPDEST SWAP1 PUSH1 0x0 MSTORE PUSH1 0x20 PUSH1 0x0 KECCAK256 ADD SLOAD SWAP1 POP SWAP3 SWAP2 POP POP JUMP JUMPDEST PUSH1 0x60 PUSH2 0x1130 DUP5 DUP5 PUSH1 0x0 DUP6 PUSH2 0x1138 JUMP JUMPDEST SWAP5 SWAP4 POP POP POP POP JUMP JUMPDEST PUSH1 0x60 DUP3 SELFBALANCE LT ISZERO PUSH2 0x1179 JUMPI PUSH1 0x40 MLOAD PUSH3 0x461BCD PUSH1 0xE5 SHL DUP2 MSTORE PUSH1 0x4 ADD DUP1 DUP1 PUSH1 0x20 ADD DUP3 DUP2 SUB DUP3 MSTORE PUSH1 0x26 DUP2 MSTORE PUSH1 0x20 ADD DUP1 PUSH2 0x1387 PUSH1 0x26 SWAP2 CODECOPY PUSH1 0x40 ADD SWAP2 POP POP PUSH1 0x40 MLOAD DUP1 SWAP2 SUB SWAP1 REVERT JUMPDEST PUSH2 0x1182 DUP6 PUSH2 0x1294 JUMP JUMPDEST PUSH2 0x11D3 JUMPI PUSH1 0x40 DUP1 MLOAD PUSH3 0x461BCD PUSH1 0xE5 SHL DUP2 MSTORE PUSH1 0x20 PUSH1 0x4 DUP3 ADD MSTORE PUSH1 0x1D PUSH1 0x24 DUP3 ADD MSTORE PUSH32 0x416464726573733A2063616C6C20746F206E6F6E2D636F6E7472616374000000 PUSH1 0x44 DUP3 ADD MSTORE SWAP1 MLOAD SWAP1 DUP2 SWAP1 SUB PUSH1 0x64 ADD SWAP1 REVERT JUMPDEST PUSH1 0x0 PUSH1 0x60 DUP7 PUSH1 0x1 PUSH1 0x1 PUSH1 0xA0 SHL SUB AND DUP6 DUP8 PUSH1 0x40 MLOAD DUP1 DUP3 DUP1 MLOAD SWAP1 PUSH1 0x20 ADD SWAP1 DUP1 DUP4 DUP4 JUMPDEST PUSH1 0x20 DUP4 LT PUSH2 0x1212 JUMPI DUP1 MLOAD DUP3 MSTORE PUSH1 0x1F NOT SWAP1 SWAP3 ADD SWAP2 PUSH1 0x20 SWAP2 DUP3 ADD SWAP2 ADD PUSH2 0x11F3 JUMP JUMPDEST PUSH1 0x1 DUP4 PUSH1 0x20 SUB PUSH2 0x100 EXP SUB DUP1 NOT DUP3 MLOAD AND DUP2 DUP5 MLOAD AND DUP1 DUP3 OR DUP6 MSTORE POP POP POP POP POP POP SWAP1 POP ADD SWAP2 POP POP PUSH1 0x0 PUSH1 0x40 MLOAD DUP1 DUP4 SUB DUP2 DUP6 DUP8 GAS CALL SWAP3 POP POP POP RETURNDATASIZE DUP1 PUSH1 0x0 DUP2 EQ PUSH2 0x1274 JUMPI PUSH1 0x40 MLOAD SWAP2 POP PUSH1 0x1F NOT PUSH1 0x3F RETURNDATASIZE ADD AND DUP3 ADD PUSH1 0x40 MSTORE RETURNDATASIZE DUP3 MSTORE RETURNDATASIZE PUSH1 0x0 PUSH1 0x20 DUP5 ADD RETURNDATACOPY PUSH2 0x1279 JUMP JUMPDEST PUSH1 0x60 SWAP2 POP JUMPDEST POP SWAP2 POP SWAP2 POP PUSH2 0x1289 DUP3 DUP3 DUP7 PUSH2 0x129A JUMP JUMPDEST SWAP8 SWAP7 POP POP POP POP POP POP POP JUMP JUMPDEST EXTCODESIZE ISZERO ISZERO SWAP1 JUMP JUMPDEST PUSH1 0x60 DUP4 ISZERO PUSH2 0x12A9 JUMPI POP DUP2 PUSH2 0xD93 JUMP JUMPDEST DUP3 MLOAD ISZERO PUSH2 0x12B9 JUMPI DUP3 MLOAD DUP1 DUP5 PUSH1 0x20 ADD REVERT JUMPDEST DUP2 PUSH1 0x40 MLOAD PUSH3 0x461BCD PUSH1 0xE5 SHL DUP2 MSTORE PUSH1 0x4 ADD DUP1 DUP1 PUSH1 0x20 ADD DUP3 DUP2 SUB DUP3 MSTORE DUP4 DUP2 DUP2 MLOAD DUP2 MSTORE PUSH1 0x20 ADD SWAP2 POP DUP1 MLOAD SWAP1 PUSH1 0x20 ADD SWAP1 DUP1 DUP4 DUP4 PUSH1 0x0 JUMPDEST DUP4 DUP2 LT ISZERO PUSH2 0x1303 JUMPI DUP2 DUP2 ADD MLOAD DUP4 DUP3 ADD MSTORE PUSH1 0x20 ADD PUSH2 0x12EB JUMP JUMPDEST POP POP POP POP SWAP1 POP SWAP1 DUP2 ADD SWAP1 PUSH1 0x1F AND DUP1 ISZERO PUSH2 0x1330 JUMPI DUP1 DUP3 SUB DUP1 MLOAD PUSH1 0x1 DUP4 PUSH1 0x20 SUB PUSH2 0x100 EXP SUB NOT AND DUP2 MSTORE PUSH1 0x20 ADD SWAP2 POP JUMPDEST POP SWAP3 POP POP POP PUSH1 0x40 MLOAD DUP1 SWAP2 SUB SWAP1 REVERT INVALID GASLIMIT PUSH15 0x756D657261626C655365743A20696E PUSH5 0x6578206F75 PUSH21 0x206F6620626F756E64734F776E61626C653A206E65 PUSH24 0x206F776E657220697320746865207A65726F206164647265 PUSH20 0x73416464726573733A20696E7375666669636965 PUSH15 0x742062616C616E636520666F722063 PUSH2 0x6C6C MSTORE8 PUSH2 0x6665 0x4D PUSH2 0x7468 GASPRICE KECCAK256 PUSH14 0x756C7469706C69636174696F6E20 PUSH16 0x766572666C6F774F776E61626C653A20 PUSH4 0x616C6C65 PUSH19 0x206973206E6F7420746865206F776E65725361 PUSH7 0x6545524332303A KECCAK256 GASLIMIT MSTORE NUMBER ORIGIN ADDRESS KECCAK256 PUSH16 0x7065726174696F6E20646964206E6F74 KECCAK256 PUSH20 0x756363656564A2646970667358221220057F31AF 0xE0 0x27 PUSH21 0x1B04AEE602B8153E12277A4DF93E95C7D278C23BEA 0xDF CODESIZE DUP8 SWAP13 PUSH5 0x736F6C6343 STOP MOD 0xC STOP CALLER "
				},
				"gasEstimates": {
					"creation": {
						"codeDepositCost": "1039400",
						"executionCost": "23515",
						"totalCost": "1062915"
					},
					"external": {
						"CHE()": "243",
						"CHE_USDT()": "241",
						"USDT()": "263",
						"addCaller(address)": "infinite",
						"amountIn()": "1043",
						"delCaller(address)": "infinite",
						"destroyAddress()": "285",
						"emergencyAddress()": "1147",
						"emergencyWithdraw(address)": "infinite",
						"getCaller(uint256)": "infinite",
						"getCallerLength()": "1163",
						"isCaller(address)": "1277",
						"owner()": "1104",
						"renounceOwnership()": "infinite",
						"setAmountIn(uint256)": "infinite",
						"setEmergencyAddress(address)": "infinite",
						"swap()": "infinite",
						"transferOwnership(address)": "infinite"
					}
				},
				"methodIdentifiers": {
					"CHE()": "07805372",
					"CHE_USDT()": "c0a04799",
					"USDT()": "c54e44eb",
					"addCaller(address)": "747293fb",
					"amountIn()": "6bed55a6",
					"delCaller(address)": "231a418c",
					"destroyAddress()": "d12d9f15",
					"emergencyAddress()": "fddf3f73",
					"emergencyWithdraw(address)": "6ff1c9bc",
					"getCaller(uint256)": "a8b0b3ed",
					"getCallerLength()": "42177a58",
					"isCaller(address)": "7ac07dcc",
					"owner()": "8da5cb5b",
					"renounceOwnership()": "715018a6",
					"setAmountIn(uint256)": "6717f5b0",
					"setEmergencyAddress(address)": "2aa11ffb",
					"swap()": "8119c065",
					"transferOwnership(address)": "f2fde38b"
				}
			},
			"storageLayout": {
				"storage": [
					{
						"astId": 1380,
						"contract": "ROO_Repurchase/contracts/CHE_Repurchase.sol:Repurchase",
						"label": "_owner",
						"offset": 0,
						"slot": "0",
						"type": "t_address"
					},
					{
						"astId": 19,
						"contract": "ROO_Repurchase/contracts/CHE_Repurchase.sol:Repurchase",
						"label": "_caller",
						"offset": 0,
						"slot": "1",
						"type": "t_struct(AddressSet)1169_storage"
					},
					{
						"astId": 33,
						"contract": "ROO_Repurchase/contracts/CHE_Repurchase.sol:Repurchase",
						"label": "emergencyAddress",
						"offset": 0,
						"slot": "3",
						"type": "t_address"
					},
					{
						"astId": 35,
						"contract": "ROO_Repurchase/contracts/CHE_Repurchase.sol:Repurchase",
						"label": "amountIn",
						"offset": 0,
						"slot": "4",
						"type": "t_uint256"
					}
				],
				"types": {
					"t_address": {
						"encoding": "inplace",
						"label": "address",
						"numberOfBytes": "20"
					},
					"t_array(t_bytes32)dyn_storage": {
						"base": "t_bytes32",
						"encoding": "dynamic_array",
						"label": "bytes32[]",
						"numberOfBytes": "32"
					},
					"t_bytes32": {
						"encoding": "inplace",
						"label": "bytes32",
						"numberOfBytes": "32"
					},
					"t_mapping(t_bytes32,t_uint256)": {
						"encoding": "mapping",
						"key": "t_bytes32",
						"label": "mapping(bytes32 => uint256)",
						"numberOfBytes": "32",
						"value": "t_uint256"
					},
					"t_struct(AddressSet)1169_storage": {
						"encoding": "inplace",
						"label": "struct EnumerableSet.AddressSet",
						"members": [
							{
								"astId": 1168,
								"contract": "ROO_Repurchase/contracts/CHE_Repurchase.sol:Repurchase",
								"label": "_inner",
								"offset": 0,
								"slot": "0",
								"type": "t_struct(Set)904_storage"
							}
						],
						"numberOfBytes": "64"
					},
					"t_struct(Set)904_storage": {
						"encoding": "inplace",
						"label": "struct EnumerableSet.Set",
						"members": [
							{
								"astId": 899,
								"contract": "ROO_Repurchase/contracts/CHE_Repurchase.sol:Repurchase",
								"label": "_values",
								"offset": 0,
								"slot": "0",
								"type": "t_array(t_bytes32)dyn_storage"
							},
							{
								"astId": 903,
								"contract": "ROO_Repurchase/contracts/CHE_Repurchase.sol:Repurchase",
								"label": "_indexes",
								"offset": 0,
								"slot": "1",
								"type": "t_mapping(t_bytes32,t_uint256)"
							}
						],
						"numberOfBytes": "64"
					},
					"t_uint256": {
						"encoding": "inplace",
						"label": "uint256",
						"numberOfBytes": "32"
					}
				}
			},
			"userdoc": {
				"kind": "user",
				"methods": {},
				"version": 1
			}
		}
	}
}