{
	"ROO_Repurchase/contracts/erc20.sol": {
		"CHE_USDT": {
			"abi": [
				{
					"inputs": [
						{
							"internalType": "string",
							"name": "name",
							"type": "string"
						},
						{
							"internalType": "string",
							"name": "symbol",
							"type": "string"
						}
					],
					"stateMutability": "nonpayable",
					"type": "constructor"
				},
				{
					"anonymous": false,
					"inputs": [
						{
							"indexed": true,
							"internalType": "address",
							"name": "owner",
							"type": "address"
						},
						{
							"indexed": true,
							"internalType": "address",
							"name": "spender",
							"type": "address"
						},
						{
							"indexed": false,
							"internalType": "uint256",
							"name": "value",
							"type": "uint256"
						}
					],
					"name": "Approval",
					"type": "event"
				},
				{
					"anonymous": false,
					"inputs": [
						{
							"indexed": true,
							"internalType": "address",
							"name": "from",
							"type": "address"
						},
						{
							"indexed": true,
							"internalType": "address",
							"name": "to",
							"type": "address"
						},
						{
							"indexed": false,
							"internalType": "uint256",
							"name": "value",
							"type": "uint256"
						}
					],
					"name": "Transfer",
					"type": "event"
				},
				{
					"inputs": [
						{
							"internalType": "address",
							"name": "owner",
							"type": "address"
						},
						{
							"internalType": "address",
							"name": "spender",
							"type": "address"
						}
					],
					"name": "allowance",
					"outputs": [
						{
							"internalType": "uint256",
							"name": "",
							"type": "uint256"
						}
					],
					"stateMutability": "view",
					"type": "function"
				},
				{
					"inputs": [
						{
							"internalType": "address",
							"name": "spender",
							"type": "address"
						},
						{
							"internalType": "uint256",
							"name": "amount",
							"type": "uint256"
						}
					],
					"name": "approve",
					"outputs": [
						{
							"internalType": "bool",
							"name": "",
							"type": "bool"
						}
					],
					"stateMutability": "nonpayable",
					"type": "function"
				},
				{
					"inputs": [
						{
							"internalType": "address",
							"name": "account",
							"type": "address"
						}
					],
					"name": "balanceOf",
					"outputs": [
						{
							"internalType": "uint256",
							"name": "",
							"type": "uint256"
						}
					],
					"stateMutability": "view",
					"type": "function"
				},
				{
					"inputs": [],
					"name": "decimals",
					"outputs": [
						{
							"internalType": "uint8",
							"name": "",
							"type": "uint8"
						}
					],
					"stateMutability": "view",
					"type": "function"
				},
				{
					"inputs": [
						{
							"internalType": "address",
							"name": "spender",
							"type": "address"
						},
						{
							"internalType": "uint256",
							"name": "subtractedValue",
							"type": "uint256"
						}
					],
					"name": "decreaseAllowance",
					"outputs": [
						{
							"internalType": "bool",
							"name": "",
							"type": "bool"
						}
					],
					"stateMutability": "nonpayable",
					"type": "function"
				},
				{
					"inputs": [
						{
							"internalType": "address",
							"name": "spender",
							"type": "address"
						},
						{
							"internalType": "uint256",
							"name": "addedValue",
							"type": "uint256"
						}
					],
					"name": "increaseAllowance",
					"outputs": [
						{
							"internalType": "bool",
							"name": "",
							"type": "bool"
						}
					],
					"stateMutability": "nonpayable",
					"type": "function"
				},
				{
					"inputs": [
						{
							"internalType": "uint256",
							"name": "amount",
							"type": "uint256"
						}
					],
					"name": "mint",
					"outputs": [],
					"stateMutability": "nonpayable",
					"type": "function"
				},
				{
					"inputs": [],
					"name": "name",
					"outputs": [
						{
							"internalType": "string",
							"name": "",
							"type": "string"
						}
					],
					"stateMutability": "view",
					"type": "function"
				},
				{
					"inputs": [],
					"name": "owner",
					"outputs": [
						{
							"internalType": "address",
							"name": "",
							"type": "address"
						}
					],
					"stateMutability": "view",
					"type": "function"
				},
				{
					"inputs": [],
					"name": "symbol",
					"outputs": [
						{
							"internalType": "string",
							"name": "",
							"type": "string"
						}
					],
					"stateMutability": "view",
					"type": "function"
				},
				{
					"inputs": [],
					"name": "totalSupply",
					"outputs": [
						{
							"internalType": "uint256",
							"name": "",
							"type": "uint256"
						}
					],
					"stateMutability": "view",
					"type": "function"
				},
				{
					"inputs": [
						{
							"internalType": "address",
							"name": "to",
							"type": "address"
						},
						{
							"internalType": "uint256",
							"name": "amount",
							"type": "uint256"
						}
					],
					"name": "transfer",
					"outputs": [
						{
							"internalType": "bool",
							"name": "",
							"type": "bool"
						}
					],
					"stateMutability": "nonpayable",
					"type": "function"
				},
				{
					"inputs": [
						{
							"internalType": "address",
							"name": "from",
							"type": "address"
						},
						{
							"internalType": "address",
							"name": "to",
							"type": "address"
						},
						{
							"internalType": "uint256",
							"name": "amount",
							"type": "uint256"
						}
					],
					"name": "transferFrom",
					"outputs": [
						{
							"internalType": "bool",
							"name": "",
							"type": "bool"
						}
					],
					"stateMutability": "nonpayable",
					"type": "function"
				}
			],
			"devdoc": {
				"events": {
					"Approval(address,address,uint256)": {
						"details": "Emitted when the allowance of a `spender` for an `owner` is set by a call to {approve}. `value` is the new allowance."
					},
					"Transfer(address,address,uint256)": {
						"details": "Emitted when `value` tokens are moved from one account (`from`) to another (`to`). Note that `value` may be zero."
					}
				},
				"kind": "dev",
				"methods": {
					"allowance(address,address)": {
						"details": "Returns the remaining number of tokens that `spender` will be allowed to spend on behalf of `owner` through {transferFrom}. This is zero by default. This value changes when {approve} or {transferFrom} are called."
					},
					"approve(address,uint256)": {
						"details": "Sets `amount` as the allowance of `spender` over the caller's tokens. Returns a boolean value indicating whether the operation succeeded. IMPORTANT: Beware that changing an allowance with this method brings the risk that someone may use both the old and the new allowance by unfortunate transaction ordering. One possible solution to mitigate this race condition is to first reduce the spender's allowance to 0 and set the desired value afterwards: https://github.com/ethereum/EIPs/issues/20#issuecomment-263524729 Emits an {Approval} event."
					},
					"balanceOf(address)": {
						"details": "Returns the amount of tokens owned by `account`."
					},
					"decimals()": {
						"details": "Returns the decimals places of the token."
					},
					"name()": {
						"details": "Returns the name of the token."
					},
					"symbol()": {
						"details": "Returns the symbol of the token."
					},
					"totalSupply()": {
						"details": "Returns the amount of tokens in existence."
					},
					"transfer(address,uint256)": {
						"details": "Moves `amount` tokens from the caller's account to `to`. Returns a boolean value indicating whether the operation succeeded. Emits a {Transfer} event."
					},
					"transferFrom(address,address,uint256)": {
						"details": "Moves `amount` tokens from `from` to `to` using the allowance mechanism. `amount` is then deducted from the caller's allowance. Returns a boolean value indicating whether the operation succeeded. Emits a {Transfer} event."
					}
				},
				"version": 1
			},
			"evm": {
				"assembly": "    /* \"ROO_Repurchase/contracts/erc20.sol\":5466:5905  contract CHE_USDT is ERC20 {... */\n  mstore(0x40, 0x80)\n    /* \"ROO_Repurchase/contracts/erc20.sol\":5527:5694  constructor(string memory name, string memory symbol) ERC20(name, symbol) {... */\n  callvalue\n  dup1\n  iszero\n  tag_1\n  jumpi\n  0x00\n  dup1\n  revert\ntag_1:\n  pop\n  mload(0x40)\n  sub(codesize, bytecodeSize)\n  dup1\n  bytecodeSize\n  dup4\n  codecopy\n  dup2\n  add\n  0x40\n  dup2\n  swap1\n  mstore\n  tag_2\n  swap2\n  tag_3\n  jump\t// in\ntag_2:\n    /* \"ROO_Repurchase/contracts/erc20.sol\":5587:5591  name */\n  dup2\n    /* \"ROO_Repurchase/contracts/erc20.sol\":5593:5599  symbol */\n  dup2\n    /* \"ROO_Repurchase/contracts/erc20.sol\":581:586  _name */\n  0x03\n    /* \"ROO_Repurchase/contracts/erc20.sol\":581:594  _name = name_ */\n  tag_7\n    /* \"ROO_Repurchase/contracts/erc20.sol\":5587:5591  name */\n  dup4\n    /* \"ROO_Repurchase/contracts/erc20.sol\":581:586  _name */\n  dup3\n    /* \"ROO_Repurchase/contracts/erc20.sol\":581:594  _name = name_ */\n  tag_8\n  jump\t// in\ntag_7:\n  pop\n    /* \"ROO_Repurchase/contracts/erc20.sol\":604:611  _symbol */\n  0x04\n    /* \"ROO_Repurchase/contracts/erc20.sol\":604:621  _symbol = symbol_ */\n  tag_9\n    /* \"ROO_Repurchase/contracts/erc20.sol\":614:621  symbol_ */\n  dup3\n    /* \"ROO_Repurchase/contracts/erc20.sol\":604:611  _symbol */\n  dup3\n    /* \"ROO_Repurchase/contracts/erc20.sol\":604:621  _symbol = symbol_ */\n  tag_8\n  jump\t// in\ntag_9:\n  pop\n  pop\n    /* \"ROO_Repurchase/contracts/erc20.sol\":5611:5616  owner */\n  0x05\n    /* \"ROO_Repurchase/contracts/erc20.sol\":5611:5629  owner = msg.sender */\n  dup1\n  sload\n  not(sub(shl(0xa0, 0x01), 0x01))\n  and\n    /* \"ROO_Repurchase/contracts/erc20.sol\":5619:5629  msg.sender */\n  caller\n    /* \"ROO_Repurchase/contracts/erc20.sol\":5611:5629  owner = msg.sender */\n  swap1\n  dup2\n  or\n  swap1\n  swap2\n  sstore\n    /* \"ROO_Repurchase/contracts/erc20.sol\":5640:5687  _mint(msg.sender, 100 * 10 ** uint(decimals())) */\n  tag_11\n  swap2\n  pop\n    /* \"ROO_Repurchase/contracts/erc20.sol\":5675:5685  decimals() */\n  tag_12\n    /* \"ROO_Repurchase/contracts/erc20.sol\":928:930  18 */\n  0x12\n  swap1\n    /* \"ROO_Repurchase/contracts/erc20.sol\":846:937  function decimals() public view virtual override returns (uint8) {... */\n  jump\n    /* \"ROO_Repurchase/contracts/erc20.sol\":5675:5685  decimals() */\ntag_12:\n    /* \"ROO_Repurchase/contracts/erc20.sol\":5664:5686  10 ** uint(decimals()) */\n  tag_14\n  swap1\n    /* \"ROO_Repurchase/contracts/erc20.sol\":5670:5686  uint(decimals()) */\n  0xff\n  and\n    /* \"ROO_Repurchase/contracts/erc20.sol\":5664:5666  10 */\n  0x0a\n    /* \"ROO_Repurchase/contracts/erc20.sol\":5664:5686  10 ** uint(decimals()) */\n  tag_15\n  jump\t// in\ntag_14:\n    /* \"ROO_Repurchase/contracts/erc20.sol\":5658:5686  100 * 10 ** uint(decimals()) */\n  tag_16\n  swap1\n    /* \"ROO_Repurchase/contracts/erc20.sol\":5658:5661  100 */\n  0x64\n    /* \"ROO_Repurchase/contracts/erc20.sol\":5658:5686  100 * 10 ** uint(decimals()) */\n  tag_17\n  jump\t// in\ntag_16:\n    /* \"ROO_Repurchase/contracts/erc20.sol\":5640:5645  _mint */\n  tag_18\n    /* \"ROO_Repurchase/contracts/erc20.sol\":5640:5687  _mint(msg.sender, 100 * 10 ** uint(decimals())) */\n  jump\t// in\ntag_11:\n    /* \"ROO_Repurchase/contracts/erc20.sol\":5527:5694  constructor(string memory name, string memory symbol) ERC20(name, symbol) {... */\n  pop\n  pop\n    /* \"ROO_Repurchase/contracts/erc20.sol\":5466:5905  contract CHE_USDT is ERC20 {... */\n  jump(tag_44)\n    /* \"ROO_Repurchase/contracts/erc20.sol\":3305:3840  function _mint(address account, uint256 amount) internal virtual {... */\ntag_18:\n  sub(shl(0xa0, 0x01), 0x01)\n    /* \"ROO_Repurchase/contracts/erc20.sol\":3388:3409  account != address(0) */\n  dup3\n  and\n    /* \"ROO_Repurchase/contracts/erc20.sol\":3380:3445  require(account != address(0), \"ERC20: mint to the zero address\") */\n  tag_22\n  jumpi\n  mload(0x40)\n  shl(0xe5, 0x461bcd)\n  dup2\n  mstore\n    /* \"#utility.yul\":6028:6030   */\n  0x20\n    /* \"ROO_Repurchase/contracts/erc20.sol\":3380:3445  require(account != address(0), \"ERC20: mint to the zero address\") */\n  0x04\n  dup3\n  add\n    /* \"#utility.yul\":6010:6031   */\n  mstore\n    /* \"#utility.yul\":6067:6069   */\n  0x1f\n    /* \"#utility.yul\":6047:6065   */\n  0x24\n  dup3\n  add\n    /* \"#utility.yul\":6040:6070   */\n  mstore\n    /* \"#utility.yul\":6106:6139   */\n  0x45524332303a206d696e7420746f20746865207a65726f206164647265737300\n    /* \"#utility.yul\":6086:6104   */\n  0x44\n  dup3\n  add\n    /* \"#utility.yul\":6079:6140   */\n  mstore\n    /* \"#utility.yul\":6157:6175   */\n  0x64\n  add\n    /* \"ROO_Repurchase/contracts/erc20.sol\":3380:3445  require(account != address(0), \"ERC20: mint to the zero address\") */\n  mload(0x40)\n  dup1\n  swap2\n  sub\n  swap1\n  revert\ntag_22:\n    /* \"ROO_Repurchase/contracts/erc20.sol\":3532:3538  amount */\n  dup1\n    /* \"ROO_Repurchase/contracts/erc20.sol\":3516:3528  _totalSupply */\n  0x02\n  0x00\n    /* \"ROO_Repurchase/contracts/erc20.sol\":3516:3538  _totalSupply += amount */\n  dup3\n  dup3\n  sload\n  tag_27\n  swap2\n  swap1\n  tag_28\n  jump\t// in\ntag_27:\n  swap1\n  swap2\n  sstore\n  pop\n  pop\n  sub(shl(0xa0, 0x01), 0x01)\n    /* \"ROO_Repurchase/contracts/erc20.sol\":3684:3702  _balances[account] */\n  dup3\n  and\n    /* \"ROO_Repurchase/contracts/erc20.sol\":3684:3693  _balances */\n  0x00\n    /* \"ROO_Repurchase/contracts/erc20.sol\":3684:3702  _balances[account] */\n  dup2\n  dup2\n  mstore\n  0x20\n  dup2\n  dup2\n  mstore\n  0x40\n  dup1\n  dup4\n  keccak256\n    /* \"ROO_Repurchase/contracts/erc20.sol\":3684:3712  _balances[account] += amount */\n  dup1\n  sload\n  dup7\n  add\n  swap1\n  sstore\n    /* \"ROO_Repurchase/contracts/erc20.sol\":3737:3774  Transfer(address(0), account, amount) */\n  mload\n    /* \"#utility.yul\":6462:6487   */\n  dup5\n  dup2\n  mstore\n    /* \"ROO_Repurchase/contracts/erc20.sol\":3737:3774  Transfer(address(0), account, amount) */\n  0xddf252ad1be2c89b69c2b068fc378daa952ba7f163c4a11628f55a4df523b3ef\n  swap2\n    /* \"#utility.yul\":6435:6453   */\n  add\n    /* \"ROO_Repurchase/contracts/erc20.sol\":3737:3774  Transfer(address(0), account, amount) */\n  mload(0x40)\n  dup1\n  swap2\n  sub\n  swap1\n  log3\n    /* \"ROO_Repurchase/contracts/erc20.sol\":3305:3840  function _mint(address account, uint256 amount) internal virtual {... */\n  pop\n  pop\n  jump\t// out\n    /* \"ROO_Repurchase/contracts/erc20.sol\":5274:5365  function _beforeTokenTransfer(address from, address to, uint256 amount) internal virtual {} */\ntag_26:\n  pop\n  pop\n  pop\n  jump\t// out\n    /* \"#utility.yul\":14:141   */\ntag_35:\n    /* \"#utility.yul\":75:85   */\n  0x4e487b71\n    /* \"#utility.yul\":70:73   */\n  0xe0\n    /* \"#utility.yul\":66:86   */\n  shl\n    /* \"#utility.yul\":63:64   */\n  0x00\n    /* \"#utility.yul\":56:87   */\n  mstore\n    /* \"#utility.yul\":106:110   */\n  0x41\n    /* \"#utility.yul\":103:104   */\n  0x04\n    /* \"#utility.yul\":96:111   */\n  mstore\n    /* \"#utility.yul\":130:134   */\n  0x24\n    /* \"#utility.yul\":127:128   */\n  0x00\n    /* \"#utility.yul\":120:135   */\n  revert\n    /* \"#utility.yul\":146:986   */\ntag_36:\n    /* \"#utility.yul\":200:205   */\n  0x00\n    /* \"#utility.yul\":253:256   */\n  dup3\n    /* \"#utility.yul\":246:250   */\n  0x1f\n    /* \"#utility.yul\":238:244   */\n  dup4\n    /* \"#utility.yul\":234:251   */\n  add\n    /* \"#utility.yul\":230:257   */\n  slt\n    /* \"#utility.yul\":220:275   */\n  tag_47\n  jumpi\n    /* \"#utility.yul\":271:272   */\n  0x00\n    /* \"#utility.yul\":268:269   */\n  dup1\n    /* \"#utility.yul\":261:273   */\n  revert\n    /* \"#utility.yul\":220:275   */\ntag_47:\n    /* \"#utility.yul\":294:307   */\n  dup2\n  mload\n  sub(shl(0x40, 0x01), 0x01)\n    /* \"#utility.yul\":356:366   */\n  dup1\n  dup3\n  gt\n    /* \"#utility.yul\":353:389   */\n  iszero\n  tag_49\n  jumpi\n    /* \"#utility.yul\":369:387   */\n  tag_49\n  tag_35\n  jump\t// in\ntag_49:\n    /* \"#utility.yul\":444:446   */\n  0x40\n    /* \"#utility.yul\":438:447   */\n  mload\n    /* \"#utility.yul\":412:414   */\n  0x1f\n    /* \"#utility.yul\":498:511   */\n  dup4\n  add\n  not(0x1f)\n    /* \"#utility.yul\":494:516   */\n  swap1\n  dup2\n  and\n    /* \"#utility.yul\":518:520   */\n  0x3f\n    /* \"#utility.yul\":490:521   */\n  add\n    /* \"#utility.yul\":486:526   */\n  and\n    /* \"#utility.yul\":474:527   */\n  dup2\n  add\n  swap1\n    /* \"#utility.yul\":542:560   */\n  dup3\n  dup3\n  gt\n    /* \"#utility.yul\":562:584   */\n  dup2\n  dup4\n  lt\n    /* \"#utility.yul\":539:585   */\n  or\n    /* \"#utility.yul\":536:608   */\n  iszero\n  tag_51\n  jumpi\n    /* \"#utility.yul\":588:606   */\n  tag_51\n  tag_35\n  jump\t// in\ntag_51:\n    /* \"#utility.yul\":628:638   */\n  dup2\n    /* \"#utility.yul\":624:626   */\n  0x40\n    /* \"#utility.yul\":617:639   */\n  mstore\n    /* \"#utility.yul\":663:665   */\n  dup4\n    /* \"#utility.yul\":655:661   */\n  dup2\n    /* \"#utility.yul\":648:666   */\n  mstore\n    /* \"#utility.yul\":685:689   */\n  0x20\n    /* \"#utility.yul\":675:689   */\n  swap3\n  pop\n    /* \"#utility.yul\":730:733   */\n  dup7\n    /* \"#utility.yul\":725:727   */\n  dup4\n    /* \"#utility.yul\":720:722   */\n  dup6\n    /* \"#utility.yul\":712:718   */\n  dup9\n    /* \"#utility.yul\":708:723   */\n  add\n    /* \"#utility.yul\":704:728   */\n  add\n    /* \"#utility.yul\":701:734   */\n  gt\n    /* \"#utility.yul\":698:751   */\n  iszero\n  tag_52\n  jumpi\n    /* \"#utility.yul\":747:748   */\n  0x00\n    /* \"#utility.yul\":744:745   */\n  dup1\n    /* \"#utility.yul\":737:749   */\n  revert\n    /* \"#utility.yul\":698:751   */\ntag_52:\n    /* \"#utility.yul\":769:770   */\n  0x00\n    /* \"#utility.yul\":760:770   */\n  swap2\n  pop\n    /* \"#utility.yul\":779:912   */\ntag_53:\n    /* \"#utility.yul\":793:795   */\n  dup4\n    /* \"#utility.yul\":790:791   */\n  dup3\n    /* \"#utility.yul\":787:796   */\n  lt\n    /* \"#utility.yul\":779:912   */\n  iszero\n  tag_55\n  jumpi\n    /* \"#utility.yul\":881:895   */\n  dup6\n  dup3\n  add\n    /* \"#utility.yul\":877:900   */\n  dup4\n  add\n    /* \"#utility.yul\":871:901   */\n  mload\n    /* \"#utility.yul\":850:864   */\n  dup2\n  dup4\n  add\n    /* \"#utility.yul\":846:869   */\n  dup5\n  add\n    /* \"#utility.yul\":839:902   */\n  mstore\n    /* \"#utility.yul\":804:814   */\n  swap1\n  dup3\n  add\n  swap1\n    /* \"#utility.yul\":779:912   */\n  jump(tag_53)\ntag_55:\n    /* \"#utility.yul\":954:955   */\n  0x00\n    /* \"#utility.yul\":932:947   */\n  swap4\n  dup2\n  add\n    /* \"#utility.yul\":928:952   */\n  swap1\n  swap3\n  add\n    /* \"#utility.yul\":921:956   */\n  swap3\n  swap1\n  swap3\n  mstore\n    /* \"#utility.yul\":936:942   */\n  swap5\n    /* \"#utility.yul\":146:986   */\n  swap4\n  pop\n  pop\n  pop\n  pop\n  jump\t// out\n    /* \"#utility.yul\":991:1553   */\ntag_3:\n    /* \"#utility.yul\":1090:1096   */\n  0x00\n    /* \"#utility.yul\":1098:1104   */\n  dup1\n    /* \"#utility.yul\":1151:1153   */\n  0x40\n    /* \"#utility.yul\":1139:1148   */\n  dup4\n    /* \"#utility.yul\":1130:1137   */\n  dup6\n    /* \"#utility.yul\":1126:1149   */\n  sub\n    /* \"#utility.yul\":1122:1154   */\n  slt\n    /* \"#utility.yul\":1119:1171   */\n  iszero\n  tag_57\n  jumpi\n    /* \"#utility.yul\":1167:1168   */\n  0x00\n    /* \"#utility.yul\":1164:1165   */\n  dup1\n    /* \"#utility.yul\":1157:1169   */\n  revert\n    /* \"#utility.yul\":1119:1171   */\ntag_57:\n    /* \"#utility.yul\":1194:1210   */\n  dup3\n  mload\n  sub(shl(0x40, 0x01), 0x01)\n    /* \"#utility.yul\":1259:1273   */\n  dup1\n  dup3\n  gt\n    /* \"#utility.yul\":1256:1290   */\n  iszero\n  tag_58\n  jumpi\n    /* \"#utility.yul\":1286:1287   */\n  0x00\n    /* \"#utility.yul\":1283:1284   */\n  dup1\n    /* \"#utility.yul\":1276:1288   */\n  revert\n    /* \"#utility.yul\":1256:1290   */\ntag_58:\n    /* \"#utility.yul\":1309:1370   */\n  tag_59\n    /* \"#utility.yul\":1362:1369   */\n  dup7\n    /* \"#utility.yul\":1353:1359   */\n  dup4\n    /* \"#utility.yul\":1342:1351   */\n  dup8\n    /* \"#utility.yul\":1338:1360   */\n  add\n    /* \"#utility.yul\":1309:1370   */\n  tag_36\n  jump\t// in\ntag_59:\n    /* \"#utility.yul\":1299:1370   */\n  swap4\n  pop\n    /* \"#utility.yul\":1416:1418   */\n  0x20\n    /* \"#utility.yul\":1405:1414   */\n  dup6\n    /* \"#utility.yul\":1401:1419   */\n  add\n    /* \"#utility.yul\":1395:1420   */\n  mload\n    /* \"#utility.yul\":1379:1420   */\n  swap2\n  pop\n    /* \"#utility.yul\":1445:1447   */\n  dup1\n    /* \"#utility.yul\":1435:1443   */\n  dup3\n    /* \"#utility.yul\":1432:1448   */\n  gt\n    /* \"#utility.yul\":1429:1465   */\n  iszero\n  tag_60\n  jumpi\n    /* \"#utility.yul\":1461:1462   */\n  0x00\n    /* \"#utility.yul\":1458:1459   */\n  dup1\n    /* \"#utility.yul\":1451:1463   */\n  revert\n    /* \"#utility.yul\":1429:1465   */\ntag_60:\n  pop\n    /* \"#utility.yul\":1484:1547   */\n  tag_61\n    /* \"#utility.yul\":1539:1546   */\n  dup6\n    /* \"#utility.yul\":1528:1536   */\n  dup3\n    /* \"#utility.yul\":1517:1526   */\n  dup7\n    /* \"#utility.yul\":1513:1537   */\n  add\n    /* \"#utility.yul\":1484:1547   */\n  tag_36\n  jump\t// in\ntag_61:\n    /* \"#utility.yul\":1474:1547   */\n  swap2\n  pop\n  pop\n    /* \"#utility.yul\":991:1553   */\n  swap3\n  pop\n  swap3\n  swap1\n  pop\n  jump\t// out\n    /* \"#utility.yul\":1558:1938   */\ntag_37:\n    /* \"#utility.yul\":1637:1638   */\n  0x01\n    /* \"#utility.yul\":1633:1645   */\n  dup2\n  dup2\n  shr\n  swap1\n    /* \"#utility.yul\":1680:1692   */\n  dup3\n  and\n  dup1\n    /* \"#utility.yul\":1701:1762   */\n  tag_63\n  jumpi\n    /* \"#utility.yul\":1755:1759   */\n  0x7f\n    /* \"#utility.yul\":1747:1753   */\n  dup3\n    /* \"#utility.yul\":1743:1760   */\n  and\n    /* \"#utility.yul\":1733:1760   */\n  swap2\n  pop\n    /* \"#utility.yul\":1701:1762   */\ntag_63:\n    /* \"#utility.yul\":1808:1810   */\n  0x20\n    /* \"#utility.yul\":1800:1806   */\n  dup3\n    /* \"#utility.yul\":1797:1811   */\n  lt\n    /* \"#utility.yul\":1777:1795   */\n  dup2\n    /* \"#utility.yul\":1774:1812   */\n  sub\n    /* \"#utility.yul\":1771:1932   */\n  tag_64\n  jumpi\n    /* \"#utility.yul\":1854:1864   */\n  0x4e487b71\n    /* \"#utility.yul\":1849:1852   */\n  0xe0\n    /* \"#utility.yul\":1845:1865   */\n  shl\n    /* \"#utility.yul\":1842:1843   */\n  0x00\n    /* \"#utility.yul\":1835:1866   */\n  mstore\n    /* \"#utility.yul\":1889:1893   */\n  0x22\n    /* \"#utility.yul\":1886:1887   */\n  0x04\n    /* \"#utility.yul\":1879:1894   */\n  mstore\n    /* \"#utility.yul\":1917:1921   */\n  0x24\n    /* \"#utility.yul\":1914:1915   */\n  0x00\n    /* \"#utility.yul\":1907:1922   */\n  revert\n    /* \"#utility.yul\":1771:1932   */\ntag_64:\n  pop\n    /* \"#utility.yul\":1558:1938   */\n  swap2\n  swap1\n  pop\n  jump\t// out\n    /* \"#utility.yul\":2069:2614   */\ntag_39:\n    /* \"#utility.yul\":2171:2173   */\n  0x1f\n    /* \"#utility.yul\":2166:2169   */\n  dup3\n    /* \"#utility.yul\":2163:2174   */\n  gt\n    /* \"#utility.yul\":2160:2608   */\n  iszero\n  tag_26\n  jumpi\n    /* \"#utility.yul\":2207:2208   */\n  0x00\n    /* \"#utility.yul\":2232:2237   */\n  dup2\n    /* \"#utility.yul\":2228:2230   */\n  dup2\n    /* \"#utility.yul\":2221:2238   */\n  mstore\n    /* \"#utility.yul\":2277:2281   */\n  0x20\n    /* \"#utility.yul\":2273:2275   */\n  dup2\n    /* \"#utility.yul\":2263:2282   */\n  keccak256\n    /* \"#utility.yul\":2347:2349   */\n  0x1f\n    /* \"#utility.yul\":2335:2345   */\n  dup6\n    /* \"#utility.yul\":2331:2350   */\n  add\n    /* \"#utility.yul\":2328:2329   */\n  0x05\n    /* \"#utility.yul\":2324:2351   */\n  shr\n    /* \"#utility.yul\":2318:2322   */\n  dup2\n    /* \"#utility.yul\":2314:2352   */\n  add\n    /* \"#utility.yul\":2383:2387   */\n  0x20\n    /* \"#utility.yul\":2371:2381   */\n  dup7\n    /* \"#utility.yul\":2368:2388   */\n  lt\n    /* \"#utility.yul\":2365:2412   */\n  iszero\n  tag_68\n  jumpi\n  pop\n    /* \"#utility.yul\":2406:2410   */\n  dup1\n    /* \"#utility.yul\":2365:2412   */\ntag_68:\n    /* \"#utility.yul\":2461:2463   */\n  0x1f\n    /* \"#utility.yul\":2456:2459   */\n  dup6\n    /* \"#utility.yul\":2452:2464   */\n  add\n    /* \"#utility.yul\":2449:2450   */\n  0x05\n    /* \"#utility.yul\":2445:2465   */\n  shr\n    /* \"#utility.yul\":2439:2443   */\n  dup3\n    /* \"#utility.yul\":2435:2466   */\n  add\n    /* \"#utility.yul\":2425:2466   */\n  swap2\n  pop\n    /* \"#utility.yul\":2516:2598   */\ntag_69:\n    /* \"#utility.yul\":2534:2536   */\n  dup2\n    /* \"#utility.yul\":2527:2532   */\n  dup2\n    /* \"#utility.yul\":2524:2537   */\n  lt\n    /* \"#utility.yul\":2516:2598   */\n  iszero\n  tag_71\n  jumpi\n    /* \"#utility.yul\":2579:2596   */\n  dup3\n  dup2\n  sstore\n    /* \"#utility.yul\":2560:2561   */\n  0x01\n    /* \"#utility.yul\":2549:2562   */\n  add\n    /* \"#utility.yul\":2516:2598   */\n  jump(tag_69)\ntag_71:\n    /* \"#utility.yul\":2520:2523   */\n  pop\n  pop\n  pop\n    /* \"#utility.yul\":2069:2614   */\n  pop\n  pop\n  pop\n  jump\t// out\n    /* \"#utility.yul\":2790:4142   */\ntag_8:\n    /* \"#utility.yul\":2910:2920   */\n  dup2\n  mload\n  sub(shl(0x40, 0x01), 0x01)\n    /* \"#utility.yul\":2932:2962   */\n  dup2\n  gt\n    /* \"#utility.yul\":2929:2985   */\n  iszero\n  tag_75\n  jumpi\n    /* \"#utility.yul\":2965:2983   */\n  tag_75\n  tag_35\n  jump\t// in\ntag_75:\n    /* \"#utility.yul\":2994:3091   */\n  tag_76\n    /* \"#utility.yul\":3084:3090   */\n  dup2\n    /* \"#utility.yul\":3044:3082   */\n  tag_77\n    /* \"#utility.yul\":3076:3080   */\n  dup5\n    /* \"#utility.yul\":3070:3081   */\n  sload\n    /* \"#utility.yul\":3044:3082   */\n  tag_37\n  jump\t// in\ntag_77:\n    /* \"#utility.yul\":3038:3042   */\n  dup5\n    /* \"#utility.yul\":2994:3091   */\n  tag_39\n  jump\t// in\ntag_76:\n    /* \"#utility.yul\":3146:3150   */\n  0x20\n  dup1\n    /* \"#utility.yul\":3210:3212   */\n  0x1f\n    /* \"#utility.yul\":3199:3213   */\n  dup4\n  gt\n    /* \"#utility.yul\":3227:3228   */\n  0x01\n    /* \"#utility.yul\":3222:3885   */\n  dup2\n  eq\n  tag_79\n  jumpi\n    /* \"#utility.yul\":3929:3930   */\n  0x00\n    /* \"#utility.yul\":3946:3952   */\n  dup5\n    /* \"#utility.yul\":3943:4032   */\n  iszero\n  tag_80\n  jumpi\n  pop\n    /* \"#utility.yul\":3998:4017   */\n  dup6\n  dup4\n  add\n    /* \"#utility.yul\":3992:4018   */\n  mload\n    /* \"#utility.yul\":3943:4032   */\ntag_80:\n  not(0x00)\n    /* \"#utility.yul\":2747:2748   */\n  0x03\n    /* \"#utility.yul\":2743:2754   */\n  dup7\n  swap1\n  shl\n    /* \"#utility.yul\":2739:2763   */\n  shr\n    /* \"#utility.yul\":2735:2764   */\n  not\n    /* \"#utility.yul\":2725:2765   */\n  and\n    /* \"#utility.yul\":2771:2772   */\n  0x01\n    /* \"#utility.yul\":2767:2778   */\n  dup6\n  swap1\n  shl\n    /* \"#utility.yul\":2722:2779   */\n  or\n    /* \"#utility.yul\":4045:4126   */\n  dup6\n  sstore\n    /* \"#utility.yul\":3192:4136   */\n  jump(tag_71)\n    /* \"#utility.yul\":3222:3885   */\ntag_79:\n    /* \"#utility.yul\":2016:2017   */\n  0x00\n    /* \"#utility.yul\":2009:2023   */\n  dup6\n  dup2\n  mstore\n    /* \"#utility.yul\":2053:2057   */\n  0x20\n    /* \"#utility.yul\":2040:2058   */\n  dup2\n  keccak256\n  not(0x1f)\n    /* \"#utility.yul\":3258:3278   */\n  dup7\n  and\n  swap2\n    /* \"#utility.yul\":3376:3612   */\ntag_83:\n    /* \"#utility.yul\":3390:3397   */\n  dup3\n    /* \"#utility.yul\":3387:3388   */\n  dup2\n    /* \"#utility.yul\":3384:3398   */\n  lt\n    /* \"#utility.yul\":3376:3612   */\n  iszero\n  tag_85\n  jumpi\n    /* \"#utility.yul\":3479:3498   */\n  dup9\n  dup7\n  add\n    /* \"#utility.yul\":3473:3499   */\n  mload\n    /* \"#utility.yul\":3458:3500   */\n  dup3\n  sstore\n    /* \"#utility.yul\":3571:3598   */\n  swap5\n  dup5\n  add\n  swap5\n    /* \"#utility.yul\":3539:3540   */\n  0x01\n    /* \"#utility.yul\":3527:3541   */\n  swap1\n  swap2\n  add\n  swap1\n    /* \"#utility.yul\":3406:3425   */\n  dup5\n  add\n    /* \"#utility.yul\":3376:3612   */\n  jump(tag_83)\ntag_85:\n    /* \"#utility.yul\":3380:3383   */\n  pop\n    /* \"#utility.yul\":3640:3646   */\n  dup6\n    /* \"#utility.yul\":3631:3638   */\n  dup3\n    /* \"#utility.yul\":3628:3647   */\n  lt\n    /* \"#utility.yul\":3625:3826   */\n  iszero\n  tag_86\n  jumpi\n    /* \"#utility.yul\":3701:3720   */\n  dup8\n  dup6\n  add\n    /* \"#utility.yul\":3695:3721   */\n  mload\n  not(0x00)\n    /* \"#utility.yul\":3784:3785   */\n  0x03\n    /* \"#utility.yul\":3780:3794   */\n  dup9\n  swap1\n  shl\n    /* \"#utility.yul\":3796:3799   */\n  0xf8\n    /* \"#utility.yul\":3776:3800   */\n  and\n    /* \"#utility.yul\":3772:3809   */\n  shr\n    /* \"#utility.yul\":3768:3810   */\n  not\n    /* \"#utility.yul\":3753:3811   */\n  and\n    /* \"#utility.yul\":3738:3812   */\n  dup2\n  sstore\n    /* \"#utility.yul\":3625:3826   */\ntag_86:\n  pop\n  pop\n  pop\n  pop\n  pop\n    /* \"#utility.yul\":3872:3873   */\n  0x01\n    /* \"#utility.yul\":3856:3870   */\n  swap1\n  dup2\n  shl\n    /* \"#utility.yul\":3852:3874   */\n  add\n    /* \"#utility.yul\":3839:3875   */\n  swap1\n  sstore\n  pop\n    /* \"#utility.yul\":2790:4142   */\n  jump\t// out\n    /* \"#utility.yul\":4147:4274   */\ntag_41:\n    /* \"#utility.yul\":4208:4218   */\n  0x4e487b71\n    /* \"#utility.yul\":4203:4206   */\n  0xe0\n    /* \"#utility.yul\":4199:4219   */\n  shl\n    /* \"#utility.yul\":4196:4197   */\n  0x00\n    /* \"#utility.yul\":4189:4220   */\n  mstore\n    /* \"#utility.yul\":4239:4243   */\n  0x11\n    /* \"#utility.yul\":4236:4237   */\n  0x04\n    /* \"#utility.yul\":4229:4244   */\n  mstore\n    /* \"#utility.yul\":4263:4267   */\n  0x24\n    /* \"#utility.yul\":4260:4261   */\n  0x00\n    /* \"#utility.yul\":4253:4268   */\n  revert\n    /* \"#utility.yul\":4279:4701   */\ntag_42:\n    /* \"#utility.yul\":4368:4369   */\n  0x01\n    /* \"#utility.yul\":4411:4416   */\n  dup2\n    /* \"#utility.yul\":4368:4369   */\n  dup2\n    /* \"#utility.yul\":4425:4695   */\ntag_89:\n    /* \"#utility.yul\":4446:4453   */\n  dup1\n    /* \"#utility.yul\":4436:4444   */\n  dup6\n    /* \"#utility.yul\":4433:4454   */\n  gt\n    /* \"#utility.yul\":4425:4695   */\n  iszero\n  tag_91\n  jumpi\n    /* \"#utility.yul\":4505:4509   */\n  dup2\n    /* \"#utility.yul\":4501:4502   */\n  0x00\n    /* \"#utility.yul\":4497:4503   */\n  not\n    /* \"#utility.yul\":4493:4510   */\n  div\n    /* \"#utility.yul\":4487:4491   */\n  dup3\n    /* \"#utility.yul\":4484:4511   */\n  gt\n    /* \"#utility.yul\":4481:4534   */\n  iszero\n  tag_93\n  jumpi\n    /* \"#utility.yul\":4514:4532   */\n  tag_93\n  tag_41\n  jump\t// in\ntag_93:\n    /* \"#utility.yul\":4564:4571   */\n  dup1\n    /* \"#utility.yul\":4554:4562   */\n  dup6\n    /* \"#utility.yul\":4550:4572   */\n  and\n    /* \"#utility.yul\":4547:4602   */\n  iszero\n  tag_94\n  jumpi\n    /* \"#utility.yul\":4584:4600   */\n  swap2\n  dup2\n  mul\n  swap2\n    /* \"#utility.yul\":4547:4602   */\ntag_94:\n    /* \"#utility.yul\":4663:4685   */\n  swap4\n  dup5\n  shr\n  swap4\n    /* \"#utility.yul\":4623:4638   */\n  swap1\n  dup1\n  mul\n  swap1\n    /* \"#utility.yul\":4425:4695   */\n  jump(tag_89)\ntag_91:\n    /* \"#utility.yul\":4429:4432   */\n  pop\n    /* \"#utility.yul\":4279:4701   */\n  swap3\n  pop\n  swap3\n  swap1\n  pop\n  jump\t// out\n    /* \"#utility.yul\":4706:5512   */\ntag_43:\n    /* \"#utility.yul\":4755:4760   */\n  0x00\n    /* \"#utility.yul\":4785:4793   */\n  dup3\n    /* \"#utility.yul\":4775:4855   */\n  tag_96\n  jumpi\n  pop\n    /* \"#utility.yul\":4826:4827   */\n  0x01\n    /* \"#utility.yul\":4840:4845   */\n  jump(tag_95)\n    /* \"#utility.yul\":4775:4855   */\ntag_96:\n    /* \"#utility.yul\":4874:4878   */\n  dup2\n    /* \"#utility.yul\":4864:4940   */\n  tag_97\n  jumpi\n  pop\n    /* \"#utility.yul\":4911:4912   */\n  0x00\n    /* \"#utility.yul\":4925:4930   */\n  jump(tag_95)\n    /* \"#utility.yul\":4864:4940   */\ntag_97:\n    /* \"#utility.yul\":4956:4960   */\n  dup2\n    /* \"#utility.yul\":4974:4975   */\n  0x01\n    /* \"#utility.yul\":4969:5028   */\n  dup2\n  eq\n  tag_99\n  jumpi\n    /* \"#utility.yul\":5042:5043   */\n  0x02\n    /* \"#utility.yul\":5037:5167   */\n  dup2\n  eq\n  tag_100\n  jumpi\n    /* \"#utility.yul\":4949:5167   */\n  jump(tag_98)\n    /* \"#utility.yul\":4969:5028   */\ntag_99:\n    /* \"#utility.yul\":4999:5000   */\n  0x01\n    /* \"#utility.yul\":4990:5000   */\n  swap2\n  pop\n    /* \"#utility.yul\":5013:5018   */\n  pop\n  jump(tag_95)\n    /* \"#utility.yul\":5037:5167   */\ntag_100:\n    /* \"#utility.yul\":5074:5077   */\n  0xff\n    /* \"#utility.yul\":5064:5072   */\n  dup5\n    /* \"#utility.yul\":5061:5078   */\n  gt\n    /* \"#utility.yul\":5058:5101   */\n  iszero\n  tag_102\n  jumpi\n    /* \"#utility.yul\":5081:5099   */\n  tag_102\n  tag_41\n  jump\t// in\ntag_102:\n  pop\n  pop\n    /* \"#utility.yul\":5137:5138   */\n  0x01\n    /* \"#utility.yul\":5123:5139   */\n  dup3\n  shl\n    /* \"#utility.yul\":5152:5157   */\n  jump(tag_95)\n    /* \"#utility.yul\":4949:5167   */\ntag_98:\n  pop\n    /* \"#utility.yul\":5251:5253   */\n  0x20\n    /* \"#utility.yul\":5241:5249   */\n  dup4\n    /* \"#utility.yul\":5238:5254   */\n  lt\n    /* \"#utility.yul\":5232:5235   */\n  0x0133\n    /* \"#utility.yul\":5226:5230   */\n  dup4\n    /* \"#utility.yul\":5223:5236   */\n  lt\n    /* \"#utility.yul\":5219:5255   */\n  and\n    /* \"#utility.yul\":5213:5215   */\n  0x4e\n    /* \"#utility.yul\":5203:5211   */\n  dup5\n    /* \"#utility.yul\":5200:5216   */\n  lt\n    /* \"#utility.yul\":5195:5197   */\n  0x0b\n    /* \"#utility.yul\":5189:5193   */\n  dup5\n    /* \"#utility.yul\":5186:5198   */\n  lt\n    /* \"#utility.yul\":5182:5217   */\n  and\n    /* \"#utility.yul\":5179:5256   */\n  or\n    /* \"#utility.yul\":5176:5335   */\n  iszero\n  tag_103\n  jumpi\n  pop\n    /* \"#utility.yul\":5288:5307   */\n  dup2\n  dup2\n  exp\n    /* \"#utility.yul\":5320:5325   */\n  jump(tag_95)\n    /* \"#utility.yul\":5176:5335   */\ntag_103:\n    /* \"#utility.yul\":5367:5401   */\n  tag_104\n    /* \"#utility.yul\":5392:5400   */\n  dup4\n    /* \"#utility.yul\":5386:5390   */\n  dup4\n    /* \"#utility.yul\":5367:5401   */\n  tag_42\n  jump\t// in\ntag_104:\n    /* \"#utility.yul\":5437:5443   */\n  dup1\n    /* \"#utility.yul\":5433:5434   */\n  0x00\n    /* \"#utility.yul\":5429:5435   */\n  not\n    /* \"#utility.yul\":5425:5444   */\n  div\n    /* \"#utility.yul\":5416:5423   */\n  dup3\n    /* \"#utility.yul\":5413:5445   */\n  gt\n    /* \"#utility.yul\":5410:5468   */\n  iszero\n  tag_106\n  jumpi\n    /* \"#utility.yul\":5448:5466   */\n  tag_106\n  tag_41\n  jump\t// in\ntag_106:\n    /* \"#utility.yul\":5486:5506   */\n  mul\n  swap1\n  pop\n    /* \"#utility.yul\":4706:5512   */\ntag_95:\n  swap3\n  swap2\n  pop\n  pop\n  jump\t// out\n    /* \"#utility.yul\":5517:5648   */\ntag_15:\n    /* \"#utility.yul\":5577:5582   */\n  0x00\n    /* \"#utility.yul\":5606:5642   */\n  tag_108\n    /* \"#utility.yul\":5633:5641   */\n  dup4\n    /* \"#utility.yul\":5627:5631   */\n  dup4\n    /* \"#utility.yul\":5606:5642   */\n  tag_43\n  jump\t// in\ntag_108:\n    /* \"#utility.yul\":5597:5642   */\n  swap4\n    /* \"#utility.yul\":5517:5648   */\n  swap3\n  pop\n  pop\n  pop\n  jump\t// out\n    /* \"#utility.yul\":5653:5821   */\ntag_17:\n    /* \"#utility.yul\":5726:5735   */\n  dup1\n  dup3\n  mul\n    /* \"#utility.yul\":5757:5766   */\n  dup2\n  iszero\n    /* \"#utility.yul\":5774:5789   */\n  dup3\n  dup3\n  div\n    /* \"#utility.yul\":5768:5790   */\n  dup5\n  eq\n    /* \"#utility.yul\":5754:5791   */\n  or\n    /* \"#utility.yul\":5744:5815   */\n  tag_95\n  jumpi\n    /* \"#utility.yul\":5795:5813   */\n  tag_95\n  tag_41\n  jump\t// in\n    /* \"#utility.yul\":6186:6311   */\ntag_28:\n    /* \"#utility.yul\":6251:6260   */\n  dup1\n  dup3\n  add\n    /* \"#utility.yul\":6272:6282   */\n  dup1\n  dup3\n  gt\n    /* \"#utility.yul\":6269:6305   */\n  iszero\n  tag_95\n  jumpi\n    /* \"#utility.yul\":6285:6303   */\n  tag_95\n  tag_41\n  jump\t// in\n    /* \"#utility.yul\":6316:6493   */\ntag_44:\n    /* \"ROO_Repurchase/contracts/erc20.sol\":5466:5905  contract CHE_USDT is ERC20 {... */\n  dataSize(sub_0)\n  dup1\n  dataOffset(sub_0)\n  0x00\n  codecopy\n  0x00\n  return\nstop\n\nsub_0: assembly {\n        /* \"ROO_Repurchase/contracts/erc20.sol\":5466:5905  contract CHE_USDT is ERC20 {... */\n      mstore(0x40, 0x80)\n      callvalue\n      dup1\n      iszero\n      tag_1\n      jumpi\n      0x00\n      dup1\n      revert\n    tag_1:\n      pop\n      jumpi(tag_2, lt(calldatasize, 0x04))\n      shr(0xe0, calldataload(0x00))\n      dup1\n      0x70a08231\n      gt\n      tag_16\n      jumpi\n      dup1\n      0xa0712d68\n      gt\n      tag_17\n      jumpi\n      dup1\n      0xa0712d68\n      eq\n      tag_12\n      jumpi\n      dup1\n      0xa457c2d7\n      eq\n      tag_13\n      jumpi\n      dup1\n      0xa9059cbb\n      eq\n      tag_14\n      jumpi\n      dup1\n      0xdd62ed3e\n      eq\n      tag_15\n      jumpi\n      0x00\n      dup1\n      revert\n    tag_17:\n      dup1\n      0x70a08231\n      eq\n      tag_9\n      jumpi\n      dup1\n      0x8da5cb5b\n      eq\n      tag_10\n      jumpi\n      dup1\n      0x95d89b41\n      eq\n      tag_11\n      jumpi\n      0x00\n      dup1\n      revert\n    tag_16:\n      dup1\n      0x06fdde03\n      eq\n      tag_3\n      jumpi\n      dup1\n      0x095ea7b3\n      eq\n      tag_4\n      jumpi\n      dup1\n      0x18160ddd\n      eq\n      tag_5\n      jumpi\n      dup1\n      0x23b872dd\n      eq\n      tag_6\n      jumpi\n      dup1\n      0x313ce567\n      eq\n      tag_7\n      jumpi\n      dup1\n      0x39509351\n      eq\n      tag_8\n      jumpi\n    tag_2:\n      0x00\n      dup1\n      revert\n        /* \"ROO_Repurchase/contracts/erc20.sol\":634:732  function name() public view virtual override returns (string memory) {... */\n    tag_3:\n      tag_18\n      tag_19\n      jump\t// in\n    tag_18:\n      mload(0x40)\n      tag_20\n      swap2\n      swap1\n      tag_21\n      jump\t// in\n    tag_20:\n      mload(0x40)\n      dup1\n      swap2\n      sub\n      swap1\n      return\n        /* \"ROO_Repurchase/contracts/erc20.sol\":1536:1733  function approve(address spender, uint256 amount) public virtual override returns (bool) {... */\n    tag_4:\n      tag_22\n      tag_23\n      calldatasize\n      0x04\n      tag_24\n      jump\t// in\n    tag_23:\n      tag_25\n      jump\t// in\n    tag_22:\n      mload(0x40)\n        /* \"#utility.yul\":1169:1183   */\n      swap1\n      iszero\n        /* \"#utility.yul\":1162:1184   */\n      iszero\n        /* \"#utility.yul\":1144:1185   */\n      dup2\n      mstore\n        /* \"#utility.yul\":1132:1134   */\n      0x20\n        /* \"#utility.yul\":1117:1135   */\n      add\n        /* \"ROO_Repurchase/contracts/erc20.sol\":1536:1733  function approve(address spender, uint256 amount) public virtual override returns (bool) {... */\n      tag_20\n        /* \"#utility.yul\":1004:1191   */\n      jump\n        /* \"ROO_Repurchase/contracts/erc20.sol\":943:1049  function totalSupply() public view virtual override returns (uint256) {... */\n    tag_5:\n        /* \"ROO_Repurchase/contracts/erc20.sol\":1030:1042  _totalSupply */\n      sload(0x02)\n        /* \"ROO_Repurchase/contracts/erc20.sol\":943:1049  function totalSupply() public view virtual override returns (uint256) {... */\n    tag_28:\n      mload(0x40)\n        /* \"#utility.yul\":1342:1367   */\n      swap1\n      dup2\n      mstore\n        /* \"#utility.yul\":1330:1332   */\n      0x20\n        /* \"#utility.yul\":1315:1333   */\n      add\n        /* \"ROO_Repurchase/contracts/erc20.sol\":943:1049  function totalSupply() public view virtual override returns (uint256) {... */\n      tag_20\n        /* \"#utility.yul\":1196:1373   */\n      jump\n        /* \"ROO_Repurchase/contracts/erc20.sol\":1739:1995  function transferFrom(address from, address to, uint256 amount) public virtual override returns (bool) {... */\n    tag_6:\n      tag_22\n      tag_33\n      calldatasize\n      0x04\n      tag_34\n      jump\t// in\n    tag_33:\n      tag_35\n      jump\t// in\n        /* \"ROO_Repurchase/contracts/erc20.sol\":846:937  function decimals() public view virtual override returns (uint8) {... */\n    tag_7:\n      mload(0x40)\n        /* \"ROO_Repurchase/contracts/erc20.sol\":928:930  18 */\n      0x12\n        /* \"#utility.yul\":1853:1889   */\n      dup2\n      mstore\n        /* \"#utility.yul\":1841:1843   */\n      0x20\n        /* \"#utility.yul\":1826:1844   */\n      add\n        /* \"ROO_Repurchase/contracts/erc20.sol\":846:937  function decimals() public view virtual override returns (uint8) {... */\n      tag_20\n        /* \"#utility.yul\":1711:1895   */\n      jump\n        /* \"ROO_Repurchase/contracts/erc20.sol\":2001:2235  function increaseAllowance(address spender, uint256 addedValue) public virtual returns (bool) {... */\n    tag_8:\n      tag_22\n      tag_42\n      calldatasize\n      0x04\n      tag_24\n      jump\t// in\n    tag_42:\n      tag_43\n      jump\t// in\n        /* \"ROO_Repurchase/contracts/erc20.sol\":1055:1180  function balanceOf(address account) public view virtual override returns (uint256) {... */\n    tag_9:\n      tag_28\n      tag_46\n      calldatasize\n      0x04\n      tag_47\n      jump\t// in\n    tag_46:\n      sub(shl(0xa0, 0x01), 0x01)\n        /* \"ROO_Repurchase/contracts/erc20.sol\":1155:1173  _balances[account] */\n      and\n        /* \"ROO_Repurchase/contracts/erc20.sol\":1129:1136  uint256 */\n      0x00\n        /* \"ROO_Repurchase/contracts/erc20.sol\":1155:1173  _balances[account] */\n      swap1\n      dup2\n      mstore\n      0x20\n      dup2\n      swap1\n      mstore\n      0x40\n      swap1\n      keccak256\n      sload\n      swap1\n        /* \"ROO_Repurchase/contracts/erc20.sol\":1055:1180  function balanceOf(address account) public view virtual override returns (uint256) {... */\n      jump\n        /* \"ROO_Repurchase/contracts/erc20.sol\":5500:5520  address public owner */\n    tag_10:\n      sload(0x05)\n      tag_50\n      swap1\n      sub(shl(0xa0, 0x01), 0x01)\n      and\n      dup2\n      jump\n    tag_50:\n      mload(0x40)\n      sub(shl(0xa0, 0x01), 0x01)\n        /* \"#utility.yul\":2255:2287   */\n      swap1\n      swap2\n      and\n        /* \"#utility.yul\":2237:2288   */\n      dup2\n      mstore\n        /* \"#utility.yul\":2225:2227   */\n      0x20\n        /* \"#utility.yul\":2210:2228   */\n      add\n        /* \"ROO_Repurchase/contracts/erc20.sol\":5500:5520  address public owner */\n      tag_20\n        /* \"#utility.yul\":2091:2294   */\n      jump\n        /* \"ROO_Repurchase/contracts/erc20.sol\":738:840  function symbol() public view virtual override returns (string memory) {... */\n    tag_11:\n      tag_18\n      tag_55\n      jump\t// in\n        /* \"ROO_Repurchase/contracts/erc20.sol\":5792:5903  function mint(uint amount) external Manager {... */\n    tag_12:\n      tag_57\n      tag_58\n      calldatasize\n      0x04\n      tag_59\n      jump\t// in\n    tag_58:\n      tag_60\n      jump\t// in\n    tag_57:\n      stop\n        /* \"ROO_Repurchase/contracts/erc20.sol\":2241:2668  function decreaseAllowance(address spender, uint256 subtractedValue) public virtual returns (bool) {... */\n    tag_13:\n      tag_22\n      tag_62\n      calldatasize\n      0x04\n      tag_24\n      jump\t// in\n    tag_62:\n      tag_63\n      jump\t// in\n        /* \"ROO_Repurchase/contracts/erc20.sol\":1186:1375  function transfer(address to, uint256 amount) public virtual override returns (bool) {... */\n    tag_14:\n      tag_22\n      tag_66\n      calldatasize\n      0x04\n      tag_24\n      jump\t// in\n    tag_66:\n      tag_67\n      jump\t// in\n        /* \"ROO_Repurchase/contracts/erc20.sol\":1381:1530  function allowance(address owner, address spender) public view virtual override returns (uint256) {... */\n    tag_15:\n      tag_28\n      tag_70\n      calldatasize\n      0x04\n      tag_71\n      jump\t// in\n    tag_70:\n      tag_72\n      jump\t// in\n        /* \"ROO_Repurchase/contracts/erc20.sol\":634:732  function name() public view virtual override returns (string memory) {... */\n    tag_19:\n        /* \"ROO_Repurchase/contracts/erc20.sol\":688:701  string memory */\n      0x60\n        /* \"ROO_Repurchase/contracts/erc20.sol\":720:725  _name */\n      0x03\n        /* \"ROO_Repurchase/contracts/erc20.sol\":713:725  return _name */\n      dup1\n      sload\n      tag_75\n      swap1\n      tag_76\n      jump\t// in\n    tag_75:\n      dup1\n      0x1f\n      add\n      0x20\n      dup1\n      swap2\n      div\n      mul\n      0x20\n      add\n      mload(0x40)\n      swap1\n      dup2\n      add\n      0x40\n      mstore\n      dup1\n      swap3\n      swap2\n      swap1\n      dup2\n      dup2\n      mstore\n      0x20\n      add\n      dup3\n      dup1\n      sload\n      tag_77\n      swap1\n      tag_76\n      jump\t// in\n    tag_77:\n      dup1\n      iszero\n      tag_78\n      jumpi\n      dup1\n      0x1f\n      lt\n      tag_79\n      jumpi\n      0x0100\n      dup1\n      dup4\n      sload\n      div\n      mul\n      dup4\n      mstore\n      swap2\n      0x20\n      add\n      swap2\n      jump(tag_78)\n    tag_79:\n      dup3\n      add\n      swap2\n      swap1\n      0x00\n      mstore\n      keccak256(0x00, 0x20)\n      swap1\n    tag_80:\n      dup2\n      sload\n      dup2\n      mstore\n      swap1\n      0x01\n      add\n      swap1\n      0x20\n      add\n      dup1\n      dup4\n      gt\n      tag_80\n      jumpi\n      dup3\n      swap1\n      sub\n      0x1f\n      and\n      dup3\n      add\n      swap2\n    tag_78:\n      pop\n      pop\n      pop\n      pop\n      pop\n      swap1\n      pop\n        /* \"ROO_Repurchase/contracts/erc20.sol\":634:732  function name() public view virtual override returns (string memory) {... */\n      swap1\n      jump\t// out\n        /* \"ROO_Repurchase/contracts/erc20.sol\":1536:1733  function approve(address spender, uint256 amount) public virtual override returns (bool) {... */\n    tag_25:\n        /* \"ROO_Repurchase/contracts/erc20.sol\":1619:1623  bool */\n      0x00\n        /* \"@openzeppelin/contracts/utils/Context.sol\":719:729  msg.sender */\n      caller\n        /* \"ROO_Repurchase/contracts/erc20.sol\":1673:1705  _approve(owner, spender, amount) */\n      tag_84\n        /* \"@openzeppelin/contracts/utils/Context.sol\":719:729  msg.sender */\n      dup2\n        /* \"ROO_Repurchase/contracts/erc20.sol\":1689:1696  spender */\n      dup6\n        /* \"ROO_Repurchase/contracts/erc20.sol\":1698:1704  amount */\n      dup6\n        /* \"ROO_Repurchase/contracts/erc20.sol\":1673:1681  _approve */\n      tag_85\n        /* \"ROO_Repurchase/contracts/erc20.sol\":1673:1705  _approve(owner, spender, amount) */\n      jump\t// in\n    tag_84:\n        /* \"ROO_Repurchase/contracts/erc20.sol\":1722:1726  true */\n      0x01\n        /* \"ROO_Repurchase/contracts/erc20.sol\":1715:1726  return true */\n      swap2\n      pop\n      pop\n        /* \"ROO_Repurchase/contracts/erc20.sol\":1536:1733  function approve(address spender, uint256 amount) public virtual override returns (bool) {... */\n    tag_81:\n      swap3\n      swap2\n      pop\n      pop\n      jump\t// out\n        /* \"ROO_Repurchase/contracts/erc20.sol\":1739:1995  function transferFrom(address from, address to, uint256 amount) public virtual override returns (bool) {... */\n    tag_35:\n        /* \"ROO_Repurchase/contracts/erc20.sol\":1836:1840  bool */\n      0x00\n        /* \"@openzeppelin/contracts/utils/Context.sol\":719:729  msg.sender */\n      caller\n        /* \"ROO_Repurchase/contracts/erc20.sol\":1892:1930  _spendAllowance(from, spender, amount) */\n      tag_89\n        /* \"ROO_Repurchase/contracts/erc20.sol\":1908:1912  from */\n      dup6\n        /* \"@openzeppelin/contracts/utils/Context.sol\":719:729  msg.sender */\n      dup3\n        /* \"ROO_Repurchase/contracts/erc20.sol\":1923:1929  amount */\n      dup6\n        /* \"ROO_Repurchase/contracts/erc20.sol\":1892:1907  _spendAllowance */\n      tag_90\n        /* \"ROO_Repurchase/contracts/erc20.sol\":1892:1930  _spendAllowance(from, spender, amount) */\n      jump\t// in\n    tag_89:\n        /* \"ROO_Repurchase/contracts/erc20.sol\":1940:1967  _transfer(from, to, amount) */\n      tag_91\n        /* \"ROO_Repurchase/contracts/erc20.sol\":1950:1954  from */\n      dup6\n        /* \"ROO_Repurchase/contracts/erc20.sol\":1956:1958  to */\n      dup6\n        /* \"ROO_Repurchase/contracts/erc20.sol\":1960:1966  amount */\n      dup6\n        /* \"ROO_Repurchase/contracts/erc20.sol\":1940:1949  _transfer */\n      tag_92\n        /* \"ROO_Repurchase/contracts/erc20.sol\":1940:1967  _transfer(from, to, amount) */\n      jump\t// in\n    tag_91:\n      pop\n        /* \"ROO_Repurchase/contracts/erc20.sol\":1984:1988  true */\n      0x01\n      swap5\n        /* \"ROO_Repurchase/contracts/erc20.sol\":1739:1995  function transferFrom(address from, address to, uint256 amount) public virtual override returns (bool) {... */\n      swap4\n      pop\n      pop\n      pop\n      pop\n      jump\t// out\n        /* \"ROO_Repurchase/contracts/erc20.sol\":2001:2235  function increaseAllowance(address spender, uint256 addedValue) public virtual returns (bool) {... */\n    tag_43:\n        /* \"ROO_Repurchase/contracts/erc20.sol\":2089:2093  bool */\n      0x00\n        /* \"@openzeppelin/contracts/utils/Context.sol\":719:729  msg.sender */\n      caller\n        /* \"ROO_Repurchase/contracts/erc20.sol\":2143:2207  _approve(owner, spender, allowance(owner, spender) + addedValue) */\n      tag_84\n        /* \"@openzeppelin/contracts/utils/Context.sol\":719:729  msg.sender */\n      dup2\n        /* \"ROO_Repurchase/contracts/erc20.sol\":2159:2166  spender */\n      dup6\n        /* \"ROO_Repurchase/contracts/erc20.sol\":2196:2206  addedValue */\n      dup6\n        /* \"ROO_Repurchase/contracts/erc20.sol\":2168:2193  allowance(owner, spender) */\n      tag_97\n        /* \"@openzeppelin/contracts/utils/Context.sol\":719:729  msg.sender */\n      dup4\n        /* \"ROO_Repurchase/contracts/erc20.sol\":2159:2166  spender */\n      dup4\n        /* \"ROO_Repurchase/contracts/erc20.sol\":2168:2177  allowance */\n      tag_72\n        /* \"ROO_Repurchase/contracts/erc20.sol\":2168:2193  allowance(owner, spender) */\n      jump\t// in\n    tag_97:\n        /* \"ROO_Repurchase/contracts/erc20.sol\":2168:2206  allowance(owner, spender) + addedValue */\n      tag_98\n      swap2\n      swap1\n      tag_99\n      jump\t// in\n    tag_98:\n        /* \"ROO_Repurchase/contracts/erc20.sol\":2143:2151  _approve */\n      tag_85\n        /* \"ROO_Repurchase/contracts/erc20.sol\":2143:2207  _approve(owner, spender, allowance(owner, spender) + addedValue) */\n      jump\t// in\n        /* \"ROO_Repurchase/contracts/erc20.sol\":738:840  function symbol() public view virtual override returns (string memory) {... */\n    tag_55:\n        /* \"ROO_Repurchase/contracts/erc20.sol\":794:807  string memory */\n      0x60\n        /* \"ROO_Repurchase/contracts/erc20.sol\":826:833  _symbol */\n      0x04\n        /* \"ROO_Repurchase/contracts/erc20.sol\":819:833  return _symbol */\n      dup1\n      sload\n      tag_75\n      swap1\n      tag_76\n      jump\t// in\n        /* \"ROO_Repurchase/contracts/erc20.sol\":5792:5903  function mint(uint amount) external Manager {... */\n    tag_60:\n        /* \"ROO_Repurchase/contracts/erc20.sol\":5735:5740  owner */\n      and(sub(shl(0xa0, 0x01), 0x01), sload(0x05))\n        /* \"ROO_Repurchase/contracts/erc20.sol\":5744:5754  msg.sender */\n      caller\n        /* \"ROO_Repurchase/contracts/erc20.sol\":5735:5754  owner == msg.sender */\n      eq\n        /* \"ROO_Repurchase/contracts/erc20.sol\":5727:5768  require(owner == msg.sender,\"NOT OWNER!\") */\n      tag_108\n      jumpi\n      mload(0x40)\n      shl(0xe5, 0x461bcd)\n      dup2\n      mstore\n        /* \"#utility.yul\":3598:3600   */\n      0x20\n        /* \"ROO_Repurchase/contracts/erc20.sol\":5727:5768  require(owner == msg.sender,\"NOT OWNER!\") */\n      0x04\n      dup3\n      add\n        /* \"#utility.yul\":3580:3601   */\n      mstore\n        /* \"#utility.yul\":3637:3639   */\n      0x0a\n        /* \"#utility.yul\":3617:3635   */\n      0x24\n      dup3\n      add\n        /* \"#utility.yul\":3610:3640   */\n      mstore\n      shl(0xb0, 0x4e4f54204f574e455221)\n        /* \"#utility.yul\":3656:3674   */\n      0x44\n      dup3\n      add\n        /* \"#utility.yul\":3649:3689   */\n      mstore\n        /* \"#utility.yul\":3706:3724   */\n      0x64\n      add\n        /* \"ROO_Repurchase/contracts/erc20.sol\":5727:5768  require(owner == msg.sender,\"NOT OWNER!\") */\n    tag_109:\n      mload(0x40)\n      dup1\n      swap2\n      sub\n      swap1\n      revert\n    tag_108:\n        /* \"ROO_Repurchase/contracts/erc20.sol\":5846:5896  _mint(msg.sender, amount * 10 ** uint(decimals())) */\n      tag_112\n        /* \"ROO_Repurchase/contracts/erc20.sol\":5852:5862  msg.sender */\n      caller\n        /* \"ROO_Repurchase/contracts/erc20.sol\":5873:5895  10 ** uint(decimals()) */\n      tag_114\n        /* \"ROO_Repurchase/contracts/erc20.sol\":928:930  18 */\n      0x12\n        /* \"ROO_Repurchase/contracts/erc20.sol\":5873:5875  10 */\n      0x0a\n        /* \"ROO_Repurchase/contracts/erc20.sol\":5873:5895  10 ** uint(decimals()) */\n      tag_115\n      jump\t// in\n    tag_114:\n        /* \"ROO_Repurchase/contracts/erc20.sol\":5864:5895  amount * 10 ** uint(decimals()) */\n      tag_116\n      swap1\n        /* \"ROO_Repurchase/contracts/erc20.sol\":5864:5870  amount */\n      dup5\n        /* \"ROO_Repurchase/contracts/erc20.sol\":5864:5895  amount * 10 ** uint(decimals()) */\n      tag_117\n      jump\t// in\n    tag_116:\n        /* \"ROO_Repurchase/contracts/erc20.sol\":5846:5851  _mint */\n      tag_118\n        /* \"ROO_Repurchase/contracts/erc20.sol\":5846:5896  _mint(msg.sender, amount * 10 ** uint(decimals())) */\n      jump\t// in\n    tag_112:\n        /* \"ROO_Repurchase/contracts/erc20.sol\":5792:5903  function mint(uint amount) external Manager {... */\n      pop\n      jump\t// out\n        /* \"ROO_Repurchase/contracts/erc20.sol\":2241:2668  function decreaseAllowance(address spender, uint256 subtractedValue) public virtual returns (bool) {... */\n    tag_63:\n        /* \"ROO_Repurchase/contracts/erc20.sol\":2334:2338  bool */\n      0x00\n        /* \"@openzeppelin/contracts/utils/Context.sol\":719:729  msg.sender */\n      caller\n        /* \"ROO_Repurchase/contracts/erc20.sol\":2334:2338  bool */\n      dup2\n        /* \"ROO_Repurchase/contracts/erc20.sol\":2415:2440  allowance(owner, spender) */\n      tag_121\n        /* \"@openzeppelin/contracts/utils/Context.sol\":719:729  msg.sender */\n      dup3\n        /* \"ROO_Repurchase/contracts/erc20.sol\":2432:2439  spender */\n      dup7\n        /* \"ROO_Repurchase/contracts/erc20.sol\":2415:2424  allowance */\n      tag_72\n        /* \"ROO_Repurchase/contracts/erc20.sol\":2415:2440  allowance(owner, spender) */\n      jump\t// in\n    tag_121:\n        /* \"ROO_Repurchase/contracts/erc20.sol\":2388:2440  uint256 currentAllowance = allowance(owner, spender) */\n      swap1\n      pop\n        /* \"ROO_Repurchase/contracts/erc20.sol\":2478:2493  subtractedValue */\n      dup4\n        /* \"ROO_Repurchase/contracts/erc20.sol\":2458:2474  currentAllowance */\n      dup2\n        /* \"ROO_Repurchase/contracts/erc20.sol\":2458:2493  currentAllowance >= subtractedValue */\n      lt\n      iszero\n        /* \"ROO_Repurchase/contracts/erc20.sol\":2450:2535  require(currentAllowance >= subtractedValue, \"ERC20: decreased allowance below zero\") */\n      tag_122\n      jumpi\n      mload(0x40)\n      shl(0xe5, 0x461bcd)\n      dup2\n      mstore\n        /* \"#utility.yul\":5484:5486   */\n      0x20\n        /* \"ROO_Repurchase/contracts/erc20.sol\":2450:2535  require(currentAllowance >= subtractedValue, \"ERC20: decreased allowance below zero\") */\n      0x04\n      dup3\n      add\n        /* \"#utility.yul\":5466:5487   */\n      mstore\n        /* \"#utility.yul\":5523:5525   */\n      0x25\n        /* \"#utility.yul\":5503:5521   */\n      0x24\n      dup3\n      add\n        /* \"#utility.yul\":5496:5526   */\n      mstore\n        /* \"#utility.yul\":5562:5596   */\n      0x45524332303a2064656372656173656420616c6c6f77616e63652062656c6f77\n        /* \"#utility.yul\":5542:5560   */\n      0x44\n      dup3\n      add\n        /* \"#utility.yul\":5535:5597   */\n      mstore\n      shl(0xd8, 0x207a65726f)\n        /* \"#utility.yul\":5613:5631   */\n      0x64\n      dup3\n      add\n        /* \"#utility.yul\":5606:5641   */\n      mstore\n        /* \"#utility.yul\":5658:5677   */\n      0x84\n      add\n        /* \"ROO_Repurchase/contracts/erc20.sol\":2450:2535  require(currentAllowance >= subtractedValue, \"ERC20: decreased allowance below zero\") */\n      tag_109\n        /* \"#utility.yul\":5282:5683   */\n      jump\n        /* \"ROO_Repurchase/contracts/erc20.sol\":2450:2535  require(currentAllowance >= subtractedValue, \"ERC20: decreased allowance below zero\") */\n    tag_122:\n        /* \"ROO_Repurchase/contracts/erc20.sol\":2569:2629  _approve(owner, spender, currentAllowance - subtractedValue) */\n      tag_91\n        /* \"ROO_Repurchase/contracts/erc20.sol\":2578:2583  owner */\n      dup3\n        /* \"ROO_Repurchase/contracts/erc20.sol\":2585:2592  spender */\n      dup7\n        /* \"ROO_Repurchase/contracts/erc20.sol\":2613:2628  subtractedValue */\n      dup7\n        /* \"ROO_Repurchase/contracts/erc20.sol\":2594:2610  currentAllowance */\n      dup5\n        /* \"ROO_Repurchase/contracts/erc20.sol\":2594:2628  currentAllowance - subtractedValue */\n      sub\n        /* \"ROO_Repurchase/contracts/erc20.sol\":2569:2577  _approve */\n      tag_85\n        /* \"ROO_Repurchase/contracts/erc20.sol\":2569:2629  _approve(owner, spender, currentAllowance - subtractedValue) */\n      jump\t// in\n        /* \"ROO_Repurchase/contracts/erc20.sol\":1186:1375  function transfer(address to, uint256 amount) public virtual override returns (bool) {... */\n    tag_67:\n        /* \"ROO_Repurchase/contracts/erc20.sol\":1265:1269  bool */\n      0x00\n        /* \"@openzeppelin/contracts/utils/Context.sol\":719:729  msg.sender */\n      caller\n        /* \"ROO_Repurchase/contracts/erc20.sol\":1319:1347  _transfer(owner, to, amount) */\n      tag_84\n        /* \"@openzeppelin/contracts/utils/Context.sol\":719:729  msg.sender */\n      dup2\n        /* \"ROO_Repurchase/contracts/erc20.sol\":1336:1338  to */\n      dup6\n        /* \"ROO_Repurchase/contracts/erc20.sol\":1340:1346  amount */\n      dup6\n        /* \"ROO_Repurchase/contracts/erc20.sol\":1319:1328  _transfer */\n      tag_92\n        /* \"ROO_Repurchase/contracts/erc20.sol\":1319:1347  _transfer(owner, to, amount) */\n      jump\t// in\n        /* \"ROO_Repurchase/contracts/erc20.sol\":1381:1530  function allowance(address owner, address spender) public view virtual override returns (uint256) {... */\n    tag_72:\n      sub(shl(0xa0, 0x01), 0x01)\n        /* \"ROO_Repurchase/contracts/erc20.sol\":1496:1514  _allowances[owner] */\n      swap2\n      dup3\n      and\n        /* \"ROO_Repurchase/contracts/erc20.sol\":1470:1477  uint256 */\n      0x00\n        /* \"ROO_Repurchase/contracts/erc20.sol\":1496:1514  _allowances[owner] */\n      swap1\n      dup2\n      mstore\n        /* \"ROO_Repurchase/contracts/erc20.sol\":1496:1507  _allowances */\n      0x01\n        /* \"ROO_Repurchase/contracts/erc20.sol\":1496:1514  _allowances[owner] */\n      0x20\n      swap1\n      dup2\n      mstore\n      0x40\n      dup1\n      dup4\n      keccak256\n        /* \"ROO_Repurchase/contracts/erc20.sol\":1496:1523  _allowances[owner][spender] */\n      swap4\n      swap1\n      swap5\n      and\n      dup3\n      mstore\n      swap2\n      swap1\n      swap2\n      mstore\n      keccak256\n      sload\n      swap1\n        /* \"ROO_Repurchase/contracts/erc20.sol\":1381:1530  function allowance(address owner, address spender) public view virtual override returns (uint256) {... */\n      jump\t// out\n        /* \"ROO_Repurchase/contracts/erc20.sol\":4511:4851  function _approve(address owner, address spender, uint256 amount) internal virtual {... */\n    tag_85:\n      sub(shl(0xa0, 0x01), 0x01)\n        /* \"ROO_Repurchase/contracts/erc20.sol\":4612:4631  owner != address(0) */\n      dup4\n      and\n        /* \"ROO_Repurchase/contracts/erc20.sol\":4604:4672  require(owner != address(0), \"ERC20: approve from the zero address\") */\n      tag_132\n      jumpi\n      mload(0x40)\n      shl(0xe5, 0x461bcd)\n      dup2\n      mstore\n        /* \"#utility.yul\":5890:5892   */\n      0x20\n        /* \"ROO_Repurchase/contracts/erc20.sol\":4604:4672  require(owner != address(0), \"ERC20: approve from the zero address\") */\n      0x04\n      dup3\n      add\n        /* \"#utility.yul\":5872:5893   */\n      mstore\n        /* \"#utility.yul\":5929:5931   */\n      0x24\n        /* \"#utility.yul\":5909:5927   */\n      dup1\n      dup3\n      add\n        /* \"#utility.yul\":5902:5932   */\n      mstore\n        /* \"#utility.yul\":5968:6002   */\n      0x45524332303a20617070726f76652066726f6d20746865207a65726f20616464\n        /* \"#utility.yul\":5948:5966   */\n      0x44\n      dup3\n      add\n        /* \"#utility.yul\":5941:6003   */\n      mstore\n      shl(0xe0, 0x72657373)\n        /* \"#utility.yul\":6019:6037   */\n      0x64\n      dup3\n      add\n        /* \"#utility.yul\":6012:6046   */\n      mstore\n        /* \"#utility.yul\":6063:6082   */\n      0x84\n      add\n        /* \"ROO_Repurchase/contracts/erc20.sol\":4604:4672  require(owner != address(0), \"ERC20: approve from the zero address\") */\n      tag_109\n        /* \"#utility.yul\":5688:6088   */\n      jump\n        /* \"ROO_Repurchase/contracts/erc20.sol\":4604:4672  require(owner != address(0), \"ERC20: approve from the zero address\") */\n    tag_132:\n      sub(shl(0xa0, 0x01), 0x01)\n        /* \"ROO_Repurchase/contracts/erc20.sol\":4690:4711  spender != address(0) */\n      dup3\n      and\n        /* \"ROO_Repurchase/contracts/erc20.sol\":4682:4750  require(spender != address(0), \"ERC20: approve to the zero address\") */\n      tag_135\n      jumpi\n      mload(0x40)\n      shl(0xe5, 0x461bcd)\n      dup2\n      mstore\n        /* \"#utility.yul\":6295:6297   */\n      0x20\n        /* \"ROO_Repurchase/contracts/erc20.sol\":4682:4750  require(spender != address(0), \"ERC20: approve to the zero address\") */\n      0x04\n      dup3\n      add\n        /* \"#utility.yul\":6277:6298   */\n      mstore\n        /* \"#utility.yul\":6334:6336   */\n      0x22\n        /* \"#utility.yul\":6314:6332   */\n      0x24\n      dup3\n      add\n        /* \"#utility.yul\":6307:6337   */\n      mstore\n        /* \"#utility.yul\":6373:6407   */\n      0x45524332303a20617070726f766520746f20746865207a65726f206164647265\n        /* \"#utility.yul\":6353:6371   */\n      0x44\n      dup3\n      add\n        /* \"#utility.yul\":6346:6408   */\n      mstore\n      shl(0xf0, 0x7373)\n        /* \"#utility.yul\":6424:6442   */\n      0x64\n      dup3\n      add\n        /* \"#utility.yul\":6417:6449   */\n      mstore\n        /* \"#utility.yul\":6466:6485   */\n      0x84\n      add\n        /* \"ROO_Repurchase/contracts/erc20.sol\":4682:4750  require(spender != address(0), \"ERC20: approve to the zero address\") */\n      tag_109\n        /* \"#utility.yul\":6093:6491   */\n      jump\n        /* \"ROO_Repurchase/contracts/erc20.sol\":4682:4750  require(spender != address(0), \"ERC20: approve to the zero address\") */\n    tag_135:\n      sub(shl(0xa0, 0x01), 0x01)\n        /* \"ROO_Repurchase/contracts/erc20.sol\":4761:4779  _allowances[owner] */\n      dup4\n      dup2\n      and\n      0x00\n      dup2\n      dup2\n      mstore\n        /* \"ROO_Repurchase/contracts/erc20.sol\":4761:4772  _allowances */\n      0x01\n        /* \"ROO_Repurchase/contracts/erc20.sol\":4761:4779  _allowances[owner] */\n      0x20\n      swap1\n      dup2\n      mstore\n      0x40\n      dup1\n      dup4\n      keccak256\n        /* \"ROO_Repurchase/contracts/erc20.sol\":4761:4788  _allowances[owner][spender] */\n      swap5\n      dup8\n      and\n      dup1\n      dup5\n      mstore\n      swap5\n      dup3\n      mstore\n      swap2\n      dup3\n      swap1\n      keccak256\n        /* \"ROO_Repurchase/contracts/erc20.sol\":4761:4797  _allowances[owner][spender] = amount */\n      dup6\n      swap1\n      sstore\n        /* \"ROO_Repurchase/contracts/erc20.sol\":4812:4844  Approval(owner, spender, amount) */\n      swap1\n      mload\n        /* \"#utility.yul\":1342:1367   */\n      dup5\n      dup2\n      mstore\n        /* \"ROO_Repurchase/contracts/erc20.sol\":4812:4844  Approval(owner, spender, amount) */\n      0x8c5be1e5ebec7d5bd14f71427d1e84f3dd0314c0f7b2291e5b200ac8c7c3b925\n      swap2\n        /* \"#utility.yul\":1315:1333   */\n      add\n        /* \"ROO_Repurchase/contracts/erc20.sol\":4812:4844  Approval(owner, spender, amount) */\n      mload(0x40)\n      dup1\n      swap2\n      sub\n      swap1\n      log3\n        /* \"ROO_Repurchase/contracts/erc20.sol\":4511:4851  function _approve(address owner, address spender, uint256 amount) internal virtual {... */\n      pop\n      pop\n      pop\n      jump\t// out\n        /* \"ROO_Repurchase/contracts/erc20.sol\":4857:5268  function _spendAllowance(address owner, address spender, uint256 amount) internal virtual {... */\n    tag_90:\n        /* \"ROO_Repurchase/contracts/erc20.sol\":4957:4981  uint256 currentAllowance */\n      0x00\n        /* \"ROO_Repurchase/contracts/erc20.sol\":4984:5009  allowance(owner, spender) */\n      tag_140\n        /* \"ROO_Repurchase/contracts/erc20.sol\":4994:4999  owner */\n      dup5\n        /* \"ROO_Repurchase/contracts/erc20.sol\":5001:5008  spender */\n      dup5\n        /* \"ROO_Repurchase/contracts/erc20.sol\":4984:4993  allowance */\n      tag_72\n        /* \"ROO_Repurchase/contracts/erc20.sol\":4984:5009  allowance(owner, spender) */\n      jump\t// in\n    tag_140:\n        /* \"ROO_Repurchase/contracts/erc20.sol\":4957:5009  uint256 currentAllowance = allowance(owner, spender) */\n      swap1\n      pop\n      not(0x00)\n        /* \"ROO_Repurchase/contracts/erc20.sol\":5023:5039  currentAllowance */\n      dup2\n        /* \"ROO_Repurchase/contracts/erc20.sol\":5023:5060  currentAllowance != type(uint256).max */\n      eq\n        /* \"ROO_Repurchase/contracts/erc20.sol\":5019:5262  if (currentAllowance != type(uint256).max) {... */\n      tag_145\n      jumpi\n        /* \"ROO_Repurchase/contracts/erc20.sol\":5104:5110  amount */\n      dup2\n        /* \"ROO_Repurchase/contracts/erc20.sol\":5084:5100  currentAllowance */\n      dup2\n        /* \"ROO_Repurchase/contracts/erc20.sol\":5084:5110  currentAllowance >= amount */\n      lt\n      iszero\n        /* \"ROO_Repurchase/contracts/erc20.sol\":5076:5144  require(currentAllowance >= amount, \"ERC20: insufficient allowance\") */\n      tag_142\n      jumpi\n      mload(0x40)\n      shl(0xe5, 0x461bcd)\n      dup2\n      mstore\n        /* \"#utility.yul\":6698:6700   */\n      0x20\n        /* \"ROO_Repurchase/contracts/erc20.sol\":5076:5144  require(currentAllowance >= amount, \"ERC20: insufficient allowance\") */\n      0x04\n      dup3\n      add\n        /* \"#utility.yul\":6680:6701   */\n      mstore\n        /* \"#utility.yul\":6737:6739   */\n      0x1d\n        /* \"#utility.yul\":6717:6735   */\n      0x24\n      dup3\n      add\n        /* \"#utility.yul\":6710:6740   */\n      mstore\n        /* \"#utility.yul\":6776:6807   */\n      0x45524332303a20696e73756666696369656e7420616c6c6f77616e6365000000\n        /* \"#utility.yul\":6756:6774   */\n      0x44\n      dup3\n      add\n        /* \"#utility.yul\":6749:6808   */\n      mstore\n        /* \"#utility.yul\":6825:6843   */\n      0x64\n      add\n        /* \"ROO_Repurchase/contracts/erc20.sol\":5076:5144  require(currentAllowance >= amount, \"ERC20: insufficient allowance\") */\n      tag_109\n        /* \"#utility.yul\":6496:6849   */\n      jump\n        /* \"ROO_Repurchase/contracts/erc20.sol\":5076:5144  require(currentAllowance >= amount, \"ERC20: insufficient allowance\") */\n    tag_142:\n        /* \"ROO_Repurchase/contracts/erc20.sol\":5186:5237  _approve(owner, spender, currentAllowance - amount) */\n      tag_145\n        /* \"ROO_Repurchase/contracts/erc20.sol\":5195:5200  owner */\n      dup5\n        /* \"ROO_Repurchase/contracts/erc20.sol\":5202:5209  spender */\n      dup5\n        /* \"ROO_Repurchase/contracts/erc20.sol\":5230:5236  amount */\n      dup5\n        /* \"ROO_Repurchase/contracts/erc20.sol\":5211:5227  currentAllowance */\n      dup5\n        /* \"ROO_Repurchase/contracts/erc20.sol\":5211:5236  currentAllowance - amount */\n      sub\n        /* \"ROO_Repurchase/contracts/erc20.sol\":5186:5194  _approve */\n      tag_85\n        /* \"ROO_Repurchase/contracts/erc20.sol\":5186:5237  _approve(owner, spender, currentAllowance - amount) */\n      jump\t// in\n    tag_145:\n        /* \"ROO_Repurchase/contracts/erc20.sol\":4947:5268  {... */\n      pop\n        /* \"ROO_Repurchase/contracts/erc20.sol\":4857:5268  function _spendAllowance(address owner, address spender, uint256 amount) internal virtual {... */\n      pop\n      pop\n      pop\n      jump\t// out\n        /* \"ROO_Repurchase/contracts/erc20.sol\":2674:3299  function _transfer(address from, address to, uint256 amount) internal virtual {... */\n    tag_92:\n      sub(shl(0xa0, 0x01), 0x01)\n        /* \"ROO_Repurchase/contracts/erc20.sol\":2770:2788  from != address(0) */\n      dup4\n      and\n        /* \"ROO_Repurchase/contracts/erc20.sol\":2762:2830  require(from != address(0), \"ERC20: transfer from the zero address\") */\n      tag_147\n      jumpi\n      mload(0x40)\n      shl(0xe5, 0x461bcd)\n      dup2\n      mstore\n        /* \"#utility.yul\":7056:7058   */\n      0x20\n        /* \"ROO_Repurchase/contracts/erc20.sol\":2762:2830  require(from != address(0), \"ERC20: transfer from the zero address\") */\n      0x04\n      dup3\n      add\n        /* \"#utility.yul\":7038:7059   */\n      mstore\n        /* \"#utility.yul\":7095:7097   */\n      0x25\n        /* \"#utility.yul\":7075:7093   */\n      0x24\n      dup3\n      add\n        /* \"#utility.yul\":7068:7098   */\n      mstore\n        /* \"#utility.yul\":7134:7168   */\n      0x45524332303a207472616e736665722066726f6d20746865207a65726f206164\n        /* \"#utility.yul\":7114:7132   */\n      0x44\n      dup3\n      add\n        /* \"#utility.yul\":7107:7169   */\n      mstore\n      shl(0xd8, 0x6472657373)\n        /* \"#utility.yul\":7185:7203   */\n      0x64\n      dup3\n      add\n        /* \"#utility.yul\":7178:7213   */\n      mstore\n        /* \"#utility.yul\":7230:7249   */\n      0x84\n      add\n        /* \"ROO_Repurchase/contracts/erc20.sol\":2762:2830  require(from != address(0), \"ERC20: transfer from the zero address\") */\n      tag_109\n        /* \"#utility.yul\":6854:7255   */\n      jump\n        /* \"ROO_Repurchase/contracts/erc20.sol\":2762:2830  require(from != address(0), \"ERC20: transfer from the zero address\") */\n    tag_147:\n      sub(shl(0xa0, 0x01), 0x01)\n        /* \"ROO_Repurchase/contracts/erc20.sol\":2848:2864  to != address(0) */\n      dup3\n      and\n        /* \"ROO_Repurchase/contracts/erc20.sol\":2840:2904  require(to != address(0), \"ERC20: transfer to the zero address\") */\n      tag_150\n      jumpi\n      mload(0x40)\n      shl(0xe5, 0x461bcd)\n      dup2\n      mstore\n        /* \"#utility.yul\":7462:7464   */\n      0x20\n        /* \"ROO_Repurchase/contracts/erc20.sol\":2840:2904  require(to != address(0), \"ERC20: transfer to the zero address\") */\n      0x04\n      dup3\n      add\n        /* \"#utility.yul\":7444:7465   */\n      mstore\n        /* \"#utility.yul\":7501:7503   */\n      0x23\n        /* \"#utility.yul\":7481:7499   */\n      0x24\n      dup3\n      add\n        /* \"#utility.yul\":7474:7504   */\n      mstore\n        /* \"#utility.yul\":7540:7574   */\n      0x45524332303a207472616e7366657220746f20746865207a65726f2061646472\n        /* \"#utility.yul\":7520:7538   */\n      0x44\n      dup3\n      add\n        /* \"#utility.yul\":7513:7575   */\n      mstore\n      shl(0xe8, 0x657373)\n        /* \"#utility.yul\":7591:7609   */\n      0x64\n      dup3\n      add\n        /* \"#utility.yul\":7584:7617   */\n      mstore\n        /* \"#utility.yul\":7634:7653   */\n      0x84\n      add\n        /* \"ROO_Repurchase/contracts/erc20.sol\":2840:2904  require(to != address(0), \"ERC20: transfer to the zero address\") */\n      tag_109\n        /* \"#utility.yul\":7260:7659   */\n      jump\n        /* \"ROO_Repurchase/contracts/erc20.sol\":2840:2904  require(to != address(0), \"ERC20: transfer to the zero address\") */\n    tag_150:\n      sub(shl(0xa0, 0x01), 0x01)\n        /* \"ROO_Repurchase/contracts/erc20.sol\":2986:3001  _balances[from] */\n      dup4\n      and\n        /* \"ROO_Repurchase/contracts/erc20.sol\":2964:2983  uint256 fromBalance */\n      0x00\n        /* \"ROO_Repurchase/contracts/erc20.sol\":2986:3001  _balances[from] */\n      swap1\n      dup2\n      mstore\n      0x20\n      dup2\n      swap1\n      mstore\n      0x40\n      swap1\n      keccak256\n      sload\n        /* \"ROO_Repurchase/contracts/erc20.sol\":3019:3040  fromBalance >= amount */\n      dup2\n      dup2\n      lt\n      iszero\n        /* \"ROO_Repurchase/contracts/erc20.sol\":3011:3083  require(fromBalance >= amount, \"ERC20: transfer amount exceeds balance\") */\n      tag_155\n      jumpi\n      mload(0x40)\n      shl(0xe5, 0x461bcd)\n      dup2\n      mstore\n        /* \"#utility.yul\":7866:7868   */\n      0x20\n        /* \"ROO_Repurchase/contracts/erc20.sol\":3011:3083  require(fromBalance >= amount, \"ERC20: transfer amount exceeds balance\") */\n      0x04\n      dup3\n      add\n        /* \"#utility.yul\":7848:7869   */\n      mstore\n        /* \"#utility.yul\":7905:7907   */\n      0x26\n        /* \"#utility.yul\":7885:7903   */\n      0x24\n      dup3\n      add\n        /* \"#utility.yul\":7878:7908   */\n      mstore\n        /* \"#utility.yul\":7944:7978   */\n      0x45524332303a207472616e7366657220616d6f756e7420657863656564732062\n        /* \"#utility.yul\":7924:7942   */\n      0x44\n      dup3\n      add\n        /* \"#utility.yul\":7917:7979   */\n      mstore\n      shl(0xd0, 0x616c616e6365)\n        /* \"#utility.yul\":7995:8013   */\n      0x64\n      dup3\n      add\n        /* \"#utility.yul\":7988:8024   */\n      mstore\n        /* \"#utility.yul\":8041:8060   */\n      0x84\n      add\n        /* \"ROO_Repurchase/contracts/erc20.sol\":3011:3083  require(fromBalance >= amount, \"ERC20: transfer amount exceeds balance\") */\n      tag_109\n        /* \"#utility.yul\":7664:8066   */\n      jump\n        /* \"ROO_Repurchase/contracts/erc20.sol\":3011:3083  require(fromBalance >= amount, \"ERC20: transfer amount exceeds balance\") */\n    tag_155:\n      sub(shl(0xa0, 0x01), 0x01)\n        /* \"ROO_Repurchase/contracts/erc20.sol\":3117:3132  _balances[from] */\n      dup5\n      dup2\n      and\n        /* \"ROO_Repurchase/contracts/erc20.sol\":3117:3126  _balances */\n      0x00\n        /* \"ROO_Repurchase/contracts/erc20.sol\":3117:3132  _balances[from] */\n      dup2\n      dup2\n      mstore\n      0x20\n      dup2\n      dup2\n      mstore\n      0x40\n      dup1\n      dup4\n      keccak256\n        /* \"ROO_Repurchase/contracts/erc20.sol\":3135:3155  fromBalance - amount */\n      dup8\n      dup8\n      sub\n        /* \"ROO_Repurchase/contracts/erc20.sol\":3117:3155  _balances[from] = fromBalance - amount */\n      swap1\n      sstore\n        /* \"ROO_Repurchase/contracts/erc20.sol\":3169:3182  _balances[to] */\n      swap4\n      dup8\n      and\n      dup1\n      dup4\n      mstore\n      swap2\n      dup5\n      swap1\n      keccak256\n        /* \"ROO_Repurchase/contracts/erc20.sol\":3169:3192  _balances[to] += amount */\n      dup1\n      sload\n      dup8\n      add\n      swap1\n      sstore\n        /* \"ROO_Repurchase/contracts/erc20.sol\":3218:3244  Transfer(from, to, amount) */\n      swap3\n      mload\n        /* \"#utility.yul\":1342:1367   */\n      dup6\n      dup2\n      mstore\n        /* \"ROO_Repurchase/contracts/erc20.sol\":3169:3182  _balances[to] */\n      swap1\n      swap3\n        /* \"ROO_Repurchase/contracts/erc20.sol\":3218:3244  Transfer(from, to, amount) */\n      0xddf252ad1be2c89b69c2b068fc378daa952ba7f163c4a11628f55a4df523b3ef\n      swap2\n        /* \"#utility.yul\":1315:1333   */\n      add\n        /* \"ROO_Repurchase/contracts/erc20.sol\":3218:3244  Transfer(from, to, amount) */\n      mload(0x40)\n      dup1\n      swap2\n      sub\n      swap1\n      log3\n        /* \"ROO_Repurchase/contracts/erc20.sol\":3255:3292  _afterTokenTransfer(from, to, amount) */\n      tag_145\n        /* \"ROO_Repurchase/contracts/erc20.sol\":5274:5365  function _beforeTokenTransfer(address from, address to, uint256 amount) internal virtual {} */\n      jump\n        /* \"ROO_Repurchase/contracts/erc20.sol\":3305:3840  function _mint(address account, uint256 amount) internal virtual {... */\n    tag_118:\n      sub(shl(0xa0, 0x01), 0x01)\n        /* \"ROO_Repurchase/contracts/erc20.sol\":3388:3409  account != address(0) */\n      dup3\n      and\n        /* \"ROO_Repurchase/contracts/erc20.sol\":3380:3445  require(account != address(0), \"ERC20: mint to the zero address\") */\n      tag_162\n      jumpi\n      mload(0x40)\n      shl(0xe5, 0x461bcd)\n      dup2\n      mstore\n        /* \"#utility.yul\":8273:8275   */\n      0x20\n        /* \"ROO_Repurchase/contracts/erc20.sol\":3380:3445  require(account != address(0), \"ERC20: mint to the zero address\") */\n      0x04\n      dup3\n      add\n        /* \"#utility.yul\":8255:8276   */\n      mstore\n        /* \"#utility.yul\":8312:8314   */\n      0x1f\n        /* \"#utility.yul\":8292:8310   */\n      0x24\n      dup3\n      add\n        /* \"#utility.yul\":8285:8315   */\n      mstore\n        /* \"#utility.yul\":8351:8384   */\n      0x45524332303a206d696e7420746f20746865207a65726f206164647265737300\n        /* \"#utility.yul\":8331:8349   */\n      0x44\n      dup3\n      add\n        /* \"#utility.yul\":8324:8385   */\n      mstore\n        /* \"#utility.yul\":8402:8420   */\n      0x64\n      add\n        /* \"ROO_Repurchase/contracts/erc20.sol\":3380:3445  require(account != address(0), \"ERC20: mint to the zero address\") */\n      tag_109\n        /* \"#utility.yul\":8071:8426   */\n      jump\n        /* \"ROO_Repurchase/contracts/erc20.sol\":3380:3445  require(account != address(0), \"ERC20: mint to the zero address\") */\n    tag_162:\n        /* \"ROO_Repurchase/contracts/erc20.sol\":3532:3538  amount */\n      dup1\n        /* \"ROO_Repurchase/contracts/erc20.sol\":3516:3528  _totalSupply */\n      0x02\n      0x00\n        /* \"ROO_Repurchase/contracts/erc20.sol\":3516:3538  _totalSupply += amount */\n      dup3\n      dup3\n      sload\n      tag_166\n      swap2\n      swap1\n      tag_99\n      jump\t// in\n    tag_166:\n      swap1\n      swap2\n      sstore\n      pop\n      pop\n      sub(shl(0xa0, 0x01), 0x01)\n        /* \"ROO_Repurchase/contracts/erc20.sol\":3684:3702  _balances[account] */\n      dup3\n      and\n        /* \"ROO_Repurchase/contracts/erc20.sol\":3684:3693  _balances */\n      0x00\n        /* \"ROO_Repurchase/contracts/erc20.sol\":3684:3702  _balances[account] */\n      dup2\n      dup2\n      mstore\n      0x20\n      dup2\n      dup2\n      mstore\n      0x40\n      dup1\n      dup4\n      keccak256\n        /* \"ROO_Repurchase/contracts/erc20.sol\":3684:3712  _balances[account] += amount */\n      dup1\n      sload\n      dup7\n      add\n      swap1\n      sstore\n        /* \"ROO_Repurchase/contracts/erc20.sol\":3737:3774  Transfer(address(0), account, amount) */\n      mload\n        /* \"#utility.yul\":1342:1367   */\n      dup5\n      dup2\n      mstore\n        /* \"ROO_Repurchase/contracts/erc20.sol\":3737:3774  Transfer(address(0), account, amount) */\n      0xddf252ad1be2c89b69c2b068fc378daa952ba7f163c4a11628f55a4df523b3ef\n      swap2\n        /* \"#utility.yul\":1315:1333   */\n      add\n        /* \"ROO_Repurchase/contracts/erc20.sol\":3737:3774  Transfer(address(0), account, amount) */\n      mload(0x40)\n      dup1\n      swap2\n      sub\n      swap1\n      log3\n        /* \"ROO_Repurchase/contracts/erc20.sol\":3305:3840  function _mint(address account, uint256 amount) internal virtual {... */\n      pop\n      pop\n      jump\t// out\n        /* \"#utility.yul\":14:562   */\n    tag_21:\n        /* \"#utility.yul\":126:130   */\n      0x00\n        /* \"#utility.yul\":155:157   */\n      0x20\n        /* \"#utility.yul\":184:186   */\n      dup1\n        /* \"#utility.yul\":173:182   */\n      dup4\n        /* \"#utility.yul\":166:187   */\n      mstore\n        /* \"#utility.yul\":216:222   */\n      dup4\n        /* \"#utility.yul\":210:223   */\n      mload\n        /* \"#utility.yul\":259:265   */\n      dup1\n        /* \"#utility.yul\":254:256   */\n      dup3\n        /* \"#utility.yul\":243:252   */\n      dup6\n        /* \"#utility.yul\":239:257   */\n      add\n        /* \"#utility.yul\":232:266   */\n      mstore\n        /* \"#utility.yul\":284:285   */\n      0x00\n        /* \"#utility.yul\":294:434   */\n    tag_177:\n        /* \"#utility.yul\":308:314   */\n      dup2\n        /* \"#utility.yul\":305:306   */\n      dup2\n        /* \"#utility.yul\":302:315   */\n      lt\n        /* \"#utility.yul\":294:434   */\n      iszero\n      tag_179\n      jumpi\n        /* \"#utility.yul\":403:417   */\n      dup6\n      dup2\n      add\n        /* \"#utility.yul\":399:422   */\n      dup4\n      add\n        /* \"#utility.yul\":393:423   */\n      mload\n        /* \"#utility.yul\":369:386   */\n      dup6\n      dup3\n      add\n        /* \"#utility.yul\":388:390   */\n      0x40\n        /* \"#utility.yul\":365:391   */\n      add\n        /* \"#utility.yul\":358:424   */\n      mstore\n        /* \"#utility.yul\":323:333   */\n      dup3\n      add\n        /* \"#utility.yul\":294:434   */\n      jump(tag_177)\n    tag_179:\n        /* \"#utility.yul\":298:301   */\n      pop\n        /* \"#utility.yul\":483:484   */\n      0x00\n        /* \"#utility.yul\":478:480   */\n      0x40\n        /* \"#utility.yul\":469:475   */\n      dup3\n        /* \"#utility.yul\":458:467   */\n      dup7\n        /* \"#utility.yul\":454:476   */\n      add\n        /* \"#utility.yul\":450:481   */\n      add\n        /* \"#utility.yul\":443:485   */\n      mstore\n        /* \"#utility.yul\":553:555   */\n      0x40\n        /* \"#utility.yul\":546:548   */\n      0x1f\n        /* \"#utility.yul\":542:549   */\n      not\n        /* \"#utility.yul\":537:539   */\n      0x1f\n        /* \"#utility.yul\":529:535   */\n      dup4\n        /* \"#utility.yul\":525:540   */\n      add\n        /* \"#utility.yul\":521:550   */\n      and\n        /* \"#utility.yul\":510:519   */\n      dup6\n        /* \"#utility.yul\":506:551   */\n      add\n        /* \"#utility.yul\":502:556   */\n      add\n        /* \"#utility.yul\":494:556   */\n      swap3\n      pop\n      pop\n      pop\n        /* \"#utility.yul\":14:562   */\n      swap3\n      swap2\n      pop\n      pop\n      jump\t// out\n        /* \"#utility.yul\":567:740   */\n    tag_171:\n        /* \"#utility.yul\":635:655   */\n      dup1\n      calldataload\n      sub(shl(0xa0, 0x01), 0x01)\n        /* \"#utility.yul\":684:715   */\n      dup2\n      and\n        /* \"#utility.yul\":674:716   */\n      dup2\n      eq\n        /* \"#utility.yul\":664:734   */\n      tag_181\n      jumpi\n        /* \"#utility.yul\":730:731   */\n      0x00\n        /* \"#utility.yul\":727:728   */\n      dup1\n        /* \"#utility.yul\":720:732   */\n      revert\n        /* \"#utility.yul\":664:734   */\n    tag_181:\n        /* \"#utility.yul\":567:740   */\n      swap2\n      swap1\n      pop\n      jump\t// out\n        /* \"#utility.yul\":745:999   */\n    tag_24:\n        /* \"#utility.yul\":813:819   */\n      0x00\n        /* \"#utility.yul\":821:827   */\n      dup1\n        /* \"#utility.yul\":874:876   */\n      0x40\n        /* \"#utility.yul\":862:871   */\n      dup4\n        /* \"#utility.yul\":853:860   */\n      dup6\n        /* \"#utility.yul\":849:872   */\n      sub\n        /* \"#utility.yul\":845:877   */\n      slt\n        /* \"#utility.yul\":842:894   */\n      iszero\n      tag_183\n      jumpi\n        /* \"#utility.yul\":890:891   */\n      0x00\n        /* \"#utility.yul\":887:888   */\n      dup1\n        /* \"#utility.yul\":880:892   */\n      revert\n        /* \"#utility.yul\":842:894   */\n    tag_183:\n        /* \"#utility.yul\":913:942   */\n      tag_184\n        /* \"#utility.yul\":932:941   */\n      dup4\n        /* \"#utility.yul\":913:942   */\n      tag_171\n      jump\t// in\n    tag_184:\n        /* \"#utility.yul\":903:942   */\n      swap5\n        /* \"#utility.yul\":989:991   */\n      0x20\n        /* \"#utility.yul\":974:992   */\n      swap4\n      swap1\n      swap4\n      add\n        /* \"#utility.yul\":961:993   */\n      calldataload\n      swap4\n      pop\n      pop\n      pop\n        /* \"#utility.yul\":745:999   */\n      jump\t// out\n        /* \"#utility.yul\":1378:1706   */\n    tag_34:\n        /* \"#utility.yul\":1455:1461   */\n      0x00\n        /* \"#utility.yul\":1463:1469   */\n      dup1\n        /* \"#utility.yul\":1471:1477   */\n      0x00\n        /* \"#utility.yul\":1524:1526   */\n      0x60\n        /* \"#utility.yul\":1512:1521   */\n      dup5\n        /* \"#utility.yul\":1503:1510   */\n      dup7\n        /* \"#utility.yul\":1499:1522   */\n      sub\n        /* \"#utility.yul\":1495:1527   */\n      slt\n        /* \"#utility.yul\":1492:1544   */\n      iszero\n      tag_188\n      jumpi\n        /* \"#utility.yul\":1540:1541   */\n      0x00\n        /* \"#utility.yul\":1537:1538   */\n      dup1\n        /* \"#utility.yul\":1530:1542   */\n      revert\n        /* \"#utility.yul\":1492:1544   */\n    tag_188:\n        /* \"#utility.yul\":1563:1592   */\n      tag_189\n        /* \"#utility.yul\":1582:1591   */\n      dup5\n        /* \"#utility.yul\":1563:1592   */\n      tag_171\n      jump\t// in\n    tag_189:\n        /* \"#utility.yul\":1553:1592   */\n      swap3\n      pop\n        /* \"#utility.yul\":1611:1649   */\n      tag_190\n        /* \"#utility.yul\":1645:1647   */\n      0x20\n        /* \"#utility.yul\":1634:1643   */\n      dup6\n        /* \"#utility.yul\":1630:1648   */\n      add\n        /* \"#utility.yul\":1611:1649   */\n      tag_171\n      jump\t// in\n    tag_190:\n        /* \"#utility.yul\":1601:1649   */\n      swap2\n      pop\n        /* \"#utility.yul\":1696:1698   */\n      0x40\n        /* \"#utility.yul\":1685:1694   */\n      dup5\n        /* \"#utility.yul\":1681:1699   */\n      add\n        /* \"#utility.yul\":1668:1700   */\n      calldataload\n        /* \"#utility.yul\":1658:1700   */\n      swap1\n      pop\n        /* \"#utility.yul\":1378:1706   */\n      swap3\n      pop\n      swap3\n      pop\n      swap3\n      jump\t// out\n        /* \"#utility.yul\":1900:2086   */\n    tag_47:\n        /* \"#utility.yul\":1959:1965   */\n      0x00\n        /* \"#utility.yul\":2012:2014   */\n      0x20\n        /* \"#utility.yul\":2000:2009   */\n      dup3\n        /* \"#utility.yul\":1991:1998   */\n      dup5\n        /* \"#utility.yul\":1987:2010   */\n      sub\n        /* \"#utility.yul\":1983:2015   */\n      slt\n        /* \"#utility.yul\":1980:2032   */\n      iszero\n      tag_193\n      jumpi\n        /* \"#utility.yul\":2028:2029   */\n      0x00\n        /* \"#utility.yul\":2025:2026   */\n      dup1\n        /* \"#utility.yul\":2018:2030   */\n      revert\n        /* \"#utility.yul\":1980:2032   */\n    tag_193:\n        /* \"#utility.yul\":2051:2080   */\n      tag_194\n        /* \"#utility.yul\":2070:2079   */\n      dup3\n        /* \"#utility.yul\":2051:2080   */\n      tag_171\n      jump\t// in\n    tag_194:\n        /* \"#utility.yul\":2041:2080   */\n      swap4\n        /* \"#utility.yul\":1900:2086   */\n      swap3\n      pop\n      pop\n      pop\n      jump\t// out\n        /* \"#utility.yul\":2299:2479   */\n    tag_59:\n        /* \"#utility.yul\":2358:2364   */\n      0x00\n        /* \"#utility.yul\":2411:2413   */\n      0x20\n        /* \"#utility.yul\":2399:2408   */\n      dup3\n        /* \"#utility.yul\":2390:2397   */\n      dup5\n        /* \"#utility.yul\":2386:2409   */\n      sub\n        /* \"#utility.yul\":2382:2414   */\n      slt\n        /* \"#utility.yul\":2379:2431   */\n      iszero\n      tag_197\n      jumpi\n        /* \"#utility.yul\":2427:2428   */\n      0x00\n        /* \"#utility.yul\":2424:2425   */\n      dup1\n        /* \"#utility.yul\":2417:2429   */\n      revert\n        /* \"#utility.yul\":2379:2431   */\n    tag_197:\n      pop\n        /* \"#utility.yul\":2450:2473   */\n      calldataload\n      swap2\n        /* \"#utility.yul\":2299:2479   */\n      swap1\n      pop\n      jump\t// out\n        /* \"#utility.yul\":2484:2744   */\n    tag_71:\n        /* \"#utility.yul\":2552:2558   */\n      0x00\n        /* \"#utility.yul\":2560:2566   */\n      dup1\n        /* \"#utility.yul\":2613:2615   */\n      0x40\n        /* \"#utility.yul\":2601:2610   */\n      dup4\n        /* \"#utility.yul\":2592:2599   */\n      dup6\n        /* \"#utility.yul\":2588:2611   */\n      sub\n        /* \"#utility.yul\":2584:2616   */\n      slt\n        /* \"#utility.yul\":2581:2633   */\n      iszero\n      tag_199\n      jumpi\n        /* \"#utility.yul\":2629:2630   */\n      0x00\n        /* \"#utility.yul\":2626:2627   */\n      dup1\n        /* \"#utility.yul\":2619:2631   */\n      revert\n        /* \"#utility.yul\":2581:2633   */\n    tag_199:\n        /* \"#utility.yul\":2652:2681   */\n      tag_200\n        /* \"#utility.yul\":2671:2680   */\n      dup4\n        /* \"#utility.yul\":2652:2681   */\n      tag_171\n      jump\t// in\n    tag_200:\n        /* \"#utility.yul\":2642:2681   */\n      swap2\n      pop\n        /* \"#utility.yul\":2700:2738   */\n      tag_201\n        /* \"#utility.yul\":2734:2736   */\n      0x20\n        /* \"#utility.yul\":2723:2732   */\n      dup5\n        /* \"#utility.yul\":2719:2737   */\n      add\n        /* \"#utility.yul\":2700:2738   */\n      tag_171\n      jump\t// in\n    tag_201:\n        /* \"#utility.yul\":2690:2738   */\n      swap1\n      pop\n        /* \"#utility.yul\":2484:2744   */\n      swap3\n      pop\n      swap3\n      swap1\n      pop\n      jump\t// out\n        /* \"#utility.yul\":2749:3129   */\n    tag_76:\n        /* \"#utility.yul\":2828:2829   */\n      0x01\n        /* \"#utility.yul\":2824:2836   */\n      dup2\n      dup2\n      shr\n      swap1\n        /* \"#utility.yul\":2871:2883   */\n      dup3\n      and\n      dup1\n        /* \"#utility.yul\":2892:2953   */\n      tag_203\n      jumpi\n        /* \"#utility.yul\":2946:2950   */\n      0x7f\n        /* \"#utility.yul\":2938:2944   */\n      dup3\n        /* \"#utility.yul\":2934:2951   */\n      and\n        /* \"#utility.yul\":2924:2951   */\n      swap2\n      pop\n        /* \"#utility.yul\":2892:2953   */\n    tag_203:\n        /* \"#utility.yul\":2999:3001   */\n      0x20\n        /* \"#utility.yul\":2991:2997   */\n      dup3\n        /* \"#utility.yul\":2988:3002   */\n      lt\n        /* \"#utility.yul\":2968:2986   */\n      dup2\n        /* \"#utility.yul\":2965:3003   */\n      sub\n        /* \"#utility.yul\":2962:3123   */\n      tag_204\n      jumpi\n        /* \"#utility.yul\":3045:3055   */\n      0x4e487b71\n        /* \"#utility.yul\":3040:3043   */\n      0xe0\n        /* \"#utility.yul\":3036:3056   */\n      shl\n        /* \"#utility.yul\":3033:3034   */\n      0x00\n        /* \"#utility.yul\":3026:3057   */\n      mstore\n        /* \"#utility.yul\":3080:3084   */\n      0x22\n        /* \"#utility.yul\":3077:3078   */\n      0x04\n        /* \"#utility.yul\":3070:3085   */\n      mstore\n        /* \"#utility.yul\":3108:3112   */\n      0x24\n        /* \"#utility.yul\":3105:3106   */\n      0x00\n        /* \"#utility.yul\":3098:3113   */\n      revert\n        /* \"#utility.yul\":2962:3123   */\n    tag_204:\n      pop\n        /* \"#utility.yul\":2749:3129   */\n      swap2\n      swap1\n      pop\n      jump\t// out\n        /* \"#utility.yul\":3134:3261   */\n    tag_172:\n        /* \"#utility.yul\":3195:3205   */\n      0x4e487b71\n        /* \"#utility.yul\":3190:3193   */\n      0xe0\n        /* \"#utility.yul\":3186:3206   */\n      shl\n        /* \"#utility.yul\":3183:3184   */\n      0x00\n        /* \"#utility.yul\":3176:3207   */\n      mstore\n        /* \"#utility.yul\":3226:3230   */\n      0x11\n        /* \"#utility.yul\":3223:3224   */\n      0x04\n        /* \"#utility.yul\":3216:3231   */\n      mstore\n        /* \"#utility.yul\":3250:3254   */\n      0x24\n        /* \"#utility.yul\":3247:3248   */\n      0x00\n        /* \"#utility.yul\":3240:3255   */\n      revert\n        /* \"#utility.yul\":3266:3391   */\n    tag_99:\n        /* \"#utility.yul\":3331:3340   */\n      dup1\n      dup3\n      add\n        /* \"#utility.yul\":3352:3362   */\n      dup1\n      dup3\n      gt\n        /* \"#utility.yul\":3349:3385   */\n      iszero\n      tag_81\n      jumpi\n        /* \"#utility.yul\":3365:3383   */\n      tag_81\n      tag_172\n      jump\t// in\n        /* \"#utility.yul\":3735:4157   */\n    tag_173:\n        /* \"#utility.yul\":3824:3825   */\n      0x01\n        /* \"#utility.yul\":3867:3872   */\n      dup2\n        /* \"#utility.yul\":3824:3825   */\n      dup2\n        /* \"#utility.yul\":3881:4151   */\n    tag_211:\n        /* \"#utility.yul\":3902:3909   */\n      dup1\n        /* \"#utility.yul\":3892:3900   */\n      dup6\n        /* \"#utility.yul\":3889:3910   */\n      gt\n        /* \"#utility.yul\":3881:4151   */\n      iszero\n      tag_213\n      jumpi\n        /* \"#utility.yul\":3961:3965   */\n      dup2\n        /* \"#utility.yul\":3957:3958   */\n      0x00\n        /* \"#utility.yul\":3953:3959   */\n      not\n        /* \"#utility.yul\":3949:3966   */\n      div\n        /* \"#utility.yul\":3943:3947   */\n      dup3\n        /* \"#utility.yul\":3940:3967   */\n      gt\n        /* \"#utility.yul\":3937:3990   */\n      iszero\n      tag_215\n      jumpi\n        /* \"#utility.yul\":3970:3988   */\n      tag_215\n      tag_172\n      jump\t// in\n    tag_215:\n        /* \"#utility.yul\":4020:4027   */\n      dup1\n        /* \"#utility.yul\":4010:4018   */\n      dup6\n        /* \"#utility.yul\":4006:4028   */\n      and\n        /* \"#utility.yul\":4003:4058   */\n      iszero\n      tag_216\n      jumpi\n        /* \"#utility.yul\":4040:4056   */\n      swap2\n      dup2\n      mul\n      swap2\n        /* \"#utility.yul\":4003:4058   */\n    tag_216:\n        /* \"#utility.yul\":4119:4141   */\n      swap4\n      dup5\n      shr\n      swap4\n        /* \"#utility.yul\":4079:4094   */\n      swap1\n      dup1\n      mul\n      swap1\n        /* \"#utility.yul\":3881:4151   */\n      jump(tag_211)\n    tag_213:\n        /* \"#utility.yul\":3885:3888   */\n      pop\n        /* \"#utility.yul\":3735:4157   */\n      swap3\n      pop\n      swap3\n      swap1\n      pop\n      jump\t// out\n        /* \"#utility.yul\":4162:4968   */\n    tag_174:\n        /* \"#utility.yul\":4211:4216   */\n      0x00\n        /* \"#utility.yul\":4241:4249   */\n      dup3\n        /* \"#utility.yul\":4231:4311   */\n      tag_218\n      jumpi\n      pop\n        /* \"#utility.yul\":4282:4283   */\n      0x01\n        /* \"#utility.yul\":4296:4301   */\n      jump(tag_81)\n        /* \"#utility.yul\":4231:4311   */\n    tag_218:\n        /* \"#utility.yul\":4330:4334   */\n      dup2\n        /* \"#utility.yul\":4320:4396   */\n      tag_219\n      jumpi\n      pop\n        /* \"#utility.yul\":4367:4368   */\n      0x00\n        /* \"#utility.yul\":4381:4386   */\n      jump(tag_81)\n        /* \"#utility.yul\":4320:4396   */\n    tag_219:\n        /* \"#utility.yul\":4412:4416   */\n      dup2\n        /* \"#utility.yul\":4430:4431   */\n      0x01\n        /* \"#utility.yul\":4425:4484   */\n      dup2\n      eq\n      tag_221\n      jumpi\n        /* \"#utility.yul\":4498:4499   */\n      0x02\n        /* \"#utility.yul\":4493:4623   */\n      dup2\n      eq\n      tag_222\n      jumpi\n        /* \"#utility.yul\":4405:4623   */\n      jump(tag_220)\n        /* \"#utility.yul\":4425:4484   */\n    tag_221:\n        /* \"#utility.yul\":4455:4456   */\n      0x01\n        /* \"#utility.yul\":4446:4456   */\n      swap2\n      pop\n        /* \"#utility.yul\":4469:4474   */\n      pop\n      jump(tag_81)\n        /* \"#utility.yul\":4493:4623   */\n    tag_222:\n        /* \"#utility.yul\":4530:4533   */\n      0xff\n        /* \"#utility.yul\":4520:4528   */\n      dup5\n        /* \"#utility.yul\":4517:4534   */\n      gt\n        /* \"#utility.yul\":4514:4557   */\n      iszero\n      tag_224\n      jumpi\n        /* \"#utility.yul\":4537:4555   */\n      tag_224\n      tag_172\n      jump\t// in\n    tag_224:\n      pop\n      pop\n        /* \"#utility.yul\":4593:4594   */\n      0x01\n        /* \"#utility.yul\":4579:4595   */\n      dup3\n      shl\n        /* \"#utility.yul\":4608:4613   */\n      jump(tag_81)\n        /* \"#utility.yul\":4405:4623   */\n    tag_220:\n      pop\n        /* \"#utility.yul\":4707:4709   */\n      0x20\n        /* \"#utility.yul\":4697:4705   */\n      dup4\n        /* \"#utility.yul\":4694:4710   */\n      lt\n        /* \"#utility.yul\":4688:4691   */\n      0x0133\n        /* \"#utility.yul\":4682:4686   */\n      dup4\n        /* \"#utility.yul\":4679:4692   */\n      lt\n        /* \"#utility.yul\":4675:4711   */\n      and\n        /* \"#utility.yul\":4669:4671   */\n      0x4e\n        /* \"#utility.yul\":4659:4667   */\n      dup5\n        /* \"#utility.yul\":4656:4672   */\n      lt\n        /* \"#utility.yul\":4651:4653   */\n      0x0b\n        /* \"#utility.yul\":4645:4649   */\n      dup5\n        /* \"#utility.yul\":4642:4654   */\n      lt\n        /* \"#utility.yul\":4638:4673   */\n      and\n        /* \"#utility.yul\":4635:4712   */\n      or\n        /* \"#utility.yul\":4632:4791   */\n      iszero\n      tag_225\n      jumpi\n      pop\n        /* \"#utility.yul\":4744:4763   */\n      dup2\n      dup2\n      exp\n        /* \"#utility.yul\":4776:4781   */\n      jump(tag_81)\n        /* \"#utility.yul\":4632:4791   */\n    tag_225:\n        /* \"#utility.yul\":4823:4857   */\n      tag_226\n        /* \"#utility.yul\":4848:4856   */\n      dup4\n        /* \"#utility.yul\":4842:4846   */\n      dup4\n        /* \"#utility.yul\":4823:4857   */\n      tag_173\n      jump\t// in\n    tag_226:\n        /* \"#utility.yul\":4893:4899   */\n      dup1\n        /* \"#utility.yul\":4889:4890   */\n      0x00\n        /* \"#utility.yul\":4885:4891   */\n      not\n        /* \"#utility.yul\":4881:4900   */\n      div\n        /* \"#utility.yul\":4872:4879   */\n      dup3\n        /* \"#utility.yul\":4869:4901   */\n      gt\n        /* \"#utility.yul\":4866:4924   */\n      iszero\n      tag_228\n      jumpi\n        /* \"#utility.yul\":4904:4922   */\n      tag_228\n      tag_172\n      jump\t// in\n    tag_228:\n        /* \"#utility.yul\":4942:4962   */\n      mul\n      swap4\n        /* \"#utility.yul\":4162:4968   */\n      swap3\n      pop\n      pop\n      pop\n      jump\t// out\n        /* \"#utility.yul\":4973:5104   */\n    tag_115:\n        /* \"#utility.yul\":5033:5038   */\n      0x00\n        /* \"#utility.yul\":5062:5098   */\n      tag_194\n        /* \"#utility.yul\":5089:5097   */\n      dup4\n        /* \"#utility.yul\":5083:5087   */\n      dup4\n        /* \"#utility.yul\":5062:5098   */\n      tag_174\n      jump\t// in\n        /* \"#utility.yul\":5109:5277   */\n    tag_117:\n        /* \"#utility.yul\":5182:5191   */\n      dup1\n      dup3\n      mul\n        /* \"#utility.yul\":5213:5222   */\n      dup2\n      iszero\n        /* \"#utility.yul\":5230:5245   */\n      dup3\n      dup3\n      div\n        /* \"#utility.yul\":5224:5246   */\n      dup5\n      eq\n        /* \"#utility.yul\":5210:5247   */\n      or\n        /* \"#utility.yul\":5200:5271   */\n      tag_81\n      jumpi\n        /* \"#utility.yul\":5251:5269   */\n      tag_81\n      tag_172\n      jump\t// in\n\n    auxdata: 0xa26469706673582212206e971fbdcebcf4d8a682e8c2bd2feb147cfe026d67cbb506e8f6703f0864d59764736f6c63430008140033\n}\n",
				"bytecode": {
					"linkReferences": {},
					"object": "608060405234801562000010575f80fd5b506040516200101f3803806200101f83398101604081905262000033916200022a565b818160036200004383826200031b565b5060046200005282826200031b565b5050600580546001600160a01b031916339081179091556200009b915062000078601290565b620000889060ff16600a620004f2565b6200009590606462000506565b620000a3565b505062000536565b6001600160a01b038216620000fe5760405162461bcd60e51b815260206004820152601f60248201527f45524332303a206d696e7420746f20746865207a65726f206164647265737300604482015260640160405180910390fd5b8060025f82825462000111919062000520565b90915550506001600160a01b0382165f81815260208181526040808320805486019055518481527fddf252ad1be2c89b69c2b068fc378daa952ba7f163c4a11628f55a4df523b3ef910160405180910390a35050565b505050565b634e487b7160e01b5f52604160045260245ffd5b5f82601f83011262000190575f80fd5b81516001600160401b0380821115620001ad57620001ad6200016c565b604051601f8301601f19908116603f01168101908282118183101715620001d857620001d86200016c565b81604052838152602092508683858801011115620001f4575f80fd5b5f91505b83821015620002175785820183015181830184015290820190620001f8565b5f93810190920192909252949350505050565b5f80604083850312156200023c575f80fd5b82516001600160401b038082111562000253575f80fd5b620002618683870162000180565b9350602085015191508082111562000277575f80fd5b50620002868582860162000180565b9150509250929050565b600181811c90821680620002a557607f821691505b602082108103620002c457634e487b7160e01b5f52602260045260245ffd5b50919050565b601f82111562000167575f81815260208120601f850160051c81016020861015620002f25750805b601f850160051c820191505b818110156200031357828155600101620002fe565b505050505050565b81516001600160401b038111156200033757620003376200016c565b6200034f8162000348845462000290565b84620002ca565b602080601f83116001811462000385575f84156200036d5750858301515b5f19600386901b1c1916600185901b17855562000313565b5f85815260208120601f198616915b82811015620003b55788860151825594840194600190910190840162000394565b5085821015620003d357878501515f19600388901b60f8161c191681555b5050505050600190811b01905550565b634e487b7160e01b5f52601160045260245ffd5b600181815b808511156200043757815f19048211156200041b576200041b620003e3565b808516156200042957918102915b93841c9390800290620003fc565b509250929050565b5f826200044f57506001620004ec565b816200045d57505f620004ec565b81600181146200047657600281146200048157620004a1565b6001915050620004ec565b60ff841115620004955762000495620003e3565b50506001821b620004ec565b5060208310610133831016604e8410600b8410161715620004c6575081810a620004ec565b620004d28383620003f7565b805f1904821115620004e857620004e8620003e3565b0290505b92915050565b5f620004ff83836200043f565b9392505050565b8082028115828204841417620004ec57620004ec620003e3565b80820180821115620004ec57620004ec620003e3565b610adb80620005445f395ff3fe608060405234801561000f575f80fd5b50600436106100cb575f3560e01c806370a0823111610088578063a0712d6811610063578063a0712d68146101b2578063a457c2d7146101c7578063a9059cbb146101da578063dd62ed3e146101ed575f80fd5b806370a08231146101575780638da5cb5b1461017f57806395d89b41146101aa575f80fd5b806306fdde03146100cf578063095ea7b3146100ed57806318160ddd1461011057806323b872dd14610122578063313ce567146101355780633950935114610144575b5f80fd5b6100d7610200565b6040516100e49190610815565b60405180910390f35b6101006100fb36600461087b565b610290565b60405190151581526020016100e4565b6002545b6040519081526020016100e4565b6101006101303660046108a3565b6102a9565b604051601281526020016100e4565b61010061015236600461087b565b6102cc565b6101146101653660046108dc565b6001600160a01b03165f9081526020819052604090205490565b600554610192906001600160a01b031681565b6040516001600160a01b0390911681526020016100e4565b6100d76102ed565b6101c56101c03660046108fc565b6102fc565b005b6101006101d536600461087b565b61036a565b6101006101e836600461087b565b6103e4565b6101146101fb366004610913565b6103f1565b60606003805461020f90610944565b80601f016020809104026020016040519081016040528092919081815260200182805461023b90610944565b80156102865780601f1061025d57610100808354040283529160200191610286565b820191905f5260205f20905b81548152906001019060200180831161026957829003601f168201915b5050505050905090565b5f3361029d81858561041b565b60019150505b92915050565b5f336102b685828561053e565b6102c18585856105b6565b506001949350505050565b5f3361029d8185856102de83836103f1565b6102e89190610990565b61041b565b60606004805461020f90610944565b6005546001600160a01b031633146103485760405162461bcd60e51b815260206004820152600a6024820152694e4f54204f574e45522160b01b60448201526064015b60405180910390fd5b610367336103586012600a610a83565b6103629084610a8e565b610758565b50565b5f338161037782866103f1565b9050838110156103d75760405162461bcd60e51b815260206004820152602560248201527f45524332303a2064656372656173656420616c6c6f77616e63652062656c6f77604482015264207a65726f60d81b606482015260840161033f565b6102c1828686840361041b565b5f3361029d8185856105b6565b6001600160a01b039182165f90815260016020908152604080832093909416825291909152205490565b6001600160a01b03831661047d5760405162461bcd60e51b8152602060048201526024808201527f45524332303a20617070726f76652066726f6d20746865207a65726f206164646044820152637265737360e01b606482015260840161033f565b6001600160a01b0382166104de5760405162461bcd60e51b815260206004820152602260248201527f45524332303a20617070726f766520746f20746865207a65726f206164647265604482015261737360f01b606482015260840161033f565b6001600160a01b038381165f8181526001602090815260408083209487168084529482529182902085905590518481527f8c5be1e5ebec7d5bd14f71427d1e84f3dd0314c0f7b2291e5b200ac8c7c3b925910160405180910390a3505050565b5f61054984846103f1565b90505f1981146105b057818110156105a35760405162461bcd60e51b815260206004820152601d60248201527f45524332303a20696e73756666696369656e7420616c6c6f77616e6365000000604482015260640161033f565b6105b0848484840361041b565b50505050565b6001600160a01b03831661061a5760405162461bcd60e51b815260206004820152602560248201527f45524332303a207472616e736665722066726f6d20746865207a65726f206164604482015264647265737360d81b606482015260840161033f565b6001600160a01b03821661067c5760405162461bcd60e51b815260206004820152602360248201527f45524332303a207472616e7366657220746f20746865207a65726f206164647260448201526265737360e81b606482015260840161033f565b6001600160a01b0383165f90815260208190526040902054818110156106f35760405162461bcd60e51b815260206004820152602660248201527f45524332303a207472616e7366657220616d6f756e7420657863656564732062604482015265616c616e636560d01b606482015260840161033f565b6001600160a01b038481165f81815260208181526040808320878703905593871680835291849020805487019055925185815290927fddf252ad1be2c89b69c2b068fc378daa952ba7f163c4a11628f55a4df523b3ef910160405180910390a36105b0565b6001600160a01b0382166107ae5760405162461bcd60e51b815260206004820152601f60248201527f45524332303a206d696e7420746f20746865207a65726f206164647265737300604482015260640161033f565b8060025f8282546107bf9190610990565b90915550506001600160a01b0382165f81815260208181526040808320805486019055518481527fddf252ad1be2c89b69c2b068fc378daa952ba7f163c4a11628f55a4df523b3ef910160405180910390a35050565b5f6020808352835180828501525f5b8181101561084057858101830151858201604001528201610824565b505f604082860101526040601f19601f8301168501019250505092915050565b80356001600160a01b0381168114610876575f80fd5b919050565b5f806040838503121561088c575f80fd5b61089583610860565b946020939093013593505050565b5f805f606084860312156108b5575f80fd5b6108be84610860565b92506108cc60208501610860565b9150604084013590509250925092565b5f602082840312156108ec575f80fd5b6108f582610860565b9392505050565b5f6020828403121561090c575f80fd5b5035919050565b5f8060408385031215610924575f80fd5b61092d83610860565b915061093b60208401610860565b90509250929050565b600181811c9082168061095857607f821691505b60208210810361097657634e487b7160e01b5f52602260045260245ffd5b50919050565b634e487b7160e01b5f52601160045260245ffd5b808201808211156102a3576102a361097c565b600181815b808511156109dd57815f19048211156109c3576109c361097c565b808516156109d057918102915b93841c93908002906109a8565b509250929050565b5f826109f3575060016102a3565b816109ff57505f6102a3565b8160018114610a155760028114610a1f57610a3b565b60019150506102a3565b60ff841115610a3057610a3061097c565b50506001821b6102a3565b5060208310610133831016604e8410600b8410161715610a5e575081810a6102a3565b610a6883836109a3565b805f1904821115610a7b57610a7b61097c565b029392505050565b5f6108f583836109e5565b80820281158282048414176102a3576102a361097c56fea26469706673582212206e971fbdcebcf4d8a682e8c2bd2feb147cfe026d67cbb506e8f6703f0864d59764736f6c63430008140033",
					"opcodes": "PUSH1 0x80 PUSH1 0x40 MSTORE CALLVALUE DUP1 ISZERO PUSH3 0x10 JUMPI PUSH0 DUP1 REVERT JUMPDEST POP PUSH1 0x40 MLOAD PUSH3 0x101F CODESIZE SUB DUP1 PUSH3 0x101F DUP4 CODECOPY DUP2 ADD PUSH1 0x40 DUP2 SWAP1 MSTORE PUSH3 0x33 SWAP2 PUSH3 0x22A JUMP JUMPDEST DUP2 DUP2 PUSH1 0x3 PUSH3 0x43 DUP4 DUP3 PUSH3 0x31B JUMP JUMPDEST POP PUSH1 0x4 PUSH3 0x52 DUP3 DUP3 PUSH3 0x31B JUMP JUMPDEST POP POP PUSH1 0x5 DUP1 SLOAD PUSH1 0x1 PUSH1 0x1 PUSH1 0xA0 SHL SUB NOT AND CALLER SWAP1 DUP2 OR SWAP1 SWAP2 SSTORE PUSH3 0x9B SWAP2 POP PUSH3 0x78 PUSH1 0x12 SWAP1 JUMP JUMPDEST PUSH3 0x88 SWAP1 PUSH1 0xFF AND PUSH1 0xA PUSH3 0x4F2 JUMP JUMPDEST PUSH3 0x95 SWAP1 PUSH1 0x64 PUSH3 0x506 JUMP JUMPDEST PUSH3 0xA3 JUMP JUMPDEST POP POP PUSH3 0x536 JUMP JUMPDEST PUSH1 0x1 PUSH1 0x1 PUSH1 0xA0 SHL SUB DUP3 AND PUSH3 0xFE JUMPI PUSH1 0x40 MLOAD PUSH3 0x461BCD PUSH1 0xE5 SHL DUP2 MSTORE PUSH1 0x20 PUSH1 0x4 DUP3 ADD MSTORE PUSH1 0x1F PUSH1 0x24 DUP3 ADD MSTORE PUSH32 0x45524332303A206D696E7420746F20746865207A65726F206164647265737300 PUSH1 0x44 DUP3 ADD MSTORE PUSH1 0x64 ADD PUSH1 0x40 MLOAD DUP1 SWAP2 SUB SWAP1 REVERT JUMPDEST DUP1 PUSH1 0x2 PUSH0 DUP3 DUP3 SLOAD PUSH3 0x111 SWAP2 SWAP1 PUSH3 0x520 JUMP JUMPDEST SWAP1 SWAP2 SSTORE POP POP PUSH1 0x1 PUSH1 0x1 PUSH1 0xA0 SHL SUB DUP3 AND PUSH0 DUP2 DUP2 MSTORE PUSH1 0x20 DUP2 DUP2 MSTORE PUSH1 0x40 DUP1 DUP4 KECCAK256 DUP1 SLOAD DUP7 ADD SWAP1 SSTORE MLOAD DUP5 DUP2 MSTORE PUSH32 0xDDF252AD1BE2C89B69C2B068FC378DAA952BA7F163C4A11628F55A4DF523B3EF SWAP2 ADD PUSH1 0x40 MLOAD DUP1 SWAP2 SUB SWAP1 LOG3 POP POP JUMP JUMPDEST POP POP POP JUMP JUMPDEST PUSH4 0x4E487B71 PUSH1 0xE0 SHL PUSH0 MSTORE PUSH1 0x41 PUSH1 0x4 MSTORE PUSH1 0x24 PUSH0 REVERT JUMPDEST PUSH0 DUP3 PUSH1 0x1F DUP4 ADD SLT PUSH3 0x190 JUMPI PUSH0 DUP1 REVERT JUMPDEST DUP2 MLOAD PUSH1 0x1 PUSH1 0x1 PUSH1 0x40 SHL SUB DUP1 DUP3 GT ISZERO PUSH3 0x1AD JUMPI PUSH3 0x1AD PUSH3 0x16C JUMP JUMPDEST PUSH1 0x40 MLOAD PUSH1 0x1F DUP4 ADD PUSH1 0x1F NOT SWAP1 DUP2 AND PUSH1 0x3F ADD AND DUP2 ADD SWAP1 DUP3 DUP3 GT DUP2 DUP4 LT OR ISZERO PUSH3 0x1D8 JUMPI PUSH3 0x1D8 PUSH3 0x16C JUMP JUMPDEST DUP2 PUSH1 0x40 MSTORE DUP4 DUP2 MSTORE PUSH1 0x20 SWAP3 POP DUP7 DUP4 DUP6 DUP9 ADD ADD GT ISZERO PUSH3 0x1F4 JUMPI PUSH0 DUP1 REVERT JUMPDEST PUSH0 SWAP2 POP JUMPDEST DUP4 DUP3 LT ISZERO PUSH3 0x217 JUMPI DUP6 DUP3 ADD DUP4 ADD MLOAD DUP2 DUP4 ADD DUP5 ADD MSTORE SWAP1 DUP3 ADD SWAP1 PUSH3 0x1F8 JUMP JUMPDEST PUSH0 SWAP4 DUP2 ADD SWAP1 SWAP3 ADD SWAP3 SWAP1 SWAP3 MSTORE SWAP5 SWAP4 POP POP POP POP JUMP JUMPDEST PUSH0 DUP1 PUSH1 0x40 DUP4 DUP6 SUB SLT ISZERO PUSH3 0x23C JUMPI PUSH0 DUP1 REVERT JUMPDEST DUP3 MLOAD PUSH1 0x1 PUSH1 0x1 PUSH1 0x40 SHL SUB DUP1 DUP3 GT ISZERO PUSH3 0x253 JUMPI PUSH0 DUP1 REVERT JUMPDEST PUSH3 0x261 DUP7 DUP4 DUP8 ADD PUSH3 0x180 JUMP JUMPDEST SWAP4 POP PUSH1 0x20 DUP6 ADD MLOAD SWAP2 POP DUP1 DUP3 GT ISZERO PUSH3 0x277 JUMPI PUSH0 DUP1 REVERT JUMPDEST POP PUSH3 0x286 DUP6 DUP3 DUP7 ADD PUSH3 0x180 JUMP JUMPDEST SWAP2 POP POP SWAP3 POP SWAP3 SWAP1 POP JUMP JUMPDEST PUSH1 0x1 DUP2 DUP2 SHR SWAP1 DUP3 AND DUP1 PUSH3 0x2A5 JUMPI PUSH1 0x7F DUP3 AND SWAP2 POP JUMPDEST PUSH1 0x20 DUP3 LT DUP2 SUB PUSH3 0x2C4 JUMPI PUSH4 0x4E487B71 PUSH1 0xE0 SHL PUSH0 MSTORE PUSH1 0x22 PUSH1 0x4 MSTORE PUSH1 0x24 PUSH0 REVERT JUMPDEST POP SWAP2 SWAP1 POP JUMP JUMPDEST PUSH1 0x1F DUP3 GT ISZERO PUSH3 0x167 JUMPI PUSH0 DUP2 DUP2 MSTORE PUSH1 0x20 DUP2 KECCAK256 PUSH1 0x1F DUP6 ADD PUSH1 0x5 SHR DUP2 ADD PUSH1 0x20 DUP7 LT ISZERO PUSH3 0x2F2 JUMPI POP DUP1 JUMPDEST PUSH1 0x1F DUP6 ADD PUSH1 0x5 SHR DUP3 ADD SWAP2 POP JUMPDEST DUP2 DUP2 LT ISZERO PUSH3 0x313 JUMPI DUP3 DUP2 SSTORE PUSH1 0x1 ADD PUSH3 0x2FE JUMP JUMPDEST POP POP POP POP POP POP JUMP JUMPDEST DUP2 MLOAD PUSH1 0x1 PUSH1 0x1 PUSH1 0x40 SHL SUB DUP2 GT ISZERO PUSH3 0x337 JUMPI PUSH3 0x337 PUSH3 0x16C JUMP JUMPDEST PUSH3 0x34F DUP2 PUSH3 0x348 DUP5 SLOAD PUSH3 0x290 JUMP JUMPDEST DUP5 PUSH3 0x2CA JUMP JUMPDEST PUSH1 0x20 DUP1 PUSH1 0x1F DUP4 GT PUSH1 0x1 DUP2 EQ PUSH3 0x385 JUMPI PUSH0 DUP5 ISZERO PUSH3 0x36D JUMPI POP DUP6 DUP4 ADD MLOAD JUMPDEST PUSH0 NOT PUSH1 0x3 DUP7 SWAP1 SHL SHR NOT AND PUSH1 0x1 DUP6 SWAP1 SHL OR DUP6 SSTORE PUSH3 0x313 JUMP JUMPDEST PUSH0 DUP6 DUP2 MSTORE PUSH1 0x20 DUP2 KECCAK256 PUSH1 0x1F NOT DUP7 AND SWAP2 JUMPDEST DUP3 DUP2 LT ISZERO PUSH3 0x3B5 JUMPI DUP9 DUP7 ADD MLOAD DUP3 SSTORE SWAP5 DUP5 ADD SWAP5 PUSH1 0x1 SWAP1 SWAP2 ADD SWAP1 DUP5 ADD PUSH3 0x394 JUMP JUMPDEST POP DUP6 DUP3 LT ISZERO PUSH3 0x3D3 JUMPI DUP8 DUP6 ADD MLOAD PUSH0 NOT PUSH1 0x3 DUP9 SWAP1 SHL PUSH1 0xF8 AND SHR NOT AND DUP2 SSTORE JUMPDEST POP POP POP POP POP PUSH1 0x1 SWAP1 DUP2 SHL ADD SWAP1 SSTORE POP JUMP JUMPDEST PUSH4 0x4E487B71 PUSH1 0xE0 SHL PUSH0 MSTORE PUSH1 0x11 PUSH1 0x4 MSTORE PUSH1 0x24 PUSH0 REVERT JUMPDEST PUSH1 0x1 DUP2 DUP2 JUMPDEST DUP1 DUP6 GT ISZERO PUSH3 0x437 JUMPI DUP2 PUSH0 NOT DIV DUP3 GT ISZERO PUSH3 0x41B JUMPI PUSH3 0x41B PUSH3 0x3E3 JUMP JUMPDEST DUP1 DUP6 AND ISZERO PUSH3 0x429 JUMPI SWAP2 DUP2 MUL SWAP2 JUMPDEST SWAP4 DUP5 SHR SWAP4 SWAP1 DUP1 MUL SWAP1 PUSH3 0x3FC JUMP JUMPDEST POP SWAP3 POP SWAP3 SWAP1 POP JUMP JUMPDEST PUSH0 DUP3 PUSH3 0x44F JUMPI POP PUSH1 0x1 PUSH3 0x4EC JUMP JUMPDEST DUP2 PUSH3 0x45D JUMPI POP PUSH0 PUSH3 0x4EC JUMP JUMPDEST DUP2 PUSH1 0x1 DUP2 EQ PUSH3 0x476 JUMPI PUSH1 0x2 DUP2 EQ PUSH3 0x481 JUMPI PUSH3 0x4A1 JUMP JUMPDEST PUSH1 0x1 SWAP2 POP POP PUSH3 0x4EC JUMP JUMPDEST PUSH1 0xFF DUP5 GT ISZERO PUSH3 0x495 JUMPI PUSH3 0x495 PUSH3 0x3E3 JUMP JUMPDEST POP POP PUSH1 0x1 DUP3 SHL PUSH3 0x4EC JUMP JUMPDEST POP PUSH1 0x20 DUP4 LT PUSH2 0x133 DUP4 LT AND PUSH1 0x4E DUP5 LT PUSH1 0xB DUP5 LT AND OR ISZERO PUSH3 0x4C6 JUMPI POP DUP2 DUP2 EXP PUSH3 0x4EC JUMP JUMPDEST PUSH3 0x4D2 DUP4 DUP4 PUSH3 0x3F7 JUMP JUMPDEST DUP1 PUSH0 NOT DIV DUP3 GT ISZERO PUSH3 0x4E8 JUMPI PUSH3 0x4E8 PUSH3 0x3E3 JUMP JUMPDEST MUL SWAP1 POP JUMPDEST SWAP3 SWAP2 POP POP JUMP JUMPDEST PUSH0 PUSH3 0x4FF DUP4 DUP4 PUSH3 0x43F JUMP JUMPDEST SWAP4 SWAP3 POP POP POP JUMP JUMPDEST DUP1 DUP3 MUL DUP2 ISZERO DUP3 DUP3 DIV DUP5 EQ OR PUSH3 0x4EC JUMPI PUSH3 0x4EC PUSH3 0x3E3 JUMP JUMPDEST DUP1 DUP3 ADD DUP1 DUP3 GT ISZERO PUSH3 0x4EC JUMPI PUSH3 0x4EC PUSH3 0x3E3 JUMP JUMPDEST PUSH2 0xADB DUP1 PUSH3 0x544 PUSH0 CODECOPY PUSH0 RETURN INVALID PUSH1 0x80 PUSH1 0x40 MSTORE CALLVALUE DUP1 ISZERO PUSH2 0xF JUMPI PUSH0 DUP1 REVERT JUMPDEST POP PUSH1 0x4 CALLDATASIZE LT PUSH2 0xCB JUMPI PUSH0 CALLDATALOAD PUSH1 0xE0 SHR DUP1 PUSH4 0x70A08231 GT PUSH2 0x88 JUMPI DUP1 PUSH4 0xA0712D68 GT PUSH2 0x63 JUMPI DUP1 PUSH4 0xA0712D68 EQ PUSH2 0x1B2 JUMPI DUP1 PUSH4 0xA457C2D7 EQ PUSH2 0x1C7 JUMPI DUP1 PUSH4 0xA9059CBB EQ PUSH2 0x1DA JUMPI DUP1 PUSH4 0xDD62ED3E EQ PUSH2 0x1ED JUMPI PUSH0 DUP1 REVERT JUMPDEST DUP1 PUSH4 0x70A08231 EQ PUSH2 0x157 JUMPI DUP1 PUSH4 0x8DA5CB5B EQ PUSH2 0x17F JUMPI DUP1 PUSH4 0x95D89B41 EQ PUSH2 0x1AA JUMPI PUSH0 DUP1 REVERT JUMPDEST DUP1 PUSH4 0x6FDDE03 EQ PUSH2 0xCF JUMPI DUP1 PUSH4 0x95EA7B3 EQ PUSH2 0xED JUMPI DUP1 PUSH4 0x18160DDD EQ PUSH2 0x110 JUMPI DUP1 PUSH4 0x23B872DD EQ PUSH2 0x122 JUMPI DUP1 PUSH4 0x313CE567 EQ PUSH2 0x135 JUMPI DUP1 PUSH4 0x39509351 EQ PUSH2 0x144 JUMPI JUMPDEST PUSH0 DUP1 REVERT JUMPDEST PUSH2 0xD7 PUSH2 0x200 JUMP JUMPDEST PUSH1 0x40 MLOAD PUSH2 0xE4 SWAP2 SWAP1 PUSH2 0x815 JUMP JUMPDEST PUSH1 0x40 MLOAD DUP1 SWAP2 SUB SWAP1 RETURN JUMPDEST PUSH2 0x100 PUSH2 0xFB CALLDATASIZE PUSH1 0x4 PUSH2 0x87B JUMP JUMPDEST PUSH2 0x290 JUMP JUMPDEST PUSH1 0x40 MLOAD SWAP1 ISZERO ISZERO DUP2 MSTORE PUSH1 0x20 ADD PUSH2 0xE4 JUMP JUMPDEST PUSH1 0x2 SLOAD JUMPDEST PUSH1 0x40 MLOAD SWAP1 DUP2 MSTORE PUSH1 0x20 ADD PUSH2 0xE4 JUMP JUMPDEST PUSH2 0x100 PUSH2 0x130 CALLDATASIZE PUSH1 0x4 PUSH2 0x8A3 JUMP JUMPDEST PUSH2 0x2A9 JUMP JUMPDEST PUSH1 0x40 MLOAD PUSH1 0x12 DUP2 MSTORE PUSH1 0x20 ADD PUSH2 0xE4 JUMP JUMPDEST PUSH2 0x100 PUSH2 0x152 CALLDATASIZE PUSH1 0x4 PUSH2 0x87B JUMP JUMPDEST PUSH2 0x2CC JUMP JUMPDEST PUSH2 0x114 PUSH2 0x165 CALLDATASIZE PUSH1 0x4 PUSH2 0x8DC JUMP JUMPDEST PUSH1 0x1 PUSH1 0x1 PUSH1 0xA0 SHL SUB AND PUSH0 SWAP1 DUP2 MSTORE PUSH1 0x20 DUP2 SWAP1 MSTORE PUSH1 0x40 SWAP1 KECCAK256 SLOAD SWAP1 JUMP JUMPDEST PUSH1 0x5 SLOAD PUSH2 0x192 SWAP1 PUSH1 0x1 PUSH1 0x1 PUSH1 0xA0 SHL SUB AND DUP2 JUMP JUMPDEST PUSH1 0x40 MLOAD PUSH1 0x1 PUSH1 0x1 PUSH1 0xA0 SHL SUB SWAP1 SWAP2 AND DUP2 MSTORE PUSH1 0x20 ADD PUSH2 0xE4 JUMP JUMPDEST PUSH2 0xD7 PUSH2 0x2ED JUMP JUMPDEST PUSH2 0x1C5 PUSH2 0x1C0 CALLDATASIZE PUSH1 0x4 PUSH2 0x8FC JUMP JUMPDEST PUSH2 0x2FC JUMP JUMPDEST STOP JUMPDEST PUSH2 0x100 PUSH2 0x1D5 CALLDATASIZE PUSH1 0x4 PUSH2 0x87B JUMP JUMPDEST PUSH2 0x36A JUMP JUMPDEST PUSH2 0x100 PUSH2 0x1E8 CALLDATASIZE PUSH1 0x4 PUSH2 0x87B JUMP JUMPDEST PUSH2 0x3E4 JUMP JUMPDEST PUSH2 0x114 PUSH2 0x1FB CALLDATASIZE PUSH1 0x4 PUSH2 0x913 JUMP JUMPDEST PUSH2 0x3F1 JUMP JUMPDEST PUSH1 0x60 PUSH1 0x3 DUP1 SLOAD PUSH2 0x20F SWAP1 PUSH2 0x944 JUMP JUMPDEST DUP1 PUSH1 0x1F ADD PUSH1 0x20 DUP1 SWAP2 DIV MUL PUSH1 0x20 ADD PUSH1 0x40 MLOAD SWAP1 DUP2 ADD PUSH1 0x40 MSTORE DUP1 SWAP3 SWAP2 SWAP1 DUP2 DUP2 MSTORE PUSH1 0x20 ADD DUP3 DUP1 SLOAD PUSH2 0x23B SWAP1 PUSH2 0x944 JUMP JUMPDEST DUP1 ISZERO PUSH2 0x286 JUMPI DUP1 PUSH1 0x1F LT PUSH2 0x25D JUMPI PUSH2 0x100 DUP1 DUP4 SLOAD DIV MUL DUP4 MSTORE SWAP2 PUSH1 0x20 ADD SWAP2 PUSH2 0x286 JUMP JUMPDEST DUP3 ADD SWAP2 SWAP1 PUSH0 MSTORE PUSH1 0x20 PUSH0 KECCAK256 SWAP1 JUMPDEST DUP2 SLOAD DUP2 MSTORE SWAP1 PUSH1 0x1 ADD SWAP1 PUSH1 0x20 ADD DUP1 DUP4 GT PUSH2 0x269 JUMPI DUP3 SWAP1 SUB PUSH1 0x1F AND DUP3 ADD SWAP2 JUMPDEST POP POP POP POP POP SWAP1 POP SWAP1 JUMP JUMPDEST PUSH0 CALLER PUSH2 0x29D DUP2 DUP6 DUP6 PUSH2 0x41B JUMP JUMPDEST PUSH1 0x1 SWAP2 POP POP JUMPDEST SWAP3 SWAP2 POP POP JUMP JUMPDEST PUSH0 CALLER PUSH2 0x2B6 DUP6 DUP3 DUP6 PUSH2 0x53E JUMP JUMPDEST PUSH2 0x2C1 DUP6 DUP6 DUP6 PUSH2 0x5B6 JUMP JUMPDEST POP PUSH1 0x1 SWAP5 SWAP4 POP POP POP POP JUMP JUMPDEST PUSH0 CALLER PUSH2 0x29D DUP2 DUP6 DUP6 PUSH2 0x2DE DUP4 DUP4 PUSH2 0x3F1 JUMP JUMPDEST PUSH2 0x2E8 SWAP2 SWAP1 PUSH2 0x990 JUMP JUMPDEST PUSH2 0x41B JUMP JUMPDEST PUSH1 0x60 PUSH1 0x4 DUP1 SLOAD PUSH2 0x20F SWAP1 PUSH2 0x944 JUMP JUMPDEST PUSH1 0x5 SLOAD PUSH1 0x1 PUSH1 0x1 PUSH1 0xA0 SHL SUB AND CALLER EQ PUSH2 0x348 JUMPI PUSH1 0x40 MLOAD PUSH3 0x461BCD PUSH1 0xE5 SHL DUP2 MSTORE PUSH1 0x20 PUSH1 0x4 DUP3 ADD MSTORE PUSH1 0xA PUSH1 0x24 DUP3 ADD MSTORE PUSH10 0x4E4F54204F574E455221 PUSH1 0xB0 SHL PUSH1 0x44 DUP3 ADD MSTORE PUSH1 0x64 ADD JUMPDEST PUSH1 0x40 MLOAD DUP1 SWAP2 SUB SWAP1 REVERT JUMPDEST PUSH2 0x367 CALLER PUSH2 0x358 PUSH1 0x12 PUSH1 0xA PUSH2 0xA83 JUMP JUMPDEST PUSH2 0x362 SWAP1 DUP5 PUSH2 0xA8E JUMP JUMPDEST PUSH2 0x758 JUMP JUMPDEST POP JUMP JUMPDEST PUSH0 CALLER DUP2 PUSH2 0x377 DUP3 DUP7 PUSH2 0x3F1 JUMP JUMPDEST SWAP1 POP DUP4 DUP2 LT ISZERO PUSH2 0x3D7 JUMPI PUSH1 0x40 MLOAD PUSH3 0x461BCD PUSH1 0xE5 SHL DUP2 MSTORE PUSH1 0x20 PUSH1 0x4 DUP3 ADD MSTORE PUSH1 0x25 PUSH1 0x24 DUP3 ADD MSTORE PUSH32 0x45524332303A2064656372656173656420616C6C6F77616E63652062656C6F77 PUSH1 0x44 DUP3 ADD MSTORE PUSH5 0x207A65726F PUSH1 0xD8 SHL PUSH1 0x64 DUP3 ADD MSTORE PUSH1 0x84 ADD PUSH2 0x33F JUMP JUMPDEST PUSH2 0x2C1 DUP3 DUP7 DUP7 DUP5 SUB PUSH2 0x41B JUMP JUMPDEST PUSH0 CALLER PUSH2 0x29D DUP2 DUP6 DUP6 PUSH2 0x5B6 JUMP JUMPDEST PUSH1 0x1 PUSH1 0x1 PUSH1 0xA0 SHL SUB SWAP2 DUP3 AND PUSH0 SWAP1 DUP2 MSTORE PUSH1 0x1 PUSH1 0x20 SWAP1 DUP2 MSTORE PUSH1 0x40 DUP1 DUP4 KECCAK256 SWAP4 SWAP1 SWAP5 AND DUP3 MSTORE SWAP2 SWAP1 SWAP2 MSTORE KECCAK256 SLOAD SWAP1 JUMP JUMPDEST PUSH1 0x1 PUSH1 0x1 PUSH1 0xA0 SHL SUB DUP4 AND PUSH2 0x47D JUMPI PUSH1 0x40 MLOAD PUSH3 0x461BCD PUSH1 0xE5 SHL DUP2 MSTORE PUSH1 0x20 PUSH1 0x4 DUP3 ADD MSTORE PUSH1 0x24 DUP1 DUP3 ADD MSTORE PUSH32 0x45524332303A20617070726F76652066726F6D20746865207A65726F20616464 PUSH1 0x44 DUP3 ADD MSTORE PUSH4 0x72657373 PUSH1 0xE0 SHL PUSH1 0x64 DUP3 ADD MSTORE PUSH1 0x84 ADD PUSH2 0x33F JUMP JUMPDEST PUSH1 0x1 PUSH1 0x1 PUSH1 0xA0 SHL SUB DUP3 AND PUSH2 0x4DE JUMPI PUSH1 0x40 MLOAD PUSH3 0x461BCD PUSH1 0xE5 SHL DUP2 MSTORE PUSH1 0x20 PUSH1 0x4 DUP3 ADD MSTORE PUSH1 0x22 PUSH1 0x24 DUP3 ADD MSTORE PUSH32 0x45524332303A20617070726F766520746F20746865207A65726F206164647265 PUSH1 0x44 DUP3 ADD MSTORE PUSH2 0x7373 PUSH1 0xF0 SHL PUSH1 0x64 DUP3 ADD MSTORE PUSH1 0x84 ADD PUSH2 0x33F JUMP JUMPDEST PUSH1 0x1 PUSH1 0x1 PUSH1 0xA0 SHL SUB DUP4 DUP2 AND PUSH0 DUP2 DUP2 MSTORE PUSH1 0x1 PUSH1 0x20 SWAP1 DUP2 MSTORE PUSH1 0x40 DUP1 DUP4 KECCAK256 SWAP5 DUP8 AND DUP1 DUP5 MSTORE SWAP5 DUP3 MSTORE SWAP2 DUP3 SWAP1 KECCAK256 DUP6 SWAP1 SSTORE SWAP1 MLOAD DUP5 DUP2 MSTORE PUSH32 0x8C5BE1E5EBEC7D5BD14F71427D1E84F3DD0314C0F7B2291E5B200AC8C7C3B925 SWAP2 ADD PUSH1 0x40 MLOAD DUP1 SWAP2 SUB SWAP1 LOG3 POP POP POP JUMP JUMPDEST PUSH0 PUSH2 0x549 DUP5 DUP5 PUSH2 0x3F1 JUMP JUMPDEST SWAP1 POP PUSH0 NOT DUP2 EQ PUSH2 0x5B0 JUMPI DUP2 DUP2 LT ISZERO PUSH2 0x5A3 JUMPI PUSH1 0x40 MLOAD PUSH3 0x461BCD PUSH1 0xE5 SHL DUP2 MSTORE PUSH1 0x20 PUSH1 0x4 DUP3 ADD MSTORE PUSH1 0x1D PUSH1 0x24 DUP3 ADD MSTORE PUSH32 0x45524332303A20696E73756666696369656E7420616C6C6F77616E6365000000 PUSH1 0x44 DUP3 ADD MSTORE PUSH1 0x64 ADD PUSH2 0x33F JUMP JUMPDEST PUSH2 0x5B0 DUP5 DUP5 DUP5 DUP5 SUB PUSH2 0x41B JUMP JUMPDEST POP POP POP POP JUMP JUMPDEST PUSH1 0x1 PUSH1 0x1 PUSH1 0xA0 SHL SUB DUP4 AND PUSH2 0x61A JUMPI PUSH1 0x40 MLOAD PUSH3 0x461BCD PUSH1 0xE5 SHL DUP2 MSTORE PUSH1 0x20 PUSH1 0x4 DUP3 ADD MSTORE PUSH1 0x25 PUSH1 0x24 DUP3 ADD MSTORE PUSH32 0x45524332303A207472616E736665722066726F6D20746865207A65726F206164 PUSH1 0x44 DUP3 ADD MSTORE PUSH5 0x6472657373 PUSH1 0xD8 SHL PUSH1 0x64 DUP3 ADD MSTORE PUSH1 0x84 ADD PUSH2 0x33F JUMP JUMPDEST PUSH1 0x1 PUSH1 0x1 PUSH1 0xA0 SHL SUB DUP3 AND PUSH2 0x67C JUMPI PUSH1 0x40 MLOAD PUSH3 0x461BCD PUSH1 0xE5 SHL DUP2 MSTORE PUSH1 0x20 PUSH1 0x4 DUP3 ADD MSTORE PUSH1 0x23 PUSH1 0x24 DUP3 ADD MSTORE PUSH32 0x45524332303A207472616E7366657220746F20746865207A65726F2061646472 PUSH1 0x44 DUP3 ADD MSTORE PUSH3 0x657373 PUSH1 0xE8 SHL PUSH1 0x64 DUP3 ADD MSTORE PUSH1 0x84 ADD PUSH2 0x33F JUMP JUMPDEST PUSH1 0x1 PUSH1 0x1 PUSH1 0xA0 SHL SUB DUP4 AND PUSH0 SWAP1 DUP2 MSTORE PUSH1 0x20 DUP2 SWAP1 MSTORE PUSH1 0x40 SWAP1 KECCAK256 SLOAD DUP2 DUP2 LT ISZERO PUSH2 0x6F3 JUMPI PUSH1 0x40 MLOAD PUSH3 0x461BCD PUSH1 0xE5 SHL DUP2 MSTORE PUSH1 0x20 PUSH1 0x4 DUP3 ADD MSTORE PUSH1 0x26 PUSH1 0x24 DUP3 ADD MSTORE PUSH32 0x45524332303A207472616E7366657220616D6F756E7420657863656564732062 PUSH1 0x44 DUP3 ADD MSTORE PUSH6 0x616C616E6365 PUSH1 0xD0 SHL PUSH1 0x64 DUP3 ADD MSTORE PUSH1 0x84 ADD PUSH2 0x33F JUMP JUMPDEST PUSH1 0x1 PUSH1 0x1 PUSH1 0xA0 SHL SUB DUP5 DUP2 AND PUSH0 DUP2 DUP2 MSTORE PUSH1 0x20 DUP2 DUP2 MSTORE PUSH1 0x40 DUP1 DUP4 KECCAK256 DUP8 DUP8 SUB SWAP1 SSTORE SWAP4 DUP8 AND DUP1 DUP4 MSTORE SWAP2 DUP5 SWAP1 KECCAK256 DUP1 SLOAD DUP8 ADD SWAP1 SSTORE SWAP3 MLOAD DUP6 DUP2 MSTORE SWAP1 SWAP3 PUSH32 0xDDF252AD1BE2C89B69C2B068FC378DAA952BA7F163C4A11628F55A4DF523B3EF SWAP2 ADD PUSH1 0x40 MLOAD DUP1 SWAP2 SUB SWAP1 LOG3 PUSH2 0x5B0 JUMP JUMPDEST PUSH1 0x1 PUSH1 0x1 PUSH1 0xA0 SHL SUB DUP3 AND PUSH2 0x7AE JUMPI PUSH1 0x40 MLOAD PUSH3 0x461BCD PUSH1 0xE5 SHL DUP2 MSTORE PUSH1 0x20 PUSH1 0x4 DUP3 ADD MSTORE PUSH1 0x1F PUSH1 0x24 DUP3 ADD MSTORE PUSH32 0x45524332303A206D696E7420746F20746865207A65726F206164647265737300 PUSH1 0x44 DUP3 ADD MSTORE PUSH1 0x64 ADD PUSH2 0x33F JUMP JUMPDEST DUP1 PUSH1 0x2 PUSH0 DUP3 DUP3 SLOAD PUSH2 0x7BF SWAP2 SWAP1 PUSH2 0x990 JUMP JUMPDEST SWAP1 SWAP2 SSTORE POP POP PUSH1 0x1 PUSH1 0x1 PUSH1 0xA0 SHL SUB DUP3 AND PUSH0 DUP2 DUP2 MSTORE PUSH1 0x20 DUP2 DUP2 MSTORE PUSH1 0x40 DUP1 DUP4 KECCAK256 DUP1 SLOAD DUP7 ADD SWAP1 SSTORE MLOAD DUP5 DUP2 MSTORE PUSH32 0xDDF252AD1BE2C89B69C2B068FC378DAA952BA7F163C4A11628F55A4DF523B3EF SWAP2 ADD PUSH1 0x40 MLOAD DUP1 SWAP2 SUB SWAP1 LOG3 POP POP JUMP JUMPDEST PUSH0 PUSH1 0x20 DUP1 DUP4 MSTORE DUP4 MLOAD DUP1 DUP3 DUP6 ADD MSTORE PUSH0 JUMPDEST DUP2 DUP2 LT ISZERO PUSH2 0x840 JUMPI DUP6 DUP2 ADD DUP4 ADD MLOAD DUP6 DUP3 ADD PUSH1 0x40 ADD MSTORE DUP3 ADD PUSH2 0x824 JUMP JUMPDEST POP PUSH0 PUSH1 0x40 DUP3 DUP7 ADD ADD MSTORE PUSH1 0x40 PUSH1 0x1F NOT PUSH1 0x1F DUP4 ADD AND DUP6 ADD ADD SWAP3 POP POP POP SWAP3 SWAP2 POP POP JUMP JUMPDEST DUP1 CALLDATALOAD PUSH1 0x1 PUSH1 0x1 PUSH1 0xA0 SHL SUB DUP2 AND DUP2 EQ PUSH2 0x876 JUMPI PUSH0 DUP1 REVERT JUMPDEST SWAP2 SWAP1 POP JUMP JUMPDEST PUSH0 DUP1 PUSH1 0x40 DUP4 DUP6 SUB SLT ISZERO PUSH2 0x88C JUMPI PUSH0 DUP1 REVERT JUMPDEST PUSH2 0x895 DUP4 PUSH2 0x860 JUMP JUMPDEST SWAP5 PUSH1 0x20 SWAP4 SWAP1 SWAP4 ADD CALLDATALOAD SWAP4 POP POP POP JUMP JUMPDEST PUSH0 DUP1 PUSH0 PUSH1 0x60 DUP5 DUP7 SUB SLT ISZERO PUSH2 0x8B5 JUMPI PUSH0 DUP1 REVERT JUMPDEST PUSH2 0x8BE DUP5 PUSH2 0x860 JUMP JUMPDEST SWAP3 POP PUSH2 0x8CC PUSH1 0x20 DUP6 ADD PUSH2 0x860 JUMP JUMPDEST SWAP2 POP PUSH1 0x40 DUP5 ADD CALLDATALOAD SWAP1 POP SWAP3 POP SWAP3 POP SWAP3 JUMP JUMPDEST PUSH0 PUSH1 0x20 DUP3 DUP5 SUB SLT ISZERO PUSH2 0x8EC JUMPI PUSH0 DUP1 REVERT JUMPDEST PUSH2 0x8F5 DUP3 PUSH2 0x860 JUMP JUMPDEST SWAP4 SWAP3 POP POP POP JUMP JUMPDEST PUSH0 PUSH1 0x20 DUP3 DUP5 SUB SLT ISZERO PUSH2 0x90C JUMPI PUSH0 DUP1 REVERT JUMPDEST POP CALLDATALOAD SWAP2 SWAP1 POP JUMP JUMPDEST PUSH0 DUP1 PUSH1 0x40 DUP4 DUP6 SUB SLT ISZERO PUSH2 0x924 JUMPI PUSH0 DUP1 REVERT JUMPDEST PUSH2 0x92D DUP4 PUSH2 0x860 JUMP JUMPDEST SWAP2 POP PUSH2 0x93B PUSH1 0x20 DUP5 ADD PUSH2 0x860 JUMP JUMPDEST SWAP1 POP SWAP3 POP SWAP3 SWAP1 POP JUMP JUMPDEST PUSH1 0x1 DUP2 DUP2 SHR SWAP1 DUP3 AND DUP1 PUSH2 0x958 JUMPI PUSH1 0x7F DUP3 AND SWAP2 POP JUMPDEST PUSH1 0x20 DUP3 LT DUP2 SUB PUSH2 0x976 JUMPI PUSH4 0x4E487B71 PUSH1 0xE0 SHL PUSH0 MSTORE PUSH1 0x22 PUSH1 0x4 MSTORE PUSH1 0x24 PUSH0 REVERT JUMPDEST POP SWAP2 SWAP1 POP JUMP JUMPDEST PUSH4 0x4E487B71 PUSH1 0xE0 SHL PUSH0 MSTORE PUSH1 0x11 PUSH1 0x4 MSTORE PUSH1 0x24 PUSH0 REVERT JUMPDEST DUP1 DUP3 ADD DUP1 DUP3 GT ISZERO PUSH2 0x2A3 JUMPI PUSH2 0x2A3 PUSH2 0x97C JUMP JUMPDEST PUSH1 0x1 DUP2 DUP2 JUMPDEST DUP1 DUP6 GT ISZERO PUSH2 0x9DD JUMPI DUP2 PUSH0 NOT DIV DUP3 GT ISZERO PUSH2 0x9C3 JUMPI PUSH2 0x9C3 PUSH2 0x97C JUMP JUMPDEST DUP1 DUP6 AND ISZERO PUSH2 0x9D0 JUMPI SWAP2 DUP2 MUL SWAP2 JUMPDEST SWAP4 DUP5 SHR SWAP4 SWAP1 DUP1 MUL SWAP1 PUSH2 0x9A8 JUMP JUMPDEST POP SWAP3 POP SWAP3 SWAP1 POP JUMP JUMPDEST PUSH0 DUP3 PUSH2 0x9F3 JUMPI POP PUSH1 0x1 PUSH2 0x2A3 JUMP JUMPDEST DUP2 PUSH2 0x9FF JUMPI POP PUSH0 PUSH2 0x2A3 JUMP JUMPDEST DUP2 PUSH1 0x1 DUP2 EQ PUSH2 0xA15 JUMPI PUSH1 0x2 DUP2 EQ PUSH2 0xA1F JUMPI PUSH2 0xA3B JUMP JUMPDEST PUSH1 0x1 SWAP2 POP POP PUSH2 0x2A3 JUMP JUMPDEST PUSH1 0xFF DUP5 GT ISZERO PUSH2 0xA30 JUMPI PUSH2 0xA30 PUSH2 0x97C JUMP JUMPDEST POP POP PUSH1 0x1 DUP3 SHL PUSH2 0x2A3 JUMP JUMPDEST POP PUSH1 0x20 DUP4 LT PUSH2 0x133 DUP4 LT AND PUSH1 0x4E DUP5 LT PUSH1 0xB DUP5 LT AND OR ISZERO PUSH2 0xA5E JUMPI POP DUP2 DUP2 EXP PUSH2 0x2A3 JUMP JUMPDEST PUSH2 0xA68 DUP4 DUP4 PUSH2 0x9A3 JUMP JUMPDEST DUP1 PUSH0 NOT DIV DUP3 GT ISZERO PUSH2 0xA7B JUMPI PUSH2 0xA7B PUSH2 0x97C JUMP JUMPDEST MUL SWAP4 SWAP3 POP POP POP JUMP JUMPDEST PUSH0 PUSH2 0x8F5 DUP4 DUP4 PUSH2 0x9E5 JUMP JUMPDEST DUP1 DUP3 MUL DUP2 ISZERO DUP3 DUP3 DIV DUP5 EQ OR PUSH2 0x2A3 JUMPI PUSH2 0x2A3 PUSH2 0x97C JUMP INVALID LOG2 PUSH5 0x6970667358 0x22 SLT KECCAK256 PUSH15 0x971FBDCEBCF4D8A682E8C2BD2FEB14 PUSH29 0xFE026D67CBB506E8F6703F0864D59764736F6C63430008140033000000 "
				},
				"gasEstimates": {
					"creation": {
						"codeDepositCost": "555800",
						"executionCost": "infinite",
						"totalCost": "infinite"
					},
					"external": {
						"allowance(address,address)": "infinite",
						"approve(address,uint256)": "24624",
						"balanceOf(address)": "2560",
						"decimals()": "265",
						"decreaseAllowance(address,uint256)": "26989",
						"increaseAllowance(address,uint256)": "infinite",
						"mint(uint256)": "infinite",
						"name()": "infinite",
						"owner()": "2381",
						"symbol()": "infinite",
						"totalSupply()": "2325",
						"transfer(address,uint256)": "51111",
						"transferFrom(address,address,uint256)": "infinite"
					}
				},
				"methodIdentifiers": {
					"allowance(address,address)": "dd62ed3e",
					"approve(address,uint256)": "095ea7b3",
					"balanceOf(address)": "70a08231",
					"decimals()": "313ce567",
					"decreaseAllowance(address,uint256)": "a457c2d7",
					"increaseAllowance(address,uint256)": "39509351",
					"mint(uint256)": "a0712d68",
					"name()": "06fdde03",
					"owner()": "8da5cb5b",
					"symbol()": "95d89b41",
					"totalSupply()": "18160ddd",
					"transfer(address,uint256)": "a9059cbb",
					"transferFrom(address,address,uint256)": "23b872dd"
				}
			},
			"storageLayout": {
				"storage": [
					{
						"astId": 142,
						"contract": "ROO_Repurchase/contracts/erc20.sol:CHE_USDT",
						"label": "_balances",
						"offset": 0,
						"slot": "0",
						"type": "t_mapping(t_address,t_uint256)"
					},
					{
						"astId": 148,
						"contract": "ROO_Repurchase/contracts/erc20.sol:CHE_USDT",
						"label": "_allowances",
						"offset": 0,
						"slot": "1",
						"type": "t_mapping(t_address,t_mapping(t_address,t_uint256))"
					},
					{
						"astId": 150,
						"contract": "ROO_Repurchase/contracts/erc20.sol:CHE_USDT",
						"label": "_totalSupply",
						"offset": 0,
						"slot": "2",
						"type": "t_uint256"
					},
					{
						"astId": 152,
						"contract": "ROO_Repurchase/contracts/erc20.sol:CHE_USDT",
						"label": "_name",
						"offset": 0,
						"slot": "3",
						"type": "t_string_storage"
					},
					{
						"astId": 154,
						"contract": "ROO_Repurchase/contracts/erc20.sol:CHE_USDT",
						"label": "_symbol",
						"offset": 0,
						"slot": "4",
						"type": "t_string_storage"
					},
					{
						"astId": 698,
						"contract": "ROO_Repurchase/contracts/erc20.sol:CHE_USDT",
						"label": "owner",
						"offset": 0,
						"slot": "5",
						"type": "t_address"
					}
				],
				"types": {
					"t_address": {
						"encoding": "inplace",
						"label": "address",
						"numberOfBytes": "20"
					},
					"t_mapping(t_address,t_mapping(t_address,t_uint256))": {
						"encoding": "mapping",
						"key": "t_address",
						"label": "mapping(address => mapping(address => uint256))",
						"numberOfBytes": "32",
						"value": "t_mapping(t_address,t_uint256)"
					},
					"t_mapping(t_address,t_uint256)": {
						"encoding": "mapping",
						"key": "t_address",
						"label": "mapping(address => uint256)",
						"numberOfBytes": "32",
						"value": "t_uint256"
					},
					"t_string_storage": {
						"encoding": "bytes",
						"label": "string",
						"numberOfBytes": "32"
					},
					"t_uint256": {
						"encoding": "inplace",
						"label": "uint256",
						"numberOfBytes": "32"
					}
				}
			},
			"userdoc": {
				"kind": "user",
				"methods": {},
				"version": 1
			}
		}
	}
}