{
	"ROO_Repurchase/contracts/HecoMain_Usdt.sol": {
		"ERC20Template": {
			"abi": [
				{
					"inputs": [
						{
							"internalType": "address",
							"name": "operator",
							"type": "address"
						},
						{
							"internalType": "address",
							"name": "pauser",
							"type": "address"
						},
						{
							"internalType": "string",
							"name": "name",
							"type": "string"
						},
						{
							"internalType": "string",
							"name": "symbol",
							"type": "string"
						},
						{
							"internalType": "uint8",
							"name": "decimal",
							"type": "uint8"
						}
					],
					"stateMutability": "nonpayable",
					"type": "constructor"
				},
				{
					"anonymous": false,
					"inputs": [
						{
							"indexed": true,
							"internalType": "address",
							"name": "owner",
							"type": "address"
						},
						{
							"indexed": true,
							"internalType": "address",
							"name": "spender",
							"type": "address"
						},
						{
							"indexed": false,
							"internalType": "uint256",
							"name": "value",
							"type": "uint256"
						}
					],
					"name": "Approval",
					"type": "event"
				},
				{
					"anonymous": false,
					"inputs": [
						{
							"indexed": false,
							"internalType": "address",
							"name": "account",
							"type": "address"
						}
					],
					"name": "Paused",
					"type": "event"
				},
				{
					"anonymous": false,
					"inputs": [
						{
							"indexed": true,
							"internalType": "address",
							"name": "from",
							"type": "address"
						},
						{
							"indexed": true,
							"internalType": "address",
							"name": "to",
							"type": "address"
						},
						{
							"indexed": false,
							"internalType": "uint256",
							"name": "value",
							"type": "uint256"
						}
					],
					"name": "Transfer",
					"type": "event"
				},
				{
					"anonymous": false,
					"inputs": [
						{
							"indexed": false,
							"internalType": "address",
							"name": "account",
							"type": "address"
						}
					],
					"name": "Unpaused",
					"type": "event"
				},
				{
					"inputs": [
						{
							"internalType": "address",
							"name": "owner",
							"type": "address"
						},
						{
							"internalType": "address",
							"name": "spender",
							"type": "address"
						}
					],
					"name": "allowance",
					"outputs": [
						{
							"internalType": "uint256",
							"name": "",
							"type": "uint256"
						}
					],
					"stateMutability": "view",
					"type": "function"
				},
				{
					"inputs": [
						{
							"internalType": "address",
							"name": "spender",
							"type": "address"
						},
						{
							"internalType": "uint256",
							"name": "amount",
							"type": "uint256"
						}
					],
					"name": "approve",
					"outputs": [
						{
							"internalType": "bool",
							"name": "",
							"type": "bool"
						}
					],
					"stateMutability": "nonpayable",
					"type": "function"
				},
				{
					"inputs": [
						{
							"internalType": "address",
							"name": "account",
							"type": "address"
						}
					],
					"name": "balanceOf",
					"outputs": [
						{
							"internalType": "uint256",
							"name": "",
							"type": "uint256"
						}
					],
					"stateMutability": "view",
					"type": "function"
				},
				{
					"inputs": [
						{
							"internalType": "address",
							"name": "account",
							"type": "address"
						},
						{
							"internalType": "uint256",
							"name": "amount",
							"type": "uint256"
						}
					],
					"name": "burn",
					"outputs": [],
					"stateMutability": "nonpayable",
					"type": "function"
				},
				{
					"inputs": [
						{
							"internalType": "address",
							"name": "new_operator",
							"type": "address"
						},
						{
							"internalType": "address",
							"name": "new_pauser",
							"type": "address"
						}
					],
					"name": "changeUser",
					"outputs": [],
					"stateMutability": "nonpayable",
					"type": "function"
				},
				{
					"inputs": [],
					"name": "decimals",
					"outputs": [
						{
							"internalType": "uint8",
							"name": "",
							"type": "uint8"
						}
					],
					"stateMutability": "view",
					"type": "function"
				},
				{
					"inputs": [
						{
							"internalType": "address",
							"name": "spender",
							"type": "address"
						},
						{
							"internalType": "uint256",
							"name": "subtractedValue",
							"type": "uint256"
						}
					],
					"name": "decreaseAllowance",
					"outputs": [
						{
							"internalType": "bool",
							"name": "",
							"type": "bool"
						}
					],
					"stateMutability": "nonpayable",
					"type": "function"
				},
				{
					"inputs": [
						{
							"internalType": "address",
							"name": "spender",
							"type": "address"
						},
						{
							"internalType": "uint256",
							"name": "addedValue",
							"type": "uint256"
						}
					],
					"name": "increaseAllowance",
					"outputs": [
						{
							"internalType": "bool",
							"name": "",
							"type": "bool"
						}
					],
					"stateMutability": "nonpayable",
					"type": "function"
				},
				{
					"inputs": [
						{
							"internalType": "address",
							"name": "account",
							"type": "address"
						},
						{
							"internalType": "uint256",
							"name": "amount",
							"type": "uint256"
						}
					],
					"name": "mint",
					"outputs": [],
					"stateMutability": "nonpayable",
					"type": "function"
				},
				{
					"inputs": [],
					"name": "name",
					"outputs": [
						{
							"internalType": "string",
							"name": "",
							"type": "string"
						}
					],
					"stateMutability": "view",
					"type": "function"
				},
				{
					"inputs": [],
					"name": "pause",
					"outputs": [],
					"stateMutability": "nonpayable",
					"type": "function"
				},
				{
					"inputs": [],
					"name": "paused",
					"outputs": [
						{
							"internalType": "bool",
							"name": "",
							"type": "bool"
						}
					],
					"stateMutability": "view",
					"type": "function"
				},
				{
					"inputs": [],
					"name": "symbol",
					"outputs": [
						{
							"internalType": "string",
							"name": "",
							"type": "string"
						}
					],
					"stateMutability": "view",
					"type": "function"
				},
				{
					"inputs": [],
					"name": "totalSupply",
					"outputs": [
						{
							"internalType": "uint256",
							"name": "",
							"type": "uint256"
						}
					],
					"stateMutability": "view",
					"type": "function"
				},
				{
					"inputs": [
						{
							"internalType": "address",
							"name": "recipient",
							"type": "address"
						},
						{
							"internalType": "uint256",
							"name": "amount",
							"type": "uint256"
						}
					],
					"name": "transfer",
					"outputs": [
						{
							"internalType": "bool",
							"name": "",
							"type": "bool"
						}
					],
					"stateMutability": "nonpayable",
					"type": "function"
				},
				{
					"inputs": [
						{
							"internalType": "address",
							"name": "sender",
							"type": "address"
						},
						{
							"internalType": "address",
							"name": "recipient",
							"type": "address"
						},
						{
							"internalType": "uint256",
							"name": "amount",
							"type": "uint256"
						}
					],
					"name": "transferFrom",
					"outputs": [
						{
							"internalType": "bool",
							"name": "",
							"type": "bool"
						}
					],
					"stateMutability": "nonpayable",
					"type": "function"
				},
				{
					"inputs": [],
					"name": "unpause",
					"outputs": [],
					"stateMutability": "nonpayable",
					"type": "function"
				}
			],
			"devdoc": {
				"methods": {}
			},
			"evm": {
				"assembly": "    /* \"ROO_Repurchase/contracts/HecoMain_Usdt.sol\":8051:9252  contract ERC20Template is ERC20Pausable {... */\n  mstore(0x40, 0x80)\n    /* \"ROO_Repurchase/contracts/HecoMain_Usdt.sol\":8162:8410  constructor(address operator,address pauser,string memory name, string memory symbol,uint8 decimal) public ERC20(name,symbol) {... */\n  callvalue\n    /* \"--CODEGEN--\":5:14   */\n  dup1\n    /* \"--CODEGEN--\":2:4   */\n  iszero\n  tag_1\n  jumpi\n    /* \"--CODEGEN--\":27:28   */\n  0x00\n    /* \"--CODEGEN--\":24:25   */\n  dup1\n    /* \"--CODEGEN--\":17:29   */\n  revert\n    /* \"--CODEGEN--\":2:4   */\ntag_1:\n    /* \"ROO_Repurchase/contracts/HecoMain_Usdt.sol\":8162:8410  constructor(address operator,address pauser,string memory name, string memory symbol,uint8 decimal) public ERC20(name,symbol) {... */\n  pop\n  mload(0x40)\n  sub(codesize, bytecodeSize)\n  dup1\n  bytecodeSize\n  dup4\n  codecopy\n  dup2\n  dup2\n  add\n  0x40\n  mstore\n    /* \"--CODEGEN--\":15:18   */\n  0xa0\n    /* \"--CODEGEN--\":10:13   */\n  dup2\n    /* \"--CODEGEN--\":7:19   */\n  lt\n    /* \"--CODEGEN--\":4:6   */\n  iszero\n  tag_2\n  jumpi\n    /* \"--CODEGEN--\":32:33   */\n  0x00\n    /* \"--CODEGEN--\":29:30   */\n  dup1\n    /* \"--CODEGEN--\":22:34   */\n  revert\n    /* \"--CODEGEN--\":4:6   */\ntag_2:\n    /* \"ROO_Repurchase/contracts/HecoMain_Usdt.sol\":8162:8410  constructor(address operator,address pauser,string memory name, string memory symbol,uint8 decimal) public ERC20(name,symbol) {... */\n  dup2\n  add\n  swap1\n  dup1\n  dup1\n  mload\n  swap1\n  0x20\n  add\n  swap1\n  swap3\n  swap2\n  swap1\n  dup1\n  mload\n  swap1\n  0x20\n  add\n  swap1\n  swap3\n  swap2\n  swap1\n  dup1\n  mload\n  mload(0x40)\n  swap4\n  swap3\n  swap2\n  swap1\n  dup5\n    /* \"--CODEGEN--\":19:30   */\n  0x0100000000\n    /* \"--CODEGEN--\":14:17   */\n  dup3\n    /* \"--CODEGEN--\":11:31   */\n  gt\n    /* \"--CODEGEN--\":8:10   */\n  iszero\n  tag_3\n  jumpi\n    /* \"--CODEGEN--\":44:45   */\n  0x00\n    /* \"--CODEGEN--\":41:42   */\n  dup1\n    /* \"--CODEGEN--\":34:46   */\n  revert\n    /* \"--CODEGEN--\":8:10   */\ntag_3:\n    /* \"--CODEGEN--\":71:82   */\n  dup4\n    /* \"--CODEGEN--\":66:69   */\n  dup3\n    /* \"--CODEGEN--\":62:83   */\n  add\n    /* \"--CODEGEN--\":55:83   */\n  swap2\n  pop\n    /* \"--CODEGEN--\":123:127   */\n  0x20\n    /* \"--CODEGEN--\":118:121   */\n  dup3\n    /* \"--CODEGEN--\":114:128   */\n  add\n    /* \"--CODEGEN--\":159:168   */\n  dup6\n    /* \"--CODEGEN--\":141:157   */\n  dup2\n    /* \"--CODEGEN--\":138:169   */\n  gt\n    /* \"--CODEGEN--\":135:137   */\n  iszero\n  tag_4\n  jumpi\n    /* \"--CODEGEN--\":182:183   */\n  0x00\n    /* \"--CODEGEN--\":179:180   */\n  dup1\n    /* \"--CODEGEN--\":172:184   */\n  revert\n    /* \"--CODEGEN--\":135:137   */\ntag_4:\n    /* \"--CODEGEN--\":219:222   */\n  dup3\n    /* \"--CODEGEN--\":213:223   */\n  mload\n    /* \"--CODEGEN--\":330:339   */\n  dup7\n    /* \"--CODEGEN--\":325:326   */\n  0x01\n    /* \"--CODEGEN--\":311:323   */\n  dup3\n    /* \"--CODEGEN--\":307:327   */\n  mul\n    /* \"--CODEGEN--\":289:305   */\n  dup4\n    /* \"--CODEGEN--\":285:328   */\n  add\n    /* \"--CODEGEN--\":282:340   */\n  gt\n    /* \"--CODEGEN--\":261:272   */\n  0x0100000000\n    /* \"--CODEGEN--\":247:259   */\n  dup3\n    /* \"--CODEGEN--\":244:273   */\n  gt\n    /* \"--CODEGEN--\":233:348   */\n  or\n    /* \"--CODEGEN--\":230:232   */\n  iszero\n  tag_5\n  jumpi\n    /* \"--CODEGEN--\":361:362   */\n  0x00\n    /* \"--CODEGEN--\":358:359   */\n  dup1\n    /* \"--CODEGEN--\":351:363   */\n  revert\n    /* \"--CODEGEN--\":230:232   */\ntag_5:\n    /* \"--CODEGEN--\":384:396   */\n  dup1\n    /* \"--CODEGEN--\":379:382   */\n  dup4\n    /* \"--CODEGEN--\":372:397   */\n  mstore\n    /* \"--CODEGEN--\":420:424   */\n  0x20\n    /* \"--CODEGEN--\":415:418   */\n  dup4\n    /* \"--CODEGEN--\":411:425   */\n  add\n    /* \"--CODEGEN--\":404:425   */\n  swap3\n  pop\n    /* \"--CODEGEN--\":0:432   */\n  pop\n  pop\n    /* \"ROO_Repurchase/contracts/HecoMain_Usdt.sol\":8162:8410  constructor(address operator,address pauser,string memory name, string memory symbol,uint8 decimal) public ERC20(name,symbol) {... */\n  swap1\n  dup1\n  mload\n  swap1\n  0x20\n  add\n  swap1\n  dup1\n  dup4\n  dup4\n    /* \"--CODEGEN--\":23:24   */\n  0x00\n    /* \"--CODEGEN--\":8:108   */\ntag_6:\n    /* \"--CODEGEN--\":33:36   */\n  dup4\n    /* \"--CODEGEN--\":30:31   */\n  dup2\n    /* \"--CODEGEN--\":27:37   */\n  lt\n    /* \"--CODEGEN--\":8:108   */\n  iszero\n  tag_8\n  jumpi\n    /* \"--CODEGEN--\":99:100   */\n  dup1\n    /* \"--CODEGEN--\":94:97   */\n  dup3\n    /* \"--CODEGEN--\":90:101   */\n  add\n    /* \"--CODEGEN--\":84:102   */\n  mload\n    /* \"--CODEGEN--\":80:81   */\n  dup2\n    /* \"--CODEGEN--\":75:78   */\n  dup5\n    /* \"--CODEGEN--\":71:82   */\n  add\n    /* \"--CODEGEN--\":64:103   */\n  mstore\n    /* \"--CODEGEN--\":52:54   */\n  0x20\n    /* \"--CODEGEN--\":49:50   */\n  dup2\n    /* \"--CODEGEN--\":45:55   */\n  add\n    /* \"--CODEGEN--\":40:55   */\n  swap1\n  pop\n    /* \"--CODEGEN--\":8:108   */\n  jump(tag_6)\ntag_8:\n    /* \"--CODEGEN--\":12:26   */\n  pop\n    /* \"ROO_Repurchase/contracts/HecoMain_Usdt.sol\":8162:8410  constructor(address operator,address pauser,string memory name, string memory symbol,uint8 decimal) public ERC20(name,symbol) {... */\n  pop\n  pop\n  pop\n  swap1\n  pop\n  swap1\n  dup2\n  add\n  swap1\n  0x1f\n  and\n  dup1\n  iszero\n  tag_9\n  jumpi\n  dup1\n  dup3\n  sub\n  dup1\n  mload\n  0x01\n  dup4\n  0x20\n  sub\n  0x0100\n  exp\n  sub\n  not\n  and\n  dup2\n  mstore\n  0x20\n  add\n  swap2\n  pop\ntag_9:\n  pop\n  0x40\n  mstore\n  0x20\n  add\n  dup1\n  mload\n  mload(0x40)\n  swap4\n  swap3\n  swap2\n  swap1\n  dup5\n    /* \"--CODEGEN--\":19:30   */\n  0x0100000000\n    /* \"--CODEGEN--\":14:17   */\n  dup3\n    /* \"--CODEGEN--\":11:31   */\n  gt\n    /* \"--CODEGEN--\":8:10   */\n  iszero\n  tag_10\n  jumpi\n    /* \"--CODEGEN--\":44:45   */\n  0x00\n    /* \"--CODEGEN--\":41:42   */\n  dup1\n    /* \"--CODEGEN--\":34:46   */\n  revert\n    /* \"--CODEGEN--\":8:10   */\ntag_10:\n    /* \"--CODEGEN--\":71:82   */\n  dup4\n    /* \"--CODEGEN--\":66:69   */\n  dup3\n    /* \"--CODEGEN--\":62:83   */\n  add\n    /* \"--CODEGEN--\":55:83   */\n  swap2\n  pop\n    /* \"--CODEGEN--\":123:127   */\n  0x20\n    /* \"--CODEGEN--\":118:121   */\n  dup3\n    /* \"--CODEGEN--\":114:128   */\n  add\n    /* \"--CODEGEN--\":159:168   */\n  dup6\n    /* \"--CODEGEN--\":141:157   */\n  dup2\n    /* \"--CODEGEN--\":138:169   */\n  gt\n    /* \"--CODEGEN--\":135:137   */\n  iszero\n  tag_11\n  jumpi\n    /* \"--CODEGEN--\":182:183   */\n  0x00\n    /* \"--CODEGEN--\":179:180   */\n  dup1\n    /* \"--CODEGEN--\":172:184   */\n  revert\n    /* \"--CODEGEN--\":135:137   */\ntag_11:\n    /* \"--CODEGEN--\":219:222   */\n  dup3\n    /* \"--CODEGEN--\":213:223   */\n  mload\n    /* \"--CODEGEN--\":330:339   */\n  dup7\n    /* \"--CODEGEN--\":325:326   */\n  0x01\n    /* \"--CODEGEN--\":311:323   */\n  dup3\n    /* \"--CODEGEN--\":307:327   */\n  mul\n    /* \"--CODEGEN--\":289:305   */\n  dup4\n    /* \"--CODEGEN--\":285:328   */\n  add\n    /* \"--CODEGEN--\":282:340   */\n  gt\n    /* \"--CODEGEN--\":261:272   */\n  0x0100000000\n    /* \"--CODEGEN--\":247:259   */\n  dup3\n    /* \"--CODEGEN--\":244:273   */\n  gt\n    /* \"--CODEGEN--\":233:348   */\n  or\n    /* \"--CODEGEN--\":230:232   */\n  iszero\n  tag_12\n  jumpi\n    /* \"--CODEGEN--\":361:362   */\n  0x00\n    /* \"--CODEGEN--\":358:359   */\n  dup1\n    /* \"--CODEGEN--\":351:363   */\n  revert\n    /* \"--CODEGEN--\":230:232   */\ntag_12:\n    /* \"--CODEGEN--\":384:396   */\n  dup1\n    /* \"--CODEGEN--\":379:382   */\n  dup4\n    /* \"--CODEGEN--\":372:397   */\n  mstore\n    /* \"--CODEGEN--\":420:424   */\n  0x20\n    /* \"--CODEGEN--\":415:418   */\n  dup4\n    /* \"--CODEGEN--\":411:425   */\n  add\n    /* \"--CODEGEN--\":404:425   */\n  swap3\n  pop\n    /* \"--CODEGEN--\":0:432   */\n  pop\n  pop\n    /* \"ROO_Repurchase/contracts/HecoMain_Usdt.sol\":8162:8410  constructor(address operator,address pauser,string memory name, string memory symbol,uint8 decimal) public ERC20(name,symbol) {... */\n  swap1\n  dup1\n  mload\n  swap1\n  0x20\n  add\n  swap1\n  dup1\n  dup4\n  dup4\n    /* \"--CODEGEN--\":23:24   */\n  0x00\n    /* \"--CODEGEN--\":8:108   */\ntag_13:\n    /* \"--CODEGEN--\":33:36   */\n  dup4\n    /* \"--CODEGEN--\":30:31   */\n  dup2\n    /* \"--CODEGEN--\":27:37   */\n  lt\n    /* \"--CODEGEN--\":8:108   */\n  iszero\n  tag_15\n  jumpi\n    /* \"--CODEGEN--\":99:100   */\n  dup1\n    /* \"--CODEGEN--\":94:97   */\n  dup3\n    /* \"--CODEGEN--\":90:101   */\n  add\n    /* \"--CODEGEN--\":84:102   */\n  mload\n    /* \"--CODEGEN--\":80:81   */\n  dup2\n    /* \"--CODEGEN--\":75:78   */\n  dup5\n    /* \"--CODEGEN--\":71:82   */\n  add\n    /* \"--CODEGEN--\":64:103   */\n  mstore\n    /* \"--CODEGEN--\":52:54   */\n  0x20\n    /* \"--CODEGEN--\":49:50   */\n  dup2\n    /* \"--CODEGEN--\":45:55   */\n  add\n    /* \"--CODEGEN--\":40:55   */\n  swap1\n  pop\n    /* \"--CODEGEN--\":8:108   */\n  jump(tag_13)\ntag_15:\n    /* \"--CODEGEN--\":12:26   */\n  pop\n    /* \"ROO_Repurchase/contracts/HecoMain_Usdt.sol\":8162:8410  constructor(address operator,address pauser,string memory name, string memory symbol,uint8 decimal) public ERC20(name,symbol) {... */\n  pop\n  pop\n  pop\n  swap1\n  pop\n  swap1\n  dup2\n  add\n  swap1\n  0x1f\n  and\n  dup1\n  iszero\n  tag_16\n  jumpi\n  dup1\n  dup3\n  sub\n  dup1\n  mload\n  0x01\n  dup4\n  0x20\n  sub\n  0x0100\n  exp\n  sub\n  not\n  and\n  dup2\n  mstore\n  0x20\n  add\n  swap2\n  pop\ntag_16:\n  pop\n  0x40\n  mstore\n  0x20\n  add\n  dup1\n  mload\n  swap1\n  0x20\n  add\n  swap1\n  swap3\n  swap2\n  swap1\n  pop\n  pop\n  pop\n    /* \"ROO_Repurchase/contracts/HecoMain_Usdt.sol\":8275:8279  name */\n  dup3\n    /* \"ROO_Repurchase/contracts/HecoMain_Usdt.sol\":8280:8286  symbol */\n  dup3\n    /* \"ROO_Repurchase/contracts/HecoMain_Usdt.sol\":4001:4006  name_ */\n  dup2\n    /* \"ROO_Repurchase/contracts/HecoMain_Usdt.sol\":3993:3998  _name */\n  0x03\n    /* \"ROO_Repurchase/contracts/HecoMain_Usdt.sol\":3993:4006  _name = name_ */\n  swap1\n  dup1\n  mload\n  swap1\n  0x20\n  add\n  swap1\n  tag_21\n  swap3\n  swap2\n  swap1\n  tag_22\n  jump\t// in\ntag_21:\n  pop\n    /* \"ROO_Repurchase/contracts/HecoMain_Usdt.sol\":4026:4033  symbol_ */\n  dup1\n    /* \"ROO_Repurchase/contracts/HecoMain_Usdt.sol\":4016:4023  _symbol */\n  0x04\n    /* \"ROO_Repurchase/contracts/HecoMain_Usdt.sol\":4016:4033  _symbol = symbol_ */\n  swap1\n  dup1\n  mload\n  swap1\n  0x20\n  add\n  swap1\n  tag_23\n  swap3\n  swap2\n  swap1\n  tag_22\n  jump\t// in\ntag_23:\n  pop\n    /* \"ROO_Repurchase/contracts/HecoMain_Usdt.sol\":4055:4057  18 */\n  0x12\n    /* \"ROO_Repurchase/contracts/HecoMain_Usdt.sol\":4043:4052  _decimals */\n  0x05\n  0x00\n    /* \"ROO_Repurchase/contracts/HecoMain_Usdt.sol\":4043:4057  _decimals = 18 */\n  0x0100\n  exp\n  dup2\n  sload\n  dup2\n  0xff\n  mul\n  not\n  and\n  swap1\n  dup4\n  0xff\n  and\n  mul\n  or\n  swap1\n  sstore\n  pop\n    /* \"ROO_Repurchase/contracts/HecoMain_Usdt.sol\":3919:4064  constructor (string memory name_, string memory symbol_) public {... */\n  pop\n  pop\n    /* \"ROO_Repurchase/contracts/HecoMain_Usdt.sol\":3060:3065  false */\n  0x00\n    /* \"ROO_Repurchase/contracts/HecoMain_Usdt.sol\":3050:3057  _paused */\n  0x05\n  0x01\n    /* \"ROO_Repurchase/contracts/HecoMain_Usdt.sol\":3050:3065  _paused = false */\n  0x0100\n  exp\n  dup2\n  sload\n  dup2\n  0xff\n  mul\n  not\n  and\n  swap1\n  dup4\n  iszero\n  iszero\n  mul\n  or\n  swap1\n  sstore\n  pop\n    /* \"ROO_Repurchase/contracts/HecoMain_Usdt.sol\":8310:8318  operator */\n  dup5\n    /* \"ROO_Repurchase/contracts/HecoMain_Usdt.sol\":8298:8307  _operator */\n  0x06\n  0x00\n    /* \"ROO_Repurchase/contracts/HecoMain_Usdt.sol\":8298:8318  _operator = operator */\n  0x0100\n  exp\n  dup2\n  sload\n  dup2\n  0xffffffffffffffffffffffffffffffffffffffff\n  mul\n  not\n  and\n  swap1\n  dup4\n  0xffffffffffffffffffffffffffffffffffffffff\n  and\n  mul\n  or\n  swap1\n  sstore\n  pop\n    /* \"ROO_Repurchase/contracts/HecoMain_Usdt.sol\":8336:8342  pauser */\n  dup4\n    /* \"ROO_Repurchase/contracts/HecoMain_Usdt.sol\":8328:8335  _pauser */\n  0x07\n  0x00\n    /* \"ROO_Repurchase/contracts/HecoMain_Usdt.sol\":8328:8342  _pauser=pauser */\n  0x0100\n  exp\n  dup2\n  sload\n  dup2\n  0xffffffffffffffffffffffffffffffffffffffff\n  mul\n  not\n  and\n  swap1\n  dup4\n  0xffffffffffffffffffffffffffffffffffffffff\n  and\n  mul\n  or\n  swap1\n  sstore\n  pop\n    /* \"ROO_Repurchase/contracts/HecoMain_Usdt.sol\":8352:8375  _setupDecimals(decimal) */\n  tag_26\n    /* \"ROO_Repurchase/contracts/HecoMain_Usdt.sol\":8367:8374  decimal */\n  dup2\n    /* \"ROO_Repurchase/contracts/HecoMain_Usdt.sol\":8352:8366  _setupDecimals */\n  shl(0x20, tag_27)\n    /* \"ROO_Repurchase/contracts/HecoMain_Usdt.sol\":8352:8375  _setupDecimals(decimal) */\n  0x20\n  shr\n  jump\t// in\ntag_26:\n    /* \"ROO_Repurchase/contracts/HecoMain_Usdt.sol\":8393:8403  msg.sender */\n  caller\n    /* \"ROO_Repurchase/contracts/HecoMain_Usdt.sol\":8385:8392  factory */\n  0x05\n  0x02\n    /* \"ROO_Repurchase/contracts/HecoMain_Usdt.sol\":8385:8403  factory=msg.sender */\n  0x0100\n  exp\n  dup2\n  sload\n  dup2\n  0xffffffffffffffffffffffffffffffffffffffff\n  mul\n  not\n  and\n  swap1\n  dup4\n  0xffffffffffffffffffffffffffffffffffffffff\n  and\n  mul\n  or\n  swap1\n  sstore\n  pop\n    /* \"ROO_Repurchase/contracts/HecoMain_Usdt.sol\":8162:8410  constructor(address operator,address pauser,string memory name, string memory symbol,uint8 decimal) public ERC20(name,symbol) {... */\n  pop\n  pop\n  pop\n  pop\n  pop\n    /* \"ROO_Repurchase/contracts/HecoMain_Usdt.sol\":8051:9252  contract ERC20Template is ERC20Pausable {... */\n  jump(tag_28)\n    /* \"ROO_Repurchase/contracts/HecoMain_Usdt.sol\":7568:7656  function _setupDecimals(uint8 decimals_) internal {... */\ntag_27:\n    /* \"ROO_Repurchase/contracts/HecoMain_Usdt.sol\":7640:7649  decimals_ */\n  dup1\n    /* \"ROO_Repurchase/contracts/HecoMain_Usdt.sol\":7628:7637  _decimals */\n  0x05\n  0x00\n    /* \"ROO_Repurchase/contracts/HecoMain_Usdt.sol\":7628:7649  _decimals = decimals_ */\n  0x0100\n  exp\n  dup2\n  sload\n  dup2\n  0xff\n  mul\n  not\n  and\n  swap1\n  dup4\n  0xff\n  and\n  mul\n  or\n  swap1\n  sstore\n  pop\n    /* \"ROO_Repurchase/contracts/HecoMain_Usdt.sol\":7568:7656  function _setupDecimals(uint8 decimals_) internal {... */\n  pop\n  jump\t// out\n    /* \"ROO_Repurchase/contracts/HecoMain_Usdt.sol\":8051:9252  contract ERC20Template is ERC20Pausable {... */\ntag_22:\n  dup3\n  dup1\n  sload\n  0x01\n  dup2\n  0x01\n  and\n  iszero\n  0x0100\n  mul\n  sub\n  and\n  0x02\n  swap1\n  div\n  swap1\n  0x00\n  mstore\n  keccak256(0x00, 0x20)\n  swap1\n  0x1f\n  add\n  0x20\n  swap1\n  div\n  dup2\n  add\n  swap3\n  dup3\n  0x1f\n  lt\n  tag_31\n  jumpi\n  dup1\n  mload\n  not(0xff)\n  and\n  dup4\n  dup1\n  add\n  or\n  dup6\n  sstore\n  jump(tag_30)\ntag_31:\n  dup3\n  dup1\n  add\n  0x01\n  add\n  dup6\n  sstore\n  dup3\n  iszero\n  tag_30\n  jumpi\n  swap2\n  dup3\n  add\ntag_32:\n  dup3\n  dup2\n  gt\n  iszero\n  tag_33\n  jumpi\n  dup3\n  mload\n  dup3\n  sstore\n  swap2\n  0x20\n  add\n  swap2\n  swap1\n  0x01\n  add\n  swap1\n  jump(tag_32)\ntag_33:\ntag_30:\n  pop\n  swap1\n  pop\n  tag_34\n  swap2\n  swap1\n  tag_35\n  jump\t// in\ntag_34:\n  pop\n  swap1\n  jump\t// out\ntag_35:\n  tag_36\n  swap2\n  swap1\ntag_37:\n  dup1\n  dup3\n  gt\n  iszero\n  tag_38\n  jumpi\n  0x00\n  dup2\n  0x00\n  swap1\n  sstore\n  pop\n  0x01\n  add\n  jump(tag_37)\ntag_38:\n  pop\n  swap1\n  jump\ntag_36:\n  swap1\n  jump\t// out\ntag_28:\n  dataSize(sub_0)\n  dup1\n  dataOffset(sub_0)\n  0x00\n  codecopy\n  0x00\n  return\nstop\n\nsub_0: assembly {\n        /* \"ROO_Repurchase/contracts/HecoMain_Usdt.sol\":8051:9252  contract ERC20Template is ERC20Pausable {... */\n      mstore(0x40, 0x80)\n      callvalue\n        /* \"--CODEGEN--\":5:14   */\n      dup1\n        /* \"--CODEGEN--\":2:4   */\n      iszero\n      tag_1\n      jumpi\n        /* \"--CODEGEN--\":27:28   */\n      0x00\n        /* \"--CODEGEN--\":24:25   */\n      dup1\n        /* \"--CODEGEN--\":17:29   */\n      revert\n        /* \"--CODEGEN--\":2:4   */\n    tag_1:\n        /* \"ROO_Repurchase/contracts/HecoMain_Usdt.sol\":8051:9252  contract ERC20Template is ERC20Pausable {... */\n      pop\n      jumpi(tag_2, lt(calldatasize, 0x04))\n      shr(0xe0, calldataload(0x00))\n      dup1\n      0x5c975abb\n      gt\n      tag_20\n      jumpi\n      dup1\n      0x95d89b41\n      gt\n      tag_21\n      jumpi\n      dup1\n      0x95d89b41\n      eq\n      tag_15\n      jumpi\n      dup1\n      0x9dc29fac\n      eq\n      tag_16\n      jumpi\n      dup1\n      0xa457c2d7\n      eq\n      tag_17\n      jumpi\n      dup1\n      0xa9059cbb\n      eq\n      tag_18\n      jumpi\n      dup1\n      0xdd62ed3e\n      eq\n      tag_19\n      jumpi\n      jump(tag_2)\n    tag_21:\n      dup1\n      0x5c975abb\n      eq\n      tag_11\n      jumpi\n      dup1\n      0x70a08231\n      eq\n      tag_12\n      jumpi\n      dup1\n      0x8456cb59\n      eq\n      tag_13\n      jumpi\n      dup1\n      0x8e50817a\n      eq\n      tag_14\n      jumpi\n      jump(tag_2)\n    tag_20:\n      dup1\n      0x313ce567\n      gt\n      tag_22\n      jumpi\n      dup1\n      0x313ce567\n      eq\n      tag_7\n      jumpi\n      dup1\n      0x39509351\n      eq\n      tag_8\n      jumpi\n      dup1\n      0x3f4ba83a\n      eq\n      tag_9\n      jumpi\n      dup1\n      0x40c10f19\n      eq\n      tag_10\n      jumpi\n      jump(tag_2)\n    tag_22:\n      dup1\n      0x06fdde03\n      eq\n      tag_3\n      jumpi\n      dup1\n      0x095ea7b3\n      eq\n      tag_4\n      jumpi\n      dup1\n      0x18160ddd\n      eq\n      tag_5\n      jumpi\n      dup1\n      0x23b872dd\n      eq\n      tag_6\n      jumpi\n    tag_2:\n        /* \"--CODEGEN--\":12:13   */\n      0x00\n        /* \"--CODEGEN--\":9:10   */\n      dup1\n        /* \"--CODEGEN--\":2:14   */\n      revert\n        /* \"ROO_Repurchase/contracts/HecoMain_Usdt.sol\":4070:4151  function name() public view returns (string memory) {... */\n    tag_3:\n      tag_23\n      tag_24\n      jump\t// in\n    tag_23:\n      mload(0x40)\n      dup1\n      dup1\n      0x20\n      add\n      dup3\n      dup2\n      sub\n      dup3\n      mstore\n      dup4\n      dup2\n      dup2\n      mload\n      dup2\n      mstore\n      0x20\n      add\n      swap2\n      pop\n      dup1\n      mload\n      swap1\n      0x20\n      add\n      swap1\n      dup1\n      dup4\n      dup4\n        /* \"--CODEGEN--\":23:24   */\n      0x00\n        /* \"--CODEGEN--\":8:108   */\n    tag_25:\n        /* \"--CODEGEN--\":33:36   */\n      dup4\n        /* \"--CODEGEN--\":30:31   */\n      dup2\n        /* \"--CODEGEN--\":27:37   */\n      lt\n        /* \"--CODEGEN--\":8:108   */\n      iszero\n      tag_27\n      jumpi\n        /* \"--CODEGEN--\":99:100   */\n      dup1\n        /* \"--CODEGEN--\":94:97   */\n      dup3\n        /* \"--CODEGEN--\":90:101   */\n      add\n        /* \"--CODEGEN--\":84:102   */\n      mload\n        /* \"--CODEGEN--\":80:81   */\n      dup2\n        /* \"--CODEGEN--\":75:78   */\n      dup5\n        /* \"--CODEGEN--\":71:82   */\n      add\n        /* \"--CODEGEN--\":64:103   */\n      mstore\n        /* \"--CODEGEN--\":52:54   */\n      0x20\n        /* \"--CODEGEN--\":49:50   */\n      dup2\n        /* \"--CODEGEN--\":45:55   */\n      add\n        /* \"--CODEGEN--\":40:55   */\n      swap1\n      pop\n        /* \"--CODEGEN--\":8:108   */\n      jump(tag_25)\n    tag_27:\n        /* \"--CODEGEN--\":12:26   */\n      pop\n        /* \"ROO_Repurchase/contracts/HecoMain_Usdt.sol\":4070:4151  function name() public view returns (string memory) {... */\n      pop\n      pop\n      pop\n      swap1\n      pop\n      swap1\n      dup2\n      add\n      swap1\n      0x1f\n      and\n      dup1\n      iszero\n      tag_28\n      jumpi\n      dup1\n      dup3\n      sub\n      dup1\n      mload\n      0x01\n      dup4\n      0x20\n      sub\n      0x0100\n      exp\n      sub\n      not\n      and\n      dup2\n      mstore\n      0x20\n      add\n      swap2\n      pop\n    tag_28:\n      pop\n      swap3\n      pop\n      pop\n      pop\n      mload(0x40)\n      dup1\n      swap2\n      sub\n      swap1\n      return\n        /* \"ROO_Repurchase/contracts/HecoMain_Usdt.sol\":4902:5068  function approve(address spender, uint256 amount) public virtual override returns (bool) {... */\n    tag_4:\n      tag_29\n      0x04\n      dup1\n      calldatasize\n      sub\n        /* \"--CODEGEN--\":15:17   */\n      0x40\n        /* \"--CODEGEN--\":10:13   */\n      dup2\n        /* \"--CODEGEN--\":7:18   */\n      lt\n        /* \"--CODEGEN--\":4:6   */\n      iszero\n      tag_30\n      jumpi\n        /* \"--CODEGEN--\":31:32   */\n      0x00\n        /* \"--CODEGEN--\":28:29   */\n      dup1\n        /* \"--CODEGEN--\":21:33   */\n      revert\n        /* \"--CODEGEN--\":4:6   */\n    tag_30:\n        /* \"ROO_Repurchase/contracts/HecoMain_Usdt.sol\":4902:5068  function approve(address spender, uint256 amount) public virtual override returns (bool) {... */\n      dup2\n      add\n      swap1\n      dup1\n      dup1\n      calldataload\n      0xffffffffffffffffffffffffffffffffffffffff\n      and\n      swap1\n      0x20\n      add\n      swap1\n      swap3\n      swap2\n      swap1\n      dup1\n      calldataload\n      swap1\n      0x20\n      add\n      swap1\n      swap3\n      swap2\n      swap1\n      pop\n      pop\n      pop\n      tag_31\n      jump\t// in\n    tag_29:\n      mload(0x40)\n      dup1\n      dup3\n      iszero\n      iszero\n      iszero\n      iszero\n      dup2\n      mstore\n      0x20\n      add\n      swap2\n      pop\n      pop\n      mload(0x40)\n      dup1\n      swap2\n      sub\n      swap1\n      return\n        /* \"ROO_Repurchase/contracts/HecoMain_Usdt.sol\":4338:4436  function totalSupply() public view override returns (uint256) {... */\n    tag_5:\n      tag_32\n      tag_33\n      jump\t// in\n    tag_32:\n      mload(0x40)\n      dup1\n      dup3\n      dup2\n      mstore\n      0x20\n      add\n      swap2\n      pop\n      pop\n      mload(0x40)\n      dup1\n      swap2\n      sub\n      swap1\n      return\n        /* \"ROO_Repurchase/contracts/HecoMain_Usdt.sol\":5075:5392  function transferFrom(address sender, address recipient, uint256 amount) public virtual override returns (bool) {... */\n    tag_6:\n      tag_34\n      0x04\n      dup1\n      calldatasize\n      sub\n        /* \"--CODEGEN--\":15:17   */\n      0x60\n        /* \"--CODEGEN--\":10:13   */\n      dup2\n        /* \"--CODEGEN--\":7:18   */\n      lt\n        /* \"--CODEGEN--\":4:6   */\n      iszero\n      tag_35\n      jumpi\n        /* \"--CODEGEN--\":31:32   */\n      0x00\n        /* \"--CODEGEN--\":28:29   */\n      dup1\n        /* \"--CODEGEN--\":21:33   */\n      revert\n        /* \"--CODEGEN--\":4:6   */\n    tag_35:\n        /* \"ROO_Repurchase/contracts/HecoMain_Usdt.sol\":5075:5392  function transferFrom(address sender, address recipient, uint256 amount) public virtual override returns (bool) {... */\n      dup2\n      add\n      swap1\n      dup1\n      dup1\n      calldataload\n      0xffffffffffffffffffffffffffffffffffffffff\n      and\n      swap1\n      0x20\n      add\n      swap1\n      swap3\n      swap2\n      swap1\n      dup1\n      calldataload\n      0xffffffffffffffffffffffffffffffffffffffff\n      and\n      swap1\n      0x20\n      add\n      swap1\n      swap3\n      swap2\n      swap1\n      dup1\n      calldataload\n      swap1\n      0x20\n      add\n      swap1\n      swap3\n      swap2\n      swap1\n      pop\n      pop\n      pop\n      tag_36\n      jump\t// in\n    tag_34:\n      mload(0x40)\n      dup1\n      dup3\n      iszero\n      iszero\n      iszero\n      iszero\n      dup2\n      mstore\n      0x20\n      add\n      swap2\n      pop\n      pop\n      mload(0x40)\n      dup1\n      swap2\n      sub\n      swap1\n      return\n        /* \"ROO_Repurchase/contracts/HecoMain_Usdt.sol\":4250:4331  function decimals() public view returns (uint8) {... */\n    tag_7:\n      tag_37\n      tag_38\n      jump\t// in\n    tag_37:\n      mload(0x40)\n      dup1\n      dup3\n      0xff\n      and\n      0xff\n      and\n      dup2\n      mstore\n      0x20\n      add\n      swap2\n      pop\n      pop\n      mload(0x40)\n      dup1\n      swap2\n      sub\n      swap1\n      return\n        /* \"ROO_Repurchase/contracts/HecoMain_Usdt.sol\":5399:5614  function increaseAllowance(address spender, uint256 addedValue) public virtual returns (bool) {... */\n    tag_8:\n      tag_39\n      0x04\n      dup1\n      calldatasize\n      sub\n        /* \"--CODEGEN--\":15:17   */\n      0x40\n        /* \"--CODEGEN--\":10:13   */\n      dup2\n        /* \"--CODEGEN--\":7:18   */\n      lt\n        /* \"--CODEGEN--\":4:6   */\n      iszero\n      tag_40\n      jumpi\n        /* \"--CODEGEN--\":31:32   */\n      0x00\n        /* \"--CODEGEN--\":28:29   */\n      dup1\n        /* \"--CODEGEN--\":21:33   */\n      revert\n        /* \"--CODEGEN--\":4:6   */\n    tag_40:\n        /* \"ROO_Repurchase/contracts/HecoMain_Usdt.sol\":5399:5614  function increaseAllowance(address spender, uint256 addedValue) public virtual returns (bool) {... */\n      dup2\n      add\n      swap1\n      dup1\n      dup1\n      calldataload\n      0xffffffffffffffffffffffffffffffffffffffff\n      and\n      swap1\n      0x20\n      add\n      swap1\n      swap3\n      swap2\n      swap1\n      dup1\n      calldataload\n      swap1\n      0x20\n      add\n      swap1\n      swap3\n      swap2\n      swap1\n      pop\n      pop\n      pop\n      tag_41\n      jump\t// in\n    tag_39:\n      mload(0x40)\n      dup1\n      dup3\n      iszero\n      iszero\n      iszero\n      iszero\n      dup2\n      mstore\n      0x20\n      add\n      swap2\n      pop\n      pop\n      mload(0x40)\n      dup1\n      swap2\n      sub\n      swap1\n      return\n        /* \"ROO_Repurchase/contracts/HecoMain_Usdt.sol\":8782:8846  function unpause() public  onlyPauser{... */\n    tag_9:\n      tag_42\n      tag_43\n      jump\t// in\n    tag_42:\n      stop\n        /* \"ROO_Repurchase/contracts/HecoMain_Usdt.sol\":9005:9125  function mint(address account, uint256 amount) public whenNotPaused onlyOperator {... */\n    tag_10:\n      tag_44\n      0x04\n      dup1\n      calldatasize\n      sub\n        /* \"--CODEGEN--\":15:17   */\n      0x40\n        /* \"--CODEGEN--\":10:13   */\n      dup2\n        /* \"--CODEGEN--\":7:18   */\n      lt\n        /* \"--CODEGEN--\":4:6   */\n      iszero\n      tag_45\n      jumpi\n        /* \"--CODEGEN--\":31:32   */\n      0x00\n        /* \"--CODEGEN--\":28:29   */\n      dup1\n        /* \"--CODEGEN--\":21:33   */\n      revert\n        /* \"--CODEGEN--\":4:6   */\n    tag_45:\n        /* \"ROO_Repurchase/contracts/HecoMain_Usdt.sol\":9005:9125  function mint(address account, uint256 amount) public whenNotPaused onlyOperator {... */\n      dup2\n      add\n      swap1\n      dup1\n      dup1\n      calldataload\n      0xffffffffffffffffffffffffffffffffffffffff\n      and\n      swap1\n      0x20\n      add\n      swap1\n      swap3\n      swap2\n      swap1\n      dup1\n      calldataload\n      swap1\n      0x20\n      add\n      swap1\n      swap3\n      swap2\n      swap1\n      pop\n      pop\n      pop\n      tag_46\n      jump\t// in\n    tag_44:\n      stop\n        /* \"ROO_Repurchase/contracts/HecoMain_Usdt.sol\":3079:3155  function paused() public view returns (bool) {... */\n    tag_11:\n      tag_47\n      tag_48\n      jump\t// in\n    tag_47:\n      mload(0x40)\n      dup1\n      dup3\n      iszero\n      iszero\n      iszero\n      iszero\n      dup2\n      mstore\n      0x20\n      add\n      swap2\n      pop\n      pop\n      mload(0x40)\n      dup1\n      swap2\n      sub\n      swap1\n      return\n        /* \"ROO_Repurchase/contracts/HecoMain_Usdt.sol\":4443:4560  function balanceOf(address account) public view override returns (uint256) {... */\n    tag_12:\n      tag_49\n      0x04\n      dup1\n      calldatasize\n      sub\n        /* \"--CODEGEN--\":15:17   */\n      0x20\n        /* \"--CODEGEN--\":10:13   */\n      dup2\n        /* \"--CODEGEN--\":7:18   */\n      lt\n        /* \"--CODEGEN--\":4:6   */\n      iszero\n      tag_50\n      jumpi\n        /* \"--CODEGEN--\":31:32   */\n      0x00\n        /* \"--CODEGEN--\":28:29   */\n      dup1\n        /* \"--CODEGEN--\":21:33   */\n      revert\n        /* \"--CODEGEN--\":4:6   */\n    tag_50:\n        /* \"ROO_Repurchase/contracts/HecoMain_Usdt.sol\":4443:4560  function balanceOf(address account) public view override returns (uint256) {... */\n      dup2\n      add\n      swap1\n      dup1\n      dup1\n      calldataload\n      0xffffffffffffffffffffffffffffffffffffffff\n      and\n      swap1\n      0x20\n      add\n      swap1\n      swap3\n      swap2\n      swap1\n      pop\n      pop\n      pop\n      tag_51\n      jump\t// in\n    tag_49:\n      mload(0x40)\n      dup1\n      dup3\n      dup2\n      mstore\n      0x20\n      add\n      swap2\n      pop\n      pop\n      mload(0x40)\n      dup1\n      swap2\n      sub\n      swap1\n      return\n        /* \"ROO_Repurchase/contracts/HecoMain_Usdt.sol\":8716:8776  function pause() public  onlyPauser{... */\n    tag_13:\n      tag_52\n      tag_53\n      jump\t// in\n    tag_52:\n      stop\n        /* \"ROO_Repurchase/contracts/HecoMain_Usdt.sol\":8852:8999  function changeUser(address new_operator, address new_pauser) public onlyFactory{... */\n    tag_14:\n      tag_54\n      0x04\n      dup1\n      calldatasize\n      sub\n        /* \"--CODEGEN--\":15:17   */\n      0x40\n        /* \"--CODEGEN--\":10:13   */\n      dup2\n        /* \"--CODEGEN--\":7:18   */\n      lt\n        /* \"--CODEGEN--\":4:6   */\n      iszero\n      tag_55\n      jumpi\n        /* \"--CODEGEN--\":31:32   */\n      0x00\n        /* \"--CODEGEN--\":28:29   */\n      dup1\n        /* \"--CODEGEN--\":21:33   */\n      revert\n        /* \"--CODEGEN--\":4:6   */\n    tag_55:\n        /* \"ROO_Repurchase/contracts/HecoMain_Usdt.sol\":8852:8999  function changeUser(address new_operator, address new_pauser) public onlyFactory{... */\n      dup2\n      add\n      swap1\n      dup1\n      dup1\n      calldataload\n      0xffffffffffffffffffffffffffffffffffffffff\n      and\n      swap1\n      0x20\n      add\n      swap1\n      swap3\n      swap2\n      swap1\n      dup1\n      calldataload\n      0xffffffffffffffffffffffffffffffffffffffff\n      and\n      swap1\n      0x20\n      add\n      swap1\n      swap3\n      swap2\n      swap1\n      pop\n      pop\n      pop\n      tag_56\n      jump\t// in\n    tag_54:\n      stop\n        /* \"ROO_Repurchase/contracts/HecoMain_Usdt.sol\":4158:4243  function symbol() public view returns (string memory) {... */\n    tag_15:\n      tag_57\n      tag_58\n      jump\t// in\n    tag_57:\n      mload(0x40)\n      dup1\n      dup1\n      0x20\n      add\n      dup3\n      dup2\n      sub\n      dup3\n      mstore\n      dup4\n      dup2\n      dup2\n      mload\n      dup2\n      mstore\n      0x20\n      add\n      swap2\n      pop\n      dup1\n      mload\n      swap1\n      0x20\n      add\n      swap1\n      dup1\n      dup4\n      dup4\n        /* \"--CODEGEN--\":23:24   */\n      0x00\n        /* \"--CODEGEN--\":8:108   */\n    tag_59:\n        /* \"--CODEGEN--\":33:36   */\n      dup4\n        /* \"--CODEGEN--\":30:31   */\n      dup2\n        /* \"--CODEGEN--\":27:37   */\n      lt\n        /* \"--CODEGEN--\":8:108   */\n      iszero\n      tag_61\n      jumpi\n        /* \"--CODEGEN--\":99:100   */\n      dup1\n        /* \"--CODEGEN--\":94:97   */\n      dup3\n        /* \"--CODEGEN--\":90:101   */\n      add\n        /* \"--CODEGEN--\":84:102   */\n      mload\n        /* \"--CODEGEN--\":80:81   */\n      dup2\n        /* \"--CODEGEN--\":75:78   */\n      dup5\n        /* \"--CODEGEN--\":71:82   */\n      add\n        /* \"--CODEGEN--\":64:103   */\n      mstore\n        /* \"--CODEGEN--\":52:54   */\n      0x20\n        /* \"--CODEGEN--\":49:50   */\n      dup2\n        /* \"--CODEGEN--\":45:55   */\n      add\n        /* \"--CODEGEN--\":40:55   */\n      swap1\n      pop\n        /* \"--CODEGEN--\":8:108   */\n      jump(tag_59)\n    tag_61:\n        /* \"--CODEGEN--\":12:26   */\n      pop\n        /* \"ROO_Repurchase/contracts/HecoMain_Usdt.sol\":4158:4243  function symbol() public view returns (string memory) {... */\n      pop\n      pop\n      pop\n      swap1\n      pop\n      swap1\n      dup2\n      add\n      swap1\n      0x1f\n      and\n      dup1\n      iszero\n      tag_62\n      jumpi\n      dup1\n      dup3\n      sub\n      dup1\n      mload\n      0x01\n      dup4\n      0x20\n      sub\n      0x0100\n      exp\n      sub\n      not\n      and\n      dup2\n      mstore\n      0x20\n      add\n      swap2\n      pop\n    tag_62:\n      pop\n      swap3\n      pop\n      pop\n      pop\n      mload(0x40)\n      dup1\n      swap2\n      sub\n      swap1\n      return\n        /* \"ROO_Repurchase/contracts/HecoMain_Usdt.sol\":9130:9250  function burn(address account , uint256 amount) public whenNotPaused onlyOperator {... */\n    tag_16:\n      tag_63\n      0x04\n      dup1\n      calldatasize\n      sub\n        /* \"--CODEGEN--\":15:17   */\n      0x40\n        /* \"--CODEGEN--\":10:13   */\n      dup2\n        /* \"--CODEGEN--\":7:18   */\n      lt\n        /* \"--CODEGEN--\":4:6   */\n      iszero\n      tag_64\n      jumpi\n        /* \"--CODEGEN--\":31:32   */\n      0x00\n        /* \"--CODEGEN--\":28:29   */\n      dup1\n        /* \"--CODEGEN--\":21:33   */\n      revert\n        /* \"--CODEGEN--\":4:6   */\n    tag_64:\n        /* \"ROO_Repurchase/contracts/HecoMain_Usdt.sol\":9130:9250  function burn(address account , uint256 amount) public whenNotPaused onlyOperator {... */\n      dup2\n      add\n      swap1\n      dup1\n      dup1\n      calldataload\n      0xffffffffffffffffffffffffffffffffffffffff\n      and\n      swap1\n      0x20\n      add\n      swap1\n      swap3\n      swap2\n      swap1\n      dup1\n      calldataload\n      swap1\n      0x20\n      add\n      swap1\n      swap3\n      swap2\n      swap1\n      pop\n      pop\n      pop\n      tag_65\n      jump\t// in\n    tag_63:\n      stop\n        /* \"ROO_Repurchase/contracts/HecoMain_Usdt.sol\":5620:5886  function decreaseAllowance(address spender, uint256 subtractedValue) public virtual returns (bool) {... */\n    tag_17:\n      tag_66\n      0x04\n      dup1\n      calldatasize\n      sub\n        /* \"--CODEGEN--\":15:17   */\n      0x40\n        /* \"--CODEGEN--\":10:13   */\n      dup2\n        /* \"--CODEGEN--\":7:18   */\n      lt\n        /* \"--CODEGEN--\":4:6   */\n      iszero\n      tag_67\n      jumpi\n        /* \"--CODEGEN--\":31:32   */\n      0x00\n        /* \"--CODEGEN--\":28:29   */\n      dup1\n        /* \"--CODEGEN--\":21:33   */\n      revert\n        /* \"--CODEGEN--\":4:6   */\n    tag_67:\n        /* \"ROO_Repurchase/contracts/HecoMain_Usdt.sol\":5620:5886  function decreaseAllowance(address spender, uint256 subtractedValue) public virtual returns (bool) {... */\n      dup2\n      add\n      swap1\n      dup1\n      dup1\n      calldataload\n      0xffffffffffffffffffffffffffffffffffffffff\n      and\n      swap1\n      0x20\n      add\n      swap1\n      swap3\n      swap2\n      swap1\n      dup1\n      calldataload\n      swap1\n      0x20\n      add\n      swap1\n      swap3\n      swap2\n      swap1\n      pop\n      pop\n      pop\n      tag_68\n      jump\t// in\n    tag_66:\n      mload(0x40)\n      dup1\n      dup3\n      iszero\n      iszero\n      iszero\n      iszero\n      dup2\n      mstore\n      0x20\n      add\n      swap2\n      pop\n      pop\n      mload(0x40)\n      dup1\n      swap2\n      sub\n      swap1\n      return\n        /* \"ROO_Repurchase/contracts/HecoMain_Usdt.sol\":4567:4739  function transfer(address recipient, uint256 amount) public virtual override returns (bool) {... */\n    tag_18:\n      tag_69\n      0x04\n      dup1\n      calldatasize\n      sub\n        /* \"--CODEGEN--\":15:17   */\n      0x40\n        /* \"--CODEGEN--\":10:13   */\n      dup2\n        /* \"--CODEGEN--\":7:18   */\n      lt\n        /* \"--CODEGEN--\":4:6   */\n      iszero\n      tag_70\n      jumpi\n        /* \"--CODEGEN--\":31:32   */\n      0x00\n        /* \"--CODEGEN--\":28:29   */\n      dup1\n        /* \"--CODEGEN--\":21:33   */\n      revert\n        /* \"--CODEGEN--\":4:6   */\n    tag_70:\n        /* \"ROO_Repurchase/contracts/HecoMain_Usdt.sol\":4567:4739  function transfer(address recipient, uint256 amount) public virtual override returns (bool) {... */\n      dup2\n      add\n      swap1\n      dup1\n      dup1\n      calldataload\n      0xffffffffffffffffffffffffffffffffffffffff\n      and\n      swap1\n      0x20\n      add\n      swap1\n      swap3\n      swap2\n      swap1\n      dup1\n      calldataload\n      swap1\n      0x20\n      add\n      swap1\n      swap3\n      swap2\n      swap1\n      pop\n      pop\n      pop\n      tag_71\n      jump\t// in\n    tag_69:\n      mload(0x40)\n      dup1\n      dup3\n      iszero\n      iszero\n      iszero\n      iszero\n      dup2\n      mstore\n      0x20\n      add\n      swap2\n      pop\n      pop\n      mload(0x40)\n      dup1\n      swap2\n      sub\n      swap1\n      return\n        /* \"ROO_Repurchase/contracts/HecoMain_Usdt.sol\":4746:4895  function allowance(address owner, address spender) public view virtual override returns (uint256) {... */\n    tag_19:\n      tag_72\n      0x04\n      dup1\n      calldatasize\n      sub\n        /* \"--CODEGEN--\":15:17   */\n      0x40\n        /* \"--CODEGEN--\":10:13   */\n      dup2\n        /* \"--CODEGEN--\":7:18   */\n      lt\n        /* \"--CODEGEN--\":4:6   */\n      iszero\n      tag_73\n      jumpi\n        /* \"--CODEGEN--\":31:32   */\n      0x00\n        /* \"--CODEGEN--\":28:29   */\n      dup1\n        /* \"--CODEGEN--\":21:33   */\n      revert\n        /* \"--CODEGEN--\":4:6   */\n    tag_73:\n        /* \"ROO_Repurchase/contracts/HecoMain_Usdt.sol\":4746:4895  function allowance(address owner, address spender) public view virtual override returns (uint256) {... */\n      dup2\n      add\n      swap1\n      dup1\n      dup1\n      calldataload\n      0xffffffffffffffffffffffffffffffffffffffff\n      and\n      swap1\n      0x20\n      add\n      swap1\n      swap3\n      swap2\n      swap1\n      dup1\n      calldataload\n      0xffffffffffffffffffffffffffffffffffffffff\n      and\n      swap1\n      0x20\n      add\n      swap1\n      swap3\n      swap2\n      swap1\n      pop\n      pop\n      pop\n      tag_74\n      jump\t// in\n    tag_72:\n      mload(0x40)\n      dup1\n      dup3\n      dup2\n      mstore\n      0x20\n      add\n      swap2\n      pop\n      pop\n      mload(0x40)\n      dup1\n      swap2\n      sub\n      swap1\n      return\n        /* \"ROO_Repurchase/contracts/HecoMain_Usdt.sol\":4070:4151  function name() public view returns (string memory) {... */\n    tag_24:\n        /* \"ROO_Repurchase/contracts/HecoMain_Usdt.sol\":4107:4120  string memory */\n      0x60\n        /* \"ROO_Repurchase/contracts/HecoMain_Usdt.sol\":4139:4144  _name */\n      0x03\n        /* \"ROO_Repurchase/contracts/HecoMain_Usdt.sol\":4132:4144  return _name */\n      dup1\n      sload\n      0x01\n      dup2\n      0x01\n      and\n      iszero\n      0x0100\n      mul\n      sub\n      and\n      0x02\n      swap1\n      div\n      dup1\n      0x1f\n      add\n      0x20\n      dup1\n      swap2\n      div\n      mul\n      0x20\n      add\n      mload(0x40)\n      swap1\n      dup2\n      add\n      0x40\n      mstore\n      dup1\n      swap3\n      swap2\n      swap1\n      dup2\n      dup2\n      mstore\n      0x20\n      add\n      dup3\n      dup1\n      sload\n      0x01\n      dup2\n      0x01\n      and\n      iszero\n      0x0100\n      mul\n      sub\n      and\n      0x02\n      swap1\n      div\n      dup1\n      iszero\n      tag_76\n      jumpi\n      dup1\n      0x1f\n      lt\n      tag_77\n      jumpi\n      0x0100\n      dup1\n      dup4\n      sload\n      div\n      mul\n      dup4\n      mstore\n      swap2\n      0x20\n      add\n      swap2\n      jump(tag_76)\n    tag_77:\n      dup3\n      add\n      swap2\n      swap1\n      0x00\n      mstore\n      keccak256(0x00, 0x20)\n      swap1\n    tag_78:\n      dup2\n      sload\n      dup2\n      mstore\n      swap1\n      0x01\n      add\n      swap1\n      0x20\n      add\n      dup1\n      dup4\n      gt\n      tag_78\n      jumpi\n      dup3\n      swap1\n      sub\n      0x1f\n      and\n      dup3\n      add\n      swap2\n    tag_76:\n      pop\n      pop\n      pop\n      pop\n      pop\n      swap1\n      pop\n        /* \"ROO_Repurchase/contracts/HecoMain_Usdt.sol\":4070:4151  function name() public view returns (string memory) {... */\n      swap1\n      jump\t// out\n        /* \"ROO_Repurchase/contracts/HecoMain_Usdt.sol\":4902:5068  function approve(address spender, uint256 amount) public virtual override returns (bool) {... */\n    tag_31:\n        /* \"ROO_Repurchase/contracts/HecoMain_Usdt.sol\":4985:4989  bool */\n      0x00\n        /* \"ROO_Repurchase/contracts/HecoMain_Usdt.sol\":5001:5040  _approve(_msgSender(), spender, amount) */\n      tag_80\n        /* \"ROO_Repurchase/contracts/HecoMain_Usdt.sol\":5010:5022  _msgSender() */\n      tag_81\n        /* \"ROO_Repurchase/contracts/HecoMain_Usdt.sol\":5010:5020  _msgSender */\n      tag_82\n        /* \"ROO_Repurchase/contracts/HecoMain_Usdt.sol\":5010:5022  _msgSender() */\n      jump\t// in\n    tag_81:\n        /* \"ROO_Repurchase/contracts/HecoMain_Usdt.sol\":5024:5031  spender */\n      dup5\n        /* \"ROO_Repurchase/contracts/HecoMain_Usdt.sol\":5033:5039  amount */\n      dup5\n        /* \"ROO_Repurchase/contracts/HecoMain_Usdt.sol\":5001:5009  _approve */\n      tag_83\n        /* \"ROO_Repurchase/contracts/HecoMain_Usdt.sol\":5001:5040  _approve(_msgSender(), spender, amount) */\n      jump\t// in\n    tag_80:\n        /* \"ROO_Repurchase/contracts/HecoMain_Usdt.sol\":5057:5061  true */\n      0x01\n        /* \"ROO_Repurchase/contracts/HecoMain_Usdt.sol\":5050:5061  return true */\n      swap1\n      pop\n        /* \"ROO_Repurchase/contracts/HecoMain_Usdt.sol\":4902:5068  function approve(address spender, uint256 amount) public virtual override returns (bool) {... */\n      swap3\n      swap2\n      pop\n      pop\n      jump\t// out\n        /* \"ROO_Repurchase/contracts/HecoMain_Usdt.sol\":4338:4436  function totalSupply() public view override returns (uint256) {... */\n    tag_33:\n        /* \"ROO_Repurchase/contracts/HecoMain_Usdt.sol\":4391:4398  uint256 */\n      0x00\n        /* \"ROO_Repurchase/contracts/HecoMain_Usdt.sol\":4417:4429  _totalSupply */\n      sload(0x02)\n        /* \"ROO_Repurchase/contracts/HecoMain_Usdt.sol\":4410:4429  return _totalSupply */\n      swap1\n      pop\n        /* \"ROO_Repurchase/contracts/HecoMain_Usdt.sol\":4338:4436  function totalSupply() public view override returns (uint256) {... */\n      swap1\n      jump\t// out\n        /* \"ROO_Repurchase/contracts/HecoMain_Usdt.sol\":5075:5392  function transferFrom(address sender, address recipient, uint256 amount) public virtual override returns (bool) {... */\n    tag_36:\n        /* \"ROO_Repurchase/contracts/HecoMain_Usdt.sol\":5181:5185  bool */\n      0x00\n        /* \"ROO_Repurchase/contracts/HecoMain_Usdt.sol\":5197:5233  _transfer(sender, recipient, amount) */\n      tag_86\n        /* \"ROO_Repurchase/contracts/HecoMain_Usdt.sol\":5207:5213  sender */\n      dup5\n        /* \"ROO_Repurchase/contracts/HecoMain_Usdt.sol\":5215:5224  recipient */\n      dup5\n        /* \"ROO_Repurchase/contracts/HecoMain_Usdt.sol\":5226:5232  amount */\n      dup5\n        /* \"ROO_Repurchase/contracts/HecoMain_Usdt.sol\":5197:5206  _transfer */\n      tag_87\n        /* \"ROO_Repurchase/contracts/HecoMain_Usdt.sol\":5197:5233  _transfer(sender, recipient, amount) */\n      jump\t// in\n    tag_86:\n        /* \"ROO_Repurchase/contracts/HecoMain_Usdt.sol\":5243:5364  _approve(sender, _msgSender(), _allowances[sender][_msgSender()].sub(amount, \"ERC20: transfer amount exceeds allowance\")) */\n      tag_88\n        /* \"ROO_Repurchase/contracts/HecoMain_Usdt.sol\":5252:5258  sender */\n      dup5\n        /* \"ROO_Repurchase/contracts/HecoMain_Usdt.sol\":5260:5272  _msgSender() */\n      tag_89\n        /* \"ROO_Repurchase/contracts/HecoMain_Usdt.sol\":5260:5270  _msgSender */\n      tag_82\n        /* \"ROO_Repurchase/contracts/HecoMain_Usdt.sol\":5260:5272  _msgSender() */\n      jump\t// in\n    tag_89:\n        /* \"ROO_Repurchase/contracts/HecoMain_Usdt.sol\":5274:5363  _allowances[sender][_msgSender()].sub(amount, \"ERC20: transfer amount exceeds allowance\") */\n      tag_90\n        /* \"ROO_Repurchase/contracts/HecoMain_Usdt.sol\":5312:5318  amount */\n      dup6\n        /* \"ROO_Repurchase/contracts/HecoMain_Usdt.sol\":5274:5363  _allowances[sender][_msgSender()].sub(amount, \"ERC20: transfer amount exceeds allowance\") */\n      mload(0x40)\n      dup1\n      0x60\n      add\n      0x40\n      mstore\n      dup1\n      0x28\n      dup2\n      mstore\n      0x20\n      add\n      data_974d1b4421da69cc60b481194f0dad36a5bb4e23da810da7a7fb30cdba178330\n      0x28\n      swap2\n      codecopy\n        /* \"ROO_Repurchase/contracts/HecoMain_Usdt.sol\":5274:5285  _allowances */\n      0x01\n        /* \"ROO_Repurchase/contracts/HecoMain_Usdt.sol\":5274:5293  _allowances[sender] */\n      0x00\n        /* \"ROO_Repurchase/contracts/HecoMain_Usdt.sol\":5286:5292  sender */\n      dup12\n        /* \"ROO_Repurchase/contracts/HecoMain_Usdt.sol\":5274:5293  _allowances[sender] */\n      0xffffffffffffffffffffffffffffffffffffffff\n      and\n      0xffffffffffffffffffffffffffffffffffffffff\n      and\n      dup2\n      mstore\n      0x20\n      add\n      swap1\n      dup2\n      mstore\n      0x20\n      add\n      0x00\n      keccak256\n        /* \"ROO_Repurchase/contracts/HecoMain_Usdt.sol\":5274:5307  _allowances[sender][_msgSender()] */\n      0x00\n        /* \"ROO_Repurchase/contracts/HecoMain_Usdt.sol\":5294:5306  _msgSender() */\n      tag_91\n        /* \"ROO_Repurchase/contracts/HecoMain_Usdt.sol\":5294:5304  _msgSender */\n      tag_82\n        /* \"ROO_Repurchase/contracts/HecoMain_Usdt.sol\":5294:5306  _msgSender() */\n      jump\t// in\n    tag_91:\n        /* \"ROO_Repurchase/contracts/HecoMain_Usdt.sol\":5274:5307  _allowances[sender][_msgSender()] */\n      0xffffffffffffffffffffffffffffffffffffffff\n      and\n      0xffffffffffffffffffffffffffffffffffffffff\n      and\n      dup2\n      mstore\n      0x20\n      add\n      swap1\n      dup2\n      mstore\n      0x20\n      add\n      0x00\n      keccak256\n      sload\n        /* \"ROO_Repurchase/contracts/HecoMain_Usdt.sol\":5274:5311  _allowances[sender][_msgSender()].sub */\n      tag_92\n      swap1\n        /* \"ROO_Repurchase/contracts/HecoMain_Usdt.sol\":5274:5363  _allowances[sender][_msgSender()].sub(amount, \"ERC20: transfer amount exceeds allowance\") */\n      swap3\n      swap2\n      swap1\n      0xffffffff\n      and\n      jump\t// in\n    tag_90:\n        /* \"ROO_Repurchase/contracts/HecoMain_Usdt.sol\":5243:5251  _approve */\n      tag_83\n        /* \"ROO_Repurchase/contracts/HecoMain_Usdt.sol\":5243:5364  _approve(sender, _msgSender(), _allowances[sender][_msgSender()].sub(amount, \"ERC20: transfer amount exceeds allowance\")) */\n      jump\t// in\n    tag_88:\n        /* \"ROO_Repurchase/contracts/HecoMain_Usdt.sol\":5381:5385  true */\n      0x01\n        /* \"ROO_Repurchase/contracts/HecoMain_Usdt.sol\":5374:5385  return true */\n      swap1\n      pop\n        /* \"ROO_Repurchase/contracts/HecoMain_Usdt.sol\":5075:5392  function transferFrom(address sender, address recipient, uint256 amount) public virtual override returns (bool) {... */\n      swap4\n      swap3\n      pop\n      pop\n      pop\n      jump\t// out\n        /* \"ROO_Repurchase/contracts/HecoMain_Usdt.sol\":4250:4331  function decimals() public view returns (uint8) {... */\n    tag_38:\n        /* \"ROO_Repurchase/contracts/HecoMain_Usdt.sol\":4291:4296  uint8 */\n      0x00\n        /* \"ROO_Repurchase/contracts/HecoMain_Usdt.sol\":4315:4324  _decimals */\n      0x05\n      0x00\n      swap1\n      sload\n      swap1\n      0x0100\n      exp\n      swap1\n      div\n      0xff\n      and\n        /* \"ROO_Repurchase/contracts/HecoMain_Usdt.sol\":4308:4324  return _decimals */\n      swap1\n      pop\n        /* \"ROO_Repurchase/contracts/HecoMain_Usdt.sol\":4250:4331  function decimals() public view returns (uint8) {... */\n      swap1\n      jump\t// out\n        /* \"ROO_Repurchase/contracts/HecoMain_Usdt.sol\":5399:5614  function increaseAllowance(address spender, uint256 addedValue) public virtual returns (bool) {... */\n    tag_41:\n        /* \"ROO_Repurchase/contracts/HecoMain_Usdt.sol\":5487:5491  bool */\n      0x00\n        /* \"ROO_Repurchase/contracts/HecoMain_Usdt.sol\":5503:5586  _approve(_msgSender(), spender, _allowances[_msgSender()][spender].add(addedValue)) */\n      tag_95\n        /* \"ROO_Repurchase/contracts/HecoMain_Usdt.sol\":5512:5524  _msgSender() */\n      tag_96\n        /* \"ROO_Repurchase/contracts/HecoMain_Usdt.sol\":5512:5522  _msgSender */\n      tag_82\n        /* \"ROO_Repurchase/contracts/HecoMain_Usdt.sol\":5512:5524  _msgSender() */\n      jump\t// in\n    tag_96:\n        /* \"ROO_Repurchase/contracts/HecoMain_Usdt.sol\":5526:5533  spender */\n      dup5\n        /* \"ROO_Repurchase/contracts/HecoMain_Usdt.sol\":5535:5585  _allowances[_msgSender()][spender].add(addedValue) */\n      tag_97\n        /* \"ROO_Repurchase/contracts/HecoMain_Usdt.sol\":5574:5584  addedValue */\n      dup6\n        /* \"ROO_Repurchase/contracts/HecoMain_Usdt.sol\":5535:5546  _allowances */\n      0x01\n        /* \"ROO_Repurchase/contracts/HecoMain_Usdt.sol\":5535:5560  _allowances[_msgSender()] */\n      0x00\n        /* \"ROO_Repurchase/contracts/HecoMain_Usdt.sol\":5547:5559  _msgSender() */\n      tag_98\n        /* \"ROO_Repurchase/contracts/HecoMain_Usdt.sol\":5547:5557  _msgSender */\n      tag_82\n        /* \"ROO_Repurchase/contracts/HecoMain_Usdt.sol\":5547:5559  _msgSender() */\n      jump\t// in\n    tag_98:\n        /* \"ROO_Repurchase/contracts/HecoMain_Usdt.sol\":5535:5560  _allowances[_msgSender()] */\n      0xffffffffffffffffffffffffffffffffffffffff\n      and\n      0xffffffffffffffffffffffffffffffffffffffff\n      and\n      dup2\n      mstore\n      0x20\n      add\n      swap1\n      dup2\n      mstore\n      0x20\n      add\n      0x00\n      keccak256\n        /* \"ROO_Repurchase/contracts/HecoMain_Usdt.sol\":5535:5569  _allowances[_msgSender()][spender] */\n      0x00\n        /* \"ROO_Repurchase/contracts/HecoMain_Usdt.sol\":5561:5568  spender */\n      dup10\n        /* \"ROO_Repurchase/contracts/HecoMain_Usdt.sol\":5535:5569  _allowances[_msgSender()][spender] */\n      0xffffffffffffffffffffffffffffffffffffffff\n      and\n      0xffffffffffffffffffffffffffffffffffffffff\n      and\n      dup2\n      mstore\n      0x20\n      add\n      swap1\n      dup2\n      mstore\n      0x20\n      add\n      0x00\n      keccak256\n      sload\n        /* \"ROO_Repurchase/contracts/HecoMain_Usdt.sol\":5535:5573  _allowances[_msgSender()][spender].add */\n      tag_99\n      swap1\n        /* \"ROO_Repurchase/contracts/HecoMain_Usdt.sol\":5535:5585  _allowances[_msgSender()][spender].add(addedValue) */\n      swap2\n      swap1\n      0xffffffff\n      and\n      jump\t// in\n    tag_97:\n        /* \"ROO_Repurchase/contracts/HecoMain_Usdt.sol\":5503:5511  _approve */\n      tag_83\n        /* \"ROO_Repurchase/contracts/HecoMain_Usdt.sol\":5503:5586  _approve(_msgSender(), spender, _allowances[_msgSender()][spender].add(addedValue)) */\n      jump\t// in\n    tag_95:\n        /* \"ROO_Repurchase/contracts/HecoMain_Usdt.sol\":5603:5607  true */\n      0x01\n        /* \"ROO_Repurchase/contracts/HecoMain_Usdt.sol\":5596:5607  return true */\n      swap1\n      pop\n        /* \"ROO_Repurchase/contracts/HecoMain_Usdt.sol\":5399:5614  function increaseAllowance(address spender, uint256 addedValue) public virtual returns (bool) {... */\n      swap3\n      swap2\n      pop\n      pop\n      jump\t// out\n        /* \"ROO_Repurchase/contracts/HecoMain_Usdt.sol\":8782:8846  function unpause() public  onlyPauser{... */\n    tag_43:\n        /* \"ROO_Repurchase/contracts/HecoMain_Usdt.sol\":8670:8677  _pauser */\n      0x07\n      0x00\n      swap1\n      sload\n      swap1\n      0x0100\n      exp\n      swap1\n      div\n      0xffffffffffffffffffffffffffffffffffffffff\n      and\n        /* \"ROO_Repurchase/contracts/HecoMain_Usdt.sol\":8656:8677  msg.sender == _pauser */\n      0xffffffffffffffffffffffffffffffffffffffff\n      and\n        /* \"ROO_Repurchase/contracts/HecoMain_Usdt.sol\":8656:8666  msg.sender */\n      caller\n        /* \"ROO_Repurchase/contracts/HecoMain_Usdt.sol\":8656:8677  msg.sender == _pauser */\n      0xffffffffffffffffffffffffffffffffffffffff\n      and\n      eq\n        /* \"ROO_Repurchase/contracts/HecoMain_Usdt.sol\":8648:8692  require(msg.sender == _pauser,\"not allowed\") */\n      tag_101\n      jumpi\n      mload(0x40)\n      0x08c379a000000000000000000000000000000000000000000000000000000000\n      dup2\n      mstore\n      0x04\n      add\n      dup1\n      dup1\n      0x20\n      add\n      dup3\n      dup2\n      sub\n      dup3\n      mstore\n      0x0b\n      dup2\n      mstore\n      0x20\n      add\n      dup1\n      0x6e6f7420616c6c6f776564000000000000000000000000000000000000000000\n      dup2\n      mstore\n      pop\n      0x20\n      add\n      swap2\n      pop\n      pop\n      mload(0x40)\n      dup1\n      swap2\n      sub\n      swap1\n      revert\n    tag_101:\n        /* \"ROO_Repurchase/contracts/HecoMain_Usdt.sol\":8829:8839  _unpause() */\n      tag_103\n        /* \"ROO_Repurchase/contracts/HecoMain_Usdt.sol\":8829:8837  _unpause */\n      tag_104\n        /* \"ROO_Repurchase/contracts/HecoMain_Usdt.sol\":8829:8839  _unpause() */\n      jump\t// in\n    tag_103:\n        /* \"ROO_Repurchase/contracts/HecoMain_Usdt.sol\":8782:8846  function unpause() public  onlyPauser{... */\n      jump\t// out\n        /* \"ROO_Repurchase/contracts/HecoMain_Usdt.sol\":9005:9125  function mint(address account, uint256 amount) public whenNotPaused onlyOperator {... */\n    tag_46:\n        /* \"ROO_Repurchase/contracts/HecoMain_Usdt.sol\":3206:3213  _paused */\n      0x05\n      0x01\n      swap1\n      sload\n      swap1\n      0x0100\n      exp\n      swap1\n      div\n      0xff\n      and\n        /* \"ROO_Repurchase/contracts/HecoMain_Usdt.sol\":3205:3213  !_paused */\n      iszero\n        /* \"ROO_Repurchase/contracts/HecoMain_Usdt.sol\":3197:3234  require(!_paused, \"Pausable: paused\") */\n      tag_106\n      jumpi\n      mload(0x40)\n      0x08c379a000000000000000000000000000000000000000000000000000000000\n      dup2\n      mstore\n      0x04\n      add\n      dup1\n      dup1\n      0x20\n      add\n      dup3\n      dup2\n      sub\n      dup3\n      mstore\n      0x10\n      dup2\n      mstore\n      0x20\n      add\n      dup1\n      0x5061757361626c653a2070617573656400000000000000000000000000000000\n      dup2\n      mstore\n      pop\n      0x20\n      add\n      swap2\n      pop\n      pop\n      mload(0x40)\n      dup1\n      swap2\n      sub\n      swap1\n      revert\n    tag_106:\n        /* \"ROO_Repurchase/contracts/HecoMain_Usdt.sol\":8570:8579  _operator */\n      0x06\n      0x00\n      swap1\n      sload\n      swap1\n      0x0100\n      exp\n      swap1\n      div\n      0xffffffffffffffffffffffffffffffffffffffff\n      and\n        /* \"ROO_Repurchase/contracts/HecoMain_Usdt.sol\":8556:8579  msg.sender == _operator */\n      0xffffffffffffffffffffffffffffffffffffffff\n      and\n        /* \"ROO_Repurchase/contracts/HecoMain_Usdt.sol\":8556:8566  msg.sender */\n      caller\n        /* \"ROO_Repurchase/contracts/HecoMain_Usdt.sol\":8556:8579  msg.sender == _operator */\n      0xffffffffffffffffffffffffffffffffffffffff\n      and\n      eq\n        /* \"ROO_Repurchase/contracts/HecoMain_Usdt.sol\":8548:8594  require(msg.sender == _operator,\"not allowed\") */\n      tag_108\n      jumpi\n      mload(0x40)\n      0x08c379a000000000000000000000000000000000000000000000000000000000\n      dup2\n      mstore\n      0x04\n      add\n      dup1\n      dup1\n      0x20\n      add\n      dup3\n      dup2\n      sub\n      dup3\n      mstore\n      0x0b\n      dup2\n      mstore\n      0x20\n      add\n      dup1\n      0x6e6f7420616c6c6f776564000000000000000000000000000000000000000000\n      dup2\n      mstore\n      pop\n      0x20\n      add\n      swap2\n      pop\n      pop\n      mload(0x40)\n      dup1\n      swap2\n      sub\n      swap1\n      revert\n    tag_108:\n        /* \"ROO_Repurchase/contracts/HecoMain_Usdt.sol\":9096:9118  _mint(account, amount) */\n      tag_110\n        /* \"ROO_Repurchase/contracts/HecoMain_Usdt.sol\":9102:9109  account */\n      dup3\n        /* \"ROO_Repurchase/contracts/HecoMain_Usdt.sol\":9111:9117  amount */\n      dup3\n        /* \"ROO_Repurchase/contracts/HecoMain_Usdt.sol\":9096:9101  _mint */\n      tag_111\n        /* \"ROO_Repurchase/contracts/HecoMain_Usdt.sol\":9096:9118  _mint(account, amount) */\n      jump\t// in\n    tag_110:\n        /* \"ROO_Repurchase/contracts/HecoMain_Usdt.sol\":9005:9125  function mint(address account, uint256 amount) public whenNotPaused onlyOperator {... */\n      pop\n      pop\n      jump\t// out\n        /* \"ROO_Repurchase/contracts/HecoMain_Usdt.sol\":3079:3155  function paused() public view returns (bool) {... */\n    tag_48:\n        /* \"ROO_Repurchase/contracts/HecoMain_Usdt.sol\":3118:3122  bool */\n      0x00\n        /* \"ROO_Repurchase/contracts/HecoMain_Usdt.sol\":3141:3148  _paused */\n      0x05\n      0x01\n      swap1\n      sload\n      swap1\n      0x0100\n      exp\n      swap1\n      div\n      0xff\n      and\n        /* \"ROO_Repurchase/contracts/HecoMain_Usdt.sol\":3134:3148  return _paused */\n      swap1\n      pop\n        /* \"ROO_Repurchase/contracts/HecoMain_Usdt.sol\":3079:3155  function paused() public view returns (bool) {... */\n      swap1\n      jump\t// out\n        /* \"ROO_Repurchase/contracts/HecoMain_Usdt.sol\":4443:4560  function balanceOf(address account) public view override returns (uint256) {... */\n    tag_51:\n        /* \"ROO_Repurchase/contracts/HecoMain_Usdt.sol\":4509:4516  uint256 */\n      0x00\n        /* \"ROO_Repurchase/contracts/HecoMain_Usdt.sol\":4535:4544  _balances */\n      dup1\n        /* \"ROO_Repurchase/contracts/HecoMain_Usdt.sol\":4535:4553  _balances[account] */\n      0x00\n        /* \"ROO_Repurchase/contracts/HecoMain_Usdt.sol\":4545:4552  account */\n      dup4\n        /* \"ROO_Repurchase/contracts/HecoMain_Usdt.sol\":4535:4553  _balances[account] */\n      0xffffffffffffffffffffffffffffffffffffffff\n      and\n      0xffffffffffffffffffffffffffffffffffffffff\n      and\n      dup2\n      mstore\n      0x20\n      add\n      swap1\n      dup2\n      mstore\n      0x20\n      add\n      0x00\n      keccak256\n      sload\n        /* \"ROO_Repurchase/contracts/HecoMain_Usdt.sol\":4528:4553  return _balances[account] */\n      swap1\n      pop\n        /* \"ROO_Repurchase/contracts/HecoMain_Usdt.sol\":4443:4560  function balanceOf(address account) public view override returns (uint256) {... */\n      swap2\n      swap1\n      pop\n      jump\t// out\n        /* \"ROO_Repurchase/contracts/HecoMain_Usdt.sol\":8716:8776  function pause() public  onlyPauser{... */\n    tag_53:\n        /* \"ROO_Repurchase/contracts/HecoMain_Usdt.sol\":8670:8677  _pauser */\n      0x07\n      0x00\n      swap1\n      sload\n      swap1\n      0x0100\n      exp\n      swap1\n      div\n      0xffffffffffffffffffffffffffffffffffffffff\n      and\n        /* \"ROO_Repurchase/contracts/HecoMain_Usdt.sol\":8656:8677  msg.sender == _pauser */\n      0xffffffffffffffffffffffffffffffffffffffff\n      and\n        /* \"ROO_Repurchase/contracts/HecoMain_Usdt.sol\":8656:8666  msg.sender */\n      caller\n        /* \"ROO_Repurchase/contracts/HecoMain_Usdt.sol\":8656:8677  msg.sender == _pauser */\n      0xffffffffffffffffffffffffffffffffffffffff\n      and\n      eq\n        /* \"ROO_Repurchase/contracts/HecoMain_Usdt.sol\":8648:8692  require(msg.sender == _pauser,\"not allowed\") */\n      tag_115\n      jumpi\n      mload(0x40)\n      0x08c379a000000000000000000000000000000000000000000000000000000000\n      dup2\n      mstore\n      0x04\n      add\n      dup1\n      dup1\n      0x20\n      add\n      dup3\n      dup2\n      sub\n      dup3\n      mstore\n      0x0b\n      dup2\n      mstore\n      0x20\n      add\n      dup1\n      0x6e6f7420616c6c6f776564000000000000000000000000000000000000000000\n      dup2\n      mstore\n      pop\n      0x20\n      add\n      swap2\n      pop\n      pop\n      mload(0x40)\n      dup1\n      swap2\n      sub\n      swap1\n      revert\n    tag_115:\n        /* \"ROO_Repurchase/contracts/HecoMain_Usdt.sol\":8761:8769  _pause() */\n      tag_117\n        /* \"ROO_Repurchase/contracts/HecoMain_Usdt.sol\":8761:8767  _pause */\n      tag_118\n        /* \"ROO_Repurchase/contracts/HecoMain_Usdt.sol\":8761:8769  _pause() */\n      jump\t// in\n    tag_117:\n        /* \"ROO_Repurchase/contracts/HecoMain_Usdt.sol\":8716:8776  function pause() public  onlyPauser{... */\n      jump\t// out\n        /* \"ROO_Repurchase/contracts/HecoMain_Usdt.sol\":8852:8999  function changeUser(address new_operator, address new_pauser) public onlyFactory{... */\n    tag_56:\n        /* \"ROO_Repurchase/contracts/HecoMain_Usdt.sol\":8469:8476  factory */\n      0x05\n      0x02\n      swap1\n      sload\n      swap1\n      0x0100\n      exp\n      swap1\n      div\n      0xffffffffffffffffffffffffffffffffffffffff\n      and\n        /* \"ROO_Repurchase/contracts/HecoMain_Usdt.sol\":8457:8476  msg.sender==factory */\n      0xffffffffffffffffffffffffffffffffffffffff\n      and\n        /* \"ROO_Repurchase/contracts/HecoMain_Usdt.sol\":8457:8467  msg.sender */\n      caller\n        /* \"ROO_Repurchase/contracts/HecoMain_Usdt.sol\":8457:8476  msg.sender==factory */\n      0xffffffffffffffffffffffffffffffffffffffff\n      and\n      eq\n        /* \"ROO_Repurchase/contracts/HecoMain_Usdt.sol\":8449:8492  require(msg.sender==factory,\"only Factory\") */\n      tag_120\n      jumpi\n      mload(0x40)\n      0x08c379a000000000000000000000000000000000000000000000000000000000\n      dup2\n      mstore\n      0x04\n      add\n      dup1\n      dup1\n      0x20\n      add\n      dup3\n      dup2\n      sub\n      dup3\n      mstore\n      0x0c\n      dup2\n      mstore\n      0x20\n      add\n      dup1\n      0x6f6e6c7920466163746f72790000000000000000000000000000000000000000\n      dup2\n      mstore\n      pop\n      0x20\n      add\n      swap2\n      pop\n      pop\n      mload(0x40)\n      dup1\n      swap2\n      sub\n      swap1\n      revert\n    tag_120:\n        /* \"ROO_Repurchase/contracts/HecoMain_Usdt.sol\":8950:8960  new_pauser */\n      dup1\n        /* \"ROO_Repurchase/contracts/HecoMain_Usdt.sol\":8942:8949  _pauser */\n      0x07\n      0x00\n        /* \"ROO_Repurchase/contracts/HecoMain_Usdt.sol\":8942:8960  _pauser=new_pauser */\n      0x0100\n      exp\n      dup2\n      sload\n      dup2\n      0xffffffffffffffffffffffffffffffffffffffff\n      mul\n      not\n      and\n      swap1\n      dup4\n      0xffffffffffffffffffffffffffffffffffffffff\n      and\n      mul\n      or\n      swap1\n      sstore\n      pop\n        /* \"ROO_Repurchase/contracts/HecoMain_Usdt.sol\":8980:8992  new_operator */\n      dup2\n        /* \"ROO_Repurchase/contracts/HecoMain_Usdt.sol\":8970:8979  _operator */\n      0x06\n      0x00\n        /* \"ROO_Repurchase/contracts/HecoMain_Usdt.sol\":8970:8992  _operator=new_operator */\n      0x0100\n      exp\n      dup2\n      sload\n      dup2\n      0xffffffffffffffffffffffffffffffffffffffff\n      mul\n      not\n      and\n      swap1\n      dup4\n      0xffffffffffffffffffffffffffffffffffffffff\n      and\n      mul\n      or\n      swap1\n      sstore\n      pop\n        /* \"ROO_Repurchase/contracts/HecoMain_Usdt.sol\":8852:8999  function changeUser(address new_operator, address new_pauser) public onlyFactory{... */\n      pop\n      pop\n      jump\t// out\n        /* \"ROO_Repurchase/contracts/HecoMain_Usdt.sol\":4158:4243  function symbol() public view returns (string memory) {... */\n    tag_58:\n        /* \"ROO_Repurchase/contracts/HecoMain_Usdt.sol\":4197:4210  string memory */\n      0x60\n        /* \"ROO_Repurchase/contracts/HecoMain_Usdt.sol\":4229:4236  _symbol */\n      0x04\n        /* \"ROO_Repurchase/contracts/HecoMain_Usdt.sol\":4222:4236  return _symbol */\n      dup1\n      sload\n      0x01\n      dup2\n      0x01\n      and\n      iszero\n      0x0100\n      mul\n      sub\n      and\n      0x02\n      swap1\n      div\n      dup1\n      0x1f\n      add\n      0x20\n      dup1\n      swap2\n      div\n      mul\n      0x20\n      add\n      mload(0x40)\n      swap1\n      dup2\n      add\n      0x40\n      mstore\n      dup1\n      swap3\n      swap2\n      swap1\n      dup2\n      dup2\n      mstore\n      0x20\n      add\n      dup3\n      dup1\n      sload\n      0x01\n      dup2\n      0x01\n      and\n      iszero\n      0x0100\n      mul\n      sub\n      and\n      0x02\n      swap1\n      div\n      dup1\n      iszero\n      tag_123\n      jumpi\n      dup1\n      0x1f\n      lt\n      tag_124\n      jumpi\n      0x0100\n      dup1\n      dup4\n      sload\n      div\n      mul\n      dup4\n      mstore\n      swap2\n      0x20\n      add\n      swap2\n      jump(tag_123)\n    tag_124:\n      dup3\n      add\n      swap2\n      swap1\n      0x00\n      mstore\n      keccak256(0x00, 0x20)\n      swap1\n    tag_125:\n      dup2\n      sload\n      dup2\n      mstore\n      swap1\n      0x01\n      add\n      swap1\n      0x20\n      add\n      dup1\n      dup4\n      gt\n      tag_125\n      jumpi\n      dup3\n      swap1\n      sub\n      0x1f\n      and\n      dup3\n      add\n      swap2\n    tag_123:\n      pop\n      pop\n      pop\n      pop\n      pop\n      swap1\n      pop\n        /* \"ROO_Repurchase/contracts/HecoMain_Usdt.sol\":4158:4243  function symbol() public view returns (string memory) {... */\n      swap1\n      jump\t// out\n        /* \"ROO_Repurchase/contracts/HecoMain_Usdt.sol\":9130:9250  function burn(address account , uint256 amount) public whenNotPaused onlyOperator {... */\n    tag_65:\n        /* \"ROO_Repurchase/contracts/HecoMain_Usdt.sol\":3206:3213  _paused */\n      0x05\n      0x01\n      swap1\n      sload\n      swap1\n      0x0100\n      exp\n      swap1\n      div\n      0xff\n      and\n        /* \"ROO_Repurchase/contracts/HecoMain_Usdt.sol\":3205:3213  !_paused */\n      iszero\n        /* \"ROO_Repurchase/contracts/HecoMain_Usdt.sol\":3197:3234  require(!_paused, \"Pausable: paused\") */\n      tag_127\n      jumpi\n      mload(0x40)\n      0x08c379a000000000000000000000000000000000000000000000000000000000\n      dup2\n      mstore\n      0x04\n      add\n      dup1\n      dup1\n      0x20\n      add\n      dup3\n      dup2\n      sub\n      dup3\n      mstore\n      0x10\n      dup2\n      mstore\n      0x20\n      add\n      dup1\n      0x5061757361626c653a2070617573656400000000000000000000000000000000\n      dup2\n      mstore\n      pop\n      0x20\n      add\n      swap2\n      pop\n      pop\n      mload(0x40)\n      dup1\n      swap2\n      sub\n      swap1\n      revert\n    tag_127:\n        /* \"ROO_Repurchase/contracts/HecoMain_Usdt.sol\":8570:8579  _operator */\n      0x06\n      0x00\n      swap1\n      sload\n      swap1\n      0x0100\n      exp\n      swap1\n      div\n      0xffffffffffffffffffffffffffffffffffffffff\n      and\n        /* \"ROO_Repurchase/contracts/HecoMain_Usdt.sol\":8556:8579  msg.sender == _operator */\n      0xffffffffffffffffffffffffffffffffffffffff\n      and\n        /* \"ROO_Repurchase/contracts/HecoMain_Usdt.sol\":8556:8566  msg.sender */\n      caller\n        /* \"ROO_Repurchase/contracts/HecoMain_Usdt.sol\":8556:8579  msg.sender == _operator */\n      0xffffffffffffffffffffffffffffffffffffffff\n      and\n      eq\n        /* \"ROO_Repurchase/contracts/HecoMain_Usdt.sol\":8548:8594  require(msg.sender == _operator,\"not allowed\") */\n      tag_129\n      jumpi\n      mload(0x40)\n      0x08c379a000000000000000000000000000000000000000000000000000000000\n      dup2\n      mstore\n      0x04\n      add\n      dup1\n      dup1\n      0x20\n      add\n      dup3\n      dup2\n      sub\n      dup3\n      mstore\n      0x0b\n      dup2\n      mstore\n      0x20\n      add\n      dup1\n      0x6e6f7420616c6c6f776564000000000000000000000000000000000000000000\n      dup2\n      mstore\n      pop\n      0x20\n      add\n      swap2\n      pop\n      pop\n      mload(0x40)\n      dup1\n      swap2\n      sub\n      swap1\n      revert\n    tag_129:\n        /* \"ROO_Repurchase/contracts/HecoMain_Usdt.sol\":9222:9243  _burn(account,amount) */\n      tag_131\n        /* \"ROO_Repurchase/contracts/HecoMain_Usdt.sol\":9228:9235  account */\n      dup3\n        /* \"ROO_Repurchase/contracts/HecoMain_Usdt.sol\":9236:9242  amount */\n      dup3\n        /* \"ROO_Repurchase/contracts/HecoMain_Usdt.sol\":9222:9227  _burn */\n      tag_132\n        /* \"ROO_Repurchase/contracts/HecoMain_Usdt.sol\":9222:9243  _burn(account,amount) */\n      jump\t// in\n    tag_131:\n        /* \"ROO_Repurchase/contracts/HecoMain_Usdt.sol\":9130:9250  function burn(address account , uint256 amount) public whenNotPaused onlyOperator {... */\n      pop\n      pop\n      jump\t// out\n        /* \"ROO_Repurchase/contracts/HecoMain_Usdt.sol\":5620:5886  function decreaseAllowance(address spender, uint256 subtractedValue) public virtual returns (bool) {... */\n    tag_68:\n        /* \"ROO_Repurchase/contracts/HecoMain_Usdt.sol\":5713:5717  bool */\n      0x00\n        /* \"ROO_Repurchase/contracts/HecoMain_Usdt.sol\":5729:5858  _approve(_msgSender(), spender, _allowances[_msgSender()][spender].sub(subtractedValue, \"ERC20: decreased allowance below zero\")) */\n      tag_134\n        /* \"ROO_Repurchase/contracts/HecoMain_Usdt.sol\":5738:5750  _msgSender() */\n      tag_135\n        /* \"ROO_Repurchase/contracts/HecoMain_Usdt.sol\":5738:5748  _msgSender */\n      tag_82\n        /* \"ROO_Repurchase/contracts/HecoMain_Usdt.sol\":5738:5750  _msgSender() */\n      jump\t// in\n    tag_135:\n        /* \"ROO_Repurchase/contracts/HecoMain_Usdt.sol\":5752:5759  spender */\n      dup5\n        /* \"ROO_Repurchase/contracts/HecoMain_Usdt.sol\":5761:5857  _allowances[_msgSender()][spender].sub(subtractedValue, \"ERC20: decreased allowance below zero\") */\n      tag_136\n        /* \"ROO_Repurchase/contracts/HecoMain_Usdt.sol\":5800:5815  subtractedValue */\n      dup6\n        /* \"ROO_Repurchase/contracts/HecoMain_Usdt.sol\":5761:5857  _allowances[_msgSender()][spender].sub(subtractedValue, \"ERC20: decreased allowance below zero\") */\n      mload(0x40)\n      dup1\n      0x60\n      add\n      0x40\n      mstore\n      dup1\n      0x25\n      dup2\n      mstore\n      0x20\n      add\n      data_f8b476f7d28209d77d4a4ac1fe36b9f8259aa1bb6bddfa6e89de7e51615cf8a8\n      0x25\n      swap2\n      codecopy\n        /* \"ROO_Repurchase/contracts/HecoMain_Usdt.sol\":5761:5772  _allowances */\n      0x01\n        /* \"ROO_Repurchase/contracts/HecoMain_Usdt.sol\":5761:5786  _allowances[_msgSender()] */\n      0x00\n        /* \"ROO_Repurchase/contracts/HecoMain_Usdt.sol\":5773:5785  _msgSender() */\n      tag_137\n        /* \"ROO_Repurchase/contracts/HecoMain_Usdt.sol\":5773:5783  _msgSender */\n      tag_82\n        /* \"ROO_Repurchase/contracts/HecoMain_Usdt.sol\":5773:5785  _msgSender() */\n      jump\t// in\n    tag_137:\n        /* \"ROO_Repurchase/contracts/HecoMain_Usdt.sol\":5761:5786  _allowances[_msgSender()] */\n      0xffffffffffffffffffffffffffffffffffffffff\n      and\n      0xffffffffffffffffffffffffffffffffffffffff\n      and\n      dup2\n      mstore\n      0x20\n      add\n      swap1\n      dup2\n      mstore\n      0x20\n      add\n      0x00\n      keccak256\n        /* \"ROO_Repurchase/contracts/HecoMain_Usdt.sol\":5761:5795  _allowances[_msgSender()][spender] */\n      0x00\n        /* \"ROO_Repurchase/contracts/HecoMain_Usdt.sol\":5787:5794  spender */\n      dup11\n        /* \"ROO_Repurchase/contracts/HecoMain_Usdt.sol\":5761:5795  _allowances[_msgSender()][spender] */\n      0xffffffffffffffffffffffffffffffffffffffff\n      and\n      0xffffffffffffffffffffffffffffffffffffffff\n      and\n      dup2\n      mstore\n      0x20\n      add\n      swap1\n      dup2\n      mstore\n      0x20\n      add\n      0x00\n      keccak256\n      sload\n        /* \"ROO_Repurchase/contracts/HecoMain_Usdt.sol\":5761:5799  _allowances[_msgSender()][spender].sub */\n      tag_92\n      swap1\n        /* \"ROO_Repurchase/contracts/HecoMain_Usdt.sol\":5761:5857  _allowances[_msgSender()][spender].sub(subtractedValue, \"ERC20: decreased allowance below zero\") */\n      swap3\n      swap2\n      swap1\n      0xffffffff\n      and\n      jump\t// in\n    tag_136:\n        /* \"ROO_Repurchase/contracts/HecoMain_Usdt.sol\":5729:5737  _approve */\n      tag_83\n        /* \"ROO_Repurchase/contracts/HecoMain_Usdt.sol\":5729:5858  _approve(_msgSender(), spender, _allowances[_msgSender()][spender].sub(subtractedValue, \"ERC20: decreased allowance below zero\")) */\n      jump\t// in\n    tag_134:\n        /* \"ROO_Repurchase/contracts/HecoMain_Usdt.sol\":5875:5879  true */\n      0x01\n        /* \"ROO_Repurchase/contracts/HecoMain_Usdt.sol\":5868:5879  return true */\n      swap1\n      pop\n        /* \"ROO_Repurchase/contracts/HecoMain_Usdt.sol\":5620:5886  function decreaseAllowance(address spender, uint256 subtractedValue) public virtual returns (bool) {... */\n      swap3\n      swap2\n      pop\n      pop\n      jump\t// out\n        /* \"ROO_Repurchase/contracts/HecoMain_Usdt.sol\":4567:4739  function transfer(address recipient, uint256 amount) public virtual override returns (bool) {... */\n    tag_71:\n        /* \"ROO_Repurchase/contracts/HecoMain_Usdt.sol\":4653:4657  bool */\n      0x00\n        /* \"ROO_Repurchase/contracts/HecoMain_Usdt.sol\":4669:4711  _transfer(_msgSender(), recipient, amount) */\n      tag_139\n        /* \"ROO_Repurchase/contracts/HecoMain_Usdt.sol\":4679:4691  _msgSender() */\n      tag_140\n        /* \"ROO_Repurchase/contracts/HecoMain_Usdt.sol\":4679:4689  _msgSender */\n      tag_82\n        /* \"ROO_Repurchase/contracts/HecoMain_Usdt.sol\":4679:4691  _msgSender() */\n      jump\t// in\n    tag_140:\n        /* \"ROO_Repurchase/contracts/HecoMain_Usdt.sol\":4693:4702  recipient */\n      dup5\n        /* \"ROO_Repurchase/contracts/HecoMain_Usdt.sol\":4704:4710  amount */\n      dup5\n        /* \"ROO_Repurchase/contracts/HecoMain_Usdt.sol\":4669:4678  _transfer */\n      tag_87\n        /* \"ROO_Repurchase/contracts/HecoMain_Usdt.sol\":4669:4711  _transfer(_msgSender(), recipient, amount) */\n      jump\t// in\n    tag_139:\n        /* \"ROO_Repurchase/contracts/HecoMain_Usdt.sol\":4728:4732  true */\n      0x01\n        /* \"ROO_Repurchase/contracts/HecoMain_Usdt.sol\":4721:4732  return true */\n      swap1\n      pop\n        /* \"ROO_Repurchase/contracts/HecoMain_Usdt.sol\":4567:4739  function transfer(address recipient, uint256 amount) public virtual override returns (bool) {... */\n      swap3\n      swap2\n      pop\n      pop\n      jump\t// out\n        /* \"ROO_Repurchase/contracts/HecoMain_Usdt.sol\":4746:4895  function allowance(address owner, address spender) public view virtual override returns (uint256) {... */\n    tag_74:\n        /* \"ROO_Repurchase/contracts/HecoMain_Usdt.sol\":4835:4842  uint256 */\n      0x00\n        /* \"ROO_Repurchase/contracts/HecoMain_Usdt.sol\":4861:4872  _allowances */\n      0x01\n        /* \"ROO_Repurchase/contracts/HecoMain_Usdt.sol\":4861:4879  _allowances[owner] */\n      0x00\n        /* \"ROO_Repurchase/contracts/HecoMain_Usdt.sol\":4873:4878  owner */\n      dup5\n        /* \"ROO_Repurchase/contracts/HecoMain_Usdt.sol\":4861:4879  _allowances[owner] */\n      0xffffffffffffffffffffffffffffffffffffffff\n      and\n      0xffffffffffffffffffffffffffffffffffffffff\n      and\n      dup2\n      mstore\n      0x20\n      add\n      swap1\n      dup2\n      mstore\n      0x20\n      add\n      0x00\n      keccak256\n        /* \"ROO_Repurchase/contracts/HecoMain_Usdt.sol\":4861:4888  _allowances[owner][spender] */\n      0x00\n        /* \"ROO_Repurchase/contracts/HecoMain_Usdt.sol\":4880:4887  spender */\n      dup4\n        /* \"ROO_Repurchase/contracts/HecoMain_Usdt.sol\":4861:4888  _allowances[owner][spender] */\n      0xffffffffffffffffffffffffffffffffffffffff\n      and\n      0xffffffffffffffffffffffffffffffffffffffff\n      and\n      dup2\n      mstore\n      0x20\n      add\n      swap1\n      dup2\n      mstore\n      0x20\n      add\n      0x00\n      keccak256\n      sload\n        /* \"ROO_Repurchase/contracts/HecoMain_Usdt.sol\":4854:4888  return _allowances[owner][spender] */\n      swap1\n      pop\n        /* \"ROO_Repurchase/contracts/HecoMain_Usdt.sol\":4746:4895  function allowance(address owner, address spender) public view virtual override returns (uint256) {... */\n      swap3\n      swap2\n      pop\n      pop\n      jump\t// out\n        /* \"ROO_Repurchase/contracts/HecoMain_Usdt.sol\":2524:2628  function _msgSender() internal view virtual returns (address payable) {... */\n    tag_82:\n        /* \"ROO_Repurchase/contracts/HecoMain_Usdt.sol\":2577:2592  address payable */\n      0x00\n        /* \"ROO_Repurchase/contracts/HecoMain_Usdt.sol\":2611:2621  msg.sender */\n      caller\n        /* \"ROO_Repurchase/contracts/HecoMain_Usdt.sol\":2604:2621  return msg.sender */\n      swap1\n      pop\n        /* \"ROO_Repurchase/contracts/HecoMain_Usdt.sol\":2524:2628  function _msgSender() internal view virtual returns (address payable) {... */\n      swap1\n      jump\t// out\n        /* \"ROO_Repurchase/contracts/HecoMain_Usdt.sol\":7222:7562  function _approve(address owner, address spender, uint256 amount) internal virtual {... */\n    tag_83:\n        /* \"ROO_Repurchase/contracts/HecoMain_Usdt.sol\":7340:7341  0 */\n      0x00\n        /* \"ROO_Repurchase/contracts/HecoMain_Usdt.sol\":7323:7342  owner != address(0) */\n      0xffffffffffffffffffffffffffffffffffffffff\n      and\n        /* \"ROO_Repurchase/contracts/HecoMain_Usdt.sol\":7323:7328  owner */\n      dup4\n        /* \"ROO_Repurchase/contracts/HecoMain_Usdt.sol\":7323:7342  owner != address(0) */\n      0xffffffffffffffffffffffffffffffffffffffff\n      and\n      eq\n      iszero\n        /* \"ROO_Repurchase/contracts/HecoMain_Usdt.sol\":7315:7383  require(owner != address(0), \"ERC20: approve from the zero address\") */\n      tag_144\n      jumpi\n      mload(0x40)\n      0x08c379a000000000000000000000000000000000000000000000000000000000\n      dup2\n      mstore\n      0x04\n      add\n      dup1\n      dup1\n      0x20\n      add\n      dup3\n      dup2\n      sub\n      dup3\n      mstore\n      0x24\n      dup2\n      mstore\n      0x20\n      add\n      dup1\n      data_c953f4879035ed60e766b34720f656aab5c697b141d924c283124ecedb91c208\n      0x24\n      swap2\n      codecopy\n      0x40\n      add\n      swap2\n      pop\n      pop\n      mload(0x40)\n      dup1\n      swap2\n      sub\n      swap1\n      revert\n    tag_144:\n        /* \"ROO_Repurchase/contracts/HecoMain_Usdt.sol\":7420:7421  0 */\n      0x00\n        /* \"ROO_Repurchase/contracts/HecoMain_Usdt.sol\":7401:7422  spender != address(0) */\n      0xffffffffffffffffffffffffffffffffffffffff\n      and\n        /* \"ROO_Repurchase/contracts/HecoMain_Usdt.sol\":7401:7408  spender */\n      dup3\n        /* \"ROO_Repurchase/contracts/HecoMain_Usdt.sol\":7401:7422  spender != address(0) */\n      0xffffffffffffffffffffffffffffffffffffffff\n      and\n      eq\n      iszero\n        /* \"ROO_Repurchase/contracts/HecoMain_Usdt.sol\":7393:7461  require(spender != address(0), \"ERC20: approve to the zero address\") */\n      tag_145\n      jumpi\n      mload(0x40)\n      0x08c379a000000000000000000000000000000000000000000000000000000000\n      dup2\n      mstore\n      0x04\n      add\n      dup1\n      dup1\n      0x20\n      add\n      dup3\n      dup2\n      sub\n      dup3\n      mstore\n      0x22\n      dup2\n      mstore\n      0x20\n      add\n      dup1\n      data_24883cc5fe64ace9d0df1893501ecb93c77180f0ff69cca79affb3c316dc8029\n      0x22\n      swap2\n      codecopy\n      0x40\n      add\n      swap2\n      pop\n      pop\n      mload(0x40)\n      dup1\n      swap2\n      sub\n      swap1\n      revert\n    tag_145:\n        /* \"ROO_Repurchase/contracts/HecoMain_Usdt.sol\":7502:7508  amount */\n      dup1\n        /* \"ROO_Repurchase/contracts/HecoMain_Usdt.sol\":7472:7483  _allowances */\n      0x01\n        /* \"ROO_Repurchase/contracts/HecoMain_Usdt.sol\":7472:7490  _allowances[owner] */\n      0x00\n        /* \"ROO_Repurchase/contracts/HecoMain_Usdt.sol\":7484:7489  owner */\n      dup6\n        /* \"ROO_Repurchase/contracts/HecoMain_Usdt.sol\":7472:7490  _allowances[owner] */\n      0xffffffffffffffffffffffffffffffffffffffff\n      and\n      0xffffffffffffffffffffffffffffffffffffffff\n      and\n      dup2\n      mstore\n      0x20\n      add\n      swap1\n      dup2\n      mstore\n      0x20\n      add\n      0x00\n      keccak256\n        /* \"ROO_Repurchase/contracts/HecoMain_Usdt.sol\":7472:7499  _allowances[owner][spender] */\n      0x00\n        /* \"ROO_Repurchase/contracts/HecoMain_Usdt.sol\":7491:7498  spender */\n      dup5\n        /* \"ROO_Repurchase/contracts/HecoMain_Usdt.sol\":7472:7499  _allowances[owner][spender] */\n      0xffffffffffffffffffffffffffffffffffffffff\n      and\n      0xffffffffffffffffffffffffffffffffffffffff\n      and\n      dup2\n      mstore\n      0x20\n      add\n      swap1\n      dup2\n      mstore\n      0x20\n      add\n      0x00\n      keccak256\n        /* \"ROO_Repurchase/contracts/HecoMain_Usdt.sol\":7472:7508  _allowances[owner][spender] = amount */\n      dup2\n      swap1\n      sstore\n      pop\n        /* \"ROO_Repurchase/contracts/HecoMain_Usdt.sol\":7539:7546  spender */\n      dup2\n        /* \"ROO_Repurchase/contracts/HecoMain_Usdt.sol\":7523:7555  Approval(owner, spender, amount) */\n      0xffffffffffffffffffffffffffffffffffffffff\n      and\n        /* \"ROO_Repurchase/contracts/HecoMain_Usdt.sol\":7532:7537  owner */\n      dup4\n        /* \"ROO_Repurchase/contracts/HecoMain_Usdt.sol\":7523:7555  Approval(owner, spender, amount) */\n      0xffffffffffffffffffffffffffffffffffffffff\n      and\n      0x8c5be1e5ebec7d5bd14f71427d1e84f3dd0314c0f7b2291e5b200ac8c7c3b925\n        /* \"ROO_Repurchase/contracts/HecoMain_Usdt.sol\":7548:7554  amount */\n      dup4\n        /* \"ROO_Repurchase/contracts/HecoMain_Usdt.sol\":7523:7555  Approval(owner, spender, amount) */\n      mload(0x40)\n      dup1\n      dup3\n      dup2\n      mstore\n      0x20\n      add\n      swap2\n      pop\n      pop\n      mload(0x40)\n      dup1\n      swap2\n      sub\n      swap1\n      log3\n        /* \"ROO_Repurchase/contracts/HecoMain_Usdt.sol\":7222:7562  function _approve(address owner, address spender, uint256 amount) internal virtual {... */\n      pop\n      pop\n      pop\n      jump\t// out\n        /* \"ROO_Repurchase/contracts/HecoMain_Usdt.sol\":5892:6422  function _transfer(address sender, address recipient, uint256 amount) internal virtual {... */\n    tag_87:\n        /* \"ROO_Repurchase/contracts/HecoMain_Usdt.sol\":6015:6016  0 */\n      0x00\n        /* \"ROO_Repurchase/contracts/HecoMain_Usdt.sol\":5997:6017  sender != address(0) */\n      0xffffffffffffffffffffffffffffffffffffffff\n      and\n        /* \"ROO_Repurchase/contracts/HecoMain_Usdt.sol\":5997:6003  sender */\n      dup4\n        /* \"ROO_Repurchase/contracts/HecoMain_Usdt.sol\":5997:6017  sender != address(0) */\n      0xffffffffffffffffffffffffffffffffffffffff\n      and\n      eq\n      iszero\n        /* \"ROO_Repurchase/contracts/HecoMain_Usdt.sol\":5989:6059  require(sender != address(0), \"ERC20: transfer from the zero address\") */\n      tag_147\n      jumpi\n      mload(0x40)\n      0x08c379a000000000000000000000000000000000000000000000000000000000\n      dup2\n      mstore\n      0x04\n      add\n      dup1\n      dup1\n      0x20\n      add\n      dup3\n      dup2\n      sub\n      dup3\n      mstore\n      0x25\n      dup2\n      mstore\n      0x20\n      add\n      dup1\n      data_baecc556b46f4ed0f2b4cb599d60785ac8563dd2dc0a5bf12edea1c39e5e1fea\n      0x25\n      swap2\n      codecopy\n      0x40\n      add\n      swap2\n      pop\n      pop\n      mload(0x40)\n      dup1\n      swap2\n      sub\n      swap1\n      revert\n    tag_147:\n        /* \"ROO_Repurchase/contracts/HecoMain_Usdt.sol\":6098:6099  0 */\n      0x00\n        /* \"ROO_Repurchase/contracts/HecoMain_Usdt.sol\":6077:6100  recipient != address(0) */\n      0xffffffffffffffffffffffffffffffffffffffff\n      and\n        /* \"ROO_Repurchase/contracts/HecoMain_Usdt.sol\":6077:6086  recipient */\n      dup3\n        /* \"ROO_Repurchase/contracts/HecoMain_Usdt.sol\":6077:6100  recipient != address(0) */\n      0xffffffffffffffffffffffffffffffffffffffff\n      and\n      eq\n      iszero\n        /* \"ROO_Repurchase/contracts/HecoMain_Usdt.sol\":6069:6140  require(recipient != address(0), \"ERC20: transfer to the zero address\") */\n      tag_148\n      jumpi\n      mload(0x40)\n      0x08c379a000000000000000000000000000000000000000000000000000000000\n      dup2\n      mstore\n      0x04\n      add\n      dup1\n      dup1\n      0x20\n      add\n      dup3\n      dup2\n      sub\n      dup3\n      mstore\n      0x23\n      dup2\n      mstore\n      0x20\n      add\n      dup1\n      data_0557e210f7a69a685100a7e4e3d0a7024c546085cee28910fd17d0b081d9516f\n      0x23\n      swap2\n      codecopy\n      0x40\n      add\n      swap2\n      pop\n      pop\n      mload(0x40)\n      dup1\n      swap2\n      sub\n      swap1\n      revert\n    tag_148:\n        /* \"ROO_Repurchase/contracts/HecoMain_Usdt.sol\":6151:6198  _beforeTokenTransfer(sender, recipient, amount) */\n      tag_149\n        /* \"ROO_Repurchase/contracts/HecoMain_Usdt.sol\":6172:6178  sender */\n      dup4\n        /* \"ROO_Repurchase/contracts/HecoMain_Usdt.sol\":6180:6189  recipient */\n      dup4\n        /* \"ROO_Repurchase/contracts/HecoMain_Usdt.sol\":6191:6197  amount */\n      dup4\n        /* \"ROO_Repurchase/contracts/HecoMain_Usdt.sol\":6151:6171  _beforeTokenTransfer */\n      tag_150\n        /* \"ROO_Repurchase/contracts/HecoMain_Usdt.sol\":6151:6198  _beforeTokenTransfer(sender, recipient, amount) */\n      jump\t// in\n    tag_149:\n        /* \"ROO_Repurchase/contracts/HecoMain_Usdt.sol\":6229:6300  _balances[sender].sub(amount, \"ERC20: transfer amount exceeds balance\") */\n      tag_151\n        /* \"ROO_Repurchase/contracts/HecoMain_Usdt.sol\":6251:6257  amount */\n      dup2\n        /* \"ROO_Repurchase/contracts/HecoMain_Usdt.sol\":6229:6300  _balances[sender].sub(amount, \"ERC20: transfer amount exceeds balance\") */\n      mload(0x40)\n      dup1\n      0x60\n      add\n      0x40\n      mstore\n      dup1\n      0x26\n      dup2\n      mstore\n      0x20\n      add\n      data_4107e8a8b9e94bf8ff83080ddec1c0bffe897ebc2241b89d44f66b3d274088b6\n      0x26\n      swap2\n      codecopy\n        /* \"ROO_Repurchase/contracts/HecoMain_Usdt.sol\":6229:6238  _balances */\n      0x00\n        /* \"ROO_Repurchase/contracts/HecoMain_Usdt.sol\":6229:6246  _balances[sender] */\n      dup1\n        /* \"ROO_Repurchase/contracts/HecoMain_Usdt.sol\":6239:6245  sender */\n      dup8\n        /* \"ROO_Repurchase/contracts/HecoMain_Usdt.sol\":6229:6246  _balances[sender] */\n      0xffffffffffffffffffffffffffffffffffffffff\n      and\n      0xffffffffffffffffffffffffffffffffffffffff\n      and\n      dup2\n      mstore\n      0x20\n      add\n      swap1\n      dup2\n      mstore\n      0x20\n      add\n      0x00\n      keccak256\n      sload\n        /* \"ROO_Repurchase/contracts/HecoMain_Usdt.sol\":6229:6250  _balances[sender].sub */\n      tag_92\n      swap1\n        /* \"ROO_Repurchase/contracts/HecoMain_Usdt.sol\":6229:6300  _balances[sender].sub(amount, \"ERC20: transfer amount exceeds balance\") */\n      swap3\n      swap2\n      swap1\n      0xffffffff\n      and\n      jump\t// in\n    tag_151:\n        /* \"ROO_Repurchase/contracts/HecoMain_Usdt.sol\":6209:6218  _balances */\n      0x00\n        /* \"ROO_Repurchase/contracts/HecoMain_Usdt.sol\":6209:6226  _balances[sender] */\n      dup1\n        /* \"ROO_Repurchase/contracts/HecoMain_Usdt.sol\":6219:6225  sender */\n      dup6\n        /* \"ROO_Repurchase/contracts/HecoMain_Usdt.sol\":6209:6226  _balances[sender] */\n      0xffffffffffffffffffffffffffffffffffffffff\n      and\n      0xffffffffffffffffffffffffffffffffffffffff\n      and\n      dup2\n      mstore\n      0x20\n      add\n      swap1\n      dup2\n      mstore\n      0x20\n      add\n      0x00\n      keccak256\n        /* \"ROO_Repurchase/contracts/HecoMain_Usdt.sol\":6209:6300  _balances[sender] = _balances[sender].sub(amount, \"ERC20: transfer amount exceeds balance\") */\n      dup2\n      swap1\n      sstore\n      pop\n        /* \"ROO_Repurchase/contracts/HecoMain_Usdt.sol\":6333:6365  _balances[recipient].add(amount) */\n      tag_152\n        /* \"ROO_Repurchase/contracts/HecoMain_Usdt.sol\":6358:6364  amount */\n      dup2\n        /* \"ROO_Repurchase/contracts/HecoMain_Usdt.sol\":6333:6342  _balances */\n      0x00\n        /* \"ROO_Repurchase/contracts/HecoMain_Usdt.sol\":6333:6353  _balances[recipient] */\n      dup1\n        /* \"ROO_Repurchase/contracts/HecoMain_Usdt.sol\":6343:6352  recipient */\n      dup6\n        /* \"ROO_Repurchase/contracts/HecoMain_Usdt.sol\":6333:6353  _balances[recipient] */\n      0xffffffffffffffffffffffffffffffffffffffff\n      and\n      0xffffffffffffffffffffffffffffffffffffffff\n      and\n      dup2\n      mstore\n      0x20\n      add\n      swap1\n      dup2\n      mstore\n      0x20\n      add\n      0x00\n      keccak256\n      sload\n        /* \"ROO_Repurchase/contracts/HecoMain_Usdt.sol\":6333:6357  _balances[recipient].add */\n      tag_99\n      swap1\n        /* \"ROO_Repurchase/contracts/HecoMain_Usdt.sol\":6333:6365  _balances[recipient].add(amount) */\n      swap2\n      swap1\n      0xffffffff\n      and\n      jump\t// in\n    tag_152:\n        /* \"ROO_Repurchase/contracts/HecoMain_Usdt.sol\":6310:6319  _balances */\n      0x00\n        /* \"ROO_Repurchase/contracts/HecoMain_Usdt.sol\":6310:6330  _balances[recipient] */\n      dup1\n        /* \"ROO_Repurchase/contracts/HecoMain_Usdt.sol\":6320:6329  recipient */\n      dup5\n        /* \"ROO_Repurchase/contracts/HecoMain_Usdt.sol\":6310:6330  _balances[recipient] */\n      0xffffffffffffffffffffffffffffffffffffffff\n      and\n      0xffffffffffffffffffffffffffffffffffffffff\n      and\n      dup2\n      mstore\n      0x20\n      add\n      swap1\n      dup2\n      mstore\n      0x20\n      add\n      0x00\n      keccak256\n        /* \"ROO_Repurchase/contracts/HecoMain_Usdt.sol\":6310:6365  _balances[recipient] = _balances[recipient].add(amount) */\n      dup2\n      swap1\n      sstore\n      pop\n        /* \"ROO_Repurchase/contracts/HecoMain_Usdt.sol\":6397:6406  recipient */\n      dup2\n        /* \"ROO_Repurchase/contracts/HecoMain_Usdt.sol\":6380:6415  Transfer(sender, recipient, amount) */\n      0xffffffffffffffffffffffffffffffffffffffff\n      and\n        /* \"ROO_Repurchase/contracts/HecoMain_Usdt.sol\":6389:6395  sender */\n      dup4\n        /* \"ROO_Repurchase/contracts/HecoMain_Usdt.sol\":6380:6415  Transfer(sender, recipient, amount) */\n      0xffffffffffffffffffffffffffffffffffffffff\n      and\n      0xddf252ad1be2c89b69c2b068fc378daa952ba7f163c4a11628f55a4df523b3ef\n        /* \"ROO_Repurchase/contracts/HecoMain_Usdt.sol\":6408:6414  amount */\n      dup4\n        /* \"ROO_Repurchase/contracts/HecoMain_Usdt.sol\":6380:6415  Transfer(sender, recipient, amount) */\n      mload(0x40)\n      dup1\n      dup3\n      dup2\n      mstore\n      0x20\n      add\n      swap2\n      pop\n      pop\n      mload(0x40)\n      dup1\n      swap2\n      sub\n      swap1\n      log3\n        /* \"ROO_Repurchase/contracts/HecoMain_Usdt.sol\":5892:6422  function _transfer(address sender, address recipient, uint256 amount) internal virtual {... */\n      pop\n      pop\n      pop\n      jump\t// out\n        /* \"ROO_Repurchase/contracts/HecoMain_Usdt.sol\":440:627  function sub(uint256 a, uint256 b, string memory errorMessage) internal pure returns (uint256) {... */\n    tag_92:\n        /* \"ROO_Repurchase/contracts/HecoMain_Usdt.sol\":526:533  uint256 */\n      0x00\n        /* \"ROO_Repurchase/contracts/HecoMain_Usdt.sol\":558:559  a */\n      dup4\n        /* \"ROO_Repurchase/contracts/HecoMain_Usdt.sol\":553:554  b */\n      dup4\n        /* \"ROO_Repurchase/contracts/HecoMain_Usdt.sol\":553:559  b <= a */\n      gt\n      iszero\n        /* \"ROO_Repurchase/contracts/HecoMain_Usdt.sol\":561:573  errorMessage */\n      dup3\n        /* \"ROO_Repurchase/contracts/HecoMain_Usdt.sol\":545:574  require(b <= a, errorMessage) */\n      swap1\n      tag_154\n      jumpi\n      mload(0x40)\n      0x08c379a000000000000000000000000000000000000000000000000000000000\n      dup2\n      mstore\n      0x04\n      add\n      dup1\n      dup1\n      0x20\n      add\n      dup3\n      dup2\n      sub\n      dup3\n      mstore\n      dup4\n      dup2\n      dup2\n      mload\n      dup2\n      mstore\n      0x20\n      add\n      swap2\n      pop\n      dup1\n      mload\n      swap1\n      0x20\n      add\n      swap1\n      dup1\n      dup4\n      dup4\n        /* \"--CODEGEN--\":23:24   */\n      0x00\n        /* \"--CODEGEN--\":8:108   */\n    tag_155:\n        /* \"--CODEGEN--\":33:36   */\n      dup4\n        /* \"--CODEGEN--\":30:31   */\n      dup2\n        /* \"--CODEGEN--\":27:37   */\n      lt\n        /* \"--CODEGEN--\":8:108   */\n      iszero\n      tag_157\n      jumpi\n        /* \"--CODEGEN--\":99:100   */\n      dup1\n        /* \"--CODEGEN--\":94:97   */\n      dup3\n        /* \"--CODEGEN--\":90:101   */\n      add\n        /* \"--CODEGEN--\":84:102   */\n      mload\n        /* \"--CODEGEN--\":80:81   */\n      dup2\n        /* \"--CODEGEN--\":75:78   */\n      dup5\n        /* \"--CODEGEN--\":71:82   */\n      add\n        /* \"--CODEGEN--\":64:103   */\n      mstore\n        /* \"--CODEGEN--\":52:54   */\n      0x20\n        /* \"--CODEGEN--\":49:50   */\n      dup2\n        /* \"--CODEGEN--\":45:55   */\n      add\n        /* \"--CODEGEN--\":40:55   */\n      swap1\n      pop\n        /* \"--CODEGEN--\":8:108   */\n      jump(tag_155)\n    tag_157:\n        /* \"--CODEGEN--\":12:26   */\n      pop\n        /* \"ROO_Repurchase/contracts/HecoMain_Usdt.sol\":545:574  require(b <= a, errorMessage) */\n      pop\n      pop\n      pop\n      swap1\n      pop\n      swap1\n      dup2\n      add\n      swap1\n      0x1f\n      and\n      dup1\n      iszero\n      tag_158\n      jumpi\n      dup1\n      dup3\n      sub\n      dup1\n      mload\n      0x01\n      dup4\n      0x20\n      sub\n      0x0100\n      exp\n      sub\n      not\n      and\n      dup2\n      mstore\n      0x20\n      add\n      swap2\n      pop\n    tag_158:\n      pop\n      swap3\n      pop\n      pop\n      pop\n      mload(0x40)\n      dup1\n      swap2\n      sub\n      swap1\n      revert\n    tag_154:\n      pop\n        /* \"ROO_Repurchase/contracts/HecoMain_Usdt.sol\":584:593  uint256 c */\n      0x00\n        /* \"ROO_Repurchase/contracts/HecoMain_Usdt.sol\":600:601  b */\n      dup4\n        /* \"ROO_Repurchase/contracts/HecoMain_Usdt.sol\":596:597  a */\n      dup6\n        /* \"ROO_Repurchase/contracts/HecoMain_Usdt.sol\":596:601  a - b */\n      sub\n        /* \"ROO_Repurchase/contracts/HecoMain_Usdt.sol\":584:601  uint256 c = a - b */\n      swap1\n      pop\n        /* \"ROO_Repurchase/contracts/HecoMain_Usdt.sol\":619:620  c */\n      dup1\n        /* \"ROO_Repurchase/contracts/HecoMain_Usdt.sol\":612:620  return c */\n      swap2\n      pop\n      pop\n        /* \"ROO_Repurchase/contracts/HecoMain_Usdt.sol\":440:627  function sub(uint256 a, uint256 b, string memory errorMessage) internal pure returns (uint256) {... */\n      swap4\n      swap3\n      pop\n      pop\n      pop\n      jump\t// out\n        /* \"ROO_Repurchase/contracts/HecoMain_Usdt.sol\":116:292  function add(uint256 a, uint256 b) internal pure returns (uint256) {... */\n    tag_99:\n        /* \"ROO_Repurchase/contracts/HecoMain_Usdt.sol\":174:181  uint256 */\n      0x00\n        /* \"ROO_Repurchase/contracts/HecoMain_Usdt.sol\":193:202  uint256 c */\n      dup1\n        /* \"ROO_Repurchase/contracts/HecoMain_Usdt.sol\":209:210  b */\n      dup3\n        /* \"ROO_Repurchase/contracts/HecoMain_Usdt.sol\":205:206  a */\n      dup5\n        /* \"ROO_Repurchase/contracts/HecoMain_Usdt.sol\":205:210  a + b */\n      add\n        /* \"ROO_Repurchase/contracts/HecoMain_Usdt.sol\":193:210  uint256 c = a + b */\n      swap1\n      pop\n        /* \"ROO_Repurchase/contracts/HecoMain_Usdt.sol\":233:234  a */\n      dup4\n        /* \"ROO_Repurchase/contracts/HecoMain_Usdt.sol\":228:229  c */\n      dup2\n        /* \"ROO_Repurchase/contracts/HecoMain_Usdt.sol\":228:234  c >= a */\n      lt\n      iszero\n        /* \"ROO_Repurchase/contracts/HecoMain_Usdt.sol\":220:266  require(c >= a, \"SafeMath: addition overflow\") */\n      tag_160\n      jumpi\n      mload(0x40)\n      0x08c379a000000000000000000000000000000000000000000000000000000000\n      dup2\n      mstore\n      0x04\n      add\n      dup1\n      dup1\n      0x20\n      add\n      dup3\n      dup2\n      sub\n      dup3\n      mstore\n      0x1b\n      dup2\n      mstore\n      0x20\n      add\n      dup1\n      0x536166654d6174683a206164646974696f6e206f766572666c6f770000000000\n      dup2\n      mstore\n      pop\n      0x20\n      add\n      swap2\n      pop\n      pop\n      mload(0x40)\n      dup1\n      swap2\n      sub\n      swap1\n      revert\n    tag_160:\n        /* \"ROO_Repurchase/contracts/HecoMain_Usdt.sol\":284:285  c */\n      dup1\n        /* \"ROO_Repurchase/contracts/HecoMain_Usdt.sol\":277:285  return c */\n      swap2\n      pop\n      pop\n        /* \"ROO_Repurchase/contracts/HecoMain_Usdt.sol\":116:292  function add(uint256 a, uint256 b) internal pure returns (uint256) {... */\n      swap3\n      swap2\n      pop\n      pop\n      jump\t// out\n        /* \"ROO_Repurchase/contracts/HecoMain_Usdt.sol\":3478:3595  function _unpause() internal virtual whenPaused {... */\n    tag_104:\n        /* \"ROO_Repurchase/contracts/HecoMain_Usdt.sol\":3299:3306  _paused */\n      0x05\n      0x01\n      swap1\n      sload\n      swap1\n      0x0100\n      exp\n      swap1\n      div\n      0xff\n      and\n        /* \"ROO_Repurchase/contracts/HecoMain_Usdt.sol\":3291:3331  require(_paused, \"Pausable: not paused\") */\n      tag_162\n      jumpi\n      mload(0x40)\n      0x08c379a000000000000000000000000000000000000000000000000000000000\n      dup2\n      mstore\n      0x04\n      add\n      dup1\n      dup1\n      0x20\n      add\n      dup3\n      dup2\n      sub\n      dup3\n      mstore\n      0x14\n      dup2\n      mstore\n      0x20\n      add\n      dup1\n      0x5061757361626c653a206e6f7420706175736564000000000000000000000000\n      dup2\n      mstore\n      pop\n      0x20\n      add\n      swap2\n      pop\n      pop\n      mload(0x40)\n      dup1\n      swap2\n      sub\n      swap1\n      revert\n    tag_162:\n        /* \"ROO_Repurchase/contracts/HecoMain_Usdt.sol\":3546:3551  false */\n      0x00\n        /* \"ROO_Repurchase/contracts/HecoMain_Usdt.sol\":3536:3543  _paused */\n      0x05\n      0x01\n        /* \"ROO_Repurchase/contracts/HecoMain_Usdt.sol\":3536:3551  _paused = false */\n      0x0100\n      exp\n      dup2\n      sload\n      dup2\n      0xff\n      mul\n      not\n      and\n      swap1\n      dup4\n      iszero\n      iszero\n      mul\n      or\n      swap1\n      sstore\n      pop\n        /* \"ROO_Repurchase/contracts/HecoMain_Usdt.sol\":3566:3588  Unpaused(_msgSender()) */\n      0x5db9ee0a495bf2e6ff9c91a7834c1ba4fdd244a5e8aa4e537bd38aeae4b073aa\n        /* \"ROO_Repurchase/contracts/HecoMain_Usdt.sol\":3575:3587  _msgSender() */\n      tag_164\n        /* \"ROO_Repurchase/contracts/HecoMain_Usdt.sol\":3575:3585  _msgSender */\n      tag_82\n        /* \"ROO_Repurchase/contracts/HecoMain_Usdt.sol\":3575:3587  _msgSender() */\n      jump\t// in\n    tag_164:\n        /* \"ROO_Repurchase/contracts/HecoMain_Usdt.sol\":3566:3588  Unpaused(_msgSender()) */\n      mload(0x40)\n      dup1\n      dup3\n      0xffffffffffffffffffffffffffffffffffffffff\n      and\n      0xffffffffffffffffffffffffffffffffffffffff\n      and\n      dup2\n      mstore\n      0x20\n      add\n      swap2\n      pop\n      pop\n      mload(0x40)\n      dup1\n      swap2\n      sub\n      swap1\n      log1\n        /* \"ROO_Repurchase/contracts/HecoMain_Usdt.sol\":3478:3595  function _unpause() internal virtual whenPaused {... */\n      jump\t// out\n        /* \"ROO_Repurchase/contracts/HecoMain_Usdt.sol\":6429:6799  function _mint(address account, uint256 amount) internal virtual {... */\n    tag_111:\n        /* \"ROO_Repurchase/contracts/HecoMain_Usdt.sol\":6531:6532  0 */\n      0x00\n        /* \"ROO_Repurchase/contracts/HecoMain_Usdt.sol\":6512:6533  account != address(0) */\n      0xffffffffffffffffffffffffffffffffffffffff\n      and\n        /* \"ROO_Repurchase/contracts/HecoMain_Usdt.sol\":6512:6519  account */\n      dup3\n        /* \"ROO_Repurchase/contracts/HecoMain_Usdt.sol\":6512:6533  account != address(0) */\n      0xffffffffffffffffffffffffffffffffffffffff\n      and\n      eq\n      iszero\n        /* \"ROO_Repurchase/contracts/HecoMain_Usdt.sol\":6504:6569  require(account != address(0), \"ERC20: mint to the zero address\") */\n      tag_166\n      jumpi\n      mload(0x40)\n      0x08c379a000000000000000000000000000000000000000000000000000000000\n      dup2\n      mstore\n      0x04\n      add\n      dup1\n      dup1\n      0x20\n      add\n      dup3\n      dup2\n      sub\n      dup3\n      mstore\n      0x1f\n      dup2\n      mstore\n      0x20\n      add\n      dup1\n      0x45524332303a206d696e7420746f20746865207a65726f206164647265737300\n      dup2\n      mstore\n      pop\n      0x20\n      add\n      swap2\n      pop\n      pop\n      mload(0x40)\n      dup1\n      swap2\n      sub\n      swap1\n      revert\n    tag_166:\n        /* \"ROO_Repurchase/contracts/HecoMain_Usdt.sol\":6580:6629  _beforeTokenTransfer(address(0), account, amount) */\n      tag_167\n        /* \"ROO_Repurchase/contracts/HecoMain_Usdt.sol\":6609:6610  0 */\n      0x00\n        /* \"ROO_Repurchase/contracts/HecoMain_Usdt.sol\":6613:6620  account */\n      dup4\n        /* \"ROO_Repurchase/contracts/HecoMain_Usdt.sol\":6622:6628  amount */\n      dup4\n        /* \"ROO_Repurchase/contracts/HecoMain_Usdt.sol\":6580:6600  _beforeTokenTransfer */\n      tag_150\n        /* \"ROO_Repurchase/contracts/HecoMain_Usdt.sol\":6580:6629  _beforeTokenTransfer(address(0), account, amount) */\n      jump\t// in\n    tag_167:\n        /* \"ROO_Repurchase/contracts/HecoMain_Usdt.sol\":6655:6679  _totalSupply.add(amount) */\n      tag_168\n        /* \"ROO_Repurchase/contracts/HecoMain_Usdt.sol\":6672:6678  amount */\n      dup2\n        /* \"ROO_Repurchase/contracts/HecoMain_Usdt.sol\":6655:6667  _totalSupply */\n      sload(0x02)\n        /* \"ROO_Repurchase/contracts/HecoMain_Usdt.sol\":6655:6671  _totalSupply.add */\n      tag_99\n      swap1\n        /* \"ROO_Repurchase/contracts/HecoMain_Usdt.sol\":6655:6679  _totalSupply.add(amount) */\n      swap2\n      swap1\n      0xffffffff\n      and\n      jump\t// in\n    tag_168:\n        /* \"ROO_Repurchase/contracts/HecoMain_Usdt.sol\":6640:6652  _totalSupply */\n      0x02\n        /* \"ROO_Repurchase/contracts/HecoMain_Usdt.sol\":6640:6679  _totalSupply = _totalSupply.add(amount) */\n      dup2\n      swap1\n      sstore\n      pop\n        /* \"ROO_Repurchase/contracts/HecoMain_Usdt.sol\":6710:6740  _balances[account].add(amount) */\n      tag_169\n        /* \"ROO_Repurchase/contracts/HecoMain_Usdt.sol\":6733:6739  amount */\n      dup2\n        /* \"ROO_Repurchase/contracts/HecoMain_Usdt.sol\":6710:6719  _balances */\n      0x00\n        /* \"ROO_Repurchase/contracts/HecoMain_Usdt.sol\":6710:6728  _balances[account] */\n      dup1\n        /* \"ROO_Repurchase/contracts/HecoMain_Usdt.sol\":6720:6727  account */\n      dup6\n        /* \"ROO_Repurchase/contracts/HecoMain_Usdt.sol\":6710:6728  _balances[account] */\n      0xffffffffffffffffffffffffffffffffffffffff\n      and\n      0xffffffffffffffffffffffffffffffffffffffff\n      and\n      dup2\n      mstore\n      0x20\n      add\n      swap1\n      dup2\n      mstore\n      0x20\n      add\n      0x00\n      keccak256\n      sload\n        /* \"ROO_Repurchase/contracts/HecoMain_Usdt.sol\":6710:6732  _balances[account].add */\n      tag_99\n      swap1\n        /* \"ROO_Repurchase/contracts/HecoMain_Usdt.sol\":6710:6740  _balances[account].add(amount) */\n      swap2\n      swap1\n      0xffffffff\n      and\n      jump\t// in\n    tag_169:\n        /* \"ROO_Repurchase/contracts/HecoMain_Usdt.sol\":6689:6698  _balances */\n      0x00\n        /* \"ROO_Repurchase/contracts/HecoMain_Usdt.sol\":6689:6707  _balances[account] */\n      dup1\n        /* \"ROO_Repurchase/contracts/HecoMain_Usdt.sol\":6699:6706  account */\n      dup5\n        /* \"ROO_Repurchase/contracts/HecoMain_Usdt.sol\":6689:6707  _balances[account] */\n      0xffffffffffffffffffffffffffffffffffffffff\n      and\n      0xffffffffffffffffffffffffffffffffffffffff\n      and\n      dup2\n      mstore\n      0x20\n      add\n      swap1\n      dup2\n      mstore\n      0x20\n      add\n      0x00\n      keccak256\n        /* \"ROO_Repurchase/contracts/HecoMain_Usdt.sol\":6689:6740  _balances[account] = _balances[account].add(amount) */\n      dup2\n      swap1\n      sstore\n      pop\n        /* \"ROO_Repurchase/contracts/HecoMain_Usdt.sol\":6776:6783  account */\n      dup2\n        /* \"ROO_Repurchase/contracts/HecoMain_Usdt.sol\":6755:6792  Transfer(address(0), account, amount) */\n      0xffffffffffffffffffffffffffffffffffffffff\n      and\n        /* \"ROO_Repurchase/contracts/HecoMain_Usdt.sol\":6772:6773  0 */\n      0x00\n        /* \"ROO_Repurchase/contracts/HecoMain_Usdt.sol\":6755:6792  Transfer(address(0), account, amount) */\n      0xffffffffffffffffffffffffffffffffffffffff\n      and\n      0xddf252ad1be2c89b69c2b068fc378daa952ba7f163c4a11628f55a4df523b3ef\n        /* \"ROO_Repurchase/contracts/HecoMain_Usdt.sol\":6785:6791  amount */\n      dup4\n        /* \"ROO_Repurchase/contracts/HecoMain_Usdt.sol\":6755:6792  Transfer(address(0), account, amount) */\n      mload(0x40)\n      dup1\n      dup3\n      dup2\n      mstore\n      0x20\n      add\n      swap2\n      pop\n      pop\n      mload(0x40)\n      dup1\n      swap2\n      sub\n      swap1\n      log3\n        /* \"ROO_Repurchase/contracts/HecoMain_Usdt.sol\":6429:6799  function _mint(address account, uint256 amount) internal virtual {... */\n      pop\n      pop\n      jump\t// out\n        /* \"ROO_Repurchase/contracts/HecoMain_Usdt.sol\":3356:3471  function _pause() internal virtual whenNotPaused {... */\n    tag_118:\n        /* \"ROO_Repurchase/contracts/HecoMain_Usdt.sol\":3206:3213  _paused */\n      0x05\n      0x01\n      swap1\n      sload\n      swap1\n      0x0100\n      exp\n      swap1\n      div\n      0xff\n      and\n        /* \"ROO_Repurchase/contracts/HecoMain_Usdt.sol\":3205:3213  !_paused */\n      iszero\n        /* \"ROO_Repurchase/contracts/HecoMain_Usdt.sol\":3197:3234  require(!_paused, \"Pausable: paused\") */\n      tag_171\n      jumpi\n      mload(0x40)\n      0x08c379a000000000000000000000000000000000000000000000000000000000\n      dup2\n      mstore\n      0x04\n      add\n      dup1\n      dup1\n      0x20\n      add\n      dup3\n      dup2\n      sub\n      dup3\n      mstore\n      0x10\n      dup2\n      mstore\n      0x20\n      add\n      dup1\n      0x5061757361626c653a2070617573656400000000000000000000000000000000\n      dup2\n      mstore\n      pop\n      0x20\n      add\n      swap2\n      pop\n      pop\n      mload(0x40)\n      dup1\n      swap2\n      sub\n      swap1\n      revert\n    tag_171:\n        /* \"ROO_Repurchase/contracts/HecoMain_Usdt.sol\":3425:3429  true */\n      0x01\n        /* \"ROO_Repurchase/contracts/HecoMain_Usdt.sol\":3415:3422  _paused */\n      0x05\n      0x01\n        /* \"ROO_Repurchase/contracts/HecoMain_Usdt.sol\":3415:3429  _paused = true */\n      0x0100\n      exp\n      dup2\n      sload\n      dup2\n      0xff\n      mul\n      not\n      and\n      swap1\n      dup4\n      iszero\n      iszero\n      mul\n      or\n      swap1\n      sstore\n      pop\n        /* \"ROO_Repurchase/contracts/HecoMain_Usdt.sol\":3444:3464  Paused(_msgSender()) */\n      0x62e78cea01bee320cd4e420270b5ea74000d11b0c9f74754ebdbfc544b05a258\n        /* \"ROO_Repurchase/contracts/HecoMain_Usdt.sol\":3451:3463  _msgSender() */\n      tag_173\n        /* \"ROO_Repurchase/contracts/HecoMain_Usdt.sol\":3451:3461  _msgSender */\n      tag_82\n        /* \"ROO_Repurchase/contracts/HecoMain_Usdt.sol\":3451:3463  _msgSender() */\n      jump\t// in\n    tag_173:\n        /* \"ROO_Repurchase/contracts/HecoMain_Usdt.sol\":3444:3464  Paused(_msgSender()) */\n      mload(0x40)\n      dup1\n      dup3\n      0xffffffffffffffffffffffffffffffffffffffff\n      and\n      0xffffffffffffffffffffffffffffffffffffffff\n      and\n      dup2\n      mstore\n      0x20\n      add\n      swap2\n      pop\n      pop\n      mload(0x40)\n      dup1\n      swap2\n      sub\n      swap1\n      log1\n        /* \"ROO_Repurchase/contracts/HecoMain_Usdt.sol\":3356:3471  function _pause() internal virtual whenNotPaused {... */\n      jump\t// out\n        /* \"ROO_Repurchase/contracts/HecoMain_Usdt.sol\":6806:7216  function _burn(address account, uint256 amount) internal virtual {... */\n    tag_132:\n        /* \"ROO_Repurchase/contracts/HecoMain_Usdt.sol\":6908:6909  0 */\n      0x00\n        /* \"ROO_Repurchase/contracts/HecoMain_Usdt.sol\":6889:6910  account != address(0) */\n      0xffffffffffffffffffffffffffffffffffffffff\n      and\n        /* \"ROO_Repurchase/contracts/HecoMain_Usdt.sol\":6889:6896  account */\n      dup3\n        /* \"ROO_Repurchase/contracts/HecoMain_Usdt.sol\":6889:6910  account != address(0) */\n      0xffffffffffffffffffffffffffffffffffffffff\n      and\n      eq\n      iszero\n        /* \"ROO_Repurchase/contracts/HecoMain_Usdt.sol\":6881:6948  require(account != address(0), \"ERC20: burn from the zero address\") */\n      tag_175\n      jumpi\n      mload(0x40)\n      0x08c379a000000000000000000000000000000000000000000000000000000000\n      dup2\n      mstore\n      0x04\n      add\n      dup1\n      dup1\n      0x20\n      add\n      dup3\n      dup2\n      sub\n      dup3\n      mstore\n      0x21\n      dup2\n      mstore\n      0x20\n      add\n      dup1\n      data_b16788493b576042bb52c50ed56189e0b250db113c7bfb1c3897d25cf9632d7f\n      0x21\n      swap2\n      codecopy\n      0x40\n      add\n      swap2\n      pop\n      pop\n      mload(0x40)\n      dup1\n      swap2\n      sub\n      swap1\n      revert\n    tag_175:\n        /* \"ROO_Repurchase/contracts/HecoMain_Usdt.sol\":6959:7008  _beforeTokenTransfer(account, address(0), amount) */\n      tag_176\n        /* \"ROO_Repurchase/contracts/HecoMain_Usdt.sol\":6980:6987  account */\n      dup3\n        /* \"ROO_Repurchase/contracts/HecoMain_Usdt.sol\":6997:6998  0 */\n      0x00\n        /* \"ROO_Repurchase/contracts/HecoMain_Usdt.sol\":7001:7007  amount */\n      dup4\n        /* \"ROO_Repurchase/contracts/HecoMain_Usdt.sol\":6959:6979  _beforeTokenTransfer */\n      tag_150\n        /* \"ROO_Repurchase/contracts/HecoMain_Usdt.sol\":6959:7008  _beforeTokenTransfer(account, address(0), amount) */\n      jump\t// in\n    tag_176:\n        /* \"ROO_Repurchase/contracts/HecoMain_Usdt.sol\":7040:7108  _balances[account].sub(amount, \"ERC20: burn amount exceeds balance\") */\n      tag_177\n        /* \"ROO_Repurchase/contracts/HecoMain_Usdt.sol\":7063:7069  amount */\n      dup2\n        /* \"ROO_Repurchase/contracts/HecoMain_Usdt.sol\":7040:7108  _balances[account].sub(amount, \"ERC20: burn amount exceeds balance\") */\n      mload(0x40)\n      dup1\n      0x60\n      add\n      0x40\n      mstore\n      dup1\n      0x22\n      dup2\n      mstore\n      0x20\n      add\n      data_149b126e7125232b4200af45303d04fba8b74653b1a295a6a561a528c33fefdd\n      0x22\n      swap2\n      codecopy\n        /* \"ROO_Repurchase/contracts/HecoMain_Usdt.sol\":7040:7049  _balances */\n      0x00\n        /* \"ROO_Repurchase/contracts/HecoMain_Usdt.sol\":7040:7058  _balances[account] */\n      dup1\n        /* \"ROO_Repurchase/contracts/HecoMain_Usdt.sol\":7050:7057  account */\n      dup7\n        /* \"ROO_Repurchase/contracts/HecoMain_Usdt.sol\":7040:7058  _balances[account] */\n      0xffffffffffffffffffffffffffffffffffffffff\n      and\n      0xffffffffffffffffffffffffffffffffffffffff\n      and\n      dup2\n      mstore\n      0x20\n      add\n      swap1\n      dup2\n      mstore\n      0x20\n      add\n      0x00\n      keccak256\n      sload\n        /* \"ROO_Repurchase/contracts/HecoMain_Usdt.sol\":7040:7062  _balances[account].sub */\n      tag_92\n      swap1\n        /* \"ROO_Repurchase/contracts/HecoMain_Usdt.sol\":7040:7108  _balances[account].sub(amount, \"ERC20: burn amount exceeds balance\") */\n      swap3\n      swap2\n      swap1\n      0xffffffff\n      and\n      jump\t// in\n    tag_177:\n        /* \"ROO_Repurchase/contracts/HecoMain_Usdt.sol\":7019:7028  _balances */\n      0x00\n        /* \"ROO_Repurchase/contracts/HecoMain_Usdt.sol\":7019:7037  _balances[account] */\n      dup1\n        /* \"ROO_Repurchase/contracts/HecoMain_Usdt.sol\":7029:7036  account */\n      dup5\n        /* \"ROO_Repurchase/contracts/HecoMain_Usdt.sol\":7019:7037  _balances[account] */\n      0xffffffffffffffffffffffffffffffffffffffff\n      and\n      0xffffffffffffffffffffffffffffffffffffffff\n      and\n      dup2\n      mstore\n      0x20\n      add\n      swap1\n      dup2\n      mstore\n      0x20\n      add\n      0x00\n      keccak256\n        /* \"ROO_Repurchase/contracts/HecoMain_Usdt.sol\":7019:7108  _balances[account] = _balances[account].sub(amount, \"ERC20: burn amount exceeds balance\") */\n      dup2\n      swap1\n      sstore\n      pop\n        /* \"ROO_Repurchase/contracts/HecoMain_Usdt.sol\":7133:7157  _totalSupply.sub(amount) */\n      tag_178\n        /* \"ROO_Repurchase/contracts/HecoMain_Usdt.sol\":7150:7156  amount */\n      dup2\n        /* \"ROO_Repurchase/contracts/HecoMain_Usdt.sol\":7133:7145  _totalSupply */\n      sload(0x02)\n        /* \"ROO_Repurchase/contracts/HecoMain_Usdt.sol\":7133:7149  _totalSupply.sub */\n      tag_179\n      swap1\n        /* \"ROO_Repurchase/contracts/HecoMain_Usdt.sol\":7133:7157  _totalSupply.sub(amount) */\n      swap2\n      swap1\n      0xffffffff\n      and\n      jump\t// in\n    tag_178:\n        /* \"ROO_Repurchase/contracts/HecoMain_Usdt.sol\":7118:7130  _totalSupply */\n      0x02\n        /* \"ROO_Repurchase/contracts/HecoMain_Usdt.sol\":7118:7157  _totalSupply = _totalSupply.sub(amount) */\n      dup2\n      swap1\n      sstore\n      pop\n        /* \"ROO_Repurchase/contracts/HecoMain_Usdt.sol\":7198:7199  0 */\n      0x00\n        /* \"ROO_Repurchase/contracts/HecoMain_Usdt.sol\":7172:7209  Transfer(account, address(0), amount) */\n      0xffffffffffffffffffffffffffffffffffffffff\n      and\n        /* \"ROO_Repurchase/contracts/HecoMain_Usdt.sol\":7181:7188  account */\n      dup3\n        /* \"ROO_Repurchase/contracts/HecoMain_Usdt.sol\":7172:7209  Transfer(account, address(0), amount) */\n      0xffffffffffffffffffffffffffffffffffffffff\n      and\n      0xddf252ad1be2c89b69c2b068fc378daa952ba7f163c4a11628f55a4df523b3ef\n        /* \"ROO_Repurchase/contracts/HecoMain_Usdt.sol\":7202:7208  amount */\n      dup4\n        /* \"ROO_Repurchase/contracts/HecoMain_Usdt.sol\":7172:7209  Transfer(account, address(0), amount) */\n      mload(0x40)\n      dup1\n      dup3\n      dup2\n      mstore\n      0x20\n      add\n      swap2\n      pop\n      pop\n      mload(0x40)\n      dup1\n      swap2\n      sub\n      swap1\n      log3\n        /* \"ROO_Repurchase/contracts/HecoMain_Usdt.sol\":6806:7216  function _burn(address account, uint256 amount) internal virtual {... */\n      pop\n      pop\n      jump\t// out\n        /* \"ROO_Repurchase/contracts/HecoMain_Usdt.sol\":7814:8048  function _beforeTokenTransfer(address from, address to, uint256 amount) internal virtual override {... */\n    tag_150:\n        /* \"ROO_Repurchase/contracts/HecoMain_Usdt.sol\":7922:7966  super._beforeTokenTransfer(from, to, amount) */\n      tag_181\n        /* \"ROO_Repurchase/contracts/HecoMain_Usdt.sol\":7949:7953  from */\n      dup4\n        /* \"ROO_Repurchase/contracts/HecoMain_Usdt.sol\":7955:7957  to */\n      dup4\n        /* \"ROO_Repurchase/contracts/HecoMain_Usdt.sol\":7959:7965  amount */\n      dup4\n        /* \"ROO_Repurchase/contracts/HecoMain_Usdt.sol\":7922:7948  super._beforeTokenTransfer */\n      tag_182\n        /* \"ROO_Repurchase/contracts/HecoMain_Usdt.sol\":7922:7966  super._beforeTokenTransfer(from, to, amount) */\n      jump\t// in\n    tag_181:\n        /* \"ROO_Repurchase/contracts/HecoMain_Usdt.sol\":7986:7994  paused() */\n      tag_183\n        /* \"ROO_Repurchase/contracts/HecoMain_Usdt.sol\":7986:7992  paused */\n      tag_48\n        /* \"ROO_Repurchase/contracts/HecoMain_Usdt.sol\":7986:7994  paused() */\n      jump\t// in\n    tag_183:\n        /* \"ROO_Repurchase/contracts/HecoMain_Usdt.sol\":7985:7994  !paused() */\n      iszero\n        /* \"ROO_Repurchase/contracts/HecoMain_Usdt.sol\":7977:8041  require(!paused(), \"ERC20Pausable: token transfer while paused\") */\n      tag_184\n      jumpi\n      mload(0x40)\n      0x08c379a000000000000000000000000000000000000000000000000000000000\n      dup2\n      mstore\n      0x04\n      add\n      dup1\n      dup1\n      0x20\n      add\n      dup3\n      dup2\n      sub\n      dup3\n      mstore\n      0x2a\n      dup2\n      mstore\n      0x20\n      add\n      dup1\n      data_fcb1fc9f3615fd38ab90d28b50a608758c295eeacbd5840421a4ee3b0df2f1f4\n      0x2a\n      swap2\n      codecopy\n      0x40\n      add\n      swap2\n      pop\n      pop\n      mload(0x40)\n      dup1\n      swap2\n      sub\n      swap1\n      revert\n    tag_184:\n        /* \"ROO_Repurchase/contracts/HecoMain_Usdt.sol\":7814:8048  function _beforeTokenTransfer(address from, address to, uint256 amount) internal virtual override {... */\n      pop\n      pop\n      pop\n      jump\t// out\n        /* \"ROO_Repurchase/contracts/HecoMain_Usdt.sol\":299:433  function sub(uint256 a, uint256 b) internal pure returns (uint256) {... */\n    tag_179:\n        /* \"ROO_Repurchase/contracts/HecoMain_Usdt.sol\":357:364  uint256 */\n      0x00\n        /* \"ROO_Repurchase/contracts/HecoMain_Usdt.sol\":383:426  sub(a, b, \"SafeMath: subtraction overflow\") */\n      tag_186\n        /* \"ROO_Repurchase/contracts/HecoMain_Usdt.sol\":387:388  a */\n      dup4\n        /* \"ROO_Repurchase/contracts/HecoMain_Usdt.sol\":390:391  b */\n      dup4\n        /* \"ROO_Repurchase/contracts/HecoMain_Usdt.sol\":383:426  sub(a, b, \"SafeMath: subtraction overflow\") */\n      mload(0x40)\n      dup1\n      0x40\n      add\n      0x40\n      mstore\n      dup1\n      0x1e\n      dup2\n      mstore\n      0x20\n      add\n      0x536166654d6174683a207375627472616374696f6e206f766572666c6f770000\n      dup2\n      mstore\n      pop\n        /* \"ROO_Repurchase/contracts/HecoMain_Usdt.sol\":383:386  sub */\n      tag_92\n        /* \"ROO_Repurchase/contracts/HecoMain_Usdt.sol\":383:426  sub(a, b, \"SafeMath: subtraction overflow\") */\n      jump\t// in\n    tag_186:\n        /* \"ROO_Repurchase/contracts/HecoMain_Usdt.sol\":376:426  return sub(a, b, \"SafeMath: subtraction overflow\") */\n      swap1\n      pop\n        /* \"ROO_Repurchase/contracts/HecoMain_Usdt.sol\":299:433  function sub(uint256 a, uint256 b) internal pure returns (uint256) {... */\n      swap3\n      swap2\n      pop\n      pop\n      jump\t// out\n        /* \"ROO_Repurchase/contracts/HecoMain_Usdt.sol\":7662:7754  function _beforeTokenTransfer(address from, address to, uint256 amount) internal virtual { } */\n    tag_182:\n      pop\n      pop\n      pop\n      jump\t// out\n    stop\n    data_0557e210f7a69a685100a7e4e3d0a7024c546085cee28910fd17d0b081d9516f 45524332303a207472616e7366657220746f20746865207a65726f2061646472657373\n    data_149b126e7125232b4200af45303d04fba8b74653b1a295a6a561a528c33fefdd 45524332303a206275726e20616d6f756e7420657863656564732062616c616e6365\n    data_24883cc5fe64ace9d0df1893501ecb93c77180f0ff69cca79affb3c316dc8029 45524332303a20617070726f766520746f20746865207a65726f2061646472657373\n    data_4107e8a8b9e94bf8ff83080ddec1c0bffe897ebc2241b89d44f66b3d274088b6 45524332303a207472616e7366657220616d6f756e7420657863656564732062616c616e6365\n    data_974d1b4421da69cc60b481194f0dad36a5bb4e23da810da7a7fb30cdba178330 45524332303a207472616e7366657220616d6f756e74206578636565647320616c6c6f77616e6365\n    data_b16788493b576042bb52c50ed56189e0b250db113c7bfb1c3897d25cf9632d7f 45524332303a206275726e2066726f6d20746865207a65726f2061646472657373\n    data_baecc556b46f4ed0f2b4cb599d60785ac8563dd2dc0a5bf12edea1c39e5e1fea 45524332303a207472616e736665722066726f6d20746865207a65726f2061646472657373\n    data_c953f4879035ed60e766b34720f656aab5c697b141d924c283124ecedb91c208 45524332303a20617070726f76652066726f6d20746865207a65726f2061646472657373\n    data_f8b476f7d28209d77d4a4ac1fe36b9f8259aa1bb6bddfa6e89de7e51615cf8a8 45524332303a2064656372656173656420616c6c6f77616e63652062656c6f77207a65726f\n    data_fcb1fc9f3615fd38ab90d28b50a608758c295eeacbd5840421a4ee3b0df2f1f4 45524332305061757361626c653a20746f6b656e207472616e73666572207768696c6520706175736564\n\n    auxdata: 0xa264697066735822122096eeed8dce4c19d5487672d3d083d0efa0564167dd93d5d3d5c3c72e49043d3664736f6c63430006060033\n}\n",
				"bytecode": {
					"linkReferences": {},
					"object": "60806040523480156200001157600080fd5b50604051620022ed380380620022ed833981810160405260a08110156200003757600080fd5b810190808051906020019092919080519060200190929190805160405193929190846401000000008211156200006c57600080fd5b838201915060208201858111156200008357600080fd5b8251866001820283011164010000000082111715620000a157600080fd5b8083526020830192505050908051906020019080838360005b83811015620000d7578082015181840152602081019050620000ba565b50505050905090810190601f168015620001055780820380516001836020036101000a031916815260200191505b50604052602001805160405193929190846401000000008211156200012957600080fd5b838201915060208201858111156200014057600080fd5b82518660018202830111640100000000821117156200015e57600080fd5b8083526020830192505050908051906020019080838360005b838110156200019457808201518184015260208101905062000177565b50505050905090810190601f168015620001c25780820380516001836020036101000a031916815260200191505b506040526020018051906020019092919050505082828160039080519060200190620001f092919062000340565b5080600490805190602001906200020992919062000340565b506012600560006101000a81548160ff021916908360ff16021790555050506000600560016101000a81548160ff02191690831515021790555084600660006101000a81548173ffffffffffffffffffffffffffffffffffffffff021916908373ffffffffffffffffffffffffffffffffffffffff16021790555083600760006101000a81548173ffffffffffffffffffffffffffffffffffffffff021916908373ffffffffffffffffffffffffffffffffffffffff160217905550620002d6816200032260201b60201c565b33600560026101000a81548173ffffffffffffffffffffffffffffffffffffffff021916908373ffffffffffffffffffffffffffffffffffffffff1602179055505050505050620003ef565b80600560006101000a81548160ff021916908360ff16021790555050565b828054600181600116156101000203166002900490600052602060002090601f016020900481019282601f106200038357805160ff1916838001178555620003b4565b82800160010185558215620003b4579182015b82811115620003b357825182559160200191906001019062000396565b5b509050620003c39190620003c7565b5090565b620003ec91905b80821115620003e8576000816000905550600101620003ce565b5090565b90565b611eee80620003ff6000396000f3fe608060405234801561001057600080fd5b506004361061010b5760003560e01c80635c975abb116100a257806395d89b411161007157806395d89b41146104675780639dc29fac146104ea578063a457c2d714610538578063a9059cbb1461059e578063dd62ed3e146106045761010b565b80635c975abb1461037f57806370a08231146103a15780638456cb59146103f95780638e50817a146104035761010b565b8063313ce567116100de578063313ce5671461029d57806339509351146102c15780633f4ba83a1461032757806340c10f19146103315761010b565b806306fdde0314610110578063095ea7b31461019357806318160ddd146101f957806323b872dd14610217575b600080fd5b61011861067c565b6040518080602001828103825283818151815260200191508051906020019080838360005b8381101561015857808201518184015260208101905061013d565b50505050905090810190601f1680156101855780820380516001836020036101000a031916815260200191505b509250505060405180910390f35b6101df600480360360408110156101a957600080fd5b81019080803573ffffffffffffffffffffffffffffffffffffffff1690602001909291908035906020019092919050505061071e565b604051808215151515815260200191505060405180910390f35b61020161073c565b6040518082815260200191505060405180910390f35b6102836004803603606081101561022d57600080fd5b81019080803573ffffffffffffffffffffffffffffffffffffffff169060200190929190803573ffffffffffffffffffffffffffffffffffffffff16906020019092919080359060200190929190505050610746565b604051808215151515815260200191505060405180910390f35b6102a561081f565b604051808260ff1660ff16815260200191505060405180910390f35b61030d600480360360408110156102d757600080fd5b81019080803573ffffffffffffffffffffffffffffffffffffffff16906020019092919080359060200190929190505050610836565b604051808215151515815260200191505060405180910390f35b61032f6108e9565b005b61037d6004803603604081101561034757600080fd5b81019080803573ffffffffffffffffffffffffffffffffffffffff169060200190929190803590602001909291905050506109b6565b005b610387610b0a565b604051808215151515815260200191505060405180910390f35b6103e3600480360360208110156103b757600080fd5b81019080803573ffffffffffffffffffffffffffffffffffffffff169060200190929190505050610b21565b6040518082815260200191505060405180910390f35b610401610b69565b005b6104656004803603604081101561041957600080fd5b81019080803573ffffffffffffffffffffffffffffffffffffffff169060200190929190803573ffffffffffffffffffffffffffffffffffffffff169060200190929190505050610c36565b005b61046f610d7f565b6040518080602001828103825283818151815260200191508051906020019080838360005b838110156104af578082015181840152602081019050610494565b50505050905090810190601f1680156104dc5780820380516001836020036101000a031916815260200191505b509250505060405180910390f35b6105366004803603604081101561050057600080fd5b81019080803573ffffffffffffffffffffffffffffffffffffffff16906020019092919080359060200190929190505050610e21565b005b6105846004803603604081101561054e57600080fd5b81019080803573ffffffffffffffffffffffffffffffffffffffff16906020019092919080359060200190929190505050610f75565b604051808215151515815260200191505060405180910390f35b6105ea600480360360408110156105b457600080fd5b81019080803573ffffffffffffffffffffffffffffffffffffffff16906020019092919080359060200190929190505050611042565b604051808215151515815260200191505060405180910390f35b6106666004803603604081101561061a57600080fd5b81019080803573ffffffffffffffffffffffffffffffffffffffff169060200190929190803573ffffffffffffffffffffffffffffffffffffffff169060200190929190505050611060565b6040518082815260200191505060405180910390f35b606060038054600181600116156101000203166002900480601f0160208091040260200160405190810160405280929190818152602001828054600181600116156101000203166002900480156107145780601f106106e957610100808354040283529160200191610714565b820191906000526020600020905b8154815290600101906020018083116106f757829003601f168201915b5050505050905090565b600061073261072b6110e7565b84846110ef565b6001905092915050565b6000600254905090565b60006107538484846112e6565b6108148461075f6110e7565b61080f85604051806060016040528060288152602001611dd860289139600160008b73ffffffffffffffffffffffffffffffffffffffff1673ffffffffffffffffffffffffffffffffffffffff16815260200190815260200160002060006107c56110e7565b73ffffffffffffffffffffffffffffffffffffffff1673ffffffffffffffffffffffffffffffffffffffff168152602001908152602001600020546115a79092919063ffffffff16565b6110ef565b600190509392505050565b6000600560009054906101000a900460ff16905090565b60006108df6108436110e7565b846108da85600160006108546110e7565b73ffffffffffffffffffffffffffffffffffffffff1673ffffffffffffffffffffffffffffffffffffffff16815260200190815260200160002060008973ffffffffffffffffffffffffffffffffffffffff1673ffffffffffffffffffffffffffffffffffffffff1681526020019081526020016000205461166790919063ffffffff16565b6110ef565b6001905092915050565b600760009054906101000a900473ffffffffffffffffffffffffffffffffffffffff1673ffffffffffffffffffffffffffffffffffffffff163373ffffffffffffffffffffffffffffffffffffffff16146109ac576040517f08c379a000000000000000000000000000000000000000000000000000000000815260040180806020018281038252600b8152602001807f6e6f7420616c6c6f77656400000000000000000000000000000000000000000081525060200191505060405180910390fd5b6109b46116ef565b565b600560019054906101000a900460ff1615610a39576040517f08c379a00000000000000000000000000000000000000000000000000000000081526004018080602001828103825260108152602001807f5061757361626c653a207061757365640000000000000000000000000000000081525060200191505060405180910390fd5b600660009054906101000a900473ffffffffffffffffffffffffffffffffffffffff1673ffffffffffffffffffffffffffffffffffffffff163373ffffffffffffffffffffffffffffffffffffffff1614610afc576040517f08c379a000000000000000000000000000000000000000000000000000000000815260040180806020018281038252600b8152602001807f6e6f7420616c6c6f77656400000000000000000000000000000000000000000081525060200191505060405180910390fd5b610b0682826117f8565b5050565b6000600560019054906101000a900460ff16905090565b60008060008373ffffffffffffffffffffffffffffffffffffffff1673ffffffffffffffffffffffffffffffffffffffff168152602001908152602001600020549050919050565b600760009054906101000a900473ffffffffffffffffffffffffffffffffffffffff1673ffffffffffffffffffffffffffffffffffffffff163373ffffffffffffffffffffffffffffffffffffffff1614610c2c576040517f08c379a000000000000000000000000000000000000000000000000000000000815260040180806020018281038252600b8152602001807f6e6f7420616c6c6f77656400000000000000000000000000000000000000000081525060200191505060405180910390fd5b610c346119bf565b565b600560029054906101000a900473ffffffffffffffffffffffffffffffffffffffff1673ffffffffffffffffffffffffffffffffffffffff163373ffffffffffffffffffffffffffffffffffffffff1614610cf9576040517f08c379a000000000000000000000000000000000000000000000000000000000815260040180806020018281038252600c8152602001807f6f6e6c7920466163746f7279000000000000000000000000000000000000000081525060200191505060405180910390fd5b80600760006101000a81548173ffffffffffffffffffffffffffffffffffffffff021916908373ffffffffffffffffffffffffffffffffffffffff16021790555081600660006101000a81548173ffffffffffffffffffffffffffffffffffffffff021916908373ffffffffffffffffffffffffffffffffffffffff1602179055505050565b606060048054600181600116156101000203166002900480601f016020809104026020016040519081016040528092919081815260200182805460018160011615610100020316600290048015610e175780601f10610dec57610100808354040283529160200191610e17565b820191906000526020600020905b815481529060010190602001808311610dfa57829003601f168201915b5050505050905090565b600560019054906101000a900460ff1615610ea4576040517f08c379a00000000000000000000000000000000000000000000000000000000081526004018080602001828103825260108152602001807f5061757361626c653a207061757365640000000000000000000000000000000081525060200191505060405180910390fd5b600660009054906101000a900473ffffffffffffffffffffffffffffffffffffffff1673ffffffffffffffffffffffffffffffffffffffff163373ffffffffffffffffffffffffffffffffffffffff1614610f67576040517f08c379a000000000000000000000000000000000000000000000000000000000815260040180806020018281038252600b8152602001807f6e6f7420616c6c6f77656400000000000000000000000000000000000000000081525060200191505060405180910390fd5b610f718282611ac9565b5050565b6000611038610f826110e7565b8461103385604051806060016040528060258152602001611e6a6025913960016000610fac6110e7565b73ffffffffffffffffffffffffffffffffffffffff1673ffffffffffffffffffffffffffffffffffffffff16815260200190815260200160002060008a73ffffffffffffffffffffffffffffffffffffffff1673ffffffffffffffffffffffffffffffffffffffff168152602001908152602001600020546115a79092919063ffffffff16565b6110ef565b6001905092915050565b600061105661104f6110e7565b84846112e6565b6001905092915050565b6000600160008473ffffffffffffffffffffffffffffffffffffffff1673ffffffffffffffffffffffffffffffffffffffff16815260200190815260200160002060008373ffffffffffffffffffffffffffffffffffffffff1673ffffffffffffffffffffffffffffffffffffffff16815260200190815260200160002054905092915050565b600033905090565b600073ffffffffffffffffffffffffffffffffffffffff168373ffffffffffffffffffffffffffffffffffffffff161415611175576040517f08c379a0000000000000000000000000000000000000000000000000000000008152600401808060200182810382526024815260200180611e466024913960400191505060405180910390fd5b600073ffffffffffffffffffffffffffffffffffffffff168273ffffffffffffffffffffffffffffffffffffffff1614156111fb576040517f08c379a0000000000000000000000000000000000000000000000000000000008152600401808060200182810382526022815260200180611d906022913960400191505060405180910390fd5b80600160008573ffffffffffffffffffffffffffffffffffffffff1673ffffffffffffffffffffffffffffffffffffffff16815260200190815260200160002060008473ffffffffffffffffffffffffffffffffffffffff1673ffffffffffffffffffffffffffffffffffffffff168152602001908152602001600020819055508173ffffffffffffffffffffffffffffffffffffffff168373ffffffffffffffffffffffffffffffffffffffff167f8c5be1e5ebec7d5bd14f71427d1e84f3dd0314c0f7b2291e5b200ac8c7c3b925836040518082815260200191505060405180910390a3505050565b600073ffffffffffffffffffffffffffffffffffffffff168373ffffffffffffffffffffffffffffffffffffffff16141561136c576040517f08c379a0000000000000000000000000000000000000000000000000000000008152600401808060200182810382526025815260200180611e216025913960400191505060405180910390fd5b600073ffffffffffffffffffffffffffffffffffffffff168273ffffffffffffffffffffffffffffffffffffffff1614156113f2576040517f08c379a0000000000000000000000000000000000000000000000000000000008152600401808060200182810382526023815260200180611d4b6023913960400191505060405180910390fd5b6113fd838383611c8d565b61146881604051806060016040528060268152602001611db2602691396000808773ffffffffffffffffffffffffffffffffffffffff1673ffffffffffffffffffffffffffffffffffffffff168152602001908152602001600020546115a79092919063ffffffff16565b6000808573ffffffffffffffffffffffffffffffffffffffff1673ffffffffffffffffffffffffffffffffffffffff168152602001908152602001600020819055506114fb816000808573ffffffffffffffffffffffffffffffffffffffff1673ffffffffffffffffffffffffffffffffffffffff1681526020019081526020016000205461166790919063ffffffff16565b6000808473ffffffffffffffffffffffffffffffffffffffff1673ffffffffffffffffffffffffffffffffffffffff168152602001908152602001600020819055508173ffffffffffffffffffffffffffffffffffffffff168373ffffffffffffffffffffffffffffffffffffffff167fddf252ad1be2c89b69c2b068fc378daa952ba7f163c4a11628f55a4df523b3ef836040518082815260200191505060405180910390a3505050565b6000838311158290611654576040517f08c379a00000000000000000000000000000000000000000000000000000000081526004018080602001828103825283818151815260200191508051906020019080838360005b838110156116195780820151818401526020810190506115fe565b50505050905090810190601f1680156116465780820380516001836020036101000a031916815260200191505b509250505060405180910390fd5b5060008385039050809150509392505050565b6000808284019050838110156116e5576040517f08c379a000000000000000000000000000000000000000000000000000000000815260040180806020018281038252601b8152602001807f536166654d6174683a206164646974696f6e206f766572666c6f77000000000081525060200191505060405180910390fd5b8091505092915050565b600560019054906101000a900460ff16611771576040517f08c379a00000000000000000000000000000000000000000000000000000000081526004018080602001828103825260148152602001807f5061757361626c653a206e6f742070617573656400000000000000000000000081525060200191505060405180910390fd5b6000600560016101000a81548160ff0219169083151502179055507f5db9ee0a495bf2e6ff9c91a7834c1ba4fdd244a5e8aa4e537bd38aeae4b073aa6117b56110e7565b604051808273ffffffffffffffffffffffffffffffffffffffff1673ffffffffffffffffffffffffffffffffffffffff16815260200191505060405180910390a1565b600073ffffffffffffffffffffffffffffffffffffffff168273ffffffffffffffffffffffffffffffffffffffff16141561189b576040517f08c379a000000000000000000000000000000000000000000000000000000000815260040180806020018281038252601f8152602001807f45524332303a206d696e7420746f20746865207a65726f20616464726573730081525060200191505060405180910390fd5b6118a760008383611c8d565b6118bc8160025461166790919063ffffffff16565b600281905550611913816000808573ffffffffffffffffffffffffffffffffffffffff1673ffffffffffffffffffffffffffffffffffffffff1681526020019081526020016000205461166790919063ffffffff16565b6000808473ffffffffffffffffffffffffffffffffffffffff1673ffffffffffffffffffffffffffffffffffffffff168152602001908152602001600020819055508173ffffffffffffffffffffffffffffffffffffffff16600073ffffffffffffffffffffffffffffffffffffffff167fddf252ad1be2c89b69c2b068fc378daa952ba7f163c4a11628f55a4df523b3ef836040518082815260200191505060405180910390a35050565b600560019054906101000a900460ff1615611a42576040517f08c379a00000000000000000000000000000000000000000000000000000000081526004018080602001828103825260108152602001807f5061757361626c653a207061757365640000000000000000000000000000000081525060200191505060405180910390fd5b6001600560016101000a81548160ff0219169083151502179055507f62e78cea01bee320cd4e420270b5ea74000d11b0c9f74754ebdbfc544b05a258611a866110e7565b604051808273ffffffffffffffffffffffffffffffffffffffff1673ffffffffffffffffffffffffffffffffffffffff16815260200191505060405180910390a1565b600073ffffffffffffffffffffffffffffffffffffffff168273ffffffffffffffffffffffffffffffffffffffff161415611b4f576040517f08c379a0000000000000000000000000000000000000000000000000000000008152600401808060200182810382526021815260200180611e006021913960400191505060405180910390fd5b611b5b82600083611c8d565b611bc681604051806060016040528060228152602001611d6e602291396000808673ffffffffffffffffffffffffffffffffffffffff1673ffffffffffffffffffffffffffffffffffffffff168152602001908152602001600020546115a79092919063ffffffff16565b6000808473ffffffffffffffffffffffffffffffffffffffff1673ffffffffffffffffffffffffffffffffffffffff16815260200190815260200160002081905550611c1d81600254611cfb90919063ffffffff16565b600281905550600073ffffffffffffffffffffffffffffffffffffffff168273ffffffffffffffffffffffffffffffffffffffff167fddf252ad1be2c89b69c2b068fc378daa952ba7f163c4a11628f55a4df523b3ef836040518082815260200191505060405180910390a35050565b611c98838383611d45565b611ca0610b0a565b15611cf6576040517f08c379a000000000000000000000000000000000000000000000000000000000815260040180806020018281038252602a815260200180611e8f602a913960400191505060405180910390fd5b505050565b6000611d3d83836040518060400160405280601e81526020017f536166654d6174683a207375627472616374696f6e206f766572666c6f7700008152506115a7565b905092915050565b50505056fe45524332303a207472616e7366657220746f20746865207a65726f206164647265737345524332303a206275726e20616d6f756e7420657863656564732062616c616e636545524332303a20617070726f766520746f20746865207a65726f206164647265737345524332303a207472616e7366657220616d6f756e7420657863656564732062616c616e636545524332303a207472616e7366657220616d6f756e74206578636565647320616c6c6f77616e636545524332303a206275726e2066726f6d20746865207a65726f206164647265737345524332303a207472616e736665722066726f6d20746865207a65726f206164647265737345524332303a20617070726f76652066726f6d20746865207a65726f206164647265737345524332303a2064656372656173656420616c6c6f77616e63652062656c6f77207a65726f45524332305061757361626c653a20746f6b656e207472616e73666572207768696c6520706175736564a264697066735822122096eeed8dce4c19d5487672d3d083d0efa0564167dd93d5d3d5c3c72e49043d3664736f6c63430006060033",
					"opcodes": "PUSH1 0x80 PUSH1 0x40 MSTORE CALLVALUE DUP1 ISZERO PUSH3 0x11 JUMPI PUSH1 0x0 DUP1 REVERT JUMPDEST POP PUSH1 0x40 MLOAD PUSH3 0x22ED CODESIZE SUB DUP1 PUSH3 0x22ED DUP4 CODECOPY DUP2 DUP2 ADD PUSH1 0x40 MSTORE PUSH1 0xA0 DUP2 LT ISZERO PUSH3 0x37 JUMPI PUSH1 0x0 DUP1 REVERT JUMPDEST DUP2 ADD SWAP1 DUP1 DUP1 MLOAD SWAP1 PUSH1 0x20 ADD SWAP1 SWAP3 SWAP2 SWAP1 DUP1 MLOAD SWAP1 PUSH1 0x20 ADD SWAP1 SWAP3 SWAP2 SWAP1 DUP1 MLOAD PUSH1 0x40 MLOAD SWAP4 SWAP3 SWAP2 SWAP1 DUP5 PUSH5 0x100000000 DUP3 GT ISZERO PUSH3 0x6C JUMPI PUSH1 0x0 DUP1 REVERT JUMPDEST DUP4 DUP3 ADD SWAP2 POP PUSH1 0x20 DUP3 ADD DUP6 DUP2 GT ISZERO PUSH3 0x83 JUMPI PUSH1 0x0 DUP1 REVERT JUMPDEST DUP3 MLOAD DUP7 PUSH1 0x1 DUP3 MUL DUP4 ADD GT PUSH5 0x100000000 DUP3 GT OR ISZERO PUSH3 0xA1 JUMPI PUSH1 0x0 DUP1 REVERT JUMPDEST DUP1 DUP4 MSTORE PUSH1 0x20 DUP4 ADD SWAP3 POP POP POP SWAP1 DUP1 MLOAD SWAP1 PUSH1 0x20 ADD SWAP1 DUP1 DUP4 DUP4 PUSH1 0x0 JUMPDEST DUP4 DUP2 LT ISZERO PUSH3 0xD7 JUMPI DUP1 DUP3 ADD MLOAD DUP2 DUP5 ADD MSTORE PUSH1 0x20 DUP2 ADD SWAP1 POP PUSH3 0xBA JUMP JUMPDEST POP POP POP POP SWAP1 POP SWAP1 DUP2 ADD SWAP1 PUSH1 0x1F AND DUP1 ISZERO PUSH3 0x105 JUMPI DUP1 DUP3 SUB DUP1 MLOAD PUSH1 0x1 DUP4 PUSH1 0x20 SUB PUSH2 0x100 EXP SUB NOT AND DUP2 MSTORE PUSH1 0x20 ADD SWAP2 POP JUMPDEST POP PUSH1 0x40 MSTORE PUSH1 0x20 ADD DUP1 MLOAD PUSH1 0x40 MLOAD SWAP4 SWAP3 SWAP2 SWAP1 DUP5 PUSH5 0x100000000 DUP3 GT ISZERO PUSH3 0x129 JUMPI PUSH1 0x0 DUP1 REVERT JUMPDEST DUP4 DUP3 ADD SWAP2 POP PUSH1 0x20 DUP3 ADD DUP6 DUP2 GT ISZERO PUSH3 0x140 JUMPI PUSH1 0x0 DUP1 REVERT JUMPDEST DUP3 MLOAD DUP7 PUSH1 0x1 DUP3 MUL DUP4 ADD GT PUSH5 0x100000000 DUP3 GT OR ISZERO PUSH3 0x15E JUMPI PUSH1 0x0 DUP1 REVERT JUMPDEST DUP1 DUP4 MSTORE PUSH1 0x20 DUP4 ADD SWAP3 POP POP POP SWAP1 DUP1 MLOAD SWAP1 PUSH1 0x20 ADD SWAP1 DUP1 DUP4 DUP4 PUSH1 0x0 JUMPDEST DUP4 DUP2 LT ISZERO PUSH3 0x194 JUMPI DUP1 DUP3 ADD MLOAD DUP2 DUP5 ADD MSTORE PUSH1 0x20 DUP2 ADD SWAP1 POP PUSH3 0x177 JUMP JUMPDEST POP POP POP POP SWAP1 POP SWAP1 DUP2 ADD SWAP1 PUSH1 0x1F AND DUP1 ISZERO PUSH3 0x1C2 JUMPI DUP1 DUP3 SUB DUP1 MLOAD PUSH1 0x1 DUP4 PUSH1 0x20 SUB PUSH2 0x100 EXP SUB NOT AND DUP2 MSTORE PUSH1 0x20 ADD SWAP2 POP JUMPDEST POP PUSH1 0x40 MSTORE PUSH1 0x20 ADD DUP1 MLOAD SWAP1 PUSH1 0x20 ADD SWAP1 SWAP3 SWAP2 SWAP1 POP POP POP DUP3 DUP3 DUP2 PUSH1 0x3 SWAP1 DUP1 MLOAD SWAP1 PUSH1 0x20 ADD SWAP1 PUSH3 0x1F0 SWAP3 SWAP2 SWAP1 PUSH3 0x340 JUMP JUMPDEST POP DUP1 PUSH1 0x4 SWAP1 DUP1 MLOAD SWAP1 PUSH1 0x20 ADD SWAP1 PUSH3 0x209 SWAP3 SWAP2 SWAP1 PUSH3 0x340 JUMP JUMPDEST POP PUSH1 0x12 PUSH1 0x5 PUSH1 0x0 PUSH2 0x100 EXP DUP2 SLOAD DUP2 PUSH1 0xFF MUL NOT AND SWAP1 DUP4 PUSH1 0xFF AND MUL OR SWAP1 SSTORE POP POP POP PUSH1 0x0 PUSH1 0x5 PUSH1 0x1 PUSH2 0x100 EXP DUP2 SLOAD DUP2 PUSH1 0xFF MUL NOT AND SWAP1 DUP4 ISZERO ISZERO MUL OR SWAP1 SSTORE POP DUP5 PUSH1 0x6 PUSH1 0x0 PUSH2 0x100 EXP DUP2 SLOAD DUP2 PUSH20 0xFFFFFFFFFFFFFFFFFFFFFFFFFFFFFFFFFFFFFFFF MUL NOT AND SWAP1 DUP4 PUSH20 0xFFFFFFFFFFFFFFFFFFFFFFFFFFFFFFFFFFFFFFFF AND MUL OR SWAP1 SSTORE POP DUP4 PUSH1 0x7 PUSH1 0x0 PUSH2 0x100 EXP DUP2 SLOAD DUP2 PUSH20 0xFFFFFFFFFFFFFFFFFFFFFFFFFFFFFFFFFFFFFFFF MUL NOT AND SWAP1 DUP4 PUSH20 0xFFFFFFFFFFFFFFFFFFFFFFFFFFFFFFFFFFFFFFFF AND MUL OR SWAP1 SSTORE POP PUSH3 0x2D6 DUP2 PUSH3 0x322 PUSH1 0x20 SHL PUSH1 0x20 SHR JUMP JUMPDEST CALLER PUSH1 0x5 PUSH1 0x2 PUSH2 0x100 EXP DUP2 SLOAD DUP2 PUSH20 0xFFFFFFFFFFFFFFFFFFFFFFFFFFFFFFFFFFFFFFFF MUL NOT AND SWAP1 DUP4 PUSH20 0xFFFFFFFFFFFFFFFFFFFFFFFFFFFFFFFFFFFFFFFF AND MUL OR SWAP1 SSTORE POP POP POP POP POP POP PUSH3 0x3EF JUMP JUMPDEST DUP1 PUSH1 0x5 PUSH1 0x0 PUSH2 0x100 EXP DUP2 SLOAD DUP2 PUSH1 0xFF MUL NOT AND SWAP1 DUP4 PUSH1 0xFF AND MUL OR SWAP1 SSTORE POP POP JUMP JUMPDEST DUP3 DUP1 SLOAD PUSH1 0x1 DUP2 PUSH1 0x1 AND ISZERO PUSH2 0x100 MUL SUB AND PUSH1 0x2 SWAP1 DIV SWAP1 PUSH1 0x0 MSTORE PUSH1 0x20 PUSH1 0x0 KECCAK256 SWAP1 PUSH1 0x1F ADD PUSH1 0x20 SWAP1 DIV DUP2 ADD SWAP3 DUP3 PUSH1 0x1F LT PUSH3 0x383 JUMPI DUP1 MLOAD PUSH1 0xFF NOT AND DUP4 DUP1 ADD OR DUP6 SSTORE PUSH3 0x3B4 JUMP JUMPDEST DUP3 DUP1 ADD PUSH1 0x1 ADD DUP6 SSTORE DUP3 ISZERO PUSH3 0x3B4 JUMPI SWAP2 DUP3 ADD JUMPDEST DUP3 DUP2 GT ISZERO PUSH3 0x3B3 JUMPI DUP3 MLOAD DUP3 SSTORE SWAP2 PUSH1 0x20 ADD SWAP2 SWAP1 PUSH1 0x1 ADD SWAP1 PUSH3 0x396 JUMP JUMPDEST JUMPDEST POP SWAP1 POP PUSH3 0x3C3 SWAP2 SWAP1 PUSH3 0x3C7 JUMP JUMPDEST POP SWAP1 JUMP JUMPDEST PUSH3 0x3EC SWAP2 SWAP1 JUMPDEST DUP1 DUP3 GT ISZERO PUSH3 0x3E8 JUMPI PUSH1 0x0 DUP2 PUSH1 0x0 SWAP1 SSTORE POP PUSH1 0x1 ADD PUSH3 0x3CE JUMP JUMPDEST POP SWAP1 JUMP JUMPDEST SWAP1 JUMP JUMPDEST PUSH2 0x1EEE DUP1 PUSH3 0x3FF PUSH1 0x0 CODECOPY PUSH1 0x0 RETURN INVALID PUSH1 0x80 PUSH1 0x40 MSTORE CALLVALUE DUP1 ISZERO PUSH2 0x10 JUMPI PUSH1 0x0 DUP1 REVERT JUMPDEST POP PUSH1 0x4 CALLDATASIZE LT PUSH2 0x10B JUMPI PUSH1 0x0 CALLDATALOAD PUSH1 0xE0 SHR DUP1 PUSH4 0x5C975ABB GT PUSH2 0xA2 JUMPI DUP1 PUSH4 0x95D89B41 GT PUSH2 0x71 JUMPI DUP1 PUSH4 0x95D89B41 EQ PUSH2 0x467 JUMPI DUP1 PUSH4 0x9DC29FAC EQ PUSH2 0x4EA JUMPI DUP1 PUSH4 0xA457C2D7 EQ PUSH2 0x538 JUMPI DUP1 PUSH4 0xA9059CBB EQ PUSH2 0x59E JUMPI DUP1 PUSH4 0xDD62ED3E EQ PUSH2 0x604 JUMPI PUSH2 0x10B JUMP JUMPDEST DUP1 PUSH4 0x5C975ABB EQ PUSH2 0x37F JUMPI DUP1 PUSH4 0x70A08231 EQ PUSH2 0x3A1 JUMPI DUP1 PUSH4 0x8456CB59 EQ PUSH2 0x3F9 JUMPI DUP1 PUSH4 0x8E50817A EQ PUSH2 0x403 JUMPI PUSH2 0x10B JUMP JUMPDEST DUP1 PUSH4 0x313CE567 GT PUSH2 0xDE JUMPI DUP1 PUSH4 0x313CE567 EQ PUSH2 0x29D JUMPI DUP1 PUSH4 0x39509351 EQ PUSH2 0x2C1 JUMPI DUP1 PUSH4 0x3F4BA83A EQ PUSH2 0x327 JUMPI DUP1 PUSH4 0x40C10F19 EQ PUSH2 0x331 JUMPI PUSH2 0x10B JUMP JUMPDEST DUP1 PUSH4 0x6FDDE03 EQ PUSH2 0x110 JUMPI DUP1 PUSH4 0x95EA7B3 EQ PUSH2 0x193 JUMPI DUP1 PUSH4 0x18160DDD EQ PUSH2 0x1F9 JUMPI DUP1 PUSH4 0x23B872DD EQ PUSH2 0x217 JUMPI JUMPDEST PUSH1 0x0 DUP1 REVERT JUMPDEST PUSH2 0x118 PUSH2 0x67C JUMP JUMPDEST PUSH1 0x40 MLOAD DUP1 DUP1 PUSH1 0x20 ADD DUP3 DUP2 SUB DUP3 MSTORE DUP4 DUP2 DUP2 MLOAD DUP2 MSTORE PUSH1 0x20 ADD SWAP2 POP DUP1 MLOAD SWAP1 PUSH1 0x20 ADD SWAP1 DUP1 DUP4 DUP4 PUSH1 0x0 JUMPDEST DUP4 DUP2 LT ISZERO PUSH2 0x158 JUMPI DUP1 DUP3 ADD MLOAD DUP2 DUP5 ADD MSTORE PUSH1 0x20 DUP2 ADD SWAP1 POP PUSH2 0x13D JUMP JUMPDEST POP POP POP POP SWAP1 POP SWAP1 DUP2 ADD SWAP1 PUSH1 0x1F AND DUP1 ISZERO PUSH2 0x185 JUMPI DUP1 DUP3 SUB DUP1 MLOAD PUSH1 0x1 DUP4 PUSH1 0x20 SUB PUSH2 0x100 EXP SUB NOT AND DUP2 MSTORE PUSH1 0x20 ADD SWAP2 POP JUMPDEST POP SWAP3 POP POP POP PUSH1 0x40 MLOAD DUP1 SWAP2 SUB SWAP1 RETURN JUMPDEST PUSH2 0x1DF PUSH1 0x4 DUP1 CALLDATASIZE SUB PUSH1 0x40 DUP2 LT ISZERO PUSH2 0x1A9 JUMPI PUSH1 0x0 DUP1 REVERT JUMPDEST DUP2 ADD SWAP1 DUP1 DUP1 CALLDATALOAD PUSH20 0xFFFFFFFFFFFFFFFFFFFFFFFFFFFFFFFFFFFFFFFF AND SWAP1 PUSH1 0x20 ADD SWAP1 SWAP3 SWAP2 SWAP1 DUP1 CALLDATALOAD SWAP1 PUSH1 0x20 ADD SWAP1 SWAP3 SWAP2 SWAP1 POP POP POP PUSH2 0x71E JUMP JUMPDEST PUSH1 0x40 MLOAD DUP1 DUP3 ISZERO ISZERO ISZERO ISZERO DUP2 MSTORE PUSH1 0x20 ADD SWAP2 POP POP PUSH1 0x40 MLOAD DUP1 SWAP2 SUB SWAP1 RETURN JUMPDEST PUSH2 0x201 PUSH2 0x73C JUMP JUMPDEST PUSH1 0x40 MLOAD DUP1 DUP3 DUP2 MSTORE PUSH1 0x20 ADD SWAP2 POP POP PUSH1 0x40 MLOAD DUP1 SWAP2 SUB SWAP1 RETURN JUMPDEST PUSH2 0x283 PUSH1 0x4 DUP1 CALLDATASIZE SUB PUSH1 0x60 DUP2 LT ISZERO PUSH2 0x22D JUMPI PUSH1 0x0 DUP1 REVERT JUMPDEST DUP2 ADD SWAP1 DUP1 DUP1 CALLDATALOAD PUSH20 0xFFFFFFFFFFFFFFFFFFFFFFFFFFFFFFFFFFFFFFFF AND SWAP1 PUSH1 0x20 ADD SWAP1 SWAP3 SWAP2 SWAP1 DUP1 CALLDATALOAD PUSH20 0xFFFFFFFFFFFFFFFFFFFFFFFFFFFFFFFFFFFFFFFF AND SWAP1 PUSH1 0x20 ADD SWAP1 SWAP3 SWAP2 SWAP1 DUP1 CALLDATALOAD SWAP1 PUSH1 0x20 ADD SWAP1 SWAP3 SWAP2 SWAP1 POP POP POP PUSH2 0x746 JUMP JUMPDEST PUSH1 0x40 MLOAD DUP1 DUP3 ISZERO ISZERO ISZERO ISZERO DUP2 MSTORE PUSH1 0x20 ADD SWAP2 POP POP PUSH1 0x40 MLOAD DUP1 SWAP2 SUB SWAP1 RETURN JUMPDEST PUSH2 0x2A5 PUSH2 0x81F JUMP JUMPDEST PUSH1 0x40 MLOAD DUP1 DUP3 PUSH1 0xFF AND PUSH1 0xFF AND DUP2 MSTORE PUSH1 0x20 ADD SWAP2 POP POP PUSH1 0x40 MLOAD DUP1 SWAP2 SUB SWAP1 RETURN JUMPDEST PUSH2 0x30D PUSH1 0x4 DUP1 CALLDATASIZE SUB PUSH1 0x40 DUP2 LT ISZERO PUSH2 0x2D7 JUMPI PUSH1 0x0 DUP1 REVERT JUMPDEST DUP2 ADD SWAP1 DUP1 DUP1 CALLDATALOAD PUSH20 0xFFFFFFFFFFFFFFFFFFFFFFFFFFFFFFFFFFFFFFFF AND SWAP1 PUSH1 0x20 ADD SWAP1 SWAP3 SWAP2 SWAP1 DUP1 CALLDATALOAD SWAP1 PUSH1 0x20 ADD SWAP1 SWAP3 SWAP2 SWAP1 POP POP POP PUSH2 0x836 JUMP JUMPDEST PUSH1 0x40 MLOAD DUP1 DUP3 ISZERO ISZERO ISZERO ISZERO DUP2 MSTORE PUSH1 0x20 ADD SWAP2 POP POP PUSH1 0x40 MLOAD DUP1 SWAP2 SUB SWAP1 RETURN JUMPDEST PUSH2 0x32F PUSH2 0x8E9 JUMP JUMPDEST STOP JUMPDEST PUSH2 0x37D PUSH1 0x4 DUP1 CALLDATASIZE SUB PUSH1 0x40 DUP2 LT ISZERO PUSH2 0x347 JUMPI PUSH1 0x0 DUP1 REVERT JUMPDEST DUP2 ADD SWAP1 DUP1 DUP1 CALLDATALOAD PUSH20 0xFFFFFFFFFFFFFFFFFFFFFFFFFFFFFFFFFFFFFFFF AND SWAP1 PUSH1 0x20 ADD SWAP1 SWAP3 SWAP2 SWAP1 DUP1 CALLDATALOAD SWAP1 PUSH1 0x20 ADD SWAP1 SWAP3 SWAP2 SWAP1 POP POP POP PUSH2 0x9B6 JUMP JUMPDEST STOP JUMPDEST PUSH2 0x387 PUSH2 0xB0A JUMP JUMPDEST PUSH1 0x40 MLOAD DUP1 DUP3 ISZERO ISZERO ISZERO ISZERO DUP2 MSTORE PUSH1 0x20 ADD SWAP2 POP POP PUSH1 0x40 MLOAD DUP1 SWAP2 SUB SWAP1 RETURN JUMPDEST PUSH2 0x3E3 PUSH1 0x4 DUP1 CALLDATASIZE SUB PUSH1 0x20 DUP2 LT ISZERO PUSH2 0x3B7 JUMPI PUSH1 0x0 DUP1 REVERT JUMPDEST DUP2 ADD SWAP1 DUP1 DUP1 CALLDATALOAD PUSH20 0xFFFFFFFFFFFFFFFFFFFFFFFFFFFFFFFFFFFFFFFF AND SWAP1 PUSH1 0x20 ADD SWAP1 SWAP3 SWAP2 SWAP1 POP POP POP PUSH2 0xB21 JUMP JUMPDEST PUSH1 0x40 MLOAD DUP1 DUP3 DUP2 MSTORE PUSH1 0x20 ADD SWAP2 POP POP PUSH1 0x40 MLOAD DUP1 SWAP2 SUB SWAP1 RETURN JUMPDEST PUSH2 0x401 PUSH2 0xB69 JUMP JUMPDEST STOP JUMPDEST PUSH2 0x465 PUSH1 0x4 DUP1 CALLDATASIZE SUB PUSH1 0x40 DUP2 LT ISZERO PUSH2 0x419 JUMPI PUSH1 0x0 DUP1 REVERT JUMPDEST DUP2 ADD SWAP1 DUP1 DUP1 CALLDATALOAD PUSH20 0xFFFFFFFFFFFFFFFFFFFFFFFFFFFFFFFFFFFFFFFF AND SWAP1 PUSH1 0x20 ADD SWAP1 SWAP3 SWAP2 SWAP1 DUP1 CALLDATALOAD PUSH20 0xFFFFFFFFFFFFFFFFFFFFFFFFFFFFFFFFFFFFFFFF AND SWAP1 PUSH1 0x20 ADD SWAP1 SWAP3 SWAP2 SWAP1 POP POP POP PUSH2 0xC36 JUMP JUMPDEST STOP JUMPDEST PUSH2 0x46F PUSH2 0xD7F JUMP JUMPDEST PUSH1 0x40 MLOAD DUP1 DUP1 PUSH1 0x20 ADD DUP3 DUP2 SUB DUP3 MSTORE DUP4 DUP2 DUP2 MLOAD DUP2 MSTORE PUSH1 0x20 ADD SWAP2 POP DUP1 MLOAD SWAP1 PUSH1 0x20 ADD SWAP1 DUP1 DUP4 DUP4 PUSH1 0x0 JUMPDEST DUP4 DUP2 LT ISZERO PUSH2 0x4AF JUMPI DUP1 DUP3 ADD MLOAD DUP2 DUP5 ADD MSTORE PUSH1 0x20 DUP2 ADD SWAP1 POP PUSH2 0x494 JUMP JUMPDEST POP POP POP POP SWAP1 POP SWAP1 DUP2 ADD SWAP1 PUSH1 0x1F AND DUP1 ISZERO PUSH2 0x4DC JUMPI DUP1 DUP3 SUB DUP1 MLOAD PUSH1 0x1 DUP4 PUSH1 0x20 SUB PUSH2 0x100 EXP SUB NOT AND DUP2 MSTORE PUSH1 0x20 ADD SWAP2 POP JUMPDEST POP SWAP3 POP POP POP PUSH1 0x40 MLOAD DUP1 SWAP2 SUB SWAP1 RETURN JUMPDEST PUSH2 0x536 PUSH1 0x4 DUP1 CALLDATASIZE SUB PUSH1 0x40 DUP2 LT ISZERO PUSH2 0x500 JUMPI PUSH1 0x0 DUP1 REVERT JUMPDEST DUP2 ADD SWAP1 DUP1 DUP1 CALLDATALOAD PUSH20 0xFFFFFFFFFFFFFFFFFFFFFFFFFFFFFFFFFFFFFFFF AND SWAP1 PUSH1 0x20 ADD SWAP1 SWAP3 SWAP2 SWAP1 DUP1 CALLDATALOAD SWAP1 PUSH1 0x20 ADD SWAP1 SWAP3 SWAP2 SWAP1 POP POP POP PUSH2 0xE21 JUMP JUMPDEST STOP JUMPDEST PUSH2 0x584 PUSH1 0x4 DUP1 CALLDATASIZE SUB PUSH1 0x40 DUP2 LT ISZERO PUSH2 0x54E JUMPI PUSH1 0x0 DUP1 REVERT JUMPDEST DUP2 ADD SWAP1 DUP1 DUP1 CALLDATALOAD PUSH20 0xFFFFFFFFFFFFFFFFFFFFFFFFFFFFFFFFFFFFFFFF AND SWAP1 PUSH1 0x20 ADD SWAP1 SWAP3 SWAP2 SWAP1 DUP1 CALLDATALOAD SWAP1 PUSH1 0x20 ADD SWAP1 SWAP3 SWAP2 SWAP1 POP POP POP PUSH2 0xF75 JUMP JUMPDEST PUSH1 0x40 MLOAD DUP1 DUP3 ISZERO ISZERO ISZERO ISZERO DUP2 MSTORE PUSH1 0x20 ADD SWAP2 POP POP PUSH1 0x40 MLOAD DUP1 SWAP2 SUB SWAP1 RETURN JUMPDEST PUSH2 0x5EA PUSH1 0x4 DUP1 CALLDATASIZE SUB PUSH1 0x40 DUP2 LT ISZERO PUSH2 0x5B4 JUMPI PUSH1 0x0 DUP1 REVERT JUMPDEST DUP2 ADD SWAP1 DUP1 DUP1 CALLDATALOAD PUSH20 0xFFFFFFFFFFFFFFFFFFFFFFFFFFFFFFFFFFFFFFFF AND SWAP1 PUSH1 0x20 ADD SWAP1 SWAP3 SWAP2 SWAP1 DUP1 CALLDATALOAD SWAP1 PUSH1 0x20 ADD SWAP1 SWAP3 SWAP2 SWAP1 POP POP POP PUSH2 0x1042 JUMP JUMPDEST PUSH1 0x40 MLOAD DUP1 DUP3 ISZERO ISZERO ISZERO ISZERO DUP2 MSTORE PUSH1 0x20 ADD SWAP2 POP POP PUSH1 0x40 MLOAD DUP1 SWAP2 SUB SWAP1 RETURN JUMPDEST PUSH2 0x666 PUSH1 0x4 DUP1 CALLDATASIZE SUB PUSH1 0x40 DUP2 LT ISZERO PUSH2 0x61A JUMPI PUSH1 0x0 DUP1 REVERT JUMPDEST DUP2 ADD SWAP1 DUP1 DUP1 CALLDATALOAD PUSH20 0xFFFFFFFFFFFFFFFFFFFFFFFFFFFFFFFFFFFFFFFF AND SWAP1 PUSH1 0x20 ADD SWAP1 SWAP3 SWAP2 SWAP1 DUP1 CALLDATALOAD PUSH20 0xFFFFFFFFFFFFFFFFFFFFFFFFFFFFFFFFFFFFFFFF AND SWAP1 PUSH1 0x20 ADD SWAP1 SWAP3 SWAP2 SWAP1 POP POP POP PUSH2 0x1060 JUMP JUMPDEST PUSH1 0x40 MLOAD DUP1 DUP3 DUP2 MSTORE PUSH1 0x20 ADD SWAP2 POP POP PUSH1 0x40 MLOAD DUP1 SWAP2 SUB SWAP1 RETURN JUMPDEST PUSH1 0x60 PUSH1 0x3 DUP1 SLOAD PUSH1 0x1 DUP2 PUSH1 0x1 AND ISZERO PUSH2 0x100 MUL SUB AND PUSH1 0x2 SWAP1 DIV DUP1 PUSH1 0x1F ADD PUSH1 0x20 DUP1 SWAP2 DIV MUL PUSH1 0x20 ADD PUSH1 0x40 MLOAD SWAP1 DUP2 ADD PUSH1 0x40 MSTORE DUP1 SWAP3 SWAP2 SWAP1 DUP2 DUP2 MSTORE PUSH1 0x20 ADD DUP3 DUP1 SLOAD PUSH1 0x1 DUP2 PUSH1 0x1 AND ISZERO PUSH2 0x100 MUL SUB AND PUSH1 0x2 SWAP1 DIV DUP1 ISZERO PUSH2 0x714 JUMPI DUP1 PUSH1 0x1F LT PUSH2 0x6E9 JUMPI PUSH2 0x100 DUP1 DUP4 SLOAD DIV MUL DUP4 MSTORE SWAP2 PUSH1 0x20 ADD SWAP2 PUSH2 0x714 JUMP JUMPDEST DUP3 ADD SWAP2 SWAP1 PUSH1 0x0 MSTORE PUSH1 0x20 PUSH1 0x0 KECCAK256 SWAP1 JUMPDEST DUP2 SLOAD DUP2 MSTORE SWAP1 PUSH1 0x1 ADD SWAP1 PUSH1 0x20 ADD DUP1 DUP4 GT PUSH2 0x6F7 JUMPI DUP3 SWAP1 SUB PUSH1 0x1F AND DUP3 ADD SWAP2 JUMPDEST POP POP POP POP POP SWAP1 POP SWAP1 JUMP JUMPDEST PUSH1 0x0 PUSH2 0x732 PUSH2 0x72B PUSH2 0x10E7 JUMP JUMPDEST DUP5 DUP5 PUSH2 0x10EF JUMP JUMPDEST PUSH1 0x1 SWAP1 POP SWAP3 SWAP2 POP POP JUMP JUMPDEST PUSH1 0x0 PUSH1 0x2 SLOAD SWAP1 POP SWAP1 JUMP JUMPDEST PUSH1 0x0 PUSH2 0x753 DUP5 DUP5 DUP5 PUSH2 0x12E6 JUMP JUMPDEST PUSH2 0x814 DUP5 PUSH2 0x75F PUSH2 0x10E7 JUMP JUMPDEST PUSH2 0x80F DUP6 PUSH1 0x40 MLOAD DUP1 PUSH1 0x60 ADD PUSH1 0x40 MSTORE DUP1 PUSH1 0x28 DUP2 MSTORE PUSH1 0x20 ADD PUSH2 0x1DD8 PUSH1 0x28 SWAP2 CODECOPY PUSH1 0x1 PUSH1 0x0 DUP12 PUSH20 0xFFFFFFFFFFFFFFFFFFFFFFFFFFFFFFFFFFFFFFFF AND PUSH20 0xFFFFFFFFFFFFFFFFFFFFFFFFFFFFFFFFFFFFFFFF AND DUP2 MSTORE PUSH1 0x20 ADD SWAP1 DUP2 MSTORE PUSH1 0x20 ADD PUSH1 0x0 KECCAK256 PUSH1 0x0 PUSH2 0x7C5 PUSH2 0x10E7 JUMP JUMPDEST PUSH20 0xFFFFFFFFFFFFFFFFFFFFFFFFFFFFFFFFFFFFFFFF AND PUSH20 0xFFFFFFFFFFFFFFFFFFFFFFFFFFFFFFFFFFFFFFFF AND DUP2 MSTORE PUSH1 0x20 ADD SWAP1 DUP2 MSTORE PUSH1 0x20 ADD PUSH1 0x0 KECCAK256 SLOAD PUSH2 0x15A7 SWAP1 SWAP3 SWAP2 SWAP1 PUSH4 0xFFFFFFFF AND JUMP JUMPDEST PUSH2 0x10EF JUMP JUMPDEST PUSH1 0x1 SWAP1 POP SWAP4 SWAP3 POP POP POP JUMP JUMPDEST PUSH1 0x0 PUSH1 0x5 PUSH1 0x0 SWAP1 SLOAD SWAP1 PUSH2 0x100 EXP SWAP1 DIV PUSH1 0xFF AND SWAP1 POP SWAP1 JUMP JUMPDEST PUSH1 0x0 PUSH2 0x8DF PUSH2 0x843 PUSH2 0x10E7 JUMP JUMPDEST DUP5 PUSH2 0x8DA DUP6 PUSH1 0x1 PUSH1 0x0 PUSH2 0x854 PUSH2 0x10E7 JUMP JUMPDEST PUSH20 0xFFFFFFFFFFFFFFFFFFFFFFFFFFFFFFFFFFFFFFFF AND PUSH20 0xFFFFFFFFFFFFFFFFFFFFFFFFFFFFFFFFFFFFFFFF AND DUP2 MSTORE PUSH1 0x20 ADD SWAP1 DUP2 MSTORE PUSH1 0x20 ADD PUSH1 0x0 KECCAK256 PUSH1 0x0 DUP10 PUSH20 0xFFFFFFFFFFFFFFFFFFFFFFFFFFFFFFFFFFFFFFFF AND PUSH20 0xFFFFFFFFFFFFFFFFFFFFFFFFFFFFFFFFFFFFFFFF AND DUP2 MSTORE PUSH1 0x20 ADD SWAP1 DUP2 MSTORE PUSH1 0x20 ADD PUSH1 0x0 KECCAK256 SLOAD PUSH2 0x1667 SWAP1 SWAP2 SWAP1 PUSH4 0xFFFFFFFF AND JUMP JUMPDEST PUSH2 0x10EF JUMP JUMPDEST PUSH1 0x1 SWAP1 POP SWAP3 SWAP2 POP POP JUMP JUMPDEST PUSH1 0x7 PUSH1 0x0 SWAP1 SLOAD SWAP1 PUSH2 0x100 EXP SWAP1 DIV PUSH20 0xFFFFFFFFFFFFFFFFFFFFFFFFFFFFFFFFFFFFFFFF AND PUSH20 0xFFFFFFFFFFFFFFFFFFFFFFFFFFFFFFFFFFFFFFFF AND CALLER PUSH20 0xFFFFFFFFFFFFFFFFFFFFFFFFFFFFFFFFFFFFFFFF AND EQ PUSH2 0x9AC JUMPI PUSH1 0x40 MLOAD PUSH32 0x8C379A000000000000000000000000000000000000000000000000000000000 DUP2 MSTORE PUSH1 0x4 ADD DUP1 DUP1 PUSH1 0x20 ADD DUP3 DUP2 SUB DUP3 MSTORE PUSH1 0xB DUP2 MSTORE PUSH1 0x20 ADD DUP1 PUSH32 0x6E6F7420616C6C6F776564000000000000000000000000000000000000000000 DUP2 MSTORE POP PUSH1 0x20 ADD SWAP2 POP POP PUSH1 0x40 MLOAD DUP1 SWAP2 SUB SWAP1 REVERT JUMPDEST PUSH2 0x9B4 PUSH2 0x16EF JUMP JUMPDEST JUMP JUMPDEST PUSH1 0x5 PUSH1 0x1 SWAP1 SLOAD SWAP1 PUSH2 0x100 EXP SWAP1 DIV PUSH1 0xFF AND ISZERO PUSH2 0xA39 JUMPI PUSH1 0x40 MLOAD PUSH32 0x8C379A000000000000000000000000000000000000000000000000000000000 DUP2 MSTORE PUSH1 0x4 ADD DUP1 DUP1 PUSH1 0x20 ADD DUP3 DUP2 SUB DUP3 MSTORE PUSH1 0x10 DUP2 MSTORE PUSH1 0x20 ADD DUP1 PUSH32 0x5061757361626C653A2070617573656400000000000000000000000000000000 DUP2 MSTORE POP PUSH1 0x20 ADD SWAP2 POP POP PUSH1 0x40 MLOAD DUP1 SWAP2 SUB SWAP1 REVERT JUMPDEST PUSH1 0x6 PUSH1 0x0 SWAP1 SLOAD SWAP1 PUSH2 0x100 EXP SWAP1 DIV PUSH20 0xFFFFFFFFFFFFFFFFFFFFFFFFFFFFFFFFFFFFFFFF AND PUSH20 0xFFFFFFFFFFFFFFFFFFFFFFFFFFFFFFFFFFFFFFFF AND CALLER PUSH20 0xFFFFFFFFFFFFFFFFFFFFFFFFFFFFFFFFFFFFFFFF AND EQ PUSH2 0xAFC JUMPI PUSH1 0x40 MLOAD PUSH32 0x8C379A000000000000000000000000000000000000000000000000000000000 DUP2 MSTORE PUSH1 0x4 ADD DUP1 DUP1 PUSH1 0x20 ADD DUP3 DUP2 SUB DUP3 MSTORE PUSH1 0xB DUP2 MSTORE PUSH1 0x20 ADD DUP1 PUSH32 0x6E6F7420616C6C6F776564000000000000000000000000000000000000000000 DUP2 MSTORE POP PUSH1 0x20 ADD SWAP2 POP POP PUSH1 0x40 MLOAD DUP1 SWAP2 SUB SWAP1 REVERT JUMPDEST PUSH2 0xB06 DUP3 DUP3 PUSH2 0x17F8 JUMP JUMPDEST POP POP JUMP JUMPDEST PUSH1 0x0 PUSH1 0x5 PUSH1 0x1 SWAP1 SLOAD SWAP1 PUSH2 0x100 EXP SWAP1 DIV PUSH1 0xFF AND SWAP1 POP SWAP1 JUMP JUMPDEST PUSH1 0x0 DUP1 PUSH1 0x0 DUP4 PUSH20 0xFFFFFFFFFFFFFFFFFFFFFFFFFFFFFFFFFFFFFFFF AND PUSH20 0xFFFFFFFFFFFFFFFFFFFFFFFFFFFFFFFFFFFFFFFF AND DUP2 MSTORE PUSH1 0x20 ADD SWAP1 DUP2 MSTORE PUSH1 0x20 ADD PUSH1 0x0 KECCAK256 SLOAD SWAP1 POP SWAP2 SWAP1 POP JUMP JUMPDEST PUSH1 0x7 PUSH1 0x0 SWAP1 SLOAD SWAP1 PUSH2 0x100 EXP SWAP1 DIV PUSH20 0xFFFFFFFFFFFFFFFFFFFFFFFFFFFFFFFFFFFFFFFF AND PUSH20 0xFFFFFFFFFFFFFFFFFFFFFFFFFFFFFFFFFFFFFFFF AND CALLER PUSH20 0xFFFFFFFFFFFFFFFFFFFFFFFFFFFFFFFFFFFFFFFF AND EQ PUSH2 0xC2C JUMPI PUSH1 0x40 MLOAD PUSH32 0x8C379A000000000000000000000000000000000000000000000000000000000 DUP2 MSTORE PUSH1 0x4 ADD DUP1 DUP1 PUSH1 0x20 ADD DUP3 DUP2 SUB DUP3 MSTORE PUSH1 0xB DUP2 MSTORE PUSH1 0x20 ADD DUP1 PUSH32 0x6E6F7420616C6C6F776564000000000000000000000000000000000000000000 DUP2 MSTORE POP PUSH1 0x20 ADD SWAP2 POP POP PUSH1 0x40 MLOAD DUP1 SWAP2 SUB SWAP1 REVERT JUMPDEST PUSH2 0xC34 PUSH2 0x19BF JUMP JUMPDEST JUMP JUMPDEST PUSH1 0x5 PUSH1 0x2 SWAP1 SLOAD SWAP1 PUSH2 0x100 EXP SWAP1 DIV PUSH20 0xFFFFFFFFFFFFFFFFFFFFFFFFFFFFFFFFFFFFFFFF AND PUSH20 0xFFFFFFFFFFFFFFFFFFFFFFFFFFFFFFFFFFFFFFFF AND CALLER PUSH20 0xFFFFFFFFFFFFFFFFFFFFFFFFFFFFFFFFFFFFFFFF AND EQ PUSH2 0xCF9 JUMPI PUSH1 0x40 MLOAD PUSH32 0x8C379A000000000000000000000000000000000000000000000000000000000 DUP2 MSTORE PUSH1 0x4 ADD DUP1 DUP1 PUSH1 0x20 ADD DUP3 DUP2 SUB DUP3 MSTORE PUSH1 0xC DUP2 MSTORE PUSH1 0x20 ADD DUP1 PUSH32 0x6F6E6C7920466163746F72790000000000000000000000000000000000000000 DUP2 MSTORE POP PUSH1 0x20 ADD SWAP2 POP POP PUSH1 0x40 MLOAD DUP1 SWAP2 SUB SWAP1 REVERT JUMPDEST DUP1 PUSH1 0x7 PUSH1 0x0 PUSH2 0x100 EXP DUP2 SLOAD DUP2 PUSH20 0xFFFFFFFFFFFFFFFFFFFFFFFFFFFFFFFFFFFFFFFF MUL NOT AND SWAP1 DUP4 PUSH20 0xFFFFFFFFFFFFFFFFFFFFFFFFFFFFFFFFFFFFFFFF AND MUL OR SWAP1 SSTORE POP DUP2 PUSH1 0x6 PUSH1 0x0 PUSH2 0x100 EXP DUP2 SLOAD DUP2 PUSH20 0xFFFFFFFFFFFFFFFFFFFFFFFFFFFFFFFFFFFFFFFF MUL NOT AND SWAP1 DUP4 PUSH20 0xFFFFFFFFFFFFFFFFFFFFFFFFFFFFFFFFFFFFFFFF AND MUL OR SWAP1 SSTORE POP POP POP JUMP JUMPDEST PUSH1 0x60 PUSH1 0x4 DUP1 SLOAD PUSH1 0x1 DUP2 PUSH1 0x1 AND ISZERO PUSH2 0x100 MUL SUB AND PUSH1 0x2 SWAP1 DIV DUP1 PUSH1 0x1F ADD PUSH1 0x20 DUP1 SWAP2 DIV MUL PUSH1 0x20 ADD PUSH1 0x40 MLOAD SWAP1 DUP2 ADD PUSH1 0x40 MSTORE DUP1 SWAP3 SWAP2 SWAP1 DUP2 DUP2 MSTORE PUSH1 0x20 ADD DUP3 DUP1 SLOAD PUSH1 0x1 DUP2 PUSH1 0x1 AND ISZERO PUSH2 0x100 MUL SUB AND PUSH1 0x2 SWAP1 DIV DUP1 ISZERO PUSH2 0xE17 JUMPI DUP1 PUSH1 0x1F LT PUSH2 0xDEC JUMPI PUSH2 0x100 DUP1 DUP4 SLOAD DIV MUL DUP4 MSTORE SWAP2 PUSH1 0x20 ADD SWAP2 PUSH2 0xE17 JUMP JUMPDEST DUP3 ADD SWAP2 SWAP1 PUSH1 0x0 MSTORE PUSH1 0x20 PUSH1 0x0 KECCAK256 SWAP1 JUMPDEST DUP2 SLOAD DUP2 MSTORE SWAP1 PUSH1 0x1 ADD SWAP1 PUSH1 0x20 ADD DUP1 DUP4 GT PUSH2 0xDFA JUMPI DUP3 SWAP1 SUB PUSH1 0x1F AND DUP3 ADD SWAP2 JUMPDEST POP POP POP POP POP SWAP1 POP SWAP1 JUMP JUMPDEST PUSH1 0x5 PUSH1 0x1 SWAP1 SLOAD SWAP1 PUSH2 0x100 EXP SWAP1 DIV PUSH1 0xFF AND ISZERO PUSH2 0xEA4 JUMPI PUSH1 0x40 MLOAD PUSH32 0x8C379A000000000000000000000000000000000000000000000000000000000 DUP2 MSTORE PUSH1 0x4 ADD DUP1 DUP1 PUSH1 0x20 ADD DUP3 DUP2 SUB DUP3 MSTORE PUSH1 0x10 DUP2 MSTORE PUSH1 0x20 ADD DUP1 PUSH32 0x5061757361626C653A2070617573656400000000000000000000000000000000 DUP2 MSTORE POP PUSH1 0x20 ADD SWAP2 POP POP PUSH1 0x40 MLOAD DUP1 SWAP2 SUB SWAP1 REVERT JUMPDEST PUSH1 0x6 PUSH1 0x0 SWAP1 SLOAD SWAP1 PUSH2 0x100 EXP SWAP1 DIV PUSH20 0xFFFFFFFFFFFFFFFFFFFFFFFFFFFFFFFFFFFFFFFF AND PUSH20 0xFFFFFFFFFFFFFFFFFFFFFFFFFFFFFFFFFFFFFFFF AND CALLER PUSH20 0xFFFFFFFFFFFFFFFFFFFFFFFFFFFFFFFFFFFFFFFF AND EQ PUSH2 0xF67 JUMPI PUSH1 0x40 MLOAD PUSH32 0x8C379A000000000000000000000000000000000000000000000000000000000 DUP2 MSTORE PUSH1 0x4 ADD DUP1 DUP1 PUSH1 0x20 ADD DUP3 DUP2 SUB DUP3 MSTORE PUSH1 0xB DUP2 MSTORE PUSH1 0x20 ADD DUP1 PUSH32 0x6E6F7420616C6C6F776564000000000000000000000000000000000000000000 DUP2 MSTORE POP PUSH1 0x20 ADD SWAP2 POP POP PUSH1 0x40 MLOAD DUP1 SWAP2 SUB SWAP1 REVERT JUMPDEST PUSH2 0xF71 DUP3 DUP3 PUSH2 0x1AC9 JUMP JUMPDEST POP POP JUMP JUMPDEST PUSH1 0x0 PUSH2 0x1038 PUSH2 0xF82 PUSH2 0x10E7 JUMP JUMPDEST DUP5 PUSH2 0x1033 DUP6 PUSH1 0x40 MLOAD DUP1 PUSH1 0x60 ADD PUSH1 0x40 MSTORE DUP1 PUSH1 0x25 DUP2 MSTORE PUSH1 0x20 ADD PUSH2 0x1E6A PUSH1 0x25 SWAP2 CODECOPY PUSH1 0x1 PUSH1 0x0 PUSH2 0xFAC PUSH2 0x10E7 JUMP JUMPDEST PUSH20 0xFFFFFFFFFFFFFFFFFFFFFFFFFFFFFFFFFFFFFFFF AND PUSH20 0xFFFFFFFFFFFFFFFFFFFFFFFFFFFFFFFFFFFFFFFF AND DUP2 MSTORE PUSH1 0x20 ADD SWAP1 DUP2 MSTORE PUSH1 0x20 ADD PUSH1 0x0 KECCAK256 PUSH1 0x0 DUP11 PUSH20 0xFFFFFFFFFFFFFFFFFFFFFFFFFFFFFFFFFFFFFFFF AND PUSH20 0xFFFFFFFFFFFFFFFFFFFFFFFFFFFFFFFFFFFFFFFF AND DUP2 MSTORE PUSH1 0x20 ADD SWAP1 DUP2 MSTORE PUSH1 0x20 ADD PUSH1 0x0 KECCAK256 SLOAD PUSH2 0x15A7 SWAP1 SWAP3 SWAP2 SWAP1 PUSH4 0xFFFFFFFF AND JUMP JUMPDEST PUSH2 0x10EF JUMP JUMPDEST PUSH1 0x1 SWAP1 POP SWAP3 SWAP2 POP POP JUMP JUMPDEST PUSH1 0x0 PUSH2 0x1056 PUSH2 0x104F PUSH2 0x10E7 JUMP JUMPDEST DUP5 DUP5 PUSH2 0x12E6 JUMP JUMPDEST PUSH1 0x1 SWAP1 POP SWAP3 SWAP2 POP POP JUMP JUMPDEST PUSH1 0x0 PUSH1 0x1 PUSH1 0x0 DUP5 PUSH20 0xFFFFFFFFFFFFFFFFFFFFFFFFFFFFFFFFFFFFFFFF AND PUSH20 0xFFFFFFFFFFFFFFFFFFFFFFFFFFFFFFFFFFFFFFFF AND DUP2 MSTORE PUSH1 0x20 ADD SWAP1 DUP2 MSTORE PUSH1 0x20 ADD PUSH1 0x0 KECCAK256 PUSH1 0x0 DUP4 PUSH20 0xFFFFFFFFFFFFFFFFFFFFFFFFFFFFFFFFFFFFFFFF AND PUSH20 0xFFFFFFFFFFFFFFFFFFFFFFFFFFFFFFFFFFFFFFFF AND DUP2 MSTORE PUSH1 0x20 ADD SWAP1 DUP2 MSTORE PUSH1 0x20 ADD PUSH1 0x0 KECCAK256 SLOAD SWAP1 POP SWAP3 SWAP2 POP POP JUMP JUMPDEST PUSH1 0x0 CALLER SWAP1 POP SWAP1 JUMP JUMPDEST PUSH1 0x0 PUSH20 0xFFFFFFFFFFFFFFFFFFFFFFFFFFFFFFFFFFFFFFFF AND DUP4 PUSH20 0xFFFFFFFFFFFFFFFFFFFFFFFFFFFFFFFFFFFFFFFF AND EQ ISZERO PUSH2 0x1175 JUMPI PUSH1 0x40 MLOAD PUSH32 0x8C379A000000000000000000000000000000000000000000000000000000000 DUP2 MSTORE PUSH1 0x4 ADD DUP1 DUP1 PUSH1 0x20 ADD DUP3 DUP2 SUB DUP3 MSTORE PUSH1 0x24 DUP2 MSTORE PUSH1 0x20 ADD DUP1 PUSH2 0x1E46 PUSH1 0x24 SWAP2 CODECOPY PUSH1 0x40 ADD SWAP2 POP POP PUSH1 0x40 MLOAD DUP1 SWAP2 SUB SWAP1 REVERT JUMPDEST PUSH1 0x0 PUSH20 0xFFFFFFFFFFFFFFFFFFFFFFFFFFFFFFFFFFFFFFFF AND DUP3 PUSH20 0xFFFFFFFFFFFFFFFFFFFFFFFFFFFFFFFFFFFFFFFF AND EQ ISZERO PUSH2 0x11FB JUMPI PUSH1 0x40 MLOAD PUSH32 0x8C379A000000000000000000000000000000000000000000000000000000000 DUP2 MSTORE PUSH1 0x4 ADD DUP1 DUP1 PUSH1 0x20 ADD DUP3 DUP2 SUB DUP3 MSTORE PUSH1 0x22 DUP2 MSTORE PUSH1 0x20 ADD DUP1 PUSH2 0x1D90 PUSH1 0x22 SWAP2 CODECOPY PUSH1 0x40 ADD SWAP2 POP POP PUSH1 0x40 MLOAD DUP1 SWAP2 SUB SWAP1 REVERT JUMPDEST DUP1 PUSH1 0x1 PUSH1 0x0 DUP6 PUSH20 0xFFFFFFFFFFFFFFFFFFFFFFFFFFFFFFFFFFFFFFFF AND PUSH20 0xFFFFFFFFFFFFFFFFFFFFFFFFFFFFFFFFFFFFFFFF AND DUP2 MSTORE PUSH1 0x20 ADD SWAP1 DUP2 MSTORE PUSH1 0x20 ADD PUSH1 0x0 KECCAK256 PUSH1 0x0 DUP5 PUSH20 0xFFFFFFFFFFFFFFFFFFFFFFFFFFFFFFFFFFFFFFFF AND PUSH20 0xFFFFFFFFFFFFFFFFFFFFFFFFFFFFFFFFFFFFFFFF AND DUP2 MSTORE PUSH1 0x20 ADD SWAP1 DUP2 MSTORE PUSH1 0x20 ADD PUSH1 0x0 KECCAK256 DUP2 SWAP1 SSTORE POP DUP2 PUSH20 0xFFFFFFFFFFFFFFFFFFFFFFFFFFFFFFFFFFFFFFFF AND DUP4 PUSH20 0xFFFFFFFFFFFFFFFFFFFFFFFFFFFFFFFFFFFFFFFF AND PUSH32 0x8C5BE1E5EBEC7D5BD14F71427D1E84F3DD0314C0F7B2291E5B200AC8C7C3B925 DUP4 PUSH1 0x40 MLOAD DUP1 DUP3 DUP2 MSTORE PUSH1 0x20 ADD SWAP2 POP POP PUSH1 0x40 MLOAD DUP1 SWAP2 SUB SWAP1 LOG3 POP POP POP JUMP JUMPDEST PUSH1 0x0 PUSH20 0xFFFFFFFFFFFFFFFFFFFFFFFFFFFFFFFFFFFFFFFF AND DUP4 PUSH20 0xFFFFFFFFFFFFFFFFFFFFFFFFFFFFFFFFFFFFFFFF AND EQ ISZERO PUSH2 0x136C JUMPI PUSH1 0x40 MLOAD PUSH32 0x8C379A000000000000000000000000000000000000000000000000000000000 DUP2 MSTORE PUSH1 0x4 ADD DUP1 DUP1 PUSH1 0x20 ADD DUP3 DUP2 SUB DUP3 MSTORE PUSH1 0x25 DUP2 MSTORE PUSH1 0x20 ADD DUP1 PUSH2 0x1E21 PUSH1 0x25 SWAP2 CODECOPY PUSH1 0x40 ADD SWAP2 POP POP PUSH1 0x40 MLOAD DUP1 SWAP2 SUB SWAP1 REVERT JUMPDEST PUSH1 0x0 PUSH20 0xFFFFFFFFFFFFFFFFFFFFFFFFFFFFFFFFFFFFFFFF AND DUP3 PUSH20 0xFFFFFFFFFFFFFFFFFFFFFFFFFFFFFFFFFFFFFFFF AND EQ ISZERO PUSH2 0x13F2 JUMPI PUSH1 0x40 MLOAD PUSH32 0x8C379A000000000000000000000000000000000000000000000000000000000 DUP2 MSTORE PUSH1 0x4 ADD DUP1 DUP1 PUSH1 0x20 ADD DUP3 DUP2 SUB DUP3 MSTORE PUSH1 0x23 DUP2 MSTORE PUSH1 0x20 ADD DUP1 PUSH2 0x1D4B PUSH1 0x23 SWAP2 CODECOPY PUSH1 0x40 ADD SWAP2 POP POP PUSH1 0x40 MLOAD DUP1 SWAP2 SUB SWAP1 REVERT JUMPDEST PUSH2 0x13FD DUP4 DUP4 DUP4 PUSH2 0x1C8D JUMP JUMPDEST PUSH2 0x1468 DUP2 PUSH1 0x40 MLOAD DUP1 PUSH1 0x60 ADD PUSH1 0x40 MSTORE DUP1 PUSH1 0x26 DUP2 MSTORE PUSH1 0x20 ADD PUSH2 0x1DB2 PUSH1 0x26 SWAP2 CODECOPY PUSH1 0x0 DUP1 DUP8 PUSH20 0xFFFFFFFFFFFFFFFFFFFFFFFFFFFFFFFFFFFFFFFF AND PUSH20 0xFFFFFFFFFFFFFFFFFFFFFFFFFFFFFFFFFFFFFFFF AND DUP2 MSTORE PUSH1 0x20 ADD SWAP1 DUP2 MSTORE PUSH1 0x20 ADD PUSH1 0x0 KECCAK256 SLOAD PUSH2 0x15A7 SWAP1 SWAP3 SWAP2 SWAP1 PUSH4 0xFFFFFFFF AND JUMP JUMPDEST PUSH1 0x0 DUP1 DUP6 PUSH20 0xFFFFFFFFFFFFFFFFFFFFFFFFFFFFFFFFFFFFFFFF AND PUSH20 0xFFFFFFFFFFFFFFFFFFFFFFFFFFFFFFFFFFFFFFFF AND DUP2 MSTORE PUSH1 0x20 ADD SWAP1 DUP2 MSTORE PUSH1 0x20 ADD PUSH1 0x0 KECCAK256 DUP2 SWAP1 SSTORE POP PUSH2 0x14FB DUP2 PUSH1 0x0 DUP1 DUP6 PUSH20 0xFFFFFFFFFFFFFFFFFFFFFFFFFFFFFFFFFFFFFFFF AND PUSH20 0xFFFFFFFFFFFFFFFFFFFFFFFFFFFFFFFFFFFFFFFF AND DUP2 MSTORE PUSH1 0x20 ADD SWAP1 DUP2 MSTORE PUSH1 0x20 ADD PUSH1 0x0 KECCAK256 SLOAD PUSH2 0x1667 SWAP1 SWAP2 SWAP1 PUSH4 0xFFFFFFFF AND JUMP JUMPDEST PUSH1 0x0 DUP1 DUP5 PUSH20 0xFFFFFFFFFFFFFFFFFFFFFFFFFFFFFFFFFFFFFFFF AND PUSH20 0xFFFFFFFFFFFFFFFFFFFFFFFFFFFFFFFFFFFFFFFF AND DUP2 MSTORE PUSH1 0x20 ADD SWAP1 DUP2 MSTORE PUSH1 0x20 ADD PUSH1 0x0 KECCAK256 DUP2 SWAP1 SSTORE POP DUP2 PUSH20 0xFFFFFFFFFFFFFFFFFFFFFFFFFFFFFFFFFFFFFFFF AND DUP4 PUSH20 0xFFFFFFFFFFFFFFFFFFFFFFFFFFFFFFFFFFFFFFFF AND PUSH32 0xDDF252AD1BE2C89B69C2B068FC378DAA952BA7F163C4A11628F55A4DF523B3EF DUP4 PUSH1 0x40 MLOAD DUP1 DUP3 DUP2 MSTORE PUSH1 0x20 ADD SWAP2 POP POP PUSH1 0x40 MLOAD DUP1 SWAP2 SUB SWAP1 LOG3 POP POP POP JUMP JUMPDEST PUSH1 0x0 DUP4 DUP4 GT ISZERO DUP3 SWAP1 PUSH2 0x1654 JUMPI PUSH1 0x40 MLOAD PUSH32 0x8C379A000000000000000000000000000000000000000000000000000000000 DUP2 MSTORE PUSH1 0x4 ADD DUP1 DUP1 PUSH1 0x20 ADD DUP3 DUP2 SUB DUP3 MSTORE DUP4 DUP2 DUP2 MLOAD DUP2 MSTORE PUSH1 0x20 ADD SWAP2 POP DUP1 MLOAD SWAP1 PUSH1 0x20 ADD SWAP1 DUP1 DUP4 DUP4 PUSH1 0x0 JUMPDEST DUP4 DUP2 LT ISZERO PUSH2 0x1619 JUMPI DUP1 DUP3 ADD MLOAD DUP2 DUP5 ADD MSTORE PUSH1 0x20 DUP2 ADD SWAP1 POP PUSH2 0x15FE JUMP JUMPDEST POP POP POP POP SWAP1 POP SWAP1 DUP2 ADD SWAP1 PUSH1 0x1F AND DUP1 ISZERO PUSH2 0x1646 JUMPI DUP1 DUP3 SUB DUP1 MLOAD PUSH1 0x1 DUP4 PUSH1 0x20 SUB PUSH2 0x100 EXP SUB NOT AND DUP2 MSTORE PUSH1 0x20 ADD SWAP2 POP JUMPDEST POP SWAP3 POP POP POP PUSH1 0x40 MLOAD DUP1 SWAP2 SUB SWAP1 REVERT JUMPDEST POP PUSH1 0x0 DUP4 DUP6 SUB SWAP1 POP DUP1 SWAP2 POP POP SWAP4 SWAP3 POP POP POP JUMP JUMPDEST PUSH1 0x0 DUP1 DUP3 DUP5 ADD SWAP1 POP DUP4 DUP2 LT ISZERO PUSH2 0x16E5 JUMPI PUSH1 0x40 MLOAD PUSH32 0x8C379A000000000000000000000000000000000000000000000000000000000 DUP2 MSTORE PUSH1 0x4 ADD DUP1 DUP1 PUSH1 0x20 ADD DUP3 DUP2 SUB DUP3 MSTORE PUSH1 0x1B DUP2 MSTORE PUSH1 0x20 ADD DUP1 PUSH32 0x536166654D6174683A206164646974696F6E206F766572666C6F770000000000 DUP2 MSTORE POP PUSH1 0x20 ADD SWAP2 POP POP PUSH1 0x40 MLOAD DUP1 SWAP2 SUB SWAP1 REVERT JUMPDEST DUP1 SWAP2 POP POP SWAP3 SWAP2 POP POP JUMP JUMPDEST PUSH1 0x5 PUSH1 0x1 SWAP1 SLOAD SWAP1 PUSH2 0x100 EXP SWAP1 DIV PUSH1 0xFF AND PUSH2 0x1771 JUMPI PUSH1 0x40 MLOAD PUSH32 0x8C379A000000000000000000000000000000000000000000000000000000000 DUP2 MSTORE PUSH1 0x4 ADD DUP1 DUP1 PUSH1 0x20 ADD DUP3 DUP2 SUB DUP3 MSTORE PUSH1 0x14 DUP2 MSTORE PUSH1 0x20 ADD DUP1 PUSH32 0x5061757361626C653A206E6F7420706175736564000000000000000000000000 DUP2 MSTORE POP PUSH1 0x20 ADD SWAP2 POP POP PUSH1 0x40 MLOAD DUP1 SWAP2 SUB SWAP1 REVERT JUMPDEST PUSH1 0x0 PUSH1 0x5 PUSH1 0x1 PUSH2 0x100 EXP DUP2 SLOAD DUP2 PUSH1 0xFF MUL NOT AND SWAP1 DUP4 ISZERO ISZERO MUL OR SWAP1 SSTORE POP PUSH32 0x5DB9EE0A495BF2E6FF9C91A7834C1BA4FDD244A5E8AA4E537BD38AEAE4B073AA PUSH2 0x17B5 PUSH2 0x10E7 JUMP JUMPDEST PUSH1 0x40 MLOAD DUP1 DUP3 PUSH20 0xFFFFFFFFFFFFFFFFFFFFFFFFFFFFFFFFFFFFFFFF AND PUSH20 0xFFFFFFFFFFFFFFFFFFFFFFFFFFFFFFFFFFFFFFFF AND DUP2 MSTORE PUSH1 0x20 ADD SWAP2 POP POP PUSH1 0x40 MLOAD DUP1 SWAP2 SUB SWAP1 LOG1 JUMP JUMPDEST PUSH1 0x0 PUSH20 0xFFFFFFFFFFFFFFFFFFFFFFFFFFFFFFFFFFFFFFFF AND DUP3 PUSH20 0xFFFFFFFFFFFFFFFFFFFFFFFFFFFFFFFFFFFFFFFF AND EQ ISZERO PUSH2 0x189B JUMPI PUSH1 0x40 MLOAD PUSH32 0x8C379A000000000000000000000000000000000000000000000000000000000 DUP2 MSTORE PUSH1 0x4 ADD DUP1 DUP1 PUSH1 0x20 ADD DUP3 DUP2 SUB DUP3 MSTORE PUSH1 0x1F DUP2 MSTORE PUSH1 0x20 ADD DUP1 PUSH32 0x45524332303A206D696E7420746F20746865207A65726F206164647265737300 DUP2 MSTORE POP PUSH1 0x20 ADD SWAP2 POP POP PUSH1 0x40 MLOAD DUP1 SWAP2 SUB SWAP1 REVERT JUMPDEST PUSH2 0x18A7 PUSH1 0x0 DUP4 DUP4 PUSH2 0x1C8D JUMP JUMPDEST PUSH2 0x18BC DUP2 PUSH1 0x2 SLOAD PUSH2 0x1667 SWAP1 SWAP2 SWAP1 PUSH4 0xFFFFFFFF AND JUMP JUMPDEST PUSH1 0x2 DUP2 SWAP1 SSTORE POP PUSH2 0x1913 DUP2 PUSH1 0x0 DUP1 DUP6 PUSH20 0xFFFFFFFFFFFFFFFFFFFFFFFFFFFFFFFFFFFFFFFF AND PUSH20 0xFFFFFFFFFFFFFFFFFFFFFFFFFFFFFFFFFFFFFFFF AND DUP2 MSTORE PUSH1 0x20 ADD SWAP1 DUP2 MSTORE PUSH1 0x20 ADD PUSH1 0x0 KECCAK256 SLOAD PUSH2 0x1667 SWAP1 SWAP2 SWAP1 PUSH4 0xFFFFFFFF AND JUMP JUMPDEST PUSH1 0x0 DUP1 DUP5 PUSH20 0xFFFFFFFFFFFFFFFFFFFFFFFFFFFFFFFFFFFFFFFF AND PUSH20 0xFFFFFFFFFFFFFFFFFFFFFFFFFFFFFFFFFFFFFFFF AND DUP2 MSTORE PUSH1 0x20 ADD SWAP1 DUP2 MSTORE PUSH1 0x20 ADD PUSH1 0x0 KECCAK256 DUP2 SWAP1 SSTORE POP DUP2 PUSH20 0xFFFFFFFFFFFFFFFFFFFFFFFFFFFFFFFFFFFFFFFF AND PUSH1 0x0 PUSH20 0xFFFFFFFFFFFFFFFFFFFFFFFFFFFFFFFFFFFFFFFF AND PUSH32 0xDDF252AD1BE2C89B69C2B068FC378DAA952BA7F163C4A11628F55A4DF523B3EF DUP4 PUSH1 0x40 MLOAD DUP1 DUP3 DUP2 MSTORE PUSH1 0x20 ADD SWAP2 POP POP PUSH1 0x40 MLOAD DUP1 SWAP2 SUB SWAP1 LOG3 POP POP JUMP JUMPDEST PUSH1 0x5 PUSH1 0x1 SWAP1 SLOAD SWAP1 PUSH2 0x100 EXP SWAP1 DIV PUSH1 0xFF AND ISZERO PUSH2 0x1A42 JUMPI PUSH1 0x40 MLOAD PUSH32 0x8C379A000000000000000000000000000000000000000000000000000000000 DUP2 MSTORE PUSH1 0x4 ADD DUP1 DUP1 PUSH1 0x20 ADD DUP3 DUP2 SUB DUP3 MSTORE PUSH1 0x10 DUP2 MSTORE PUSH1 0x20 ADD DUP1 PUSH32 0x5061757361626C653A2070617573656400000000000000000000000000000000 DUP2 MSTORE POP PUSH1 0x20 ADD SWAP2 POP POP PUSH1 0x40 MLOAD DUP1 SWAP2 SUB SWAP1 REVERT JUMPDEST PUSH1 0x1 PUSH1 0x5 PUSH1 0x1 PUSH2 0x100 EXP DUP2 SLOAD DUP2 PUSH1 0xFF MUL NOT AND SWAP1 DUP4 ISZERO ISZERO MUL OR SWAP1 SSTORE POP PUSH32 0x62E78CEA01BEE320CD4E420270B5EA74000D11B0C9F74754EBDBFC544B05A258 PUSH2 0x1A86 PUSH2 0x10E7 JUMP JUMPDEST PUSH1 0x40 MLOAD DUP1 DUP3 PUSH20 0xFFFFFFFFFFFFFFFFFFFFFFFFFFFFFFFFFFFFFFFF AND PUSH20 0xFFFFFFFFFFFFFFFFFFFFFFFFFFFFFFFFFFFFFFFF AND DUP2 MSTORE PUSH1 0x20 ADD SWAP2 POP POP PUSH1 0x40 MLOAD DUP1 SWAP2 SUB SWAP1 LOG1 JUMP JUMPDEST PUSH1 0x0 PUSH20 0xFFFFFFFFFFFFFFFFFFFFFFFFFFFFFFFFFFFFFFFF AND DUP3 PUSH20 0xFFFFFFFFFFFFFFFFFFFFFFFFFFFFFFFFFFFFFFFF AND EQ ISZERO PUSH2 0x1B4F JUMPI PUSH1 0x40 MLOAD PUSH32 0x8C379A000000000000000000000000000000000000000000000000000000000 DUP2 MSTORE PUSH1 0x4 ADD DUP1 DUP1 PUSH1 0x20 ADD DUP3 DUP2 SUB DUP3 MSTORE PUSH1 0x21 DUP2 MSTORE PUSH1 0x20 ADD DUP1 PUSH2 0x1E00 PUSH1 0x21 SWAP2 CODECOPY PUSH1 0x40 ADD SWAP2 POP POP PUSH1 0x40 MLOAD DUP1 SWAP2 SUB SWAP1 REVERT JUMPDEST PUSH2 0x1B5B DUP3 PUSH1 0x0 DUP4 PUSH2 0x1C8D JUMP JUMPDEST PUSH2 0x1BC6 DUP2 PUSH1 0x40 MLOAD DUP1 PUSH1 0x60 ADD PUSH1 0x40 MSTORE DUP1 PUSH1 0x22 DUP2 MSTORE PUSH1 0x20 ADD PUSH2 0x1D6E PUSH1 0x22 SWAP2 CODECOPY PUSH1 0x0 DUP1 DUP7 PUSH20 0xFFFFFFFFFFFFFFFFFFFFFFFFFFFFFFFFFFFFFFFF AND PUSH20 0xFFFFFFFFFFFFFFFFFFFFFFFFFFFFFFFFFFFFFFFF AND DUP2 MSTORE PUSH1 0x20 ADD SWAP1 DUP2 MSTORE PUSH1 0x20 ADD PUSH1 0x0 KECCAK256 SLOAD PUSH2 0x15A7 SWAP1 SWAP3 SWAP2 SWAP1 PUSH4 0xFFFFFFFF AND JUMP JUMPDEST PUSH1 0x0 DUP1 DUP5 PUSH20 0xFFFFFFFFFFFFFFFFFFFFFFFFFFFFFFFFFFFFFFFF AND PUSH20 0xFFFFFFFFFFFFFFFFFFFFFFFFFFFFFFFFFFFFFFFF AND DUP2 MSTORE PUSH1 0x20 ADD SWAP1 DUP2 MSTORE PUSH1 0x20 ADD PUSH1 0x0 KECCAK256 DUP2 SWAP1 SSTORE POP PUSH2 0x1C1D DUP2 PUSH1 0x2 SLOAD PUSH2 0x1CFB SWAP1 SWAP2 SWAP1 PUSH4 0xFFFFFFFF AND JUMP JUMPDEST PUSH1 0x2 DUP2 SWAP1 SSTORE POP PUSH1 0x0 PUSH20 0xFFFFFFFFFFFFFFFFFFFFFFFFFFFFFFFFFFFFFFFF AND DUP3 PUSH20 0xFFFFFFFFFFFFFFFFFFFFFFFFFFFFFFFFFFFFFFFF AND PUSH32 0xDDF252AD1BE2C89B69C2B068FC378DAA952BA7F163C4A11628F55A4DF523B3EF DUP4 PUSH1 0x40 MLOAD DUP1 DUP3 DUP2 MSTORE PUSH1 0x20 ADD SWAP2 POP POP PUSH1 0x40 MLOAD DUP1 SWAP2 SUB SWAP1 LOG3 POP POP JUMP JUMPDEST PUSH2 0x1C98 DUP4 DUP4 DUP4 PUSH2 0x1D45 JUMP JUMPDEST PUSH2 0x1CA0 PUSH2 0xB0A JUMP JUMPDEST ISZERO PUSH2 0x1CF6 JUMPI PUSH1 0x40 MLOAD PUSH32 0x8C379A000000000000000000000000000000000000000000000000000000000 DUP2 MSTORE PUSH1 0x4 ADD DUP1 DUP1 PUSH1 0x20 ADD DUP3 DUP2 SUB DUP3 MSTORE PUSH1 0x2A DUP2 MSTORE PUSH1 0x20 ADD DUP1 PUSH2 0x1E8F PUSH1 0x2A SWAP2 CODECOPY PUSH1 0x40 ADD SWAP2 POP POP PUSH1 0x40 MLOAD DUP1 SWAP2 SUB SWAP1 REVERT JUMPDEST POP POP POP JUMP JUMPDEST PUSH1 0x0 PUSH2 0x1D3D DUP4 DUP4 PUSH1 0x40 MLOAD DUP1 PUSH1 0x40 ADD PUSH1 0x40 MSTORE DUP1 PUSH1 0x1E DUP2 MSTORE PUSH1 0x20 ADD PUSH32 0x536166654D6174683A207375627472616374696F6E206F766572666C6F770000 DUP2 MSTORE POP PUSH2 0x15A7 JUMP JUMPDEST SWAP1 POP SWAP3 SWAP2 POP POP JUMP JUMPDEST POP POP POP JUMP INVALID GASLIMIT MSTORE NUMBER ORIGIN ADDRESS GASPRICE KECCAK256 PUSH21 0x72616E7366657220746F20746865207A65726F2061 PUSH5 0x6472657373 GASLIMIT MSTORE NUMBER ORIGIN ADDRESS GASPRICE KECCAK256 PUSH3 0x75726E KECCAK256 PUSH2 0x6D6F PUSH22 0x6E7420657863656564732062616C616E636545524332 ADDRESS GASPRICE KECCAK256 PUSH2 0x7070 PUSH19 0x6F766520746F20746865207A65726F20616464 PUSH19 0x65737345524332303A207472616E7366657220 PUSH2 0x6D6F PUSH22 0x6E7420657863656564732062616C616E636545524332 ADDRESS GASPRICE KECCAK256 PUSH21 0x72616E7366657220616D6F756E7420657863656564 PUSH20 0x20616C6C6F77616E636545524332303A20627572 PUSH15 0x2066726F6D20746865207A65726F20 PUSH2 0x6464 PUSH19 0x65737345524332303A207472616E7366657220 PUSH7 0x726F6D20746865 KECCAK256 PUSH27 0x65726F206164647265737345524332303A20617070726F76652066 PUSH19 0x6F6D20746865207A65726F2061646472657373 GASLIMIT MSTORE NUMBER ORIGIN ADDRESS GASPRICE KECCAK256 PUSH5 0x6563726561 PUSH20 0x656420616C6C6F77616E63652062656C6F77207A PUSH6 0x726F45524332 ADDRESS POP PUSH2 0x7573 PUSH2 0x626C PUSH6 0x3A20746F6B65 PUSH15 0x207472616E73666572207768696C65 KECCAK256 PUSH17 0x6175736564A264697066735822122096EE 0xED DUP14 0xCE 0x4C NOT 0xD5 0x48 PUSH23 0x72D3D083D0EFA0564167DD93D5D3D5C3C72E49043D3664 PUSH20 0x6F6C634300060600330000000000000000000000 "
				},
				"gasEstimates": {
					"creation": {
						"codeDepositCost": "1583600",
						"executionCost": "infinite",
						"totalCost": "infinite"
					},
					"external": {
						"allowance(address,address)": "1431",
						"approve(address,uint256)": "infinite",
						"balanceOf(address)": "1241",
						"burn(address,uint256)": "infinite",
						"changeUser(address,address)": "43012",
						"decimals()": "1084",
						"decreaseAllowance(address,uint256)": "infinite",
						"increaseAllowance(address,uint256)": "infinite",
						"mint(address,uint256)": "infinite",
						"name()": "infinite",
						"pause()": "24041",
						"paused()": "1134",
						"symbol()": "infinite",
						"totalSupply()": "1081",
						"transfer(address,uint256)": "infinite",
						"transferFrom(address,address,uint256)": "infinite",
						"unpause()": "24038"
					}
				},
				"methodIdentifiers": {
					"allowance(address,address)": "dd62ed3e",
					"approve(address,uint256)": "095ea7b3",
					"balanceOf(address)": "70a08231",
					"burn(address,uint256)": "9dc29fac",
					"changeUser(address,address)": "8e50817a",
					"decimals()": "313ce567",
					"decreaseAllowance(address,uint256)": "a457c2d7",
					"increaseAllowance(address,uint256)": "39509351",
					"mint(address,uint256)": "40c10f19",
					"name()": "06fdde03",
					"pause()": "8456cb59",
					"paused()": "5c975abb",
					"symbol()": "95d89b41",
					"totalSupply()": "18160ddd",
					"transfer(address,uint256)": "a9059cbb",
					"transferFrom(address,address,uint256)": "23b872dd",
					"unpause()": "3f4ba83a"
				}
			},
			"storageLayout": {
				"storage": [
					{
						"astId": 363,
						"contract": "ROO_Repurchase/contracts/HecoMain_Usdt.sol:ERC20Template",
						"label": "_balances",
						"offset": 0,
						"slot": "0",
						"type": "t_mapping(t_address,t_uint256)"
					},
					{
						"astId": 369,
						"contract": "ROO_Repurchase/contracts/HecoMain_Usdt.sol:ERC20Template",
						"label": "_allowances",
						"offset": 0,
						"slot": "1",
						"type": "t_mapping(t_address,t_mapping(t_address,t_uint256))"
					},
					{
						"astId": 371,
						"contract": "ROO_Repurchase/contracts/HecoMain_Usdt.sol:ERC20Template",
						"label": "_totalSupply",
						"offset": 0,
						"slot": "2",
						"type": "t_uint256"
					},
					{
						"astId": 373,
						"contract": "ROO_Repurchase/contracts/HecoMain_Usdt.sol:ERC20Template",
						"label": "_name",
						"offset": 0,
						"slot": "3",
						"type": "t_string_storage"
					},
					{
						"astId": 375,
						"contract": "ROO_Repurchase/contracts/HecoMain_Usdt.sol:ERC20Template",
						"label": "_symbol",
						"offset": 0,
						"slot": "4",
						"type": "t_string_storage"
					},
					{
						"astId": 377,
						"contract": "ROO_Repurchase/contracts/HecoMain_Usdt.sol:ERC20Template",
						"label": "_decimals",
						"offset": 0,
						"slot": "5",
						"type": "t_uint8"
					},
					{
						"astId": 286,
						"contract": "ROO_Repurchase/contracts/HecoMain_Usdt.sol:ERC20Template",
						"label": "_paused",
						"offset": 1,
						"slot": "5",
						"type": "t_bool"
					},
					{
						"astId": 866,
						"contract": "ROO_Repurchase/contracts/HecoMain_Usdt.sol:ERC20Template",
						"label": "factory",
						"offset": 2,
						"slot": "5",
						"type": "t_address"
					},
					{
						"astId": 868,
						"contract": "ROO_Repurchase/contracts/HecoMain_Usdt.sol:ERC20Template",
						"label": "_operator",
						"offset": 0,
						"slot": "6",
						"type": "t_address"
					},
					{
						"astId": 870,
						"contract": "ROO_Repurchase/contracts/HecoMain_Usdt.sol:ERC20Template",
						"label": "_pauser",
						"offset": 0,
						"slot": "7",
						"type": "t_address"
					}
				],
				"types": {
					"t_address": {
						"encoding": "inplace",
						"label": "address",
						"numberOfBytes": "20"
					},
					"t_bool": {
						"encoding": "inplace",
						"label": "bool",
						"numberOfBytes": "1"
					},
					"t_mapping(t_address,t_mapping(t_address,t_uint256))": {
						"encoding": "mapping",
						"key": "t_address",
						"label": "mapping(address => mapping(address => uint256))",
						"numberOfBytes": "32",
						"value": "t_mapping(t_address,t_uint256)"
					},
					"t_mapping(t_address,t_uint256)": {
						"encoding": "mapping",
						"key": "t_address",
						"label": "mapping(address => uint256)",
						"numberOfBytes": "32",
						"value": "t_uint256"
					},
					"t_string_storage": {
						"encoding": "bytes",
						"label": "string",
						"numberOfBytes": "32"
					},
					"t_uint256": {
						"encoding": "inplace",
						"label": "uint256",
						"numberOfBytes": "32"
					},
					"t_uint8": {
						"encoding": "inplace",
						"label": "uint8",
						"numberOfBytes": "1"
					}
				}
			},
			"userdoc": {
				"methods": {}
			}
		}
	}
}