{
	"ROO_Repurchase/contracts/ROO_Repurchase.sol": {
		"Repurchase": {
			"abi": [
				{
					"inputs": [
						{
							"internalType": "address",
							"name": "_emergencyAddress",
							"type": "address"
						}
					],
					"stateMutability": "nonpayable",
					"type": "constructor"
				},
				{
					"anonymous": false,
					"inputs": [
						{
							"indexed": true,
							"internalType": "address",
							"name": "previousOwner",
							"type": "address"
						},
						{
							"indexed": true,
							"internalType": "address",
							"name": "newOwner",
							"type": "address"
						}
					],
					"name": "OwnershipTransferred",
					"type": "event"
				},
				{
					"inputs": [],
					"name": "ROO",
					"outputs": [
						{
							"internalType": "address",
							"name": "",
							"type": "address"
						}
					],
					"stateMutability": "view",
					"type": "function"
				},
				{
					"inputs": [],
					"name": "ROO_USDT",
					"outputs": [
						{
							"internalType": "address",
							"name": "",
							"type": "address"
						}
					],
					"stateMutability": "view",
					"type": "function"
				},
				{
					"inputs": [],
					"name": "USDT",
					"outputs": [
						{
							"internalType": "address",
							"name": "",
							"type": "address"
						}
					],
					"stateMutability": "view",
					"type": "function"
				},
				{
					"inputs": [
						{
							"internalType": "address",
							"name": "_newCaller",
							"type": "address"
						}
					],
					"name": "addCaller",
					"outputs": [
						{
							"internalType": "bool",
							"name": "",
							"type": "bool"
						}
					],
					"stateMutability": "nonpayable",
					"type": "function"
				},
				{
					"inputs": [],
					"name": "amountIn",
					"outputs": [
						{
							"internalType": "uint256",
							"name": "",
							"type": "uint256"
						}
					],
					"stateMutability": "view",
					"type": "function"
				},
				{
					"inputs": [
						{
							"internalType": "address",
							"name": "_delCaller",
							"type": "address"
						}
					],
					"name": "delCaller",
					"outputs": [
						{
							"internalType": "bool",
							"name": "",
							"type": "bool"
						}
					],
					"stateMutability": "nonpayable",
					"type": "function"
				},
				{
					"inputs": [],
					"name": "destroyAddress",
					"outputs": [
						{
							"internalType": "address",
							"name": "",
							"type": "address"
						}
					],
					"stateMutability": "view",
					"type": "function"
				},
				{
					"inputs": [],
					"name": "emergencyAddress",
					"outputs": [
						{
							"internalType": "address",
							"name": "",
							"type": "address"
						}
					],
					"stateMutability": "view",
					"type": "function"
				},
				{
					"inputs": [
						{
							"internalType": "address",
							"name": "_token",
							"type": "address"
						}
					],
					"name": "emergencyWithdraw",
					"outputs": [],
					"stateMutability": "nonpayable",
					"type": "function"
				},
				{
					"inputs": [
						{
							"internalType": "uint256",
							"name": "_index",
							"type": "uint256"
						}
					],
					"name": "getCaller",
					"outputs": [
						{
							"internalType": "address",
							"name": "",
							"type": "address"
						}
					],
					"stateMutability": "view",
					"type": "function"
				},
				{
					"inputs": [],
					"name": "getCallerLength",
					"outputs": [
						{
							"internalType": "uint256",
							"name": "",
							"type": "uint256"
						}
					],
					"stateMutability": "view",
					"type": "function"
				},
				{
					"inputs": [
						{
							"internalType": "address",
							"name": "_call",
							"type": "address"
						}
					],
					"name": "isCaller",
					"outputs": [
						{
							"internalType": "bool",
							"name": "",
							"type": "bool"
						}
					],
					"stateMutability": "view",
					"type": "function"
				},
				{
					"inputs": [],
					"name": "owner",
					"outputs": [
						{
							"internalType": "address",
							"name": "",
							"type": "address"
						}
					],
					"stateMutability": "view",
					"type": "function"
				},
				{
					"inputs": [],
					"name": "renounceOwnership",
					"outputs": [],
					"stateMutability": "nonpayable",
					"type": "function"
				},
				{
					"inputs": [
						{
							"internalType": "uint256",
							"name": "_newIn",
							"type": "uint256"
						}
					],
					"name": "setAmountIn",
					"outputs": [],
					"stateMutability": "nonpayable",
					"type": "function"
				},
				{
					"inputs": [
						{
							"internalType": "address",
							"name": "_newAddress",
							"type": "address"
						}
					],
					"name": "setEmergencyAddress",
					"outputs": [],
					"stateMutability": "nonpayable",
					"type": "function"
				},
				{
					"inputs": [
						{
							"internalType": "uint256",
							"name": "_amount",
							"type": "uint256"
						}
					],
					"name": "swap",
					"outputs": [
						{
							"internalType": "uint256",
							"name": "amountOut",
							"type": "uint256"
						}
					],
					"stateMutability": "nonpayable",
					"type": "function"
				},
				{
					"inputs": [
						{
							"internalType": "address",
							"name": "newOwner",
							"type": "address"
						}
					],
					"name": "transferOwnership",
					"outputs": [],
					"stateMutability": "nonpayable",
					"type": "function"
				}
			],
			"devdoc": {
				"kind": "dev",
				"methods": {
					"owner()": {
						"details": "Returns the address of the current owner."
					},
					"renounceOwnership()": {
						"details": "Leaves the contract without owner. It will not be possible to call `onlyOwner` functions anymore. Can only be called by the current owner. NOTE: Renouncing ownership will leave the contract without an owner, thereby removing any functionality that is only available to the owner."
					},
					"transferOwnership(address)": {
						"details": "Transfers ownership of the contract to a new account (`newOwner`). Can only be called by the current owner."
					}
				},
				"version": 1
			},
			"evm": {
				"assembly": "    /* \"ROO_Repurchase/contracts/ROO_Repurchase.sol\":199:4188  contract Repurchase is Ownable {... */\n  mstore(0x40, 0x80)\n    /* \"ROO_Repurchase/contracts/ROO_Repurchase.sol\":1839:2008  constructor (address _emergencyAddress) public {... */\n  callvalue\n  dup1\n  iszero\n  tag_1\n  jumpi\n  0x00\n  dup1\n  revert\ntag_1:\n  pop\n  mload(0x40)\n  sub(codesize, bytecodeSize)\n  dup1\n  bytecodeSize\n  dup4\n  codecopy\n  dup2\n  dup2\n  add\n  0x40\n  mstore\n  0x20\n  dup2\n  lt\n  iszero\n  tag_2\n  jumpi\n  0x00\n  dup1\n  revert\ntag_2:\n  pop\n  mload\n    /* \"ROO_Repurchase/contracts/library/Ownable.sol\":343:360  address msgSender */\n  0x00\n    /* \"ROO_Repurchase/contracts/library/Ownable.sol\":363:375  _msgSender() */\n  tag_6\n    /* \"ROO_Repurchase/contracts/library/Ownable.sol\":363:373  _msgSender */\n  tag_7\n    /* \"ROO_Repurchase/contracts/library/Ownable.sol\":363:375  _msgSender() */\n  jump\t// in\ntag_6:\n    /* \"ROO_Repurchase/contracts/library/Ownable.sol\":385:391  _owner */\n  0x00\n    /* \"ROO_Repurchase/contracts/library/Ownable.sol\":385:403  _owner = msgSender */\n  dup1\n  sload\n  not(sub(shl(0xa0, 0x01), 0x01))\n  and\n  sub(shl(0xa0, 0x01), 0x01)\n  dup4\n  and\n  swap1\n  dup2\n  or\n  dup3\n  sstore\n    /* \"ROO_Repurchase/contracts/library/Ownable.sol\":418:461  OwnershipTransferred(address(0), msgSender) */\n  mload(0x40)\n    /* \"ROO_Repurchase/contracts/library/Ownable.sol\":385:403  _owner = msgSender */\n  swap3\n  swap4\n  pop\n  swap2\n    /* \"ROO_Repurchase/contracts/library/Ownable.sol\":418:461  OwnershipTransferred(address(0), msgSender) */\n  0x8be0079c531659141344cd1fd0a4f28419497f9722a3daafe3b4186f6b6457e0\n  swap1\n    /* \"ROO_Repurchase/contracts/library/Ownable.sol\":385:391  _owner */\n  dup3\n  swap1\n    /* \"ROO_Repurchase/contracts/library/Ownable.sol\":418:461  OwnershipTransferred(address(0), msgSender) */\n  log3\n  pop\n  sub(shl(0xa0, 0x01), 0x01)\n    /* \"ROO_Repurchase/contracts/ROO_Repurchase.sol\":1904:1935  _emergencyAddress != address(0) */\n  dup2\n  and\n    /* \"ROO_Repurchase/contracts/ROO_Repurchase.sol\":1896:1955  require(_emergencyAddress != address(0), \"Is zero address\") */\n  tag_9\n  jumpi\n  0x40\n  dup1\n  mload\n  shl(0xe5, 0x461bcd)\n  dup2\n  mstore\n  0x20\n  0x04\n  dup3\n  add\n  mstore\n  0x0f\n  0x24\n  dup3\n  add\n  mstore\n  shl(0x88, 0x4973207a65726f2061646472657373)\n  0x44\n  dup3\n  add\n  mstore\n  swap1\n  mload\n  swap1\n  dup2\n  swap1\n  sub\n  0x64\n  add\n  swap1\n  revert\ntag_9:\n    /* \"ROO_Repurchase/contracts/ROO_Repurchase.sol\":1965:1981  emergencyAddress */\n  0x03\n    /* \"ROO_Repurchase/contracts/ROO_Repurchase.sol\":1965:2001  emergencyAddress = _emergencyAddress */\n  dup1\n  sload\n  not(sub(shl(0xa0, 0x01), 0x01))\n  and\n  sub(shl(0xa0, 0x01), 0x01)\n  swap3\n  swap1\n  swap3\n  and\n  swap2\n  swap1\n  swap2\n  or\n  swap1\n  sstore\n    /* \"ROO_Repurchase/contracts/ROO_Repurchase.sol\":199:4188  contract Repurchase is Ownable {... */\n  jump(tag_10)\n    /* \"ROO_Repurchase/contracts/library/Context.sol\":58:162  function _msgSender() internal view virtual returns (address payable) {... */\ntag_7:\n    /* \"ROO_Repurchase/contracts/library/Context.sol\":145:155  msg.sender */\n  caller\n    /* \"ROO_Repurchase/contracts/library/Context.sol\":58:162  function _msgSender() internal view virtual returns (address payable) {... */\n  swap1\n  jump\t// out\n    /* \"ROO_Repurchase/contracts/ROO_Repurchase.sol\":199:4188  contract Repurchase is Ownable {... */\ntag_10:\n  dataSize(sub_0)\n  dup1\n  dataOffset(sub_0)\n  0x00\n  codecopy\n  0x00\n  return\nstop\n\nsub_0: assembly {\n        /* \"ROO_Repurchase/contracts/ROO_Repurchase.sol\":199:4188  contract Repurchase is Ownable {... */\n      mstore(0x40, 0x80)\n      callvalue\n      dup1\n      iszero\n      tag_1\n      jumpi\n      0x00\n      dup1\n      revert\n    tag_1:\n      pop\n      jumpi(tag_2, lt(calldatasize, 0x04))\n      shr(0xe0, calldataload(0x00))\n      dup1\n      0x7ac07dcc\n      gt\n      tag_21\n      jumpi\n      dup1\n      0xa8b0b3ed\n      gt\n      tag_22\n      jumpi\n      dup1\n      0xa8b0b3ed\n      eq\n      tag_16\n      jumpi\n      dup1\n      0xc54e44eb\n      eq\n      tag_17\n      jumpi\n      dup1\n      0xd12d9f15\n      eq\n      tag_18\n      jumpi\n      dup1\n      0xf2fde38b\n      eq\n      tag_19\n      jumpi\n      dup1\n      0xfddf3f73\n      eq\n      tag_20\n      jumpi\n      jump(tag_2)\n    tag_22:\n      dup1\n      0x7ac07dcc\n      eq\n      tag_12\n      jumpi\n      dup1\n      0x8c2f9410\n      eq\n      tag_13\n      jumpi\n      dup1\n      0x8da5cb5b\n      eq\n      tag_14\n      jumpi\n      dup1\n      0x94b918de\n      eq\n      tag_15\n      jumpi\n      jump(tag_2)\n    tag_21:\n      dup1\n      0x6717f5b0\n      gt\n      tag_23\n      jumpi\n      dup1\n      0x6717f5b0\n      eq\n      tag_7\n      jumpi\n      dup1\n      0x6bed55a6\n      eq\n      tag_8\n      jumpi\n      dup1\n      0x6ff1c9bc\n      eq\n      tag_9\n      jumpi\n      dup1\n      0x715018a6\n      eq\n      tag_10\n      jumpi\n      dup1\n      0x747293fb\n      eq\n      tag_11\n      jumpi\n      jump(tag_2)\n    tag_23:\n      dup1\n      0x231a418c\n      eq\n      tag_3\n      jumpi\n      dup1\n      0x2aa11ffb\n      eq\n      tag_4\n      jumpi\n      dup1\n      0x42177a58\n      eq\n      tag_5\n      jumpi\n      dup1\n      0x5793d0af\n      eq\n      tag_6\n      jumpi\n    tag_2:\n      0x00\n      dup1\n      revert\n        /* \"ROO_Repurchase/contracts/ROO_Repurchase.sol\":2506:2718  function delCaller(address _delCaller) public onlyOwner returns (bool) {... */\n    tag_3:\n      tag_24\n      0x04\n      dup1\n      calldatasize\n      sub\n      0x20\n      dup2\n      lt\n      iszero\n      tag_25\n      jumpi\n      0x00\n      dup1\n      revert\n    tag_25:\n      pop\n      calldataload\n      sub(shl(0xa0, 0x01), 0x01)\n      and\n      tag_26\n      jump\t// in\n    tag_24:\n      0x40\n      dup1\n      mload\n      swap2\n      iszero\n      iszero\n      dup3\n      mstore\n      mload\n      swap1\n      dup2\n      swap1\n      sub\n      0x20\n      add\n      swap1\n      return\n        /* \"ROO_Repurchase/contracts/ROO_Repurchase.sol\":2108:2285  function setEmergencyAddress(address _newAddress) public onlyOwner {... */\n    tag_4:\n      tag_27\n      0x04\n      dup1\n      calldatasize\n      sub\n      0x20\n      dup2\n      lt\n      iszero\n      tag_28\n      jumpi\n      0x00\n      dup1\n      revert\n    tag_28:\n      pop\n      calldataload\n      sub(shl(0xa0, 0x01), 0x01)\n      and\n      tag_29\n      jump\t// in\n    tag_27:\n      stop\n        /* \"ROO_Repurchase/contracts/ROO_Repurchase.sol\":2724:2834  function getCallerLength() public view returns (uint256) {... */\n    tag_5:\n      tag_30\n      tag_31\n      jump\t// in\n    tag_30:\n      0x40\n      dup1\n      mload\n      swap2\n      dup3\n      mstore\n      mload\n      swap1\n      dup2\n      swap1\n      sub\n      0x20\n      add\n      swap1\n      return\n        /* \"ROO_Repurchase/contracts/ROO_Repurchase.sol\":1424:1496  address public constant ROO = 0xADdEb3A8fB46DDc3feE55085b6AD8DaB4C4fC771 */\n    tag_6:\n      tag_32\n      tag_33\n      jump\t// in\n    tag_32:\n      0x40\n      dup1\n      mload\n      sub(shl(0xa0, 0x01), 0x01)\n      swap1\n      swap3\n      and\n      dup3\n      mstore\n      mload\n      swap1\n      dup2\n      swap1\n      sub\n      0x20\n      add\n      swap1\n      return\n        /* \"ROO_Repurchase/contracts/ROO_Repurchase.sol\":2014:2102  function setAmountIn(uint256 _newIn) public onlyOwner {... */\n    tag_7:\n      tag_27\n      0x04\n      dup1\n      calldatasize\n      sub\n      0x20\n      dup2\n      lt\n      iszero\n      tag_35\n      jumpi\n      0x00\n      dup1\n      revert\n    tag_35:\n      pop\n      calldataload\n      tag_36\n      jump\t// in\n        /* \"ROO_Repurchase/contracts/ROO_Repurchase.sol\":1745:1768  uint256 public amountIn */\n    tag_8:\n      tag_30\n      tag_38\n      jump\t// in\n        /* \"ROO_Repurchase/contracts/ROO_Repurchase.sol\":3932:4186  function emergencyWithdraw(address _token) public onlyOwner {... */\n    tag_9:\n      tag_27\n      0x04\n      dup1\n      calldatasize\n      sub\n      0x20\n      dup2\n      lt\n      iszero\n      tag_40\n      jumpi\n      0x00\n      dup1\n      revert\n    tag_40:\n      pop\n      calldataload\n      sub(shl(0xa0, 0x01), 0x01)\n      and\n      tag_41\n      jump\t// in\n        /* \"ROO_Repurchase/contracts/library/Ownable.sol\":1167:1312  function renounceOwnership() public virtual onlyOwner {... */\n    tag_10:\n      tag_27\n      tag_43\n      jump\t// in\n        /* \"ROO_Repurchase/contracts/ROO_Repurchase.sol\":2291:2500  function addCaller(address _newCaller) public onlyOwner returns (bool) {... */\n    tag_11:\n      tag_24\n      0x04\n      dup1\n      calldatasize\n      sub\n      0x20\n      dup2\n      lt\n      iszero\n      tag_45\n      jumpi\n      0x00\n      dup1\n      revert\n    tag_45:\n      pop\n      calldataload\n      sub(shl(0xa0, 0x01), 0x01)\n      and\n      tag_46\n      jump\t// in\n        /* \"ROO_Repurchase/contracts/ROO_Repurchase.sol\":2840:2962  function isCaller(address _call) public view returns (bool) {... */\n    tag_12:\n      tag_24\n      0x04\n      dup1\n      calldatasize\n      sub\n      0x20\n      dup2\n      lt\n      iszero\n      tag_48\n      jumpi\n      0x00\n      dup1\n      revert\n    tag_48:\n      pop\n      calldataload\n      sub(shl(0xa0, 0x01), 0x01)\n      and\n      tag_49\n      jump\t// in\n        /* \"ROO_Repurchase/contracts/ROO_Repurchase.sol\":1502:1579  address public constant ROO_USDT = 0xC05bb03bB7bFEB243EF364F544c81dD9a07040a2 */\n    tag_13:\n      tag_32\n      tag_51\n      jump\t// in\n        /* \"ROO_Repurchase/contracts/library/Ownable.sol\":544:621  function owner() public view returns (address) {... */\n    tag_14:\n      tag_32\n      tag_53\n      jump\t// in\n        /* \"ROO_Repurchase/contracts/ROO_Repurchase.sol\":3168:3819  function swap(uint256 _amount) external onlyCaller returns (uint256 amountOut){... */\n    tag_15:\n      tag_30\n      0x04\n      dup1\n      calldatasize\n      sub\n      0x20\n      dup2\n      lt\n      iszero\n      tag_55\n      jumpi\n      0x00\n      dup1\n      revert\n    tag_55:\n      pop\n      calldataload\n      tag_56\n      jump\t// in\n        /* \"ROO_Repurchase/contracts/ROO_Repurchase.sol\":2968:3162  function getCaller(uint256 _index) public view returns (address){... */\n    tag_16:\n      tag_32\n      0x04\n      dup1\n      calldatasize\n      sub\n      0x20\n      dup2\n      lt\n      iszero\n      tag_58\n      jumpi\n      0x00\n      dup1\n      revert\n    tag_58:\n      pop\n      calldataload\n      tag_59\n      jump\t// in\n        /* \"ROO_Repurchase/contracts/ROO_Repurchase.sol\":1345:1418  address public constant USDT = 0xa71EdC38d189767582C38A3145b5873052c3e47a */\n    tag_17:\n      tag_32\n      tag_61\n      jump\t// in\n        /* \"ROO_Repurchase/contracts/ROO_Repurchase.sol\":1585:1668  address public constant destroyAddress = 0x000000000000000000000000000000000000dEaD */\n    tag_18:\n      tag_32\n      tag_63\n      jump\t// in\n        /* \"ROO_Repurchase/contracts/library/Ownable.sol\":1461:1701  function transferOwnership(address newOwner) public virtual onlyOwner {... */\n    tag_19:\n      tag_27\n      0x04\n      dup1\n      calldatasize\n      sub\n      0x20\n      dup2\n      lt\n      iszero\n      tag_65\n      jumpi\n      0x00\n      dup1\n      revert\n    tag_65:\n      pop\n      calldataload\n      sub(shl(0xa0, 0x01), 0x01)\n      and\n      tag_66\n      jump\t// in\n        /* \"ROO_Repurchase/contracts/ROO_Repurchase.sol\":1691:1722  address public emergencyAddress */\n    tag_20:\n      tag_32\n      tag_68\n      jump\t// in\n        /* \"ROO_Repurchase/contracts/ROO_Repurchase.sol\":2506:2718  function delCaller(address _delCaller) public onlyOwner returns (bool) {... */\n    tag_26:\n        /* \"ROO_Repurchase/contracts/ROO_Repurchase.sol\":2571:2575  bool */\n      0x00\n        /* \"ROO_Repurchase/contracts/library/Ownable.sol\":758:770  _msgSender() */\n      tag_70\n        /* \"ROO_Repurchase/contracts/library/Ownable.sol\":758:768  _msgSender */\n      tag_71\n        /* \"ROO_Repurchase/contracts/library/Ownable.sol\":758:770  _msgSender() */\n      jump\t// in\n    tag_70:\n        /* \"ROO_Repurchase/contracts/library/Ownable.sol\":748:754  _owner */\n      sload(0x00)\n      sub(shl(0xa0, 0x01), 0x01)\n      swap1\n      dup2\n      and\n        /* \"ROO_Repurchase/contracts/library/Ownable.sol\":748:770  _owner == _msgSender() */\n      swap2\n      and\n      eq\n        /* \"ROO_Repurchase/contracts/library/Ownable.sol\":740:807  require(_owner == _msgSender(), \"Ownable: caller is not the owner\") */\n      tag_72\n      jumpi\n      0x40\n      dup1\n      mload\n      shl(0xe5, 0x461bcd)\n      dup2\n      mstore\n      0x20\n      0x04\n      dup3\n      add\n      dup2\n      swap1\n      mstore\n      0x24\n      dup3\n      add\n      mstore\n      0x00\n      dup1\n      mload\n      0x20\n      data_9924ebdf1add33d25d4ef888e16131f0a5687b0580a36c21b5c301a6c462effe\n      dup4\n      codecopy\n      dup2\n      mload\n      swap2\n      mstore\n      0x44\n      dup3\n      add\n      mstore\n      swap1\n      mload\n      swap1\n      dup2\n      swap1\n      sub\n      0x64\n      add\n      swap1\n      revert\n    tag_72:\n      sub(shl(0xa0, 0x01), 0x01)\n        /* \"ROO_Repurchase/contracts/ROO_Repurchase.sol\":2595:2619  _delCaller != address(0) */\n      dup3\n      and\n        /* \"ROO_Repurchase/contracts/ROO_Repurchase.sol\":2587:2653  require(_delCaller != address(0), \"DelCaller is the zero address\") */\n      tag_74\n      jumpi\n      0x40\n      dup1\n      mload\n      shl(0xe5, 0x461bcd)\n      dup2\n      mstore\n      0x20\n      0x04\n      dup3\n      add\n      mstore\n      0x1d\n      0x24\n      dup3\n      add\n      mstore\n      0x44656c43616c6c657220697320746865207a65726f2061646472657373000000\n      0x44\n      dup3\n      add\n      mstore\n      swap1\n      mload\n      swap1\n      dup2\n      swap1\n      sub\n      0x64\n      add\n      swap1\n      revert\n    tag_74:\n        /* \"ROO_Repurchase/contracts/ROO_Repurchase.sol\":2670:2711  EnumerableSet.remove(_caller, _delCaller) */\n      tag_75\n        /* \"ROO_Repurchase/contracts/ROO_Repurchase.sol\":2691:2698  _caller */\n      0x01\n        /* \"ROO_Repurchase/contracts/ROO_Repurchase.sol\":2700:2710  _delCaller */\n      dup4\n        /* \"ROO_Repurchase/contracts/ROO_Repurchase.sol\":2670:2690  EnumerableSet.remove */\n      tag_76\n        /* \"ROO_Repurchase/contracts/ROO_Repurchase.sol\":2670:2711  EnumerableSet.remove(_caller, _delCaller) */\n      jump\t// in\n    tag_75:\n        /* \"ROO_Repurchase/contracts/ROO_Repurchase.sol\":2663:2711  return EnumerableSet.remove(_caller, _delCaller) */\n      swap3\n        /* \"ROO_Repurchase/contracts/ROO_Repurchase.sol\":2506:2718  function delCaller(address _delCaller) public onlyOwner returns (bool) {... */\n      swap2\n      pop\n      pop\n      jump\t// out\n        /* \"ROO_Repurchase/contracts/ROO_Repurchase.sol\":2108:2285  function setEmergencyAddress(address _newAddress) public onlyOwner {... */\n    tag_29:\n        /* \"ROO_Repurchase/contracts/library/Ownable.sol\":758:770  _msgSender() */\n      tag_78\n        /* \"ROO_Repurchase/contracts/library/Ownable.sol\":758:768  _msgSender */\n      tag_71\n        /* \"ROO_Repurchase/contracts/library/Ownable.sol\":758:770  _msgSender() */\n      jump\t// in\n    tag_78:\n        /* \"ROO_Repurchase/contracts/library/Ownable.sol\":748:754  _owner */\n      sload(0x00)\n      sub(shl(0xa0, 0x01), 0x01)\n      swap1\n      dup2\n      and\n        /* \"ROO_Repurchase/contracts/library/Ownable.sol\":748:770  _owner == _msgSender() */\n      swap2\n      and\n      eq\n        /* \"ROO_Repurchase/contracts/library/Ownable.sol\":740:807  require(_owner == _msgSender(), \"Ownable: caller is not the owner\") */\n      tag_79\n      jumpi\n      0x40\n      dup1\n      mload\n      shl(0xe5, 0x461bcd)\n      dup2\n      mstore\n      0x20\n      0x04\n      dup3\n      add\n      dup2\n      swap1\n      mstore\n      0x24\n      dup3\n      add\n      mstore\n      0x00\n      dup1\n      mload\n      0x20\n      data_9924ebdf1add33d25d4ef888e16131f0a5687b0580a36c21b5c301a6c462effe\n      dup4\n      codecopy\n      dup2\n      mload\n      swap2\n      mstore\n      0x44\n      dup3\n      add\n      mstore\n      swap1\n      mload\n      swap1\n      dup2\n      swap1\n      sub\n      0x64\n      add\n      swap1\n      revert\n    tag_79:\n      sub(shl(0xa0, 0x01), 0x01)\n        /* \"ROO_Repurchase/contracts/ROO_Repurchase.sol\":2193:2218  _newAddress != address(0) */\n      dup2\n      and\n        /* \"ROO_Repurchase/contracts/ROO_Repurchase.sol\":2185:2238  require(_newAddress != address(0), \"Is zero address\") */\n      tag_81\n      jumpi\n      0x40\n      dup1\n      mload\n      shl(0xe5, 0x461bcd)\n      dup2\n      mstore\n      0x20\n      0x04\n      dup3\n      add\n      mstore\n      0x0f\n      0x24\n      dup3\n      add\n      mstore\n      shl(0x88, 0x4973207a65726f2061646472657373)\n      0x44\n      dup3\n      add\n      mstore\n      swap1\n      mload\n      swap1\n      dup2\n      swap1\n      sub\n      0x64\n      add\n      swap1\n      revert\n    tag_81:\n        /* \"ROO_Repurchase/contracts/ROO_Repurchase.sol\":2248:2264  emergencyAddress */\n      0x03\n        /* \"ROO_Repurchase/contracts/ROO_Repurchase.sol\":2248:2278  emergencyAddress = _newAddress */\n      dup1\n      sload\n      not(sub(shl(0xa0, 0x01), 0x01))\n      and\n      sub(shl(0xa0, 0x01), 0x01)\n      swap3\n      swap1\n      swap3\n      and\n      swap2\n      swap1\n      swap2\n      or\n      swap1\n      sstore\n        /* \"ROO_Repurchase/contracts/ROO_Repurchase.sol\":2108:2285  function setEmergencyAddress(address _newAddress) public onlyOwner {... */\n      jump\t// out\n        /* \"ROO_Repurchase/contracts/ROO_Repurchase.sol\":2724:2834  function getCallerLength() public view returns (uint256) {... */\n    tag_31:\n        /* \"ROO_Repurchase/contracts/ROO_Repurchase.sol\":2772:2779  uint256 */\n      0x00\n        /* \"ROO_Repurchase/contracts/ROO_Repurchase.sol\":2798:2827  EnumerableSet.length(_caller) */\n      tag_83\n        /* \"ROO_Repurchase/contracts/ROO_Repurchase.sol\":2819:2826  _caller */\n      0x01\n        /* \"ROO_Repurchase/contracts/ROO_Repurchase.sol\":2798:2818  EnumerableSet.length */\n      tag_84\n        /* \"ROO_Repurchase/contracts/ROO_Repurchase.sol\":2798:2827  EnumerableSet.length(_caller) */\n      jump\t// in\n    tag_83:\n        /* \"ROO_Repurchase/contracts/ROO_Repurchase.sol\":2791:2827  return EnumerableSet.length(_caller) */\n      swap1\n      pop\n        /* \"ROO_Repurchase/contracts/ROO_Repurchase.sol\":2724:2834  function getCallerLength() public view returns (uint256) {... */\n      swap1\n      jump\t// out\n        /* \"ROO_Repurchase/contracts/ROO_Repurchase.sol\":1424:1496  address public constant ROO = 0xADdEb3A8fB46DDc3feE55085b6AD8DaB4C4fC771 */\n    tag_33:\n        /* \"ROO_Repurchase/contracts/ROO_Repurchase.sol\":1454:1496  0xADdEb3A8fB46DDc3feE55085b6AD8DaB4C4fC771 */\n      0xaddeb3a8fb46ddc3fee55085b6ad8dab4c4fc771\n        /* \"ROO_Repurchase/contracts/ROO_Repurchase.sol\":1424:1496  address public constant ROO = 0xADdEb3A8fB46DDc3feE55085b6AD8DaB4C4fC771 */\n      dup2\n      jump\t// out\n        /* \"ROO_Repurchase/contracts/ROO_Repurchase.sol\":2014:2102  function setAmountIn(uint256 _newIn) public onlyOwner {... */\n    tag_36:\n        /* \"ROO_Repurchase/contracts/library/Ownable.sol\":758:770  _msgSender() */\n      tag_86\n        /* \"ROO_Repurchase/contracts/library/Ownable.sol\":758:768  _msgSender */\n      tag_71\n        /* \"ROO_Repurchase/contracts/library/Ownable.sol\":758:770  _msgSender() */\n      jump\t// in\n    tag_86:\n        /* \"ROO_Repurchase/contracts/library/Ownable.sol\":748:754  _owner */\n      sload(0x00)\n      sub(shl(0xa0, 0x01), 0x01)\n      swap1\n      dup2\n      and\n        /* \"ROO_Repurchase/contracts/library/Ownable.sol\":748:770  _owner == _msgSender() */\n      swap2\n      and\n      eq\n        /* \"ROO_Repurchase/contracts/library/Ownable.sol\":740:807  require(_owner == _msgSender(), \"Ownable: caller is not the owner\") */\n      tag_87\n      jumpi\n      0x40\n      dup1\n      mload\n      shl(0xe5, 0x461bcd)\n      dup2\n      mstore\n      0x20\n      0x04\n      dup3\n      add\n      dup2\n      swap1\n      mstore\n      0x24\n      dup3\n      add\n      mstore\n      0x00\n      dup1\n      mload\n      0x20\n      data_9924ebdf1add33d25d4ef888e16131f0a5687b0580a36c21b5c301a6c462effe\n      dup4\n      codecopy\n      dup2\n      mload\n      swap2\n      mstore\n      0x44\n      dup3\n      add\n      mstore\n      swap1\n      mload\n      swap1\n      dup2\n      swap1\n      sub\n      0x64\n      add\n      swap1\n      revert\n    tag_87:\n        /* \"ROO_Repurchase/contracts/ROO_Repurchase.sol\":2078:2086  amountIn */\n      0x04\n        /* \"ROO_Repurchase/contracts/ROO_Repurchase.sol\":2078:2095  amountIn = _newIn */\n      sstore\n        /* \"ROO_Repurchase/contracts/ROO_Repurchase.sol\":2014:2102  function setAmountIn(uint256 _newIn) public onlyOwner {... */\n      jump\t// out\n        /* \"ROO_Repurchase/contracts/ROO_Repurchase.sol\":1745:1768  uint256 public amountIn */\n    tag_38:\n      sload(0x04)\n      dup2\n      jump\t// out\n        /* \"ROO_Repurchase/contracts/ROO_Repurchase.sol\":3932:4186  function emergencyWithdraw(address _token) public onlyOwner {... */\n    tag_41:\n        /* \"ROO_Repurchase/contracts/library/Ownable.sol\":758:770  _msgSender() */\n      tag_90\n        /* \"ROO_Repurchase/contracts/library/Ownable.sol\":758:768  _msgSender */\n      tag_71\n        /* \"ROO_Repurchase/contracts/library/Ownable.sol\":758:770  _msgSender() */\n      jump\t// in\n    tag_90:\n        /* \"ROO_Repurchase/contracts/library/Ownable.sol\":748:754  _owner */\n      sload(0x00)\n      sub(shl(0xa0, 0x01), 0x01)\n      swap1\n      dup2\n      and\n        /* \"ROO_Repurchase/contracts/library/Ownable.sol\":748:770  _owner == _msgSender() */\n      swap2\n      and\n      eq\n        /* \"ROO_Repurchase/contracts/library/Ownable.sol\":740:807  require(_owner == _msgSender(), \"Ownable: caller is not the owner\") */\n      tag_91\n      jumpi\n      0x40\n      dup1\n      mload\n      shl(0xe5, 0x461bcd)\n      dup2\n      mstore\n      0x20\n      0x04\n      dup3\n      add\n      dup2\n      swap1\n      mstore\n      0x24\n      dup3\n      add\n      mstore\n      0x00\n      dup1\n      mload\n      0x20\n      data_9924ebdf1add33d25d4ef888e16131f0a5687b0580a36c21b5c301a6c462effe\n      dup4\n      codecopy\n      dup2\n      mload\n      swap2\n      mstore\n      0x44\n      dup3\n      add\n      mstore\n      swap1\n      mload\n      swap1\n      dup2\n      swap1\n      sub\n      0x64\n      add\n      swap1\n      revert\n    tag_91:\n        /* \"ROO_Repurchase/contracts/ROO_Repurchase.sol\":4052:4053  0 */\n      0x00\n        /* \"ROO_Repurchase/contracts/ROO_Repurchase.sol\":4017:4023  _token */\n      dup2\n      sub(shl(0xa0, 0x01), 0x01)\n        /* \"ROO_Repurchase/contracts/ROO_Repurchase.sol\":4010:4034  IERC20(_token).balanceOf */\n      and\n      0x70a08231\n        /* \"ROO_Repurchase/contracts/ROO_Repurchase.sol\":4043:4047  this */\n      address\n        /* \"ROO_Repurchase/contracts/ROO_Repurchase.sol\":4010:4049  IERC20(_token).balanceOf(address(this)) */\n      mload(0x40)\n      dup3\n      0xffffffff\n      and\n      0xe0\n      shl\n      dup2\n      mstore\n      0x04\n      add\n      dup1\n      dup3\n      sub(shl(0xa0, 0x01), 0x01)\n      and\n      dup2\n      mstore\n      0x20\n      add\n      swap2\n      pop\n      pop\n      0x20\n      mload(0x40)\n      dup1\n      dup4\n      sub\n      dup2\n      dup7\n      dup1\n      extcodesize\n      iszero\n      dup1\n      iszero\n      tag_93\n      jumpi\n      0x00\n      dup1\n      revert\n    tag_93:\n      pop\n      gas\n      staticcall\n      iszero\n      dup1\n      iszero\n      tag_95\n      jumpi\n      returndatasize\n      0x00\n      dup1\n      returndatacopy\n      revert(0x00, returndatasize)\n    tag_95:\n      pop\n      pop\n      pop\n      pop\n      mload(0x40)\n      returndatasize\n      0x20\n      dup2\n      lt\n      iszero\n      tag_96\n      jumpi\n      0x00\n      dup1\n      revert\n    tag_96:\n      pop\n      mload\n        /* \"ROO_Repurchase/contracts/ROO_Repurchase.sol\":4010:4053  IERC20(_token).balanceOf(address(this)) > 0 */\n      gt\n        /* \"ROO_Repurchase/contracts/ROO_Repurchase.sol\":4002:4087  require(IERC20(_token).balanceOf(address(this)) > 0, \"Insufficient contract balance\") */\n      tag_97\n      jumpi\n      0x40\n      dup1\n      mload\n      shl(0xe5, 0x461bcd)\n      dup2\n      mstore\n      0x20\n      0x04\n      dup3\n      add\n      mstore\n      0x1d\n      0x24\n      dup3\n      add\n      mstore\n      0x496e73756666696369656e7420636f6e74726163742062616c616e6365000000\n      0x44\n      dup3\n      add\n      mstore\n      swap1\n      mload\n      swap1\n      dup2\n      swap1\n      sub\n      0x64\n      add\n      swap1\n      revert\n    tag_97:\n        /* \"ROO_Repurchase/contracts/ROO_Repurchase.sol\":4121:4137  emergencyAddress */\n      sload(0x03)\n        /* \"ROO_Repurchase/contracts/ROO_Repurchase.sol\":4139:4178  IERC20(_token).balanceOf(address(this)) */\n      0x40\n      dup1\n      mload\n      shl(0xe0, 0x70a08231)\n      dup2\n      mstore\n        /* \"ROO_Repurchase/contracts/ROO_Repurchase.sol\":4172:4176  this */\n      address\n        /* \"ROO_Repurchase/contracts/ROO_Repurchase.sol\":4139:4178  IERC20(_token).balanceOf(address(this)) */\n      0x04\n      dup3\n      add\n      mstore\n      swap1\n      mload\n      sub(shl(0xa0, 0x01), 0x01)\n        /* \"ROO_Repurchase/contracts/ROO_Repurchase.sol\":4097:4120  IERC20(_token).transfer */\n      dup1\n      dup6\n      and\n      swap4\n      0xa9059cbb\n      swap4\n        /* \"ROO_Repurchase/contracts/ROO_Repurchase.sol\":4121:4137  emergencyAddress */\n      swap2\n      and\n      swap2\n        /* \"ROO_Repurchase/contracts/ROO_Repurchase.sol\":4097:4120  IERC20(_token).transfer */\n      dup5\n      swap2\n        /* \"ROO_Repurchase/contracts/ROO_Repurchase.sol\":4139:4163  IERC20(_token).balanceOf */\n      0x70a08231\n      swap2\n        /* \"ROO_Repurchase/contracts/ROO_Repurchase.sol\":4139:4178  IERC20(_token).balanceOf(address(this)) */\n      0x24\n      dup1\n      dup4\n      add\n      swap3\n      0x20\n      swap3\n      swap2\n      swap1\n      dup3\n      swap1\n      sub\n      add\n      dup2\n        /* \"ROO_Repurchase/contracts/ROO_Repurchase.sol\":4097:4120  IERC20(_token).transfer */\n      dup7\n        /* \"ROO_Repurchase/contracts/ROO_Repurchase.sol\":4139:4178  IERC20(_token).balanceOf(address(this)) */\n      dup1\n      extcodesize\n      iszero\n      dup1\n      iszero\n      tag_98\n      jumpi\n      0x00\n      dup1\n      revert\n    tag_98:\n      pop\n      gas\n      staticcall\n      iszero\n      dup1\n      iszero\n      tag_100\n      jumpi\n      returndatasize\n      0x00\n      dup1\n      returndatacopy\n      revert(0x00, returndatasize)\n    tag_100:\n      pop\n      pop\n      pop\n      pop\n      mload(0x40)\n      returndatasize\n      0x20\n      dup2\n      lt\n      iszero\n      tag_101\n      jumpi\n      0x00\n      dup1\n      revert\n    tag_101:\n      pop\n      mload\n        /* \"ROO_Repurchase/contracts/ROO_Repurchase.sol\":4097:4179  IERC20(_token).transfer(emergencyAddress, IERC20(_token).balanceOf(address(this))) */\n      0x40\n      dup1\n      mload\n      not(sub(shl(0xe0, 0x01), 0x01))\n      0xe0\n      dup7\n      swap1\n      shl\n      and\n      dup2\n      mstore\n      sub(shl(0xa0, 0x01), 0x01)\n      swap1\n      swap4\n      and\n      0x04\n      dup5\n      add\n      mstore\n      0x24\n      dup4\n      add\n      swap2\n      swap1\n      swap2\n      mstore\n      mload\n      0x44\n      dup1\n      dup4\n      add\n      swap3\n        /* \"ROO_Repurchase/contracts/ROO_Repurchase.sol\":4139:4178  IERC20(_token).balanceOf(address(this)) */\n      0x20\n      swap3\n        /* \"ROO_Repurchase/contracts/ROO_Repurchase.sol\":4097:4179  IERC20(_token).transfer(emergencyAddress, IERC20(_token).balanceOf(address(this))) */\n      swap2\n      swap1\n      dup3\n      swap1\n      sub\n      add\n      dup2\n      0x00\n      dup8\n      dup1\n      extcodesize\n      iszero\n      dup1\n      iszero\n      tag_102\n      jumpi\n      0x00\n      dup1\n      revert\n    tag_102:\n      pop\n      gas\n      call\n      iszero\n      dup1\n      iszero\n      tag_104\n      jumpi\n      returndatasize\n      0x00\n      dup1\n      returndatacopy\n      revert(0x00, returndatasize)\n    tag_104:\n      pop\n      pop\n      pop\n      pop\n      mload(0x40)\n      returndatasize\n      0x20\n      dup2\n      lt\n      iszero\n      tag_105\n      jumpi\n      0x00\n      dup1\n      revert\n    tag_105:\n      pop\n      pop\n      pop\n        /* \"ROO_Repurchase/contracts/ROO_Repurchase.sol\":3932:4186  function emergencyWithdraw(address _token) public onlyOwner {... */\n      jump\t// out\n        /* \"ROO_Repurchase/contracts/library/Ownable.sol\":1167:1312  function renounceOwnership() public virtual onlyOwner {... */\n    tag_43:\n        /* \"ROO_Repurchase/contracts/library/Ownable.sol\":758:770  _msgSender() */\n      tag_107\n        /* \"ROO_Repurchase/contracts/library/Ownable.sol\":758:768  _msgSender */\n      tag_71\n        /* \"ROO_Repurchase/contracts/library/Ownable.sol\":758:770  _msgSender() */\n      jump\t// in\n    tag_107:\n        /* \"ROO_Repurchase/contracts/library/Ownable.sol\":748:754  _owner */\n      sload(0x00)\n      sub(shl(0xa0, 0x01), 0x01)\n      swap1\n      dup2\n      and\n        /* \"ROO_Repurchase/contracts/library/Ownable.sol\":748:770  _owner == _msgSender() */\n      swap2\n      and\n      eq\n        /* \"ROO_Repurchase/contracts/library/Ownable.sol\":740:807  require(_owner == _msgSender(), \"Ownable: caller is not the owner\") */\n      tag_108\n      jumpi\n      0x40\n      dup1\n      mload\n      shl(0xe5, 0x461bcd)\n      dup2\n      mstore\n      0x20\n      0x04\n      dup3\n      add\n      dup2\n      swap1\n      mstore\n      0x24\n      dup3\n      add\n      mstore\n      0x00\n      dup1\n      mload\n      0x20\n      data_9924ebdf1add33d25d4ef888e16131f0a5687b0580a36c21b5c301a6c462effe\n      dup4\n      codecopy\n      dup2\n      mload\n      swap2\n      mstore\n      0x44\n      dup3\n      add\n      mstore\n      swap1\n      mload\n      swap1\n      dup2\n      swap1\n      sub\n      0x64\n      add\n      swap1\n      revert\n    tag_108:\n        /* \"ROO_Repurchase/contracts/library/Ownable.sol\":1273:1274  0 */\n      0x00\n        /* \"ROO_Repurchase/contracts/library/Ownable.sol\":1257:1263  _owner */\n      dup1\n      sload\n        /* \"ROO_Repurchase/contracts/library/Ownable.sol\":1236:1276  OwnershipTransferred(_owner, address(0)) */\n      mload(0x40)\n      sub(shl(0xa0, 0x01), 0x01)\n        /* \"ROO_Repurchase/contracts/library/Ownable.sol\":1257:1263  _owner */\n      swap1\n      swap2\n      and\n      swap1\n        /* \"ROO_Repurchase/contracts/library/Ownable.sol\":1236:1276  OwnershipTransferred(_owner, address(0)) */\n      0x8be0079c531659141344cd1fd0a4f28419497f9722a3daafe3b4186f6b6457e0\n      swap1\n        /* \"ROO_Repurchase/contracts/library/Ownable.sol\":1273:1274  0 */\n      dup4\n      swap1\n        /* \"ROO_Repurchase/contracts/library/Ownable.sol\":1236:1276  OwnershipTransferred(_owner, address(0)) */\n      log3\n        /* \"ROO_Repurchase/contracts/library/Ownable.sol\":1303:1304  0 */\n      0x00\n        /* \"ROO_Repurchase/contracts/library/Ownable.sol\":1286:1305  _owner = address(0) */\n      dup1\n      sload\n      not(sub(shl(0xa0, 0x01), 0x01))\n      and\n      swap1\n      sstore\n        /* \"ROO_Repurchase/contracts/library/Ownable.sol\":1167:1312  function renounceOwnership() public virtual onlyOwner {... */\n      jump\t// out\n        /* \"ROO_Repurchase/contracts/ROO_Repurchase.sol\":2291:2500  function addCaller(address _newCaller) public onlyOwner returns (bool) {... */\n    tag_46:\n        /* \"ROO_Repurchase/contracts/ROO_Repurchase.sol\":2356:2360  bool */\n      0x00\n        /* \"ROO_Repurchase/contracts/library/Ownable.sol\":758:770  _msgSender() */\n      tag_111\n        /* \"ROO_Repurchase/contracts/library/Ownable.sol\":758:768  _msgSender */\n      tag_71\n        /* \"ROO_Repurchase/contracts/library/Ownable.sol\":758:770  _msgSender() */\n      jump\t// in\n    tag_111:\n        /* \"ROO_Repurchase/contracts/library/Ownable.sol\":748:754  _owner */\n      sload(0x00)\n      sub(shl(0xa0, 0x01), 0x01)\n      swap1\n      dup2\n      and\n        /* \"ROO_Repurchase/contracts/library/Ownable.sol\":748:770  _owner == _msgSender() */\n      swap2\n      and\n      eq\n        /* \"ROO_Repurchase/contracts/library/Ownable.sol\":740:807  require(_owner == _msgSender(), \"Ownable: caller is not the owner\") */\n      tag_112\n      jumpi\n      0x40\n      dup1\n      mload\n      shl(0xe5, 0x461bcd)\n      dup2\n      mstore\n      0x20\n      0x04\n      dup3\n      add\n      dup2\n      swap1\n      mstore\n      0x24\n      dup3\n      add\n      mstore\n      0x00\n      dup1\n      mload\n      0x20\n      data_9924ebdf1add33d25d4ef888e16131f0a5687b0580a36c21b5c301a6c462effe\n      dup4\n      codecopy\n      dup2\n      mload\n      swap2\n      mstore\n      0x44\n      dup3\n      add\n      mstore\n      swap1\n      mload\n      swap1\n      dup2\n      swap1\n      sub\n      0x64\n      add\n      swap1\n      revert\n    tag_112:\n      sub(shl(0xa0, 0x01), 0x01)\n        /* \"ROO_Repurchase/contracts/ROO_Repurchase.sol\":2380:2404  _newCaller != address(0) */\n      dup3\n      and\n        /* \"ROO_Repurchase/contracts/ROO_Repurchase.sol\":2372:2438  require(_newCaller != address(0), \"NewCaller is the zero address\") */\n      tag_114\n      jumpi\n      0x40\n      dup1\n      mload\n      shl(0xe5, 0x461bcd)\n      dup2\n      mstore\n      0x20\n      0x04\n      dup3\n      add\n      mstore\n      0x1d\n      0x24\n      dup3\n      add\n      mstore\n      0x4e657743616c6c657220697320746865207a65726f2061646472657373000000\n      0x44\n      dup3\n      add\n      mstore\n      swap1\n      mload\n      swap1\n      dup2\n      swap1\n      sub\n      0x64\n      add\n      swap1\n      revert\n    tag_114:\n        /* \"ROO_Repurchase/contracts/ROO_Repurchase.sol\":2455:2493  EnumerableSet.add(_caller, _newCaller) */\n      tag_75\n        /* \"ROO_Repurchase/contracts/ROO_Repurchase.sol\":2473:2480  _caller */\n      0x01\n        /* \"ROO_Repurchase/contracts/ROO_Repurchase.sol\":2482:2492  _newCaller */\n      dup4\n        /* \"ROO_Repurchase/contracts/ROO_Repurchase.sol\":2455:2472  EnumerableSet.add */\n      tag_116\n        /* \"ROO_Repurchase/contracts/ROO_Repurchase.sol\":2455:2493  EnumerableSet.add(_caller, _newCaller) */\n      jump\t// in\n        /* \"ROO_Repurchase/contracts/ROO_Repurchase.sol\":2840:2962  function isCaller(address _call) public view returns (bool) {... */\n    tag_49:\n        /* \"ROO_Repurchase/contracts/ROO_Repurchase.sol\":2894:2898  bool */\n      0x00\n        /* \"ROO_Repurchase/contracts/ROO_Repurchase.sol\":2917:2955  EnumerableSet.contains(_caller, _call) */\n      tag_75\n        /* \"ROO_Repurchase/contracts/ROO_Repurchase.sol\":2940:2947  _caller */\n      0x01\n        /* \"ROO_Repurchase/contracts/ROO_Repurchase.sol\":2949:2954  _call */\n      dup4\n        /* \"ROO_Repurchase/contracts/ROO_Repurchase.sol\":2917:2939  EnumerableSet.contains */\n      tag_119\n        /* \"ROO_Repurchase/contracts/ROO_Repurchase.sol\":2917:2955  EnumerableSet.contains(_caller, _call) */\n      jump\t// in\n        /* \"ROO_Repurchase/contracts/ROO_Repurchase.sol\":1502:1579  address public constant ROO_USDT = 0xC05bb03bB7bFEB243EF364F544c81dD9a07040a2 */\n    tag_51:\n        /* \"ROO_Repurchase/contracts/ROO_Repurchase.sol\":1537:1579  0xC05bb03bB7bFEB243EF364F544c81dD9a07040a2 */\n      0xc05bb03bb7bfeb243ef364f544c81dd9a07040a2\n        /* \"ROO_Repurchase/contracts/ROO_Repurchase.sol\":1502:1579  address public constant ROO_USDT = 0xC05bb03bB7bFEB243EF364F544c81dD9a07040a2 */\n      dup2\n      jump\t// out\n        /* \"ROO_Repurchase/contracts/library/Ownable.sol\":544:621  function owner() public view returns (address) {... */\n    tag_53:\n        /* \"ROO_Repurchase/contracts/library/Ownable.sol\":582:589  address */\n      0x00\n        /* \"ROO_Repurchase/contracts/library/Ownable.sol\":608:614  _owner */\n      sload\n      sub(shl(0xa0, 0x01), 0x01)\n      and\n        /* \"ROO_Repurchase/contracts/library/Ownable.sol\":544:621  function owner() public view returns (address) {... */\n      swap1\n      jump\t// out\n        /* \"ROO_Repurchase/contracts/ROO_Repurchase.sol\":3168:3819  function swap(uint256 _amount) external onlyCaller returns (uint256 amountOut){... */\n    tag_56:\n        /* \"ROO_Repurchase/contracts/ROO_Repurchase.sol\":3228:3245  uint256 amountOut */\n      0x00\n        /* \"ROO_Repurchase/contracts/ROO_Repurchase.sol\":3869:3889  isCaller(msg.sender) */\n      tag_122\n        /* \"ROO_Repurchase/contracts/ROO_Repurchase.sol\":3878:3888  msg.sender */\n      caller\n        /* \"ROO_Repurchase/contracts/ROO_Repurchase.sol\":3869:3877  isCaller */\n      tag_49\n        /* \"ROO_Repurchase/contracts/ROO_Repurchase.sol\":3869:3889  isCaller(msg.sender) */\n      jump\t// in\n    tag_122:\n        /* \"ROO_Repurchase/contracts/ROO_Repurchase.sol\":3861:3908  require(isCaller(msg.sender), \"Not the caller\") */\n      tag_123\n      jumpi\n      0x40\n      dup1\n      mload\n      shl(0xe5, 0x461bcd)\n      dup2\n      mstore\n      0x20\n      0x04\n      dup3\n      add\n      mstore\n      0x0e\n      0x24\n      dup3\n      add\n      mstore\n      shl(0x91, 0x2737ba103a34329031b0b63632b9)\n      0x44\n      dup3\n      add\n      mstore\n      swap1\n      mload\n      swap1\n      dup2\n      swap1\n      sub\n      0x64\n      add\n      swap1\n      revert\n    tag_123:\n        /* \"ROO_Repurchase/contracts/ROO_Repurchase.sol\":3274:3275  0 */\n      0x00\n        /* \"ROO_Repurchase/contracts/ROO_Repurchase.sol\":3264:3271  _amount */\n      dup3\n        /* \"ROO_Repurchase/contracts/ROO_Repurchase.sol\":3264:3275  _amount > 0 */\n      gt\n        /* \"ROO_Repurchase/contracts/ROO_Repurchase.sol\":3256:3312  require(_amount > 0, \"Amount must be greater than zero\") */\n      tag_125\n      jumpi\n      0x40\n      dup1\n      mload\n      shl(0xe5, 0x461bcd)\n      dup2\n      mstore\n      0x20\n      0x04\n      dup3\n      add\n      dup2\n      swap1\n      mstore\n      0x24\n      dup3\n      add\n      mstore\n      0x416d6f756e74206d7573742062652067726561746572207468616e207a65726f\n      0x44\n      dup3\n      add\n      mstore\n      swap1\n      mload\n      swap1\n      dup2\n      swap1\n      sub\n      0x64\n      add\n      swap1\n      revert\n    tag_125:\n        /* \"ROO_Repurchase/contracts/ROO_Repurchase.sol\":3322:3330  amountIn */\n      0x04\n        /* \"ROO_Repurchase/contracts/ROO_Repurchase.sol\":3322:3340  amountIn = _amount */\n      dup3\n      dup2\n      sstore\n        /* \"ROO_Repurchase/contracts/ROO_Repurchase.sol\":3367:3404  IERC20(USDT).balanceOf(address(this)) */\n      0x40\n      dup1\n      mload\n      shl(0xe0, 0x70a08231)\n      dup2\n      mstore\n        /* \"ROO_Repurchase/contracts/ROO_Repurchase.sol\":3398:3402  this */\n      address\n        /* \"ROO_Repurchase/contracts/ROO_Repurchase.sol\":3367:3404  IERC20(USDT).balanceOf(address(this)) */\n      swap3\n      dup2\n      add\n      swap3\n      swap1\n      swap3\n      mstore\n      mload\n        /* \"ROO_Repurchase/contracts/ROO_Repurchase.sol\":3333:3340  _amount */\n      dup4\n      swap2\n        /* \"ROO_Repurchase/contracts/ROO_Repurchase.sol\":1376:1418  0xa71EdC38d189767582C38A3145b5873052c3e47a */\n      0xa71edc38d189767582c38a3145b5873052c3e47a\n      swap2\n        /* \"ROO_Repurchase/contracts/ROO_Repurchase.sol\":3367:3389  IERC20(USDT).balanceOf */\n      0x70a08231\n      swap2\n        /* \"ROO_Repurchase/contracts/ROO_Repurchase.sol\":3367:3404  IERC20(USDT).balanceOf(address(this)) */\n      0x24\n      dup1\n      dup3\n      add\n      swap3\n      0x20\n      swap3\n      swap1\n      swap2\n      swap1\n      dup3\n      swap1\n      sub\n      add\n      dup2\n        /* \"ROO_Repurchase/contracts/ROO_Repurchase.sol\":1376:1418  0xa71EdC38d189767582C38A3145b5873052c3e47a */\n      dup7\n        /* \"ROO_Repurchase/contracts/ROO_Repurchase.sol\":3367:3404  IERC20(USDT).balanceOf(address(this)) */\n      dup1\n      extcodesize\n      iszero\n      dup1\n      iszero\n      tag_126\n      jumpi\n      0x00\n      dup1\n      revert\n    tag_126:\n      pop\n      gas\n      staticcall\n      iszero\n      dup1\n      iszero\n      tag_128\n      jumpi\n      returndatasize\n      0x00\n      dup1\n      returndatacopy\n      revert(0x00, returndatasize)\n    tag_128:\n      pop\n      pop\n      pop\n      pop\n      mload(0x40)\n      returndatasize\n      0x20\n      dup2\n      lt\n      iszero\n      tag_129\n      jumpi\n      0x00\n      dup1\n      revert\n    tag_129:\n      pop\n      mload\n        /* \"ROO_Repurchase/contracts/ROO_Repurchase.sol\":3367:3416  IERC20(USDT).balanceOf(address(this)) >= amountIn */\n      lt\n      iszero\n        /* \"ROO_Repurchase/contracts/ROO_Repurchase.sol\":3359:3450  require(IERC20(USDT).balanceOf(address(this)) >= amountIn, \"Insufficient contract balance\") */\n      tag_130\n      jumpi\n      0x40\n      dup1\n      mload\n      shl(0xe5, 0x461bcd)\n      dup2\n      mstore\n      0x20\n      0x04\n      dup3\n      add\n      mstore\n      0x1d\n      0x24\n      dup3\n      add\n      mstore\n      0x496e73756666696369656e7420636f6e74726163742062616c616e6365000000\n      0x44\n      dup3\n      add\n      mstore\n      swap1\n      mload\n      swap1\n      dup2\n      swap1\n      sub\n      0x64\n      add\n      swap1\n      revert\n    tag_130:\n        /* \"ROO_Repurchase/contracts/ROO_Repurchase.sol\":3461:3477  uint256 reserve0 */\n      0x00\n        /* \"ROO_Repurchase/contracts/ROO_Repurchase.sol\":3479:3495  uint256 reserve1 */\n      dup1\n        /* \"ROO_Repurchase/contracts/ROO_Repurchase.sol\":1537:1579  0xC05bb03bB7bFEB243EF364F544c81dD9a07040a2 */\n      0xc05bb03bb7bfeb243ef364f544c81dd9a07040a2\n      sub(shl(0xa0, 0x01), 0x01)\n        /* \"ROO_Repurchase/contracts/ROO_Repurchase.sol\":3500:3530  IBxhPair(ROO_USDT).getReserves */\n      and\n      0x0902f1ac\n        /* \"ROO_Repurchase/contracts/ROO_Repurchase.sol\":3500:3532  IBxhPair(ROO_USDT).getReserves() */\n      mload(0x40)\n      dup2\n      0xffffffff\n      and\n      0xe0\n      shl\n      dup2\n      mstore\n      0x04\n      add\n      0x60\n      mload(0x40)\n      dup1\n      dup4\n      sub\n      dup2\n      dup7\n      dup1\n      extcodesize\n      iszero\n      dup1\n      iszero\n      tag_131\n      jumpi\n      0x00\n      dup1\n      revert\n    tag_131:\n      pop\n      gas\n      staticcall\n      iszero\n      dup1\n      iszero\n      tag_133\n      jumpi\n      returndatasize\n      0x00\n      dup1\n      returndatacopy\n      revert(0x00, returndatasize)\n    tag_133:\n      pop\n      pop\n      pop\n      pop\n      mload(0x40)\n      returndatasize\n      0x60\n      dup2\n      lt\n      iszero\n      tag_134\n      jumpi\n      0x00\n      dup1\n      revert\n    tag_134:\n      pop\n      dup1\n      mload\n      0x20\n      swap1\n      swap2\n      add\n      mload\n        /* \"ROO_Repurchase/contracts/ROO_Repurchase.sol\":3568:3576  amountIn */\n      sload(0x04)\n        /* \"ROO_Repurchase/contracts/ROO_Repurchase.sol\":3460:3532  (uint256 reserve0, uint256 reserve1,) = IBxhPair(ROO_USDT).getReserves() */\n      0xffffffffffffffffffffffffffff\n      swap3\n      dup4\n      and\n      swap5\n      pop\n      swap2\n      and\n      swap2\n      pop\n        /* \"ROO_Repurchase/contracts/ROO_Repurchase.sol\":3542:3565  uint256 amountInWithFee */\n      0x00\n      swap1\n        /* \"ROO_Repurchase/contracts/ROO_Repurchase.sol\":3568:3585  amountIn.mul(997) */\n      tag_135\n      swap1\n        /* \"ROO_Repurchase/contracts/ROO_Repurchase.sol\":3581:3584  997 */\n      0x03e5\n        /* \"ROO_Repurchase/contracts/ROO_Repurchase.sol\":3568:3580  amountIn.mul */\n      tag_136\n        /* \"ROO_Repurchase/contracts/ROO_Repurchase.sol\":3568:3585  amountIn.mul(997) */\n      jump\t// in\n    tag_135:\n        /* \"ROO_Repurchase/contracts/ROO_Repurchase.sol\":3542:3585  uint256 amountInWithFee = amountIn.mul(997) */\n      swap1\n      pop\n        /* \"ROO_Repurchase/contracts/ROO_Repurchase.sol\":3641:3680  reserve1.mul(1000).add(amountInWithFee) */\n      tag_137\n        /* \"ROO_Repurchase/contracts/ROO_Repurchase.sol\":3542:3585  uint256 amountInWithFee = amountIn.mul(997) */\n      dup2\n        /* \"ROO_Repurchase/contracts/ROO_Repurchase.sol\":3641:3659  reserve1.mul(1000) */\n      tag_138\n        /* \"ROO_Repurchase/contracts/ROO_Repurchase.sol\":3641:3649  reserve1 */\n      dup5\n        /* \"ROO_Repurchase/contracts/ROO_Repurchase.sol\":3654:3658  1000 */\n      0x03e8\n        /* \"ROO_Repurchase/contracts/ROO_Repurchase.sol\":3641:3653  reserve1.mul */\n      tag_136\n        /* \"ROO_Repurchase/contracts/ROO_Repurchase.sol\":3641:3659  reserve1.mul(1000) */\n      jump\t// in\n    tag_138:\n        /* \"ROO_Repurchase/contracts/ROO_Repurchase.sol\":3641:3663  reserve1.mul(1000).add */\n      swap1\n      tag_139\n        /* \"ROO_Repurchase/contracts/ROO_Repurchase.sol\":3641:3680  reserve1.mul(1000).add(amountInWithFee) */\n      jump\t// in\n    tag_137:\n        /* \"ROO_Repurchase/contracts/ROO_Repurchase.sol\":3607:3638  amountIn.mul(997).mul(reserve0) */\n      tag_140\n        /* \"ROO_Repurchase/contracts/ROO_Repurchase.sol\":3629:3637  reserve0 */\n      dup5\n        /* \"ROO_Repurchase/contracts/ROO_Repurchase.sol\":3607:3624  amountIn.mul(997) */\n      tag_141\n        /* \"ROO_Repurchase/contracts/ROO_Repurchase.sol\":3620:3623  997 */\n      0x03e5\n        /* \"ROO_Repurchase/contracts/ROO_Repurchase.sol\":3607:3615  amountIn */\n      sload(0x04)\n        /* \"ROO_Repurchase/contracts/ROO_Repurchase.sol\":3607:3619  amountIn.mul */\n      tag_136\n      swap1\n        /* \"ROO_Repurchase/contracts/ROO_Repurchase.sol\":3607:3624  amountIn.mul(997) */\n      swap2\n      swap1\n      0xffffffff\n      and\n      jump\t// in\n    tag_141:\n        /* \"ROO_Repurchase/contracts/ROO_Repurchase.sol\":3607:3628  amountIn.mul(997).mul */\n      swap1\n      tag_136\n        /* \"ROO_Repurchase/contracts/ROO_Repurchase.sol\":3607:3638  amountIn.mul(997).mul(reserve0) */\n      jump\t// in\n    tag_140:\n        /* \"ROO_Repurchase/contracts/ROO_Repurchase.sol\":3607:3680  amountIn.mul(997).mul(reserve0) / reserve1.mul(1000).add(amountInWithFee) */\n      dup2\n      tag_142\n      jumpi\n      invalid\n    tag_142:\n        /* \"ROO_Repurchase/contracts/ROO_Repurchase.sol\":3726:3734  amountIn */\n      sload(0x04)\n        /* \"ROO_Repurchase/contracts/ROO_Repurchase.sol\":3607:3680  amountIn.mul(997).mul(reserve0) / reserve1.mul(1000).add(amountInWithFee) */\n      swap2\n      swap1\n      div\n      swap5\n      pop\n        /* \"ROO_Repurchase/contracts/ROO_Repurchase.sol\":3690:3735  IERC20(USDT).safeTransfer(ROO_USDT, amountIn) */\n      tag_143\n      swap1\n        /* \"ROO_Repurchase/contracts/ROO_Repurchase.sol\":1376:1418  0xa71EdC38d189767582C38A3145b5873052c3e47a */\n      0xa71edc38d189767582c38a3145b5873052c3e47a\n      swap1\n        /* \"ROO_Repurchase/contracts/ROO_Repurchase.sol\":1537:1579  0xC05bb03bB7bFEB243EF364F544c81dD9a07040a2 */\n      0xc05bb03bb7bfeb243ef364f544c81dd9a07040a2\n      swap1\n        /* \"ROO_Repurchase/contracts/ROO_Repurchase.sol\":3690:3715  IERC20(USDT).safeTransfer */\n      tag_144\n        /* \"ROO_Repurchase/contracts/ROO_Repurchase.sol\":3690:3735  IERC20(USDT).safeTransfer(ROO_USDT, amountIn) */\n      jump\t// in\n    tag_143:\n        /* \"ROO_Repurchase/contracts/ROO_Repurchase.sol\":3799:3811  new bytes(0) */\n      0x40\n      dup1\n      mload\n        /* \"ROO_Repurchase/contracts/ROO_Repurchase.sol\":3780:3781  0 */\n      0x00\n        /* \"ROO_Repurchase/contracts/ROO_Repurchase.sol\":3799:3811  new bytes(0) */\n      dup1\n      dup3\n      mstore\n      0x20\n      dup3\n      add\n      swap3\n      dup4\n      swap1\n      mstore\n      shl(0xe0, 0x022c0d9f)\n        /* \"ROO_Repurchase/contracts/ROO_Repurchase.sol\":3745:3812  IBxhPair(ROO_USDT).swap(amountOut, 0, destroyAddress, new bytes(0)) */\n      dup4\n      mstore\n      0x24\n      dup3\n      add\n      dup8\n      dup2\n      mstore\n      0x44\n      dup4\n      add\n      dup3\n      swap1\n      mstore\n        /* \"ROO_Repurchase/contracts/ROO_Repurchase.sol\":1626:1668  0x000000000000000000000000000000000000dEaD */\n      0xdead\n        /* \"ROO_Repurchase/contracts/ROO_Repurchase.sol\":3745:3812  IBxhPair(ROO_USDT).swap(amountOut, 0, destroyAddress, new bytes(0)) */\n      0x64\n      dup5\n      add\n      dup2\n      swap1\n      mstore\n      0x80\n      0x84\n      dup6\n      add\n      swap1\n      dup2\n      mstore\n      dup5\n      mload\n      0xa4\n      dup7\n      add\n      dup2\n      swap1\n      mstore\n        /* \"ROO_Repurchase/contracts/ROO_Repurchase.sol\":1537:1579  0xC05bb03bB7bFEB243EF364F544c81dD9a07040a2 */\n      0xc05bb03bb7bfeb243ef364f544c81dd9a07040a2\n      swap7\n        /* \"ROO_Repurchase/contracts/ROO_Repurchase.sol\":3745:3768  IBxhPair(ROO_USDT).swap */\n      0x022c0d9f\n      swap7\n        /* \"ROO_Repurchase/contracts/ROO_Repurchase.sol\":3769:3778  amountOut */\n      dup13\n      swap7\n        /* \"ROO_Repurchase/contracts/ROO_Repurchase.sol\":3780:3781  0 */\n      swap6\n        /* \"ROO_Repurchase/contracts/ROO_Repurchase.sol\":3799:3811  new bytes(0) */\n      swap1\n      swap4\n        /* \"ROO_Repurchase/contracts/ROO_Repurchase.sol\":3745:3812  IBxhPair(ROO_USDT).swap(amountOut, 0, destroyAddress, new bytes(0)) */\n      swap1\n      swap3\n      swap1\n      swap2\n      0xc4\n      dup6\n      add\n      swap2\n      dup1\n      dup4\n        /* \"ROO_Repurchase/contracts/ROO_Repurchase.sol\":3799:3811  new bytes(0) */\n      dup4\n        /* \"ROO_Repurchase/contracts/ROO_Repurchase.sol\":3780:3781  0 */\n      dup11\n        /* \"ROO_Repurchase/contracts/ROO_Repurchase.sol\":3745:3812  IBxhPair(ROO_USDT).swap(amountOut, 0, destroyAddress, new bytes(0)) */\n    tag_147:\n      dup4\n      dup2\n      lt\n      iszero\n      tag_149\n      jumpi\n      dup2\n      dup2\n      add\n      mload\n      dup4\n      dup3\n      add\n      mstore\n      0x20\n      add\n      jump(tag_147)\n    tag_149:\n      pop\n      pop\n      pop\n      pop\n      swap1\n      pop\n      swap1\n      dup2\n      add\n      swap1\n      0x1f\n      and\n      dup1\n      iszero\n      tag_150\n      jumpi\n      dup1\n      dup3\n      sub\n      dup1\n      mload\n      0x01\n      dup4\n      0x20\n      sub\n      0x0100\n      exp\n      sub\n      not\n      and\n      dup2\n      mstore\n      0x20\n      add\n      swap2\n      pop\n    tag_150:\n      pop\n      swap6\n      pop\n      pop\n      pop\n      pop\n      pop\n      pop\n      0x00\n      mload(0x40)\n      dup1\n      dup4\n      sub\n      dup2\n      0x00\n      dup8\n      dup1\n      extcodesize\n      iszero\n      dup1\n      iszero\n      tag_151\n      jumpi\n      0x00\n      dup1\n      revert\n    tag_151:\n      pop\n      gas\n      call\n      iszero\n      dup1\n      iszero\n      tag_153\n      jumpi\n      returndatasize\n      0x00\n      dup1\n      returndatacopy\n      revert(0x00, returndatasize)\n    tag_153:\n      pop\n      pop\n      pop\n      pop\n        /* \"ROO_Repurchase/contracts/ROO_Repurchase.sol\":3918:3919  _ */\n      pop\n      pop\n      pop\n        /* \"ROO_Repurchase/contracts/ROO_Repurchase.sol\":3168:3819  function swap(uint256 _amount) external onlyCaller returns (uint256 amountOut){... */\n      swap2\n      swap1\n      pop\n      jump\t// out\n        /* \"ROO_Repurchase/contracts/ROO_Repurchase.sol\":2968:3162  function getCaller(uint256 _index) public view returns (address){... */\n    tag_59:\n        /* \"ROO_Repurchase/contracts/ROO_Repurchase.sol\":3024:3031  address */\n      0x00\n        /* \"ROO_Repurchase/contracts/ROO_Repurchase.sol\":3080:3081  1 */\n      0x01\n        /* \"ROO_Repurchase/contracts/ROO_Repurchase.sol\":3060:3077  getCallerLength() */\n      tag_155\n        /* \"ROO_Repurchase/contracts/ROO_Repurchase.sol\":3060:3075  getCallerLength */\n      tag_31\n        /* \"ROO_Repurchase/contracts/ROO_Repurchase.sol\":3060:3077  getCallerLength() */\n      jump\t// in\n    tag_155:\n        /* \"ROO_Repurchase/contracts/ROO_Repurchase.sol\":3060:3081  getCallerLength() - 1 */\n      sub\n        /* \"ROO_Repurchase/contracts/ROO_Repurchase.sol\":3050:3056  _index */\n      dup3\n        /* \"ROO_Repurchase/contracts/ROO_Repurchase.sol\":3050:3081  _index <= getCallerLength() - 1 */\n      gt\n      iszero\n        /* \"ROO_Repurchase/contracts/ROO_Repurchase.sol\":3042:3105  require(_index <= getCallerLength() - 1, \"index out of bounds\") */\n      tag_156\n      jumpi\n      0x40\n      dup1\n      mload\n      shl(0xe5, 0x461bcd)\n      dup2\n      mstore\n      0x20\n      0x04\n      dup3\n      add\n      mstore\n      0x13\n      0x24\n      dup3\n      add\n      mstore\n      shl(0x68, 0x696e646578206f7574206f6620626f756e6473)\n      0x44\n      dup3\n      add\n      mstore\n      swap1\n      mload\n      swap1\n      dup2\n      swap1\n      sub\n      0x64\n      add\n      swap1\n      revert\n    tag_156:\n        /* \"ROO_Repurchase/contracts/ROO_Repurchase.sol\":3122:3155  EnumerableSet.at(_caller, _index) */\n      tag_75\n        /* \"ROO_Repurchase/contracts/ROO_Repurchase.sol\":3139:3146  _caller */\n      0x01\n        /* \"ROO_Repurchase/contracts/ROO_Repurchase.sol\":3148:3154  _index */\n      dup4\n        /* \"ROO_Repurchase/contracts/ROO_Repurchase.sol\":3122:3138  EnumerableSet.at */\n      tag_158\n        /* \"ROO_Repurchase/contracts/ROO_Repurchase.sol\":3122:3155  EnumerableSet.at(_caller, _index) */\n      jump\t// in\n        /* \"ROO_Repurchase/contracts/ROO_Repurchase.sol\":1345:1418  address public constant USDT = 0xa71EdC38d189767582C38A3145b5873052c3e47a */\n    tag_61:\n        /* \"ROO_Repurchase/contracts/ROO_Repurchase.sol\":1376:1418  0xa71EdC38d189767582C38A3145b5873052c3e47a */\n      0xa71edc38d189767582c38a3145b5873052c3e47a\n        /* \"ROO_Repurchase/contracts/ROO_Repurchase.sol\":1345:1418  address public constant USDT = 0xa71EdC38d189767582C38A3145b5873052c3e47a */\n      dup2\n      jump\t// out\n        /* \"ROO_Repurchase/contracts/ROO_Repurchase.sol\":1585:1668  address public constant destroyAddress = 0x000000000000000000000000000000000000dEaD */\n    tag_63:\n        /* \"ROO_Repurchase/contracts/ROO_Repurchase.sol\":1626:1668  0x000000000000000000000000000000000000dEaD */\n      0xdead\n        /* \"ROO_Repurchase/contracts/ROO_Repurchase.sol\":1585:1668  address public constant destroyAddress = 0x000000000000000000000000000000000000dEaD */\n      dup2\n      jump\t// out\n        /* \"ROO_Repurchase/contracts/library/Ownable.sol\":1461:1701  function transferOwnership(address newOwner) public virtual onlyOwner {... */\n    tag_66:\n        /* \"ROO_Repurchase/contracts/library/Ownable.sol\":758:770  _msgSender() */\n      tag_160\n        /* \"ROO_Repurchase/contracts/library/Ownable.sol\":758:768  _msgSender */\n      tag_71\n        /* \"ROO_Repurchase/contracts/library/Ownable.sol\":758:770  _msgSender() */\n      jump\t// in\n    tag_160:\n        /* \"ROO_Repurchase/contracts/library/Ownable.sol\":748:754  _owner */\n      sload(0x00)\n      sub(shl(0xa0, 0x01), 0x01)\n      swap1\n      dup2\n      and\n        /* \"ROO_Repurchase/contracts/library/Ownable.sol\":748:770  _owner == _msgSender() */\n      swap2\n      and\n      eq\n        /* \"ROO_Repurchase/contracts/library/Ownable.sol\":740:807  require(_owner == _msgSender(), \"Ownable: caller is not the owner\") */\n      tag_161\n      jumpi\n      0x40\n      dup1\n      mload\n      shl(0xe5, 0x461bcd)\n      dup2\n      mstore\n      0x20\n      0x04\n      dup3\n      add\n      dup2\n      swap1\n      mstore\n      0x24\n      dup3\n      add\n      mstore\n      0x00\n      dup1\n      mload\n      0x20\n      data_9924ebdf1add33d25d4ef888e16131f0a5687b0580a36c21b5c301a6c462effe\n      dup4\n      codecopy\n      dup2\n      mload\n      swap2\n      mstore\n      0x44\n      dup3\n      add\n      mstore\n      swap1\n      mload\n      swap1\n      dup2\n      swap1\n      sub\n      0x64\n      add\n      swap1\n      revert\n    tag_161:\n      sub(shl(0xa0, 0x01), 0x01)\n        /* \"ROO_Repurchase/contracts/library/Ownable.sol\":1549:1571  newOwner != address(0) */\n      dup2\n      and\n        /* \"ROO_Repurchase/contracts/library/Ownable.sol\":1541:1614  require(newOwner != address(0), \"Ownable: new owner is the zero address\") */\n      tag_163\n      jumpi\n      mload(0x40)\n      shl(0xe5, 0x461bcd)\n      dup2\n      mstore\n      0x04\n      add\n      dup1\n      dup1\n      0x20\n      add\n      dup3\n      dup2\n      sub\n      dup3\n      mstore\n      0x26\n      dup2\n      mstore\n      0x20\n      add\n      dup1\n      data_245f15ff17f551913a7a18385165551503906a406f905ac1c2437281a7cd0cfe\n      0x26\n      swap2\n      codecopy\n      0x40\n      add\n      swap2\n      pop\n      pop\n      mload(0x40)\n      dup1\n      swap2\n      sub\n      swap1\n      revert\n    tag_163:\n        /* \"ROO_Repurchase/contracts/library/Ownable.sol\":1650:1656  _owner */\n      0x00\n      dup1\n      sload\n        /* \"ROO_Repurchase/contracts/library/Ownable.sol\":1629:1667  OwnershipTransferred(_owner, newOwner) */\n      mload(0x40)\n      sub(shl(0xa0, 0x01), 0x01)\n      dup1\n      dup6\n      and\n      swap4\n        /* \"ROO_Repurchase/contracts/library/Ownable.sol\":1650:1656  _owner */\n      swap3\n      and\n      swap2\n        /* \"ROO_Repurchase/contracts/library/Ownable.sol\":1629:1667  OwnershipTransferred(_owner, newOwner) */\n      0x8be0079c531659141344cd1fd0a4f28419497f9722a3daafe3b4186f6b6457e0\n      swap2\n      log3\n        /* \"ROO_Repurchase/contracts/library/Ownable.sol\":1677:1683  _owner */\n      0x00\n        /* \"ROO_Repurchase/contracts/library/Ownable.sol\":1677:1694  _owner = newOwner */\n      dup1\n      sload\n      not(sub(shl(0xa0, 0x01), 0x01))\n      and\n      sub(shl(0xa0, 0x01), 0x01)\n      swap3\n      swap1\n      swap3\n      and\n      swap2\n      swap1\n      swap2\n      or\n      swap1\n      sstore\n        /* \"ROO_Repurchase/contracts/library/Ownable.sol\":1461:1701  function transferOwnership(address newOwner) public virtual onlyOwner {... */\n      jump\t// out\n        /* \"ROO_Repurchase/contracts/ROO_Repurchase.sol\":1691:1722  address public emergencyAddress */\n    tag_68:\n      and(sub(shl(0xa0, 0x01), 0x01), sload(0x03))\n      dup2\n      jump\t// out\n        /* \"ROO_Repurchase/contracts/library/Context.sol\":58:162  function _msgSender() internal view virtual returns (address payable) {... */\n    tag_71:\n        /* \"ROO_Repurchase/contracts/library/Context.sol\":145:155  msg.sender */\n      caller\n        /* \"ROO_Repurchase/contracts/library/Context.sol\":58:162  function _msgSender() internal view virtual returns (address payable) {... */\n      swap1\n      jump\t// out\n        /* \"ROO_Repurchase/contracts/library/EnumerableSet.sol\":5985:6132  function remove(AddressSet storage set, address value) internal returns (bool) {... */\n    tag_76:\n        /* \"ROO_Repurchase/contracts/library/EnumerableSet.sol\":6058:6062  bool */\n      0x00\n        /* \"ROO_Repurchase/contracts/library/EnumerableSet.sol\":6081:6125  _remove(set._inner, bytes32(uint256(value))) */\n      tag_166\n        /* \"ROO_Repurchase/contracts/library/EnumerableSet.sol\":6089:6092  set */\n      dup4\n      sub(shl(0xa0, 0x01), 0x01)\n        /* \"ROO_Repurchase/contracts/library/EnumerableSet.sol\":6109:6123  uint256(value) */\n      dup5\n      and\n        /* \"ROO_Repurchase/contracts/library/EnumerableSet.sol\":6081:6088  _remove */\n      tag_167\n        /* \"ROO_Repurchase/contracts/library/EnumerableSet.sol\":6081:6125  _remove(set._inner, bytes32(uint256(value))) */\n      jump\t// in\n    tag_166:\n        /* \"ROO_Repurchase/contracts/library/EnumerableSet.sol\":6074:6125  return _remove(set._inner, bytes32(uint256(value))) */\n      swap4\n        /* \"ROO_Repurchase/contracts/library/EnumerableSet.sol\":5985:6132  function remove(AddressSet storage set, address value) internal returns (bool) {... */\n      swap3\n      pop\n      pop\n      pop\n      jump\t// out\n        /* \"ROO_Repurchase/contracts/library/EnumerableSet.sol\":6450:6565  function length(AddressSet storage set) internal view returns (uint256) {... */\n    tag_84:\n        /* \"ROO_Repurchase/contracts/library/EnumerableSet.sol\":6513:6520  uint256 */\n      0x00\n        /* \"ROO_Repurchase/contracts/library/EnumerableSet.sol\":6539:6558  _length(set._inner) */\n      tag_75\n        /* \"ROO_Repurchase/contracts/library/EnumerableSet.sol\":6547:6550  set */\n      dup3\n        /* \"ROO_Repurchase/contracts/library/EnumerableSet.sol\":6539:6546  _length */\n      tag_170\n        /* \"ROO_Repurchase/contracts/library/EnumerableSet.sol\":6539:6558  _length(set._inner) */\n      jump\t// in\n        /* \"ROO_Repurchase/contracts/library/EnumerableSet.sol\":5676:5817  function add(AddressSet storage set, address value) internal returns (bool) {... */\n    tag_116:\n        /* \"ROO_Repurchase/contracts/library/EnumerableSet.sol\":5746:5750  bool */\n      0x00\n        /* \"ROO_Repurchase/contracts/library/EnumerableSet.sol\":5769:5810  _add(set._inner, bytes32(uint256(value))) */\n      tag_166\n        /* \"ROO_Repurchase/contracts/library/EnumerableSet.sol\":5774:5777  set */\n      dup4\n      sub(shl(0xa0, 0x01), 0x01)\n        /* \"ROO_Repurchase/contracts/library/EnumerableSet.sol\":5794:5808  uint256(value) */\n      dup5\n      and\n        /* \"ROO_Repurchase/contracts/library/EnumerableSet.sol\":5769:5773  _add */\n      tag_173\n        /* \"ROO_Repurchase/contracts/library/EnumerableSet.sol\":5769:5810  _add(set._inner, bytes32(uint256(value))) */\n      jump\t// in\n        /* \"ROO_Repurchase/contracts/library/EnumerableSet.sol\":6213:6369  function contains(AddressSet storage set, address value) internal view returns (bool) {... */\n    tag_119:\n        /* \"ROO_Repurchase/contracts/library/EnumerableSet.sol\":6293:6297  bool */\n      0x00\n        /* \"ROO_Repurchase/contracts/library/EnumerableSet.sol\":6316:6362  _contains(set._inner, bytes32(uint256(value))) */\n      tag_166\n        /* \"ROO_Repurchase/contracts/library/EnumerableSet.sol\":6326:6329  set */\n      dup4\n      sub(shl(0xa0, 0x01), 0x01)\n        /* \"ROO_Repurchase/contracts/library/EnumerableSet.sol\":6346:6360  uint256(value) */\n      dup5\n      and\n        /* \"ROO_Repurchase/contracts/library/EnumerableSet.sol\":6316:6325  _contains */\n      tag_176\n        /* \"ROO_Repurchase/contracts/library/EnumerableSet.sol\":6316:6362  _contains(set._inner, bytes32(uint256(value))) */\n      jump\t// in\n        /* \"ROO_Repurchase/contracts/library/SafeMath.sol\":1584:2043  function mul(uint256 a, uint256 b) internal pure returns (uint256) {... */\n    tag_136:\n        /* \"ROO_Repurchase/contracts/library/SafeMath.sol\":1642:1649  uint256 */\n      0x00\n        /* \"ROO_Repurchase/contracts/library/SafeMath.sol\":1883:1889  a == 0 */\n      dup3\n        /* \"ROO_Repurchase/contracts/library/SafeMath.sol\":1879:1924  if (a == 0) {... */\n      tag_178\n      jumpi\n      pop\n        /* \"ROO_Repurchase/contracts/library/SafeMath.sol\":1912:1913  0 */\n      0x00\n        /* \"ROO_Repurchase/contracts/library/SafeMath.sol\":1905:1913  return 0 */\n      jump(tag_75)\n        /* \"ROO_Repurchase/contracts/library/SafeMath.sol\":1879:1924  if (a == 0) {... */\n    tag_178:\n        /* \"ROO_Repurchase/contracts/library/SafeMath.sol\":1946:1951  a * b */\n      dup3\n      dup3\n      mul\n        /* \"ROO_Repurchase/contracts/library/SafeMath.sol\":1950:1951  b */\n      dup3\n        /* \"ROO_Repurchase/contracts/library/SafeMath.sol\":1946:1947  a */\n      dup5\n        /* \"ROO_Repurchase/contracts/library/SafeMath.sol\":1946:1951  a * b */\n      dup3\n        /* \"ROO_Repurchase/contracts/library/SafeMath.sol\":1946:1947  a */\n      dup2\n        /* \"ROO_Repurchase/contracts/library/SafeMath.sol\":1969:1974  c / a */\n      tag_179\n      jumpi\n      invalid\n    tag_179:\n      div\n        /* \"ROO_Repurchase/contracts/library/SafeMath.sol\":1969:1979  c / a == b */\n      eq\n        /* \"ROO_Repurchase/contracts/library/SafeMath.sol\":1961:2017  require(c / a == b, \"SafeMath: multiplication overflow\") */\n      tag_166\n      jumpi\n      mload(0x40)\n      shl(0xe5, 0x461bcd)\n      dup2\n      mstore\n      0x04\n      add\n      dup1\n      dup1\n      0x20\n      add\n      dup3\n      dup2\n      sub\n      dup3\n      mstore\n      0x21\n      dup2\n      mstore\n      0x20\n      add\n      dup1\n      data_9113bb53c2876a3805b2c9242029423fc540a728243ce887ab24c82cf119fba3\n      0x21\n      swap2\n      codecopy\n      0x40\n      add\n      swap2\n      pop\n      pop\n      mload(0x40)\n      dup1\n      swap2\n      sub\n      swap1\n      revert\n        /* \"ROO_Repurchase/contracts/library/SafeMath.sol\":278:454  function add(uint256 a, uint256 b) internal pure returns (uint256) {... */\n    tag_139:\n        /* \"ROO_Repurchase/contracts/library/SafeMath.sol\":336:343  uint256 */\n      0x00\n        /* \"ROO_Repurchase/contracts/library/SafeMath.sol\":367:372  a + b */\n      dup3\n      dup3\n      add\n        /* \"ROO_Repurchase/contracts/library/SafeMath.sol\":390:396  c >= a */\n      dup4\n      dup2\n      lt\n      iszero\n        /* \"ROO_Repurchase/contracts/library/SafeMath.sol\":382:428  require(c >= a, \"SafeMath: addition overflow\") */\n      tag_166\n      jumpi\n      0x40\n      dup1\n      mload\n      shl(0xe5, 0x461bcd)\n      dup2\n      mstore\n      0x20\n      0x04\n      dup3\n      add\n      mstore\n      0x1b\n      0x24\n      dup3\n      add\n      mstore\n      0x536166654d6174683a206164646974696f6e206f766572666c6f770000000000\n      0x44\n      dup3\n      add\n      mstore\n      swap1\n      mload\n      swap1\n      dup2\n      swap1\n      sub\n      0x64\n      add\n      swap1\n      revert\n        /* \"ROO_Repurchase/contracts/library/SafeERC20.sol\":198:373  function safeTransfer(IERC20 token, address to, uint256 value) internal {... */\n    tag_144:\n        /* \"ROO_Repurchase/contracts/library/SafeERC20.sol\":307:365  abi.encodeWithSelector(token.transfer.selector, to, value) */\n      0x40\n      dup1\n      mload\n      sub(shl(0xa0, 0x01), 0x01)\n      dup5\n      and\n      0x24\n      dup3\n      add\n      mstore\n      0x44\n      dup1\n      dup3\n      add\n      dup5\n      swap1\n      mstore\n      dup3\n      mload\n      dup1\n      dup4\n      sub\n      swap1\n      swap2\n      add\n      dup2\n      mstore\n      0x64\n      swap1\n      swap2\n      add\n      swap1\n      swap2\n      mstore\n      0x20\n      dup2\n      add\n      dup1\n      mload\n      sub(shl(0xe0, 0x01), 0x01)\n      and\n      shl(0xe0, 0xa9059cbb)\n      or\n      swap1\n      mstore\n        /* \"ROO_Repurchase/contracts/library/SafeERC20.sol\":280:366  _callOptionalReturn(token, abi.encodeWithSelector(token.transfer.selector, to, value)) */\n      tag_105\n      swap1\n        /* \"ROO_Repurchase/contracts/library/SafeERC20.sol\":300:305  token */\n      dup5\n      swap1\n        /* \"ROO_Repurchase/contracts/library/SafeERC20.sol\":280:299  _callOptionalReturn */\n      tag_185\n        /* \"ROO_Repurchase/contracts/library/SafeERC20.sol\":280:366  _callOptionalReturn(token, abi.encodeWithSelector(token.transfer.selector, to, value)) */\n      jump\t// in\n        /* \"ROO_Repurchase/contracts/library/EnumerableSet.sol\":6897:7044  function at(AddressSet storage set, uint256 index) internal view returns (address) {... */\n    tag_158:\n        /* \"ROO_Repurchase/contracts/library/EnumerableSet.sol\":6971:6978  address */\n      0x00\n        /* \"ROO_Repurchase/contracts/library/EnumerableSet.sol\":7013:7035  _at(set._inner, index) */\n      tag_166\n        /* \"ROO_Repurchase/contracts/library/EnumerableSet.sol\":7017:7020  set */\n      dup4\n        /* \"ROO_Repurchase/contracts/library/EnumerableSet.sol\":7029:7034  index */\n      dup4\n        /* \"ROO_Repurchase/contracts/library/EnumerableSet.sol\":7013:7016  _at */\n      tag_188\n        /* \"ROO_Repurchase/contracts/library/EnumerableSet.sol\":7013:7035  _at(set._inner, index) */\n      jump\t// in\n        /* \"ROO_Repurchase/contracts/library/EnumerableSet.sol\":1459:2971  function _remove(Set storage set, bytes32 value) private returns (bool) {... */\n    tag_167:\n        /* \"ROO_Repurchase/contracts/library/EnumerableSet.sol\":1525:1529  bool */\n      0x00\n        /* \"ROO_Repurchase/contracts/library/EnumerableSet.sol\":1662:1681  set._indexes[value] */\n      dup2\n      dup2\n      mstore\n        /* \"ROO_Repurchase/contracts/library/EnumerableSet.sol\":1662:1674  set._indexes */\n      0x01\n      dup4\n      add\n        /* \"ROO_Repurchase/contracts/library/EnumerableSet.sol\":1662:1681  set._indexes[value] */\n      0x20\n      mstore\n      0x40\n      dup2\n      keccak256\n      sload\n        /* \"ROO_Repurchase/contracts/library/EnumerableSet.sol\":1696:1711  valueIndex != 0 */\n      dup1\n      iszero\n        /* \"ROO_Repurchase/contracts/library/EnumerableSet.sol\":1692:2965  if (valueIndex != 0) { // Equivalent to contains(set, value)... */\n      tag_190\n      jumpi\n        /* \"ROO_Repurchase/contracts/library/EnumerableSet.sol\":2125:2143  set._values.length */\n      dup4\n      sload\n      not(0x00)\n        /* \"ROO_Repurchase/contracts/library/EnumerableSet.sol\":2077:2091  valueIndex - 1 */\n      dup1\n      dup4\n      add\n      swap2\n        /* \"ROO_Repurchase/contracts/library/EnumerableSet.sol\":2125:2147  set._values.length - 1 */\n      swap1\n      dup2\n      add\n      swap1\n        /* \"ROO_Repurchase/contracts/library/EnumerableSet.sol\":2053:2074  uint256 toDeleteIndex */\n      0x00\n      swap1\n        /* \"ROO_Repurchase/contracts/library/EnumerableSet.sol\":2125:2128  set */\n      dup8\n      swap1\n        /* \"ROO_Repurchase/contracts/library/EnumerableSet.sol\":2125:2147  set._values.length - 1 */\n      dup4\n      swap1\n        /* \"ROO_Repurchase/contracts/library/EnumerableSet.sol\":2407:2429  set._values[lastIndex] */\n      dup2\n      lt\n      tag_191\n      jumpi\n      invalid\n    tag_191:\n      swap1\n      0x00\n      mstore\n      keccak256(0x00, 0x20)\n      add\n      sload\n        /* \"ROO_Repurchase/contracts/library/EnumerableSet.sol\":2387:2429  bytes32 lastvalue = set._values[lastIndex] */\n      swap1\n      pop\n        /* \"ROO_Repurchase/contracts/library/EnumerableSet.sol\":2550:2559  lastvalue */\n      dup1\n        /* \"ROO_Repurchase/contracts/library/EnumerableSet.sol\":2521:2524  set */\n      dup8\n        /* \"ROO_Repurchase/contracts/library/EnumerableSet.sol\":2521:2532  set._values */\n      0x00\n      add\n        /* \"ROO_Repurchase/contracts/library/EnumerableSet.sol\":2533:2546  toDeleteIndex */\n      dup5\n        /* \"ROO_Repurchase/contracts/library/EnumerableSet.sol\":2521:2547  set._values[toDeleteIndex] */\n      dup2\n      sload\n      dup2\n      lt\n      tag_193\n      jumpi\n      invalid\n    tag_193:\n      0x00\n      swap2\n      dup3\n      mstore\n      0x20\n      dup1\n      dup4\n      keccak256\n      swap1\n      swap2\n      add\n        /* \"ROO_Repurchase/contracts/library/EnumerableSet.sol\":2521:2559  set._values[toDeleteIndex] = lastvalue */\n      swap3\n      swap1\n      swap3\n      sstore\n        /* \"ROO_Repurchase/contracts/library/EnumerableSet.sol\":2625:2648  set._indexes[lastvalue] */\n      dup3\n      dup2\n      mstore\n        /* \"ROO_Repurchase/contracts/library/EnumerableSet.sol\":2667:2668  1 */\n      0x01\n        /* \"ROO_Repurchase/contracts/library/EnumerableSet.sol\":2625:2637  set._indexes */\n      dup10\n      dup2\n      add\n        /* \"ROO_Repurchase/contracts/library/EnumerableSet.sol\":2625:2648  set._indexes[lastvalue] */\n      swap1\n      swap3\n      mstore\n      0x40\n      swap1\n      keccak256\n        /* \"ROO_Repurchase/contracts/library/EnumerableSet.sol\":2651:2668  toDeleteIndex + 1 */\n      swap1\n      dup5\n      add\n        /* \"ROO_Repurchase/contracts/library/EnumerableSet.sol\":2625:2668  set._indexes[lastvalue] = toDeleteIndex + 1 */\n      swap1\n      sstore\n        /* \"ROO_Repurchase/contracts/library/EnumerableSet.sol\":2774:2791  set._values.pop() */\n      dup7\n      sload\n        /* \"ROO_Repurchase/contracts/library/EnumerableSet.sol\":2625:2628  set */\n      dup8\n      swap1\n        /* \"ROO_Repurchase/contracts/library/EnumerableSet.sol\":2774:2791  set._values.pop() */\n      dup1\n      tag_195\n      jumpi\n      invalid\n    tag_195:\n      0x01\n      swap1\n      sub\n      dup2\n      dup2\n      swap1\n      0x00\n      mstore\n      keccak256(0x00, 0x20)\n      add\n      0x00\n      swap1\n      sstore\n      swap1\n      sstore\n        /* \"ROO_Repurchase/contracts/library/EnumerableSet.sol\":2866:2869  set */\n      dup7\n        /* \"ROO_Repurchase/contracts/library/EnumerableSet.sol\":2866:2878  set._indexes */\n      0x01\n      add\n        /* \"ROO_Repurchase/contracts/library/EnumerableSet.sol\":2866:2885  set._indexes[value] */\n      0x00\n        /* \"ROO_Repurchase/contracts/library/EnumerableSet.sol\":2879:2884  value */\n      dup8\n        /* \"ROO_Repurchase/contracts/library/EnumerableSet.sol\":2866:2885  set._indexes[value] */\n      dup2\n      mstore\n      0x20\n      add\n      swap1\n      dup2\n      mstore\n      0x20\n      add\n      0x00\n      keccak256\n        /* \"ROO_Repurchase/contracts/library/EnumerableSet.sol\":2859:2885  delete set._indexes[value] */\n      0x00\n      swap1\n      sstore\n        /* \"ROO_Repurchase/contracts/library/EnumerableSet.sol\":2907:2911  true */\n      0x01\n        /* \"ROO_Repurchase/contracts/library/EnumerableSet.sol\":2900:2911  return true */\n      swap5\n      pop\n      pop\n      pop\n      pop\n      pop\n      jump(tag_75)\n        /* \"ROO_Repurchase/contracts/library/EnumerableSet.sol\":1692:2965  if (valueIndex != 0) { // Equivalent to contains(set, value)... */\n    tag_190:\n        /* \"ROO_Repurchase/contracts/library/EnumerableSet.sol\":2949:2954  false */\n      0x00\n        /* \"ROO_Repurchase/contracts/library/EnumerableSet.sol\":2942:2954  return false */\n      swap2\n      pop\n      pop\n      jump(tag_75)\n        /* \"ROO_Repurchase/contracts/library/EnumerableSet.sol\":3260:3367  function _length(Set storage set) private view returns (uint256) {... */\n    tag_170:\n        /* \"ROO_Repurchase/contracts/library/EnumerableSet.sol\":3342:3360  set._values.length */\n      sload\n      swap1\n        /* \"ROO_Repurchase/contracts/library/EnumerableSet.sol\":3260:3367  function _length(Set storage set) private view returns (uint256) {... */\n      jump\t// out\n        /* \"ROO_Repurchase/contracts/library/EnumerableSet.sol\":887:1291  function _add(Set storage set, bytes32 value) private returns (bool) {... */\n    tag_173:\n        /* \"ROO_Repurchase/contracts/library/EnumerableSet.sol\":950:954  bool */\n      0x00\n        /* \"ROO_Repurchase/contracts/library/EnumerableSet.sol\":971:992  _contains(set, value) */\n      tag_200\n        /* \"ROO_Repurchase/contracts/library/EnumerableSet.sol\":981:984  set */\n      dup4\n        /* \"ROO_Repurchase/contracts/library/EnumerableSet.sol\":986:991  value */\n      dup4\n        /* \"ROO_Repurchase/contracts/library/EnumerableSet.sol\":971:980  _contains */\n      tag_176\n        /* \"ROO_Repurchase/contracts/library/EnumerableSet.sol\":971:992  _contains(set, value) */\n      jump\t// in\n    tag_200:\n        /* \"ROO_Repurchase/contracts/library/EnumerableSet.sol\":966:1285  if (!_contains(set, value)) {... */\n      tag_201\n      jumpi\n      pop\n        /* \"ROO_Repurchase/contracts/library/EnumerableSet.sol\":1008:1031  set._values.push(value) */\n      dup2\n      sload\n      0x01\n      dup2\n      dup2\n      add\n      dup5\n      sstore\n        /* \"ROO_Repurchase/contracts/library/EnumerableSet.sol\":1008:1019  set._values */\n      0x00\n        /* \"ROO_Repurchase/contracts/library/EnumerableSet.sol\":1008:1031  set._values.push(value) */\n      dup5\n      dup2\n      mstore\n      0x20\n      dup1\n      dup3\n      keccak256\n      swap1\n      swap4\n      add\n      dup5\n      swap1\n      sstore\n        /* \"ROO_Repurchase/contracts/library/EnumerableSet.sol\":1188:1206  set._values.length */\n      dup5\n      sload\n        /* \"ROO_Repurchase/contracts/library/EnumerableSet.sol\":1166:1185  set._indexes[value] */\n      dup5\n      dup3\n      mstore\n        /* \"ROO_Repurchase/contracts/library/EnumerableSet.sol\":1166:1178  set._indexes */\n      dup3\n      dup7\n      add\n        /* \"ROO_Repurchase/contracts/library/EnumerableSet.sol\":1166:1185  set._indexes[value] */\n      swap1\n      swap4\n      mstore\n      0x40\n      swap1\n      keccak256\n        /* \"ROO_Repurchase/contracts/library/EnumerableSet.sol\":1166:1206  set._indexes[value] = set._values.length */\n      swap2\n      swap1\n      swap2\n      sstore\n        /* \"ROO_Repurchase/contracts/library/EnumerableSet.sol\":1220:1231  return true */\n      jump(tag_75)\n        /* \"ROO_Repurchase/contracts/library/EnumerableSet.sol\":966:1285  if (!_contains(set, value)) {... */\n    tag_201:\n      pop\n        /* \"ROO_Repurchase/contracts/library/EnumerableSet.sol\":1269:1274  false */\n      0x00\n        /* \"ROO_Repurchase/contracts/library/EnumerableSet.sol\":1262:1274  return false */\n      jump(tag_75)\n        /* \"ROO_Repurchase/contracts/library/EnumerableSet.sol\":3052:3179  function _contains(Set storage set, bytes32 value) private view returns (bool) {... */\n    tag_176:\n        /* \"ROO_Repurchase/contracts/library/EnumerableSet.sol\":3125:3129  bool */\n      0x00\n        /* \"ROO_Repurchase/contracts/library/EnumerableSet.sol\":3148:3167  set._indexes[value] */\n      swap1\n      dup2\n      mstore\n        /* \"ROO_Repurchase/contracts/library/EnumerableSet.sol\":3148:3160  set._indexes */\n      0x01\n      swap2\n      swap1\n      swap2\n      add\n        /* \"ROO_Repurchase/contracts/library/EnumerableSet.sol\":3148:3167  set._indexes[value] */\n      0x20\n      mstore\n      0x40\n      swap1\n      keccak256\n      sload\n        /* \"ROO_Repurchase/contracts/library/EnumerableSet.sol\":3148:3172  set._indexes[value] != 0 */\n      iszero\n      iszero\n      swap1\n        /* \"ROO_Repurchase/contracts/library/EnumerableSet.sol\":3052:3179  function _contains(Set storage set, bytes32 value) private view returns (bool) {... */\n      jump\t// out\n        /* \"ROO_Repurchase/contracts/library/SafeERC20.sol\":2461:3212  function _callOptionalReturn(IERC20 token, bytes memory data) private {... */\n    tag_185:\n        /* \"ROO_Repurchase/contracts/library/SafeERC20.sol\":2880:2903  bytes memory returndata */\n      0x60\n        /* \"ROO_Repurchase/contracts/library/SafeERC20.sol\":2906:2975  address(token).functionCall(data, \"SafeERC20: low-level call failed\") */\n      tag_206\n        /* \"ROO_Repurchase/contracts/library/SafeERC20.sol\":2934:2938  data */\n      dup3\n        /* \"ROO_Repurchase/contracts/library/SafeERC20.sol\":2906:2975  address(token).functionCall(data, \"SafeERC20: low-level call failed\") */\n      mload(0x40)\n      dup1\n      0x40\n      add\n      0x40\n      mstore\n      dup1\n      0x20\n      dup2\n      mstore\n      0x20\n      add\n      0x5361666545524332303a206c6f772d6c6576656c2063616c6c206661696c6564\n      dup2\n      mstore\n      pop\n        /* \"ROO_Repurchase/contracts/library/SafeERC20.sol\":2914:2919  token */\n      dup6\n      sub(shl(0xa0, 0x01), 0x01)\n        /* \"ROO_Repurchase/contracts/library/SafeERC20.sol\":2906:2933  address(token).functionCall */\n      and\n      tag_207\n      swap1\n        /* \"ROO_Repurchase/contracts/library/SafeERC20.sol\":2906:2975  address(token).functionCall(data, \"SafeERC20: low-level call failed\") */\n      swap3\n      swap2\n      swap1\n      0xffffffff\n      and\n      jump\t// in\n    tag_206:\n        /* \"ROO_Repurchase/contracts/library/SafeERC20.sol\":2989:3006  returndata.length */\n      dup1\n      mload\n        /* \"ROO_Repurchase/contracts/library/SafeERC20.sol\":2880:2975  bytes memory returndata = address(token).functionCall(data, \"SafeERC20: low-level call failed\") */\n      swap1\n      swap2\n      pop\n        /* \"ROO_Repurchase/contracts/library/SafeERC20.sol\":2989:3010  returndata.length > 0 */\n      iszero\n        /* \"ROO_Repurchase/contracts/library/SafeERC20.sol\":2985:3206  if (returndata.length > 0) { // Return data is optional... */\n      tag_105\n      jumpi\n        /* \"ROO_Repurchase/contracts/library/SafeERC20.sol\":3129:3139  returndata */\n      dup1\n        /* \"ROO_Repurchase/contracts/library/SafeERC20.sol\":3118:3148  abi.decode(returndata, (bool)) */\n      dup1\n      0x20\n      add\n      swap1\n      mload\n      0x20\n      dup2\n      lt\n      iszero\n      tag_209\n      jumpi\n      0x00\n      dup1\n      revert\n    tag_209:\n      pop\n      mload\n        /* \"ROO_Repurchase/contracts/library/SafeERC20.sol\":3110:3195  require(abi.decode(returndata, (bool)), \"SafeERC20: ERC20 operation did not succeed\") */\n      tag_105\n      jumpi\n      mload(0x40)\n      shl(0xe5, 0x461bcd)\n      dup2\n      mstore\n      0x04\n      add\n      dup1\n      dup1\n      0x20\n      add\n      dup3\n      dup2\n      sub\n      dup3\n      mstore\n      0x2a\n      dup2\n      mstore\n      0x20\n      add\n      dup1\n      data_e11ad79d1e4a7f2e5f376964cb99e8e8f7904e3fc16a109f7a7ecb9aa7956dcd\n      0x2a\n      swap2\n      codecopy\n      0x40\n      add\n      swap2\n      pop\n      pop\n      mload(0x40)\n      dup1\n      swap2\n      sub\n      swap1\n      revert\n        /* \"ROO_Repurchase/contracts/library/EnumerableSet.sol\":3699:3900  function _at(Set storage set, uint256 index) private view returns (bytes32) {... */\n    tag_188:\n        /* \"ROO_Repurchase/contracts/library/EnumerableSet.sol\":3793:3811  set._values.length */\n      dup2\n      sload\n        /* \"ROO_Repurchase/contracts/library/EnumerableSet.sol\":3766:3773  bytes32 */\n      0x00\n      swap1\n        /* \"ROO_Repurchase/contracts/library/EnumerableSet.sol\":3793:3819  set._values.length > index */\n      dup3\n      lt\n        /* \"ROO_Repurchase/contracts/library/EnumerableSet.sol\":3785:3858  require(set._values.length > index, \"EnumerableSet: index out of bounds\") */\n      tag_212\n      jumpi\n      mload(0x40)\n      shl(0xe5, 0x461bcd)\n      dup2\n      mstore\n      0x04\n      add\n      dup1\n      dup1\n      0x20\n      add\n      dup3\n      dup2\n      sub\n      dup3\n      mstore\n      0x22\n      dup2\n      mstore\n      0x20\n      add\n      dup1\n      data_045d6834e6193a687012a3ad777f612279e549b6945364d9d2324f48610d3cbb\n      0x22\n      swap2\n      codecopy\n      0x40\n      add\n      swap2\n      pop\n      pop\n      mload(0x40)\n      dup1\n      swap2\n      sub\n      swap1\n      revert\n    tag_212:\n        /* \"ROO_Repurchase/contracts/library/EnumerableSet.sol\":3875:3878  set */\n      dup3\n        /* \"ROO_Repurchase/contracts/library/EnumerableSet.sol\":3875:3886  set._values */\n      0x00\n      add\n        /* \"ROO_Repurchase/contracts/library/EnumerableSet.sol\":3887:3892  index */\n      dup3\n        /* \"ROO_Repurchase/contracts/library/EnumerableSet.sol\":3875:3893  set._values[index] */\n      dup2\n      sload\n      dup2\n      lt\n      tag_213\n      jumpi\n      invalid\n    tag_213:\n      swap1\n      0x00\n      mstore\n      keccak256(0x00, 0x20)\n      add\n      sload\n        /* \"ROO_Repurchase/contracts/library/EnumerableSet.sol\":3868:3893  return set._values[index] */\n      swap1\n      pop\n        /* \"ROO_Repurchase/contracts/library/EnumerableSet.sol\":3699:3900  function _at(Set storage set, uint256 index) private view returns (bytes32) {... */\n      swap3\n      swap2\n      pop\n      pop\n      jump\t// out\n        /* \"ROO_Repurchase/contracts/library/Address.sol\":3473:3666  function functionCall(address target, bytes memory data, string memory errorMessage) internal returns (bytes memory) {... */\n    tag_207:\n        /* \"ROO_Repurchase/contracts/library/Address.sol\":3576:3588  bytes memory */\n      0x60\n        /* \"ROO_Repurchase/contracts/library/Address.sol\":3607:3659  functionCallWithValue(target, data, 0, errorMessage) */\n      tag_216\n        /* \"ROO_Repurchase/contracts/library/Address.sol\":3629:3635  target */\n      dup5\n        /* \"ROO_Repurchase/contracts/library/Address.sol\":3637:3641  data */\n      dup5\n        /* \"ROO_Repurchase/contracts/library/Address.sol\":3643:3644  0 */\n      0x00\n        /* \"ROO_Repurchase/contracts/library/Address.sol\":3646:3658  errorMessage */\n      dup6\n        /* \"ROO_Repurchase/contracts/library/Address.sol\":3607:3628  functionCallWithValue */\n      tag_217\n        /* \"ROO_Repurchase/contracts/library/Address.sol\":3607:3659  functionCallWithValue(target, data, 0, errorMessage) */\n      jump\t// in\n    tag_216:\n        /* \"ROO_Repurchase/contracts/library/Address.sol\":3600:3659  return functionCallWithValue(target, data, 0, errorMessage) */\n      swap5\n        /* \"ROO_Repurchase/contracts/library/Address.sol\":3473:3666  function functionCall(address target, bytes memory data, string memory errorMessage) internal returns (bytes memory) {... */\n      swap4\n      pop\n      pop\n      pop\n      pop\n      jump\t// out\n        /* \"ROO_Repurchase/contracts/library/Address.sol\":4500:5023  function functionCallWithValue(address target, bytes memory data, uint256 value, string memory errorMessage) internal returns (bytes memory) {... */\n    tag_217:\n        /* \"ROO_Repurchase/contracts/library/Address.sol\":4627:4639  bytes memory */\n      0x60\n        /* \"ROO_Repurchase/contracts/library/Address.sol\":4684:4689  value */\n      dup3\n        /* \"ROO_Repurchase/contracts/library/Address.sol\":4659:4680  address(this).balance */\n      selfbalance\n        /* \"ROO_Repurchase/contracts/library/Address.sol\":4659:4689  address(this).balance >= value */\n      lt\n      iszero\n        /* \"ROO_Repurchase/contracts/library/Address.sol\":4651:4732  require(address(this).balance >= value, \"Address: insufficient balance for call\") */\n      tag_219\n      jumpi\n      mload(0x40)\n      shl(0xe5, 0x461bcd)\n      dup2\n      mstore\n      0x04\n      add\n      dup1\n      dup1\n      0x20\n      add\n      dup3\n      dup2\n      sub\n      dup3\n      mstore\n      0x26\n      dup2\n      mstore\n      0x20\n      add\n      dup1\n      data_565f1a77334fc4792800921178c71e4521acffab18ff9e7885b49377ee80ab4c\n      0x26\n      swap2\n      codecopy\n      0x40\n      add\n      swap2\n      pop\n      pop\n      mload(0x40)\n      dup1\n      swap2\n      sub\n      swap1\n      revert\n    tag_219:\n        /* \"ROO_Repurchase/contracts/library/Address.sol\":4750:4768  isContract(target) */\n      tag_220\n        /* \"ROO_Repurchase/contracts/library/Address.sol\":4761:4767  target */\n      dup6\n        /* \"ROO_Repurchase/contracts/library/Address.sol\":4750:4760  isContract */\n      tag_221\n        /* \"ROO_Repurchase/contracts/library/Address.sol\":4750:4768  isContract(target) */\n      jump\t// in\n    tag_220:\n        /* \"ROO_Repurchase/contracts/library/Address.sol\":4742:4802  require(isContract(target), \"Address: call to non-contract\") */\n      tag_222\n      jumpi\n      0x40\n      dup1\n      mload\n      shl(0xe5, 0x461bcd)\n      dup2\n      mstore\n      0x20\n      0x04\n      dup3\n      add\n      mstore\n      0x1d\n      0x24\n      dup3\n      add\n      mstore\n      0x416464726573733a2063616c6c20746f206e6f6e2d636f6e7472616374000000\n      0x44\n      dup3\n      add\n      mstore\n      swap1\n      mload\n      swap1\n      dup2\n      swap1\n      sub\n      0x64\n      add\n      swap1\n      revert\n    tag_222:\n        /* \"ROO_Repurchase/contracts/library/Address.sol\":4873:4885  bool success */\n      0x00\n        /* \"ROO_Repurchase/contracts/library/Address.sol\":4887:4910  bytes memory returndata */\n      0x60\n        /* \"ROO_Repurchase/contracts/library/Address.sol\":4914:4920  target */\n      dup7\n      sub(shl(0xa0, 0x01), 0x01)\n        /* \"ROO_Repurchase/contracts/library/Address.sol\":4914:4925  target.call */\n      and\n        /* \"ROO_Repurchase/contracts/library/Address.sol\":4934:4939  value */\n      dup6\n        /* \"ROO_Repurchase/contracts/library/Address.sol\":4942:4946  data */\n      dup8\n        /* \"ROO_Repurchase/contracts/library/Address.sol\":4914:4947  target.call{ value: value }(data) */\n      mload(0x40)\n      dup1\n      dup3\n      dup1\n      mload\n      swap1\n      0x20\n      add\n      swap1\n      dup1\n      dup4\n      dup4\n    tag_223:\n      0x20\n      dup4\n      lt\n      tag_225\n      jumpi\n      dup1\n      mload\n      dup3\n      mstore\n      not(0x1f)\n      swap1\n      swap3\n      add\n      swap2\n      0x20\n      swap2\n      dup3\n      add\n      swap2\n      add\n      jump(tag_223)\n    tag_225:\n      0x01\n      dup4\n      0x20\n      sub\n      0x0100\n      exp\n      sub\n      dup1\n      not\n      dup3\n      mload\n      and\n      dup2\n      dup5\n      mload\n      and\n      dup1\n      dup3\n      or\n      dup6\n      mstore\n      pop\n      pop\n      pop\n      pop\n      pop\n      pop\n      swap1\n      pop\n      add\n      swap2\n      pop\n      pop\n      0x00\n      mload(0x40)\n      dup1\n      dup4\n      sub\n      dup2\n      dup6\n      dup8\n      gas\n      call\n      swap3\n      pop\n      pop\n      pop\n      returndatasize\n      dup1\n      0x00\n      dup2\n      eq\n      tag_228\n      jumpi\n      mload(0x40)\n      swap2\n      pop\n      and(add(returndatasize, 0x3f), not(0x1f))\n      dup3\n      add\n      0x40\n      mstore\n      returndatasize\n      dup3\n      mstore\n      returndatasize\n      0x00\n      0x20\n      dup5\n      add\n      returndatacopy\n      jump(tag_227)\n    tag_228:\n      0x60\n      swap2\n      pop\n    tag_227:\n      pop\n        /* \"ROO_Repurchase/contracts/library/Address.sol\":4872:4947  (bool success, bytes memory returndata) = target.call{ value: value }(data) */\n      swap2\n      pop\n      swap2\n      pop\n        /* \"ROO_Repurchase/contracts/library/Address.sol\":4964:5016  _verifyCallResult(success, returndata, errorMessage) */\n      tag_229\n        /* \"ROO_Repurchase/contracts/library/Address.sol\":4982:4989  success */\n      dup3\n        /* \"ROO_Repurchase/contracts/library/Address.sol\":4991:5001  returndata */\n      dup3\n        /* \"ROO_Repurchase/contracts/library/Address.sol\":5003:5015  errorMessage */\n      dup7\n        /* \"ROO_Repurchase/contracts/library/Address.sol\":4964:4981  _verifyCallResult */\n      tag_230\n        /* \"ROO_Repurchase/contracts/library/Address.sol\":4964:5016  _verifyCallResult(success, returndata, errorMessage) */\n      jump\t// in\n    tag_229:\n        /* \"ROO_Repurchase/contracts/library/Address.sol\":4957:5016  return _verifyCallResult(success, returndata, errorMessage) */\n      swap8\n        /* \"ROO_Repurchase/contracts/library/Address.sol\":4500:5023  function functionCallWithValue(address target, bytes memory data, uint256 value, string memory errorMessage) internal returns (bytes memory) {... */\n      swap7\n      pop\n      pop\n      pop\n      pop\n      pop\n      pop\n      pop\n      jump\t// out\n        /* \"ROO_Repurchase/contracts/library/Address.sol\":618:1031  function isContract(address account) internal view returns (bool) {... */\n    tag_221:\n        /* \"ROO_Repurchase/contracts/library/Address.sol\":978:998  extcodesize(account) */\n      extcodesize\n        /* \"ROO_Repurchase/contracts/library/Address.sol\":1016:1024  size > 0 */\n      iszero\n      iszero\n      swap1\n        /* \"ROO_Repurchase/contracts/library/Address.sol\":618:1031  function isContract(address account) internal view returns (bool) {... */\n      jump\t// out\n        /* \"ROO_Repurchase/contracts/library/Address.sol\":6003:6728  function _verifyCallResult(bool success, bytes memory returndata, string memory errorMessage) private pure returns(bytes memory) {... */\n    tag_230:\n        /* \"ROO_Repurchase/contracts/library/Address.sol\":6118:6130  bytes memory */\n      0x60\n        /* \"ROO_Repurchase/contracts/library/Address.sol\":6146:6153  success */\n      dup4\n        /* \"ROO_Repurchase/contracts/library/Address.sol\":6142:6722  if (success) {... */\n      iszero\n      tag_233\n      jumpi\n      pop\n        /* \"ROO_Repurchase/contracts/library/Address.sol\":6176:6186  returndata */\n      dup2\n        /* \"ROO_Repurchase/contracts/library/Address.sol\":6169:6186  return returndata */\n      jump(tag_166)\n        /* \"ROO_Repurchase/contracts/library/Address.sol\":6142:6722  if (success) {... */\n    tag_233:\n        /* \"ROO_Repurchase/contracts/library/Address.sol\":6287:6304  returndata.length */\n      dup3\n      mload\n        /* \"ROO_Repurchase/contracts/library/Address.sol\":6287:6308  returndata.length > 0 */\n      iszero\n        /* \"ROO_Repurchase/contracts/library/Address.sol\":6283:6712  if (returndata.length > 0) {... */\n      tag_235\n      jumpi\n        /* \"ROO_Repurchase/contracts/library/Address.sol\":6545:6555  returndata */\n      dup3\n        /* \"ROO_Repurchase/contracts/library/Address.sol\":6539:6556  mload(returndata) */\n      mload\n        /* \"ROO_Repurchase/contracts/library/Address.sol\":6605:6620  returndata_size */\n      dup1\n        /* \"ROO_Repurchase/contracts/library/Address.sol\":6592:6602  returndata */\n      dup5\n        /* \"ROO_Repurchase/contracts/library/Address.sol\":6588:6590  32 */\n      0x20\n        /* \"ROO_Repurchase/contracts/library/Address.sol\":6584:6603  add(32, returndata) */\n      add\n        /* \"ROO_Repurchase/contracts/library/Address.sol\":6577:6621  revert(add(32, returndata), returndata_size) */\n      revert\n        /* \"ROO_Repurchase/contracts/library/Address.sol\":6494:6639  {... */\n    tag_235:\n        /* \"ROO_Repurchase/contracts/library/Address.sol\":6684:6696  errorMessage */\n      dup2\n        /* \"ROO_Repurchase/contracts/library/Address.sol\":6677:6697  revert(errorMessage) */\n      mload(0x40)\n      shl(0xe5, 0x461bcd)\n      dup2\n      mstore\n      0x04\n      add\n      dup1\n      dup1\n      0x20\n      add\n      dup3\n      dup2\n      sub\n      dup3\n      mstore\n      dup4\n      dup2\n      dup2\n      mload\n      dup2\n      mstore\n      0x20\n      add\n      swap2\n      pop\n      dup1\n      mload\n      swap1\n      0x20\n      add\n      swap1\n      dup1\n      dup4\n      dup4\n      0x00\n    tag_237:\n      dup4\n      dup2\n      lt\n      iszero\n      tag_239\n      jumpi\n      dup2\n      dup2\n      add\n      mload\n      dup4\n      dup3\n      add\n      mstore\n      0x20\n      add\n      jump(tag_237)\n    tag_239:\n      pop\n      pop\n      pop\n      pop\n      swap1\n      pop\n      swap1\n      dup2\n      add\n      swap1\n      0x1f\n      and\n      dup1\n      iszero\n      tag_240\n      jumpi\n      dup1\n      dup3\n      sub\n      dup1\n      mload\n      0x01\n      dup4\n      0x20\n      sub\n      0x0100\n      exp\n      sub\n      not\n      and\n      dup2\n      mstore\n      0x20\n      add\n      swap2\n      pop\n    tag_240:\n      pop\n      swap3\n      pop\n      pop\n      pop\n      mload(0x40)\n      dup1\n      swap2\n      sub\n      swap1\n      revert\n    stop\n    data_045d6834e6193a687012a3ad777f612279e549b6945364d9d2324f48610d3cbb 456e756d657261626c655365743a20696e646578206f7574206f6620626f756e6473\n    data_245f15ff17f551913a7a18385165551503906a406f905ac1c2437281a7cd0cfe 4f776e61626c653a206e6577206f776e657220697320746865207a65726f2061646472657373\n    data_565f1a77334fc4792800921178c71e4521acffab18ff9e7885b49377ee80ab4c 416464726573733a20696e73756666696369656e742062616c616e636520666f722063616c6c\n    data_9113bb53c2876a3805b2c9242029423fc540a728243ce887ab24c82cf119fba3 536166654d6174683a206d756c7469706c69636174696f6e206f766572666c6f77\n    data_9924ebdf1add33d25d4ef888e16131f0a5687b0580a36c21b5c301a6c462effe 4f776e61626c653a2063616c6c6572206973206e6f7420746865206f776e6572\n    data_e11ad79d1e4a7f2e5f376964cb99e8e8f7904e3fc16a109f7a7ecb9aa7956dcd 5361666545524332303a204552433230206f7065726174696f6e20646964206e6f742073756363656564\n\n    auxdata: 0xa264697066735822122075ed3ce19bc6a13a56c51118bf9bb6f6763a8c228ab27a11e037aea2f58e43da64736f6c634300060c0033\n}\n",
				"bytecode": {
					"linkReferences": {},
					"object": "608060405234801561001057600080fd5b506040516115bd3803806115bd8339818101604052602081101561003357600080fd5b5051600061003f6100fb565b600080546001600160a01b0319166001600160a01b0383169081178255604051929350917f8be0079c531659141344cd1fd0a4f28419497f9722a3daafe3b4186f6b6457e0908290a3506001600160a01b0381166100d6576040805162461bcd60e51b815260206004820152600f60248201526e4973207a65726f206164647265737360881b604482015290519081900360640190fd5b600380546001600160a01b0319166001600160a01b03929092169190911790556100ff565b3390565b6114af8061010e6000396000f3fe608060405234801561001057600080fd5b50600436106101165760003560e01c80637ac07dcc116100a2578063a8b0b3ed11610071578063a8b0b3ed14610287578063c54e44eb146102a4578063d12d9f15146102ac578063f2fde38b146102b4578063fddf3f73146102da57610116565b80637ac07dcc146102345780638c2f94101461025a5780638da5cb5b1461026257806394b918de1461026a57610116565b80636717f5b0116100e95780636717f5b0146101bb5780636bed55a6146101d85780636ff1c9bc146101e0578063715018a614610206578063747293fb1461020e57610116565b8063231a418c1461011b5780632aa11ffb1461015557806342177a581461017d5780635793d0af14610197575b600080fd5b6101416004803603602081101561013157600080fd5b50356001600160a01b03166102e2565b604080519115158252519081900360200190f35b61017b6004803603602081101561016b57600080fd5b50356001600160a01b03166103a8565b005b61018561046f565b60408051918252519081900360200190f35b61019f610480565b604080516001600160a01b039092168252519081900360200190f35b61017b600480360360208110156101d157600080fd5b5035610498565b6101856104f5565b61017b600480360360208110156101f657600080fd5b50356001600160a01b03166104fb565b61017b61071f565b6101416004803603602081101561022457600080fd5b50356001600160a01b03166107c1565b6101416004803603602081101561024a57600080fd5b50356001600160a01b0316610881565b61019f61088e565b61019f6108a6565b6101856004803603602081101561028057600080fd5b50356108b5565b61019f6004803603602081101561029d57600080fd5b5035610c55565b61019f610cb7565b61019f610ccf565b61017b600480360360208110156102ca57600080fd5b50356001600160a01b0316610cd5565b61019f610dcd565b60006102ec610ddc565b6000546001600160a01b0390811691161461033c576040805162461bcd60e51b81526020600482018190526024820152600080516020611430833981519152604482015290519081900360640190fd5b6001600160a01b038216610397576040805162461bcd60e51b815260206004820152601d60248201527f44656c43616c6c657220697320746865207a65726f2061646472657373000000604482015290519081900360640190fd5b6103a2600183610de0565b92915050565b6103b0610ddc565b6000546001600160a01b03908116911614610400576040805162461bcd60e51b81526020600482018190526024820152600080516020611430833981519152604482015290519081900360640190fd5b6001600160a01b03811661044d576040805162461bcd60e51b815260206004820152600f60248201526e4973207a65726f206164647265737360881b604482015290519081900360640190fd5b600380546001600160a01b0319166001600160a01b0392909216919091179055565b600061047b6001610dfc565b905090565b73addeb3a8fb46ddc3fee55085b6ad8dab4c4fc77181565b6104a0610ddc565b6000546001600160a01b039081169116146104f0576040805162461bcd60e51b81526020600482018190526024820152600080516020611430833981519152604482015290519081900360640190fd5b600455565b60045481565b610503610ddc565b6000546001600160a01b03908116911614610553576040805162461bcd60e51b81526020600482018190526024820152600080516020611430833981519152604482015290519081900360640190fd5b6000816001600160a01b03166370a08231306040518263ffffffff1660e01b815260040180826001600160a01b0316815260200191505060206040518083038186803b1580156105a257600080fd5b505afa1580156105b6573d6000803e3d6000fd5b505050506040513d60208110156105cc57600080fd5b505111610620576040805162461bcd60e51b815260206004820152601d60248201527f496e73756666696369656e7420636f6e74726163742062616c616e6365000000604482015290519081900360640190fd5b600354604080516370a0823160e01b815230600482015290516001600160a01b038085169363a9059cbb9391169184916370a08231916024808301926020929190829003018186803b15801561067557600080fd5b505afa158015610689573d6000803e3d6000fd5b505050506040513d602081101561069f57600080fd5b5051604080516001600160e01b031960e086901b1681526001600160a01b03909316600484015260248301919091525160448083019260209291908290030181600087803b1580156106f057600080fd5b505af1158015610704573d6000803e3d6000fd5b505050506040513d602081101561071a57600080fd5b505050565b610727610ddc565b6000546001600160a01b03908116911614610777576040805162461bcd60e51b81526020600482018190526024820152600080516020611430833981519152604482015290519081900360640190fd5b600080546040516001600160a01b03909116907f8be0079c531659141344cd1fd0a4f28419497f9722a3daafe3b4186f6b6457e0908390a3600080546001600160a01b0319169055565b60006107cb610ddc565b6000546001600160a01b0390811691161461081b576040805162461bcd60e51b81526020600482018190526024820152600080516020611430833981519152604482015290519081900360640190fd5b6001600160a01b038216610876576040805162461bcd60e51b815260206004820152601d60248201527f4e657743616c6c657220697320746865207a65726f2061646472657373000000604482015290519081900360640190fd5b6103a2600183610e07565b60006103a2600183610e1c565b73c05bb03bb7bfeb243ef364f544c81dd9a07040a281565b6000546001600160a01b031690565b60006108c033610881565b610902576040805162461bcd60e51b815260206004820152600e60248201526d2737ba103a34329031b0b63632b960911b604482015290519081900360640190fd5b60008211610957576040805162461bcd60e51b815260206004820181905260248201527f416d6f756e74206d7573742062652067726561746572207468616e207a65726f604482015290519081900360640190fd5b6004828155604080516370a0823160e01b8152309281019290925251839173a71edc38d189767582c38a3145b5873052c3e47a916370a0823191602480820192602092909190829003018186803b1580156109b157600080fd5b505afa1580156109c5573d6000803e3d6000fd5b505050506040513d60208110156109db57600080fd5b50511015610a30576040805162461bcd60e51b815260206004820152601d60248201527f496e73756666696369656e7420636f6e74726163742062616c616e6365000000604482015290519081900360640190fd5b60008073c05bb03bb7bfeb243ef364f544c81dd9a07040a26001600160a01b0316630902f1ac6040518163ffffffff1660e01b815260040160606040518083038186803b158015610a8057600080fd5b505afa158015610a94573d6000803e3d6000fd5b505050506040513d6060811015610aaa57600080fd5b5080516020909101516004546dffffffffffffffffffffffffffff928316945091169150600090610add906103e5610e31565b9050610af581610aef846103e8610e31565b90610e8a565b610b1684610b106103e5600454610e3190919063ffffffff16565b90610e31565b81610b1d57fe5b6004549190049450610b5a9073a71edc38d189767582c38a3145b5873052c3e47a9073c05bb03bb7bfeb243ef364f544c81dd9a07040a290610ee4565b604080516000808252602082019283905263022c0d9f60e01b8352602482018781526044830182905261dead60648401819052608060848501908152845160a4860181905273c05bb03bb7bfeb243ef364f544c81dd9a07040a29663022c0d9f968c969590939092909160c48501918083838a5b83811015610be6578181015183820152602001610bce565b50505050905090810190601f168015610c135780820380516001836020036101000a031916815260200191505b5095505050505050600060405180830381600087803b158015610c3557600080fd5b505af1158015610c49573d6000803e3d6000fd5b50505050505050919050565b60006001610c6161046f565b03821115610cac576040805162461bcd60e51b8152602060048201526013602482015272696e646578206f7574206f6620626f756e647360681b604482015290519081900360640190fd5b6103a2600183610f36565b73a71edc38d189767582c38a3145b5873052c3e47a81565b61dead81565b610cdd610ddc565b6000546001600160a01b03908116911614610d2d576040805162461bcd60e51b81526020600482018190526024820152600080516020611430833981519152604482015290519081900360640190fd5b6001600160a01b038116610d725760405162461bcd60e51b81526004018080602001828103825260268152602001806113c36026913960400191505060405180910390fd5b600080546040516001600160a01b03808516939216917f8be0079c531659141344cd1fd0a4f28419497f9722a3daafe3b4186f6b6457e091a3600080546001600160a01b0319166001600160a01b0392909216919091179055565b6003546001600160a01b031681565b3390565b6000610df5836001600160a01b038416610f42565b9392505050565b60006103a282611008565b6000610df5836001600160a01b03841661100c565b6000610df5836001600160a01b038416611056565b600082610e40575060006103a2565b82820282848281610e4d57fe5b0414610df55760405162461bcd60e51b815260040180806020018281038252602181526020018061140f6021913960400191505060405180910390fd5b600082820183811015610df5576040805162461bcd60e51b815260206004820152601b60248201527f536166654d6174683a206164646974696f6e206f766572666c6f770000000000604482015290519081900360640190fd5b604080516001600160a01b038416602482015260448082018490528251808303909101815260649091019091526020810180516001600160e01b031663a9059cbb60e01b17905261071a90849061106e565b6000610df5838361111f565b60008181526001830160205260408120548015610ffe5783546000198083019190810190600090879083908110610f7557fe5b9060005260206000200154905080876000018481548110610f9257fe5b600091825260208083209091019290925582815260018981019092526040902090840190558654879080610fc257fe5b600190038181906000526020600020016000905590558660010160008781526020019081526020016000206000905560019450505050506103a2565b60009150506103a2565b5490565b60006110188383611056565b61104e575081546001818101845560008481526020808220909301849055845484825282860190935260409020919091556103a2565b5060006103a2565b60009081526001919091016020526040902054151590565b60606110c3826040518060400160405280602081526020017f5361666545524332303a206c6f772d6c6576656c2063616c6c206661696c6564815250856001600160a01b03166111839092919063ffffffff16565b80519091501561071a578080602001905160208110156110e257600080fd5b505161071a5760405162461bcd60e51b815260040180806020018281038252602a815260200180611450602a913960400191505060405180910390fd5b815460009082106111615760405162461bcd60e51b81526004018080602001828103825260228152602001806113a16022913960400191505060405180910390fd5b82600001828154811061117057fe5b9060005260206000200154905092915050565b6060611192848460008561119a565b949350505050565b6060824710156111db5760405162461bcd60e51b81526004018080602001828103825260268152602001806113e96026913960400191505060405180910390fd5b6111e4856112f6565b611235576040805162461bcd60e51b815260206004820152601d60248201527f416464726573733a2063616c6c20746f206e6f6e2d636f6e7472616374000000604482015290519081900360640190fd5b60006060866001600160a01b031685876040518082805190602001908083835b602083106112745780518252601f199092019160209182019101611255565b6001836020036101000a03801982511681845116808217855250505050505090500191505060006040518083038185875af1925050503d80600081146112d6576040519150601f19603f3d011682016040523d82523d6000602084013e6112db565b606091505b50915091506112eb8282866112fc565b979650505050505050565b3b151590565b6060831561130b575081610df5565b82511561131b5782518084602001fd5b8160405162461bcd60e51b81526004018080602001828103825283818151815260200191508051906020019080838360005b8381101561136557818101518382015260200161134d565b50505050905090810190601f1680156113925780820380516001836020036101000a031916815260200191505b509250505060405180910390fdfe456e756d657261626c655365743a20696e646578206f7574206f6620626f756e64734f776e61626c653a206e6577206f776e657220697320746865207a65726f2061646472657373416464726573733a20696e73756666696369656e742062616c616e636520666f722063616c6c536166654d6174683a206d756c7469706c69636174696f6e206f766572666c6f774f776e61626c653a2063616c6c6572206973206e6f7420746865206f776e65725361666545524332303a204552433230206f7065726174696f6e20646964206e6f742073756363656564a264697066735822122075ed3ce19bc6a13a56c51118bf9bb6f6763a8c228ab27a11e037aea2f58e43da64736f6c634300060c0033",
					"opcodes": "PUSH1 0x80 PUSH1 0x40 MSTORE CALLVALUE DUP1 ISZERO PUSH2 0x10 JUMPI PUSH1 0x0 DUP1 REVERT JUMPDEST POP PUSH1 0x40 MLOAD PUSH2 0x15BD CODESIZE SUB DUP1 PUSH2 0x15BD DUP4 CODECOPY DUP2 DUP2 ADD PUSH1 0x40 MSTORE PUSH1 0x20 DUP2 LT ISZERO PUSH2 0x33 JUMPI PUSH1 0x0 DUP1 REVERT JUMPDEST POP MLOAD PUSH1 0x0 PUSH2 0x3F PUSH2 0xFB JUMP JUMPDEST PUSH1 0x0 DUP1 SLOAD PUSH1 0x1 PUSH1 0x1 PUSH1 0xA0 SHL SUB NOT AND PUSH1 0x1 PUSH1 0x1 PUSH1 0xA0 SHL SUB DUP4 AND SWAP1 DUP2 OR DUP3 SSTORE PUSH1 0x40 MLOAD SWAP3 SWAP4 POP SWAP2 PUSH32 0x8BE0079C531659141344CD1FD0A4F28419497F9722A3DAAFE3B4186F6B6457E0 SWAP1 DUP3 SWAP1 LOG3 POP PUSH1 0x1 PUSH1 0x1 PUSH1 0xA0 SHL SUB DUP2 AND PUSH2 0xD6 JUMPI PUSH1 0x40 DUP1 MLOAD PUSH3 0x461BCD PUSH1 0xE5 SHL DUP2 MSTORE PUSH1 0x20 PUSH1 0x4 DUP3 ADD MSTORE PUSH1 0xF PUSH1 0x24 DUP3 ADD MSTORE PUSH15 0x4973207A65726F2061646472657373 PUSH1 0x88 SHL PUSH1 0x44 DUP3 ADD MSTORE SWAP1 MLOAD SWAP1 DUP2 SWAP1 SUB PUSH1 0x64 ADD SWAP1 REVERT JUMPDEST PUSH1 0x3 DUP1 SLOAD PUSH1 0x1 PUSH1 0x1 PUSH1 0xA0 SHL SUB NOT AND PUSH1 0x1 PUSH1 0x1 PUSH1 0xA0 SHL SUB SWAP3 SWAP1 SWAP3 AND SWAP2 SWAP1 SWAP2 OR SWAP1 SSTORE PUSH2 0xFF JUMP JUMPDEST CALLER SWAP1 JUMP JUMPDEST PUSH2 0x14AF DUP1 PUSH2 0x10E PUSH1 0x0 CODECOPY PUSH1 0x0 RETURN INVALID PUSH1 0x80 PUSH1 0x40 MSTORE CALLVALUE DUP1 ISZERO PUSH2 0x10 JUMPI PUSH1 0x0 DUP1 REVERT JUMPDEST POP PUSH1 0x4 CALLDATASIZE LT PUSH2 0x116 JUMPI PUSH1 0x0 CALLDATALOAD PUSH1 0xE0 SHR DUP1 PUSH4 0x7AC07DCC GT PUSH2 0xA2 JUMPI DUP1 PUSH4 0xA8B0B3ED GT PUSH2 0x71 JUMPI DUP1 PUSH4 0xA8B0B3ED EQ PUSH2 0x287 JUMPI DUP1 PUSH4 0xC54E44EB EQ PUSH2 0x2A4 JUMPI DUP1 PUSH4 0xD12D9F15 EQ PUSH2 0x2AC JUMPI DUP1 PUSH4 0xF2FDE38B EQ PUSH2 0x2B4 JUMPI DUP1 PUSH4 0xFDDF3F73 EQ PUSH2 0x2DA JUMPI PUSH2 0x116 JUMP JUMPDEST DUP1 PUSH4 0x7AC07DCC EQ PUSH2 0x234 JUMPI DUP1 PUSH4 0x8C2F9410 EQ PUSH2 0x25A JUMPI DUP1 PUSH4 0x8DA5CB5B EQ PUSH2 0x262 JUMPI DUP1 PUSH4 0x94B918DE EQ PUSH2 0x26A JUMPI PUSH2 0x116 JUMP JUMPDEST DUP1 PUSH4 0x6717F5B0 GT PUSH2 0xE9 JUMPI DUP1 PUSH4 0x6717F5B0 EQ PUSH2 0x1BB JUMPI DUP1 PUSH4 0x6BED55A6 EQ PUSH2 0x1D8 JUMPI DUP1 PUSH4 0x6FF1C9BC EQ PUSH2 0x1E0 JUMPI DUP1 PUSH4 0x715018A6 EQ PUSH2 0x206 JUMPI DUP1 PUSH4 0x747293FB EQ PUSH2 0x20E JUMPI PUSH2 0x116 JUMP JUMPDEST DUP1 PUSH4 0x231A418C EQ PUSH2 0x11B JUMPI DUP1 PUSH4 0x2AA11FFB EQ PUSH2 0x155 JUMPI DUP1 PUSH4 0x42177A58 EQ PUSH2 0x17D JUMPI DUP1 PUSH4 0x5793D0AF EQ PUSH2 0x197 JUMPI JUMPDEST PUSH1 0x0 DUP1 REVERT JUMPDEST PUSH2 0x141 PUSH1 0x4 DUP1 CALLDATASIZE SUB PUSH1 0x20 DUP2 LT ISZERO PUSH2 0x131 JUMPI PUSH1 0x0 DUP1 REVERT JUMPDEST POP CALLDATALOAD PUSH1 0x1 PUSH1 0x1 PUSH1 0xA0 SHL SUB AND PUSH2 0x2E2 JUMP JUMPDEST PUSH1 0x40 DUP1 MLOAD SWAP2 ISZERO ISZERO DUP3 MSTORE MLOAD SWAP1 DUP2 SWAP1 SUB PUSH1 0x20 ADD SWAP1 RETURN JUMPDEST PUSH2 0x17B PUSH1 0x4 DUP1 CALLDATASIZE SUB PUSH1 0x20 DUP2 LT ISZERO PUSH2 0x16B JUMPI PUSH1 0x0 DUP1 REVERT JUMPDEST POP CALLDATALOAD PUSH1 0x1 PUSH1 0x1 PUSH1 0xA0 SHL SUB AND PUSH2 0x3A8 JUMP JUMPDEST STOP JUMPDEST PUSH2 0x185 PUSH2 0x46F JUMP JUMPDEST PUSH1 0x40 DUP1 MLOAD SWAP2 DUP3 MSTORE MLOAD SWAP1 DUP2 SWAP1 SUB PUSH1 0x20 ADD SWAP1 RETURN JUMPDEST PUSH2 0x19F PUSH2 0x480 JUMP JUMPDEST PUSH1 0x40 DUP1 MLOAD PUSH1 0x1 PUSH1 0x1 PUSH1 0xA0 SHL SUB SWAP1 SWAP3 AND DUP3 MSTORE MLOAD SWAP1 DUP2 SWAP1 SUB PUSH1 0x20 ADD SWAP1 RETURN JUMPDEST PUSH2 0x17B PUSH1 0x4 DUP1 CALLDATASIZE SUB PUSH1 0x20 DUP2 LT ISZERO PUSH2 0x1D1 JUMPI PUSH1 0x0 DUP1 REVERT JUMPDEST POP CALLDATALOAD PUSH2 0x498 JUMP JUMPDEST PUSH2 0x185 PUSH2 0x4F5 JUMP JUMPDEST PUSH2 0x17B PUSH1 0x4 DUP1 CALLDATASIZE SUB PUSH1 0x20 DUP2 LT ISZERO PUSH2 0x1F6 JUMPI PUSH1 0x0 DUP1 REVERT JUMPDEST POP CALLDATALOAD PUSH1 0x1 PUSH1 0x1 PUSH1 0xA0 SHL SUB AND PUSH2 0x4FB JUMP JUMPDEST PUSH2 0x17B PUSH2 0x71F JUMP JUMPDEST PUSH2 0x141 PUSH1 0x4 DUP1 CALLDATASIZE SUB PUSH1 0x20 DUP2 LT ISZERO PUSH2 0x224 JUMPI PUSH1 0x0 DUP1 REVERT JUMPDEST POP CALLDATALOAD PUSH1 0x1 PUSH1 0x1 PUSH1 0xA0 SHL SUB AND PUSH2 0x7C1 JUMP JUMPDEST PUSH2 0x141 PUSH1 0x4 DUP1 CALLDATASIZE SUB PUSH1 0x20 DUP2 LT ISZERO PUSH2 0x24A JUMPI PUSH1 0x0 DUP1 REVERT JUMPDEST POP CALLDATALOAD PUSH1 0x1 PUSH1 0x1 PUSH1 0xA0 SHL SUB AND PUSH2 0x881 JUMP JUMPDEST PUSH2 0x19F PUSH2 0x88E JUMP JUMPDEST PUSH2 0x19F PUSH2 0x8A6 JUMP JUMPDEST PUSH2 0x185 PUSH1 0x4 DUP1 CALLDATASIZE SUB PUSH1 0x20 DUP2 LT ISZERO PUSH2 0x280 JUMPI PUSH1 0x0 DUP1 REVERT JUMPDEST POP CALLDATALOAD PUSH2 0x8B5 JUMP JUMPDEST PUSH2 0x19F PUSH1 0x4 DUP1 CALLDATASIZE SUB PUSH1 0x20 DUP2 LT ISZERO PUSH2 0x29D JUMPI PUSH1 0x0 DUP1 REVERT JUMPDEST POP CALLDATALOAD PUSH2 0xC55 JUMP JUMPDEST PUSH2 0x19F PUSH2 0xCB7 JUMP JUMPDEST PUSH2 0x19F PUSH2 0xCCF JUMP JUMPDEST PUSH2 0x17B PUSH1 0x4 DUP1 CALLDATASIZE SUB PUSH1 0x20 DUP2 LT ISZERO PUSH2 0x2CA JUMPI PUSH1 0x0 DUP1 REVERT JUMPDEST POP CALLDATALOAD PUSH1 0x1 PUSH1 0x1 PUSH1 0xA0 SHL SUB AND PUSH2 0xCD5 JUMP JUMPDEST PUSH2 0x19F PUSH2 0xDCD JUMP JUMPDEST PUSH1 0x0 PUSH2 0x2EC PUSH2 0xDDC JUMP JUMPDEST PUSH1 0x0 SLOAD PUSH1 0x1 PUSH1 0x1 PUSH1 0xA0 SHL SUB SWAP1 DUP2 AND SWAP2 AND EQ PUSH2 0x33C JUMPI PUSH1 0x40 DUP1 MLOAD PUSH3 0x461BCD PUSH1 0xE5 SHL DUP2 MSTORE PUSH1 0x20 PUSH1 0x4 DUP3 ADD DUP2 SWAP1 MSTORE PUSH1 0x24 DUP3 ADD MSTORE PUSH1 0x0 DUP1 MLOAD PUSH1 0x20 PUSH2 0x1430 DUP4 CODECOPY DUP2 MLOAD SWAP2 MSTORE PUSH1 0x44 DUP3 ADD MSTORE SWAP1 MLOAD SWAP1 DUP2 SWAP1 SUB PUSH1 0x64 ADD SWAP1 REVERT JUMPDEST PUSH1 0x1 PUSH1 0x1 PUSH1 0xA0 SHL SUB DUP3 AND PUSH2 0x397 JUMPI PUSH1 0x40 DUP1 MLOAD PUSH3 0x461BCD PUSH1 0xE5 SHL DUP2 MSTORE PUSH1 0x20 PUSH1 0x4 DUP3 ADD MSTORE PUSH1 0x1D PUSH1 0x24 DUP3 ADD MSTORE PUSH32 0x44656C43616C6C657220697320746865207A65726F2061646472657373000000 PUSH1 0x44 DUP3 ADD MSTORE SWAP1 MLOAD SWAP1 DUP2 SWAP1 SUB PUSH1 0x64 ADD SWAP1 REVERT JUMPDEST PUSH2 0x3A2 PUSH1 0x1 DUP4 PUSH2 0xDE0 JUMP JUMPDEST SWAP3 SWAP2 POP POP JUMP JUMPDEST PUSH2 0x3B0 PUSH2 0xDDC JUMP JUMPDEST PUSH1 0x0 SLOAD PUSH1 0x1 PUSH1 0x1 PUSH1 0xA0 SHL SUB SWAP1 DUP2 AND SWAP2 AND EQ PUSH2 0x400 JUMPI PUSH1 0x40 DUP1 MLOAD PUSH3 0x461BCD PUSH1 0xE5 SHL DUP2 MSTORE PUSH1 0x20 PUSH1 0x4 DUP3 ADD DUP2 SWAP1 MSTORE PUSH1 0x24 DUP3 ADD MSTORE PUSH1 0x0 DUP1 MLOAD PUSH1 0x20 PUSH2 0x1430 DUP4 CODECOPY DUP2 MLOAD SWAP2 MSTORE PUSH1 0x44 DUP3 ADD MSTORE SWAP1 MLOAD SWAP1 DUP2 SWAP1 SUB PUSH1 0x64 ADD SWAP1 REVERT JUMPDEST PUSH1 0x1 PUSH1 0x1 PUSH1 0xA0 SHL SUB DUP2 AND PUSH2 0x44D JUMPI PUSH1 0x40 DUP1 MLOAD PUSH3 0x461BCD PUSH1 0xE5 SHL DUP2 MSTORE PUSH1 0x20 PUSH1 0x4 DUP3 ADD MSTORE PUSH1 0xF PUSH1 0x24 DUP3 ADD MSTORE PUSH15 0x4973207A65726F2061646472657373 PUSH1 0x88 SHL PUSH1 0x44 DUP3 ADD MSTORE SWAP1 MLOAD SWAP1 DUP2 SWAP1 SUB PUSH1 0x64 ADD SWAP1 REVERT JUMPDEST PUSH1 0x3 DUP1 SLOAD PUSH1 0x1 PUSH1 0x1 PUSH1 0xA0 SHL SUB NOT AND PUSH1 0x1 PUSH1 0x1 PUSH1 0xA0 SHL SUB SWAP3 SWAP1 SWAP3 AND SWAP2 SWAP1 SWAP2 OR SWAP1 SSTORE JUMP JUMPDEST PUSH1 0x0 PUSH2 0x47B PUSH1 0x1 PUSH2 0xDFC JUMP JUMPDEST SWAP1 POP SWAP1 JUMP JUMPDEST PUSH20 0xADDEB3A8FB46DDC3FEE55085B6AD8DAB4C4FC771 DUP2 JUMP JUMPDEST PUSH2 0x4A0 PUSH2 0xDDC JUMP JUMPDEST PUSH1 0x0 SLOAD PUSH1 0x1 PUSH1 0x1 PUSH1 0xA0 SHL SUB SWAP1 DUP2 AND SWAP2 AND EQ PUSH2 0x4F0 JUMPI PUSH1 0x40 DUP1 MLOAD PUSH3 0x461BCD PUSH1 0xE5 SHL DUP2 MSTORE PUSH1 0x20 PUSH1 0x4 DUP3 ADD DUP2 SWAP1 MSTORE PUSH1 0x24 DUP3 ADD MSTORE PUSH1 0x0 DUP1 MLOAD PUSH1 0x20 PUSH2 0x1430 DUP4 CODECOPY DUP2 MLOAD SWAP2 MSTORE PUSH1 0x44 DUP3 ADD MSTORE SWAP1 MLOAD SWAP1 DUP2 SWAP1 SUB PUSH1 0x64 ADD SWAP1 REVERT JUMPDEST PUSH1 0x4 SSTORE JUMP JUMPDEST PUSH1 0x4 SLOAD DUP2 JUMP JUMPDEST PUSH2 0x503 PUSH2 0xDDC JUMP JUMPDEST PUSH1 0x0 SLOAD PUSH1 0x1 PUSH1 0x1 PUSH1 0xA0 SHL SUB SWAP1 DUP2 AND SWAP2 AND EQ PUSH2 0x553 JUMPI PUSH1 0x40 DUP1 MLOAD PUSH3 0x461BCD PUSH1 0xE5 SHL DUP2 MSTORE PUSH1 0x20 PUSH1 0x4 DUP3 ADD DUP2 SWAP1 MSTORE PUSH1 0x24 DUP3 ADD MSTORE PUSH1 0x0 DUP1 MLOAD PUSH1 0x20 PUSH2 0x1430 DUP4 CODECOPY DUP2 MLOAD SWAP2 MSTORE PUSH1 0x44 DUP3 ADD MSTORE SWAP1 MLOAD SWAP1 DUP2 SWAP1 SUB PUSH1 0x64 ADD SWAP1 REVERT JUMPDEST PUSH1 0x0 DUP2 PUSH1 0x1 PUSH1 0x1 PUSH1 0xA0 SHL SUB AND PUSH4 0x70A08231 ADDRESS PUSH1 0x40 MLOAD DUP3 PUSH4 0xFFFFFFFF AND PUSH1 0xE0 SHL DUP2 MSTORE PUSH1 0x4 ADD DUP1 DUP3 PUSH1 0x1 PUSH1 0x1 PUSH1 0xA0 SHL SUB AND DUP2 MSTORE PUSH1 0x20 ADD SWAP2 POP POP PUSH1 0x20 PUSH1 0x40 MLOAD DUP1 DUP4 SUB DUP2 DUP7 DUP1 EXTCODESIZE ISZERO DUP1 ISZERO PUSH2 0x5A2 JUMPI PUSH1 0x0 DUP1 REVERT JUMPDEST POP GAS STATICCALL ISZERO DUP1 ISZERO PUSH2 0x5B6 JUMPI RETURNDATASIZE PUSH1 0x0 DUP1 RETURNDATACOPY RETURNDATASIZE PUSH1 0x0 REVERT JUMPDEST POP POP POP POP PUSH1 0x40 MLOAD RETURNDATASIZE PUSH1 0x20 DUP2 LT ISZERO PUSH2 0x5CC JUMPI PUSH1 0x0 DUP1 REVERT JUMPDEST POP MLOAD GT PUSH2 0x620 JUMPI PUSH1 0x40 DUP1 MLOAD PUSH3 0x461BCD PUSH1 0xE5 SHL DUP2 MSTORE PUSH1 0x20 PUSH1 0x4 DUP3 ADD MSTORE PUSH1 0x1D PUSH1 0x24 DUP3 ADD MSTORE PUSH32 0x496E73756666696369656E7420636F6E74726163742062616C616E6365000000 PUSH1 0x44 DUP3 ADD MSTORE SWAP1 MLOAD SWAP1 DUP2 SWAP1 SUB PUSH1 0x64 ADD SWAP1 REVERT JUMPDEST PUSH1 0x3 SLOAD PUSH1 0x40 DUP1 MLOAD PUSH4 0x70A08231 PUSH1 0xE0 SHL DUP2 MSTORE ADDRESS PUSH1 0x4 DUP3 ADD MSTORE SWAP1 MLOAD PUSH1 0x1 PUSH1 0x1 PUSH1 0xA0 SHL SUB DUP1 DUP6 AND SWAP4 PUSH4 0xA9059CBB SWAP4 SWAP2 AND SWAP2 DUP5 SWAP2 PUSH4 0x70A08231 SWAP2 PUSH1 0x24 DUP1 DUP4 ADD SWAP3 PUSH1 0x20 SWAP3 SWAP2 SWAP1 DUP3 SWAP1 SUB ADD DUP2 DUP7 DUP1 EXTCODESIZE ISZERO DUP1 ISZERO PUSH2 0x675 JUMPI PUSH1 0x0 DUP1 REVERT JUMPDEST POP GAS STATICCALL ISZERO DUP1 ISZERO PUSH2 0x689 JUMPI RETURNDATASIZE PUSH1 0x0 DUP1 RETURNDATACOPY RETURNDATASIZE PUSH1 0x0 REVERT JUMPDEST POP POP POP POP PUSH1 0x40 MLOAD RETURNDATASIZE PUSH1 0x20 DUP2 LT ISZERO PUSH2 0x69F JUMPI PUSH1 0x0 DUP1 REVERT JUMPDEST POP MLOAD PUSH1 0x40 DUP1 MLOAD PUSH1 0x1 PUSH1 0x1 PUSH1 0xE0 SHL SUB NOT PUSH1 0xE0 DUP7 SWAP1 SHL AND DUP2 MSTORE PUSH1 0x1 PUSH1 0x1 PUSH1 0xA0 SHL SUB SWAP1 SWAP4 AND PUSH1 0x4 DUP5 ADD MSTORE PUSH1 0x24 DUP4 ADD SWAP2 SWAP1 SWAP2 MSTORE MLOAD PUSH1 0x44 DUP1 DUP4 ADD SWAP3 PUSH1 0x20 SWAP3 SWAP2 SWAP1 DUP3 SWAP1 SUB ADD DUP2 PUSH1 0x0 DUP8 DUP1 EXTCODESIZE ISZERO DUP1 ISZERO PUSH2 0x6F0 JUMPI PUSH1 0x0 DUP1 REVERT JUMPDEST POP GAS CALL ISZERO DUP1 ISZERO PUSH2 0x704 JUMPI RETURNDATASIZE PUSH1 0x0 DUP1 RETURNDATACOPY RETURNDATASIZE PUSH1 0x0 REVERT JUMPDEST POP POP POP POP PUSH1 0x40 MLOAD RETURNDATASIZE PUSH1 0x20 DUP2 LT ISZERO PUSH2 0x71A JUMPI PUSH1 0x0 DUP1 REVERT JUMPDEST POP POP POP JUMP JUMPDEST PUSH2 0x727 PUSH2 0xDDC JUMP JUMPDEST PUSH1 0x0 SLOAD PUSH1 0x1 PUSH1 0x1 PUSH1 0xA0 SHL SUB SWAP1 DUP2 AND SWAP2 AND EQ PUSH2 0x777 JUMPI PUSH1 0x40 DUP1 MLOAD PUSH3 0x461BCD PUSH1 0xE5 SHL DUP2 MSTORE PUSH1 0x20 PUSH1 0x4 DUP3 ADD DUP2 SWAP1 MSTORE PUSH1 0x24 DUP3 ADD MSTORE PUSH1 0x0 DUP1 MLOAD PUSH1 0x20 PUSH2 0x1430 DUP4 CODECOPY DUP2 MLOAD SWAP2 MSTORE PUSH1 0x44 DUP3 ADD MSTORE SWAP1 MLOAD SWAP1 DUP2 SWAP1 SUB PUSH1 0x64 ADD SWAP1 REVERT JUMPDEST PUSH1 0x0 DUP1 SLOAD PUSH1 0x40 MLOAD PUSH1 0x1 PUSH1 0x1 PUSH1 0xA0 SHL SUB SWAP1 SWAP2 AND SWAP1 PUSH32 0x8BE0079C531659141344CD1FD0A4F28419497F9722A3DAAFE3B4186F6B6457E0 SWAP1 DUP4 SWAP1 LOG3 PUSH1 0x0 DUP1 SLOAD PUSH1 0x1 PUSH1 0x1 PUSH1 0xA0 SHL SUB NOT AND SWAP1 SSTORE JUMP JUMPDEST PUSH1 0x0 PUSH2 0x7CB PUSH2 0xDDC JUMP JUMPDEST PUSH1 0x0 SLOAD PUSH1 0x1 PUSH1 0x1 PUSH1 0xA0 SHL SUB SWAP1 DUP2 AND SWAP2 AND EQ PUSH2 0x81B JUMPI PUSH1 0x40 DUP1 MLOAD PUSH3 0x461BCD PUSH1 0xE5 SHL DUP2 MSTORE PUSH1 0x20 PUSH1 0x4 DUP3 ADD DUP2 SWAP1 MSTORE PUSH1 0x24 DUP3 ADD MSTORE PUSH1 0x0 DUP1 MLOAD PUSH1 0x20 PUSH2 0x1430 DUP4 CODECOPY DUP2 MLOAD SWAP2 MSTORE PUSH1 0x44 DUP3 ADD MSTORE SWAP1 MLOAD SWAP1 DUP2 SWAP1 SUB PUSH1 0x64 ADD SWAP1 REVERT JUMPDEST PUSH1 0x1 PUSH1 0x1 PUSH1 0xA0 SHL SUB DUP3 AND PUSH2 0x876 JUMPI PUSH1 0x40 DUP1 MLOAD PUSH3 0x461BCD PUSH1 0xE5 SHL DUP2 MSTORE PUSH1 0x20 PUSH1 0x4 DUP3 ADD MSTORE PUSH1 0x1D PUSH1 0x24 DUP3 ADD MSTORE PUSH32 0x4E657743616C6C657220697320746865207A65726F2061646472657373000000 PUSH1 0x44 DUP3 ADD MSTORE SWAP1 MLOAD SWAP1 DUP2 SWAP1 SUB PUSH1 0x64 ADD SWAP1 REVERT JUMPDEST PUSH2 0x3A2 PUSH1 0x1 DUP4 PUSH2 0xE07 JUMP JUMPDEST PUSH1 0x0 PUSH2 0x3A2 PUSH1 0x1 DUP4 PUSH2 0xE1C JUMP JUMPDEST PUSH20 0xC05BB03BB7BFEB243EF364F544C81DD9A07040A2 DUP2 JUMP JUMPDEST PUSH1 0x0 SLOAD PUSH1 0x1 PUSH1 0x1 PUSH1 0xA0 SHL SUB AND SWAP1 JUMP JUMPDEST PUSH1 0x0 PUSH2 0x8C0 CALLER PUSH2 0x881 JUMP JUMPDEST PUSH2 0x902 JUMPI PUSH1 0x40 DUP1 MLOAD PUSH3 0x461BCD PUSH1 0xE5 SHL DUP2 MSTORE PUSH1 0x20 PUSH1 0x4 DUP3 ADD MSTORE PUSH1 0xE PUSH1 0x24 DUP3 ADD MSTORE PUSH14 0x2737BA103A34329031B0B63632B9 PUSH1 0x91 SHL PUSH1 0x44 DUP3 ADD MSTORE SWAP1 MLOAD SWAP1 DUP2 SWAP1 SUB PUSH1 0x64 ADD SWAP1 REVERT JUMPDEST PUSH1 0x0 DUP3 GT PUSH2 0x957 JUMPI PUSH1 0x40 DUP1 MLOAD PUSH3 0x461BCD PUSH1 0xE5 SHL DUP2 MSTORE PUSH1 0x20 PUSH1 0x4 DUP3 ADD DUP2 SWAP1 MSTORE PUSH1 0x24 DUP3 ADD MSTORE PUSH32 0x416D6F756E74206D7573742062652067726561746572207468616E207A65726F PUSH1 0x44 DUP3 ADD MSTORE SWAP1 MLOAD SWAP1 DUP2 SWAP1 SUB PUSH1 0x64 ADD SWAP1 REVERT JUMPDEST PUSH1 0x4 DUP3 DUP2 SSTORE PUSH1 0x40 DUP1 MLOAD PUSH4 0x70A08231 PUSH1 0xE0 SHL DUP2 MSTORE ADDRESS SWAP3 DUP2 ADD SWAP3 SWAP1 SWAP3 MSTORE MLOAD DUP4 SWAP2 PUSH20 0xA71EDC38D189767582C38A3145B5873052C3E47A SWAP2 PUSH4 0x70A08231 SWAP2 PUSH1 0x24 DUP1 DUP3 ADD SWAP3 PUSH1 0x20 SWAP3 SWAP1 SWAP2 SWAP1 DUP3 SWAP1 SUB ADD DUP2 DUP7 DUP1 EXTCODESIZE ISZERO DUP1 ISZERO PUSH2 0x9B1 JUMPI PUSH1 0x0 DUP1 REVERT JUMPDEST POP GAS STATICCALL ISZERO DUP1 ISZERO PUSH2 0x9C5 JUMPI RETURNDATASIZE PUSH1 0x0 DUP1 RETURNDATACOPY RETURNDATASIZE PUSH1 0x0 REVERT JUMPDEST POP POP POP POP PUSH1 0x40 MLOAD RETURNDATASIZE PUSH1 0x20 DUP2 LT ISZERO PUSH2 0x9DB JUMPI PUSH1 0x0 DUP1 REVERT JUMPDEST POP MLOAD LT ISZERO PUSH2 0xA30 JUMPI PUSH1 0x40 DUP1 MLOAD PUSH3 0x461BCD PUSH1 0xE5 SHL DUP2 MSTORE PUSH1 0x20 PUSH1 0x4 DUP3 ADD MSTORE PUSH1 0x1D PUSH1 0x24 DUP3 ADD MSTORE PUSH32 0x496E73756666696369656E7420636F6E74726163742062616C616E6365000000 PUSH1 0x44 DUP3 ADD MSTORE SWAP1 MLOAD SWAP1 DUP2 SWAP1 SUB PUSH1 0x64 ADD SWAP1 REVERT JUMPDEST PUSH1 0x0 DUP1 PUSH20 0xC05BB03BB7BFEB243EF364F544C81DD9A07040A2 PUSH1 0x1 PUSH1 0x1 PUSH1 0xA0 SHL SUB AND PUSH4 0x902F1AC PUSH1 0x40 MLOAD DUP2 PUSH4 0xFFFFFFFF AND PUSH1 0xE0 SHL DUP2 MSTORE PUSH1 0x4 ADD PUSH1 0x60 PUSH1 0x40 MLOAD DUP1 DUP4 SUB DUP2 DUP7 DUP1 EXTCODESIZE ISZERO DUP1 ISZERO PUSH2 0xA80 JUMPI PUSH1 0x0 DUP1 REVERT JUMPDEST POP GAS STATICCALL ISZERO DUP1 ISZERO PUSH2 0xA94 JUMPI RETURNDATASIZE PUSH1 0x0 DUP1 RETURNDATACOPY RETURNDATASIZE PUSH1 0x0 REVERT JUMPDEST POP POP POP POP PUSH1 0x40 MLOAD RETURNDATASIZE PUSH1 0x60 DUP2 LT ISZERO PUSH2 0xAAA JUMPI PUSH1 0x0 DUP1 REVERT JUMPDEST POP DUP1 MLOAD PUSH1 0x20 SWAP1 SWAP2 ADD MLOAD PUSH1 0x4 SLOAD PUSH14 0xFFFFFFFFFFFFFFFFFFFFFFFFFFFF SWAP3 DUP4 AND SWAP5 POP SWAP2 AND SWAP2 POP PUSH1 0x0 SWAP1 PUSH2 0xADD SWAP1 PUSH2 0x3E5 PUSH2 0xE31 JUMP JUMPDEST SWAP1 POP PUSH2 0xAF5 DUP2 PUSH2 0xAEF DUP5 PUSH2 0x3E8 PUSH2 0xE31 JUMP JUMPDEST SWAP1 PUSH2 0xE8A JUMP JUMPDEST PUSH2 0xB16 DUP5 PUSH2 0xB10 PUSH2 0x3E5 PUSH1 0x4 SLOAD PUSH2 0xE31 SWAP1 SWAP2 SWAP1 PUSH4 0xFFFFFFFF AND JUMP JUMPDEST SWAP1 PUSH2 0xE31 JUMP JUMPDEST DUP2 PUSH2 0xB1D JUMPI INVALID JUMPDEST PUSH1 0x4 SLOAD SWAP2 SWAP1 DIV SWAP5 POP PUSH2 0xB5A SWAP1 PUSH20 0xA71EDC38D189767582C38A3145B5873052C3E47A SWAP1 PUSH20 0xC05BB03BB7BFEB243EF364F544C81DD9A07040A2 SWAP1 PUSH2 0xEE4 JUMP JUMPDEST PUSH1 0x40 DUP1 MLOAD PUSH1 0x0 DUP1 DUP3 MSTORE PUSH1 0x20 DUP3 ADD SWAP3 DUP4 SWAP1 MSTORE PUSH4 0x22C0D9F PUSH1 0xE0 SHL DUP4 MSTORE PUSH1 0x24 DUP3 ADD DUP8 DUP2 MSTORE PUSH1 0x44 DUP4 ADD DUP3 SWAP1 MSTORE PUSH2 0xDEAD PUSH1 0x64 DUP5 ADD DUP2 SWAP1 MSTORE PUSH1 0x80 PUSH1 0x84 DUP6 ADD SWAP1 DUP2 MSTORE DUP5 MLOAD PUSH1 0xA4 DUP7 ADD DUP2 SWAP1 MSTORE PUSH20 0xC05BB03BB7BFEB243EF364F544C81DD9A07040A2 SWAP7 PUSH4 0x22C0D9F SWAP7 DUP13 SWAP7 SWAP6 SWAP1 SWAP4 SWAP1 SWAP3 SWAP1 SWAP2 PUSH1 0xC4 DUP6 ADD SWAP2 DUP1 DUP4 DUP4 DUP11 JUMPDEST DUP4 DUP2 LT ISZERO PUSH2 0xBE6 JUMPI DUP2 DUP2 ADD MLOAD DUP4 DUP3 ADD MSTORE PUSH1 0x20 ADD PUSH2 0xBCE JUMP JUMPDEST POP POP POP POP SWAP1 POP SWAP1 DUP2 ADD SWAP1 PUSH1 0x1F AND DUP1 ISZERO PUSH2 0xC13 JUMPI DUP1 DUP3 SUB DUP1 MLOAD PUSH1 0x1 DUP4 PUSH1 0x20 SUB PUSH2 0x100 EXP SUB NOT AND DUP2 MSTORE PUSH1 0x20 ADD SWAP2 POP JUMPDEST POP SWAP6 POP POP POP POP POP POP PUSH1 0x0 PUSH1 0x40 MLOAD DUP1 DUP4 SUB DUP2 PUSH1 0x0 DUP8 DUP1 EXTCODESIZE ISZERO DUP1 ISZERO PUSH2 0xC35 JUMPI PUSH1 0x0 DUP1 REVERT JUMPDEST POP GAS CALL ISZERO DUP1 ISZERO PUSH2 0xC49 JUMPI RETURNDATASIZE PUSH1 0x0 DUP1 RETURNDATACOPY RETURNDATASIZE PUSH1 0x0 REVERT JUMPDEST POP POP POP POP POP POP POP SWAP2 SWAP1 POP JUMP JUMPDEST PUSH1 0x0 PUSH1 0x1 PUSH2 0xC61 PUSH2 0x46F JUMP JUMPDEST SUB DUP3 GT ISZERO PUSH2 0xCAC JUMPI PUSH1 0x40 DUP1 MLOAD PUSH3 0x461BCD PUSH1 0xE5 SHL DUP2 MSTORE PUSH1 0x20 PUSH1 0x4 DUP3 ADD MSTORE PUSH1 0x13 PUSH1 0x24 DUP3 ADD MSTORE PUSH19 0x696E646578206F7574206F6620626F756E6473 PUSH1 0x68 SHL PUSH1 0x44 DUP3 ADD MSTORE SWAP1 MLOAD SWAP1 DUP2 SWAP1 SUB PUSH1 0x64 ADD SWAP1 REVERT JUMPDEST PUSH2 0x3A2 PUSH1 0x1 DUP4 PUSH2 0xF36 JUMP JUMPDEST PUSH20 0xA71EDC38D189767582C38A3145B5873052C3E47A DUP2 JUMP JUMPDEST PUSH2 0xDEAD DUP2 JUMP JUMPDEST PUSH2 0xCDD PUSH2 0xDDC JUMP JUMPDEST PUSH1 0x0 SLOAD PUSH1 0x1 PUSH1 0x1 PUSH1 0xA0 SHL SUB SWAP1 DUP2 AND SWAP2 AND EQ PUSH2 0xD2D JUMPI PUSH1 0x40 DUP1 MLOAD PUSH3 0x461BCD PUSH1 0xE5 SHL DUP2 MSTORE PUSH1 0x20 PUSH1 0x4 DUP3 ADD DUP2 SWAP1 MSTORE PUSH1 0x24 DUP3 ADD MSTORE PUSH1 0x0 DUP1 MLOAD PUSH1 0x20 PUSH2 0x1430 DUP4 CODECOPY DUP2 MLOAD SWAP2 MSTORE PUSH1 0x44 DUP3 ADD MSTORE SWAP1 MLOAD SWAP1 DUP2 SWAP1 SUB PUSH1 0x64 ADD SWAP1 REVERT JUMPDEST PUSH1 0x1 PUSH1 0x1 PUSH1 0xA0 SHL SUB DUP2 AND PUSH2 0xD72 JUMPI PUSH1 0x40 MLOAD PUSH3 0x461BCD PUSH1 0xE5 SHL DUP2 MSTORE PUSH1 0x4 ADD DUP1 DUP1 PUSH1 0x20 ADD DUP3 DUP2 SUB DUP3 MSTORE PUSH1 0x26 DUP2 MSTORE PUSH1 0x20 ADD DUP1 PUSH2 0x13C3 PUSH1 0x26 SWAP2 CODECOPY PUSH1 0x40 ADD SWAP2 POP POP PUSH1 0x40 MLOAD DUP1 SWAP2 SUB SWAP1 REVERT JUMPDEST PUSH1 0x0 DUP1 SLOAD PUSH1 0x40 MLOAD PUSH1 0x1 PUSH1 0x1 PUSH1 0xA0 SHL SUB DUP1 DUP6 AND SWAP4 SWAP3 AND SWAP2 PUSH32 0x8BE0079C531659141344CD1FD0A4F28419497F9722A3DAAFE3B4186F6B6457E0 SWAP2 LOG3 PUSH1 0x0 DUP1 SLOAD PUSH1 0x1 PUSH1 0x1 PUSH1 0xA0 SHL SUB NOT AND PUSH1 0x1 PUSH1 0x1 PUSH1 0xA0 SHL SUB SWAP3 SWAP1 SWAP3 AND SWAP2 SWAP1 SWAP2 OR SWAP1 SSTORE JUMP JUMPDEST PUSH1 0x3 SLOAD PUSH1 0x1 PUSH1 0x1 PUSH1 0xA0 SHL SUB AND DUP2 JUMP JUMPDEST CALLER SWAP1 JUMP JUMPDEST PUSH1 0x0 PUSH2 0xDF5 DUP4 PUSH1 0x1 PUSH1 0x1 PUSH1 0xA0 SHL SUB DUP5 AND PUSH2 0xF42 JUMP JUMPDEST SWAP4 SWAP3 POP POP POP JUMP JUMPDEST PUSH1 0x0 PUSH2 0x3A2 DUP3 PUSH2 0x1008 JUMP JUMPDEST PUSH1 0x0 PUSH2 0xDF5 DUP4 PUSH1 0x1 PUSH1 0x1 PUSH1 0xA0 SHL SUB DUP5 AND PUSH2 0x100C JUMP JUMPDEST PUSH1 0x0 PUSH2 0xDF5 DUP4 PUSH1 0x1 PUSH1 0x1 PUSH1 0xA0 SHL SUB DUP5 AND PUSH2 0x1056 JUMP JUMPDEST PUSH1 0x0 DUP3 PUSH2 0xE40 JUMPI POP PUSH1 0x0 PUSH2 0x3A2 JUMP JUMPDEST DUP3 DUP3 MUL DUP3 DUP5 DUP3 DUP2 PUSH2 0xE4D JUMPI INVALID JUMPDEST DIV EQ PUSH2 0xDF5 JUMPI PUSH1 0x40 MLOAD PUSH3 0x461BCD PUSH1 0xE5 SHL DUP2 MSTORE PUSH1 0x4 ADD DUP1 DUP1 PUSH1 0x20 ADD DUP3 DUP2 SUB DUP3 MSTORE PUSH1 0x21 DUP2 MSTORE PUSH1 0x20 ADD DUP1 PUSH2 0x140F PUSH1 0x21 SWAP2 CODECOPY PUSH1 0x40 ADD SWAP2 POP POP PUSH1 0x40 MLOAD DUP1 SWAP2 SUB SWAP1 REVERT JUMPDEST PUSH1 0x0 DUP3 DUP3 ADD DUP4 DUP2 LT ISZERO PUSH2 0xDF5 JUMPI PUSH1 0x40 DUP1 MLOAD PUSH3 0x461BCD PUSH1 0xE5 SHL DUP2 MSTORE PUSH1 0x20 PUSH1 0x4 DUP3 ADD MSTORE PUSH1 0x1B PUSH1 0x24 DUP3 ADD MSTORE PUSH32 0x536166654D6174683A206164646974696F6E206F766572666C6F770000000000 PUSH1 0x44 DUP3 ADD MSTORE SWAP1 MLOAD SWAP1 DUP2 SWAP1 SUB PUSH1 0x64 ADD SWAP1 REVERT JUMPDEST PUSH1 0x40 DUP1 MLOAD PUSH1 0x1 PUSH1 0x1 PUSH1 0xA0 SHL SUB DUP5 AND PUSH1 0x24 DUP3 ADD MSTORE PUSH1 0x44 DUP1 DUP3 ADD DUP5 SWAP1 MSTORE DUP3 MLOAD DUP1 DUP4 SUB SWAP1 SWAP2 ADD DUP2 MSTORE PUSH1 0x64 SWAP1 SWAP2 ADD SWAP1 SWAP2 MSTORE PUSH1 0x20 DUP2 ADD DUP1 MLOAD PUSH1 0x1 PUSH1 0x1 PUSH1 0xE0 SHL SUB AND PUSH4 0xA9059CBB PUSH1 0xE0 SHL OR SWAP1 MSTORE PUSH2 0x71A SWAP1 DUP5 SWAP1 PUSH2 0x106E JUMP JUMPDEST PUSH1 0x0 PUSH2 0xDF5 DUP4 DUP4 PUSH2 0x111F JUMP JUMPDEST PUSH1 0x0 DUP2 DUP2 MSTORE PUSH1 0x1 DUP4 ADD PUSH1 0x20 MSTORE PUSH1 0x40 DUP2 KECCAK256 SLOAD DUP1 ISZERO PUSH2 0xFFE JUMPI DUP4 SLOAD PUSH1 0x0 NOT DUP1 DUP4 ADD SWAP2 SWAP1 DUP2 ADD SWAP1 PUSH1 0x0 SWAP1 DUP8 SWAP1 DUP4 SWAP1 DUP2 LT PUSH2 0xF75 JUMPI INVALID JUMPDEST SWAP1 PUSH1 0x0 MSTORE PUSH1 0x20 PUSH1 0x0 KECCAK256 ADD SLOAD SWAP1 POP DUP1 DUP8 PUSH1 0x0 ADD DUP5 DUP2 SLOAD DUP2 LT PUSH2 0xF92 JUMPI INVALID JUMPDEST PUSH1 0x0 SWAP2 DUP3 MSTORE PUSH1 0x20 DUP1 DUP4 KECCAK256 SWAP1 SWAP2 ADD SWAP3 SWAP1 SWAP3 SSTORE DUP3 DUP2 MSTORE PUSH1 0x1 DUP10 DUP2 ADD SWAP1 SWAP3 MSTORE PUSH1 0x40 SWAP1 KECCAK256 SWAP1 DUP5 ADD SWAP1 SSTORE DUP7 SLOAD DUP8 SWAP1 DUP1 PUSH2 0xFC2 JUMPI INVALID JUMPDEST PUSH1 0x1 SWAP1 SUB DUP2 DUP2 SWAP1 PUSH1 0x0 MSTORE PUSH1 0x20 PUSH1 0x0 KECCAK256 ADD PUSH1 0x0 SWAP1 SSTORE SWAP1 SSTORE DUP7 PUSH1 0x1 ADD PUSH1 0x0 DUP8 DUP2 MSTORE PUSH1 0x20 ADD SWAP1 DUP2 MSTORE PUSH1 0x20 ADD PUSH1 0x0 KECCAK256 PUSH1 0x0 SWAP1 SSTORE PUSH1 0x1 SWAP5 POP POP POP POP POP PUSH2 0x3A2 JUMP JUMPDEST PUSH1 0x0 SWAP2 POP POP PUSH2 0x3A2 JUMP JUMPDEST SLOAD SWAP1 JUMP JUMPDEST PUSH1 0x0 PUSH2 0x1018 DUP4 DUP4 PUSH2 0x1056 JUMP JUMPDEST PUSH2 0x104E JUMPI POP DUP2 SLOAD PUSH1 0x1 DUP2 DUP2 ADD DUP5 SSTORE PUSH1 0x0 DUP5 DUP2 MSTORE PUSH1 0x20 DUP1 DUP3 KECCAK256 SWAP1 SWAP4 ADD DUP5 SWAP1 SSTORE DUP5 SLOAD DUP5 DUP3 MSTORE DUP3 DUP7 ADD SWAP1 SWAP4 MSTORE PUSH1 0x40 SWAP1 KECCAK256 SWAP2 SWAP1 SWAP2 SSTORE PUSH2 0x3A2 JUMP JUMPDEST POP PUSH1 0x0 PUSH2 0x3A2 JUMP JUMPDEST PUSH1 0x0 SWAP1 DUP2 MSTORE PUSH1 0x1 SWAP2 SWAP1 SWAP2 ADD PUSH1 0x20 MSTORE PUSH1 0x40 SWAP1 KECCAK256 SLOAD ISZERO ISZERO SWAP1 JUMP JUMPDEST PUSH1 0x60 PUSH2 0x10C3 DUP3 PUSH1 0x40 MLOAD DUP1 PUSH1 0x40 ADD PUSH1 0x40 MSTORE DUP1 PUSH1 0x20 DUP2 MSTORE PUSH1 0x20 ADD PUSH32 0x5361666545524332303A206C6F772D6C6576656C2063616C6C206661696C6564 DUP2 MSTORE POP DUP6 PUSH1 0x1 PUSH1 0x1 PUSH1 0xA0 SHL SUB AND PUSH2 0x1183 SWAP1 SWAP3 SWAP2 SWAP1 PUSH4 0xFFFFFFFF AND JUMP JUMPDEST DUP1 MLOAD SWAP1 SWAP2 POP ISZERO PUSH2 0x71A JUMPI DUP1 DUP1 PUSH1 0x20 ADD SWAP1 MLOAD PUSH1 0x20 DUP2 LT ISZERO PUSH2 0x10E2 JUMPI PUSH1 0x0 DUP1 REVERT JUMPDEST POP MLOAD PUSH2 0x71A JUMPI PUSH1 0x40 MLOAD PUSH3 0x461BCD PUSH1 0xE5 SHL DUP2 MSTORE PUSH1 0x4 ADD DUP1 DUP1 PUSH1 0x20 ADD DUP3 DUP2 SUB DUP3 MSTORE PUSH1 0x2A DUP2 MSTORE PUSH1 0x20 ADD DUP1 PUSH2 0x1450 PUSH1 0x2A SWAP2 CODECOPY PUSH1 0x40 ADD SWAP2 POP POP PUSH1 0x40 MLOAD DUP1 SWAP2 SUB SWAP1 REVERT JUMPDEST DUP2 SLOAD PUSH1 0x0 SWAP1 DUP3 LT PUSH2 0x1161 JUMPI PUSH1 0x40 MLOAD PUSH3 0x461BCD PUSH1 0xE5 SHL DUP2 MSTORE PUSH1 0x4 ADD DUP1 DUP1 PUSH1 0x20 ADD DUP3 DUP2 SUB DUP3 MSTORE PUSH1 0x22 DUP2 MSTORE PUSH1 0x20 ADD DUP1 PUSH2 0x13A1 PUSH1 0x22 SWAP2 CODECOPY PUSH1 0x40 ADD SWAP2 POP POP PUSH1 0x40 MLOAD DUP1 SWAP2 SUB SWAP1 REVERT JUMPDEST DUP3 PUSH1 0x0 ADD DUP3 DUP2 SLOAD DUP2 LT PUSH2 0x1170 JUMPI INVALID JUMPDEST SWAP1 PUSH1 0x0 MSTORE PUSH1 0x20 PUSH1 0x0 KECCAK256 ADD SLOAD SWAP1 POP SWAP3 SWAP2 POP POP JUMP JUMPDEST PUSH1 0x60 PUSH2 0x1192 DUP5 DUP5 PUSH1 0x0 DUP6 PUSH2 0x119A JUMP JUMPDEST SWAP5 SWAP4 POP POP POP POP JUMP JUMPDEST PUSH1 0x60 DUP3 SELFBALANCE LT ISZERO PUSH2 0x11DB JUMPI PUSH1 0x40 MLOAD PUSH3 0x461BCD PUSH1 0xE5 SHL DUP2 MSTORE PUSH1 0x4 ADD DUP1 DUP1 PUSH1 0x20 ADD DUP3 DUP2 SUB DUP3 MSTORE PUSH1 0x26 DUP2 MSTORE PUSH1 0x20 ADD DUP1 PUSH2 0x13E9 PUSH1 0x26 SWAP2 CODECOPY PUSH1 0x40 ADD SWAP2 POP POP PUSH1 0x40 MLOAD DUP1 SWAP2 SUB SWAP1 REVERT JUMPDEST PUSH2 0x11E4 DUP6 PUSH2 0x12F6 JUMP JUMPDEST PUSH2 0x1235 JUMPI PUSH1 0x40 DUP1 MLOAD PUSH3 0x461BCD PUSH1 0xE5 SHL DUP2 MSTORE PUSH1 0x20 PUSH1 0x4 DUP3 ADD MSTORE PUSH1 0x1D PUSH1 0x24 DUP3 ADD MSTORE PUSH32 0x416464726573733A2063616C6C20746F206E6F6E2D636F6E7472616374000000 PUSH1 0x44 DUP3 ADD MSTORE SWAP1 MLOAD SWAP1 DUP2 SWAP1 SUB PUSH1 0x64 ADD SWAP1 REVERT JUMPDEST PUSH1 0x0 PUSH1 0x60 DUP7 PUSH1 0x1 PUSH1 0x1 PUSH1 0xA0 SHL SUB AND DUP6 DUP8 PUSH1 0x40 MLOAD DUP1 DUP3 DUP1 MLOAD SWAP1 PUSH1 0x20 ADD SWAP1 DUP1 DUP4 DUP4 JUMPDEST PUSH1 0x20 DUP4 LT PUSH2 0x1274 JUMPI DUP1 MLOAD DUP3 MSTORE PUSH1 0x1F NOT SWAP1 SWAP3 ADD SWAP2 PUSH1 0x20 SWAP2 DUP3 ADD SWAP2 ADD PUSH2 0x1255 JUMP JUMPDEST PUSH1 0x1 DUP4 PUSH1 0x20 SUB PUSH2 0x100 EXP SUB DUP1 NOT DUP3 MLOAD AND DUP2 DUP5 MLOAD AND DUP1 DUP3 OR DUP6 MSTORE POP POP POP POP POP POP SWAP1 POP ADD SWAP2 POP POP PUSH1 0x0 PUSH1 0x40 MLOAD DUP1 DUP4 SUB DUP2 DUP6 DUP8 GAS CALL SWAP3 POP POP POP RETURNDATASIZE DUP1 PUSH1 0x0 DUP2 EQ PUSH2 0x12D6 JUMPI PUSH1 0x40 MLOAD SWAP2 POP PUSH1 0x1F NOT PUSH1 0x3F RETURNDATASIZE ADD AND DUP3 ADD PUSH1 0x40 MSTORE RETURNDATASIZE DUP3 MSTORE RETURNDATASIZE PUSH1 0x0 PUSH1 0x20 DUP5 ADD RETURNDATACOPY PUSH2 0x12DB JUMP JUMPDEST PUSH1 0x60 SWAP2 POP JUMPDEST POP SWAP2 POP SWAP2 POP PUSH2 0x12EB DUP3 DUP3 DUP7 PUSH2 0x12FC JUMP JUMPDEST SWAP8 SWAP7 POP POP POP POP POP POP POP JUMP JUMPDEST EXTCODESIZE ISZERO ISZERO SWAP1 JUMP JUMPDEST PUSH1 0x60 DUP4 ISZERO PUSH2 0x130B JUMPI POP DUP2 PUSH2 0xDF5 JUMP JUMPDEST DUP3 MLOAD ISZERO PUSH2 0x131B JUMPI DUP3 MLOAD DUP1 DUP5 PUSH1 0x20 ADD REVERT JUMPDEST DUP2 PUSH1 0x40 MLOAD PUSH3 0x461BCD PUSH1 0xE5 SHL DUP2 MSTORE PUSH1 0x4 ADD DUP1 DUP1 PUSH1 0x20 ADD DUP3 DUP2 SUB DUP3 MSTORE DUP4 DUP2 DUP2 MLOAD DUP2 MSTORE PUSH1 0x20 ADD SWAP2 POP DUP1 MLOAD SWAP1 PUSH1 0x20 ADD SWAP1 DUP1 DUP4 DUP4 PUSH1 0x0 JUMPDEST DUP4 DUP2 LT ISZERO PUSH2 0x1365 JUMPI DUP2 DUP2 ADD MLOAD DUP4 DUP3 ADD MSTORE PUSH1 0x20 ADD PUSH2 0x134D JUMP JUMPDEST POP POP POP POP SWAP1 POP SWAP1 DUP2 ADD SWAP1 PUSH1 0x1F AND DUP1 ISZERO PUSH2 0x1392 JUMPI DUP1 DUP3 SUB DUP1 MLOAD PUSH1 0x1 DUP4 PUSH1 0x20 SUB PUSH2 0x100 EXP SUB NOT AND DUP2 MSTORE PUSH1 0x20 ADD SWAP2 POP JUMPDEST POP SWAP3 POP POP POP PUSH1 0x40 MLOAD DUP1 SWAP2 SUB SWAP1 REVERT INVALID GASLIMIT PUSH15 0x756D657261626C655365743A20696E PUSH5 0x6578206F75 PUSH21 0x206F6620626F756E64734F776E61626C653A206E65 PUSH24 0x206F776E657220697320746865207A65726F206164647265 PUSH20 0x73416464726573733A20696E7375666669636965 PUSH15 0x742062616C616E636520666F722063 PUSH2 0x6C6C MSTORE8 PUSH2 0x6665 0x4D PUSH2 0x7468 GASPRICE KECCAK256 PUSH14 0x756C7469706C69636174696F6E20 PUSH16 0x766572666C6F774F776E61626C653A20 PUSH4 0x616C6C65 PUSH19 0x206973206E6F7420746865206F776E65725361 PUSH7 0x6545524332303A KECCAK256 GASLIMIT MSTORE NUMBER ORIGIN ADDRESS KECCAK256 PUSH16 0x7065726174696F6E20646964206E6F74 KECCAK256 PUSH20 0x756363656564A264697066735822122075ED3CE1 SWAP12 0xC6 LOG1 GASPRICE JUMP 0xC5 GT XOR 0xBF SWAP12 0xB6 0xF6 PUSH23 0x3A8C228AB27A11E037AEA2F58E43DA64736F6C63430006 0xC STOP CALLER "
				},
				"gasEstimates": {
					"creation": {
						"codeDepositCost": "1059000",
						"executionCost": "infinite",
						"totalCost": "infinite"
					},
					"external": {
						"ROO()": "309",
						"ROO_USDT()": "264",
						"USDT()": "263",
						"addCaller(address)": "infinite",
						"amountIn()": "1043",
						"delCaller(address)": "infinite",
						"destroyAddress()": "285",
						"emergencyAddress()": "1147",
						"emergencyWithdraw(address)": "infinite",
						"getCaller(uint256)": "infinite",
						"getCallerLength()": "1141",
						"isCaller(address)": "1277",
						"owner()": "1104",
						"renounceOwnership()": "infinite",
						"setAmountIn(uint256)": "infinite",
						"setEmergencyAddress(address)": "infinite",
						"swap(uint256)": "infinite",
						"transferOwnership(address)": "infinite"
					}
				},
				"methodIdentifiers": {
					"ROO()": "5793d0af",
					"ROO_USDT()": "8c2f9410",
					"USDT()": "c54e44eb",
					"addCaller(address)": "747293fb",
					"amountIn()": "6bed55a6",
					"delCaller(address)": "231a418c",
					"destroyAddress()": "d12d9f15",
					"emergencyAddress()": "fddf3f73",
					"emergencyWithdraw(address)": "6ff1c9bc",
					"getCaller(uint256)": "a8b0b3ed",
					"getCallerLength()": "42177a58",
					"isCaller(address)": "7ac07dcc",
					"owner()": "8da5cb5b",
					"renounceOwnership()": "715018a6",
					"setAmountIn(uint256)": "6717f5b0",
					"setEmergencyAddress(address)": "2aa11ffb",
					"swap(uint256)": "94b918de",
					"transferOwnership(address)": "f2fde38b"
				}
			},
			"storageLayout": {
				"storage": [
					{
						"astId": 1413,
						"contract": "ROO_Repurchase/contracts/ROO_Repurchase.sol:Repurchase",
						"label": "_owner",
						"offset": 0,
						"slot": "0",
						"type": "t_address"
					},
					{
						"astId": 19,
						"contract": "ROO_Repurchase/contracts/ROO_Repurchase.sol:Repurchase",
						"label": "_caller",
						"offset": 0,
						"slot": "1",
						"type": "t_struct(AddressSet)1202_storage"
					},
					{
						"astId": 33,
						"contract": "ROO_Repurchase/contracts/ROO_Repurchase.sol:Repurchase",
						"label": "emergencyAddress",
						"offset": 0,
						"slot": "3",
						"type": "t_address"
					},
					{
						"astId": 35,
						"contract": "ROO_Repurchase/contracts/ROO_Repurchase.sol:Repurchase",
						"label": "amountIn",
						"offset": 0,
						"slot": "4",
						"type": "t_uint256"
					}
				],
				"types": {
					"t_address": {
						"encoding": "inplace",
						"label": "address",
						"numberOfBytes": "20"
					},
					"t_array(t_bytes32)dyn_storage": {
						"base": "t_bytes32",
						"encoding": "dynamic_array",
						"label": "bytes32[]",
						"numberOfBytes": "32"
					},
					"t_bytes32": {
						"encoding": "inplace",
						"label": "bytes32",
						"numberOfBytes": "32"
					},
					"t_mapping(t_bytes32,t_uint256)": {
						"encoding": "mapping",
						"key": "t_bytes32",
						"label": "mapping(bytes32 => uint256)",
						"numberOfBytes": "32",
						"value": "t_uint256"
					},
					"t_struct(AddressSet)1202_storage": {
						"encoding": "inplace",
						"label": "struct EnumerableSet.AddressSet",
						"members": [
							{
								"astId": 1201,
								"contract": "ROO_Repurchase/contracts/ROO_Repurchase.sol:Repurchase",
								"label": "_inner",
								"offset": 0,
								"slot": "0",
								"type": "t_struct(Set)937_storage"
							}
						],
						"numberOfBytes": "64"
					},
					"t_struct(Set)937_storage": {
						"encoding": "inplace",
						"label": "struct EnumerableSet.Set",
						"members": [
							{
								"astId": 932,
								"contract": "ROO_Repurchase/contracts/ROO_Repurchase.sol:Repurchase",
								"label": "_values",
								"offset": 0,
								"slot": "0",
								"type": "t_array(t_bytes32)dyn_storage"
							},
							{
								"astId": 936,
								"contract": "ROO_Repurchase/contracts/ROO_Repurchase.sol:Repurchase",
								"label": "_indexes",
								"offset": 0,
								"slot": "1",
								"type": "t_mapping(t_bytes32,t_uint256)"
							}
						],
						"numberOfBytes": "64"
					},
					"t_uint256": {
						"encoding": "inplace",
						"label": "uint256",
						"numberOfBytes": "32"
					}
				}
			},
			"userdoc": {
				"kind": "user",
				"methods": {},
				"version": 1
			}
		}
	}
}