{
  "_format": "hh-sol-artifact-1",
  "contractName": "PledgeNano",
  "sourceName": "contracts/stakeNano8.sol",
  "abi": [
    {
      "inputs": [
        {
          "internalType": "address",
          "name": "_ntCoinContract",
          "type": "address"
        },
        {
          "internalType": "address",
          "name": "_busdContract",
          "type": "address"
        }
      ],
      "stateMutability": "nonpayable",
      "type": "constructor"
    },
    {
      "inputs": [
        {
          "internalType": "string",
          "name": "message",
          "type": "string"
        }
      ],
      "name": "ErrorMsg",
      "type": "error"
    },
    {
      "inputs": [
        {
          "internalType": "uint256",
          "name": "arg",
          "type": "uint256"
        },
        {
          "internalType": "string",
          "name": "message",
          "type": "string"
        }
      ],
      "name": "ParameterError",
      "type": "error"
    },
    {
      "anonymous": false,
      "inputs": [
        {
          "indexed": true,
          "internalType": "address",
          "name": "parent",
          "type": "address"
        },
        {
          "indexed": true,
          "internalType": "address",
          "name": "child",
          "type": "address"
        }
      ],
      "name": "BindEvent",
      "type": "event"
    },
    {
      "anonymous": false,
      "inputs": [
        {
          "indexed": true,
          "internalType": "address",
          "name": "player",
          "type": "address"
        },
        {
          "indexed": true,
          "internalType": "uint256",
          "name": "amount",
          "type": "uint256"
        }
      ],
      "name": "NanoStakingEvent",
      "type": "event"
    },
    {
      "anonymous": false,
      "inputs": [
        {
          "indexed": true,
          "internalType": "address",
          "name": "player",
          "type": "address"
        },
        {
          "indexed": true,
          "internalType": "uint256",
          "name": "stakeId",
          "type": "uint256"
        },
        {
          "indexed": false,
          "internalType": "uint256",
          "name": "amount",
          "type": "uint256"
        }
      ],
      "name": "NtTokenClaimed",
      "type": "event"
    },
    {
      "anonymous": false,
      "inputs": [
        {
          "indexed": true,
          "internalType": "bytes32",
          "name": "role",
          "type": "bytes32"
        },
        {
          "indexed": true,
          "internalType": "bytes32",
          "name": "previousAdminRole",
          "type": "bytes32"
        },
        {
          "indexed": true,
          "internalType": "bytes32",
          "name": "newAdminRole",
          "type": "bytes32"
        }
      ],
      "name": "RoleAdminChanged",
      "type": "event"
    },
    {
      "anonymous": false,
      "inputs": [
        {
          "indexed": true,
          "internalType": "bytes32",
          "name": "role",
          "type": "bytes32"
        },
        {
          "indexed": true,
          "internalType": "address",
          "name": "account",
          "type": "address"
        },
        {
          "indexed": true,
          "internalType": "address",
          "name": "sender",
          "type": "address"
        }
      ],
      "name": "RoleGranted",
      "type": "event"
    },
    {
      "anonymous": false,
      "inputs": [
        {
          "indexed": true,
          "internalType": "bytes32",
          "name": "role",
          "type": "bytes32"
        },
        {
          "indexed": true,
          "internalType": "address",
          "name": "account",
          "type": "address"
        },
        {
          "indexed": true,
          "internalType": "address",
          "name": "sender",
          "type": "address"
        }
      ],
      "name": "RoleRevoked",
      "type": "event"
    },
    {
      "inputs": [],
      "name": "ADMIN_ROLE",
      "outputs": [
        {
          "internalType": "bytes32",
          "name": "",
          "type": "bytes32"
        }
      ],
      "stateMutability": "view",
      "type": "function"
    },
    {
      "inputs": [],
      "name": "DEFAULT_ADMIN_ROLE",
      "outputs": [
        {
          "internalType": "bytes32",
          "name": "",
          "type": "bytes32"
        }
      ],
      "stateMutability": "view",
      "type": "function"
    },
    {
      "inputs": [
        {
          "internalType": "uint256",
          "name": "_amount",
          "type": "uint256"
        }
      ],
      "name": "NanoStaking",
      "outputs": [],
      "stateMutability": "nonpayable",
      "type": "function"
    },
    {
      "inputs": [
        {
          "internalType": "address",
          "name": "_player",
          "type": "address"
        },
        {
          "internalType": "uint256",
          "name": "_stakeId",
          "type": "uint256"
        }
      ],
      "name": "accumulateRealease",
      "outputs": [
        {
          "internalType": "uint256",
          "name": "",
          "type": "uint256"
        }
      ],
      "stateMutability": "view",
      "type": "function"
    },
    {
      "inputs": [
        {
          "internalType": "address",
          "name": "_parent",
          "type": "address"
        },
        {
          "internalType": "address",
          "name": "_child",
          "type": "address"
        }
      ],
      "name": "bind",
      "outputs": [],
      "stateMutability": "nonpayable",
      "type": "function"
    },
    {
      "inputs": [],
      "name": "busdContract",
      "outputs": [
        {
          "internalType": "contract IERC20",
          "name": "",
          "type": "address"
        }
      ],
      "stateMutability": "view",
      "type": "function"
    },
    {
      "inputs": [
        {
          "internalType": "uint256",
          "name": "_stakeId",
          "type": "uint256"
        }
      ],
      "name": "claimNtToken",
      "outputs": [],
      "stateMutability": "nonpayable",
      "type": "function"
    },
    {
      "inputs": [],
      "name": "emergencyWithdraw",
      "outputs": [],
      "stateMutability": "nonpayable",
      "type": "function"
    },
    {
      "inputs": [
        {
          "internalType": "address",
          "name": "_parent",
          "type": "address"
        }
      ],
      "name": "getAllChildsByParent",
      "outputs": [
        {
          "internalType": "address[]",
          "name": "",
          "type": "address[]"
        }
      ],
      "stateMutability": "view",
      "type": "function"
    },
    {
      "inputs": [
        {
          "internalType": "address",
          "name": "_address",
          "type": "address"
        }
      ],
      "name": "getAllStakeIdsByAddress",
      "outputs": [
        {
          "internalType": "uint256[]",
          "name": "",
          "type": "uint256[]"
        }
      ],
      "stateMutability": "view",
      "type": "function"
    },
    {
      "inputs": [
        {
          "internalType": "address",
          "name": "_child",
          "type": "address"
        }
      ],
      "name": "getParentByChild",
      "outputs": [
        {
          "internalType": "address",
          "name": "",
          "type": "address"
        }
      ],
      "stateMutability": "view",
      "type": "function"
    },
    {
      "inputs": [
        {
          "internalType": "bytes32",
          "name": "role",
          "type": "bytes32"
        }
      ],
      "name": "getRoleAdmin",
      "outputs": [
        {
          "internalType": "bytes32",
          "name": "",
          "type": "bytes32"
        }
      ],
      "stateMutability": "view",
      "type": "function"
    },
    {
      "inputs": [
        {
          "internalType": "address",
          "name": "_user",
          "type": "address"
        },
        {
          "internalType": "uint256",
          "name": "_stakeId",
          "type": "uint256"
        }
      ],
      "name": "getUserStakeInfo",
      "outputs": [
        {
          "internalType": "uint256",
          "name": "stakeId",
          "type": "uint256"
        },
        {
          "internalType": "address",
          "name": "player",
          "type": "address"
        },
        {
          "internalType": "uint256",
          "name": "ntAmounts",
          "type": "uint256"
        },
        {
          "internalType": "uint256",
          "name": "releaseStartTime",
          "type": "uint256"
        },
        {
          "internalType": "uint256",
          "name": "releaseEndTime",
          "type": "uint256"
        },
        {
          "internalType": "uint256",
          "name": "dailyReleaseAmount",
          "type": "uint256"
        },
        {
          "internalType": "uint256",
          "name": "norelease",
          "type": "uint256"
        },
        {
          "internalType": "uint256",
          "name": "hasreleaseall",
          "type": "uint256"
        },
        {
          "internalType": "uint256",
          "name": "waitforclaim",
          "type": "uint256"
        },
        {
          "internalType": "uint256",
          "name": "hasclaimallamount",
          "type": "uint256"
        },
        {
          "internalType": "uint256",
          "name": "speedCount",
          "type": "uint256"
        }
      ],
      "stateMutability": "view",
      "type": "function"
    },
    {
      "inputs": [
        {
          "internalType": "bytes32",
          "name": "role",
          "type": "bytes32"
        },
        {
          "internalType": "address",
          "name": "account",
          "type": "address"
        }
      ],
      "name": "grantRole",
      "outputs": [],
      "stateMutability": "nonpayable",
      "type": "function"
    },
    {
      "inputs": [
        {
          "internalType": "address",
          "name": "",
          "type": "address"
        }
      ],
      "name": "hasParent",
      "outputs": [
        {
          "internalType": "bool",
          "name": "",
          "type": "bool"
        }
      ],
      "stateMutability": "view",
      "type": "function"
    },
    {
      "inputs": [
        {
          "internalType": "bytes32",
          "name": "role",
          "type": "bytes32"
        },
        {
          "internalType": "address",
          "name": "account",
          "type": "address"
        }
      ],
      "name": "hasRole",
      "outputs": [
        {
          "internalType": "bool",
          "name": "",
          "type": "bool"
        }
      ],
      "stateMutability": "view",
      "type": "function"
    },
    {
      "inputs": [
        {
          "internalType": "address",
          "name": "",
          "type": "address"
        }
      ],
      "name": "isStaked",
      "outputs": [
        {
          "internalType": "bool",
          "name": "",
          "type": "bool"
        }
      ],
      "stateMutability": "view",
      "type": "function"
    },
    {
      "inputs": [],
      "name": "lockDuration",
      "outputs": [
        {
          "internalType": "uint256",
          "name": "",
          "type": "uint256"
        }
      ],
      "stateMutability": "view",
      "type": "function"
    },
    {
      "inputs": [],
      "name": "nanoGenContract",
      "outputs": [
        {
          "internalType": "contract INanoGen",
          "name": "",
          "type": "address"
        }
      ],
      "stateMutability": "view",
      "type": "function"
    },
    {
      "inputs": [],
      "name": "ntCoinContract",
      "outputs": [
        {
          "internalType": "contract IERC20",
          "name": "",
          "type": "address"
        }
      ],
      "stateMutability": "view",
      "type": "function"
    },
    {
      "inputs": [],
      "name": "releaseInterval",
      "outputs": [
        {
          "internalType": "uint256",
          "name": "",
          "type": "uint256"
        }
      ],
      "stateMutability": "view",
      "type": "function"
    },
    {
      "inputs": [],
      "name": "releaseNtTokenPerDay",
      "outputs": [
        {
          "internalType": "uint256",
          "name": "",
          "type": "uint256"
        }
      ],
      "stateMutability": "view",
      "type": "function"
    },
    {
      "inputs": [
        {
          "internalType": "bytes32",
          "name": "role",
          "type": "bytes32"
        },
        {
          "internalType": "address",
          "name": "account",
          "type": "address"
        }
      ],
      "name": "renounceRole",
      "outputs": [],
      "stateMutability": "nonpayable",
      "type": "function"
    },
    {
      "inputs": [
        {
          "internalType": "bytes32",
          "name": "role",
          "type": "bytes32"
        },
        {
          "internalType": "address",
          "name": "account",
          "type": "address"
        }
      ],
      "name": "revokeRole",
      "outputs": [],
      "stateMutability": "nonpayable",
      "type": "function"
    },
    {
      "inputs": [
        {
          "internalType": "address",
          "name": "_busdContract",
          "type": "address"
        }
      ],
      "name": "setBusdContract",
      "outputs": [],
      "stateMutability": "nonpayable",
      "type": "function"
    },
    {
      "inputs": [
        {
          "internalType": "address",
          "name": "_ntCoinContract",
          "type": "address"
        }
      ],
      "name": "setNTCoinContract",
      "outputs": [],
      "stateMutability": "nonpayable",
      "type": "function"
    },
    {
      "inputs": [
        {
          "internalType": "address",
          "name": "_nanoGenContract",
          "type": "address"
        }
      ],
      "name": "setNanoGenContract",
      "outputs": [],
      "stateMutability": "nonpayable",
      "type": "function"
    },
    {
      "inputs": [
        {
          "internalType": "bytes4",
          "name": "interfaceId",
          "type": "bytes4"
        }
      ],
      "name": "supportsInterface",
      "outputs": [
        {
          "internalType": "bool",
          "name": "",
          "type": "bool"
        }
      ],
      "stateMutability": "view",
      "type": "function"
    },
    {
      "inputs": [
        {
          "internalType": "uint256",
          "name": "_amount",
          "type": "uint256"
        }
      ],
      "name": "withdrawTokens",
      "outputs": [],
      "stateMutability": "nonpayable",
      "type": "function"
    }
  ],
  "bytecode": "0x60806040523480156200001157600080fd5b50604051620021353803806200213583398101604081905262000034916200015a565b60018055600480546001600160a01b038085166001600160a01b0319928316179092556003805492841692909116919091179055620000947fa49807205ce4d355092ef5a8a18f56e8913cf4a201fbe287825b095693c21775336200009c565b505062000192565b6000828152602081815260408083206001600160a01b038516845290915290205460ff1662000139576000828152602081815260408083206001600160a01b03851684529091529020805460ff19166001179055620000f83390565b6001600160a01b0316816001600160a01b0316837f2f8788117e7eff1d82e926ec794901d17c78024a50270940304540a733656f0d60405160405180910390a45b5050565b80516001600160a01b03811681146200015557600080fd5b919050565b600080604083850312156200016e57600080fd5b62000179836200013d565b915062000189602084016200013d565b90509250929050565b611f9380620001a26000396000f3fe608060405234801561001057600080fd5b50600436106101ce5760003560e01c806375b238fc11610104578063cf9d101c116100a2578063dadc6d3311610071578063dadc6d331461045d578063db2e21bc14610480578063efd3a05d14610488578063f7fa4ee7146104b457600080fd5b8063cf9d101c14610411578063d1ec9f1414610424578063d26ae3bb14610437578063d547741f1461044a57600080fd5b8063aadec82d116100de578063aadec82d146103a4578063ad93a295146103b7578063be56ee53146103d7578063c0986d2c1461040257600080fd5b806375b238fc1461037457806391d1485414610389578063a217fddf1461039c57600080fd5b80632986f3851161017157806333f47b741161014b57806333f47b741461031857806336568abe1461032b5780634b09e8d01461033e5780636177fd181461035157600080fd5b80632986f385146102df5780632f2ff15d146102f2578063315a095d1461030557600080fd5b80630a539ef0116101ad5780630a539ef01461027f5780631e857a7c1461029f5780631f8db268146102b4578063248a9ca3146102bc57600080fd5b8062ae5faa146101d357806301ffc9a7146102465780630455444314610269575b600080fd5b6101e66101e1366004611be3565b6104c7565b604080519b8c526001600160a01b03909a1660208c0152988a01979097526060890195909552608088019390935260a087019190915260c086015260e0850152610100840152610120830152610140820152610160015b60405180910390f35b610259610254366004611c0d565b6105ca565b604051901515815260200161023d565b610271601e81565b60405190815260200161023d565b61029261028d366004611c37565b610601565b60405161023d9190611c52565b6102b26102ad366004611c9f565b610677565b005b610271603c81565b6102716102ca366004611c9f565b60009081526020819052604090206001015490565b6102b26102ed366004611c37565b610aa6565b6102b2610300366004611cb8565b610ae9565b6102b2610313366004611c9f565b610b13565b610271610326366004611be3565b610bc3565b6102b2610339366004611cb8565b610c5c565b6102b261034c366004611c9f565b610cda565b61025961035f366004611c37565b600a6020526000908152604090205460ff1681565b610271600080516020611f3e83398151915281565b610259610397366004611cb8565b610ee0565b610271600081565b6102b26103b2366004611c37565b610f09565b6103ca6103c5366004611c37565b610f4c565b60405161023d9190611ce4565b6002546103ea906001600160a01b031681565b6040516001600160a01b03909116815260200161023d565b610271670494654067e1000081565b6003546103ea906001600160a01b031681565b6102b2610432366004611d1c565b610fb7565b6004546103ea906001600160a01b031681565b6102b2610458366004611cb8565b6112ee565b61025961046b366004611c37565b60096020526000908152604090205460ff1681565b6102b2611313565b6103ea610496366004611c37565b6001600160a01b039081166000908152600860205260409020541690565b6102b26104c2366004611c37565b611444565b6000806000806000806000806000806000808c1161052d578b6040516380e88ba960e01b81526004016105249181526040602082018190526010908201526f125b9d985b1a59081cdd185ad948125160821b606082015260800190565b60405180910390fd5b6001600160a01b038d1660009081526005602090815260408083208f845290915281209061055b8f8f610bc3565b82546001840154600285015460038601546004870154600588015495965093946001600160a01b039093169391929091906105968785611d5c565b87888a600901548b600a01549c509c509c509c509c509c509c509c509c509c509c5050509295989b509295989b9093969950565b60006001600160e01b03198216637965db0b60e01b14806105fb57506301ffc9a760e01b6001600160e01b03198316145b92915050565b6001600160a01b03811660009081526007602090815260409182902080548351818402810184019094528084526060939283018282801561066b57602002820191906000526020600020905b81546001600160a01b0316815260019091019060200180831161064d575b50505050509050919050565b61067f611487565b806001146106d857806040516380e88ba960e01b815260040161052491815260406020808301829052908201527f596f752063616e206f6e6c79207374616b652031204e616e6f20746f6b656e21606082015260800190565b600254604051627eeac760e11b8152336004820152600060248201526001916001600160a01b03169062fdd58e9060440160206040518083038186803b15801561072157600080fd5b505afa158015610735573d6000803e3d6000fd5b505050506040513d601f19601f820116820180604052508101906107599190611d73565b10156107bd57604051637ed4969f60e11b815260206004820152602c60248201527f596f75206d757374206f776e206174206c656173742031204e616e6f20746f6b60448201526b0656e207769746820494420360a41b6064820152608401610524565b60006107d28268056bc75e2d63100000611d8c565b600254604051637a94c56560e11b815233600482015260006024820152604481018590529192506001600160a01b03169063f5298aca90606401600060405180830381600087803b15801561082657600080fd5b505af115801561083a573d6000803e3d6000fd5b5050336000908152600660209081526040808320878452909152812080549350915061086583611dab565b90915550503360008181526006602081815260408084208785528252808420548585526005808452828620828752845294829020825161016080820185528254825260018301546001600160a01b031682870152600283015482860152600383015460608084019190915260048401546080808501919091529884015460a08401529683015460c0830152600783015460e083015260088301546101008301526009830154610120830152600a9092015461014082015283519182018452828252938101969096529085018690524292850183905293909290919082019061094f90601e90611dc6565b8152670494654067e10000602080830191909152604080830187905260006060808501829052608080860183905260a080870184905260c09687018490523380855260058088528686208c875288528686208a5181558a890151600180830180546001600160a01b0319166001600160a01b03909316929092179091558b8901516002830155958b01516003820155938a01516004850155918901519183019190915595870151600682015560e0870151600782015561010087015160088201556101208701516009820155610140870151600a91820155858352600b8552838320805480840182559084528584200189905585835290935220805460ff19169091179055909150610a619083610bc3565b50610a6a6114e1565b604051849033907fe5787cde8b3aa13ec904a502fb454eb1808d0c82899e50e6c08a413c89f1fdff90600090a3505050610aa360018055565b50565b610aae611487565b600080516020611f3e833981519152610ac6816118c6565b50600280546001600160a01b0319166001600160a01b0383161790556001805550565b600082815260208190526040902060010154610b04816118c6565b610b0e83836118d0565b505050565b610b1b611487565b600080516020611f3e833981519152610b33816118c6565b6004805460405163a9059cbb60e01b81523392810192909252602482018490526001600160a01b03169063a9059cbb90604401602060405180830381600087803b158015610b8057600080fd5b505af1158015610b94573d6000803e3d6000fd5b505050506040513d601f19601f82011682018060405250810190610bb89190611dde565b5050610aa360018055565b6001600160a01b0382166000908152600560209081526040808320848452909152812060038101548290603c90610bfa9042611d5c565b610c049190611e00565b9050601e811015610c50576000678ac7230489e8000083600a0154610c299190611d8c565b610c3b670494654067e1000084611d8c565b610c459190611dc6565b93506105fb92505050565b50600201549392505050565b6001600160a01b0381163314610ccc5760405162461bcd60e51b815260206004820152602f60248201527f416363657373436f6e74726f6c3a2063616e206f6e6c792072656e6f756e636560448201526e103937b632b9903337b91039b2b63360891b6064820152608401610524565b610cd68282611954565b5050565b610ce2611487565b60008111610d2f57806040516380e88ba960e01b81526004016105249181526040602082018190526010908201526f125b9d985b1a59081cdd185ad948125160821b606082015260800190565b3360008181526005602090815260408083208584529091529020600181015490916001600160a01b0390911614610db857604051637ed4969f60e11b815260206004820152602660248201527f596f752063616e206f6e6c7920636c61696d20666f7220796f7572206f776e206044820152657374616b657360d01b6064820152608401610524565b6000610dc43384610bc3565b90506000826009015482610dd89190611d5c565b905060008111610e1e57604051637ed4969f60e11b815260206004820152601060248201526f4e6f7468696e6720746f20636c61696d60801b6044820152606401610524565b6004805460405163a9059cbb60e01b81523392810192909252602482018390526001600160a01b03169063a9059cbb90604401602060405180830381600087803b158015610e6b57600080fd5b505af1158015610e7f573d6000803e3d6000fd5b505050506040513d601f19601f82011682018060405250810190610ea39190611dde565b5080836009016000828254610eb89190611dc6565b90915550506009830154610ecc9083611d5c565b8360080181905550505050610aa360018055565b6000918252602082815260408084206001600160a01b0393909316845291905290205460ff1690565b610f11611487565b600080516020611f3e833981519152610f29816118c6565b50600380546001600160a01b0319166001600160a01b0383161790556001805550565b6001600160a01b0381166000908152600b602090815260409182902080548351818402810184019094528084526060939283018282801561066b57602002820191906000526020600020905b815481526020019060010190808311610f985750505050509050919050565b610fbf611487565b336001600160a01b0382161461102457604051637ed4969f60e11b815260206004820152602360248201527f4f6e6c7920746865206368696c642063616e2063616c6c2074686973206d65746044820152621a1bd960ea1b6064820152608401610524565b806001600160a01b0316826001600160a01b0316141561109b57604051637ed4969f60e11b815260206004820152602b60248201527f506172656e7420616e64206368696c642063616e6e6f7420626520746865207360448201526a616d65206164647265737360a81b6064820152608401610524565b6001600160a01b03821615806110b857506001600160a01b038116155b1561110657604051637ed4969f60e11b815260206004820152601a60248201527f6163636f756e742069736e2774207a65726f20616464726573730000000000006044820152606401610524565b6001600160a01b03811660009081526009602052604090205460ff1615156001141561119057604051637ed4969f60e11b815260206004820152603260248201527f5f6368696c64206861642062696e6420706172656e742c6e6f742062696e642060448201527137ba3432b9103830b932b73a1030b3b0b4b760711b6064820152608401610524565b6001600160a01b0382166000908152600760205260408120905b815481101561125457826001600160a01b03168282815481106111cf576111cf611e22565b6000918252602090912001546001600160a01b0316141561124257604051637ed4969f60e11b815260206004820152602660248201527f4368696c6420616c72656164792065786973747320696e20706172656e74277360448201526520617272617960d01b6064820152608401610524565b8061124c81611dab565b9150506111aa565b506001600160a01b0380841660008181526007602090815260408083208054600181810183559185528385200180549689166001600160a01b0319978816811790915580855260088452828520805490971686179096556009909252808320805460ff1916909217909155517f8d63f2e3d39eb6cf9c80d49bc203133f6f215ce2a1a3d27a68f0167f6c045d489190a350610cd660018055565b600082815260208190526040902060010154611309816118c6565b610b0e8383611954565b61131b611487565b600080516020611f3e833981519152611333816118c6565b600480546040516370a0823160e01b815230928101929092526001600160a01b03169063a9059cbb90339083906370a082319060240160206040518083038186803b15801561138157600080fd5b505afa158015611395573d6000803e3d6000fd5b505050506040513d601f19601f820116820180604052508101906113b99190611d73565b6040516001600160e01b031960e085901b1681526001600160a01b0390921660048301526024820152604401602060405180830381600087803b1580156113ff57600080fd5b505af1158015611413573d6000803e3d6000fd5b505050506040513d601f19601f820116820180604052508101906114379190611dde565b505061144260018055565b565b61144c611487565b600080516020611f3e833981519152611464816118c6565b50600480546001600160a01b0319166001600160a01b0383161790556001805550565b600260015414156114da5760405162461bcd60e51b815260206004820152601f60248201527f5265656e7472616e637947756172643a207265656e7472616e742063616c6c006044820152606401610524565b6002600155565b6114e9611487565b336000908152600860205260408120546001600160a01b03163360009081526009602052604090205490915060ff161515600114801561154657506001600160a01b0381166000908152600a602052604090205460ff1615156001145b156118bb576001600160a01b0381166000908152600b60209081526040808320805482518185028101850190935280835291929091908301828280156115ab57602002820191906000526020600020905b815481526020019060010190808311611597575b50505050509050600081516001141561174f576000826000815181106115d3576115d3611e22565b6020908102919091018101516001600160a01b03861660009081526005835260408082208383529093529182209092509061160e86846104c7565b5050505096505050505050508060001415611646575050336000908152600960205260409020805460ff19169055506118bd92505050565b801561174b57678ac7230489e8000081106116e257678ac7230489e800008260060160008282546116779190611d5c565b92505081905550678ac7230489e8000082600801600082825461169a9190611dc6565b92505081905550678ac7230489e800008260070160008282546116bd9190611dc6565b9091555050600a820180549060006116d483611dab565b919050555060019350611740565b81600601548260080160008282546116fa9190611dc6565b90915550506006820154600783018054600090611718908490611dc6565b9091555050600060068301819055600a830180549161173683611dab565b9190505550600193505b5050505050506118bd565b5050505b6001825111801561175e575080155b156118b85760005b82518110156118b657600083828151811061178357611783611e22565b6020908102919091018101516001600160a01b0387166000908152600583526040808220838352909352918220909250906117be87846104c7565b505050509650505050505050600081111580156117dd5750600a820154155b156117ea575050506118a4565b801580156117fc5750600082600a0154115b15611809575050506118b6565b678ac7230489e80000811061185057678ac7230489e8000082600601546118309190611d5c565b6007830181905560028301546118469190611d5c565b6006830155611860565b6006820180546007840155600090555b678ac7230489e8000082600801600082825461187c9190611dc6565b9091555050600a8201805490600061189383611dab565b9190505550600194505050506118b6565b806118ae81611dab565b915050611766565b505b50505b505b61144260018055565b610aa381336119b9565b6118da8282610ee0565b610cd6576000828152602081815260408083206001600160a01b03851684529091529020805460ff191660011790556119103390565b6001600160a01b0316816001600160a01b0316837f2f8788117e7eff1d82e926ec794901d17c78024a50270940304540a733656f0d60405160405180910390a45050565b61195e8282610ee0565b15610cd6576000828152602081815260408083206001600160a01b0385168085529252808320805460ff1916905551339285917ff6391f5c32d9c69d2a47ea670b442974b53935d1edc7fd64eb21e047a839171b9190a45050565b6119c38282610ee0565b610cd6576119d081611a12565b6119db836020611a24565b6040516020016119ec929190611e68565b60408051601f198184030181529082905262461bcd60e51b825261052491600401611edd565b60606105fb6001600160a01b03831660145b60606000611a33836002611d8c565b611a3e906002611dc6565b67ffffffffffffffff811115611a5657611a56611f10565b6040519080825280601f01601f191660200182016040528015611a80576020820181803683370190505b509050600360fc1b81600081518110611a9b57611a9b611e22565b60200101906001600160f81b031916908160001a905350600f60fb1b81600181518110611aca57611aca611e22565b60200101906001600160f81b031916908160001a9053506000611aee846002611d8c565b611af9906001611dc6565b90505b6001811115611b71576f181899199a1a9b1b9c1cb0b131b232b360811b85600f1660108110611b2d57611b2d611e22565b1a60f81b828281518110611b4357611b43611e22565b60200101906001600160f81b031916908160001a90535060049490941c93611b6a81611f26565b9050611afc565b508315611bc05760405162461bcd60e51b815260206004820181905260248201527f537472696e67733a20686578206c656e67746820696e73756666696369656e746044820152606401610524565b9392505050565b80356001600160a01b0381168114611bde57600080fd5b919050565b60008060408385031215611bf657600080fd5b611bff83611bc7565b946020939093013593505050565b600060208284031215611c1f57600080fd5b81356001600160e01b031981168114611bc057600080fd5b600060208284031215611c4957600080fd5b611bc082611bc7565b6020808252825182820181905260009190848201906040850190845b81811015611c935783516001600160a01b031683529284019291840191600101611c6e565b50909695505050505050565b600060208284031215611cb157600080fd5b5035919050565b60008060408385031215611ccb57600080fd5b82359150611cdb60208401611bc7565b90509250929050565b6020808252825182820181905260009190848201906040850190845b81811015611c9357835183529284019291840191600101611d00565b60008060408385031215611d2f57600080fd5b611d3883611bc7565b9150611cdb60208401611bc7565b634e487b7160e01b600052601160045260246000fd5b600082821015611d6e57611d6e611d46565b500390565b600060208284031215611d8557600080fd5b5051919050565b6000816000190483118215151615611da657611da6611d46565b500290565b6000600019821415611dbf57611dbf611d46565b5060010190565b60008219821115611dd957611dd9611d46565b500190565b600060208284031215611df057600080fd5b81518015158114611bc057600080fd5b600082611e1d57634e487b7160e01b600052601260045260246000fd5b500490565b634e487b7160e01b600052603260045260246000fd5b60005b83811015611e53578181015183820152602001611e3b565b83811115611e62576000848401525b50505050565b7f416363657373436f6e74726f6c3a206163636f756e7420000000000000000000815260008351611ea0816017850160208801611e38565b7001034b99036b4b9b9b4b733903937b6329607d1b6017918401918201528351611ed1816028840160208801611e38565b01602801949350505050565b6020815260008251806020840152611efc816040850160208701611e38565b601f01601f19169190910160400192915050565b634e487b7160e01b600052604160045260246000fd5b600081611f3557611f35611d46565b50600019019056fea49807205ce4d355092ef5a8a18f56e8913cf4a201fbe287825b095693c21775a2646970667358221220aa2ae119c89a13386ddc0ea661fb174935483af68c0cab45ff84055a82b1886964736f6c63430008090033",
  "linkReferences": {},
  "deployedLinkReferences": {}
}