{
  "_format": "hh-sol-artifact-1",
  "contractName": "NextGen",
  "sourceName": "contracts/NextGen.sol",
  "abi": [
    {
      "inputs": [],
      "stateMutability": "nonpayable",
      "type": "constructor"
    },
    {
      "anonymous": false,
      "inputs": [
        {
          "indexed": true,
          "internalType": "address",
          "name": "account",
          "type": "address"
        },
        {
          "indexed": true,
          "internalType": "address",
          "name": "operator",
          "type": "address"
        },
        {
          "indexed": false,
          "internalType": "bool",
          "name": "approved",
          "type": "bool"
        }
      ],
      "name": "ApprovalForAll",
      "type": "event"
    },
    {
      "anonymous": false,
      "inputs": [
        {
          "indexed": false,
          "internalType": "address",
          "name": "_to",
          "type": "address"
        },
        {
          "indexed": false,
          "internalType": "uint256[]",
          "name": "_ids",
          "type": "uint256[]"
        },
        {
          "indexed": false,
          "internalType": "uint256[]",
          "name": "_amounts",
          "type": "uint256[]"
        },
        {
          "indexed": false,
          "internalType": "uint256",
          "name": "_level",
          "type": "uint256"
        }
      ],
      "name": "ComposeSuccess",
      "type": "event"
    },
    {
      "anonymous": false,
      "inputs": [
        {
          "indexed": false,
          "internalType": "address",
          "name": "_to",
          "type": "address"
        },
        {
          "indexed": false,
          "internalType": "uint256",
          "name": "_type",
          "type": "uint256"
        },
        {
          "indexed": false,
          "internalType": "uint256",
          "name": "_amount",
          "type": "uint256"
        }
      ],
      "name": "MintSuccess",
      "type": "event"
    },
    {
      "anonymous": false,
      "inputs": [
        {
          "indexed": true,
          "internalType": "address",
          "name": "previousOwner",
          "type": "address"
        },
        {
          "indexed": true,
          "internalType": "address",
          "name": "newOwner",
          "type": "address"
        }
      ],
      "name": "OwnershipTransferred",
      "type": "event"
    },
    {
      "anonymous": false,
      "inputs": [
        {
          "indexed": true,
          "internalType": "address",
          "name": "operator",
          "type": "address"
        },
        {
          "indexed": true,
          "internalType": "address",
          "name": "from",
          "type": "address"
        },
        {
          "indexed": true,
          "internalType": "address",
          "name": "to",
          "type": "address"
        },
        {
          "indexed": false,
          "internalType": "uint256[]",
          "name": "ids",
          "type": "uint256[]"
        },
        {
          "indexed": false,
          "internalType": "uint256[]",
          "name": "values",
          "type": "uint256[]"
        }
      ],
      "name": "TransferBatch",
      "type": "event"
    },
    {
      "anonymous": false,
      "inputs": [
        {
          "indexed": true,
          "internalType": "address",
          "name": "operator",
          "type": "address"
        },
        {
          "indexed": true,
          "internalType": "address",
          "name": "from",
          "type": "address"
        },
        {
          "indexed": true,
          "internalType": "address",
          "name": "to",
          "type": "address"
        },
        {
          "indexed": false,
          "internalType": "uint256",
          "name": "id",
          "type": "uint256"
        },
        {
          "indexed": false,
          "internalType": "uint256",
          "name": "value",
          "type": "uint256"
        }
      ],
      "name": "TransferSingle",
      "type": "event"
    },
    {
      "anonymous": false,
      "inputs": [
        {
          "indexed": false,
          "internalType": "string",
          "name": "value",
          "type": "string"
        },
        {
          "indexed": true,
          "internalType": "uint256",
          "name": "id",
          "type": "uint256"
        }
      ],
      "name": "URI",
      "type": "event"
    },
    {
      "inputs": [
        {
          "internalType": "address",
          "name": "account",
          "type": "address"
        },
        {
          "internalType": "uint256",
          "name": "id",
          "type": "uint256"
        }
      ],
      "name": "balanceOf",
      "outputs": [
        {
          "internalType": "uint256",
          "name": "",
          "type": "uint256"
        }
      ],
      "stateMutability": "view",
      "type": "function"
    },
    {
      "inputs": [
        {
          "internalType": "address[]",
          "name": "accounts",
          "type": "address[]"
        },
        {
          "internalType": "uint256[]",
          "name": "ids",
          "type": "uint256[]"
        }
      ],
      "name": "balanceOfBatch",
      "outputs": [
        {
          "internalType": "uint256[]",
          "name": "",
          "type": "uint256[]"
        }
      ],
      "stateMutability": "view",
      "type": "function"
    },
    {
      "inputs": [
        {
          "internalType": "address",
          "name": "from",
          "type": "address"
        },
        {
          "internalType": "uint256",
          "name": "id",
          "type": "uint256"
        },
        {
          "internalType": "uint256",
          "name": "amount",
          "type": "uint256"
        }
      ],
      "name": "burn",
      "outputs": [],
      "stateMutability": "nonpayable",
      "type": "function"
    },
    {
      "inputs": [
        {
          "internalType": "uint256[]",
          "name": "_ids",
          "type": "uint256[]"
        },
        {
          "internalType": "uint256[]",
          "name": "_amounts",
          "type": "uint256[]"
        },
        {
          "internalType": "uint256",
          "name": "_targetId",
          "type": "uint256"
        }
      ],
      "name": "compose",
      "outputs": [],
      "stateMutability": "nonpayable",
      "type": "function"
    },
    {
      "inputs": [],
      "name": "exchangePrice",
      "outputs": [
        {
          "internalType": "uint256",
          "name": "",
          "type": "uint256"
        }
      ],
      "stateMutability": "view",
      "type": "function"
    },
    {
      "inputs": [],
      "name": "exchangeToken",
      "outputs": [
        {
          "internalType": "contract IERC20",
          "name": "",
          "type": "address"
        }
      ],
      "stateMutability": "view",
      "type": "function"
    },
    {
      "inputs": [
        {
          "internalType": "address",
          "name": "account",
          "type": "address"
        },
        {
          "internalType": "address",
          "name": "operator",
          "type": "address"
        }
      ],
      "name": "isApprovedForAll",
      "outputs": [
        {
          "internalType": "bool",
          "name": "",
          "type": "bool"
        }
      ],
      "stateMutability": "view",
      "type": "function"
    },
    {
      "inputs": [
        {
          "internalType": "uint256",
          "name": "count",
          "type": "uint256"
        }
      ],
      "name": "mint",
      "outputs": [],
      "stateMutability": "nonpayable",
      "type": "function"
    },
    {
      "inputs": [],
      "name": "numLimitPerMint",
      "outputs": [
        {
          "internalType": "uint256",
          "name": "",
          "type": "uint256"
        }
      ],
      "stateMutability": "view",
      "type": "function"
    },
    {
      "inputs": [],
      "name": "owner",
      "outputs": [
        {
          "internalType": "address",
          "name": "",
          "type": "address"
        }
      ],
      "stateMutability": "view",
      "type": "function"
    },
    {
      "inputs": [],
      "name": "renounceOwnership",
      "outputs": [],
      "stateMutability": "nonpayable",
      "type": "function"
    },
    {
      "inputs": [
        {
          "internalType": "address",
          "name": "from",
          "type": "address"
        },
        {
          "internalType": "address",
          "name": "to",
          "type": "address"
        },
        {
          "internalType": "uint256[]",
          "name": "ids",
          "type": "uint256[]"
        },
        {
          "internalType": "uint256[]",
          "name": "amounts",
          "type": "uint256[]"
        },
        {
          "internalType": "bytes",
          "name": "data",
          "type": "bytes"
        }
      ],
      "name": "safeBatchTransferFrom",
      "outputs": [],
      "stateMutability": "nonpayable",
      "type": "function"
    },
    {
      "inputs": [
        {
          "internalType": "address",
          "name": "from",
          "type": "address"
        },
        {
          "internalType": "address",
          "name": "to",
          "type": "address"
        },
        {
          "internalType": "uint256",
          "name": "id",
          "type": "uint256"
        },
        {
          "internalType": "uint256",
          "name": "amount",
          "type": "uint256"
        },
        {
          "internalType": "bytes",
          "name": "data",
          "type": "bytes"
        }
      ],
      "name": "safeTransferFrom",
      "outputs": [],
      "stateMutability": "nonpayable",
      "type": "function"
    },
    {
      "inputs": [
        {
          "internalType": "address",
          "name": "operator",
          "type": "address"
        },
        {
          "internalType": "bool",
          "name": "approved",
          "type": "bool"
        }
      ],
      "name": "setApprovalForAll",
      "outputs": [],
      "stateMutability": "nonpayable",
      "type": "function"
    },
    {
      "inputs": [
        {
          "internalType": "uint256",
          "name": "_price",
          "type": "uint256"
        }
      ],
      "name": "setExchangePrice",
      "outputs": [],
      "stateMutability": "nonpayable",
      "type": "function"
    },
    {
      "inputs": [
        {
          "internalType": "address",
          "name": "_token",
          "type": "address"
        }
      ],
      "name": "setExchangeToken",
      "outputs": [],
      "stateMutability": "nonpayable",
      "type": "function"
    },
    {
      "inputs": [
        {
          "internalType": "uint256",
          "name": "_numLimit",
          "type": "uint256"
        }
      ],
      "name": "setNumLimitPerMint",
      "outputs": [],
      "stateMutability": "nonpayable",
      "type": "function"
    },
    {
      "inputs": [
        {
          "internalType": "bytes4",
          "name": "interfaceId",
          "type": "bytes4"
        }
      ],
      "name": "supportsInterface",
      "outputs": [
        {
          "internalType": "bool",
          "name": "",
          "type": "bool"
        }
      ],
      "stateMutability": "view",
      "type": "function"
    },
    {
      "inputs": [
        {
          "internalType": "uint256",
          "name": "_id",
          "type": "uint256"
        }
      ],
      "name": "totalSupply",
      "outputs": [
        {
          "internalType": "uint256",
          "name": "",
          "type": "uint256"
        }
      ],
      "stateMutability": "view",
      "type": "function"
    },
    {
      "inputs": [
        {
          "internalType": "uint256",
          "name": "_id",
          "type": "uint256"
        }
      ],
      "name": "totalSupplyLimit",
      "outputs": [
        {
          "internalType": "uint256",
          "name": "",
          "type": "uint256"
        }
      ],
      "stateMutability": "view",
      "type": "function"
    },
    {
      "inputs": [
        {
          "internalType": "address",
          "name": "newOwner",
          "type": "address"
        }
      ],
      "name": "transferOwnership",
      "outputs": [],
      "stateMutability": "nonpayable",
      "type": "function"
    },
    {
      "inputs": [
        {
          "internalType": "uint256",
          "name": "_tokenId",
          "type": "uint256"
        }
      ],
      "name": "uri",
      "outputs": [
        {
          "internalType": "string",
          "name": "",
          "type": "string"
        }
      ],
      "stateMutability": "view",
      "type": "function"
    },
    {
      "inputs": [
        {
          "internalType": "address",
          "name": "_addr",
          "type": "address"
        },
        {
          "internalType": "uint256",
          "name": "_amount",
          "type": "uint256"
        }
      ],
      "name": "withdrew",
      "outputs": [],
      "stateMutability": "nonpayable",
      "type": "function"
    },
    {
      "inputs": [
        {
          "internalType": "address",
          "name": "_addr",
          "type": "address"
        }
      ],
      "name": "withdrewAll",
      "outputs": [],
      "stateMutability": "nonpayable",
      "type": "function"
    }
  ],
  "bytecode": "0x6080604052600a6008553480156200001657600080fd5b50604080516020810190915260008152620000318162000240565b506200003d3362000259565b600660209081526175307f54cdd369e4e8a8515e52ca72ec816c2101831ad1f18bf44102ed171459c9b4f8556101f47f3e5fec24aa4dc4e5aee2e025e51e1392c72a2500577559fae9665c6d52bd6a315560c87f8819ef417987f8ae7a81f42cdfb18815282fe989326fbff903d13cf0e03ace2955600360005260157f75f96ab15d697e93042dc45b5c896c4b27e89bb6eaf39475c5c371cb2513f7d2556040805160608101909152602e808252909162002e58908301396000805260096020908152815162000131927fec8156718a8372b1db44bb411437d0870f3e3790d4a08526d024ce1b0b668f6b920190620002ab565b506040518060600160405280602e815260200162002e2a602e9139600160005260096020908152815162000189927f92e85d02570a8092d09a6e3a57665bc3815a2699a4074001bf1ccabf660f5a36920190620002ab565b506040518060600160405280602e815260200162002dce602e91396002600052600960209081528151620001e1927f6cde3cea4b3a3fb2488b2808bae7556f4a405e50f65e1794383bc026131b13c3920190620002ab565b506040518060600160405280602e815260200162002dfc602e9139600360005260096020908152815162000239927fc575c31fea594a6eb97c8e9d3f9caee4c16218c6ef37e923234c0fe9014a61e7920190620002ab565b506200038e565b805162000255906002906020840190620002ab565b5050565b600380546001600160a01b038381166001600160a01b0319831681179093556040519116919082907f8be0079c531659141344cd1fd0a4f28419497f9722a3daafe3b4186f6b6457e090600090a35050565b828054620002b99062000351565b90600052602060002090601f016020900481019282620002dd576000855562000328565b82601f10620002f857805160ff191683800117855562000328565b8280016001018555821562000328579182015b82811115620003285782518255916020019190600101906200030b565b50620003369291506200033a565b5090565b5b808211156200033657600081556001016200033b565b600181811c908216806200036657607f821691505b602082108114156200038857634e487b7160e01b600052602260045260246000fd5b50919050565b612a30806200039e6000396000f3fe608060405234801561001057600080fd5b50600436106101575760003560e01c8063a03cc0b2116100c3578063cada60381161007c578063cada6038146102fe578063dce8ef6214610311578063e985e9c514610324578063f242432a14610360578063f2fde38b14610373578063f5298aca1461038657600080fd5b8063a03cc0b214610272578063a0712d6814610285578063a22cb46514610298578063a25eb5d9146102ab578063bd85b039146102be578063c132fa37146102de57600080fd5b80634e1273f4116101155780634e1273f4146101f6578063715018a6146102165780638348500d1461021e5780638aa4e315146102315780638da5cb5b146102445780639e65741e1461026957600080fd5b8062fdd58e1461015c57806301ffc9a7146101825780630e89341c146101a557806320404200146101c55780632eb2c2d6146101ce57806344fc5b9b146101e3575b600080fd5b61016f61016a366004611d7a565b610399565b6040519081526020015b60405180910390f35b610195610190366004611dba565b610432565b6040519015158152602001610179565b6101b86101b3366004611dd7565b610482565b6040516101799190611e48565b61016f60085481565b6101e16101dc366004611fa7565b61057f565b005b6101e16101f1366004611dd7565b6105cb565b610209610204366004612051565b610632565b6040516101799190612157565b6101e161075c565b6101e161022c36600461216a565b610770565b6101e161023f366004611dd7565b610b4f565b6003546001600160a01b03165b6040516001600160a01b039091168152602001610179565b61016f60055481565b6101e16102803660046121d7565b610bac565b6101e1610293366004611dd7565b610c2c565b6101e16102a6366004612200565b610f19565b600454610251906001600160a01b031681565b61016f6102cc366004611dd7565b60009081526007602052604090205490565b61016f6102ec366004611dd7565b60009081526006602052604090205490565b6101e161030c3660046121d7565b610f28565b6101e161031f366004611d7a565b611041565b610195610332366004612237565b6001600160a01b03918216600090815260016020908152604080832093909416825291909152205460ff1690565b6101e161036e36600461226a565b6110d4565b6101e16103813660046121d7565b611119565b6101e16103943660046122cf565b611192565b60006001600160a01b0383166104095760405162461bcd60e51b815260206004820152602a60248201527f455243313135353a2061646472657373207a65726f206973206e6f742061207660448201526930b634b21037bbb732b960b11b60648201526084015b60405180910390fd5b506000818152602081815260408083206001600160a01b03861684529091529020545b92915050565b60006001600160e01b03198216636cdb3d1360e11b148061046357506001600160e01b031982166303a24d0760e21b145b8061042c57506301ffc9a760e01b6001600160e01b031983161461042c565b6000818152600960205260408120805460609291906104a090612302565b80601f01602080910402602001604051908101604052809291908181526020018280546104cc90612302565b80156105195780601f106104ee57610100808354040283529160200191610519565b820191906000526020600020905b8154815290600101906020018083116104fc57829003601f168201915b505050505090506040518060400160405280601e81526020017f68747470733a2f2f697066732e66696c65626173652e696f2f697066732f00008152508160405160200161056892919061233d565b604051602081830303815290604052915050919050565b6001600160a01b03851633148061059b575061059b8533610332565b6105b75760405162461bcd60e51b81526004016104009061236c565b6105c4858585858561119d565b5050505050565b6105d3611347565b6000811161062d5760405162461bcd60e51b815260206004820152602160248201527f6e756d206c696d6974206d7573742062652067726561746572207468616e20306044820152602160f81b6064820152608401610400565b600855565b606081518351146106975760405162461bcd60e51b815260206004820152602960248201527f455243313135353a206163636f756e747320616e6420696473206c656e677468604482015268040dad2e6dac2e8c6d60bb1b6064820152608401610400565b6000835167ffffffffffffffff8111156106b3576106b3611e5b565b6040519080825280602002602001820160405280156106dc578160200160208202803683370190505b50905060005b845181101561075457610727858281518110610700576107006123ba565b602002602001015185838151811061071a5761071a6123ba565b6020026020010151610399565b828281518110610739576107396123ba565b602090810291909101015261074d816123e6565b90506106e2565b509392505050565b610764611347565b61076e60006113a1565b565b81518351146107c15760405162461bcd60e51b815260206004820152601f60248201527f69647320616e6420616d6f756e7473206c656e677468206d69736d61746368006044820152606401610400565b6000811180156107d15750600481105b6108435760405162461bcd60e51b815260206004820152603960248201527f746172676574206c6576656c206d75737420626520677265617465722074686160448201527f6e207a65726f20616e64206c657373207468616e20666f7572000000000000006064820152608401610400565b600061084e826113f3565b90506108816040518060400160405280600f81526020016e03632bb32b61030b6b7bab73a101e9608d1b81525082611408565b83516000805b828110156109da578581815181106108a1576108a16123ba565b60200260200101516108bf3389848151811061071a5761071a6123ba565b101561090d5760405162461bcd60e51b815260206004820152601a60248201527f696e73756666696369656e74206f776e65722062616c616e63650000000000006044820152606401610400565b6000868281518110610921576109216123ba565b6020026020010151116109765760405162461bcd60e51b815260206004820181905260248201527f616d6f756e74206d7573742062652067726561746572207468616e207a65726f6044820152606401610400565b858181518110610988576109886123ba565b60200260200101516109b28883815181106109a5576109a56123ba565b60200260200101516113f3565b6109bc9190612401565b6109c69083612420565b9150806109d2816123e6565b915050610887565b50610a0b6040518060400160405280600e81526020016d03a37b5b2b720b6b7bab73a101e960951b81525082611408565b808314610a5a5760405162461bcd60e51b815260206004820152601760248201527f636f6d706f736520616d6f756e74206d69736d617463680000000000000000006044820152606401610400565b60008481526007602090815260408083205460069092529091205480610a81836001612420565b111581604051602001610a9691815260200190565b60408051601f1981840301815290829052610ab391602001612438565b60405160208183030381529060405290610ae05760405162461bcd60e51b81526004016104009190611e48565b50610aec33898961144d565b610b0833876001604051806020016040528060008152506115e7565b7faa478de2115f3b70670ebe930c11b4312d1c5151a8820aea6992d739658cc86833898989604051610b3d949392919061248d565b60405180910390a15050505050505050565b610b57611347565b60008111610ba75760405162461bcd60e51b815260206004820181905260248201527f7072696365206d7573742062652067726561746572207468616e207a65726f216044820152606401610400565b600555565b610bb4611347565b6001600160a01b038116610c0a5760405162461bcd60e51b815260206004820152601d60248201527f746f6b656e20616464726573732063616e6e6f74206265207a65726f210000006044820152606401610400565b600480546001600160a01b0319166001600160a01b0392909216919091179055565b600854604080516020810183905291831115910160408051601f1981840301815290829052610c5d916020016124d5565b60405160208183030381529060405290610c8a5760405162461bcd60e51b81526004016104009190611e48565b5060008080527f6d5257204ebe7d88fd91ae87941cb2dd9d8062b64ae5a2bd2d28ec40b9fbf6df5460066020527f54cdd369e4e8a8515e52ca72ec816c2101831ad1f18bf44102ed171459c9b4f85480610ce48584612420565b111581604051602001610cf991815260200190565b60408051601f1981840301815290829052610d1691602001612525565b60405160208183030381529060405290610d435760405162461bcd60e51b81526004016104009190611e48565b50600480546040516370a0823160e01b815233928101929092526000916001600160a01b03909116906370a082319060240160206040518083038186803b158015610d8d57600080fd5b505afa158015610da1573d6000803e3d6000fd5b505050506040513d601f19601f82011682018060405250810190610dc59190612578565b9050600085600554610dd79190612401565b905080821015610e295760405162461bcd60e51b815260206004820152601d60248201527f6e6f7420656e6f75676820746f6b656e7320666f72206d696e74696e670000006044820152606401610400565b600480546040516323b872dd60e01b81523392810192909252306024830152604482018390526001600160a01b0316906323b872dd90606401602060405180830381600087803b158015610e7c57600080fd5b505af1158015610e90573d6000803e3d6000fd5b505050506040513d601f19601f82011682018060405250810190610eb49190612591565b50610ed0338688604051806020016040528060008152506115e7565b60408051338152602081018790529081018790527f8cb3603ef44631043b30e5ad64e99722d402a2dca3ad8c490c873fa9ce63cabb9060600160405180910390a1505050505050565b610f2433838361170a565b5050565b610f30611347565b600480546040516370a0823160e01b815230928101929092526000916001600160a01b03909116906370a082319060240160206040518083038186803b158015610f7957600080fd5b505afa158015610f8d573d6000803e3d6000fd5b505050506040513d601f19601f82011682018060405250810190610fb19190612578565b6004805460405163a9059cbb60e01b81526001600160a01b038681169382019390935260248101849052929350169063a9059cbb906044015b602060405180830381600087803b15801561100457600080fd5b505af1158015611018573d6000803e3d6000fd5b505050506040513d601f19601f8201168201806040525081019061103c9190612591565b505050565b611049611347565b600081116110995760405162461bcd60e51b815260206004820181905260248201527f616d6f756e74206d7573742062652067726561746572207468616e207a65726f6044820152606401610400565b6004805460405163a9059cbb60e01b81526001600160a01b03858116938201939093526024810184905291169063a9059cbb90604401610fea565b6001600160a01b0385163314806110f057506110f08533610332565b61110c5760405162461bcd60e51b81526004016104009061236c565b6105c485858585856117eb565b611121611347565b6001600160a01b0381166111865760405162461bcd60e51b815260206004820152602660248201527f4f776e61626c653a206e6577206f776e657220697320746865207a65726f206160448201526564647265737360d01b6064820152608401610400565b61118f816113a1565b50565b61103c838383611923565b81518351146111be5760405162461bcd60e51b8152600401610400906125ae565b6001600160a01b0384166111e45760405162461bcd60e51b8152600401610400906125f6565b3360005b84518110156112cb576000858281518110611205576112056123ba565b602002602001015190506000858381518110611223576112236123ba565b602090810291909101810151600084815280835260408082206001600160a01b038e1683529093529190912054909150818110156112735760405162461bcd60e51b81526004016104009061263b565b6000838152602081815260408083206001600160a01b038e8116855292528083208585039055908b168252812080548492906112b0908490612420565b92505081905550505050806112c4906123e6565b90506111e8565b50846001600160a01b0316866001600160a01b0316826001600160a01b03167f4a39dc06d4c0dbc64b70af90fd698a233a518aa5d07e595d983b8c0526c8f7fb878760405161131b929190612685565b60405180910390a4611331818787878787611a2d565b61133f818787878787611ab4565b505050505050565b6003546001600160a01b0316331461076e5760405162461bcd60e51b815260206004820181905260248201527f4f776e61626c653a2063616c6c6572206973206e6f7420746865206f776e65726044820152606401610400565b600380546001600160a01b038381166001600160a01b0319831681179093556040519116919082907f8be0079c531659141344cd1fd0a4f28419497f9722a3daafe3b4186f6b6457e090600090a35050565b600060056114018382612797565b9392505050565b610f24828260405160240161141e9291906127a3565b60408051601f198184030181529190526020810180516001600160e01b0316632d839cb360e21b179052611c1f565b6001600160a01b0383166114735760405162461bcd60e51b8152600401610400906127c5565b80518251146114945760405162461bcd60e51b8152600401610400906125ae565b604080516020810190915260009081905233905b835181101561156a5760008482815181106114c5576114c56123ba565b6020026020010151905060008483815181106114e3576114e36123ba565b602090810291909101810151600084815280835260408082206001600160a01b038c1683529093529190912054909150818110156115335760405162461bcd60e51b815260040161040090612808565b6000928352602083815260408085206001600160a01b038b1686529091529092209103905580611562816123e6565b9150506114a8565b5060006001600160a01b0316846001600160a01b0316826001600160a01b03167f4a39dc06d4c0dbc64b70af90fd698a233a518aa5d07e595d983b8c0526c8f7fb86866040516115bb929190612685565b60405180910390a46115e181856000868660405180602001604052806000815250611a2d565b50505050565b6001600160a01b0384166116475760405162461bcd60e51b815260206004820152602160248201527f455243313135353a206d696e7420746f20746865207a65726f206164647265736044820152607360f81b6064820152608401610400565b33600061165385611c28565b9050600061166085611c28565b90506000868152602081815260408083206001600160a01b038b16845290915281208054879290611692908490612420565b909155505060408051878152602081018790526001600160a01b03808a1692600092918716917fc3d58168c5ae7397731d063d5bbf3d657854427343f4c083240f7aacaa2d0f62910160405180910390a46116f283600089858589611a2d565b61170183600089898989611c73565b50505050505050565b816001600160a01b0316836001600160a01b0316141561177e5760405162461bcd60e51b815260206004820152602960248201527f455243313135353a2073657474696e6720617070726f76616c20737461747573604482015268103337b91039b2b63360b91b6064820152608401610400565b6001600160a01b03838116600081815260016020908152604080832094871680845294825291829020805460ff191686151590811790915591519182527f17307eab39ab6107e8899845ad3d59bd9653f200f220920489ca2b5937696c31910160405180910390a3505050565b6001600160a01b0384166118115760405162461bcd60e51b8152600401610400906125f6565b33600061181d85611c28565b9050600061182a85611c28565b90506000868152602081815260408083206001600160a01b038c1684529091529020548581101561186d5760405162461bcd60e51b81526004016104009061263b565b6000878152602081815260408083206001600160a01b038d8116855292528083208985039055908a168252812080548892906118aa908490612420565b909155505060408051888152602081018890526001600160a01b03808b16928c821692918816917fc3d58168c5ae7397731d063d5bbf3d657854427343f4c083240f7aacaa2d0f62910160405180910390a461190a848a8a86868a611a2d565b611918848a8a8a8a8a611c73565b505050505050505050565b6001600160a01b0383166119495760405162461bcd60e51b8152600401610400906127c5565b33600061195584611c28565b9050600061196284611c28565b60408051602080820183526000918290528882528181528282206001600160a01b038b16835290522054909150848110156119af5760405162461bcd60e51b815260040161040090612808565b6000868152602081815260408083206001600160a01b038b81168086529184528285208a8703905582518b81529384018a90529092908816917fc3d58168c5ae7397731d063d5bbf3d657854427343f4c083240f7aacaa2d0f62910160405180910390a4611701848860008686604051806020016040528060008152505b6001600160a01b03851661133f5760005b835181101561170157828181518110611a5957611a596123ba565b602002602001015160076000868481518110611a7757611a776123ba565b602002602001015181526020019081526020016000206000828254611a9c9190612420565b90915550819050611aac816123e6565b915050611a3e565b6001600160a01b0384163b1561133f5760405163bc197c8160e01b81526001600160a01b0385169063bc197c8190611af8908990899088908890889060040161284c565b602060405180830381600087803b158015611b1257600080fd5b505af1925050508015611b42575060408051601f3d908101601f19168201909252611b3f918101906128aa565b60015b611bef57611b4e6128c7565b806308c379a01415611b885750611b636128e3565b80611b6e5750611b8a565b8060405162461bcd60e51b81526004016104009190611e48565b505b60405162461bcd60e51b815260206004820152603460248201527f455243313135353a207472616e7366657220746f206e6f6e2d455243313135356044820152732932b1b2b4bb32b91034b6b83632b6b2b73a32b960611b6064820152608401610400565b6001600160e01b0319811663bc197c8160e01b146117015760405162461bcd60e51b81526004016104009061296d565b61118f81611d3d565b60408051600180825281830190925260609160009190602080830190803683370190505090508281600081518110611c6257611c626123ba565b602090810291909101015292915050565b6001600160a01b0384163b1561133f5760405163f23a6e6160e01b81526001600160a01b0385169063f23a6e6190611cb790899089908890889088906004016129b5565b602060405180830381600087803b158015611cd157600080fd5b505af1925050508015611d01575060408051601f3d908101601f19168201909252611cfe918101906128aa565b60015b611d0d57611b4e6128c7565b6001600160e01b0319811663f23a6e6160e01b146117015760405162461bcd60e51b81526004016104009061296d565b60006a636f6e736f6c652e6c6f679050600080835160208501845afa505050565b80356001600160a01b0381168114611d7557600080fd5b919050565b60008060408385031215611d8d57600080fd5b611d9683611d5e565b946020939093013593505050565b6001600160e01b03198116811461118f57600080fd5b600060208284031215611dcc57600080fd5b813561140181611da4565b600060208284031215611de957600080fd5b5035919050565b60005b83811015611e0b578181015183820152602001611df3565b838111156115e15750506000910152565b60008151808452611e34816020860160208601611df0565b601f01601f19169290920160200192915050565b6020815260006114016020830184611e1c565b634e487b7160e01b600052604160045260246000fd5b601f8201601f1916810167ffffffffffffffff81118282101715611e9757611e97611e5b565b6040525050565b600067ffffffffffffffff821115611eb857611eb8611e5b565b5060051b60200190565b600082601f830112611ed357600080fd5b81356020611ee082611e9e565b604051611eed8282611e71565b83815260059390931b8501820192828101915086841115611f0d57600080fd5b8286015b84811015611f285780358352918301918301611f11565b509695505050505050565b600082601f830112611f4457600080fd5b813567ffffffffffffffff811115611f5e57611f5e611e5b565b604051611f75601f8301601f191660200182611e71565b818152846020838601011115611f8a57600080fd5b816020850160208301376000918101602001919091529392505050565b600080600080600060a08688031215611fbf57600080fd5b611fc886611d5e565b9450611fd660208701611d5e565b9350604086013567ffffffffffffffff80821115611ff357600080fd5b611fff89838a01611ec2565b9450606088013591508082111561201557600080fd5b61202189838a01611ec2565b9350608088013591508082111561203757600080fd5b5061204488828901611f33565b9150509295509295909350565b6000806040838503121561206457600080fd5b823567ffffffffffffffff8082111561207c57600080fd5b818501915085601f83011261209057600080fd5b8135602061209d82611e9e565b6040516120aa8282611e71565b83815260059390931b85018201928281019150898411156120ca57600080fd5b948201945b838610156120ef576120e086611d5e565b825294820194908201906120cf565b9650508601359250508082111561210557600080fd5b5061211285828601611ec2565b9150509250929050565b600081518084526020808501945080840160005b8381101561214c57815187529582019590820190600101612130565b509495945050505050565b602081526000611401602083018461211c565b60008060006060848603121561217f57600080fd5b833567ffffffffffffffff8082111561219757600080fd5b6121a387838801611ec2565b945060208601359150808211156121b957600080fd5b506121c686828701611ec2565b925050604084013590509250925092565b6000602082840312156121e957600080fd5b61140182611d5e565b801515811461118f57600080fd5b6000806040838503121561221357600080fd5b61221c83611d5e565b9150602083013561222c816121f2565b809150509250929050565b6000806040838503121561224a57600080fd5b61225383611d5e565b915061226160208401611d5e565b90509250929050565b600080600080600060a0868803121561228257600080fd5b61228b86611d5e565b945061229960208701611d5e565b93506040860135925060608601359150608086013567ffffffffffffffff8111156122c357600080fd5b61204488828901611f33565b6000806000606084860312156122e457600080fd5b6122ed84611d5e565b95602085013595506040909401359392505050565b600181811c9082168061231657607f821691505b6020821081141561233757634e487b7160e01b600052602260045260246000fd5b50919050565b6000835161234f818460208801611df0565b835190830190612363818360208801611df0565b01949350505050565b6020808252602e908201527f455243313135353a2063616c6c6572206973206e6f7420746f6b656e206f776e60408201526d195c881bdc88185c1c1c9bdd995960921b606082015260800190565b634e487b7160e01b600052603260045260246000fd5b634e487b7160e01b600052601160045260246000fd5b60006000198214156123fa576123fa6123d0565b5060010190565b600081600019048311821515161561241b5761241b6123d0565b500290565b60008219821115612433576124336123d0565b500190565b7f6d6178696d756d20636f6d706f73696e6720616d6f756e74206973206c696d6981526603a32b2103a37960cd1b602082015260008251612480816027850160208701611df0565b9190910160270192915050565b6001600160a01b03851681526080602082018190526000906124b19083018661211c565b82810360408401526124c3818661211c565b91505082606083015295945050505050565b6b036b0bc1036b4b73a34b733960a51b8152600082516124fc81600c850160208701611df0565b71103a37b5b2b7399032b0b1b4103a34b6b29760711b600c939091019283015250601e01919050565b7f6d6178696d756d206d696e74696e6720616d6f756e74206973206c696d697465815264032103a37960dd1b60208201526000825161256b816025850160208701611df0565b9190910160250192915050565b60006020828403121561258a57600080fd5b5051919050565b6000602082840312156125a357600080fd5b8151611401816121f2565b60208082526028908201527f455243313135353a2069647320616e6420616d6f756e7473206c656e677468206040820152670dad2e6dac2e8c6d60c31b606082015260800190565b60208082526025908201527f455243313135353a207472616e7366657220746f20746865207a65726f206164604082015264647265737360d81b606082015260800190565b6020808252602a908201527f455243313135353a20696e73756666696369656e742062616c616e636520666f60408201526939103a3930b739b332b960b11b606082015260800190565b604081526000612698604083018561211c565b82810360208401526126aa818561211c565b95945050505050565b600181815b808511156126ee5781600019048211156126d4576126d46123d0565b808516156126e157918102915b93841c93908002906126b8565b509250929050565b6000826127055750600161042c565b816127125750600061042c565b816001811461272857600281146127325761274e565b600191505061042c565b60ff841115612743576127436123d0565b50506001821b61042c565b5060208310610133831016604e8410600b8410161715612771575081810a61042c565b61277b83836126b3565b806000190482111561278f5761278f6123d0565b029392505050565b600061140183836126f6565b6040815260006127b66040830185611e1c565b90508260208301529392505050565b60208082526023908201527f455243313135353a206275726e2066726f6d20746865207a65726f206164647260408201526265737360e81b606082015260800190565b60208082526024908201527f455243313135353a206275726e20616d6f756e7420657863656564732062616c604082015263616e636560e01b606082015260800190565b6001600160a01b0386811682528516602082015260a0604082018190526000906128789083018661211c565b828103606084015261288a818661211c565b9050828103608084015261289e8185611e1c565b98975050505050505050565b6000602082840312156128bc57600080fd5b815161140181611da4565b600060033d11156128e05760046000803e5060005160e01c5b90565b600060443d10156128f15790565b6040516003193d81016004833e81513d67ffffffffffffffff816024840111818411171561292157505050505090565b82850191508151818111156129395750505050505090565b843d87010160208285010111156129535750505050505090565b61296260208286010187611e71565b509095945050505050565b60208082526028908201527f455243313135353a204552433131353552656365697665722072656a656374656040820152676420746f6b656e7360c01b606082015260800190565b6001600160a01b03868116825285166020820152604081018490526060810183905260a0608082018190526000906129ef90830184611e1c565b97965050505050505056fea2646970667358221220b40d55991c30452a52d322efc9bf7c04fa6b135a2606fcccaff4b4e8ae3e424164736f6c63430008090033516d524a3765365954654a524a735a56795141764839384c796e41465161414b375244794771584d52657448505a516d63667869686a624e4c7169646353314265594d5858744d7a456a6243656a4773454170536578674752356e72516d59374e46526a78784c69534b637676565173527a38746475564e4847396d326a6957356a4839324a4e4d4337516d5a587475584348325056396b415a426d6e716352436631736973547531687a74705754734533674356725552",
  "linkReferences": {},
  "deployedLinkReferences": {}
}