{
  "_format": "hh-sol-artifact-1",
  "contractName": "NTCoin",
  "sourceName": "contracts/NTCoin.sol",
  "abi": [
    {
      "inputs": [],
      "stateMutability": "nonpayable",
      "type": "constructor"
    },
    {
      "anonymous": false,
      "inputs": [
        {
          "indexed": true,
          "internalType": "address",
          "name": "owner",
          "type": "address"
        },
        {
          "indexed": true,
          "internalType": "address",
          "name": "spender",
          "type": "address"
        },
        {
          "indexed": false,
          "internalType": "uint256",
          "name": "value",
          "type": "uint256"
        }
      ],
      "name": "Approval",
      "type": "event"
    },
    {
      "anonymous": false,
      "inputs": [
        {
          "indexed": true,
          "internalType": "address",
          "name": "previousOwner",
          "type": "address"
        },
        {
          "indexed": true,
          "internalType": "address",
          "name": "newOwner",
          "type": "address"
        }
      ],
      "name": "OwnershipTransferred",
      "type": "event"
    },
    {
      "anonymous": false,
      "inputs": [
        {
          "indexed": true,
          "internalType": "address",
          "name": "from",
          "type": "address"
        },
        {
          "indexed": true,
          "internalType": "address",
          "name": "to",
          "type": "address"
        },
        {
          "indexed": false,
          "internalType": "uint256",
          "name": "value",
          "type": "uint256"
        }
      ],
      "name": "Transfer",
      "type": "event"
    },
    {
      "inputs": [
        {
          "internalType": "address",
          "name": "owner",
          "type": "address"
        },
        {
          "internalType": "address",
          "name": "spender",
          "type": "address"
        }
      ],
      "name": "allowance",
      "outputs": [
        {
          "internalType": "uint256",
          "name": "",
          "type": "uint256"
        }
      ],
      "stateMutability": "view",
      "type": "function"
    },
    {
      "inputs": [
        {
          "internalType": "address",
          "name": "spender",
          "type": "address"
        },
        {
          "internalType": "uint256",
          "name": "amount",
          "type": "uint256"
        }
      ],
      "name": "approve",
      "outputs": [
        {
          "internalType": "bool",
          "name": "",
          "type": "bool"
        }
      ],
      "stateMutability": "nonpayable",
      "type": "function"
    },
    {
      "inputs": [
        {
          "internalType": "address",
          "name": "account",
          "type": "address"
        }
      ],
      "name": "balanceOf",
      "outputs": [
        {
          "internalType": "uint256",
          "name": "",
          "type": "uint256"
        }
      ],
      "stateMutability": "view",
      "type": "function"
    },
    {
      "inputs": [
        {
          "internalType": "uint256",
          "name": "_amount",
          "type": "uint256"
        }
      ],
      "name": "burn",
      "outputs": [],
      "stateMutability": "nonpayable",
      "type": "function"
    },
    {
      "inputs": [],
      "name": "decimals",
      "outputs": [
        {
          "internalType": "uint8",
          "name": "",
          "type": "uint8"
        }
      ],
      "stateMutability": "view",
      "type": "function"
    },
    {
      "inputs": [
        {
          "internalType": "address",
          "name": "spender",
          "type": "address"
        },
        {
          "internalType": "uint256",
          "name": "subtractedValue",
          "type": "uint256"
        }
      ],
      "name": "decreaseAllowance",
      "outputs": [
        {
          "internalType": "bool",
          "name": "",
          "type": "bool"
        }
      ],
      "stateMutability": "nonpayable",
      "type": "function"
    },
    {
      "inputs": [
        {
          "internalType": "address",
          "name": "spender",
          "type": "address"
        },
        {
          "internalType": "uint256",
          "name": "addedValue",
          "type": "uint256"
        }
      ],
      "name": "increaseAllowance",
      "outputs": [
        {
          "internalType": "bool",
          "name": "",
          "type": "bool"
        }
      ],
      "stateMutability": "nonpayable",
      "type": "function"
    },
    {
      "inputs": [],
      "name": "name",
      "outputs": [
        {
          "internalType": "string",
          "name": "",
          "type": "string"
        }
      ],
      "stateMutability": "view",
      "type": "function"
    },
    {
      "inputs": [],
      "name": "owner",
      "outputs": [
        {
          "internalType": "address",
          "name": "",
          "type": "address"
        }
      ],
      "stateMutability": "view",
      "type": "function"
    },
    {
      "inputs": [],
      "name": "renounceOwnership",
      "outputs": [],
      "stateMutability": "nonpayable",
      "type": "function"
    },
    {
      "inputs": [],
      "name": "symbol",
      "outputs": [
        {
          "internalType": "string",
          "name": "",
          "type": "string"
        }
      ],
      "stateMutability": "view",
      "type": "function"
    },
    {
      "inputs": [],
      "name": "totalSupply",
      "outputs": [
        {
          "internalType": "uint256",
          "name": "",
          "type": "uint256"
        }
      ],
      "stateMutability": "view",
      "type": "function"
    },
    {
      "inputs": [
        {
          "internalType": "address",
          "name": "to",
          "type": "address"
        },
        {
          "internalType": "uint256",
          "name": "amount",
          "type": "uint256"
        }
      ],
      "name": "transfer",
      "outputs": [
        {
          "internalType": "bool",
          "name": "",
          "type": "bool"
        }
      ],
      "stateMutability": "nonpayable",
      "type": "function"
    },
    {
      "inputs": [
        {
          "internalType": "address",
          "name": "from",
          "type": "address"
        },
        {
          "internalType": "address",
          "name": "to",
          "type": "address"
        },
        {
          "internalType": "uint256",
          "name": "amount",
          "type": "uint256"
        }
      ],
      "name": "transferFrom",
      "outputs": [
        {
          "internalType": "bool",
          "name": "",
          "type": "bool"
        }
      ],
      "stateMutability": "nonpayable",
      "type": "function"
    },
    {
      "inputs": [
        {
          "internalType": "address",
          "name": "newOwner",
          "type": "address"
        }
      ],
      "name": "transferOwnership",
      "outputs": [],
      "stateMutability": "nonpayable",
      "type": "function"
    }
  ],
  "bytecode": "0x60806040523480156200001157600080fd5b506040805180820182526006815265272a21b7b4b760d11b602080830191825283518085019094526002845261139560f21b9084015281519192916200005a91600391620001d8565b50805162000070906004906020840190620001d8565b5050506200008d62000087620000bc60201b60201c565b620000c0565b620000b633620000a06012600a62000393565b620000b090633b9aca00620003ab565b62000112565b62000425565b3390565b600580546001600160a01b038381166001600160a01b0319831681179093556040519116919082907f8be0079c531659141344cd1fd0a4f28419497f9722a3daafe3b4186f6b6457e090600090a35050565b6001600160a01b0382166200016d5760405162461bcd60e51b815260206004820152601f60248201527f45524332303a206d696e7420746f20746865207a65726f206164647265737300604482015260640160405180910390fd5b8060026000828254620001819190620003cd565b90915550506001600160a01b038216600081815260208181526040808320805486019055518481527fddf252ad1be2c89b69c2b068fc378daa952ba7f163c4a11628f55a4df523b3ef910160405180910390a35050565b828054620001e690620003e8565b90600052602060002090601f0160209004810192826200020a576000855562000255565b82601f106200022557805160ff191683800117855562000255565b8280016001018555821562000255579182015b828111156200025557825182559160200191906001019062000238565b506200026392915062000267565b5090565b5b8082111562000263576000815560010162000268565b634e487b7160e01b600052601160045260246000fd5b600181815b80851115620002d5578160001904821115620002b957620002b96200027e565b80851615620002c757918102915b93841c939080029062000299565b509250929050565b600082620002ee575060016200038d565b81620002fd575060006200038d565b8160018114620003165760028114620003215762000341565b60019150506200038d565b60ff8411156200033557620003356200027e565b50506001821b6200038d565b5060208310610133831016604e8410600b841016171562000366575081810a6200038d565b62000372838362000294565b80600019048211156200038957620003896200027e565b0290505b92915050565b6000620003a460ff841683620002dd565b9392505050565b6000816000190483118215151615620003c857620003c86200027e565b500290565b60008219821115620003e357620003e36200027e565b500190565b600181811c90821680620003fd57607f821691505b602082108114156200041f57634e487b7160e01b600052602260045260246000fd5b50919050565b610b7b80620004356000396000f3fe608060405234801561001057600080fd5b50600436106100f55760003560e01c806370a0823111610097578063a457c2d711610066578063a457c2d7146101eb578063a9059cbb146101fe578063dd62ed3e14610211578063f2fde38b1461022457600080fd5b806370a0823114610197578063715018a6146101c05780638da5cb5b146101c857806395d89b41146101e357600080fd5b806323b872dd116100d357806323b872dd1461014d578063313ce56714610160578063395093511461016f57806342966c681461018257600080fd5b806306fdde03146100fa578063095ea7b31461011857806318160ddd1461013b575b600080fd5b610102610237565b60405161010f919061099f565b60405180910390f35b61012b610126366004610a10565b6102c9565b604051901515815260200161010f565b6002545b60405190815260200161010f565b61012b61015b366004610a3a565b6102e1565b6040516012815260200161010f565b61012b61017d366004610a10565b610305565b610195610190366004610a76565b610327565b005b61013f6101a5366004610a8f565b6001600160a01b031660009081526020819052604090205490565b610195610334565b6005546040516001600160a01b03909116815260200161010f565b610102610348565b61012b6101f9366004610a10565b610357565b61012b61020c366004610a10565b6103d7565b61013f61021f366004610ab1565b6103e5565b610195610232366004610a8f565b610410565b60606003805461024690610ae4565b80601f016020809104026020016040519081016040528092919081815260200182805461027290610ae4565b80156102bf5780601f10610294576101008083540402835291602001916102bf565b820191906000526020600020905b8154815290600101906020018083116102a257829003601f168201915b5050505050905090565b6000336102d7818585610486565b5060019392505050565b6000336102ef8582856105ab565b6102fa858585610625565b506001949350505050565b6000336102d781858561031883836103e5565b6103229190610b1f565b610486565b61033133826107c9565b50565b61033c6108f3565b610346600061094d565b565b60606004805461024690610ae4565b6000338161036582866103e5565b9050838110156103ca5760405162461bcd60e51b815260206004820152602560248201527f45524332303a2064656372656173656420616c6c6f77616e63652062656c6f77604482015264207a65726f60d81b60648201526084015b60405180910390fd5b6102fa8286868403610486565b6000336102d7818585610625565b6001600160a01b03918216600090815260016020908152604080832093909416825291909152205490565b6104186108f3565b6001600160a01b03811661047d5760405162461bcd60e51b815260206004820152602660248201527f4f776e61626c653a206e6577206f776e657220697320746865207a65726f206160448201526564647265737360d01b60648201526084016103c1565b6103318161094d565b6001600160a01b0383166104e85760405162461bcd60e51b8152602060048201526024808201527f45524332303a20617070726f76652066726f6d20746865207a65726f206164646044820152637265737360e01b60648201526084016103c1565b6001600160a01b0382166105495760405162461bcd60e51b815260206004820152602260248201527f45524332303a20617070726f766520746f20746865207a65726f206164647265604482015261737360f01b60648201526084016103c1565b6001600160a01b0383811660008181526001602090815260408083209487168084529482529182902085905590518481527f8c5be1e5ebec7d5bd14f71427d1e84f3dd0314c0f7b2291e5b200ac8c7c3b92591015b60405180910390a3505050565b60006105b784846103e5565b9050600019811461061f57818110156106125760405162461bcd60e51b815260206004820152601d60248201527f45524332303a20696e73756666696369656e7420616c6c6f77616e636500000060448201526064016103c1565b61061f8484848403610486565b50505050565b6001600160a01b0383166106895760405162461bcd60e51b815260206004820152602560248201527f45524332303a207472616e736665722066726f6d20746865207a65726f206164604482015264647265737360d81b60648201526084016103c1565b6001600160a01b0382166106eb5760405162461bcd60e51b815260206004820152602360248201527f45524332303a207472616e7366657220746f20746865207a65726f206164647260448201526265737360e81b60648201526084016103c1565b6001600160a01b038316600090815260208190526040902054818110156107635760405162461bcd60e51b815260206004820152602660248201527f45524332303a207472616e7366657220616d6f756e7420657863656564732062604482015265616c616e636560d01b60648201526084016103c1565b6001600160a01b03848116600081815260208181526040808320878703905593871680835291849020805487019055925185815290927fddf252ad1be2c89b69c2b068fc378daa952ba7f163c4a11628f55a4df523b3ef910160405180910390a361061f565b6001600160a01b0382166108295760405162461bcd60e51b815260206004820152602160248201527f45524332303a206275726e2066726f6d20746865207a65726f206164647265736044820152607360f81b60648201526084016103c1565b6001600160a01b0382166000908152602081905260409020548181101561089d5760405162461bcd60e51b815260206004820152602260248201527f45524332303a206275726e20616d6f756e7420657863656564732062616c616e604482015261636560f01b60648201526084016103c1565b6001600160a01b0383166000818152602081815260408083208686039055600280548790039055518581529192917fddf252ad1be2c89b69c2b068fc378daa952ba7f163c4a11628f55a4df523b3ef910161059e565b6005546001600160a01b031633146103465760405162461bcd60e51b815260206004820181905260248201527f4f776e61626c653a2063616c6c6572206973206e6f7420746865206f776e657260448201526064016103c1565b600580546001600160a01b038381166001600160a01b0319831681179093556040519116919082907f8be0079c531659141344cd1fd0a4f28419497f9722a3daafe3b4186f6b6457e090600090a35050565b600060208083528351808285015260005b818110156109cc578581018301518582016040015282016109b0565b818111156109de576000604083870101525b50601f01601f1916929092016040019392505050565b80356001600160a01b0381168114610a0b57600080fd5b919050565b60008060408385031215610a2357600080fd5b610a2c836109f4565b946020939093013593505050565b600080600060608486031215610a4f57600080fd5b610a58846109f4565b9250610a66602085016109f4565b9150604084013590509250925092565b600060208284031215610a8857600080fd5b5035919050565b600060208284031215610aa157600080fd5b610aaa826109f4565b9392505050565b60008060408385031215610ac457600080fd5b610acd836109f4565b9150610adb602084016109f4565b90509250929050565b600181811c90821680610af857607f821691505b60208210811415610b1957634e487b7160e01b600052602260045260246000fd5b50919050565b60008219821115610b4057634e487b7160e01b600052601160045260246000fd5b50019056fea2646970667358221220471b0ce8a2d52ccc84213fa12a1b57ee050fc00d8f3fdbe313ec04db13fdbaee64736f6c63430008090033",
  "linkReferences": {},
  "deployedLinkReferences": {}
}